:020000040801F1
:10000000000400209D140108DDFF0608E1FF06083A
:1000100031000708E1FF060809000708D5450B086D
:10002000D5450B08D5450B08D5450B0875920B082F
:10003000D5450B08D5450B08D5450B08D5450B080C
:10004000D5450B08619D0B08319E0B08659E0B087A
:10005000D5450B08D5450B088D9B0B08BD9B0B08A0
:10006000ED9B0B081D9C0B084D9C0B0819670B089A
:1000700045670B0875670B08A5670B08D5670B0864
:1000800001680B0831680B08C9650B08D5450B08DA
:10009000D5450B08D5450B08D5450B087D9C0B08AD
:1000A000D5450B08D5450B08D5450B08D5450B089C
:1000B000D5820B08D5450B08C9800B08696E0B0863
:1000C0007D6F0B08D5450B08D5450B08D5450B08AA
:1000D000D5450B087D860B08D5450B08D5450B0883
:1000E000E99C0B08959D0B08C99D0B08D5450B088D
:1000F000D5450B08D5450B08D5450B0861680B089D
:10010000D5450B08D5450B08D5450B08D5450B083B
:1001100095860B08AD860B08D5450B08D5450B0811
:1001200091680B08BD680B08ED680B081D690B088A
:100130004D690B08D5450B08D5450B08D5450B086F
:10014000D5450B08D5450B08D5450B08517B0B0849
:1001500079690B08A9690B08D9690B08C5860B08D2
:10016000D5450B08D5450B08D5450B08D5450B08DB
:10017000FD9D0B08D5450B08D5450B08D5450B084B
:10018000D5450B08D5450B08D5450B08D5450B08BB
:10019000D5450B08D5450B08D5450B08D5450B08AB
:1001A000D5450B08D5450B08D5450B08D5450B089B
:1001B000D5450B08D5450B08D5450B08D5450B088B
:1001C000D5450B08D5450B08D5450B08D5450B087B
:1001D000D5450B08D5450B08D5450B08D5450B086B
:1001E000793B010825660108C90C02082123020891
:1001F00071D8030861300408D13204080DF50408F1
:1002000041FC04081D02050871150508418E05080A
:1002100045240608150407088D2D0A08F9450A0823
:1002200065620A0889450B08000000000000000014
:1002300000000000000000000000000000000000BE
:10024000D0400B1CD1409C46203AD3401843524228
:100250006346934018437047D0400B1C1141203A2D
:1002600003D49C46134118436346524293401843BB
:10027000704700BF9140031C90409C46203A934039
:10028000194352426346D3401943704781F00041FD
:1002900002E000BF83F0004330B54FEA41044FEA6B
:1002A000430594EA050F08BF90EA020F1FBF54EA06
:1002B000000C55EA020C7FEA645C7FEA655C00F0A2
:1002C000E2804FEA5454D4EB5555B8BF6D420CDD73
:1002D0002C4480EA020281EA030382EA000083EAF6
:1002E000010180EA020281EA0303362D88BF30BD96
:1002F00011F0004F4FEA01314FF4801C4CEA1131EC
:1003000002D0404261EB410113F0004F4FEA03334A
:100310004CEA133302D0524263EB430394EA050FD5
:1003200000F0A780A4F10104D5F1200E0DDB02FA44
:100330000EFC22FA05F2801841F1000103FA0EF2D8
:10034000801843FA05F359410EE0A5F120050EF19E
:10035000200E012A03FA0EFC28BF4CF0020C43FACF
:1003600005F3C01851EBE37101F0004507D54FF0DC
:10037000000EDCF1000C7EEB00006EEB0101B1F52C
:10038000801F1BD3B1F5001F0CD349085FEA300072
:100390004FEA3C0C04F101044FEA445212F5800F7D
:1003A00080F09A80BCF1004F08BF5FEA500C50F11A
:1003B000000041EB045141EA050130BD5FEA4C0CFD
:1003C000404141EB010111F4801FA4F10104E9D186
:1003D00091F0000F04BF01460020B1FA81F308BF7D
:1003E0002033A3F10B03B3F120020CDA0C3208DD49
:1003F00002F1140CC2F10C0201FA0CF021FA02F124
:100400000CE002F11402D8BFC2F1200C01FA02F193
:1004100020FA0CFCDCBF41EA0C019040E41AA2BFB8
:1004200001EB0451294330BD6FEA04041F3C1CDA80
:100430000C340EDC04F11404C4F1200220FA04F0A0
:1004400001FA02F340EA030021FA04F345EA03014A
:1004500030BDC4F10C04C4F1200220FA02F001FA0C
:1004600004F340EA0300294630BD21FA04F029468E
:1004700030BD94F0000F83F4801306BF81F4801127
:100480000134013D4EE77FEA645C18BF7FEA655C9A
:1004900029D094EA050F08BF90EA020F05D054EA6C
:1004A000000C04BF1946104630BD91EA030F1EBF71
:1004B0000021002030BD5FEA545C05D14000494175
:1004C00028BF41F0004130BD14F580043CBF01F568
:1004D000801130BD01F0004545F0FE4141F470014E
:1004E0004FF0000030BD7FEA645C1ABF1946104629
:1004F0007FEA655C1CBF0B46024650EA013406BF2A
:1005000052EA033591EA030F41F4002130BD00BFE8
:1005100090F0000F04BF0021704730B54FF48064A5
:1005200004F132044FF000054FF0000150E700BF26
:1005300090F0000F04BF0021704730B54FF4806485
:1005400004F1320410F0004548BF40424FF0000172
:100550003EE700BF42004FEAE2014FEA31014FEAB5
:1005600002701FBF12F07F4393F07F4F81F0605104
:10057000704792F0000F14BF93F07F4F704730B573
:100580004FF4607401F0004521F0004120E700BF06
:1005900050EA010208BF704730B54FF000050AE08D
:1005A00050EA010208BF704730B511F0004502D58E
:1005B000404261EB41014FF4806404F132045FEA90
:1005C000915C3FF4DCAE4FF003025FEADC0C18BF35
:1005D00003325FEADC0C18BF033202EBDC02C2F12B
:1005E000200300FA03FC20FA02F001FA03FE40EABD
:1005F0000E0021FA02F11444C1E600BF70B54FF0BD
:10060000FF0C4CF4E06C1CEA11541DBF1CEA13559E
:1006100094EA0C0F95EA0C0F00F0DEF82C4481EA06
:10062000030621EA4C5123EA4C5350EA013518BF26
:1006300052EA033541F4801143F4801338D0A0FB13
:1006400002CE4FF00005E1FB02E506F00042E0FBC0
:1006500003E54FF00006E1FB03569CF0000F18BFC6
:100660004EF0010EA4F1FF04B6F5007F64F540746E
:1006700004D25FEA4E0E6D4146EB060642EAC62101
:1006800041EA55514FEAC52040EA5E504FEACE2E6E
:10069000B4F1FD0C88BFBCF5E06F1ED8BEF1004F71
:1006A00008BF5FEA500E50F1000041EB045170BDED
:1006B00006F0004646EA010140EA020081EA030131
:1006C000B4EB5C04C2BFD4EB0C0541EA045170BD2D
:1006D00041F480114FF0000E013C00F3AB8014F1A7
:1006E000360FDEBF002001F0004170BDC4F10004F0
:1006F000203C35DA0C341BDC04F11404C4F1200571
:1007000000FA05F320FA04F001FA05F240EA0200CB
:1007100001F0004221F0004110EBD37021FA04F601
:1007200042EB06015EEA430E08BF20EAD37070BDBB
:10073000C4F10C04C4F1200500FA04F320FA05F01A
:1007400001FA04F240EA020001F0004110EBD3701C
:1007500041F100015EEA430E08BF20EAD37070BD8C
:10076000C4F1200500FA05F24EEA020E20FA04F365
:1007700001FA05F243EA020321FA04F001F0004114
:1007800021FA04F220EA020000EBD3705EEA430E85
:1007900008BF20EAD37070BD94F0000F0FD101F0B4
:1007A0000046400041EB010111F4801F08BF013CED
:1007B000F7D041EA060195F0000F18BF704703F02B
:1007C0000046520043EB030313F4801F08BF013DB2
:1007D000F7D043EA0603704794EA0C0F0CEA13556E
:1007E00018BF95EA0C0F0CD050EA410618BF52EA28
:1007F0004306D1D181EA030101F000414FF000002E
:1008000070BD50EA410606BF1046194652EA43063B
:1008100019D094EA0C0F02D150EA013613D195EAAF
:100820000C0F05D152EA03361CBF104619460AD1F7
:1008300081EA030101F0004141F0FE4141F4700101
:100840004FF0000070BD41F0FE4141F4780170BDF1
:1008500070B54FF0FF0C4CF4E06C1CEA11541DBF56
:100860001CEA135594EA0C0F95EA0C0F00F0A7F858
:10087000A4EB050481EA030E52EA03354FEA013185
:1008800000F088804FEA03334FF0805545EA131398
:1008900043EA12634FEA022245EA111545EA106560
:1008A0004FEA00260EF000419D4208BF964244F1F7
:1008B000FD0404F5407402D25B084FEA3202B61A16
:1008C00065EB03055B084FEA32024FF480104FF4EA
:1008D000002CB6EB020E75EB030E22BFB61A75465E
:1008E00040EA0C005B084FEA3202B6EB020E75EBF1
:1008F000030E22BFB61A754640EA5C005B084FEA59
:100900003202B6EB020E75EB030E22BFB61A754625
:1009100040EA9C005B084FEA3202B6EB020E75EB30
:10092000030E22BFB61A754640EADC0055EA060EF1
:1009300018D04FEA051545EA16754FEA06164FEA34
:10094000C30343EA52734FEAC2025FEA1C1CC0D1E0
:1009500011F4801F0BD141EA00014FF000004FF06D
:10096000004CB6E711F4801F04BF01430020B4F12E
:10097000FD0C88BFBCF5E06F3FF6AFAEB5EB030CE6
:1009800004BFB6EB020C5FEA500C50F1000041EBE3
:10099000045170BD0EF0004E4EEA113114EB5C04B0
:1009A000C2BFD4EB0C0541EA045170BD41F4801183
:1009B0004FF0000E013C90E645EA060E8DE60CEA8B
:1009C000135594EA0C0F08BF95EA0C0F3FF43BAFA8
:1009D00094EA0C0F0AD150EA01347FF434AF95EA5F
:1009E0000C0F7FF425AF104619462CE795EA0C0F43
:1009F00006D152EA03353FF4FDAE1046194622E710
:100A000050EA410618BF52EA43067FF4C5AE50EAE9
:100A100041047FF40DAF52EA43057FF4EBAE12E7D9
:100A20004FF0FF3C06E000BF4FF0010C02E000BFBA
:100A30004FF0010C4DF804CD4FEA410C7FEA6C5C9D
:100A40004FEA430C18BF7FEA6C5C1BD001B050EA40
:100A5000410C0CBF52EA430C91EA030F02BF90EA2B
:100A6000020F0020704710F1000F91EA030F58BFEA
:100A7000994208BF90422CBFD8176FEAE37040F04C
:100A8000010070474FEA410C7FEA6C5C02D150EAEA
:100A9000013C07D14FEA430C7FEA6C5CD6D152EAA5
:100AA000033CD3D05DF8040B704700BF844610466A
:100AB00062468C461946634600E000BF01B5FFF769
:100AC000B7FF002848BF10F1000F01BD4DF808ED39
:100AD000FFF7F4FF0CBF012000205DF808FB00BF0A
:100AE0004DF808EDFFF7EAFF34BF012000205DF864
:100AF00008FB00BF4DF808EDFFF7E0FF94BF0120B1
:100B000000205DF808FB00BF4DF808EDFFF7CEFFB1
:100B100094BF012000205DF808FB00BF4DF808EDF0
:100B2000FFF7C4FF34BF012000205DF808FB00BFC1
:100B30004FEA410212F5001215D211D56FF4787305
:100B4000B3EB625212D94FEAC12343F0004343EAA8
:100B5000505311F0004F23FA02F018BF4042704783
:100B60004FF00000704750EA013005D111F000400D
:100B700008BF6FF0004070474FF00000704700BFA3
:100B80004A0011D212F5001211D20DD56FF478730C
:100B9000B3EB62520ED44FEAC12343F0004343EA61
:100BA000505323FA02F070474FF00000704750EAAC
:100BB000013002D14FF0FF3070474FF00000704716
:100BC0004FEA4102B2F1E04324BFB3F5001CDCF16F
:100BD000FE5C0DD901F0004C4FEAC0024CEA5070A7
:100BE000B2F1004F40EB830008BF20F001007047D6
:100BF00011F0804F21D113F13872BCBF01F00040D9
:100C0000704741F480114FEA5252C2F11802C2F10A
:100C1000200C10FA0CF320FA02F018BF40F001008B
:100C20004FEAC1234FEAD32303FA0CFC40EA0C003D
:100C300023FA02F34FEA4303CCE77FEA625307D17A
:100C400050EA01331EBF4FF0FE4040F440007047B1
:100C500001F0004040F0FE4040F40000704700BF4B
:100C600080F0004002E000BF81F0004142001FBF61
:100C70005FEA410392EA030F7FEA226C7FEA236C6A
:100C80006AD04FEA1262D2EB1363C1BFD21841405F
:100C900048404140B8BF5B42192B88BF704710F0F5
:100CA000004F40F4000020F07F4018BF404211F098
:100CB000004F41F4000121F07F4118BF494292EA00
:100CC000030F3FD0A2F1010241FA03FC10EB0C002C
:100CD000C3F1200301FA03F100F0004302D54942B9
:100CE00060EB4000B0F5000F13D3B0F1807F06D366
:100CF00040084FEA310102F10102FE2A51D2B1F15E
:100D0000004F40EBC25008BF20F0010040EA030052
:100D10007047490040EB000010F4000FA2F10102FF
:100D2000EDD1B0FA80FCACF1080CB2EB0C0200FA89
:100D30000CF0AABF00EBC25052421843BCBFD040D7
:100D40001843704792F0000F81F4000106BF80F451
:100D500000000132013BB5E74FEA41037FEA226C14
:100D600018BF7FEA236C21D092EA030F04D092F0DF
:100D7000000F08BF0846704790EA010F1CBF002013
:100D8000704712F07F4F04D1400028BF40F0004070
:100D9000704712F100723CBF00F50000704700F090
:100DA000004343F0FE4040F4000070477FEA2262B7
:100DB00016BF08467FEA23630146420206BF5FEA88
:100DC000412390EA010F40F4800070474FF0000388
:100DD00004E000BF10F0004348BF40425FEA000C4F
:100DE00008BF704743F0964301464FF000001CE0F7
:100DF00050EA010208BF70474FF000030AE000BF4D
:100E000050EA010208BF704711F0004302D540428A
:100E100061EB41015FEA010C02BF844601460020FC
:100E200043F0B64308BFA3F18053A3F50003BCFA17
:100E30008CF2083AA3EBC25310DB01FA02FC6344C4
:100E400000FA02FCC2F12002BCF1004F20FA02F2CB
:100E500043EB020008BF20F00100704702F12002BE
:100E600001FA02FCC2F1200250EA4C0021FA02F21F
:100E700043EB020008BF20EADC7070477BB972B90F
:100E80000029BEBF00204FF0004106E008BF002847
:100E90001CBF6FF000414FF0FF3000F079B882B016
:100EA000EC462DE9005000F043F8DDF804E002B014
:100EB0000CBC704753B94AB9002908BF00281CBFB1
:100EC0004FF0FF314FF0FF3000F062B882B0EC46D7
:100ED0002DE9005000F044F8DDF804E002B00CBC4D
:100EE000704700BFD0B5FFF735FB00220E4B06461A
:100EF0000F46FFF783FBFFF743FE0446FFF708FBAF
:100F000000220A4BFFF77AFB02460B463046394671
:100F1000FFF7C0F9FFF734FE2346002242EA000241
:100F200010461946D0BD00BF0000F03D0000F04162
:100F30002DE9F041069C154606460F46984600F0FE
:100F400029F805FB01F300FB0838A5FB0023B21AC2
:100F5000434467EB0303C4E90023BDE8F08100BF0D
:100F60002DE9F041069C904606460F461D4600F0CE
:100F70005FF900FB05F5A0FB082308FB0155B21A39
:100F80002B4467EB0303C4E90023BDE8F08100BFF5
:100F9000704700BF00292DE9F043C0F2A68000266B
:100FA000002BC0F29C80884694469E461546044617
:100FB0000F46002B3DD18A4259D9B2FA82F33BB198
:100FC000C3F120029F4020FA02F29D4017439C404B
:100FD000290C220CB7FBF1FEA8B201FB1E7742EAF6
:100FE000074700FB0EF3BB420AD97F190EF1FF320F
:100FF00080F00581BB4240F20281AEF1020E2F4427
:10100000FF1AA4B2B7FBF1F301FB137744EA0747D9
:1010100000FB03F0B84208D97F1903F1FF3280F0DA
:10102000F080B84240F2ED80023B43EA0E430022DA
:1010300003E08B420FD900221346341C18BF012451
:1010400060424FF0000565EB4501584051400019E2
:101050006941BDE8F083B3FA83F2002A40F086804C
:101060008B4202D3844500F2DB800123E5E712B90D
:101070000123B3FBF2F5B5FA85F000283BD1781BCC
:101080004FEA154E1FFA85FC0122B0FBFEF8210C39
:101090000EFB180741EA07470CFB08F3BB4207D9D0
:1010A0007F1908F1FF3102D2BB4200F2BD808846B1
:1010B000FF1AA4B2B7FBFEF30EFB137744EA07470F
:1010C0000CFB03FCBC4507D97F1903F1FF3102D2A9
:1010D000BC4500F2A7800B4643EA0843ADE7524205
:1010E0006FEA060663EB43035DE7404261EB4101B3
:1010F0004FF0FF3654E7C0F1200224FA02F107FA5C
:1011000000F385404FEA154ED7401943B7FBFEF276
:101110000B0C0EFB12771FFA85FC43EA07430CFB0E
:1011200002F79F4204FA00F407D95B1902F1FF307D
:1011300074D29F4272D9023A2B44DF1B89B2B7FBAB
:10114000FEF80EFB187341EA03430CFB08F79F42BD
:1011500008D95B1908F1FF315CD29F425AD9A8F136
:1011600002082B44D81B48EA02428EE7C2F1200352
:101170002CFA03F10EFA02FE20FA03F741EA0E0EF2
:1011800008FA02F028FA03F14FEA1E453843B1FB92
:10119000F5F8030C05FB18111FFA8EF743EA01411D
:1011A00007FB08F38B420CFA02FC09D911EB0E0184
:1011B00008F1FF3930D28B422ED9A8F102087144D0
:1011C000C91A80B2B1FBF5F305FB131140EA0141E6
:1011D00007FB03F78F4208D911EB0E0103F1FF3033
:1011E00016D28F4214D9023B714443EA0843C91B0B
:1011F000A3FB0C89494509D305D000221DE796467B
:10120000FEE6134611E794404445F6D2013BF4E76D
:101210000346EAE78846A5E7C846D1E702468CE7D9
:1012200013460AE7023B57E7A8F102082F443FE7BD
:101230002DE9F041002B44D18A42154604464FD98E
:10124000B2FA82F70E464FB1C7F12003B94020FA37
:1012500003F602FA07F50E4300FA07F44FEA154EBB
:10126000230CB6FBFEF0AFB20EFB106143EA014364
:1012700007FB00F1994209D95B1900F1FF3280F0B8
:10128000EC80994240F2E98002382B445A1AA4B209
:10129000B2FBFEF30EFB132244EA024207FB03F704
:1012A000974208D9521903F1FF3180F0D880974254
:1012B00040F2D580023B43EA004000263146BDE8BB
:1012C000F0818B4247D8B3FA83F6002E48D18B4287
:1012D00002D3824200F2CD8001203146BDE8F08188
:1012E00012B90125B5FBF2F5B5FA85F8B8F1000F92
:1012F00077D14A1B4FEA154EAFB20126B2FBFEF082
:10130000230C0EFB102143EA014107FB00F38B4243
:1013100007D9491900F1FF3202D28B4200F2BA809C
:101320001046C91AA4B2B1FBFEF30EFB131144EA36
:10133000014407FB03F7A74208D9641903F1FF3200
:1013400080F08F80A74240F28C80023B43EA00404D
:101350003146BDE8F081002630463146BDE8F081D7
:10136000C6F1200422FA04F5B3402B4320FA04FC12
:1013700001FA06F721FA04F54FEA134E4CEA070783
:10138000B5FBFEF8390C0EFB18551FFA83FC41EA39
:1013900005450CFB08F1A94202FA06F204D9ED1842
:1013A00008F1FF3467D3A0466D1ABFB2B5FBFEF457
:1013B0000EFB145547EA05410CFB04FC8C4504D98F
:1013C000C91804F1FF355CD32C4644EA0844CCEB41
:1013D0000101A4FB0223994248D344D020460026B1
:1013E0006CE7C8F1200401FA08F305FA08F520FAC1
:1013F00004F7E1404FEA154E1F43B1FBFEF63A0CED
:101400000EFB16111FFA85FC42EA01430CFB06F2A3
:101410009A4200FA08F407D95B1906F1FF3137D276
:101420009A4235D9023E2B449B1ABFB2B3FBFEF061
:101430000EFB103347EA03430CFB00F1994207D936
:101440005B1900F1FF3221D299421FD902382B4497
:101450005A1A40EA0646674650E7104616E70B461A
:1014600029E7134672E7B0409042B7D2601E0026CB
:1014700024E7304622E7A94295D9A8F102081D4485
:1014800092E78C45A0D9023C19449EE71046DFE75D
:101490000E46C9E70238294443E700BF72B6374811
:1014A00080F3098836484EF60851CEF200010860F4
:1014B00040F20000CCF200004EF63471CEF2000192
:1014C0000860BFF34F8FBFF36F8F40F20000C0F290
:1014D000F0004EF68851CEF200010860BFF34F8F46
:1014E000BFF36F8F4FF00000E1EE100A4EF63C7133
:1014F000CEF200010860062080F31488BFF36F8FDE
:10150000A3F04AF8A7F010FA1E481F491F4A91425B
:101510003CBF41F8040BFAE71D49184A91423CBF11
:1015200041F8040BFAE71B491B4A1C4B9A423EBF89
:1015300051F8040B42F8040BF8E700201849194A47
:1015400091423CBF41F8040BFAE7A3F029F8A7F059
:10155000EDF9154C154DAC4203DA54F8041B8847DD
:10156000F9E701F007FC124C124DAC4203DA54F8D3
:10157000041B8847F9E7A3F011B800000008002019
:1015800000000108555555550000002000040020BA
:101590000004002060ED0D0800080020B4120020B7
:1015A000B8120020C8FA0020E00101082802010852
:1015B00028020108280201082DE9F04F2DED108ABC
:1015C000C1F80CD0C3689D46BDEC108ABDE8F08F11
:1015D000A3F0BCFC002383F311882846A047002019
:1015E000A3F098FBA3F0ACFCA3F0B8FAA3F0AEFC18
:1015F00000DFFEE7844641EA000313F003036DD1E8
:10160000403A41D351F8043B40F8043B51F8043BC5
:1016100040F8043B51F8043B40F8043B51F8043BCC
:1016200040F8043B51F8043B40F8043B51F8043BBC
:1016300040F8043B51F8043B40F8043B51F8043BAC
:1016400040F8043B51F8043B40F8043B51F8043B9C
:1016500040F8043B51F8043B40F8043B51F8043B8C
:1016600040F8043B51F8043B40F8043B51F8043B7C
:1016700040F8043B51F8043B40F8043B51F8043B6C
:1016800040F8043B403ABDD2303211D351F8043B0C
:1016900040F8043B51F8043B40F8043B51F8043B4C
:1016A00040F8043B51F8043B40F8043B103AEDD2BB
:1016B0000C3205D351F8043B40F8043B043AF9D20C
:1016C000043208D0D2071CBF11F8013B00F8013BDF
:1016D00001D30B8803806046704700BF082A13D3EC
:1016E0008B078DD010F003038AD0C3F10403D21A04
:1016F000DB071CBF11F8013B00F8013B80D331F838
:10170000023B20F8023B7BE7043AD9D3013A11F8B7
:10171000013B00F8013BF9D20B7803704B78437022
:101720008B78837060467047A2EB0300704700BF60
:1017300002780B78012A28BF9A42F5D16DE9044559
:1017400040EA0104CDE902676FF0000C4FEA4472F1
:1017500012B380EA010414F0070F6AD100F0070405
:1017600020F0070004F0030521F007014FEAC5054A
:10177000F0E8042314F0040FF1E804670CFA05F410
:1017800062EA040266EA04060AD063EA04036246D7
:1017900067EA0407664603E0F0E80423F1E804671B
:1017A00082FA4CF582EA0604A4FA8CF46CBB83FA44
:1017B0004CF583EA0705A5FA8CF595B950E90223A3
:1017C00051E9026782FA4CF582EA0604A4FA8CF425
:1017D00083FA4CF583EA0705A5FA8CF52543DBD09F
:1017E0009CB92DBAB5FA85F424F0070427FA04F160
:1017F000DDE9026723FA04F303F0FF0001F0FF01C3
:10180000FDE80445A0EB0100704724BAB4FA84F463
:1018100024F0070426FA04F1DDE9026722FA04F253
:1018200002F0FF0001F0FF01FDE80445A0EB01001C
:10183000704714F0030F3CD110F0030428D150F886
:10184000082B51F8083B82FA4CF582EA0305A5FA09
:101850008CF55DB950F8042C51F8043C82FA4CF533
:1018600082EA0305A5FA8CF5002DE8D02DBAB5FA69
:1018700085F424F0070423FA04F122FA04F202F0BA
:10188000FF0001F0FF01FDE80445A0EB01007047F7
:101890004FEAC40420F0030050F8082B21F00301A4
:1018A00051F8083B0CFA04F462EA040263EA040308
:1018B000C9E710F003041AD0A1EB040120F00300E3
:1018C000E40750F8042B06D00FD28B785FFAA2F40D
:1018D000E41A06D12BB1CB785FFAB2F4E41A00D146
:1018E0001BB920465DF8104B704701F1040150F818
:1018F000042BCC0721F0030151F8043B48D824D233
:1019000022F07F4482FA4CF594EA1325A5FA8CF56F
:101910000AD165B951F8043B84EA0204B4EB036FC1
:101920000ED150F8042BEBE74FEA132355E035F0C6
:101930007F454DD10878FDE80445C0F100007047AF
:101940004FEA126203F0FF0347E002EA1C4482FA06
:101950004CF594EA1345A5FA8CF50AD165B951F80E
:10196000043B84EA0204B4EB034F0CD150F8042B7F
:10197000EBE74FEA134330E015EA1C4528D10B880A
:101980004FEA124229E04FEA124203EA1C4324E0E4
:1019900002F0FF0482FA4CF594EA1365A5FA8CF57F
:1019A0000AD165B951F8043B84EA0204B4EB032F71
:1019B00009D150F8042BEBE74FEA13630DE015F063
:1019C000FF0F05D10B684FEA122223F07F4304E09A
:1019D0004FF00000FDE80445704712BA1BBA82FAC6
:1019E0004CF482EA0304A4FA8CF5B5FA85F402FA01
:1019F00004F203FA04F34FEA1260FDE80445A0EB99
:101A00001360704708B50D4A13780133DBB21D2B04
:101A100098BF137003684FF0000188BF11705B68B6
:101A200088BF0121984742F61813054AD15C60F33C
:101A30000411D154034B587208BD00BF00080020A8
:101A4000D0120020E85400207FB50D4604A90023E1
:101A5000064641F8043D0C4850F0EAF8044678B9CF
:101A6000039B33B9304621462A46084B5BF0A6FA61
:101A700006E00093304621462A46054B5BF09EFA6D
:101A8000204604B070BD00BF0841002058610C081A
:101A9000FDAA0C0807B50B46009220211A46034BFD
:101AA0005BF08CFA03B05DF804FB00BF64610C08C6
:101AB00010B50A4642F674130749CB585B7903F018
:101AC000040303F0FF042BB92146044B5BF076FAC4
:101AD000204610BD012010BDD012002074610C08FA
:101AE00008B5C388012B0A4601D05B060BD50A4B0B
:101AF00093F9441039B1D3F8A01AB3F94630B1F9CB
:101B00000010994201DB012008BD4021034B5BF02E
:101B100055FA002008BD00BFD012002092610C08C9
:101B200008B5006C03685B68984700F0010008BDC9
:101B300030B5044687B01E480D4649F0DBFDA0B322
:101B40001B4849F0D7FD012806D8204620212A4607
:101B5000184B5BF033FA26E0174842F6A563C35CE6
:101B60001BB300F5187004A905AA49F099FEE0B16D
:101B70009DED057ADFED117AB4EEE77AF1EE10FA19
:101B800014D8DDED047AFDEEE77A17EE100ACDEDFC
:101B9000007AFEF7DFFC2A46CDE90201084B204619
:101BA00020215BF00BFA002000E0012007B030BDDF
:101BB00030150020AA610C08D01200209A99193F14
:101BC000C1610C082DE9F8432DED028BC388012B70
:101BD00004460D4603D09A0601D4012730E2B64EE2
:101BE000304613F0E1FE074638B1B44B20462021C1
:101BF0002A465BF0E3F9002722E296F944306BB104
:101C0000D6F8A03AB3F90410B6F9463003F10A0247
:101C1000914211DD40F28D3293420DDDB388A64A28
:101C2000A3F57A739BB241F658318B4209D920460D
:101C300020212A46A24B1DE0204620212A46A14B06
:101C400018E042F6705392ED207AD358D3ED097A1A
:101C5000B4EEE77AF1EE10FA08DC92ED217AD3EDDA
:101C60000A7AB4EEE77AF1EE10FA06DD964B2046DA
:101C700020212A465BF0A2F9E2E142F28113D35619
:101C800043B1924831F018FC20B9204620212A4661
:101C90008F4BAEE742F66D13DFF81C82F35C9B06B8
:101CA00004D5204620212A468A4BE3E720462946D0
:101CB000FFF73EFF00289ED042F67453DFED868A80
:101CC00058F80330D3ED1B7AF0EEE77AF4EEE87AB9
:101CD000F1EE10FAB0EE688A03D5204629467F4A15
:101CE00090E1D3ED087AF0EEE77AF4EEE87AF1EEDF
:101CF00010FA03D520462946794A83E1D3ED097AC3
:101D0000F0EEE77AF4EEE87AF1EE10FA03D5204629
:101D10002946744A76E1D3ED0A7AF0EEE77AF4EEDA
:101D2000E87AF1EE10FA03D5204629466E4A69E1B9
:101D3000D3ED0B7AF0EEE77AF4EEE87AF1EE10FAF2
:101D400003D520462946694A5CE142F6705958F8A5
:101D5000090003689B689847D0ED007AF0EEE77AB7
:101D6000F4EEE87AF1EE10FA11D558F8090003689C
:101D70009B689847D0ED057AF0EEE77AF4EEE87AC2
:101D8000F1EE10FA03D520462946594A3AE142F6C7
:101D9000705856F8080003689B689847D0ED017AA0
:101DA000F0EEE77AF4EEC87AF1EE10FA14D5424B71
:101DB00053F8080003689B689847D0ED057A9FEDBB
:101DC000467AF0EEE77AF4EEC77AF1EE10FA03D530
:101DD00020462946474A15E142F6705856F8080051
:101DE00003689B689847D0ED027AF0EEE77AF4EE4C
:101DF000C87AF1EE10FA14D52F4B53F80800036897
:101E00009B689847D0ED057A9FED337AF0EEE77A3C
:101E1000F4EEC77AF1EE10FA03D520462946364A89
:101E2000F0E042F6705856F808000368DB689847FF
:101E3000D0ED007AF0EEE77AF4EEC87AF1EE10FA1F
:101E400014D51D4B53F808000368DB689847D0EDA4
:101E5000057A9FED217AF0EEE77AF4EEC77AF1EE9B
:101E600010FA03D520462946244ACBE042F67058A2
:101E700056F808000368DB689847D0ED017AF0EE69
:101E8000E77AF4EEC87AF1EE10FA3BD50A4B53F834
:101E900008000368DB689847D0ED057A9FED0E7A5D
:101EA000F0EEE77AF4EEC77AF1EE10FA2AD5204682
:101EB0002946134AA6E000BFD0120020DA610C08C0
:101EC00081620C086E620C0891620C08882C00205C
:101ED000A5620C08F7610C08000000340C620C08C5
:101EE00018620C0823620C082E620C0839620C0878
:101EF000B8620C08C6620C08D4620C08E2620C08D6
:101F0000F0620C0842F6705856F808000368DB6867
:101F10009847D0ED027AF0EEE77AF4EEC87AF1EE67
:101F200010FA14D5494B53F808000368DB6898474A
:101F3000D0ED057A9FED467AF0EEE77AF4EEC77AB7
:101F4000F1EE10FA03D520462946424A5AE042F6FD
:101F5000705856F8080003681B699847D0ED007A5E
:101F6000F0EEE77AF4EEC87AF1EE10FA10D5374BBE
:101F700053F8080003681B699847D0ED057A9FED78
:101F8000347AF0EEE77AF4EEC77AF1EE10FA24D460
:101F900042F6705856F8080003681B699847D0ED60
:101FA000017AF0EEE77AF4EEC87AF1EE10FA18D57D
:101FB000264B53F8080003681B699847D0ED057A53
:101FC0009FED237AF0EEE77AF4EEC77AF1EE10FA9D
:101FD00007D520462946204A14E0204629461F4AB4
:101FE00010E042F670539FED1A7AF358D3ED0A7A57
:101FF000F0EEE77AF4EEC87AF1EE10FA05D5184A59
:1020000020462946FFF746FD1AE0D3ED097AF0EEA7
:10201000E77AF4EEC77AF1EE10FA03D520462946A6
:10202000104AEFE7D3ED0B7AF0EEE77AF4EEC77AD9
:10203000F1EE10FA7FF5D1AD204629460A4AE1E7D4
:10204000BDEC028B3846BDE8F88300BFD0120020FB
:1020500000000034FE620C081A630C080C630C08C4
:1020600044620C0852620C0860620C082DE9F04FC3
:10207000824680699046026885B0D2F8B0200D464D
:102080009047044620B9504621462A467D4B16E02B
:10209000DAF81C001AF0AAFA044638B150460021BA
:1020A0002A46794B5AF08AFF0024E6E0DAF81C2031
:1020B00092F83D2032B1754B504621462A465AF0DF
:1020C0007DFFDAE0724F42F61C12414617F802908B
:1020D00043F2E0723E46B85802685269904720B910
:1020E000504621462A466B4BE9E750462946FFF702
:1020F000DFFC0390002800F0C08042F61A1B17F89E
:102100000B2002F02402242A04D1504621462A46FC
:10211000614BD4E738461F2113F094FB20B93846B1
:10212000214600F05FFB08E038461F2113F08AFBD0
:1021300018B117F80B20130728D4BAF806201AB3E1
:10214000012A2AD0D70628D4BAF8062011B20129CC
:1021500045D0900643D401E001294AD0520648D424
:102160004E4A1268506C026852699047012804D1A7
:10217000504600212A464A4BA1E75046414605B049
:10218000BDE8F04F5BF0EEBA039C76E03CF0A4F8BB
:102190000221444A38F08CFA6FE0DAF81820D2EDC8
:1021A000517A92ED500A20EE270AA8F0CFFBDFED1E
:1021B0003E7AB6F9043020EE270ADFED3C7A20EEB5
:1021C000270A07EE903AF8EEE77AB4EEE70AF1EE66
:1021D00010FAB9DD504610212A46354B6FE742F61A
:1021E0006D10305C8306B7D5504620212A46314B0E
:1021F00065E796F94410264A39B1D2F8A01AB2F927
:102200004620B1F9001091422FDBB8F1000F03D046
:1022100009F0EF02042AA3D0D6F8A02A1C4FB2F985
:10222000023000EE103A3846B8EEC00A00F0CAFF9D
:10223000B5EEC00AF1EE10FA06DD1F4A00925046D4
:1022400040212A461D4B16E043F2E072B85802685E
:102250001269904710B9B9F10B0F81D1D6F8A02AB5
:10226000B2F90220002AE8DC7AE7134A144B009204
:10227000504640212A465AF0A1FE204605B0BDE84E
:10228000F08F00BF28630C083F630C085B630C08E9
:10229000D01200207E630C088F630C08C812002047
:1022A000C4630C08D2630C08E02E65420000C842EB
:1022B000A7630C08F7610C08BB630C08AF630C083C
:1022C000EF630C0870B503680D4D5B680E46012185
:1022D0000446984742F618110A4A6B5C507260F344
:1022E00004136B5403F0100303F0FF0033B12046D6
:1022F00032460121BDE87040FFF7B8BE70BD00BF97
:10230000D0120020E85400202DE9F04142F6741369
:10231000264FFB580546587910F001040E46B84682
:1023200002D00120BDE8F0813846202113F08AFA5E
:1023300068B138461F2113F085FA40B1284621467E
:1023400032461B4B5AF03AFE2046BDE8F08142F679
:102350001A1318F8033003F02403242B05D1284660
:1023600000213246134B5AF029FEB5F90630002BF6
:10237000D7D031462846FFF767FB3146044628464A
:10238000FFF720FC20403146C4B22846FFF790FBFF
:10239000314604402846FFF7A3FB31460440284657
:1023A0005BF0A6F92040BDE8F08100BFD01200200C
:1023B00001640C088F630C0870B505460E465AF090
:1023C00025FE00282FD0EB88012B02D09A0700D4DD
:1023D00070BD286C03685B689847C0F300240CB993
:1023E000830501D4012070BD286C03685B6A98479F
:1023F00042F604530C4AD35807EE903AF8EEE77AC7
:1024000030EE670ADFED097AB0EEC00AB4EEE70AF3
:10241000F1EE10FAE6DD284602213246044B5AF06E
:10242000CDFD204670BD70BDD01200200000C84216
:102430001B640C08F8B504460F465AF001FEE38809
:10244000012B054601D05B070BD5E0691CF0D8FADB
:10245000064630B9204604213A46034B5AF0AEFDF9
:1024600035462846F8BD00BF2E640C08F8B5044672
:102470000F465BF00DF8E388012B054601D0DB0623
:102480000BD52046FFF74CFB064630B920461021FD
:102490003A46034B5AF092FD35462846F8BD00BF38
:1024A00045640C0838B504460D465AF00DFDC0B120
:1024B000E388012B02D01B0600D438BD42F6B123BD
:1024C000084AD35C3BB1204680212A46064B5AF08D
:1024D00075FD002038BD20462946BDE838405BF038
:1024E0003BB838BDD01200205A640C08F0B5124C2D
:1024F00085B0D4F8983A0093D4F89C3A0193D4F874
:10250000A03A0293D4F8A43A03936A4601230746FB
:102510000E465BF05BF93146054638465AF0D8FC6A
:1025200042F618122840A35C60F3C303C3F3C00053
:10253000A35405B0F0BD00BFD01200202DE9F04F2C
:102540005B4D002304468069AB7203688FB0D3F8FB
:10255000B0300E469847AB46804630B920464146DB
:102560003246544B5AF02AFD9DE043F2E073524F3D
:10257000F8580368DB689847824650484FF042FBA2
:1025800010F0060F14BF4FF001094FF00009BAF127
:10259000000F07D1B9F1000F04D101238BF80A30E5
:1025A000454675E0444814F095F90546B8B9A06968
:1025B00003685B6A984750B9BAF1000F06D14048EA
:1025C000404BB9F1000F08BF184600E03D480090AD
:1025D0000021204632463C4B5AF0F0FC58E0606C3B
:1025E00004A917F0CBFE40B19DF811305A0604D56E
:1025F000204600213246354B2EE00023606C0B93C1
:102600000C930D9309930A9308AA036801920BADEA
:1026100009AA02920095D3F8CCC005A906AA07AB77
:10262000E047284629F04CFDD7ED1B7AB4EEE70AC7
:10263000F1EE10FA04DB204600213246244B0BE079
:10264000A1691D4801F5987104F09EFB054638B15B
:10265000204B2046002132465AF0B0FC002517E0FE
:10266000E388012B01D01B0797D597F8B83C6C2263
:1026700003F0030302FB0373B3F8842BB7F92A308A
:102680009A4207DD204608213246134B5AF096FC49
:10269000A84608E0204631465AF070FD054600285D
:1026A0007FF47BAFF4E740460FB0BDE8F08F00BF8A
:1026B000E854002028630C08D012002008410020B4
:1026C0006B640C0886640C08FDAA0C0892640C0864
:1026D000A0640C08B5640C08C7640C081FB501A8F9
:1026E00019F03AFD01A903484FF0E6FA05B05DF88C
:1026F00004FB00BF0841002042F6181230B5835C8D
:10270000C3F340158D4208D061F34513835421B1C2
:102710000F21BDE8304003F07FBA30BD70B542F6FE
:1027200018130446C35CC3F341038B420E4625D005
:1027300000F50855183541B101290DD11A2103F0D2
:102740006BFA284606210E4A10E01B2103F064FABA
:10275000284606210B4A09E0012100F0B5FA20467F
:102760001D2103F059FA084A2846062137F0A0FF38
:1027700042F61813E25C66F34202E25470BD00BFF9
:1027800029650C0814650C0824650C0842F66D12C6
:1027900038B5835C0C46C3F34001A1420BD064F30F
:1027A000410383549B0702D405F0A4FB01E005F02C
:1027B000D7FC014B5C7338BDE854002042F66D1322
:1027C000C25C61F38202C2547047000010B5202140
:1027D000044613F037F804F524539A7E60F382021E
:1027E0009A7610BD42F61A13C35CC3F3C0038B4242
:1027F0001FBF00F524539A7E61F3C3029A7642F616
:102800001A13C35C1B074CBF3621372103F004BAEF
:1028100059F0B8BB45F064B812F0F8BB4AF0AEBE50
:1028200014F090BB03F07EBF46F082BF12F0B0BC44
:1028300012F020BB12F090BA31F07EBC24F0A8BC9C
:1028400032F0C8B854F070BC3FF04EBB01F098BCF9
:1028500001F008BB01F000BB01F098BC11F0C4BC52
:1028600006F0E0B805F040BD05F0F6B82DF024BB49
:1028700011F0EEBF18F086BF12F066BC10F07CBC01
:1028800000F04EBB11F0F8BE12F06EBB59F034BE32
:1028900048F0F6BE12F0C6BB13F006BD11F07EBEC6
:1028A00011F006BE13F0AABB12F0A6BA10B504468A
:1028B00030F018F9074B084A1A60204614F01CF84B
:1028C00004F6D810054931220823BDE8104031F044
:1028D0004FBA00BF1008002084530D08C8670C08C9
:1028E00010B5044600F6D81031F080FB04F53453DF
:1028F00004F63C2422689A6310BD000010B504461B
:1029000012F060F92046BDE8104012F0B7BF000099
:10291000FFF7F4BF10B5044605F0ECFE204613F0B7
:1029200017FD2046BDE8104004F0B6B8FFF7F2BF2F
:1029300010B50121044613F041FD20B12046BDE849
:10294000104003F0B7B810BDFFF7F2BF38B5022151
:10295000044613F033FD28B12046012113F02EFD6B
:1029600000285DD020464FF4003113F027FD10B150
:10297000204603F019F92046402113F01FFD60B1F5
:1029800004F6A825284633F027FD04F53B5191F9BC
:10299000003013B1284633F00BFE20464FF480611F
:1029A00013F00CFD18B104F6A82033F07BFD20468F
:1029B000202113F003FD50B143F2E073E0580368A7
:1029C000DB68984798BB20460EF016FB78BB204684
:1029D000802113F0F3FC80BB20464FF4802113F0DC
:1029E000EDFC50BB20464FF4002113F0E7FC20BB68
:1029F0002046102113F0E2FC20B342F6705304F697
:102A0000A825E0584CF02EF9284604F5187136F048
:102A1000C1FF284604F5AE71BDE8384036F058BF16
:102A2000204603F047F8204603F0AAF89AE742F65A
:102A30007453E0584EF02EFBC9E704F6A82033F09B
:102A4000F7FFD5E738BD0000FFF780BF10B50121C3
:102A5000044613F0B3FC10B1204603F091F8204671
:102A6000802113F0ABFC28B120464FF4002113F075
:102A7000A5FC20B12046BDE8104003F0FBB904F6E8
:102A8000A82033F0E3FEF5E7FFF7E0BF10B50446FA
:102A900005F0AEFB204605F02FFB204605F0C8FCF4
:102AA00004F53B50183051F0F9FE204605F016FCB5
:102AB0002046BDE8104014F04BBA0000FFF7E6BF17
:102AC00038B54FF6FF71044613F078FC30B142F68A
:102AD000181320460721E25803F0EEF804F50450DD
:102AE00042F674153030FEF78DFF63595B79DB07D2
:102AF00017D404F5EA5018F099F82046FFF766FE5F
:102B0000605994F89C12036894F85E201B699847FA
:102B1000D4F8A03A6059B3F90410B3F9082056F07C
:102B200011FC3EF0A7F9204614F00EFA42F61813F5
:102B300043F21922E35CDB43C3F3C013A3542046E2
:102B4000BDE8384012F048BBFFF7BABF70B500F6D9
:102B5000FC26054630461EF06DFB002430461CF076
:102B6000D7FFE3B2834213D20C2202FB035201349B
:102B7000D2F8441B074A52F823008142EED042F8B3
:102B8000231005F536502430BDE8704054F05ABA91
:102B900070BD00BFB8120020FFF7D8BFF8B500F530
:102BA000F453083300F526561B68B36000F5F45360
:102BB000143341F658571B68F3600446C05900F5BA
:102BC0008C40503026F060FCBDEEC00A42F69013F7
:102BD00010EE102AE2503546B2686A612B46EA6868
:102BE0009A6120464FF6FF7113F0E8FB30B12046A2
:102BF000E2590921BDE8F84003F036B8F8BD0000FD
:102C000010B542F6181300F52452C35C13F0060306
:102C100002F1180256D042F61911415CC90751D58C
:102C200051786FF300015170D0F8984AD0F89C2A7F
:102C3000022BB4F9023006EE903A00F526530BBF92
:102C4000D3ED025AD3ED055AB2F90230B2F902308F
:102C50000BBF07EE903A07EE903A00F5265300F5C9
:102C600026530BBF93ED036A93ED066AF8EEE77AFD
:102C7000F8EEE77AF8EEE66A26EE677A67EEA57A6E
:102C800000F5F452E6EE867AA6EEA57AD2ED056A54
:102C900092ED026A67EEA66AE7EE066AFDEEE66A64
:102CA00016EE903A6380D2ED026AD0F89C0A67EE85
:102CB000A67AD2ED056AE7EE667AFDEEE77A17EEC0
:102CC000903A438010BD000010B504462DED028BF4
:102CD00061B3204611F008FD42F6901240F2E63151
:102CE000A3581B1A03F2F3138B422BD9A05000F503
:102CF0008C405030642390FBF3F308EE103ADFED84
:102D0000137AB8EEC88A28EE278AB0EE480AA7F0F0
:102D100029FC04F5265383ED050AB0EE480AA7F016
:102D20004BFD04F5265484ED060A0BE042F6181319
:102D3000C35C03F00603042B04D111F0A9FCB0F529
:102D40007A7FC6D2BDEC028B10BD00BF35FA8E3C37
:102D500010B5044611F0AAFF2046102113F02EFBF7
:102D600020B12046BDE8104003F030B910BD00008E
:102D7000FFF7EEBF10B50A4604490346086801682C
:102D80000C681946024BA047002010BDC812002055
:102D9000D012002070B500F526550446203528468F
:102DA00019F056F894F92C30F3B342F6741304F684
:102DB000A866E058283036F09FFFDFED1C0A90ED42
:102DC000000AB7EE001A26F0A3FB94F9063F012B88
:102DD00008BF86ED180A0021284618F085FEDFEDB1
:102DE000147A04F59C5393ED057A20EE270ADFED63
:102DF000117AA7EE270A304683ED050A1BF0B0FCD6
:102E000020464FF4005113F0D9FA68B104F5EA50A6
:102E100016F0B0FC40B904F6A82031460022002389
:102E2000BDE8704036F03ABB70BD00BF0000000046
:102E3000CDCCCC3D6666663FFFF7ACBF00F5EA50EF
:102E4000012117F0EBB9000010B5044600F59D50C4
:102E5000103024F013FB42F67053E05803685B6AAD
:102E60009847204611F048F92046FFF7E7FF204633
:102E700005F072FB204604F065FE204605F09CFE3E
:102E8000204604F041F8204605F084FD04F5375053
:102E900024303FF02FF820464FF6FF7113F08EFAE2
:102EA00020B12046BDE8104002F08CBF10BD0000EC
:102EB000D0EDA56A90ED1F0AF5EEC06A07EE901AF4
:102EC000F1EE10FAB8EEE77A02D827EE000A704762
:102ED000F7EE007AF4EEE76AF1EE10FA1BDCB6EEDC
:102EE000006AF4EEC66AF1EE10FA14D49FED0B6A94
:102EF000D0EDA55A87EE067A77EEE57A67EE076A97
:102F000067EE877A26EE877AE5EE877A67EE867A2D
:102F100027EE800A7047C0EDA57AE7E700A08C4550
:102F200038B542F67415044643595B79DA074FD534
:102F300042F61813C35C1B064AD443F2E073C05830
:102F400003681B699847002842D142F61C13E35CD2
:102F50000B2B00D138BD42F674539FED1E7AE35817
:102F6000D3ED427AF0EEE77AF4EEC77AF1EE10FA9A
:102F70002ED56059283036F0BFFEDFED170A90EDF0
:102F8000000AB7EE001A26F0C3FAB5EEC00AF1EE59
:102F900010FA1DDD42F6F843E35A3B339BB2762B21
:102FA00016D841F6505340F2E632E35803F2F313D9
:102FB00093420DD841F65453E35803F2F31393426E
:102FC00006D860599FED050ABDE8384056F0D6B9DD
:102FD00038BD00BF00000034000000000AD7233CC9
:102FE00042F67453C0584EF027BA000038B5B5EE1B
:102FF000C00AF1EE10FA2DED028B04460D46F0EEFC
:10300000408A07D842F67413C05803681B68984773
:10301000F0EE408A204611F045FE00210028CCBF8A
:1030200004464FF4FA744FF47A72284626F066FA92
:1030300023B29842B6EE000A0CDA07EE900A07EEC9
:10304000103AB8EEE78A68EE007AB8EEC78A87EEE3
:10305000888A15E0C1BFC21A08EE102AB8EEC88AE5
:10306000C3F57A73C3BF68EE007A08EE103AB8EE83
:10307000C88AB0EE408AC4BF87EE888A38EE008ADC
:1030800078EEC08AB5EE080AF1EE688A88EE800A0A
:10309000FEEE000AB7EE001A26F03AFA60EE087A61
:1030A000B7EE007A67EE887A37EE400A67EE887AE4
:1030B000E8EE007ABDEC028BB0EE670A38BD000086
:1030C00008B542F67413C05803681B689847F6EEBB
:1030D000007A20EE270ADFED057AB4EE670AF1EEFA
:1030E00010FA48BFB0EE670A08BD00BF000000003C
:1030F00007B542F6745302A9C25821ED010A00F542
:10310000345300F53A5092ED080AD2ED320A93EDAD
:103110000E1A08304FF0CAF99DED010A03B05DF8B0
:1031200004FB000038B52DED028B42F67053DFED45
:10313000100AC358B7EE001A93ED240A044626F08D
:10314000E7F942F67453B0EE408AE55842F674133C
:10315000E05803681B68984738EE400A9FED058ADF
:1031600020EE080A85ED120ABDEC028B38BD00BFC7
:103170000000000000007A4400F5F45300F5F4501C
:10318000D3ED025AD2ED007AD0ED056A91ED006AD6
:1031900026EEE77A67EEA57AA6EE257AE6EE267A9F
:1031A00081ED007AC2ED007A70470000B0F8743902
:1031B00013B9B0F9400000E018B20028B8BF40428F
:1031C00080B2704738B52DED068B42F66D1304467C
:1031D000C35C03F00203B0EE408A03F0FF0513B1B5
:1031E0009FED280A4AE011F05DFDB4F948309FEDEB
:1031F000269ADFED240A01EE103A07EE900AF8EE67
:10320000C19AB0EE480AB0EE491AF8EEE78A26F005
:103210007FF938EEE9AAB4F9480029464FF4C8729C
:10322000B0EE408A26F06AF9B4EECA8AF1EE10FADE
:10323000A4F848000DD52046FFF7B8FF07EE900A26
:1032400038EE4A0AB8EEE77A27EE000A80EE0A0A5C
:1032500014E038EEA91AB4EEC18AF1EE10FABFDD1F
:10326000B4F9403007EE903A38EE410AF8EEE77ACA
:1032700067EE807A39EE410A87EE800ABDEC068B54
:1032800038BD00BF0000000000007A4438B5044695
:103290002DED048B4C480D46F0EE408AF0EE609A1E
:1032A00011F050FD07EE905AB8EEE78A10B9B0EE73
:1032B000480A85E004F534503C3054F0E9F8B0EEAB
:1032C000409A5CF0EFFE04F5345301221A703F4B34
:1032D0001A68821AB2F57A7F1A4604F5335303F15D
:1032E0003C030CD941F64E21615E07EE901AF8EED0
:1032F000E77A77EEA87A77EEC97AC3ED007A002DE7
:10330000106006DA42F67412A258127912F0040F15
:1033100006E00CD042F67412A258127912F0080F8F
:1033200002BFD3ED007AE8EE297AC3ED007A41F6C8
:103330004E22D3ED007AA25E07EE102AB8EEC77ACD
:1033400004F5D35277EE677AFDEEE77A17EE901A1E
:10335000C72906DD92F9001001310129B8BF01210A
:103360000AE0C73107DA92F900100139481CA8BFFA
:103370004FF0FF3100E00021117092F90010002998
:10338000B8BF49420229C2BF002183ED007A117003
:1033900092F90020002A8AD1D3ED006A94ED090A3F
:1033A000DFED0B0A9FED0B1A36EEC77A78EEC97A7D
:1033B00077EE677A27EE800A26F0AAF838EE000A40
:1033C000BDEC048B38BD00BFD0120020C412002019
:1033D000000016C300001643052070474FF4B07379
:1033E00003FB0100203070474FF4B07303FB010072
:1033F00020307047FFF728BD00F56150343008F0E9
:1034000091B8000000F56150343008F04FB800006A
:1034100000F56150343006F04BBE000004F008BEE9
:103420000C4B10B50446036000F53B503EF0A6FB84
:1034300042F21823084AE25042F22423E05808B12D
:1034400019F098F8D4F88C0808B119F093F82046D0
:1034500010BD00BFA46B0C0804420D0838B504462B
:10346000002505F015FB0C4B236084F8485084F8C8
:10347000495004F14A0018F061FE04F1560018F0BA
:103480005DFE04F1620018F059FE04F16E0018F0C0
:1034900055FEE567204638BD64B20C082DE9F04FB3
:1034A0002DED028BDC4B044687B040F8A03B02F0C8
:1034B00023FEDA4B0393029402AB93E8060004F672
:1034C000D81030F023FC04F648202CF005FC04F161
:1034D000540104F6A82031F00DF804F6FC201CF08D
:1034E00095FA04F14A03C4F8903D04F6A86A04F67C
:1034F000945017F00BFE50461BF068F804F5CD58B9
:1035000004F59D5008F11808103004F5075723F012
:1035100069FC3946192240462FF0E0FE04F5D250EE
:10352000002118220C30A9F0CDFF04F5D250143040
:1035300036F094FB04F5D55904F5D35004F5EA555B
:1035400009F11809043004F5DF563EF0F9F80836A1
:103550004846294642462AF09DF9304629464246C9
:103560002BF09CFA494632460123284615F06CFEA2
:1035700004F5025642F2AC033562E45042F2B00365
:10358000A74AE25042F2B403A64AE45042F2B8031A
:103590004FF00009E25042F2BC034FF6FF7BE450CB
:1035A00004F50353A04A1A601C36A6F84C90C6F8DE
:1035B0009090A6F84EB0A6F850B09C4930462FF037
:1035C00075FA42F29C03A6F828B0A6F83AB004F8BF
:1035D0000390737803F0FE0369F34103737004F5FD
:1035E000265904F50456303609F120095246304672
:1035F0004B46294659F0B2FC04F5345A42F23013D6
:103600008B4AE2500AF13C0AC6F840A075640436C1
:1036100030462EF0D5FC28B930462EF08FFC00281D
:1036200000F06F8104F50550294638302DF0EAFD91
:10363000384642F2182730F0A3FD7E4BE35104F5E3
:10364000085305221A8500225A859A854FF4827004
:1036500018F08AFF42F22423774AE050136804F5F9
:103660000856183603B91660744BE351203600270C
:10367000F01937F0A1FA724BF35107F5B077B7F5AF
:10368000DC6FF5D142F61C130027E75442F61D13F8
:1036900004F52450E75442F61F1304F52556E75469
:1036A000383056F0E5FF06F110004AF055F80836BC
:1036B000644B65491E6030462FF0F8F9B7EE008A7A
:1036C00004F5255383ED0F8A04F5265383ED028A12
:1036D00004F5265383ED058A5C4B05935C4B009300
:1036E000049406AB13E90C0048464FF4007118F03F
:1036F00045F904F52A504A4643462946343044F0F9
:1037000045F904F52C5029463C305AF0E7FD04F504
:103710002D5020305AF0E8FE04F53450B0EE480A3F
:103720000C3036F0B9FB04F5345B04F53450B0EEE0
:10373000480A0BF12C0B203036F098FA584618F056
:10374000FDFC42F63C53434AE25004F5365904F579
:103750003553002609F109091E605E609E60DE6037
:103760001E615E614846CAF830508AF82C7045F0F8
:103770007FFB42F6905204F5365344F80290364AE5
:103780009F7504F53658103313604FF40043C8F8A2
:103790005830C8F86050C8F85CB008F124084046BA
:1037A0002E492FF083F9C8F80C9004F5375004F532
:1037B000385829465A4608F1380824303EF0A4FA11
:1037C000294640464EF00AFA04F5AE7304F53A5025
:1037D000424629460093083004F518734EF038FE2F
:1037E00004F53A50294628302FF042FC42F6A863EF
:1037F0001B4AE25004F53B503EF0ACF904F53B5057
:10380000183050F0D7FF04F53B503430037DC0F83A
:103810000C9003F0FC0325E0A46B0C08F5330108C1
:10382000F933010805340108113401080C020D08B0
:10383000E8640C0804420D0858550020BC6B0C08C5
:10384000B46C0C08745400205CC30C081D340108CF
:10385000AC6B0C08247B0D08805E0020047A0D08F8
:1038600010650C0867F3820303750761A8492FF000
:103870001DF904F53C500C30A6492FF017F904F55A
:103880003C50294604F54758143050F00BF908F124
:10389000090018F053FC04F5475301225A83DF61F5
:1038A00004F54853FF221A7404F548534FF0FF32D1
:1038B0005A6204F5495343F2502208F1080804F50E
:1038C0005D59A75440465F74934909F13C092FF0B4
:1038D000EDF829464246484656F0D4FE43F27C7342
:1038E0008E4AE25006238E4A89F840308D4B136091
:1038F0003546B9B218224A4301379E5C002EF8D1F2
:1039000004E042F234130122E2548BE6864B04F5C4
:103910007558198043F2E07308F11C0804F55F50F4
:1039200044F80380243005F0B3F843F2E4737F4A8F
:10393000E25004F560502C3005F0AAF804F5615708
:1039400043F62C0334377A4AE250384605F0A0F8A3
:1039500043F67403774AE25087F8486087F860605E
:1039600043F6D80304F5635738374FF0010904F8DC
:103970000390384605F08CF843F6F8036E4AE2509F
:1039800004F5655307F194005D609D60DD6036F0DD
:1039900065F943F6202304F56850C7F8A050C7F82E
:1039A000B450C7F8C8502C30E65405F071F804F54F
:1039B000695743F62C23614AE2503C37384605F0FC
:1039C00067F843F67C235E4AE25004F56B5087F8B3
:1039D0004860083005F05CF843F6C823594AE250C5
:1039E00004F56C50103005F053F843F61033564A86
:1039F000E25004F56D539D61DD611D6204F56D5566
:103A00002435284605F044F885F8486043F66433C9
:103A100004F56E554D4AE2503435284605F038F825
:103A200043F6B4334A4AE25085F8486004F57055CD
:103A3000284605F02DF8474B2B6004F571500830EF
:103A400005F026F843F64843434AE25004F5725025
:103A5000143005F01DF843F69443404AE25004F553
:103A600073501C30FFF7FAFC404605F011F843F69E
:103A70005C533B4AE25004F57650243005F008F8D8
:103A800004F5775543F6A453364AE2502C352846C0
:103A900004F0FEFF85F8486043F6EC5304F57855D2
:103AA0003835314AE250284604F0F2FF43F63863D5
:103AB0002E4AE25085F8486085F8496004F57A5549
:103AC0001435284604F0E4FF85F8486043F6946313
:103AD00004F57B55264AE25020352846FFF7BEFC08
:103AE00043F6E063234AE25004F57D5085F8809068
:103AF00024300BF0B3F842F670122046A35C43F07A
:103B00000303A35407B0BDEC028BBDE8F08F00BFE8
:103B1000C0800D08747B0D086C6B0D0848A60C085E
:103B2000105500201C930C080A5500208CA80C0886
:103B3000D8A80C0834A90C0898AC0C0840AD0C08A7
:103B400098AD0C08F0AD0C0850AE0C0800B00C0895
:103B50007CB00C0838B10C0884B10C08DCB10C083E
:103B600070B30C0808B30C08F4AC0C08BCB30C0818
:103B7000E4B00C08BCB20C0810B55CF03BFC064C81
:103B8000064B18602046FFF789FC20460449054A89
:103B9000BDE81040A6F0BEBBD0120020C812002025
:103BA00021340108A85E00200020704700207047E3
:103BB0000F4A42F61C13D35C033BDBB2142B08D82C
:103BC000012199400B4B0B40002B14BF18231023ED
:103BD00000E0102342F6741143F04000525822B125
:103BE0005279D20748BF43F0C00040F0010070474F
:103BF000D01200201F60150042F61C13014AD05C51
:103C0000704700BFD0120020014B187B704700BFE7
:103C1000D0120020014B93F90E007047D012002003
:103C2000004870476C33002000487047782100201E
:103C300000487047744000200020704700487047DB
:103C4000F01400200048704778410020014812F02D
:103C5000C9BB00BFD012002000B58BB0192362226F
:103C60008DF8241001920093C22103AA8DED030A5E
:103C7000CDED040A8DED051ACDED061A8DED072A5E
:103C8000CDED082A3BF012FB0BB05DF804FB000001
:103C900007B542F674130D4AD058283036F02CF888
:103CA000DFED0B0A90ED000AB7EE001A25F030FCAC
:103CB000DFED087A20EE270ABDEEC00A8DED010A7D
:103CC000BDF9040003B05DF804FB00BFD012002072
:103CD000000000000000C842014806F047BF00BFD6
:103CE000444B00200148022204F0E6BFD01200201D
:103CF00008B50B6807EE103AF6EE007AB4EEE77AF4
:103D0000F1EE10FA04DD034810F070FB002008BD4E
:103D1000042008BDD01200208B79DB0712D50A8958
:103D2000CB79094843EA022341F6706243F3170353
:103D3000825803EB2223C3F30722CB71C3F307435B
:103D40000A724B72704700BFD0120020044B1878E3
:103D500020B942F61A13034AD05CC009704700BF6D
:103D600078540020D01200200B4B42F66D129A5C62
:103D7000910706D442F6B121595C11B912F03C0FFB
:103D800001D00520704742F618129B5C13F0800F9B
:103D900014BF032004207047D01200200B4991F972
:103DA0008C328BB1907A537A43EA0023D07A43EA7B
:103DB0000043A62B08D06D2B06D0B1F90C00D379A7
:103DC0001B1A58425841704701207047D0120020FA
:103DD00010B592B0044602A818F0B0F943F2E073AF
:103DE0001B4AD058036802A99B6B984768B3247E8E
:103DF0005CF058F9029B9FED177A059043F3172367
:103E000007EE903A039B0693049B07930023F8EE7A
:103E1000E77A09930A930B930C930D930E930F93E8
:103E200010934FF6F873ADF844300523962267EEF1
:103E3000877A8DF84630332301920093204657212C
:103E400005AACDED087A3BF031FA12B010BD00BFE3
:103E5000D01200200AD7233C00F50850183000216A
:103E600038F0C2B900F5085018303AF0E3BA000053
:103E700004F042BB2DE9F04F2DED028B00F52655E5
:103E800020358DB0064688462846002117F018FEDA
:103E900028B12846002117F0F3FD002852D1FF2752
:103EA0004FF6FF74304611F097F942F6EC4306F6F0
:103EB000D81056F803B042F6F04356F803A042F685
:103EC000F44356F8039030F06FF828460021B0EE26
:103ED000408A17F009FEDFED257ACDF810B028EE04
:103EE000278A20EE270ABCEEC87AFCEEC07A17EECD
:103EF000103AADF81C3017EE903AADF81E300023A2
:103F0000ADF82230ADF82430ADF82630ADF82830C9
:103F1000ADF82A30ADF82C307C221F23019200939B
:103F20004046012104AACDF814A0CDF81890ADF8B0
:103F300020408DF82E703BF0B9F90DB0BDEC028B2E
:103F4000BDE8F08F0021284617F00AFD0021C7B216
:103F5000284617F0EFFDDFED067A20EE270ABDEECA
:103F6000C00A8DED030ABDF80C409BE700007A44BF
:103F70000000C8422DE9F0412DED068B42F670534A
:103F80000646C0589FED380A9FED388A8EB03C3007
:103F9000884627F0D9FF43F2E0778DED061AF059F5
:103FA000CDED050A21EE081A03688DED040ABDEE79
:103FB000C11A1B6B8DED031A20EE889A60EE089AE9
:103FC000BDF80C50984707EE900AF8EEE77AF059E2
:103FD00067EE887A0368FDEEE77ADB6ACDED037A57
:103FE000BDF80C40984707EE900AF8EE678ADFEDBF
:103FF000207A68EE888A42F67453F4EEE78AF1EE8E
:1040000010FAF05858BFF0EE678A4CF051FDF059A5
:1040100003685B6BB0EE40AA9847FCEEE87A002399
:104020000A9317EE903A20EE080AADF834302AEEE3
:1040300008AA1A23B7220192009340463E2107AAFC
:10404000CDED079A8DED089A8DED09AA8DED0B0A3D
:10405000ADF83050ADF832403BF028F90EB0BDEC71
:10406000068BBDE8F08100BF9F0CB3450AD7233C07
:1040700000FF7F477FB500F5D35404340E46204639
:1040800000213DF0DBFB20B9204601213DF0D6FBAD
:10409000E0B1204600213DF0BBFBA8B1A56A204657
:1040A00001213DF0B5FB08B1A36B00E0084B039381
:1040B000CF220823019200933046E2210DEB030248
:1040C00002953BF0F3F801E0014DE8E704B070BD64
:1040D000000080BF70B500F50853383304461B79E3
:1040E000002B43D090F8DD3A6FF3000380F8DD3AFF
:1040F0005BF0D8FF1E4A1368C31AB3F57A7F0546F2
:1041000009D910602046FFF7A7FE04F508501830C3
:10411000032138F069F8174A1368EB1A142B10D9E9
:1041200004F5085618363046156038F04FFE304614
:1041300039F0B2FD30463AF07DF904F648202BF014
:10414000BBFE0D4A136841F28831EB1A8B4207D946
:1041500004F50850156018300621084A36F0A8FA10
:1041600094F8DD3A43F0010384F8DD3A70BD00BFF6
:10417000005300200453002008530020646D0C08F5
:1041800000F50850183039F087BD000000F50850E0
:10419000183038F01BBE00002DE9F04100F5EA5759
:1041A00005462DED028B38460C4615F0BDFBB5F8E3
:1041B00070300646D80704D4B5F87030990763D537
:1041C00031E042F67053E85803689B689847DFED8A
:1041D000677A9FED677A90ED0B0A90ED0F1AD0ED9C
:1041E0000C1A90ED0D2AD0ED0E2AD6ED000A012111
:1041F00020EE270A60EE870A21EE271A61EEA71A41
:1042000022EE272A62EEA72A2046FFF725FD204648
:104210003BF0E2FF804620463BF004F808F1180826
:104220008045C9DB9DE042F67053E8580368DB68BF
:104230009847DFED4E7A9FED4E7A90ED0B0A90EDA8
:104240000F1AD0ED0C1A90ED0D2AD0ED0E2AD6EDF6
:10425000010A022120EE270A60EE870A21EE271AC2
:1042600061EEA71A22EE272A62EEA72A2046FFF760
:10427000F3FC20463BF0B0FF804620463AF0D2FFE8
:1042800008F1180880456CDAB5F870305A072FD558
:1042900042F67053E85803681B699847DFED337A9C
:1042A0009FED337A90ED0B0AD6ED020A90ED0F1ACE
:1042B000D0ED0C1A90ED0D2AD0ED0E2A032120EE40
:1042C000270A60EE870A21EE271A61EEA71A22EE6E
:1042D000272A62EEA72A2046FFF7BEFC20463BF0C5
:1042E0007BFF064620463AF09DFF1836864238DAB4
:1042F000B5F870301B0734D542F674531D4A9FED54
:104300001B8AD5583846D5ED158A15F041FBDFEDEF
:104310001A0AD0ED027A95ED191AD5ED161A95ED17
:10432000172AD5ED182A77EEA00A68EE888A20466B
:10433000B0EE680A21EE081A61EE881A22EE082A09
:1043400062EE882A0421F1EE600AFFF785FC204620
:104350003BF042FFBDEC028B2046BDE8F0413AF055
:1043600061BFBDEC028BBDE8F08100BF0AD7233CE2
:10437000E02E6542D01200200AE81C412DE9F843E6
:1043800004460F4638F01AFA054608B10025DAE06F
:104390006E4E42F67418B14656F808307BB106F6F8
:1043A000D8102FF0F3FDF92809D856F808305B79BA
:1043B000DA0704D539F090FF01230376C3E0FB1E32
:1043C0002A2B00F2B980DFE803F016B739B7B7B788
:1043D000B7B7B7B7B7B7B7B7B7BDB7B757B7B7B7C7
:1043E000BDB7BDB7B7677787B7B7B7B797B748B7A0
:1043F000B7A7B7BDBD0042F6191319F803309B06E5
:1044000040F1A080207E3BF0E7FE0546207E3AF09A
:1044100009FF1E358542B9DA217E4C48FFF72AFD97
:10442000207E3BF0D9FE0546207E3AF0FBFE0535A6
:104430008542ABDA204636F003FD83E0207E3BF078
:10444000CBFE0546207E3AF0EDFE193585429DDA19
:104450003E48217EFFF78EFD74E0207E3BF0BCFEDF
:104460000546207E3AF0DEFE073585428EDA374873
:10447000217EFFF7FFFD65E0207E3BF0ADFE0546A7
:10448000207E3AF0CFFE07358542BFF67FAF2F483A
:10449000217EFFF7EDFC55E0207E3BF09DFE0546BA
:1044A000207E3AF0BFFE0D358542BFF66FAF28483B
:1044B000217E3DF06BFD45E0207E3BF08DFE054604
:1044C000207E3AF0AFFE21358542BFF65FAF204631
:1044D000204937F053FF35E0207E3BF07DFE054656
:1044E000207E3AF09FFE29358542BFF64FAF18482F
:1044F000217E3DF065FD25E0207E3BF06DFE05460A
:10450000207E3AF08FFE18358542BFF63FAF0F4848
:10451000217EFFF741FE15E0207E3BF05DFE054663
:10452000207E3AF07FFE25358542BFF62FAF0A4840
:10453000217E49F0EFFA05E020463946BDE8F84310
:1045400039F01EB901252846BDE8F883D0120020B5
:10455000B4400020483400209844002070B50B4B34
:10456000D3F89032DB0706460D46144603D50848BB
:10457000114656F0BBFA2146064859F069FC304610
:1045800029462246BDE8704036F0BAB9D012002064
:104590004C4A00204C1C002010B5044637F08EF821
:1045A000054811F029FF06210346044A2046BDE8CC
:1045B000104037F075B800BFD0120020756D0C08A0
:1045C000034A92F8943A013382F8943A36F046BAA4
:1045D000D012002038B54B69F7EE000A00EE103A11
:1045E00005460C4624F028FE28B1297E0548BDE882
:1045F000384002F09BBC28462146BDE8384038F0E0
:1046000067BE00BFD01200202DE9F04F2DED028BC8
:104610008A7A4B7A43EA0223CA7A43EA0243872B17
:104620009DB006460D4636DC862B81F252814C2B1E
:1046300000F0AD8214DC452B00F0DF8009DC002B9C
:104640005FD0162B41F0FC80C8483DF0B3FC01F070
:1046500040B9462B69D04B2B00F0CB8101F0F0B86C
:10466000562B00F05D8707DC522B00F01086542B90
:1046700000F0708601F0E4B86D2B01F07780842B98
:1046800041F0DE80BA482EF0ADFEBA48294647F028
:104690003DF801F01EB9A62B01F068801EDC9D2BB1
:1046A00001F073800FDC952B01F06B809C2B41F0A7
:1046B000C78042F6EE53B04AAC48D15C2A463DF082
:1046C00043FC01F006B9A03B012B01F2B980AB48D5
:1046D00031462A464DF058FC01F0FBB8F62B01F0AC
:1046E000A98006DCC82B1AD0F32B01F06D8001F0F5
:1046F000A7B8A3F51C53113B022B41F29B8001F09C
:104700009FB89D4CCA79B4F90C309A4241F0E180CF
:104710005BF0C8FC42F66013E05001F0DAB8934950
:104720002A4636F091FF01F0D4B8934ECA79B6F913
:104730000C309A4241F0CD8042F61B13F35C9C078B
:104740000CD442F66D13F15CC80741F1C2806FF3DF
:104750000001F1543CF072FA01F0BBB85BF0A2FC2E
:10476000EF78262F28BF26270446002126220CA8F2
:10477000A8F0A8FE05F10C013A460CA8FCF73AFF98
:104780000020BDF9301022463CF066FA0120BDF948
:10479000321022463CF060FA0220BDF93410224665
:1047A0003CF05AFA0320BDF9361022463CF054FA88
:1047B0000420BDF9381022463CF04EFA0520BDF920
:1047C0003A1022463CF048FA0620BDF93C10224639
:1047D0003CF042FA22460720BDF93E103CF03CFA7C
:1047E0003CF04EFA42F66D13F25C60F30002F254B4
:1047F00042F66013F45001F06CB85F4CCA79B4F91A
:104800000C309A4241F06580CE780B2E28BF0B26E3
:1048100000210B220CA8A8F055FE32460CA805F189
:104820000C01FCF7E7FE9DF83A20B4F90A309A42F1
:1048300041F04F80BDF93460002EC1F24A805BF038
:1048400031FCBDF9323047F6FF72934205461ED067
:10485000D4F8981AB1F90420B1F9081007EE902A9B
:1048600003F57A738A1A5343F8EEE76A07EE903A33
:10487000B8EEE77ADFED427AC7EE277A76EEA77ACE
:10488000FDEEE77ACDED037ABDF80C1000E00021D3
:10489000BDF9303047F6FF7293421ED0D4F89C0A1F
:1048A000B0F90420B0F9080007EE902AC3F57A7336
:1048B000821A5343F8EEE76A07EE903AB8EEE77AC9
:1048C000DFED2F7AC7EE277A76EEA77AFDEEE77A4C
:1048D000CDED037ABDF80C7000E0002747F6FF73BA
:1048E0009E421CD0D4F8A02AB2F90430B2F90820B4
:1048F00007EE903AD31A7343F8EEE76A07EE903A60
:10490000B8EEE77ADFED1F7AC7EE277A76EEA77A60
:10491000FDEEE77ACDED037ABDF80C8001E04FF0B3
:104920000008BDF9363047F6FF7293422ED0D4F816
:10493000A40AB0F90420B0F9080007EE902A03F5A4
:104940007A73821A5343F8EEE76A07EE903AB8EEAC
:10495000E77ADFED0B7AC7EE277A76EEA77AFDEEDF
:10496000E77ACDED037ABDF80C6010E0B44000208A
:10497000882C002030150020D01200200841002093
:104980000000FA4400007A4400007F43002642F60B
:10499000381309B2E05C0138C0B22A463CF05CF939
:1049A00042F6391339B2E05C0138C0B22A463CF015
:1049B00053F942F63B130FFA88F1E05C0138C0B2BC
:1049C0002A463CF049F942F63A132A46E05C01389F
:1049D000C0B231B23CF040F93CF052F942F66D13EE
:1049E000E25C60F30002E25442F66013E55000F02E
:1049F00070BFCC78232C28BF2324002123220CA8AD
:104A0000A8F060FD22460CA805F10C01FCF7F2FDB0
:104A1000BDF84C40B32C1FD0C92C00F08880202C4E
:104A200040F0AA80DDED0C7AF5EEC07AF1EE10FAD6
:104A300040F3A4801FED2C7AF4EEC77AF1EE10FA61
:104A400000F29C80FCEEE77AD04ACDED037A9DF827
:104A50000C30A2F87E398DE09DED0C8AF7EE000A4D
:104A6000B0EE480A24F0E8FB30B1C848012102F05A
:104A70002DFA00287ED181E0DFEDC57AB0EEC88A3C
:104A8000B4EEE78AF1EE10FA78D59DF8507027B1B0
:104A90007B1F012B01D9032F70D1DDF84090DDF889
:104AA00044804846414624F0BFFF002866D00C22CF
:104AB00008A80021A8F006FD9FEDB67ADDED127A78
:104AC000CDF8249067EE877A032FFDEEE77ACDF8D4
:104AD000288017EE903AC3F307228DF82130C3F3F4
:104AE00007438DF822208DF8233001D0062F18D1EE
:104AF00016F072FA90F83C31DA073FD5A34A41F636
:104B00007063D358089A43F3172303EB2223C3F3AC
:104B100007228DF82130C3F307438DF822208DF84A
:104B2000233008A90122994802F048F9A1E7DDF8ED
:104B30004080119F4046394624F076FFF0B19FED4A
:104B4000957ADDED127A9448CDF8248067EE877A65
:104B500008A9FDEEE77A0A9717EE903AC3F3072209
:104B60008DF82130C3F307438DF822208DF82330D0
:104B700001F0FAFC002302E0032300E00423307E6E
:104B8000AB708F2203232C80009301927AE3CC78C0
:104B9000212C28BF2124002121220CA8A8F092FC5E
:104BA0000CA805F10C012246FCF724FDBDF84C30A1
:104BB000CF2B00F01B823FD8202B00F0A78029D8F4
:104BC000142B00F0978005D8112B40F049836F48D3
:104BD000052191E0152B00F09680162B40F04083C4
:104BE000DDED0E7A9FED6A7A684A9DED120AF0EECD
:104BF000E77AF4EEC77A43F2E073DFED667AD058D5
:104C0000F1EE10FA20EE270A4CBF0121002112F02C
:104C10001BF874E0B32B00F0D88006D8732B00F09B
:104C20008F80B22B00F0BE801AE3C92B00F01E81EA
:104C3000CD2B00F04F8113E340F6D812934200F0E1
:104C40007B823BD8F62B00F0BE812ED8D02B00F013
:104C5000F181D12B40F00483DDED0E7ADDED0C6A9D
:104C60009DED0D7A317E9DED0F0A4848FCEEE77A06
:104C7000FCEEE66ACDED037ADDED107ABDF80C307E
:104C80000093FCEEE77ABCEEC77ACDED037A9DF88F
:104C90000C30CDED036A9DF80C208DED037A019365
:104CA0009DF80C300FF09EF9E2E2B3F5967F00F02C
:104CB0004881B3F5C87F00F05481D1E24AF2134233
:104CC000934200F099820AD84AF21142934200F0CE
:104CD00043824AF21242934200F05282C0E24AF208
:104CE000BD52934200F0B5824AF26862934200F0EE
:104CF000C081B5E225480621022203F0DDFF00282D
:104D000040F09681B3E221480921F5E7DDED0C7A08
:104D1000F5EEC07AF1EE10FA40F3A9829FED1F7A0A
:104D2000F4EEC77AF1EE10FA00F2A182FCEEE77A17
:104D3000164ACDED037A9DF80C30A2F87E3977E162
:104D4000DDED0C7AF5EEC07AF1EE10FAC0F28F824A
:104D50009FED137AF4EEC77AF1EE10FA00F2878233
:104D60009DED0F0ADFED0A7AB0EEC07AB4EEE77A75
:104D7000F1EE10FAB0EE678A00F16785F7EE000AEF
:104D800024F05AFA002840F0608570E2D01200202A
:104D9000000000340000C8420C53002000007F4394
:104DA0000000B443DDED0D7AF5EEC07AF1EE10FAB5
:104DB00040F35D8242F67853D24A9FEDD30AD05831
:104DC00027EE800A50F0B6FC32E19DED0C0AF7EEBA
:104DD000000A24F031FA20B10121CA4802F076F825
:104DE0008DE7DDED0C7A9FEDC97AF0EEE77AF4EE0F
:104DF000C77AF1EE10FA40F13A829DED100ADDED2E
:104E0000110A24F0F5FD002800F03182DFEDC06AC0
:104E10009DED107ADDED117ABA4827EE267A67EE1D
:104E2000A67ABDEEC77AFDEEE77A8DED097ACDED73
:104E30000A7A9FEDB57ADDED127A67EE877A08A9D6
:104E4000FDEEE77A17EE903AC3F307228DF8213092
:104E50008DF82220C3F3074301228DF8233001F09F
:104E6000ADFF00280CBF0420002001E29DED100AD8
:104E7000DDED110A24F0BCFD002800F0F881DFED23
:104E8000A46A9DED107ADDED117AA24827EE267A0C
:104E900067EEA67ABDEEC77AFDEEE77A8DED097A68
:104EA000CDED0A7A9FED987ADDED127A67EE877A7A
:104EB00008A9FDEEE77A17EE903AC3F307228DF8C2
:104EC0002130C3F307438DF822208DF8233001F001
:104ED0004BFBADE042F6EE538A4C8F48E15C3DF06F
:104EE0000FF8014658B9DFED887A9DED0E0A894822
:104EF000DFED8A0A80EE270A0A4601F0D9FA42F667
:104F0000EE538548E15CDDED0E7AFDEEE77ACDEDFE
:104F1000007ADDED127AFCEEE77ACDED037ADDED75
:104F20000C7A9DF80C300193FDEEE77A17EE902A8B
:104F3000DDED0D7AFDEEE77A17EE903A3DF014F8CC
:104F400076E0704C42F67413E3585B79DB0740F16E
:104F50008E8120460321022203F0AEFE00285BD1A1
:104F600085E19DED0C0AF7EE000A24F065F968B1C1
:104F70009DED0D0ADFED6A0A24F05EF980F0010272
:104F80000121D2B25F480FF073F9B8E6DDED0C7A7B
:104F90009FED5E7AF0EEE77AF4EEC77AF1EE10FA62
:104FA00040F1638142F61813564AD35C1F0600F1A4
:104FB00036819DED0D0ADFED5B0A24F03DF90028F6
:104FC00040F02D8153E19DED0C0AF7EE000A24F02C
:104FD00033F9002840F053849DED0C0AF0EE080AE6
:104FE00024F02AF9002840F04A8440E1DDED0C7AF3
:104FF000FCEEE77ACDED037ABDF80C403CB1012C14
:1050000040F03581484821464CF0D6FE10E0464835
:1050100021464CF0D1FEEDE020460121FDF76CFB6E
:1050200042F29C03E35C012B02D0404828F018FBBD
:1050300000201DE1DDED0C7AFCEEE77ACDED037A80
:10504000BDF80C1001290ED006D3022940F00F81C3
:105050002C4802F029FCEBE73548002155F0A8FA6E
:10506000284831214BE0324855F0A2FA2548322138
:1050700045E0304C204658F0C9FC002800F0F7808D
:10508000DDED0D7AFCEEE77ACDED037A9DF80C307C
:10509000012B0CD002D3022B16D0E8E0A4F60C10A2
:1050A000002480F86049442100F0B6FDA2E0DDED67
:1050B0000F0A9DED0E0A2046F0EEE00A58F0D4FCEF
:1050C000A4F60C1045211AE0D4ED027A9DED0F0AEA
:1050D000DFED126AF5EEC07AF1EE10FAD8BFF0EE0D
:1050E000667AB0EEC07AB4EEE77AF1EE10FA00F22A
:1050F000BE80204658F0E6FCA4F60C10462100F0D5
:105100008BFD95E7D01200200000C842000000345B
:105110008096184B0C530020B44000200000000083
:1051200000D03A450098A546084100206C33002085
:10513000C4410020DC1B0020DDED0D7ABA48FCEEF6
:10514000E77ACDED037A9DF80C30012B0CBF0021DE
:10515000012152F03BFA6BE7B44842F66D13C35C91
:105160009C073FF565AF0521022203F0A5FD00284D
:105170007FF45EAF02210A46AC4803F09DFD57E77D
:10518000AA4F42F66D13FB5C03F0020303F0FF0825
:10519000002B7FF44DAF42F67413FB58587910F092
:1051A000010405D1012138460A460FF061F821E0DB
:1051B00042F618133846FB5C23F07F0303F0FF042C
:1051C000A3B10521022203F077FD00283FF430AFA0
:1051D00043F2E073DFED967A9DED0C0AF85820EE6D
:1051E000270A012111F030FD404641E00921022249
:1051F00003F062FD20463BE08C4B42F66D129A5C58
:1052000091073FF515AF42F674129A585279D207BA
:105210007FF50EAF42F618129B5C1B0603D5834840
:105220000FF0E4F804E7DDED0C7A9FED827AF0EE02
:10523000E77AF4EEC77AF1EE10FA00F13B8342F61A
:105240001C137A4AD35C03F0EF03042B40F0328343
:10525000EEE6794B9DED0C0A186812F067F94EE501
:1052600030460CA938F020F902E0032000E00420C9
:10527000327EBDF84C302B808F210323A870009321
:10528000019110464D212A463AF010F821E3CC78DE
:10529000272C28BF2724002127220CA8A8F012F9C8
:1052A00022460CA805F10C01FCF7A4F95F4C43F26F
:1052B000E073E0580368DB6B9847002800F009832F
:1052C0009DF8565015F0C00F40F00383DFED5B0AE8
:1052D0009DED140AB7EE001A24F01AF9F6EE000A52
:1052E000B0EE408A23F0A8FFF8B9B6EE000AB4EE9B
:1052F000C08A42F67853F1EE10FAD5BFE358E3586E
:10530000D3ED097A38EE408AD3BF30EE488A38EEC2
:10531000088A93ED080A38EE088AD6BFF0EEE77ADD
:1053200028EE000A27EEC80A01E09FED440A0D9B13
:1053300008930E9B099385F004020F9B0A93404843
:10534000109BDDED130A0B9308A9C2F380020AF04B
:1053500053FEBEE2CC78352C28BF352400213522FF
:105360000CA8A8F0AFF822460CA805F10C01FCF738
:1053700041F943F2E0732D4AD0580368DB6B98473C
:10538000002800F0A6829DF86450012D03D0EB1F89
:10539000022B00F29E82BDF8604014F0070718BF90
:1053A000012714F0380F4FF0000314BF4FF001092C
:1053B0004FF0000914F4E07FC4F3802614BF4FF0CF
:1053C00001084FF00008C4F3C02405930693079327
:1053D0009A46002F3FD19FED166A9DED0E7ADDEDC6
:1053E0000F7ADDED0D6A27EE067A67EEC67A66EE75
:1053F000866AA5F10803012BCDED056A8DED067ACD
:10540000CDED077A04D8094805A906AAFDF7B4FE30
:10541000EB1F022B18D80B4852F032F8014605A8B2
:1054200026F068FD17E000BFDC410020D01200200C
:105430000000C84200000034502C00200000000092
:10544000844E00200C400020C3489DED070A0FF059
:1054500073F98DED070ACDF820A0CDF824A0CDF882
:1054600028A0B9F1000F1CD19FEDBC6A9DED117A07
:10547000DDED127ADDED106A27EE067A67EEC67A68
:1054800066EE866AA5F10803012BCDED086A8DED65
:10549000097ACDED0A7A04D8AF4808A909AAFDF720
:1054A0006BFE7EB9DDED167A9FEDAD0A083D27EE65
:1054B000800ADFEDAA7A012D20EE270A8CBF002595
:1054C000012502E09FEDA70A002554B9DDED177A0A
:1054D000DFEDA30A67EEA00ADFEDA07A60EEA70A6F
:1054E00001E0DFEDA00A5FB9B9F1000F12D1B8F108
:1054F000000F00F0EE8184F001048DE83000F1E04F
:10550000B9F1000F40F0E581B8F1000F00F0E18142
:1055100000950AE1B8F1000F00F0DB81009512E17F
:10552000CC78352C28BF3524002135220CA8A7F0D3
:10553000C9FF224605F10C010CA8FCF75BF8864C6C
:1055400043F2E073A246E0580368DB6B98470028FB
:1055500000F0BF819DF86490B9F1000F0BD0A9F164
:105560000503012B07D9B9F1030F04D0A9F10A03F0
:10557000012B00F2AE81BDF8604014F0070818BF9F
:105580004FF0010814F0380F4FF0000314BF01254D
:10559000002514F4E07FC4F3802614BF0127002700
:1055A000C4F3C024059306930793B8F1000F55D1B7
:1055B0000D9BDDF838B003931846594624F034FAB1
:1055C000039B002800F085819FED647ADDED0F7A62
:1055D000099367EE877AA9F10309FDEEE77ACDF822
:1055E00028B017EE902A42F31702C2F307238DF872
:1055F0002230C2F307438DF821208DF823309DF827
:105600002010B9F1080F09D8DFE809F018080818C8
:1056100008080805050041F0090113E041F6706330
:105620005AF80330A2EB2322C2F307238DF821207E
:10563000C2F307428DF822308DF8232041F001019A
:105640006FF3C3018DF82010434808A90FF09AF8B2
:105650008DED050ACDED060A8DED071A8EB9DDED4B
:10566000167A9FED3F0A9DF8642027EE800A083ADB
:10567000DFED3A7A012A20EE270A8CBF00220122B0
:1056800002E09FED380A002254B9DDED177ADFED14
:10569000340A67EEA00ADFED317A60EEA70A01E076
:1056A000DFED300AB8F1000F24D1002D47D1002FD3
:1056B00000F00F819FED296A9DED117ADDED127AE0
:1056C000DDED106A019227EE067A67EEC67A66EE85
:1056D000866A84F00104CDED086A8DED097ACDED7E
:1056E0000A7A009405A908AA86F001031E480BF067
:1056F000D7F9EEE0002D40F0EC80002F00F0E980BB
:105700009FED166A9DED117ADDED127ADDED106ADE
:10571000009227EE067A67EEC67A66EE866A8DED0F
:10572000097ACDED086ACDED0A7A0123019386EA64
:1057300003020D4808A963400BF00EFAC9E0002FE0
:1057400000F0C780009205A986F0010284F00103F1
:1057500005480BF0F3F8BCE0D01200200000C8426E
:10576000E02E654200000000844E002008215B48C6
:1057700010F024FE29460346594A304636F014F804
:10578000A7E058484EF074FAA3E042F6EE53534CAB
:105790005548E15C3CF0B4FB014668B9D5ED057AAB
:1057A0009FED520A5248DFED530AF8EEE77A0A46B7
:1057B00087EE800A00F07CFE42F6EE534A48E15C38
:1057C0002A463CF0C9FB84E0CC783D2C28BF3D2420
:1057D00000213D220CA8A7F075FE05F10C01224620
:1057E0000CA8FBF707FF0C9D0D9C3DB934B90E9B2F
:1057F00023B90121394801F069FB6AE028462146B6
:1058000024F012F9002864D00A220E9B93FBF2F3D5
:10581000C3F307228DF821308DF82220C3F307430C
:1058200008A901222D4809950A948DF8233001F02A
:10583000C5FA4EE03048317E2A4648F0A9FE48E0DD
:105840003046294638F040FC43E0DDED0E7A9DED10
:105850000F7A27489DED0C0ADDED0D0AFDEEE77A83
:10586000B4EEC87AF1EE10FACDED037A9DF90C1082
:10587000ACBF0122002200F01BFEFFF7D9BB1F4B7B
:105880001F4801229A742AF017FB1E4B1C68206CDB
:105890000368C8215B689847246C9DED0C0A236857
:1058A000F0EE080ADF6A23F0C7FC01462046B8473D
:1058B000FFF7BEBB09481121022203F0FDF90028C1
:1058C0003FF458AC104840F6C41108F0ABFCFFF7A9
:1058D000AFBB1DB0BDEC028BBDE8F08FD012002035
:1058E000781D0020E4410020B44000200000C842A0
:1058F0000C5300200000000098440020E8540020D1
:10590000181D0020C8120020FC4C00200A4BD3F8C0
:105910009022920701D434F093BF42F62C52DFED6F
:10592000077A9B5843F3172300EE103AB8EEC00AEB
:1059300080EE270A704700BFD01200200000C84246
:1059400070B52DED088B29248CB00E46154601A8A4
:1059500022460021B0EE40BAF0EE60AAB0EE41AAB5
:10596000F0EE619AB0EE429AF0EE628AB0EE438AAF
:10597000A7F0A8FDA3238DF8043095238DF80530FA
:105980000B238DF806305AF081FB1BEE103ACDF850
:1059900011301AEE903ACDF815301AEE103ACDF8D3
:1059A000193019EE903ACDF81D3019EE103ACDF8B5
:1059B000213018EE903ACDF8253018EE103ACDF897
:1059C0000700CDF80B1007488DF80F6001A922469B
:1059D0008DF81050CDF829302EF07AFE0CB0BDECC9
:1059E000088B70BD781D002010B52DED028B13249F
:1059F00086B0224601A80021F0EE408AB0EE608A0F
:105A0000A7F060FDA3238DF8043095238DF80530B1
:105A10000C238DF806305AF039FB18EE903ACDF889
:105A20000F3018EE103ACDF80700CDF80B100548EE
:105A3000CDF8133001A922462EF04AFE06B0BDEC87
:105A4000028B10BD781D002010B542F2811388B082
:105A5000C356044663B31C22002101A8A7F032FDFF
:105A6000A3238DF8043095238DF8053003238DF89A
:105A700006305AF00BFB42F29913CDF80700E35CB5
:105A80008DF80F3004F506531C331A685B680593D4
:105A900004F50653049224331A68CDF80B100692CD
:105AA0005B68079304F6A82001A91C222EF010FEC3
:105AB00008B010BD2DE9F04142F6705604468059F9
:105AC0009FED2E0A8CB03C3026F03EFA0CAACDEDAC
:105AD0000A0A8DED0B1A8DED090A12E9070003AFD2
