:020000040801F1
:1080000000040120E5940108ED9C0708F19C070895
:10801000419D0708F19C0708199D070859E60B08C0
:1080200059E60B0859E60B0859E60B08ED780C08E1
:1080300059E60B0859E60B0859E60B0859E60B08F8
:1080400059E60B0859840C085D850C0891850C08CD
:1080500059E60B0859E60B0885820C08B5820C0816
:10806000E5820C0815830C0845830C08BD0E0C082E
:10807000E90E0C08190F0C08490F0C08790F0C08B1
:10808000A50F0C08D50F0C08610D0C0859E60B085C
:1080900059E60B0859E60B0859E60B0875830C08DE
:1080A000C12C0C0859E60B0859E60B0859E60B08D9
:1080B0006D2A0C0859E60B0859E60B0859E60B081F
:1080C00059E60B081D160C08D1170C0859E60B08C9
:1080D00059E60B084D300C0859E60B0865300C08C2
:1080E000E1830C088D840C08C1840C0859E60B0848
:1080F00059E60B0859E60B0859E60B0805100C0861
:1081000059E60B0859E60B0859E60B0859E60B0827
:1081100059E60B0859E60B0859E60B0859E60B0817
:1081200035100C0861100C0891100C08C1100C08D7
:10813000F1100C0859E60B08F5840C0859E60B08F9
:1081400059E60B0859E60B0859E60B08F1230C0811
:108150001D110C084D110C087D110C087D300C0808
:1081600059E60B0859E60B0859E60B0859E60B08C7
:1081700029850C0859E60B0859E60B0859E60B0847
:1081800059E60B0859E60B0859E60B0859E60B08A7
:1081900059E60B0859E60B0859E60B0859E60B0897
:1081A00059E60B0859E60B0859E60B0859E60B0887
:1081B00059E60B0859E60B0859E60B0859E60B0877
:1081C00059E60B0859E60B0859E60B0859E60B0867
:1081D00059E60B0859E60B0859E60B0859E60B0857
:1081E00059E60B0859E60B0859E60B0859E60B0847
:1081F00059E60B0859E60B0859E60B0859E60B0837
:1082000061BC0108B9E60108158D02086DA30208DA
:108210004959040851AF0408C1B10408C1950508C3
:10822000F59C0508D1A2050825B60508052F060806
:1082300009C506082DA1070861CB0A08C1E30A0891
:10824000B1FF0A087D020B08A1E50B080000000041
:10825000000000000000000000000000000000001E
:10826000D0400B1CD1409C46203AD3401843524288
:108270006346934018437047D0400B1C1141203A8D
:1082800003D49C461341184363465242934018431B
:10829000704700BF9140031C90409C46203A934099
:1082A000194352426346D3401943704781F000415D
:1082B00002E000BF83F0004330B54FEA41044FEACB
:1082C000430594EA050F08BF90EA020F1FBF54EA66
:1082D000000C55EA020C7FEA645C7FEA655C00F002
:1082E000E2804FEA5454D4EB5555B8BF6D420CDDD3
:1082F0002C4480EA020281EA030382EA000083EA56
:10830000010180EA020281EA0303362D88BF30BDF5
:1083100011F0004F4FEA01314FF4801C4CEA11314B
:1083200002D0404261EB410113F0004F4FEA0333AA
:108330004CEA133302D0524263EB430394EA050F35
:1083400000F0A780A4F10104D5F1200E0DDB02FAA4
:108350000EFC22FA05F2801841F1000103FA0EF238
:10836000801843FA05F359410EE0A5F120050EF1FE
:10837000200E012A03FA0EFC28BF4CF0020C43FA2F
:1083800005F3C01851EBE37101F0004507D54FF03C
:10839000000EDCF1000C7EEB00006EEB0101B1F58C
:1083A000801F1BD3B1F5001F0CD349085FEA3000D2
:1083B0004FEA3C0C04F101044FEA445212F5800FDD
:1083C00080F09A80BCF1004F08BF5FEA500C50F17A
:1083D000000041EB045141EA050130BD5FEA4C0C5D
:1083E000404141EB010111F4801FA4F10104E9D1E6
:1083F00091F0000F04BF01460020B1FA81F308BFDD
:108400002033A3F10B03B3F120020CDA0C3208DDA8
:1084100002F1140CC2F10C0201FA0CF021FA02F183
:108420000CE002F11402D8BFC2F1200C01FA02F1F3
:1084300020FA0CFCDCBF41EA0C019040E41AA2BF18
:1084400001EB0451294330BD6FEA04041F3C1CDAE0
:108450000C340EDC04F11404C4F1200220FA04F000
:1084600001FA02F340EA030021FA04F345EA0301AA
:1084700030BDC4F10C04C4F1200220FA02F001FA6C
:1084800004F340EA0300294630BD21FA04F02946EE
:1084900030BD94F0000F83F4801306BF81F4801187
:1084A0000134013D4EE77FEA645C18BF7FEA655CFA
:1084B00029D094EA050F08BF90EA020F05D054EACC
:1084C000000C04BF1946104630BD91EA030F1EBFD1
:1084D0000021002030BD5FEA545C05D140004941D5
:1084E00028BF41F0004130BD14F580043CBF01F5C8
:1084F000801130BD01F0004545F0FE4141F47001AE
:108500004FF0000030BD7FEA645C1ABF1946104688
:108510007FEA655C1CBF0B46024650EA013406BF89
:1085200052EA033591EA030F41F4002130BD00BF48
:1085300090F0000F04BF0021704730B54FF4806405
:1085400004F132044FF000054FF0000150E700BF86
:1085500090F0000F04BF0021704730B54FF48064E5
:1085600004F1320410F0004548BF40424FF00001D2
:108570003EE700BF42004FEAE2014FEA31014FEA15
:1085800002701FBF12F07F4393F07F4F81F0605164
:10859000704792F0000F14BF93F07F4F704730B5D3
:1085A0004FF4607401F0004521F0004120E700BF66
:1085B00050EA010208BF704730B54FF000050AE0ED
:1085C00050EA010208BF704730B511F0004502D5EE
:1085D000404261EB41014FF4806404F132045FEAF0
:1085E000915C3FF4DCAE4FF003025FEADC0C18BF95
:1085F00003325FEADC0C18BF033202EBDC02C2F18B
:10860000200300FA03FC20FA02F001FA03FE40EA1C
:108610000E0021FA02F11444C1E600BF70B54FF01C
:10862000FF0C4CF4E06C1CEA11541DBF1CEA1355FE
:1086300094EA0C0F95EA0C0F00F0DEF82C4481EA66
:10864000030621EA4C5123EA4C5350EA013518BF86
:1086500052EA033541F4801143F4801338D0A0FB73
:1086600002CE4FF00005E1FB02E506F00042E0FB20
:1086700003E54FF00006E1FB03569CF0000F18BF26
:108680004EF0010EA4F1FF04B6F5007F64F54074CE
:1086900004D25FEA4E0E6D4146EB060642EAC62161
:1086A00041EA55514FEAC52040EA5E504FEACE2ECE
:1086B000B4F1FD0C88BFBCF5E06F1ED8BEF1004FD1
:1086C00008BF5FEA500E50F1000041EB045170BD4D
:1086D00006F0004646EA010140EA020081EA030191
:1086E000B4EB5C04C2BFD4EB0C0541EA045170BD8D
:1086F00041F480114FF0000E013C00F3AB8014F107
:10870000360FDEBF002001F0004170BDC4F100044F
:10871000203C35DA0C341BDC04F11404C4F12005D0
:1087200000FA05F320FA04F001FA05F240EA02002B
:1087300001F0004221F0004110EBD37021FA04F661
:1087400042EB06015EEA430E08BF20EAD37070BD1B
:10875000C4F10C04C4F1200500FA04F320FA05F07A
:1087600001FA04F240EA020001F0004110EBD3707C
:1087700041F100015EEA430E08BF20EAD37070BDEC
:10878000C4F1200500FA05F24EEA020E20FA04F3C5
:1087900001FA05F243EA020321FA04F001F0004174
:1087A00021FA04F220EA020000EBD3705EEA430EE5
:1087B00008BF20EAD37070BD94F0000F0FD101F014
:1087C0000046400041EB010111F4801F08BF013C4D
:1087D000F7D041EA060195F0000F18BF704703F08B
:1087E0000046520043EB030313F4801F08BF013D12
:1087F000F7D043EA0603704794EA0C0F0CEA1355CE
:1088000018BF95EA0C0F0CD050EA410618BF52EA87
:108810004306D1D181EA030101F000414FF000008D
:1088200070BD50EA410606BF1046194652EA43069B
:1088300019D094EA0C0F02D150EA013613D195EA0F
:108840000C0F05D152EA03361CBF104619460AD157
:1088500081EA030101F0004141F0FE4141F4700161
:108860004FF0000070BD41F0FE4141F4780170BD51
:1088700070B54FF0FF0C4CF4E06C1CEA11541DBFB6
:108880001CEA135594EA0C0F95EA0C0F00F0A7F8B8
:10889000A4EB050481EA030E52EA03354FEA0131E5
:1088A00000F088804FEA03334FF0805545EA1313F8
:1088B00043EA12634FEA022245EA111545EA1065C0
:1088C0004FEA00260EF000419D4208BF964244F157
:1088D000FD0404F5407402D25B084FEA3202B61A76
:1088E00065EB03055B084FEA32024FF480104FF44A
:1088F000002CB6EB020E75EB030E22BFB61A7546BE
:1089000040EA0C005B084FEA3202B6EB020E75EB50
:10891000030E22BFB61A754640EA5C005B084FEAB8
:108920003202B6EB020E75EB030E22BFB61A754685
:1089300040EA9C005B084FEA3202B6EB020E75EB90
:10894000030E22BFB61A754640EADC0055EA060E51
:1089500018D04FEA051545EA16754FEA06164FEA94
:10896000C30343EA52734FEAC2025FEA1C1CC0D140
:1089700011F4801F0BD141EA00014FF000004FF0CD
:10898000004CB6E711F4801F04BF01430020B4F18E
:10899000FD0C88BFBCF5E06F3FF6AFAEB5EB030C46
:1089A00004BFB6EB020C5FEA500C50F1000041EB43
:1089B000045170BD0EF0004E4EEA113114EB5C0410
:1089C000C2BFD4EB0C0541EA045170BD41F48011E3
:1089D0004FF0000E013C90E645EA060E8DE60CEAEB
:1089E000135594EA0C0F08BF95EA0C0F3FF43BAF08
:1089F00094EA0C0F0AD150EA01347FF434AF95EABF
:108A00000C0F7FF425AF104619462CE795EA0C0FA2
:108A100006D152EA03353FF4FDAE1046194622E76F
:108A200050EA410618BF52EA43067FF4C5AE50EA49
:108A300041047FF40DAF52EA43057FF4EBAE12E739
:108A40004FF0FF3C06E000BF4FF0010C02E000BF1A
:108A50004FF0010C4DF804CD4FEA410C7FEA6C5CFD
:108A60004FEA430C18BF7FEA6C5C1BD001B050EAA0
:108A7000410C0CBF52EA430C91EA030F02BF90EA8B
:108A8000020F0020704710F1000F91EA030F58BF4A
:108A9000994208BF90422CBFD8176FEAE37040F0AC
:108AA000010070474FEA410C7FEA6C5C02D150EA4A
:108AB000013C07D14FEA430C7FEA6C5CD6D152EA05
:108AC000033CD3D05DF8040B704700BF84461046CA
:108AD00062468C461946634600E000BF01B5FFF7C9
:108AE000B7FF002848BF10F1000F01BD4DF808ED99
:108AF000FFF7F4FF0CBF012000205DF808FB00BF6A
:108B00004DF808EDFFF7EAFF34BF012000205DF8C3
:108B100008FB00BF4DF808EDFFF7E0FF94BF012010
:108B200000205DF808FB00BF4DF808EDFFF7CEFF11
:108B300094BF012000205DF808FB00BF4DF808ED50
:108B4000FFF7C4FF34BF012000205DF808FB00BF21
:108B50004FEA410212F5001215D211D56FF4787365
:108B6000B3EB625212D94FEAC12343F0004343EA08
:108B7000505311F0004F23FA02F018BF40427047E3
:108B80004FF00000704750EA013005D111F000406D
:108B900008BF6FF0004070474FF00000704700BF03
:108BA0004A0011D212F5001211D20DD56FF478736C
:108BB000B3EB62520ED44FEAC12343F0004343EAC1
:108BC000505323FA02F070474FF00000704750EA0C
:108BD000013002D14FF0FF3070474FF00000704776
:108BE0004FEA4102B2F1E04324BFB3F5001CDCF1CF
:108BF000FE5C0DD901F0004C4FEAC0024CEA507007
:108C0000B2F1004F40EB830008BF20F00100704735
:108C100011F0804F21D113F13872BCBF01F0004038
:108C2000704741F480114FEA5252C2F11802C2F16A
:108C3000200C10FA0CF320FA02F018BF40F00100EB
:108C40004FEAC1234FEAD32303FA0CFC40EA0C009D
:108C500023FA02F34FEA4303CCE77FEA625307D1DA
:108C600050EA01331EBF4FF0FE4040F44000704711
:108C700001F0004040F0FE4040F40000704700BFAB
:108C800080F0004002E000BF81F0004142001FBFC1
:108C90005FEA410392EA030F7FEA226C7FEA236CCA
:108CA0006AD04FEA1262D2EB1363C1BFD2184140BF
:108CB00048404140B8BF5B42192B88BF704710F055
:108CC000004F40F4000020F07F4018BF404211F0F8
:108CD000004F41F4000121F07F4118BF494292EA60
:108CE000030F3FD0A2F1010241FA03FC10EB0C008C
:108CF000C3F1200301FA03F100F0004302D5494219
:108D000060EB4000B0F5000F13D3B0F1807F06D3C5
:108D100040084FEA310102F10102FE2A51D2B1F1BD
:108D2000004F40EBC25008BF20F0010040EA0300B2
:108D30007047490040EB000010F4000FA2F101025F
:108D4000EDD1B0FA80FCACF1080CB2EB0C0200FAE9
:108D50000CF0AABF00EBC25052421843BCBFD04037
:108D60001843704792F0000F81F4000106BF80F4B1
:108D700000000132013BB5E74FEA41037FEA226C74
:108D800018BF7FEA236C21D092EA030F04D092F03F
:108D9000000F08BF0846704790EA010F1CBF002073
:108DA000704712F07F4F04D1400028BF40F00040D0
:108DB000704712F100723CBF00F50000704700F0F0
:108DC000004343F0FE4040F4000070477FEA226217
:108DD00016BF08467FEA23630146420206BF5FEAE8
:108DE000412390EA010F40F4800070474FF00003E8
:108DF00004E000BF10F0004348BF40425FEA000CAF
:108E000008BF704743F0964301464FF000001CE056
:108E100050EA010208BF70474FF000030AE000BFAC
:108E200050EA010208BF704711F0004302D54042EA
:108E300061EB41015FEA010C02BF8446014600205C
:108E400043F0B64308BFA3F18053A3F50003BCFA77
:108E50008CF2083AA3EBC25310DB01FA02FC634424
:108E600000FA02FCC2F12002BCF1004F20FA02F22B
:108E700043EB020008BF20F00100704702F120021E
:108E800001FA02FCC2F1200250EA4C0021FA02F27F
:108E900043EB020008BF20EADC7070477BB972B96F
:108EA0000029BEBF00204FF0004106E008BF0028A7
:108EB0001CBF6FF000414FF0FF3000F08DB882B062
:108EC000EC462DE9005000F057F8DDF804E002B060
:108ED0000CBC704753B94AB9002908BF00281CBF11
:108EE0004FF0FF314FF0FF3000F076B882B0EC4623
:108EF0002DE9005000F058F8DDF804E002B00CBC99
:108F0000704700BF430803F05533C31A980800F0B8
:108F1000333003F03333184400EB101000F00F30FF
:108F200000EB002000EB0040000E7047D0B5FFF7CB
:108F300021FB00220E4B06460F46FFF76FFBFFF7A3
:108F40002FFE0446FFF7F4FA00220A4BFFF766FBF8
:108F500002460B4630463946FFF7ACF9FFF720FED4
:108F60002346002242EA000210461946D0BD00BF47
:108F70000000F03D0000F0412DE9F041069C15464F
:108F800006460F46984600F029F805FB01F300FB62
:108F90000838A5FB0023B21A434467EB0303C4E976
:108FA0000023BDE8F08100BF2DE9F041069C90460A
:108FB00006460F461D4600F05FF900FB05F5A0FBD5
:108FC000082308FB0155B21A2B4467EB0303C4E9DD
:108FD0000023BDE8F08100BF704700BF00292DE9E4
:108FE000F043C0F2A6800026002BC0F29C80884689
:108FF00094469E46154604460F46002B3DD18A42B4
:1090000059D9B2FA82F33BB1C3F120029F4020FA52
:1090100002F29D4017439C40290C220CB7FBF1FE45
:10902000A8B201FB1E7742EA074700FB0EF3BB42E2
:109030000AD97F190EF1FF3280F00581BB4240F260
:109040000281AEF1020E2F44FF1AA4B2B7FBF1F376
:1090500001FB137744EA074700FB03F0B84208D945
:109060007F1903F1FF3280F0F080B84240F2ED80CA
:10907000023B43EA0E43002203E08B420FD9002259
:109080001346341C18BF012460424FF0000565EB05
:1090900045015840514000196941BDE8F083B3FAD9
:1090A00083F2002A40F086808B4202D3844500F28E
:1090B000DB800123E5E712B90123B3FBF2F5B5FA32
:1090C00085F000283BD1781B4FEA154E1FFA85FC2E
:1090D0000122B0FBFEF8210C0EFB180741EA0747FE
:1090E0000CFB08F3BB4207D97F1908F1FF3102D20C
:1090F000BB4200F2BD808846FF1AA4B2B7FBFEF364
:109100000EFB137744EA07470CFB03FCBC4507D969
:109110007F1903F1FF3102D2BC4500F2A7800B4654
:1091200043EA0843ADE752426FEA060663EB4303A6
:109130005DE7404261EB41014FF0FF3654E7C0F17B
:10914000200224FA02F107FA00F385404FEA154E97
:10915000D7401943B7FBFEF20B0C0EFB12771FFA38
:1091600085FC43EA07430CFB02F79F4204FA00F434
:1091700007D95B1902F1FF3074D29F4272D9023ACB
:109180002B44DF1B89B2B7FBFEF80EFB187341EAD4
:1091900003430CFB08F79F4208D95B1908F1FF3124
:1091A0005CD29F425AD9A8F102082B44D81B48EA46
:1091B00002428EE7C2F120032CFA03F10EFA02FEFE
:1091C00020FA03F741EA0E0E08FA02F028FA03F13A
:1091D0004FEA1E453843B1FBF5F8030C05FB1811A7
:1091E0001FFA8EF743EA014107FB08F38B420CFAA2
:1091F00002FC09D911EB0E0108F1FF3930D28B4284
:109200002ED9A8F102087144C91A80B2B1FBF5F356
:1092100005FB131140EA014107FB03F78F4208D910
:1092200011EB0E0103F1FF3016D28F4214D9023B2D
:10923000714443EA0843C91BA3FB0C89494509D380
:1092400005D000221DE79646FEE6134611E794403E
:109250004445F6D2013BF4E70346EAE78846A5E732
:10926000C846D1E702468CE713460AE7023B57E7B8
:10927000A8F102082F443FE72DE9F041002B44D12B
:109280008A42154604464FD9B2FA82F70E464FB1CC
:10929000C7F12003B94020FA03F602FA07F50E439E
:1092A00000FA07F44FEA154E230CB6FBFEF0AFB2FE
:1092B0000EFB106143EA014307FB00F1994209D913
:1092C0005B1900F1FF3280F0EC80994240F2E980B6
:1092D00002382B445A1AA4B2B2FBFEF30EFB13223F
:1092E00044EA024207FB03F7974208D9521903F1F7
:1092F000FF3180F0D880974240F2D580023B43EAAC
:10930000004000263146BDE8F0818B4247D8B3FAD1
:1093100083F6002E48D18B4202D3824200F2CD80E8
:1093200001203146BDE8F08112B90125B5FBF2F507
:10933000B5FA85F8B8F1000F77D14A1B4FEA154E00
:10934000AFB20126B2FBFEF0230C0EFB102143EA64
:10935000014107FB00F38B4207D9491900F1FF32A5
:1093600002D28B4200F2BA801046C91AA4B2B1FBF5
:10937000FEF30EFB131144EA014407FB03F7A74277
:1093800008D9641903F1FF3280F08F80A74240F2C0
:109390008C80023B43EA00403146BDE8F081002664
:1093A00030463146BDE8F081C6F1200422FA04F5CA
:1093B000B3402B4320FA04FC01FA06F721FA04F526
:1093C0004FEA134E4CEA0707B5FBFEF8390C0EFBCB
:1093D00018551FFA83FC41EA05450CFB08F1A94228
:1093E00002FA06F204D9ED1808F1FF3467D3A0465B
:1093F0006D1ABFB2B5FBFEF40EFB145547EA0541EA
:109400000CFB04FC8C4504D9C91804F1FF355CD36E
:109410002C4644EA0844CCEB0101A4FB0223994208
:1094200048D344D0204600266CE7C8F1200401FA56
:1094300008F305FA08F520FA04F7E1404FEA154E63
:109440001F43B1FBFEF63A0C0EFB16111FFA85FC0A
:1094500042EA01430CFB06F29A4200FA08F407D9EB
:109460005B1906F1FF3137D29A4235D9023E2B44BF
:109470009B1ABFB2B3FBFEF00EFB103347EA034367
:109480000CFB00F1994207D95B1900F1FF3221D2A0
:1094900099421FD902382B445A1A40EA06466746B9
:1094A00050E7104616E70B4629E7134672E7B0402F
:1094B0009042B7D2601E002624E7304622E7A94238
:1094C00095D9A8F102081D4492E78C45A0D9023C29
:1094D00019449EE71046DFE70E46C9E702382944E3
:1094E00043E700BF72B6374880F3098836484EF626
:1094F0000851CEF20001086040F20000CCF20000FA
:109500004EF63471CEF200010860BFF34F8FBFF307
:109510006F8F40F20000C0F2F0004EF68851CEF29C
:1095200000010860BFF34F8FBFF36F8F4FF0000053
:10953000E1EE100A4EF63C71CEF200010860062002
:1095400080F31488BFF36F8FA5F032F8ACF038FECB
:109550001E481F491F4A91423CBF41F8040BFAE7DD
:109560001D49184A91423CBF41F8040BFAE71B49D8
:109570001B4A1C4B9A423EBF51F8040B42F8040BA5
:10958000F8E700201849194A91423CBF41F8040B02
:10959000FAE7A5F047F8ACF015FE154C154DAC42B6
:1095A00003DA54F8041B8847F9E701F04BFC124C2E
:1095B000124DAC4203DA54F8041B8847F9E7A5F0D2
:1095C0002FB80000000801200080010855555555AE
:1095D00000000120000401200004012090A70E08D3
:1095E000000801204C1301205013012030030220F9
:1095F000008201084C8201084C8201084C8201085B
:109600002DE9F04F2DED108AC1F80CD0D0F80CD018
:10961000BDEC108ABDE8F08FA5F0D6FC002383F3E3
:1096200011882846A0470020A5F0B0FBA5F0C6FC95
:10963000A5F0CEFAA5F0C8FC00DFFEE7844641EABB
:10964000000313F003036DD1403A41D351F8043BBA
:1096500040F8043B51F8043B40F8043B51F8043B0C
:1096600040F8043B51F8043B40F8043B51F8043BFC
:1096700040F8043B51F8043B40F8043B51F8043BEC
:1096800040F8043B51F8043B40F8043B51F8043BDC
:1096900040F8043B51F8043B40F8043B51F8043BCC
:1096A00040F8043B51F8043B40F8043B51F8043BBC
:1096B00040F8043B51F8043B40F8043B51F8043BAC
:1096C00040F8043B51F8043B40F8043B403ABDD21B
:1096D000303211D351F8043B40F8043B51F8043BBD
:1096E00040F8043B51F8043B40F8043B51F8043B7C
:1096F00040F8043B103AEDD20C3205D351F8043B4C
:1097000040F8043B043AF9D2043208D0D2071CBF17
:1097100011F8013B00F8013B01D30B880380604640
:10972000704700BF082A13D38B078DD010F00303B6
:109730008AD0C3F10403D21ADB071CBF11F8013B26
:1097400000F8013B80D331F8023B20F8023B7BE775
:10975000043AD9D3013A11F8013B00F8013BF9D2A0
:109760000B7803704B7843708B788370604670473A
:10977000A2EB0300704700BF02780B78012A28BFD4
:109780009A42F5D16DE9044540EA0104CDE902674A
:109790006FF0000C4FEA447212B380EA010414F037
:1097A000070F6AD100F0070420F0070004F003055A
:1097B00021F007014FEAC505F0E8042314F0040F77
:1097C000F1E804670CFA05F462EA040266EA0406AA
:1097D0000AD063EA0403624667EA0407664603E0C8
:1097E000F0E80423F1E8046782FA4CF582EA060403
:1097F000A4FA8CF46CBB83FA4CF583EA0705A5FA4E
:109800008CF595B950E9022351E9026782FA4CF5CB
:1098100082EA0604A4FA8CF483FA4CF583EA07057D
:10982000A5FA8CF52543DBD09CB92DBAB5FA85F4A1
:1098300024F0070427FA04F1DDE9026723FA04F3B0
:1098400003F0FF0001F0FF01FDE80445A0EB01007B
:10985000704724BAB4FA84F424F0070426FA04F119
:10986000DDE9026722FA04F202F0FF0001F0FF01D5
:10987000FDE80445A0EB0100704714F0030F3CD154
:1098800010F0030428D150F8082B51F8083B82FA55
:109890004CF582EA0305A5FA8CF55DB950F8042C65
:1098A00051F8043C82FA4CF582EA0305A5FA8CF5DE
:1098B000002DE8D02DBAB5FA85F424F0070423FA78
:1098C00004F122FA04F202F0FF0001F0FF01FDE8CA
:1098D0000445A0EB010070474FEAC40420F00300E8
:1098E00050F8082B21F0030151F8083B0CFA04F45E
:1098F00062EA040263EA0403C9E710F003041AD021
:10990000A1EB040120F00300E40750F8042B06D07B
:109910000FD28B785FFAA2F4E41A06D12BB1CB7880
:109920005FFAB2F4E41A00D11BB920465DF8104B7F
:10993000704701F1040150F8042BCC0721F003011A
:1099400051F8043B48D824D222F07F4482FA4CF5E7
:1099500094EA1325A5FA8CF50AD165B951F8043BB0
:1099600084EA0204B4EB036F0ED150F8042BEBE74A
:109970004FEA132355E035F07F454DD10878FDE8D7
:109980000445C0F1000070474FEA126203F0FF0384
:1099900047E002EA1C4482FA4CF594EA1345A5FA22
:1099A0008CF50AD165B951F8043B84EA0204B4EBA2
:1099B000034F0CD150F8042BEBE74FEA134330E090
:1099C00015EA1C4528D10B884FEA124229E04FEADC
:1099D000124203EA1C4324E002F0FF0482FA4CF531
:1099E00094EA1365A5FA8CF50AD165B951F8043BE0
:1099F00084EA0204B4EB032F09D150F8042BEBE7FF
:109A00004FEA13630DE015F0FF0F05D10B684FEA25
:109A1000122223F07F4304E04FF00000FDE80445EC
:109A2000704712BA1BBA82FA4CF482EA0304A4FA11
:109A30008CF5B5FA85F402FA04F203FA04F34FEA5E
:109A40001260FDE80445A0EB1360704708B50D4AAD
:109A500013780133DBB21D2B98BF137003684FF0EE
:109A6000000188BF11705B6888BF0121984742F6EA
:109A70004803054AD15C60F30411D154034B58727A
:109A800008BD00BF0008012068130120205D0120EF
:109A90007FB50D4604A90023064641F8043D0C4855
:109AA00052F028F9044678B9039B33B93046214671
:109AB0002A46084B5DF0FEFA06E000933046214648
:109AC0002A46054B5DF0F6FA204604B070BD00BF93
:109AD000D04001203C0F0D0829590D0807B50B4651
:109AE000009220211A46034B5DF0E4FA03B05DF8C2
:109AF00004FB00BF480F0D0810B50A4642F6A40348
:109B00000749CB585B7903F0040303F0FF042BB93A
:109B10002146044B5DF0CEFA204610BD012010BD59
:109B200068130120580F0D0808B5C388012B0A4699
:109B300001D05B060BD50A4B93F9441039B1D3F829
:109B4000D019B3F94630B1F90010994201DB012078
:109B500008BD4021034B5DF0ADFA002008BD00BFF9
:109B600068130120760F0D0808B5006C03685B6868
:109B7000984700F0010008BD73B5174C0546204614
:109B80000E4615F0FDF908B9012023E041F67C13DB
:109B9000E35CDB070FD51148A48B192131F0EAFBF8
:109BA00024B2844207DD0E4B2846202132465DF068
:109BB00081FA00200EE00B4801A90DF1060232F0F7
:109BC000A3FEBDF80430002BDED02846202132460B
:109BD000054BECE702B070BD68130120502C01204A
:109BE000A70F0D08AC4101208E0F0D0830B50446BB
:109BF00087B01E480D464BF0DFFDA0B31B484BF06D
:109C0000DBFD012806D8204620212A46184B5DF0AE
:109C100051FA26E0174842F6D553C35C1BB300F552
:109C2000187004A905AA4BF09DFEE0B19DED057AE0
:109C3000DFED117AB4EEE77AF1EE10FA14D8DDED2B
:109C4000047AFDEEE77A17EE100ACDED007AFEF702
:109C500091FC2A46CDE90201084B204620215DF007
:109C600029FA002000E0012007B030BDC81501200E
:109C7000CB0F0D08681301209A99193FE20F0D08C8
:109C80002DE9F8432DED028BC388012B04460D46C8
:109C900003D09A0601D4012734E2B84E304613F0BF
:109CA000ABFE074638B1B64B204620212A465DF070
:109CB00001FA002726E296F944306BB1D6F8D03984
:109CC000B3F90410B6F9463003F10A02914211DDEE
:109CD00040F28D3293420DDDB388A84AA3F57A7322
:109CE0009BB241F658318B420BD9204620212A469F
:109CF000A44B03E0A44B204620212A465DF0DAF96C
:109D000000E242F6A04392ED207AD358D3ED097ACF
:109D1000B4EEE77AF1EE10FA08DC92ED217AD3ED99
:109D20000A7AB4EEE77AF1EE10FA04DD204620213B
:109D30002A46964BE2E742F2B103D35643B1944828
:109D400031F03EFB20B9204620212A46914BAEE758
:109D500020462946FFF710FF002800F0D38142F685
:109D60009D03DFF81882F35C9B06204603D5202173
:109D70002A46894BC2E72946FFF738FF002800F042
:109D8000C18142F6A4439FED858A58F80330D3ED94
:109D90001B7AF0EEE77AF4EEC87AF1EE10FA03D50A
:109DA000204629467E4A7DE1D3ED087AF0EEE77A37
:109DB000F4EEC87AF1EE10FA03D520462946794A26
:109DC00070E1D3ED097AF0EEE77AF4EEC87AF1EEBD
:109DD00010FA03D520462946734A63E1D3ED0A7A87
:109DE000F0EEE77AF4EEC87AF1EE10FA03D52046E9
:109DF00029466E4A56E1D3ED0B7AF0EEE77AF4EE9F
:109E0000C87AF1EE10FA03D520462946684A49E19E
:109E100042F6A04958F8090003689B689847D0EDBE
:109E2000007AF0EEE77AF4EEC87AF1EE10FA11D586
:109E300058F8090003689B689847D0ED057AF0EE62
:109E4000E77AF4EEC87AF1EE10FA03D520462946F7
:109E5000584A27E142F6A04856F8080003689B6874
:109E60009847D0ED017AF0EEE77AF4EEC87AF1EE99
:109E700010FA14D5414B53F8080003689B689847C3
:109E8000D0ED057A9FED457AF0EEE77AF4EEC77AE9
:109E9000F1EE10FA03D520462946474A02E142F680
:109EA000A04856F8080003689B689847D0ED027AEE
:109EB000F0EEE77AF4EEC87AF1EE10FA14D52F4BF3
:109EC00053F8080003689B689847D0ED057A9FED2A
:109ED000337AF0EEE77AF4EEC77AF1EE10FA03D5B2
:109EE00020462946354ADDE042F6A04856F80800EB
:109EF0000368DB689847D0ED007AF0EEE77AF4EE7D
:109F0000C87AF1EE10FA10D51C4B53F8080003681C
:109F1000DB689847D0ED057A9FED207AF0EEE77A7E
:109F2000F4EEC77AF1EE10FA24D442F6A04856F8BF
:109F300008000368DB689847D0ED017AF0EEE77A15
:109F4000F4EEC87AF1EE10FA3ED50C4B53F8080047
:109F50000368DB689847D0ED057A9FED107AF0EE44
:109F6000E77AF4EEC77AF1EE10FA2DD520462946AD
:109F7000134A97E020462946124A93E068130120CD
:109F8000FB0F0D08A2100D088F100D08B2100D0860
:109F9000502C0120C6100D0818100D0800000034C8
:109FA0002D100D0839100D0844100D084F100D0824
:109FB0005A100D08D9100D08E7100D08F5100D08FE
:109FC00011110D0803110D0842F6A04856F80800BB
:109FD0000368DB689847D0ED027AF0EEE77AF4EE9A
:109FE000C87AF1EE10FA14D5494B53F8080003680B
:109FF000DB689847D0ED057A9FED467AF0EEE77A78
:10A00000F4EEC77AF1EE10FA03D520462946424A0B
:10A0100048E042F6A04856F8080003681B699847D4
:10A02000D0ED007AF0EEE77AF4EEC87AF1EE10FAAD
:10A0300014D5374B53F8080003681B699847D0EDD7
:10A04000057A9FED347AF0EEE77AF4EEC77AF1EE16
:10A0500010FA03D520462946304A23E042F6A048AC
:10A0600056F8080003681B699847D0ED017AF0EEB6
:10A07000E77AF4EEC87AF1EE10FA16D5244B53F8CD
:10A08000080003681B699847D0ED057A9FED217A97
:10A09000F0EEE77AF4EEC77AF1EE10FA05D5204A31
:10A0A00020462946FFF71AFD2CE042F6A0439FED1B
:10A0B000197AF358D3ED0A7AF0EEE77AF4EEC87A1B
:10A0C000F1EE10FA03D520462946164AEAE7D3ED09
:10A0D000097AF0EEE77AF4EEC77AF1EE10FA03D5DA
:10A0E00020462946104ADDE7D3ED0B7AF0EEE77AF9
:10A0F000F4EEC77AF1EE10FA7FF5CDAD2046294691
:10A100000A4ACFE7BDEC028B3846BDE8F88300BFB2
:10A1100068130120000000341F110D082D110D08D7
:10A120003B110D0865100D0873100D0881100D0806
:10A130002DE9F04F814680699046026885B0D2F8DB
:10A14000B0200D469047044620B9484621462A468D
:10A150007E4B16E0D9F81C001AF05EFA044638B1BE
:10A16000484600212A467A4B5CF0A4FF0024E8E030
:10A17000D9F81C2092F83D2032B1764B4846214652
:10A180002A465CF097FFDCE0734F07F57E5A42F6F3
:10A190004C02DAF80000BB5C026802935269414647
:10A1A00090473E46CDF80CA020B9484621462A46A5
:10A1B0006A4BE6E748462946FFF79EFC82460028A0
:10A1C00000F0BF8042F64A0B17F80B2002F0240281
:10A1D000242A04D1484621462A46614BD1E7384615
:10A1E0001F2113F057FB20B93846214600F05EFBD3
:10A1F00008E038461F2113F04DFB18B117F80B206B
:10A20000130728D4B9F806201AB3012A2AD0D70692
:10A2100028D4B9F8062011B2012945D0900643D4BC
:10A2200001E001294AD0520648D44E4A1268506CC7
:10A23000026852699047012804D1484600212A4605
:10A24000494B9EE74846414605B0BDE8F04F5DF0FA
:10A2500005BB544675E03EF099F80221434A3AF0B6
:10A2600081FA6EE0D9F81820D2ED517A92ED500AB9
:10A2700020EE270AAEF0B2FFDFED3D7AB6F90430EA
:10A2800020EE270ADFED3B7A20EE270A07EE903A10
:10A29000F8EEE77AB4EEE70AF1EE10FAB9DD4846D7
:10A2A00010212A46344B6CE742F69D00305C830651
:10A2B000B7D5484620212A46304B62E796F944102C
:10A2C000254A39B1D2F8D019B2F94620B1F90010B7
:10A2D00091422EDBB8F1000F04D0029B03F0EF0295
:10A2E000042AA2D0D6F8D0291B48B2F9023000EED9
:10A2F000103AB8EEC00A00F0CDFFB5EEC00AF1EE9C
:10A3000010FA06DD1E4A0092484640212A461D4B9F
:10A3100015E0039B186802681269904710B9029B08
:10A320000B2B82D1D6F8D029B2F90220002AE9DC21
:10A330007BE7134A144B0092484640212A465CF0C2
:10A34000B9FE204605B0BDE8F08F00BF49110D08E9
:10A3500060110D087C110D08681301209F110D0874
:10A36000B0110D0860130120E5110D08F3110D085F
:10A37000E02E65420000C842C8110D0818100D08F3
:10A38000DC110D08D0110D0810120D0870B503680E
:10A390000D4D5B680E4601210446984742F6480180
:10A3A0000A4A6B5C507260F304136B5403F01003A1
:10A3B00003F0FF0033B1204632460121BDE8704072
:10A3C000FFF7B6BE70BD00BF68130120205D0120FD
:10A3D0002DE9F04142F6A403264FFB580546587973
:10A3E00010F001040E46B84602D00120BDE8F0810D
:10A3F0003846202113F04EFA68B138461F2113F079
:10A4000049FA40B12846214632461B4B5CF052FEC9
:10A410002046BDE8F08142F64A0318F8033003F005
:10A420002403242B05D1284600213246134B5CF02F
:10A4300041FEB5F90630002BD7D031462846FFF74C
:10A4400027FB314604462846FFF71AFC20403146D8
:10A45000C4B22846FFF750FB314604402846FFF7B8
:10A4600063FB3146044028465DF0BEF92040BDE85C
:10A47000F08100BF6813012022120D08B0110D08F1
:10A4800070B505460E465CF03DFE00282FD0EB88E7
:10A49000012B02D09A0700D470BD286C03685B685A
:10A4A0009847C0F300240CB9830501D4012070BD86
:10A4B000286C03685B6A984742F634430C4AD358C9
:10A4C00007EE903AF8EEE77A30EE670ADFED097AA8
:10A4D000B0EEC00AB4EEE70AF1EE10FAE6DD284667
:10A4E00002213246044B5CF0E5FD204670BD70BD94
:10A4F000681301200000C8423C120D08F8B504465C
:10A500000F465CF019FEE388012B054601D05B077E
:10A510000BD5E0691CF08AFA064630B920460421C2
:10A520003A46034B5CF0C6FD35462846F8BD00BFF1
:10A530004F120D08F8B504460F465DF025F8E38884
:10A54000012B054601D0DB060BD52046FFF70CFB9F
:10A55000064630B9204610213A46034B5CF0AAFD6E
:10A5600035462846F8BD00BF66120D0838B50446CA
:10A570000D465CF025FDC0B1E388012B02D01B061F
:10A5800000D438BD42F6E113084AD35C3BB1204603
:10A5900080212A46064B5CF08DFD002038BD204608
:10A5A0002946BDE838405DF053B838BD6813012036
:10A5B0007B120D08F0B5124C85B0D4F8C839009361
:10A5C000D4F8CC390193D4F8D0390293D4F8D439E3
:10A5D00003936A46012307460E465DF073F9314640
:10A5E000054638465CF0F0FC42F648022840A35C81
:10A5F00060F3C303C3F3C000A35405B0F0BD00BFB4
:10A60000681301202DE9F0475A4D00230446806964
:10A61000AB7203688EB0D3F8B0300E469847A846A8
:10A62000074630B9204639463246534B5CF042FD6E
:10A630009CE0524B18680368DB6898478246504894
:10A6400051F042FB10F0060F14BF4FF001094FF01C
:10A650000009BAF1000F07D1B9F1000F04D10123AD
:10A6600088F80A303D4676E0464814F021F9054660
:10A67000B8B9A06903685B6A984750B9BAF1000F8E
:10A6800006D14148414BB9F1000F08BF184600E020
:10A690003E4800900021204632463D4B5CF00AFDCA
:10A6A00059E0606C04A917F041FE40B19DF81130EB
:10A6B0005A0604D5204600213246364B2FE00023AF
:10A6C000606C0B930C930D9309930A9308AA03688B
:10A6D00001920BAD09AA02920095D3F8CCC005A94E
:10A6E00006AA07ABE047284629F026FD2548D0ED0D
:10A6F0001B7AB4EEE70AF1EE10FA814604DB20463D
:10A7000000213246244B0AE0A16901F5987104F05A
:10A7100091FB054638B1214B2046002132465CF0C2
:10A72000C9FC002517E0E388012B01D01B0796D553
:10A7300099F8E83B6C2203F0030302FB0393B3F8A0
:10A74000B42AB9F92A309A4207DD20460821324658
:10A75000134B5CF0AFFC2F4608E0204631465CF01E
:10A7600089FD054600287FF47AAFF4E738460EB03D
:10A77000BDE8F087205D012049110D08E852012055
:10A78000D0400120681301208C120D08A7120D087B
:10A7900029590D08B3120D08C1120D08D6120D0863
:10A7A000E8120D081FB501A819F0A8FC01A903487B
:10A7B00051F0E4FA05B05DF804FB00BFD040012081
:10A7C00042F6480230B5835CC3F340158D4208D091
:10A7D00061F34513835421B10F21BDE8304003F0EC
:10A7E0004FBA30BD70B542F648030446C35CC3F3AC
:10A7F00041038B420E4625D000F50555083541B181
:10A8000001290DD11A2103F03BFA284606210E4AF0
:10A8100010E01B2103F034FA284606210B4A09E018
:10A82000012100F0B9FA20461D2103F029FA084A57
:10A830002846062139F096FF42F64803E25C66F3AB
:10A840004202E25470BD00BF49130D0834130D08D5
:10A8500044130D0842F69D0238B5835C0C46C3F3E1
:10A860004001A1420BD064F3410383549B0702D4FF
:10A8700005F09EFB01E005F0D1FC014B5C7338BD97
:10A88000205D012042F69D03C25C61F38202C25446
:10A890007047000010B52021044612F0FBFF04F5BC
:10A8A00021539A7A60F382029A7210BD42F64A03EB
:10A8B000C35CC3F3C0038B421FBF00F521539A7AD8
:10A8C00061F3C3029A7242F64A03C35C1B074CBF92
:10A8D0003621372103F0D4B95BF0D0BB47F062B822
:10A8E0004CF0AEBE14F028BB03F066BF48F082BF48
:10A8F00012F058BC12F0DEBA12F04EBA31F0A0BB22
:10A9000024F05CBC33F02CB956F08ABC41F04EBB4D
:10A9100001F0A6BC01F016BB01F00EBB01F0A6BC15
:10A9200011F07EBC06F0DCB805F03ABD05F0ECB8DD
:10A930002DF020BB11F0AABF18F0FCBE12F00EBC27
:10A9400010F040BC00F054BB11F0B4BE12F02CBBB0
:10A950005BF04EBE4AF0F6BE12F06EBB13F08CBC3C
:10A9600011F03ABE11F0C2BD13F030BB12F064BA60
:10A9700010B5044630F02EF8074B084A1A602046FE
:10A9800013F0A8FF04F60810054930220823BDE89B
:10A99000104031F071B900BF100801202C050E08DD
:10A9A000DC150D0810B5044600F6081031F0A2FAC7
:10A9B00004F5315304F66C1422689A6210BD00004D
:10A9C00010B5044612F01CF92046BDE8104012F004
:10A9D0007DBF0000FFF7F4BF10B5044605F0E6FEAA
:10A9E000204613F09DFC2046BDE8104004F09EB8C0
:10A9F000FFF7F2BF10B50121044613F0C7FC20B1E8
:10AA00002046BDE8104003F085B810BDFFF7F2BF47
:10AA100038B50221044613F0B9FC28B120460121C3
:10AA200013F0B4FC00285FD020464FF4003113F03F
:10AA3000ADFC10B1204603F0EBF82046402113F0A6
:10AA4000A5FC70B104F6D815284634F09FFD42F6F7
:10AA5000F05304F53751E356303113B1284634F042
:10AA600081FE20464FF4806113F090FC18B104F68B
:10AA7000D81034F0F1FD2046202113F087FC50B1AE
:10AA800004F57E5318680368DB68984798BB204636
:10AA90000EF0D8FA78BB2046802113F077FC80BBFB
:10AAA00020464FF4802113F071FC50BB20464FF438
:10AAB000002113F06BFC20BB2046102113F066FC34
:10AAC00020B342F6A04304F6D815E0584EF02CF916
:10AAD000284604F5187138F037F8284604F5AE71A9
:10AAE000BDE8384037F0CEBF204603F013F82046CB
:10AAF00003F07AF898E742F6A443E05850F02CFBB4
:10AB0000C9E704F6D81035F06DF8D5E738BD000078
:10AB1000FFF77EBF10B50121044613F037FC10B1DA
:10AB2000204603F061F82046802113F02FFC28B165
:10AB300020464FF4002113F029FC20B12046BDE847
:10AB4000104003F0CBB904F6D81034F059FFF5E704
:10AB5000FFF7E0BF10B5044605F0A8FB204605F05E
:10AB600029FB204605F0C0FC04F53850083053F0AE
:10AB7000F7FE204605F010FC2046BDE8104014F01A
:10AB800007BA0000FFF7E6BF38B54FF6FF7104467D
:10AB900013F0FCFB30B142F6480320460721E2588F
:10ABA00003F0BEF804F5015042F6A4052030FEF78C
:10ABB0004DFF63595B79DB0718D404F5E35010307F
:10ABC00018F00CF82046FFF765FE605994F89C12C7
:10ABD000036894F85E201B699847D4F8D03960590F
:10ABE000B3F90410B3F9082058F028FC40F09CF9A0
:10ABF000204614F0B5F942F6480343F6B912E35C77
:10AC0000DB43C3F3C013A3542046BDE8384012F021
:10AC1000EDBA0000FFF7B8BF70B500F62C26054668
:10AC200030461EF01DFB002430461CF087FFE3B2C7
:10AC3000834213D20C2202FB03520134D2F8741A5D
:10AC4000074A52F823008142EED042F8231005F55E
:10AC500033501430BDE8704056F070BA70BD00BF7C
:10AC600050130120FFF7D8BFF8B500F5ED531833A6
:10AC700000F522561B68B36300F5EE53043341F62A
:10AC800088471B68F3630446C05900F58C40503078
:10AC900026F036FCBDEEC00A04F5235383ED000A0E
:10ACA000B26B5A60354604F52353EA6B9A6020462E
:10ACB0004FF6FF7113F06AFB30B12046E2590921CB
:10ACC000BDE8F84003F004B8F8BD000010B542F646
:10ACD000480300F52152C35C13F0060302F1080299
:10ACE00059D042F64901415CC90754D551786FF3F8
:10ACF00000015170D0F8C849D0F8CC29022BB4F922
:10AD0000023006EE903AF8EEE66A0ED100F52253D4
:10AD1000D3ED0E5AB2F9023007EE903A00F5225305
:10AD2000F8EEE77A93ED0F6A0DE000F52353D3EDCB
:10AD3000015AB2F9023007EE903A00F52353F8EECB
:10AD4000E77A93ED026A26EE677A67EEA57A00F558
:10AD5000EE52E6EE867A00F5ED51A6EEA57AD2ED3A
:10AD6000016A91ED066A67EEA66AE7EE066AFDEEF5
:10AD7000E66A16EE903A6380D1ED066AD0F8CC0907
:10AD800067EEA67AD2ED016AE7EE667AFDEEE77A23
:10AD900017EE903A438010BD10B504462DED028B9E
:10ADA00061B3204611F0BCFC04F5235240F2E631B9
:10ADB00013681B1A03F2F3138B422BD9106000F5B2
:10ADC0008C405030642390FBF3F308EE103ADFED33
:10ADD000137AB8EEC88A28EE278AB0EE480AAEF099
:10ADE00009F804F5235383ED010AB0EE480AAEF0EA
:10ADF0002BF904F5235484ED020A0BE042F64803D4
:10AE0000C35C03F00603042B04D111F05FFCB0F522
:10AE10007A7FC6D2BDEC028B10BD00BF35FA8E3CE6
:10AE200010B5044611F062FF2046102113F0AEFA6F
:10AE300020B12046BDE8104003F0FEB810BD000070
:10AE4000FFF7EEBF10B50A460449034608680168DB
:10AE50000C681946024BA047002010BD601301206A
:10AE60006813012070B500F52355044610352846B7
:10AE700018F0C0FF94F92C30002B3FD042F6A40309
:10AE800004F6D856E058283038F090FFDFED1C0A61
:10AE900090ED000AB7EE001A26F076FB94F9363EE4
:10AEA000012B08BF86ED180A0021284618F0EEFD98
:10AEB000DFED147A04F5965393ED017A20EE270A1C
:10AEC000DFED117AA7EE270A304683ED010A1BF069
:10AED0005DFC20464FF4005113F058FA70B104F5B0
:10AEE000E350103016F01EFC40B904F6D81031467D
:10AEF00000220023BDE8704037F0AABB70BD00BF40
:10AF000000000000CDCCCC3D6666663FFFF7AABFCF
:10AF100000F5E3501030012117F058B910B5044680
:10AF200000F5975024F0C0FA42F6A043E0580368B9
:10AF30005B6A9847204611F0FBF82046FFF7E8FFD0
:10AF4000204605F065FB204604F056FE204605F03D
:10AF500095FE204604F030F8204605F077FD04F514
:10AF60003450143041F028F820464FF6FF7113F0AA
:10AF70000DFA20B12046BDE8104002F057BF10BDC9
:10AF8000D0EDA56A90ED1F0AF5EEC06A07EE901AA3
:10AF9000F1EE10FAB8EEE77A02D827EE000A704711
:10AFA000F7EE007AF4EEE76AF1EE10FA1BDCB6EE8B
:10AFB000006AF4EEC66AF1EE10FA14D49FED0B6A43
:10AFC000D0EDA55A87EE067A77EEE57A67EE076A46
:10AFD00067EE877A26EE877AE5EE877A67EE867ADD
:10AFE00027EE800A7047C0EDA57AE7E700A08C4500
:10AFF00038B542F6A405044643595B79DA074FD5C4
:10B0000042F64803C35C1B064AD400F57E53186819
:10B0100003681B699847002842D142F64C03E35C61
:10B020000B2B00D138BD42F6A4439FED1E7AE358A6
:10B03000D3ED427AF0EEE77AF4EEC77AF1EE10FA49
:10B040002ED56059283038F0B1FEDFED170A90EDAB
:10B05000000AB7EE001A26F097FAB5EEC00AF1EE34
:10B0600010FA1DDD42F62843E35A3B339BB2762BA0
:10B0700016D804F5E45340F2E6321B6803F2F313EA
:10B0800093420DD841F68443E35803F2F3139342FD
:10B0900006D860599FED050ABDE8384058F0EAB976
:10B0A00038BD00BF00000034000000000AD7233C78
:10B0B00042F6A443C05850F021BA000038B5B5EEAE
:10B0C000C00AF1EE10FA2DED028B04460D46F0EEAB
:10B0D000408A07D842F6A403C05803681B68984703
:10B0E000F0EE408A204611F0FDFD00210028CCBF83
:10B0F00004464FF4FA744FF47A72284626F03AFA6E
:10B1000023B29842B6EE000A0CDA07EE900A07EE78
:10B11000103AB8EEE78A68EE007AB8EEC78A87EE92
:10B12000888A15E0C1BFC21A08EE102AB8EEC88A94
:10B13000C3F57A73C3BF68EE007A08EE103AB8EE32
:10B14000C88AB0EE408AC4BF87EE888A38EE008A8B
:10B1500078EEC08AB5EE080AF1EE688A88EE800AB9
:10B16000FEEE000AB7EE001A26F00EFA60EE087A3C
:10B17000B7EE007A67EE887A37EE400A67EE887A93
:10B18000E8EE007ABDEC028BB0EE670A38BD000035
:10B1900008B542F6A403C05803681B689847F6EE4A
:10B1A000007A20EE270ADFED057AB4EE670AF1EEA9
:10B1B00010FA48BFB0EE670A08BD00BF00000000EB
:10B1C00007B542F6A44302A9C25821ED010A00F5D1
:10B1D000315300F5365092ED080AD2ED320A93ED64
:10B1E0000A1A383051F0C4F99DED010A03B05DF838
:10B1F00004FB000038B52DED028B42F6A043DFEDD5
:10B20000100AC358B7EE001A93ED240A044626F03C
:10B21000BBF942F6A443B0EE408AE55842F6A403D7
:10B22000E05803681B68984738EE400A9FED058A8E
:10B2300020EE080A85ED120ABDEC028B38BD00BF76
:10B240000000000000007A4400F5ED5300F5EE50D8
:10B25000D3ED065AD2ED007AD0ED016A91ED006A85
:10B2600026EEE77A67EEA57AA6EE257AE6EE267A4E
:10B2700081ED007AC2ED007A70470000B0F8A43882
:10B2800013B9B0F9400000E018B20028B8BF40423E
:10B2900080B2704738B52DED068B42F69D0304460B
:10B2A000C35C03F00203B0EE408A03F0FF0513B164
:10B2B0009FED280A4AE011F015FDB4F948309FEDE2
:10B2C000269ADFED240A01EE103A07EE900AF8EE16
:10B2D000C19AB0EE480AB0EE491AF8EEE78A26F0B5
:10B2E00053F938EEE9AAB4F9480029464FF4C87278
:10B2F000B0EE408A26F03EF9B4EECA8AF1EE10FABA
:10B30000A4F848000DD52046FFF7B8FF07EE900AD5
:10B3100038EE4A0AB8EEE77A27EE000A80EE0A0A0B
:10B3200014E038EEA91AB4EEC18AF1EE10FABFDDCE
:10B33000B4F9403007EE903A38EE410AF8EEE77A79
:10B3400067EE807A39EE410A87EE800ABDEC068B03
:10B3500038BD00BF0000000000007A4438B5044644
:10B360002DED048B4C480D46F0EE408AF0EE609ACD
:10B3700011F008FD07EE905AB8EEE78A10B9B0EE6A
:10B38000480A85E004F531502C3056F0FDF8B0EE57
:10B39000409A5EF00FFD42F630430122E2543F4BEB
:10B3A0001A68821AB2F57A7F1A4604F5305303F10F
:10B3B0002C030CD941F67E11615E07EE901AF8EE6F
:10B3C000E77A77EEA87A77EEC97AC3ED007A002D96
:10B3D000106006DA42F6A402A258127912F0040FA5
:10B3E00006E00CD042F6A402A258127912F0080F1F
:10B3F00002BFD3ED007AE8EE297AC3ED007A41F678
:10B400007E12D3ED007AA25E07EE102AB8EEC77A5C
:10B4100041F6901177EE677AFDEEE77A17EE902A03
:10B42000C72A05DD62560132012AB8BF012209E0B0
:10B43000C73206DA6256013A501CA8BF4FF0FF32FD
:10B4400000E00022625441F690116256002AB8BF13
:10B450005242022AC2BF002283ED007A625441F6B2
:10B460009012A256002A8AD1D3ED006A94ED090AFF
:10B47000DFED0B0A9FED0B1A36EEC77A78EEC97A2C
:10B4800077EE677A27EE800A26F07EF838EE000A1B
:10B49000BDEC048B38BD00BF681301205C13012094
:10B4A000000016C300001643052070474FF4B07328
:10B4B00003FB0100203070474FF4B07303FB010021
:10B4C00020307047FFF72ABD00F58040143008F0A7
:10B4D0005FB8000000F58040143008F01FB800008D
:10B4E00000F58040143006F047BE000004F0FEBDB9
:10B4F0000C4B10B50446036000F53750303040F077
:10B500009FFB42F24813084AE25042F25413E058BB
:10B5100008B119F045F8D4F88C0808B119F040F8D2
:10B52000204610BDA4190D08ACF30D0838B504462B
:10B53000002505F00BFB0C4B236084F8485084F881
:10B54000495004F14A0018F0CBFD04F1560018F000
:10B55000C7FD04F1620018F0C3FD04F16E0018F09D
:10B56000BFFDE567204638BD88600D082DE9F04F26
:10B570002DED028BDD4B044687B040F8A03B02F076
:10B580000DFEDB4B0393029402AB93E8060004F636
:10B59000081030F03FFB04F678102CF009FC04F1A1
:10B5A000540104F6D81032F06DF804F62C201CF08B
:10B5B00043FA04F14A03C4F8C03C04F6D85A04F62E
:10B5C000C44017F07BFD04F5C759504604F50357F6
:10B5D0001BF012F809F1080904F59750303723F0F1
:10B5E00017FC3946192248462FF0F0FD04F5CB50E0
:10B5F000002118221C30B0F0ADFB04F5CC50043013
:10B6000038F086FB04F5CF5804F5CC5004F5E3552B
:10B61000103508F10808143004F5D85640F0EAF85F
:10B620001836404629464A462AF0A0F930462946AF
:10B630004A462BF09FFA4146324604F5FE58012354
:10B64000284615F0D9FD08F10C0841F6DC73C8F85E
:10B650000450E45004F5FF53A64A1A6041F6E4731F
:10B66000A54AE45041F6E8730026E25041F6EC7337
:10B670004FF6FF7BE45041F6F073A04AE25040469B
:10B68000A8F84C60A8F84EB0A8F850B0C8F8906080
:10B690009B492FF083F941F6CC73A8F828B0A8F89D
:10B6A0003AB0E65498F8013003F0FE0366F3410324
:10B6B00004F5235B04F5015620360BF1100B5246BE
:10B6C00088F8013030465B4629465BF0C3FC04F540
:10B6D000315A42F260038B4AE2500AF12C0AC6F852
:10B6E00040A07564043630462EF0E2FB28B930469F
:10B6F0002EF09CFB002800F07A8104F502502946C8
:10B7000028302DF0F7FC384642F2481730F0BCFCE8
:10B710007D4BE35104F5055305221A8300225A8319
:10B720009A834FF4827018F035FF42F25413774A2F
:10B73000E050136804F50556083603B91660744BDB
:10B74000E35120360027F01939F090FA714BF3518C
:10B7500007F5B077B7F5DC6FF5D142F64C0300275B
:10B76000E75442F64D0304F52150E75442F64F03E7
:10B770002830E75458F0F8FF04F5215604F522501C
:10B780004CF04CF83836644B64491E6030462FF05C
:10B7900005F9B7EE008A04F5225383ED0B8A04F510
:10B7A000225383ED0E8A04F5235383ED018A5C4B0B
:10B7B00005935C4B0093049406AB13E90C005846C8
:10B7C0004FF4007118F0ACF804F527505A464B4678
:10B7D0002946243046F03CF904F5295029462C30FE
:10B7E0005CF004FC04F52A5010305CF005FD04F513
:10B7F0003050B0EE480A3C3038F0A8FB04F5315B1D
:10B8000004F53150B0EE480A0BF11C0B103038F043
:10B8100087FA584618F064FC42F66C43424AE250FC
:10B8200004F5315300261E635E639E6304F53153B5
:10B83000DE631E645E64CAF830508AF82C7004F52A
:10B84000325A0AF1390A504647F074FB04F5335373
:10B85000364AC3F800A099469F7113604FF4004325
:10B86000C9F84830C9F85050C9F84CB009F114096A
:10B8700048462F492FF092F8C9F80CA004F534502F
:10B8800004F5355929465A4609F12809143040F083
:10B890009DFA2946484650F003FA4A4604F5AE732D
:10B8A00004F5365004F53759294609F11809009373
:10B8B000383004F5187350F02DFE294648462FF015
:10B8C0004FFB42F6D8531B4AE25004F53750303054
:10B8D00040F0A2F904F53850083052F0CDFF04F5DD
:10B8E00038502430037DC0F80CA025E0A4190D08C1
:10B8F000C5B40108C9B40108D5B40108E1B4010810
:10B9000040B00D0808130D08ACF30D08905D012040
:10B91000BC190D08B41A0D08AC5C012088710D0823
:10B92000EDB40108AC190D08EC2C0E08B866012026
:10B93000CC2B0E0830130D0803F0FC0367F38203D1
:10B9400003750761AC492FF029F804F538503C30F5
:10B95000AA492FF023F804F5395042464B462946B0
:10B96000043030F043FD04F55A50294604F565587B
:10B97000343052F0F9F808F1290018F0B1FB04F561
:10B98000655301225A87DF6304F56653FF2283F86B
:10B99000302004F566534FF0FF325A6404F56753C4
:10B9A00043F6F01208F1280804F57C59A7544046E4
:10B9B00083F83170924909F11C092EF0EFFF2946F6
:10B9C0004246484658F0DAFE43F61C738D4AE25070
:10B9D00006238D4A89F840308C4B13603546B9B246
:10B9E00018224A4301379E5C002EF8D104E042F24F
:10B9F00064030122E25480E6854B04F589481980EE
:10BA000004F57E5308F17C081846C3F80080043022
:10BA100005F09CF843F684737E4AE25004F57F50AB
:10BA20000C3005F093F804F5804743F6CC731437D7
:10BA3000794AE250384605F089F844F21403774A0F
:10BA4000E25087F8486087F8606044F2780304F5B4
:10BA5000814718374FF0010904F80390384605F084
:10BA600075F844F298036E4AE25004F5814307F1F9
:10BA700094005D669D66DD6638F04AF944F2C013B5
:10BA800004F58340C7F8A050C7F8B450C7F8C850B1
:10BA90004C30E65405F05AF804F5844744F2CC13D0
:10BAA000604AE2501C37384605F050F844F21C2337
:10BAB0005D4AE25004F5844087F84860683005F03C
:10BAC00045F844F26823594AE25004F58540303085
:10BAD00005F03CF844F2B023554AE25004F58543A2
:10BAE0009D67DD67C3F8805004F586450435284618
:10BAF00005F02CF885F8486044F2043304F58645D7
:10BB00004C4AE2505435284605F020F844F25433AC
:10BB1000494AE25004F5874085F84860203005F036
:10BB200015F844F2A033454AE25004F587406830E6
:10BB300005F00CF844F2E833414AE25004F588403D
:10BB4000343005F003F844F234433E4AE25004F541
:10BB500088407C30FFF7EAFC404604F0F7FF44F2EF
:10BB6000FC43394AE25004F58A40443004F0EEFFC9
:10BB700004F58B4544F24453344AE2500C352846D0
:10BB800004F0E4FF85F8486044F28C5304F58B45DB
:10BB900058352F4AE250284604F0D8FF44F2D853D3
:10BBA0002C4AE25085F8486085F8496004F58C45D8
:10BBB0003435284604F0CAFF44F2346385F84860FF
:10BBC000254AE25004F58D452846FFF7AFFC234B8C
:10BBD0002B6004F58E4085F8809004300BF066F8F9
:10BBE00042F6A0022046A35C43F00303A35407B02F
:10BBF000BDEC028BBDE8F08F88320E083C2D0E089C
:10BC0000341D0E0874540D08485D012030410D08A4
:10BC1000425D0120B8560D0804570D0860570D0805
:10BC2000C45A0D086C5B0D08C45B0D081C5C0D0844
:10BC30007C5C0D082C5E0D08A05E0D085C5F0D0895
:10BC4000A85F0D0800600D0894610D082C610D08B7
:10BC5000205B0D08E0610D08085F0D08E0600D082D
:10BC600010B55EF053FA064C064B18602046FFF7FD
:10BC70007DFC20460449054ABDE81040ACF092BF67
:10BC80006813012060130120F1B40108E06601206F
:10BC900000207047002070470F4A42F64C03D35CE7
:10BCA000033BDBB2142B08D8012199400B4B0B400E
:10BCB000002B14BF1823102300E0102342F6A40128
:10BCC00043F04000525822B15279D20748BF43F0A6
:10BCD000C00040F001007047681301201F6015008C
:10BCE00042F64C03014AD05C704700BF6813012044
:10BCF000014B187B704700BF68130120014B93F97B
:10BD00000E0070476813012000487047343301204B
:10BD10000048704740210120004870473C40012006
:10BD20000020704700487047881501200048704780
:10BD300040410120014812F03DBB00BF68130120C3
:10BD400000B58BB0192362228DF824100192009364
:10BD5000C22103AA8DED030ACDED040A8DED051A6B
:10BD6000CDED061A8DED072ACDED082A3DF0F8FA43
:10BD70000BB05DF804FB000007B542F6A4030D4AC2
:10BD8000D058283038F012F8DFED0B0A90ED000A99
:10BD9000B7EE001A25F0F8FBDFED087A20EE270A4F
:10BDA000BDEEC00A8DED010ABDF9040003B05DF8D7
:10BDB00004FB00BF68130120000000000000C8421F
:10BDC000014806F039BF00BF7C5301200148022220
:10BDD00004F0D6BF6813012008B50B6807EE103ACF
:10BDE000F6EE007AB4EEE77AF1EE10FA04DD0348DD
:10BDF00010F018FB002008BD042008BD68130120C6
:10BE00008B79DB0710D50A89CB7943EA0223074AED
:10BE1000126843F3170303EB2223C3F30722CB710A
:10BE2000C3F307430A724B72704700BF0831012009
:10BE3000044B187820B942F64A03034AD05CC00983
:10BE4000704700BFB05C0120681301200B4B42F625
:10BE50009D029A5C910706D442F6E111595C11B932
:10BE600012F03C0F01D00520704742F648029B5C5F
:10BE700013F0800F14BF03200420704768130120C3
:10BE80000B4991F98C328BB1907A537A43EA0023B3
:10BE9000D07A43EA0043A62B08D06D2B06D0B1F927
:10BEA0000C00D3791B1A5842584170470120704743
:10BEB0006813012010B592B0044602A818F010F9DA
:10BEC0001B4B1868036802A99B6B984768B3247ED4
:10BED0005DF070FF029B9FED177A059043F31723E7
:10BEE00007EE903A039B0693049B07930023F8EE1A
:10BEF000E77A09930A930B930C930D930E930F9388
:10BF000010934FF6F873ADF844300523962267EE90
:10BF1000877A8DF8463033230192009320465721CB
:10BF200005AACDED087A3DF01BFA12B010BD00BF96
:10BF3000E85201200AD7233C00F5055008300021C3
:10BF40003AF0ACB900F5055008303CF0CDBA00002D
:10BF500004F02EBB2DE9F04F2DED028B00F523559B
:10BF600010358DB0064688462846002117F07AFD28
:10BF700028B12846002117F055FD002852D1FF278F
:10BF80004FF6FF74304611F031F942F61C4306F6C5
:10BF9000081056F803B042F6204356F803A042F6C4
:10BFA000244356F803902FF083FF28460021B0EE7B
:10BFB000408A17F06BFDDFED257ACDF810B028EE42
:10BFC000278A20EE270ABCEEC87AFCEEC07A17EE6C
:10BFD000103AADF81C3017EE903AADF81E30002341
:10BFE000ADF82230ADF82430ADF82630ADF8283069
:10BFF000ADF82A30ADF82C307C221F23019200933B
:10C000004046012104AACDF814A0CDF81890ADF84F
:10C0100020408DF82E703DF0A3F90DB0BDEC028BE1
:10C02000BDE8F08F0021284617F06CFC0021C7B254
:10C03000284617F051FDDFED067A20EE270ABDEE07
:10C04000C00A8DED030ABDF80C409BE700007A445E
:10C050000000C8422DE9F0412DED068B42F6A043C9
:10C060000746C0589FED380A9FED388A8EB03C30A5
:10C07000884627F0A5FF07F57E568DED061A306835
:10C08000CDED050A21EE081A03688DED040ABDEE18
:10C09000C11A1B6B8DED031A20EE889A60EE089A88
:10C0A000BDF80C50984707EE900AF8EEE77A306832
:10C0B00067EE887A0368FDEEE77ADB6ACDED037AF6
:10C0C000BDF80C40984707EE900AF8EE678ADFED5E
:10C0D000207A68EE888A42F6A443F4EEE78AF1EE0D
:10C0E00010FAF85858BFF0EE678A4EF043FD3068FA
:10C0F00003685B6BB0EE40AA9847FCEEE87A002339
:10C100000A9317EE903A20EE080AADF834302AEE82
:10C1100008AA1A23B7220192009340463E2107AA9B
:10C12000CDED079A8DED089A8DED09AA8DED0B0ADC
:10C13000ADF83050ADF832403DF012F90EB0BDEC24
:10C14000068BBDE8F08100BF9F0CB3450AD7233CA6
:10C1500000FF7F477FB500F5CC5414340E462046CF
:10C1600000213FF0C5FB20B9204601213FF0C0FB74
:10C17000E0B1204600213FF0A5FBA8B1A56A20460A
:10C1800001213FF09FFB08B1A36B00E0084B039334
:10C19000CF220823019200933046E2210DEB0302E7
:10C1A00002953DF0DDF801E0014DE8E704B070BD17
:10C1B000000080BF70B500F50553283304461B7995
:10C1C000002B43D090F80D3A6FF3000380F80D3A3E
:10C1D0005DF0F0FD1E4A1368C31AB3F57A7F054679
:10C1E00009D910602046FFF7A7FE04F50550083076
:10C1F00003213AF053F8174A1368EB1A142B10D99D
:10C2000004F505560836304615603AF039FE3046DA
:10C210003BF09CFD30463CF067F904F678102BF0BB
:10C22000A9FE0D4A136841F28831EB1A8B4207D9F7
:10C2300004F50550156008300621084A38F092FAD6
:10C2400094F80D3A43F0010384F80D3A70BD00BF35
:10C25000385B01203C5B0120405B0120641B0D0822
:10C2600000F5055008303BF071BD000000F50550A9
:10C2700008303AF005BE00002DE9F04100F5E35624
:10C28000103605462DED028B30460C4615F024FB8A
:10C29000B5F870300746D80704D4B5F87030990760
:10C2A00063D531E042F6A043E85803689B6898479D
:10C2B000DFED667A9FED667A90ED0B0A90ED0F1A2E
:10C2C000D0ED0C1A90ED0D2AD0ED0E2AD7ED000A14
:10C2D000012120EE270A60EE870A21EE271A61EE7F
:10C2E000A71A22EE272A62EEA72A2046FFF728FD8A
:10C2F00020463DF0CBFF804620463CF0EDFF08F1A4
:10C3000018088045C9DB9DE042F6A043E858036861
:10C31000DB689847DFED4D7A9FED4D7A90ED0B0A83
:10C3200090ED0F1AD0ED0C1A90ED0D2AD0ED0E2ADB
:10C33000D7ED010A022120EE270A60EE870A21EEDE
:10C34000271A61EEA71A22EE272A62EEA72A2046B4
:10C35000FFF7F6FC20463DF099FF804620463CF072
:10C36000BBFF08F1180880456CDAB5F870305A0741
:10C370002FD542F6A043E85803681B699847DFEDC4
:10C38000337A9FED337A90ED0B0AD7ED020A90EDE8
:10C390000F1AD0ED0C1A90ED0D2AD0ED0E2A0321C4
:10C3A00020EE270A60EE870A21EE271A61EEA71A0F
:10C3B00022EE272A62EEA72A2046FFF7C1FC20467C
:10C3C0003DF064FF074620463CF086FF1837874261
:10C3D00038DAB5F870301B0734D542F6A4431D4A4D
:10C3E0009FED1A8AD5583046D5ED158A15F0A8FA72
:10C3F000DFED190AD0ED027A95ED191AD5ED161A6E
:10C4000095ED172AD5ED182A77EEA00A68EE888AEE
:10C410002046B0EE680A21EE081A61EE881A22EE74
:10C42000082A62EE882A0421F1EE600AFFF788FCF0
:10C4300020463DF02BFFBDEC028B2046BDE8F041CD
:10C440003CF04ABFBDEC028BBDE8F0810AD7233C2B
:10C45000E02E6542681301200AE81C412DE9F843EB
:10C4600004460F463AF004FA054608B10025EAE012
:10C47000764E42F6A408B14656F808307BB106F66F
:10C4800008102FF007FDF92809D856F808305B7915
:10C49000DA0704D53BF07AFF01230376D3E0FB1ED5
:10C4A0002A2B00F2C980DFE803F016C739C7C7C7D7
:10C4B000C7C7C7C7C7C7C7C7C7CDC7C767C7C7C766
:10C4C000CDC757C7C7778797C7C7C7C7A7C748C7C5
:10C4D000C7B7C7CDCD0042F6490319F803309B0614
:10C4E00040F1B080207E3DF0D1FE0546207E3CF03C
:10C4F000F3FE1E358542B9DA217E5448FFF72AFD46
:10C50000207E3DF0C3FE0546207E3CF0E5FE05356D
:10C510008542ABDA204638F0EDFC93E0207E3DF01A
:10C52000B5FE0546207E3CF0D7FE193585429DDAE2
:10C530004648217EFFF78EFD84E0207E3DF0A6FE7A
:10C540000546207E3CF0C8FE073585428EDA3F481E
:10C55000217EFFF7FFFD75E0207E3DF097FE05464A
:10C56000207E3CF0B9FE11358542BFF67FAF3848DA
:10C57000217E30F0A7FA65E0207E3DF087FE05467B
:10C58000207E3CF0A9FE07358542BFF66FAF2F48ED
:10C59000217EFFF7DDFC55E0207E3DF077FE05466D
:10C5A000207E3CF099FE0D358542BFF65FAF2948ED
:10C5B000217E3FF04DFD45E0207E3DF067FE0546C3
:10C5C000207E3CF089FE21358542BFF64FAF2046E4
:10C5D000214939F02DFF35E0207E3DF057FE05461C
:10C5E000207E3CF079FE29358542BFF63FAF1948E1
:10C5F000217E3FF047FD25E0207E3DF047FE0546C9
:10C60000207E3CF069FE18358542BFF62FAF0F48FB
:10C61000217EFFF731FE15E0207E3DF037FE054616
:10C62000207E3CF059FE25358542BFF61FAF0B48F2
:10C63000217E4BF0D1FA05E020463946BDE8F843AB
:10C640003BF0F8B801252846BDE8F88368130120BF
:10C65000AC4101207C40012010340120D04C01204D
:10C6600070B50B4BD3F89032DB0706460D461446E7
:10C6700003D50848114658F0B5FA214606485BF044
:10C680006FFA304629462246BDE8704038F092B92C
:10C690006813012084520120141C012010B50446A7
:10C6A00039F066F8054811F08FFE06210346044A6A
:10C6B0002046BDE8104039F04DB800BF6813012096
:10C6C000751B0D08034A92F8C439013382F8C43946
:10C6D00038F01EBA6813012038B54B69F7EE000A2E
:10C6E00000EE103A05460C4624F0E2FD28B1297E02
:10C6F0000548BDE8384002F073BC28462146BDE835
:10C7000038403AF03FBE00BF681301202DE9F04FDA
:10C710002DED028B8A7A4B7A43EA0223CA7A43EAE6
:10C720000243872B9DB006460D4636DC862B81F2F0
:10C7300054804C2B00F0AB8214DC452B00F0DF80E2
:10C7400009DC002B5FD0162B41F08A80C8483FF0EF
:10C7500093FC01F0F8B8462B69D04B2B00F0CB814D
:10C7600001F07EB8562B00F0F38607DC522B00F068
:10C77000AB85542B00F00A8601F072B86D2B00F0E7
:10C78000FE87842B41F06C80BA482EF0A3FDBA4896
:10C79000294649F01DF801F0D6B8A62B00F0EF8726
:10C7A0001EDC9D2B00F0FA870FDC952B00F0F28742
:10C7B0009C2B41F0558042F61E53B04AAC48D15CE8
:10C7C0002A463FF023FC01F0BEB8A03B012B01F24A
:10C7D0004780AB4831462A464FF038FC01F0B3B8E9
:10C7E000F62B01F0378006DCC82B1AD0F32B00F0B3
:10C7F000FA8701F035B8A3F51C53113B022B41F227
:10C80000298001F02DB89D4CCA79B4F90C309A42B8
:10C8100041F099805DF0CEFA42F69003E05001F0CD
:10C8200092B893492A4638F069FF01F08CB8934ECC
:10C83000CA79B6F90C309A4241F0858042F64B0332
:10C84000F35C9F070CD442F69D03F15CCC0741F1E9
:10C850007A806FF30001F1543EF04AFA01F073B8A8
:10C860005DF0A8FAEF78262F28BF2627044600217E
:10C8700026220CA8AFF06EFA05F10C013A460CA87E
:10C88000FCF7DCFE0020BDF9301022463EF03EFAF7
:10C890000120BDF9321022463EF038FA0220BDF9DF
:10C8A000341022463EF032FA0320BDF936102246FB
:10C8B0003EF02CFA0420BDF9381022463EF026FA4C
:10C8C0000520BDF93A1022463EF020FA0620BDF9B7
:10C8D0003C1022463EF01AFA22460720BDF93E10CF
:10C8E0003EF014FA3EF026FA42F69D03F25C60F345
:10C8F0000002F25442F69003F45001F024B85F4C69
:10C90000CA79B4F90C309A4241F01D80CE780B2ED2
:10C9100028BF0B2600210B220CA8AFF01BFA3246D1
:10C920000CA805F10C01FCF789FE9DF83A20B4F93A
:10C930000A309A4241F00780BDF93460002EC1F2FE
:10C9400002805DF037FABDF9323047F6FF7293424C
:10C9500005461ED0D4F8C819B1F90420B1F9081061
:10C9600007EE902A03F57A738A1A5343F8EEE76AC2
:10C9700007EE903AB8EEE77ADFED427AC7EE277A13
:10C9800076EEA77AFDEEE77ACDED037ABDF80C10CE
:10C9900000E00021BDF9303047F6FF7293421ED00F
:10C9A000D4F8CC09B0F90420B0F9080007EE902AB9
:10C9B000C3F57A73821A5343F8EEE76A07EE903AAA
:10C9C000B8EEE77ADFED2F7AC7EE277A76EEA77A10
:10C9D000FDEEE77ACDED037ABDF80C7000E000279C
:10C9E00047F6FF739E421CD0D4F8D029B2F9043028
:10C9F000B2F9082007EE903AD31A7343F8EEE76ACB
:10CA000007EE903AB8EEE77ADFED1F7AC7EE277AA5
:10CA100076EEA77AFDEEE77ACDED037ABDF80C80CD
:10CA200001E04FF00008BDF9363047F6FF7293423F
:10CA30002ED0D4F8D409B0F90420B0F9080007EEDC
:10CA4000902A03F57A73821A5343F8EEE76A07EEE9
:10CA5000903AB8EEE77ADFED0B7AC7EE277A76EEFA
:10CA6000A77AFDEEE77ACDED037ABDF80C6010E011
:10CA70007C400120502C0120C815012068130120A2
:10CA8000D04001200000FA4400007A4400007F43B7
:10CA9000002642F6680309B2E05C0138C0B22A46BB
:10CAA0003EF034F942F6690339B2E05C0138C0B2B5
:10CAB0002A463EF02BF942F66B030FFA88F1E05C50
:10CAC0000138C0B22A463EF021F942F66A032A46EE
:10CAD000E05C0138C0B231B23EF018F93EF02AF9FC
:10CAE00042F69D03E25C60F30002E25442F69003DA
:10CAF000E55000F028BFCC78232C28BF2324002148
:10CB000023220CA8AFF026F922460CA805F10C014F
:10CB1000FCF794FDBDF84C40B32C1FD0C92C00F09D
:10CB20008680202C40F0A880DDED0C7AF5EEC07AEE
:10CB3000F1EE10FA40F3A2801FED2C7AF4EEC77AE2
:10CB4000F1EE10FA00F29A80FCEEE77AC84ACDEDD9
:10CB5000037A9DF80C30A2F8AE388BE09DED0C8A7C
:10CB6000F7EE000AB0EE480A24F0A2FB30B1C0484C
:10CB7000012102F003FA00287CD17FE0DFEDC37AC7
:10CB8000B0EEC88AB4EEE78AF1EE10FA76D59DF8D9
:10CB9000507027B17B1F012B01D9032F6ED1DDF817
:10CBA0004090DDF844804846414624F079FF002853
:10CBB00064D00C2208A80021AFF0CCF89FEDAD7A2C
:10CBC000DDED127ACDF8249067EE877A032FFDEE23
:10CBD000E77ACDF8288017EE903AC3F307228DF854
:10CBE0002130C3F307438DF822208DF8233001D084
:10CBF000062F16D116F0C8F990F83C31D8073DD56C
:10CC00009D4B089A1B6843F3172303EB2223C3F3BE
:10CC100007228DF82130C3F307438DF822208DF8C9
:10CC2000233008A90122924802F01EF9A3E7DDF89B
:10CC30004080119F4046394624F032FFF0B19FED0D
:10CC40008D7ADDED127A8D48CDF8248067EE877AF3
:10CC500008A9FDEEE77A0A9717EE903AC3F3072288
:10CC60008DF82130C3F307438DF822208DF823304F
:10CC700001F0C4FC002302E0032300E00423307E23
:10CC8000AB708F2203232C800093019217E3CC78A2
:10CC9000212C28BF2124002121220CA8AFF05AF812
:10CCA0000CA805F10C012246FCF7C8FCBDF84C307D
:10CCB000CF2B00F0F58139D8202B78D025D8142B34
:10CCC0006AD005D8112B40F0E8826948052165E05B
:10CCD000152B69D0162B40F0E082DDED0E7A9FED2A
:10CCE0006B7A674B9DED120A1868F0EEE77AF4EE66
:10CCF000C77ADFED607AF1EE10FA20EE270A4CBF1A
:10CD00000121002111F09AFF4BE0B32B00F0A3802A
:10CD100005D8732B65D0B22B00F08980BDE2C92BFA
:10CD200000F0FD80CD2B00F02E81B6E2B3F5C87F78
:10CD300000F071810CD8D12B00F0EB81C0F0C781DD
:10CD4000F62B00F09A81B3F5967F00F05381A4E2B0
:10CD50004AF21242934200F027820AD840F6D812D3
:10CD6000934200F0FF814AF21142934200F00A829E
:10CD700093E24AF21342934200F063824AF2BD52B8
:10CD8000934240F08A8241F6B003394A9DED0C0A85
:10CD9000D05812F0A3FB04E035480621022203F02C
:10CDA000EFFF002855D17FE231480921F6E7DDED9C
:10CDB0000C7AF5EEC07AF1EE10FA40F375829FED31
:10CDC000317AF4EEC77AF1EE10FA00F26D82FCEEE1
:10CDD000E77A274ACDED037A9DF80C30A2F8AE38F9
:10CDE00037E0DDED0C7AF5EEC07AF1EE10FAC0F224
:10CDF0005B829FED257AF4EEC77AF1EE10FA00F22D
:10CE000053829DED0F0ADFED217AB0EEC07AB4EEC9
:10CE1000E77AF1EE10FAB0EE678A00F14185F7EE9D
:10CE2000000A24F045FA002840F03A853CE2DDEDA6
:10CE30000D7AF5EEC07AF1EE10FA40F3358242F643
:10CE4000A8430B4A9FED0B0AD05827EE800A52F0F8
:10CE5000D3FC002029E29DED0C0AF7EE000A24F035
:10CE600027FAB8B10121024802F088F899E700BF1B
:10CE7000681301200000C84208310120445B0120F2
:10CE8000E852012000007F430000B443000000345A
:10CE90008096184BDDED0C7A1FED047AF0EEE77A00
:10CEA000F4EEC77AF1EE10FA40F1FE819DED100A22
:10CEB000DDED110A24F0D8FD002800F0F5815FEDCA
:10CEC0000C6A9DED107ADDED117ACE4827EE267AB8
:10CED00067EEA67ABDEEC77AFDEEE77A8DED097AA8
:10CEE000CDED0A7A9FEDC87ADDED127A67EE877A8A
:10CEF00008A9FDEEE77A17EE903AC3F307228DF802
:10CF000021308DF82220C3F3074301228DF823300E
:10CF100001F0AAFF00280CBF04200020C5E19DED10
:10CF2000100ADDED110A24F09FFD002800F0BC81FD
:10CF3000DFEDB66A9DED107ADDED117AB44827EE8B
:10CF4000267A67EEA67ABDEEC77AFDEEE77A8DED1A
:10CF5000097ACDED0A7A9FEDAC7ADDED127A67EEB3
:10CF6000877A08A9FDEEE77A17EE903AC3F3072215
:10CF70008DF82130C3F307438DF822208DF823303C
:10CF800001F03CFB65E742F61E539E4CA148E15C74
:10CF90003FF018F8014658B9DFED9B7A9DED0E0A77
:10CFA0009B48DFED9D0A80EE270A0A4601F0CAFA87
:10CFB00042F61E539748E15CDDED0E7AFDEEE77A0E
:10CFC000CDED007ADDED127AFCEEE77ACDED037A55
:10CFD000DDED0C7A9DF80C300193FDEEE77A17EE4B
:10CFE000902ADDED0D7AFDEEE77A17EE903A3FF0EC
:10CFF0001DF82EE7834C42F6A403E3585B79D9076A
:10D0000040F1528120460321022203F0B9FE00289C
:10D0100040F0608448E19DED0C0AF7EE000A24F030
:10D0200047F968B19DED0D0ADFED7C0A24F040F967
:10D0300080F001020121D2B272480FF035F9B0E65A
:10D04000DDED0C7A9FED767AF0EEE77AF4EEC77AB2
:10D05000F1EE10FA40F126816A4A42F64803D35CA9
:10D060001A0600F101819DED0D0ADFED6E0A24F034
:10D070001FF9002840F0F88016E19DED0C0AF7EE4C
:10D08000000A24F015F9002840F033849DED0C0AC5
:10D09000F0EE080A24F00CF9002840F02A8403E19D
:10D0A000DDED0C7AFCEEE77ACDED037ABDF80C40AD
:10D0B0003CB1012C40F0F8805B4821464EF0DEFE8A
:10D0C000C7E6594821464EF0D9FE2046EDE0DDED99
:10D0D0000C7AFCEEE77ACDED037ABDF80C30012B2B
:10D0E0000ED033B1022B40F0DF80464802F036FC10
:10D0F000AFE64E48002157F0D7FA4248312105E00B
:10D100004A48012157F0D0FA3E48322100F0B8FDDC
:10D110009FE6DDED0E7ADDED0C6A9DED0D7A317E38
:10D120009DED0F0A3748FCEEE77AFCEEE66ACDED9E
:10D13000037ADDED107ABDF80C300093FCEEE77A4F
:10D14000BCEEC77ACDED037A9DF80C30CDED036AC5
:10D150009DF80C208DED037A01939DF80C300EF0B4
:10D160005DFFA2E0DDED0D7A3148FCEEE77ACDED12
:10D17000037A9DF80C30012B0CBF0021012154F0E3
:10D18000A1FA66E61F4842F69D03C35C9B073FF584
:10D1900060AE0521022203F0F3FD00287FF459AEB2
:10D1A000022118480A4649E0164B42F69D029A5C55
:10D1B00097073FF54EAE42F6A4029A585279D4072B
:10D1C00005D4012118460A460FF06EF841E642F6F2
:10D1D00048020C489B5C23F07F036BB305210222BD
:10D1E00003F0CEFD00283FF434AE124BDFED067A9B
:10D1F0009DED0C0A186820EE270A012111F01EFD92
:10D2000027E600BF681301200000C8428096184B33
:10D21000445B01207C4001200000000000D03A4522
:10D22000000000340098A546D04001208C41012028
:10D23000A4410120E85201200921022203F0A0FDAF
:10D2400007E6BB4B42F69D029A5C90073FF501AEA4
:10D2500042F6A4029A585279D1077FF5FAAD42F608
:10D2600048029A5C120603D5B1480FF0DBF8F0E5EE
:10D27000DDED0C7A9FEDAF7AF0EEE77AF4EEC77A47
:10D28000F1EE10FA00F1508342F64C029B5C03F081
:10D29000EF03042B40F04883DBE530460CA93AF05D
:10D2A0005DF902E0032000E00420327EBDF84C303E
:10D2B0002B808F210323A8700093019110464D21EC
:10D2C0002A463CF04DF83EE3CC78272C28BF272493
:10D2D000002127220CA8AEF03DFD0CA805F10C01A1
:10D2E0002246FCF7ABF9944B18680368DB6B984750
:10D2F000002800F028839DF8564014F0C00F40F03D
:10D300002283DFED8E0A9DED140AB7EE001A24F099
:10D310003BF9F6EE000AB0EE408A23F0C9FF00BBED
:10D32000B6EE000AB4EEC08A42F6A843804AF1EE97
:10D3300010FAD5BFD358D358D3ED097A38EE408AC6
:10D34000D3BF30EE488A38EE088A93ED080A38EEEB
:10D35000088AD6BFF0EEE77A28EE000A27EEC80A60
:10D3600001E09FED760A0D9B08930E9B099384F0D4
:10D3700004020F9B0A937248109BDDED130A0B9376
:10D3800008A9C2F380020AF05DFEDCE2CC78352CFD
:10D3900028BF3524002135220CA8AEF0DBFC0CA8F8
:10D3A00005F10C012246FCF749F9634B1868036844
:10D3B000DB6B9847002800F0C6829DF86450012D71
:10D3C00003D0EB1F022B00F2BE82BDF8604014F0C8
:10D3D000070718BF012714F0380F4FF0000314BFE0
:10D3E0004FF001094FF0000914F4E07FC4F38026E8
:10D3F00014BF4FF001084FF00008C4F3C024059398
:10D40000069307939A4677BB9FED4E6A9DED0E7A81
:10D41000DDED0F7ADDED0D6A27EE067A67EEC67A4E
:10D4200066EE866AA5F10803012BCDED056A8DED48
:10D43000067ACDED077A04D83D4805A906AAFDF77E
:10D4400003FFEB1F022B07D83F4854F095F8014625
:10D4500005A826F08BFD06E035489DED070A0FF084
:10D4600089F98DED070ACDF820A0CDF824A0CDF8DC
:10D4700028A0B9F1000F1CD19FED326A9DED117A01
:10D48000DDED127ADDED106A27EE067A67EEC67AD8
:10D4900066EE866AA5F10803012BCDED086A8DEDD5
:10D4A000097ACDED0A7A04D8214808A909AAFDF71E
:10D4B000CBFE7EB9DDED167A9FED240A083D27EEFE
:10D4C000800ADFED207A012D20EE270A8CBF00258F
:10D4D000012502E09FED190A002554B9DDED177A08
:10D4E000DFED1A0A67EEA00ADFED167A60EEA70AF2
:10D4F00001E0DFED120A5FB9B9F1000F12D1B8F106
:10D50000000F00F0208284F001048DE83000FCE080
:10D51000B9F1000F40F01782B8F1000F00F013824C
:10D52000009515E1B8F1000F00F00D8200951DE1A6
:10D530006813012000000034E852012000000000C0
:10D54000BC5601200000C842D43F0120E02E6542B5
:10D55000CC78352C28BF3524002135220CA8AEF01C
:10D56000F9FB0CA805F10C012246FCF767F8BF4B4C
:10D5700018680368DB6B9847002800F0E4819DF889
:10D580006490B9F1000F0BD0A9F10503012B07D965
:10D59000B9F1030F04D0A9F10A03012B00F2D381E2
:10D5A000BDF8604014F0070818BF4FF0010814F0F0
:10D5B000380F4FF0000314BF0125002514F4E07F5D
:10D5C000C4F3802614BF01270027C4F3C0240593A9
:10D5D00006930793B8F1000F53D1DDF834B0DDF8AE
:10D5E00038A05846514624F05BFA002800F0AB8181
:10D5F0009FED9F7ADDED0F7ACDF824B067EE877A44
:10D60000A9F10309FDEEE77ACDF828A017EE902ADC
:10D6100042F31702C2F307238DF82230C2F3074307
:10D620008DF821208DF823309DF82010B9F1080FD6
:10D6300009D8DFE809F016080816080808050500EB
:10D6400041F0090111E08B4B1B68A2EB2322C2F3CE
:10D6500007238DF82120C2F307428DF822308DF880
:10D66000232041F001016FF3C3018DF8201082489F
:10D6700008A90FF0A5F88DED050ACDED060A8DED90
:10D68000071A8EB9DDED167A9FED7C0A9DF86420AD
:10D6900027EE800A083ADFED767A012A20EE270A83
:10D6A0008CBF0022012202E09FED750A002254B9CE
:10D6B000DDED177ADFED710A67EEA00ADFED6C7A17
:10D6C00060EEA70A01E0DFED6E0AB8F1000F24D189
:10D6D000002D47D1002F00F036819FED656A9DED4A
:10D6E000117ADDED127ADDED106A019227EE067AED
:10D6F00067EEC67A66EE866A84F00104CDED086AAC
:10D700008DED097ACDED0A7A009405A908AA86F074
:10D7100001035C480BF0EAF915E1002D40F013819C
:10D72000002F00F010819FED526A9DED117ADDED22
:10D73000127ADDED106A009227EE067A67EEC67A5D
:10D7400066EE866A8DED097ACDED086ACDED0A7A2E
:10D750000123019386EA03024A4808A963400BF0BB
:10D7600021FAF0E0002F00F0EE80009205A986F08B
:10D77000010284F0010343480BF006F9E3E00821BD
:10D780003D4810F003FE294603463F4A304638F034
:10D7900065F8D8E03D4850F0CDFAD4E042F61E538B
:10D7A000354C3B48E15C3EF00DFC014668B9D5EDD7
:10D7B000057A9FED2F0A3748DFED310AF8EEE77A58
:10D7C0000A4687EE800A00F0BDFE42F61E5330483E
:10D7D000E15C2A463EF022FCB5E02F48317E2A4625
:10D7E0002FF098FAAFE0CC783D2C28BF3D240021E3
:10D7F0003D220CA8AEF0AEFA05F10C0122460CA8B1
:10D80000FBF71CFF0C9D0D9C3DB934B90E9B23B951
:10D810000121194801F0B2FB95E02846214624F089
:10D820003FF9002800F08F800A220E9B93FBF2F351
:10D83000C3F307228DF821308DF82220C3F307436C
:10D8400008A901220C4809950A948DF8233001F0AB
:10D850000BFB78E01148317E2A464AF0FBFE72E06D
:10D86000304629463AF08AFC6DE000BFE8520120BC
:10D870000000C8420831012068130120E02E6542F3
:10D8800000000000BC560120401D01201C4A012060
:10D890007C400120445B0120AC410120D04C0120A0
:10D8A000DDED0E7A9DED0F7A29489DED0C0ADDED38
:10D8B0000D0AFDEEE77AB4EEC87AF1EE10FACDED7E
:10D8C000037A9DF90C10ACBF0122002200F03AFE51
:10D8D000FFF7BFBA20460121FCF772FF41F6CC7377
:10D8E000E35C012B3FF4B5AA1A4827F025FFFFF7A8
:10D8F000B0BA194B194801229A742AF03BFB184B15
:10D900001C68206C0368C8215B689847246C9DEDF7
:10D910000C0A2368F0EE080ADF6A23F0C9FC01460E
:10D920002046B847FFF795BA0E481121022203F0AE
:10D9300027FA00283FF434AC0B4840F6C41108F035
:10D9400093FCFFF786BA1DB0BDEC028BBDE8F08FEB
:10D95000445B012034330120205D0120E01C0120C4
:10D960006013012068130120345501200A4BD3F8BD
:10D970009022920701D436F0BDBF42F65C42DFED43
:10D98000077A9B5843F3172300EE103AB8EEC00A0B
:10D9900080EE270A704700BF681301200000C842CC
:10D9A00070B52DED088B29248CB00E46154601A8C4
:10D9B00022460021B0EE40BAF0EE60AAB0EE41AAD5
:10D9C000F0EE619AB0EE429AF0EE628AB0EE438ACF
:10D9D000AEF0C0F9A3238DF8043095238DF80530FF
:10D9E0000B238DF806305CF0D9F91BEE103ACDF818
:10D9F00011301AEE903ACDF815301AEE103ACDF8F3
:10DA0000193019EE903ACDF81D3019EE103ACDF8D4
:10DA1000213018EE903ACDF8253018EE103ACDF8B6
:10DA20000700CDF80B1007488DF80F6001A92246BA
:10DA30008DF81050CDF829302FF012FF0CB0BDEC4E
:10DA4000088B70BD401D012010B52DED028B1324F5
:10DA500086B0224601A80021F0EE408AB0EE608A2E
:10DA6000AEF078F9A3238DF8043095238DF80530B6
:10DA70000C238DF806305CF091F918EE903ACDF851
:10DA80000F3018EE103ACDF80700CDF80B1005480E
:10DA9000CDF8133001A922462FF0E2FE06B0BDEC0E
:10DAA000028B10BD401D012010B542F2B10388B0B9
:10DAB000C356044663B31C22002101A8AEF04AF904
:10DAC000A3238DF8043095238DF8053003238DF8BA
:10DAD00006305CF063F942F2C903CDF80700E35C5D
