:020000040801F1
:1000000000040020B9140108915104089551040816
:10001000E551040895510408BD510408BB140108BA
:10002000BB140108BB140108BB1401085D6D09086D
:10003000BB140108BB140108BB140108BB14010860
:10004000BB140108BB140108BB140108BB14010850
:10005000BB140108BB14010899780908C97809087C
:10006000F97809082979090859790908B915090899
:10007000E515090815160908451609087516090831
:10008000A1160908D116090829140908BB1401088A
:10009000BB140108BB140108BB14010889790908C5
:1000A000BB140108BB140108BB140108BB140108F0
:1000B000BB140108BB140108BB140108091E090880
:1000C000211E09084D1E0908651E0908BB140108F8
:1000D000BB140108052C09081D2C0908352C09083A
:1000E000F5790908BB140108BB140108BB14010809
:1000F000A9270908BB140108C12709080117090825
:10010000BB140108BB14010811800908BB140108C5
:10011000BB140108BB140108BB140108BB1401087F
:10012000311709085D1709088D170908BD17090857
:10013000ED170908BB140108BB140108BB14010822
:10014000BB140108BB140108BB1401086D74090835
:10015000191809084918090879180908BB14010871
:10016000BB140108BB140108BB140108BB1401082F
:10017000BB140108BB140108BB140108BB1401081F
:10018000BB140108BB140108BB140108BB1401080F
:10019000BB140108BB140108BB140108BB140108FF
:1001A000BB140108BB140108BB140108BB140108EF
:1001B000BB140108BB140108BB140108BB140108DF
:1001C000BB140108BB140108BB140108BB140108CF
:1001D000BB140108BB140108BB140108BB140108BF
:1001E000591B0108B9260108E933010829930108C0
:1001F00065AD0208C50E030885980308559F0308DE
:1002000079A20308490304086D1F04082156040855
:10021000719F070855CE070875E7070831050808DC
:10022000F107080831DD08088DDE0808000000002D
:10023000D0400B1CD1409C46203AD3401843524238
:100240006346934018437047D0400B1C1141203A3D
:1002500003D49C46134118436346524293401843CB
:10026000704700BF81F0004102E000BF83F000430F
:1002700030B54FEA41044FEA430594EA050F08BF41
:1002800090EA020F1FBF54EA000C55EA020C7FEA05
:10029000645C7FEA655C00F0E2804FEA5454D4EB82
:1002A0005555B8BF6D420CDD2C4480EA020281EA4C
:1002B000030382EA000083EA010180EA020281EA84
:1002C0000303362D88BF30BD11F0004F4FEA0131D6
:1002D0004FF4801C4CEA113102D0404261EB4101E5
:1002E00013F0004F4FEA03334CEA133302D052426B
:1002F00063EB430394EA050F00F0A780A4F1010427
:10030000D5F1200E0DDB02FA0EFC22FA05F2801860
:1003100041F1000103FA0EF2801843FA05F3594146
:100320000EE0A5F120050EF1200E012A03FA0EFCC5
:1003300028BF4CF0020C43FA05F3C01851EBE371EF
:1003400001F0004507D54FF0000EDCF1000C7EEB0C
:1003500000006EEB0101B1F5801F1BD3B1F5001F4A
:100360000CD349085FEA30004FEA3C0C04F1010469
:100370004FEA445212F5800F80F09A80BCF1004F92
:1003800008BF5FEA500C50F1000041EB045141EA14
:10039000050130BD5FEA4C0C404141EB010111F415
:1003A000801FA4F10104E9D191F0000F04BF0146C0
:1003B0000020B1FA81F308BF2033A3F10B03B3F19E
:1003C00020020CDA0C3208DD02F1140CC2F10C022E
:1003D00001FA0CF021FA02F10CE002F11402D8BF8C
:1003E000C2F1200C01FA02F120FA0CFCDCBF41EA58
:1003F0000C019040E41AA2BF01EB0451294330BD27
:100400006FEA04041F3C1CDA0C340EDC04F1140403
:10041000C4F1200220FA04F001FA02F340EA0300DA
:1004200021FA04F345EA030130BDC4F10C04C4F120
:10043000200220FA02F001FA04F340EA0300294600
:1004400030BD21FA04F0294630BD94F0000F83F44A
:10045000801306BF81F480110134013D4EE77FEA2D
:10046000645C18BF7FEA655C29D094EA050F08BF79
:1004700090EA020F05D054EA000C04BF194610465A
:1004800030BD91EA030F1EBF0021002030BD5FEA9E
:10049000545C05D14000494128BF41F0004130BDC6
:1004A00014F580043CBF01F5801130BD01F000451A
:1004B00045F0FE4141F470014FF0000030BD7FEA8D
:1004C000645C1ABF194610467FEA655C1CBF0B4688
:1004D000024650EA013406BF52EA033591EA030F9F
:1004E00041F4002130BD00BF90F0000F04BF002197
:1004F000704730B54FF4806404F132044FF00005CA
:100500004FF0000150E700BF90F0000F04BF002142
:10051000704730B54FF4806404F1320410F00045A8
:1005200048BF40424FF000013EE700BF42004FEAA3
:10053000E2014FEA31014FEA02701FBF12F07F4320
:1005400093F07F4F81F06051704792F0000F14BF1D
:1005500093F07F4F704730B54FF4607401F0004561
:1005600021F0004120E700BF50EA010208BF7047B8
:1005700030B54FF000050AE050EA010208BF7047AD
:1005800030B511F0004502D5404261EB41014FF416
:10059000806404F132045FEA915C3FF4DCAE4FF01A
:1005A00003025FEADC0C18BF03325FEADC0C18BF01
:1005B000033202EBDC02C2F1200300FA03FC20FA52
:1005C00002F001FA03FE40EA0E0021FA02F114449F
:1005D000C1E600BF70B54FF0FF0C4CF4E06C1CEAB4
:1005E00011541DBF1CEA135594EA0C0F95EA0C0F29
:1005F00000F0DEF82C4481EA030621EA4C5123EA9C
:100600004C5350EA013518BF52EA033541F48011CA
:1006100043F4801338D0A0FB02CE4FF00005E1FB7D
:1006200002E506F00042E0FB03E54FF00006E1FBC7
:1006300003569CF0000F18BF4EF0010EA4F1FF040A
:10064000B6F5007F64F5407404D25FEA4E0E6D414A
:1006500046EB060642EAC62141EA55514FEAC5205B
:1006600040EA5E504FEACE2EB4F1FD0C88BFBCF5D7
:10067000E06F1ED8BEF1004F08BF5FEA500E50F188
:10068000000041EB045170BD06F0004646EA01014E
:1006900040EA020081EA0301B4EB5C04C2BFD4EB80
:1006A0000C0541EA045170BD41F480114FF0000E79
:1006B000013C00F3AB8014F1360FDEBF002001F0E7
:1006C000004170BDC4F10004203C35DA0C341BDC61
:1006D00004F11404C4F1200500FA05F320FA04F033
:1006E00001FA05F240EA020001F0004221F0004167
:1006F00010EBD37021FA04F642EB06015EEA430EDA
:1007000008BF20EAD37070BDC4F10C04C4F1200509
:1007100000FA04F320FA05F001FA04F240EA0200BC
:1007200001F0004110EBD37041F100015EEA430E8D
:1007300008BF20EAD37070BDC4F1200500FA05F2AD
:100740004EEA020E20FA04F301FA05F243EA02032C
:1007500021FA04F001F0004121FA04F220EA02003B
:1007600000EBD3705EEA430E08BF20EAD37070BD81
:1007700094F0000F0FD101F00046400041EB010161
:1007800011F4801F08BF013CF7D041EA060195F043
:10079000000F18BF704703F00046520043EB0303FD
:1007A00013F4801F08BF013DF7D043EA06037047EA
:1007B00094EA0C0F0CEA135518BF95EA0C0F0CD0F5
:1007C00050EA410618BF52EA4306D1D181EA03013B
:1007D00001F000414FF0000070BD50EA410606BF35
:1007E0001046194652EA430619D094EA0C0F02D17A
:1007F00050EA013613D195EA0C0F05D152EA0336BF
:100800001CBF104619460AD181EA030101F00041DC
:1008100041F0FE4141F470014FF0000070BD41F025
:10082000FE4141F4780170BD70B54FF0FF0C4CF4FF
:10083000E06C1CEA11541DBF1CEA135594EA0C0F1E
:1008400095EA0C0F00F0A7F8A4EB050481EA030E6B
:1008500052EA03354FEA013100F088804FEA033352
:100860004FF0805545EA131343EA12634FEA022220
:1008700045EA111545EA10654FEA00260EF00041E1
:100880009D4208BF964244F1FD0404F5407402D233
:100890005B084FEA3202B61A65EB03055B084FEAC4
:1008A00032024FF480104FF4002CB6EB020E75EBC1
:1008B000030E22BFB61A754640EA0C005B084FEAE9
:1008C0003202B6EB020E75EB030E22BFB61A754666
:1008D00040EA5C005B084FEA3202B6EB020E75EBB1
:1008E000030E22BFB61A754640EA9C005B084FEA29
:1008F0003202B6EB020E75EB030E22BFB61A754636
:1009000040EADC0055EA060E18D04FEA051545EA24
:1009100016754FEA06164FEAC30343EA52734FEACD
:10092000C2025FEA1C1CC0D111F4801F0BD141EA46
:1009300000014FF000004FF0004CB6E711F4801FAB
:1009400004BF01430020B4F1FD0C88BFBCF5E06F8B
:100950003FF6AFAEB5EB030C04BFB6EB020C5FEA9B
:10096000500C50F1000041EB045170BD0EF0004EF0
:100970004EEA113114EB5C04C2BFD4EB0C0541EA22
:10098000045170BD41F480114FF0000E013C90E61F
:1009900045EA060E8DE60CEA135594EA0C0F08BFE3
:1009A00095EA0C0F3FF43BAF94EA0C0F0AD150EAE2
:1009B00001347FF434AF95EA0C0F7FF425AF104675
:1009C00019462CE795EA0C0F06D152EA03353FF49D
:1009D000FDAE1046194622E750EA410618BF52EA1A
:1009E00043067FF4C5AE50EA41047FF40DAF52EAEE
:1009F00043057FF4EBAE12E74FF0FF3C06E000BF8B
:100A00004FF0010C02E000BF4FF0010C4DF804CD97
:100A10004FEA410C7FEA6C5C4FEA430C18BF7FEA57
:100A20006C5C1BD001B050EA410C0CBF52EA430C85
:100A300091EA030F02BF90EA020F0020704710F105
:100A4000000F91EA030F58BF994208BF90422CBF94
:100A5000D8176FEAE37040F0010070474FEA410C8D
:100A60007FEA6C5C02D150EA013C07D14FEA430CAB
:100A70007FEA6C5CD6D152EA033CD3D05DF8040B1C
:100A8000704700BF8446104662468C46194663464E
:100A900000E000BF01B5FFF7B7FF002848BF10F125
:100AA000000F01BD4DF808EDFFF7F4FF0CBF01206A
:100AB00000205DF808FB00BF4DF808EDFFF7EAFFE6
:100AC00034BF012000205DF808FB00BF4DF808EDA1
:100AD000FFF7E0FF94BF012000205DF808FB00BF96
:100AE0004DF808EDFFF7CEFF94BF012000205DF820
:100AF00008FB00BF4DF808EDFFF7C4FF34BF01202D
:100B000000205DF808FB00BF4FEA410212F5001219
:100B100015D211D56FF47873B3EB625212D94FEA44
:100B2000C12343F0004343EA505311F0004F23FA2E
:100B300002F018BF404270474FF00000704750EA83
:100B4000013005D111F0004008BF6FF00040704740
:100B50004FF00000704700BF4A0011D212F500129A
:100B600011D20DD56FF47873B3EB62520ED44FEA05
:100B7000C12343F0004343EA505323FA02F0704785
:100B80004FF00000704750EA013002D14FF0FF30C3
:100B900070474FF0000070474FEA4102B2F1E04366
:100BA00024BFB3F5001CDCF1FE5C0DD901F0004C54
:100BB0004FEAC0024CEA5070B2F1004F40EB8300A4
:100BC00008BF20F00100704711F0804F21D113F1D0
:100BD0003872BCBF01F00040704741F480114FEA09
:100BE0005252C2F11802C2F1200C10FA0CF320FA92
:100BF00002F018BF40F001004FEAC1234FEAD323AF
:100C000003FA0CFC40EA0C0023FA02F34FEA430318
:100C1000CCE77FEA625307D150EA01331EBF4FF0A1
:100C2000FE4040F44000704701F0004040F0FE40BC
:100C300040F40000704700BF80F0004002E000BFB9
:100C400081F0004142001FBF5FEA410392EA030FB7
:100C50007FEA226C7FEA236C6AD04FEA1262D2EB01
:100C60001363C1BFD218414048404140B8BF5B4206
:100C7000192B88BF704710F0004F40F4000020F09F
:100C80007F4018BF404211F0004F41F4000121F0B5
:100C90007F4118BF494292EA030F3FD0A2F10102FF
:100CA00041FA03FC10EB0C00C3F1200301FA03F13D
:100CB00000F0004302D5494260EB4000B0F5000F60
:100CC00013D3B0F1807F06D340084FEA310102F11F
:100CD0000102FE2A51D2B1F1004F40EBC25008BFD1
:100CE00020F0010040EA03007047490040EB00009B
:100CF00010F4000FA2F10102EDD1B0FA80FCACF1CA
:100D0000080CB2EB0C0200FA0CF0AABF00EBC250C8
:100D100052421843BCBFD0401843704792F0000FB6
:100D200081F4000106BF80F400000132013BB5E709
:100D30004FEA41037FEA226C18BF7FEA236C21D07F
:100D400092EA030F04D092F0000F08BF08467047E4
:100D500090EA010F1CBF0020704712F07F4F04D1B2
:100D6000400028BF40F00040704712F100723CBFC5
:100D700000F50000704700F0004343F0FE4040F4EF
:100D8000000070477FEA226216BF08467FEA2363AD
:100D90000146420206BF5FEA412390EA010F40F498
:100DA000800070474FF0000304E000BF10F00043E4
:100DB00048BF40425FEA000C08BF704743F09643CB
:100DC00001464FF000001CE050EA010208BF7047E6
:100DD0004FF000030AE000BF50EA010208BF70476D
:100DE00011F0004302D5404261EB41015FEA010C82
:100DF00002BF84460146002043F0B64308BFA3F17A
:100E00008053A3F50003BCFA8CF2083AA3EBC2535B
:100E100010DB01FA02FC634400FA02FCC2F120027A
:100E2000BCF1004F20FA02F243EB020008BF20F0B1
:100E30000100704702F1200201FA02FCC2F1200217
:100E400050EA4C0021FA02F243EB020008BF20EA0C
:100E5000DC7070477BB972B90029BEBF00204FF02B
:100E6000004106E008BF00281CBF6FF000414FF0B2
:100E7000FF3000F09BB882B0EC462DE9005000F046
:100E800065F8DDF804E002B00CBC704753B94AB90C
:100E9000002908BF00281CBF4FF0FF314FF0FF3082
:100EA00000F084B882B0EC462DE9005000F066F8FE
:100EB000DDF804E002B00CBC704700BF430803F04B
:100EC0005533C31A980800F0333003F03333184415
:100ED00000EB101000F00F3000EB002000EB0040A2
:100EE000000E704780EA104080EA102080EA10105F
:100EF00000F00F0346F69610184100F0010070470D
:100F0000D0B5FFF713FB00220E4B06460F46FFF746
:100F100061FBFFF721FE0446FFF7E6FA00220A4BC9
:100F2000FFF758FB02460B4630463946FFF79EF95D
:100F3000FFF712FE2346002242EA0002104619463D
:100F4000D0BD00BF0000F03D0000F0412DE9F041B0
:100F5000069C154606460F46984600F029F805FB04
:100F600001F300FB0838A5FB0023B21A434467EBEA
:100F70000303C4E90023BDE8F08100BF2DE9F0417F
:100F8000069C904606460F461D4600F05FF900FBA2
:100F900005F5A0FB082308FB0155B21A2B4467EBAB
:100FA0000303C4E90023BDE8F08100BF704700BF20
:100FB00000292DE9F043C0F2A6800026002BC0F2E4
:100FC0009C80884694469E46154604460F46002B54
:100FD0003DD18A4259D9B2FA82F33BB1C3F1200222
:100FE0009F4020FA02F29D4017439C40290C220C9E
:100FF000B7FBF1FEA8B201FB1E7742EA074700FBF0
:101000000EF3BB420AD97F190EF1FF3280F0058141
:10101000BB4240F20281AEF1020E2F44FF1AA4B28D
:10102000B7FBF1F301FB137744EA074700FB03F03A
:10103000B84208D97F1903F1FF3280F0F080B8423E
:1010400040F2ED80023B43EA0E43002203E08B4274
:101050000FD900221346341C18BF012460424FF000
:10106000000565EB45015840514000196941BDE854
:10107000F083B3FA83F2002A40F086808B4202D3D9
:10108000844500F2DB800123E5E712B90123B3FBBD
:10109000F2F5B5FA85F000283BD1781B4FEA154EE2
:1010A0001FFA85FC0122B0FBFEF8210C0EFB18078D
:1010B00041EA07470CFB08F3BB4207D97F1908F147
:1010C000FF3102D2BB4200F2BD808846FF1AA4B2B3
:1010D000B7FBFEF30EFB137744EA07470CFB03FC58
:1010E000BC4507D97F1903F1FF3102D2BC4500F29C
:1010F000A7800B4643EA0843ADE752426FEA060673
:1011000063EB43035DE7404261EB41014FF0FF3683
:1011100054E7C0F1200224FA02F107FA00F38540F7
:101120004FEA154ED7401943B7FBFEF20B0C0EFBEE
:1011300012771FFA85FC43EA07430CFB02F79F4234
:1011400004FA00F407D95B1902F1FF3074D29F4210
:1011500072D9023A2B44DF1B89B2B7FBFEF80EFBB3
:10116000187341EA03430CFB08F79F4208D95B1947
:1011700008F1FF315CD29F425AD9A8F102082B44F2
:10118000D81B48EA02428EE7C2F120032CFA03F191
:101190000EFA02FE20FA03F741EA0E0E08FA02F0F8
:1011A00028FA03F14FEA1E453843B1FBF5F8030C6A
:1011B00005FB18111FFA8EF743EA014107FB08F3FC
:1011C0008B420CFA02FC09D911EB0E0108F1FF3930
:1011D00030D28B422ED9A8F102087144C91A80B2CC
:1011E000B1FBF5F305FB131140EA014107FB03F7DF
:1011F0008F4208D911EB0E0103F1FF3016D28F4256
:1012000014D9023B714443EA0843C91BA3FB0C8970
:10121000494509D305D000221DE79646FEE6134650
:1012200011E794404445F6D2013BF4E70346EAE770
:101230008846A5E7C846D1E702468CE713460AE789
:10124000023B57E7A8F102082F443FE72DE9F041A0
:10125000002B44D18A42154604464FD9B2FA82F790
:101260000E464FB1C7F12003B94020FA03F602FA47
:1012700007F50E4300FA07F44FEA154E230CB6FBB0
:10128000FEF0AFB20EFB106143EA014307FB00F131
:10129000994209D95B1900F1FF3280F0EC80994244
:1012A00040F2E98002382B445A1AA4B2B2FBFEF392
:1012B0000EFB132244EA024207FB03F7974208D9C8
:1012C000521903F1FF3180F0D880974240F2D58067
:1012D000023B43EA004000263146BDE8F0818B42E4
:1012E00047D8B3FA83F6002E48D18B4202D382420C
:1012F00000F2CD8001203146BDE8F08112B9012510
:10130000B5FBF2F5B5FA85F8B8F1000F77D14A1BB5
:101310004FEA154EAFB20126B2FBFEF0230C0EFBD6
:10132000102143EA014107FB00F38B4207D9491919
:1013300000F1FF3202D28B4200F2BA801046C91A85
:10134000A4B2B1FBFEF30EFB131144EA014407FB08
:1013500003F7A74208D9641903F1FF3280F08F80A8
:10136000A74240F28C80023B43EA00403146BDE890
:10137000F081002630463146BDE8F081C6F12004F8
:1013800022FA04F5B3402B4320FA04FC01FA06F7D5
:1013900021FA04F54FEA134E4CEA0707B5FBFEF8B5
:1013A000390C0EFB18551FFA83FC41EA05450CFB6E
:1013B00008F1A94202FA06F204D9ED1808F1FF3447
:1013C00067D3A0466D1ABFB2B5FBFEF40EFB1455F1
:1013D00047EA05410CFB04FC8C4504D9C91804F10B
:1013E000FF355CD32C4644EA0844CCEB0101A4FB56
:1013F0000223994248D344D0204600266CE7C8F126
:10140000200401FA08F305FA08F520FA04F7E14090
:101410004FEA154E1F43B1FBFEF63A0C0EFB1611B8
:101420001FFA85FC42EA01430CFB06F29A4200FADD
:1014300008F407D95B1906F1FF3137D29A4235D942
:10144000023E2B449B1ABFB2B3FBFEF00EFB1033DF
:1014500047EA03430CFB00F1994207D95B1900F1FD
:10146000FF3221D299421FD902382B445A1A40EA3E
:101470000646674650E7104616E70B4629E713462F
:1014800072E7B0409042B7D2601E002624E7304693
:1014900022E7A94295D9A8F102081D4492E78C459C
:1014A000A0D9023C19449EE71046DFE70E46C9E783
:1014B0000238294443E700BF02E000F000F8FEE7ED
:1014C00072B6384880F30888374880F3098837486F
:1014D0004EF60851CEF20001086040F20000CCF256
:1014E00000004EF63471CEF200010860BFF34F8F5A
:1014F000BFF36F8F40F20000C0F2F0004EF688514B
:10150000CEF200010860BFF34F8FBFF36F8F4FF033
:101510000000E1EE100A4EF63C71CEF200010860C8
:10152000062080F31488BFF36F8F85F055FC84F09C
:101530001FF91F481F491B4A91423CBF41F8040B49
:10154000FAE71D49184A91423CBF41F8040BFAE7FB
:101550001A491B4A1B4B9A423EBF51F8040B42F8F2
:10156000040BF8E700201849184A91423CBF41F8A3
:10157000040BFAE785F034FC84F056F9144C154D51
:10158000AC4203DA54F8041B8847F9E700F0D4FAB8
:10159000114C124DAC4203DA54F8041B8847F9E7AA
:1015A00085F01CBC0004002000240020000001087D
:1015B000555555550000002000040020A83E0B089A
:1015C00000240020042E0020082E0020F0F500202A
:1015D000E00101082C0201082C0201082C0201087C
:1015E0002DE9F04F2DED108AC1F80CD0C3689D464F
:1015F000BDEC108ABDE8F08F83F0BCFC002383F3C0
:1016000011882846A047002083F058FE83F0ACFCE8
:1016100083F0AEFB83F0AEFC00DFFEE710F8012B99
:1016200011F8013B012A28BF9A42F7D0D01A70471F
:10163000036800211B6818477047000000207047AE
:10164000002070477047000001F05EBB08F028B82A
:101650001BF052BE12F000BF20F0DCBC06F0EEBA68
:101660002DF0ECBF2DF09EBC06F0E4B807F052BAA6
:1016700001F01ABB01F06CBB02F0D4B901F00CBB55
:1016800001F0C6BB10B504461FF03AFA204601F03F
:10169000D7FE04F1E000044911224FF0FF33BDE80A
:1016A00010401FF0C7BC00BF80F1090810B5044608
:1016B000E03400F5346012F0B3FF20461FF0DCFC8C
:1016C000204644F6BC51BDE810401FF0DBBC0000D2
:1016D00001F09CBB10B5074B036042F22813064A89
:1016E000C25000F507530446186808B107F032FEEF
:1016F000204610BD90F3090830BC0A087FB50446A7
:1017000004F5B35500F504500021283008352DF0BC
:1017100011FA284605F01CFD214BE2881A7043F2AD
:10172000F5062EF0E9FC204602F04CF9A35D0133EA
:10173000DBB23B2BA35504D9204601F0CDFA0023A0
:10174000A355204601F06AFB95F86431DA070BD403
:10175000684607F0D9FB2846694605F003FA18B138
:101760002046694601F046FE0E4B1A68526C167907
:101770001C463EB195F88C30DB0603D433F05EFD99
:10178000C5F8900095F88C3066F3041385F88C301A
:1017900023685B6C1A79044B5A7104B070BD00BFAA
:1017A000BE280020082E002074600020FFF7A6BF8E
:1017B00010B50821044601F013FE18B104F5D070ED
:1017C00022F028F92046012101F00AFE10B120463E
:1017D00000F06EFE2046042101F002FE18B104F56F
:1017E000D07021F007FF2046102101F0F9FD28B14B
:1017F00004F5D070BDE8104021F05EBF10BD0000C0
:10180000FFF7D6BF2DE9F04FDFEDB30AB34B9FEDE5
:10181000B40A9FEDB41ADFEDB41A9FEDB42ADFEDE0
:10182000B42A044685B040F8583BB0EE603A33F035
:1018300077F9DFEDA90A9FEDAA0A9FEDAA1ADFED5D
:10184000AA1A9FEDAA2ADFEDAA2AB0EE603A002577
:1018500004F19C0033F064F902AF0295039597E818
:10186000060004F1E0001FF0B3FB04F5A8701BF0C4
:1018700013FC04F15401C4F89C5104F5D07020F01D
:1018800093F904F506700BF071FA04F2C44005F008
:10189000B3FE04F58A5904F2DC5004F5025809F04D
:1018A00013FC09F1080904F5346008F1300804F567
:1018B0009F5B04F5B35612F0CBFB083641460BF1A3
:1018C000080B484604F5A85A1FF01CFB0AF1100A41
:1018D00031464A46584619F069FA31464A4650465A
:1018E0001AF024FB304604F5CF5652462B46594693
:1018F000103604F043F830462EF0CAF941F6F013E2
:101900007C4AE250143670192DF06AFF7A4B7351FD
:101910002435B5F5107FF6D104F5E25004302EF0F1
:1019200081FC04F50250143026F048FB04F5025007
:10193000203026F043FB42F2AC034FF0000904F8DC
:10194000039042F2AD03404604F8039042F2281897
:1019500004F504551FF0AAFC2835684B44F80830FC
:1019600004F5075605F1800033F052FB0523B380E0
:10197000A6F80690A6F808904FF4827007F0E4FCF1
:1019800030603046303033F043FB5D4B1A6802B9AB
:101990001D605C4B44F80830E0350026A8192CF097
:1019A000CFFD594BAB5106F5F47640F688139E42B5
:1019B000F4D104F52E5505F1280032F03FFD103525
:1019C000524B53491D6028461FF07EF80025514BAD
:1019D000029403930095402197E80C0004F52F50E2
:1019E00006F094FE04F5425007F08EFA43F290039D
:1019F000102204F54256E25406F1180007F084FA6A
:101A000006F1280007F080FA04F543530022184637
:101A10001A605A609A6010302422294689F09CFB93
:101A200043F2F0030422E2543B4A3C4B1360A9B258
:101A300018224A4301359E5C002EF8D1384B19809C
:101A400043F2F5030122E65443F2F60304F5445051
:101A5000E65443F2F7032430E25443F20413314ACC
:101A6000E45043F2081304F54355E25043F20C13DB
:101A70002D4AE45043F210134FF6FF77E25043F241
:101A800014132A4AE45043F218133C35E25007F08D
:101A90003BFA04F544503C3007F036FAA5F85060A4
:101AA000A5F85270A5F85470C5F89460204B2149F0
:101AB0001D6028461FF008F843F2FC032F842F878F
:101AC000E6546B7866F3000366F3410320466B70BF
:101AD00005B0BDE8F08F00BF0000000090F30908DA
:101AE000CDCC4C3ECDCC4C3D00007A45CDCCCC3D50
:101AF0000AD7A33C8C1D0A0874F1090830BC0A08F7
:101B0000C46800204CF6090868F40908D05F00207A
:101B1000102D0A08D1160108A4600020002400201E
:101B20009A6000203D16010841160108451601087B
:101B300024600020E86C0A0810B50A4604490346F0
:101B4000086801680C681946024BA047002010BDC8
:101B5000082E0020102E002010B533F051FD064C49
:101B6000064B18602046FFF74DFE20460449054A03
:101B7000BDE8104086F08EBA102E0020082E0020FE
:101B8000D5160108086B0020002070477047000040
:101B90007047000000207047002070470020704709
:101BA00000207047002070470120704700207047D8
:101BB00000207047002070470020704770B5144B1C
:101BC00043F290021D469A5C0A2A0BD8DFE802F025
:101BD000060A08080A0A0A0A0A0A0800412402E05A
:101BE000192400E001240B4B1E68706C03685B6BCA
:101BF0009847012809D043F29003EB5C102B04D0E6
:101C0000736C1B790BB144F08004204670BD00BF9B
:101C1000102E0020082E0020044A43F29003D35CCB
:101C2000102B0CBF02200420704700BF102E002094
:101C30000020704770470000014B187A704700BFC2
:101C4000102E002070B5C4781C2C05460E4628BF07
:101C50001C2408461C22002189F07EFA304605F13A
:101C60000C012246BDE8704089F04EBA70B5C478C8
:101C70000E2C05460E4628BF0E2408460E220021D3
:101C800089F06AFA304605F10C012246BDE8704041
:101C900089F03ABA014801F0ADBB00BF102E002018
:101CA00008B50CF0A1FC90F8D431742101FB0301BC
:101CB00074310248BDE8084001F09CBB102E0020A2
:101CC0000A2910B50CD8012404FA01F340F20F40A0
:101CD000184030B10348032201F04EFB204610BDEE
:101CE000002010BD102E002000B5204B204AD3ED5F
:101CF000017A93ED007A1F4BDFED1F6A93F92A30CA
:101D0000007E002B134618BFB0EE677A53F808190F
:101D1000D3ED007AFDEEE77A8DB0CDED037A52ED8A
:101D2000017ABDF80C30ADF82830F4EEE67AF1EE29
:101D300010FA58BFF0EE667AFCEEE77AADF82A307A
:101D400017EE903A0022059208920992ADF82C30D5
:101D5000B7221A230691019200933E2105AA8DED28
:101D6000077A27F051FC0DB05DF804FBF45E00200B
:101D7000E85E0020102E002000FF7F472DE9F04193
:101D80008A7A4B7A43EA0223CA7A43EA0243262B31
:101D900094B007460C4628D00EDC1D2B00F0C48002
:101DA000212B40F0CA8008460AA9FFF74BFF66487E
:101DB0000AA901F031FDC4E0272B33D0452B40F0B8
:101DC000BC80CD780B2D28BF0B250AA800210B2243
:101DD00089F0C2F904F10C010AA82A4689F094F9A5
:101DE00059480AA901F0BEFDABE0CD78072D28BF08
:101DF0000725002107220AA889F0AEF90AA804F1F4
:101E00000C012A4689F080F9BDF92830002B40F0FA
:101E100098800122BA733B827B82384619212CF0CC
:101E20007BFE8EE0CD78262D28BF26250021262298
:101E30000AA889F091F902AE2A4604F10C010AA819
:101E400089F062F9304607F05FF89DF84A30022BBE
:101E500006AD03D0032B13D0002B4CD19FED3B7A62
:101E6000DDED0F7ADDED0E6A9FED396A66EE876A69
:101E700027EE877ADDED107A002367EE867A10E090
:101E80009FED327ADDED0F7ADDED0E6A9FED306A5F
:101E900066EE876A27EE877ADDED107A67EE867A3E
:101EA0000123FDEEE66ABDEEC77AFDEEE77A009308
:101EB00016EE901A17EE102A17EE903A284607F001
:101EC00043F895E80F0086E80F00BB7B4BB1BDF8E7
:101ED0004480B8F1000F10D11B48314601F08AFA56
:101EE00008B901230AE0384606211A4A29F0A2FC63
:101EF00087F80E8001E0022300E00023227A8DF8AB
:101F00001A300023E1798DF819208DF81B30042256
:101F10009923387E8DF818108DE80C002F212A4661
:101F2000032327F071FB0CE008460AA9FFF79EFE89
:101F300005480AA901F0C6FC03E0384621462DF009
:101F4000A9F814B0BDE8F081102E00208096184B3F
:101F50000000C84238F50908F0B52E4CB4F84C30F2
:101F6000D9078BB0064629D4B4F84C20294B9207E8
:101F70004DD5D3F8CC70D3F8DC50D3F8D040D3F89B
:101F8000D410D3F8D820D3F8C83003930323089291
:101F90008DF8243062221923307E0791009301923C
:101FA000C22103AA04970595069427F02DFB307EE5
:101FB00028F040F9307E27F0CFFA28E0D4F89430AA
:101FC000D4F8902008930223D4F88C1007928DF84F
:101FD000243062221923D4F884E0D4F89850007E8B
:101FE000D4F8887006910093C221019203AACDF81B
:101FF0000CE00595049727F007FB307E28F01AF9CE
:102000000546307E27F0A8FA18358542ACDB0BB0C8
:10201000F0BD00BF102E00200520704743F2900352
:10202000014AD05C704700BF102E00207FB5194DCB
:1020300043F2F6030C46E95C49BBE678092E28BF5B
:102040000926092201A889F087F8324601A804F17F
:102050000C0189F059F89DF808305A1F012A16D949
:1020600003F0F703122B12D0B5F90A300BB9E3795C
:102070006B810948E179227A00F09CF9227A0648BE
:10208000E17900F0D5F943F2F6030122EA5404B0F5
:1020900070BD00BF102E0020384F002070B500F535
:1020A0000853083304461B79002B42D090F8D531F1
:1020B0006FF3000380F8D53133F0C0F81D4A136880
:1020C000C31AB3F57A7F05460BD904F504562836B2
:1020D0001060002130462CF02DFD304603212CF0FD
:1020E00029FD154A1368EB1A142B0DD904F5045673
:1020F0002836304615602CF055FF30462DF09EFAFC
:1021000004F5A8701BF0F8F80C4A136841F2883106
:10211000EB1A8B4207D904F50450156028300621CC
:10212000074A26F0B9FB94F8D53143F0010384F84F
:10213000D53170BDA85F0020AC5F0020B05F0020EB
:102140004AF509087047000070470000704700001A
:102150007047000000207047F0B51B4B5B8989B0C9
:1021600005460E4614461BB1D7791BB2BB4226D199
:10217000A27A637A43EA0223E27A43EA02431D2BFE
:102180000BD1204601A9FFF771FD0F4801A901F00D
:1021900099FB28463146224611E0212B08D12046E2
:1021A00001A9FFF74FFD084801A901F035FBF0E751
:1021B000002BEED128462146FFF738FFE9E72BF048
:1021C00099FF09B0F0BD00BF102E002008B528F01F
:1021D00043FC30B9034943F2F0028B5C43F0040343
:1021E0008B5408BD102E002037B50D462A4A062113
:1021F000044629F01FFBAB8BB3F5967F3BD0B3F5BC
:10220000C87F1BD0B72B3CD12B68244807EE103A6F
:102210006B6807EE903ABCEEC77AFCEEE77A8DED7C
:10222000017A9DF80410CDED017ABDF8042000F08C
:102230000DFD00280CBF042000202AE02B68F7EEDB
:10224000000A00EE103A14F03FFD20B1134801F0EF
:102250005BF800201DE02B689FED117A07EE903AA5
:10226000F0EEE77AF4EEC77AF1EE10FA10D50B48EB
:1022700001F05CF8EDE709480A21032201F07CF83F
:10228000E7E72046294603B0BDE830402DF060B8AE
:10229000032003B030BD00BF5BF50908102E0020FD
:1022A0000000003408B528F0A7F941F2020200232B
:1022B0001043194308BD000070B543F2F702174CF4
:1022C000A25C8AB012B928F027FB25E0057E32F027
:1022D000B5FF43F288030390E658049643F28C035B
:1022E0002846E158059143F284032121E3580693DF
:1022F00004F5B454002322880793ADF82030ADF8DC
:102300002230ADF82430ADF826201C23682201923B
:10231000009303AA27F078F90AB070BD102E0020B0
:102320000020704701207047002070470020704750
:10233000052070474FF4F47303FB0100E030704751
:102340004FF4F47303FB0100E030704710B5036FE6
:1023500043F4E0530367436F43F4E0534367836FF1
:1023600043F4E053836704460CF03EF990F8AA2248
:1023700090F8D43132B1742202FB030292F8692042
:10238000012A05D8742202FB030393F869303BB19C
:10239000236F43F020032367636F43F020036367D9
:1023A00090F8D4110CF0FEF818B1A36F43F020039D
:1023B000A36710BD2DE9F043074685B088469146D6
:1023C00000253B6838469B699847ECB284422AD284
:1023D0002CF054F8036821461B699847037903B32E
:1023E000204627F027FF0646204627F0B5F803369B
:1023F000864216DA0D4B8DF80A8093F92B30ADF832
:102400000830012206238DF80D20942201920093BA
:102410002046422102AA8DF80B908DF80C3027F04F
:10242000F3F80135CDE705B0BDE8F083102E0020AC
:102430002DE9F043074685B08846914600253B6864
:1024400038469B699847ECB284422AD22CF016F8A1
:10245000036821461B699847037903B3204627F098
:10246000E9FE0646204627F077F80336864216DA5C
:102470000D4B8DF80A8093F92B30ADF8083001230D
:1024800094228DF80C308DF80D30062301920093C4
:102490002046422102AA8DF80B9027F0B5F80135AD
:1024A000CDE705B0BDE8F083102E00207047000096
:1024B00030B585B000230193039300F543539FED9E
:1024C000157AD3ED067A00F5435393ED040A67EECF
:1024D000877A20EE070A0446CDED027A04F5D0751E
:1024E00014F0A6FC04F5B354083401AA284621468A
:1024F0008DED030A23F0C0FD2846214623F0A8FDF8
:102500002846214621F046FC2846214621F0D4FCED
:1025100005B030BD0000C84230B52DED028B13244C
:1025200087B022460546002101A8F0EE408AB0EEB1
:10253000608A88F011FEA3238DF8043095238DF86E
:10254000053004238DF8063032F080FE18EE903A04
:10255000CDF80F3018EE103ACDF80700CDF80B107B
:1025600005F5D07001A92246CDF813301FF0ECFB21
:1025700007B0BDEC028B30BD2DE9F04323258BB0B5
:1025800006468946904601A82A460021129C1F460D
:1025900088F0E2FDA3238DF8043095238DF80530F3
:1025A00005238DF8063032F051FE2368CDF81B303C
:1025B0006368CDF80700CDF80B10CDF81F3006F595
:1025C000D070A368CDF80F9001A92A46CDF81380EA
:1025D000CDF81770CDF823301FF0B6FB0BB0BDE877
:1025E000F083000010B543F290030446002200F58A
:1025F000D070E15C1FF06AFD04F50670BDE8104084
:102600000BF0BCB900F5D07001498F221FF0ECBB74
:102610007CF609082DE9F041061D044630461EF0FF
:10262000CBF9204FA8B1B4F90430012B11D132F00D
:1026300003FE04461EF04CF93B681D6B2B681E68B8
:1026400032F0FAFD3346021B17492846BDE8F04137
:1026500018473D681549286B03681B6898472DF09B
:102660007FFE1DF049F8B4F904309FED117A013B6B
:1026700007EE903AF8EEE77A0123F0EEE77AF4EE0F
:10268000C77AF1EE10FA48BF1946A380304658BF0A
:1026900000211DF0E9FC286B064903681B68984778
:1026A000C5E700BF082E0020FC1A0A08111B0A0803
:1026B00000000034351B0A08084B094A03F5F47181
:1026C000C2F89432C2F8AC1203F5747103F5B76323
:1026D000C2F8C412C2F8DC32704700BF18500020A4
:1026E000002400200020704710299DBF242303FBF5
:1026F000010014300020704701207047002070470F
:102700007047000010B500F5BE5393ED057AD3ED88
:10271000077A67EE877A93ED047A67EEA07AE7EEA0
:10272000007AC1ED007AD3ED057AD3ED046A93ED1A
:10273000077A67EEA67A67EEA00AE7EE400AC2EDD6
:10274000000A10BD30B52DED068B41F27C6383B0DD
:10275000C35809EE103A00F5B453B8EEC99A0446CE
:102760001868F0EE609A0D4670EE49AAB0EE40AAE5
:1027700014F00AFBBDEEC00AFDEEEAAAF8EEC08A2C
:1027800039EEE88AB0EE480A14F04AFBFDEEC00AC2
:102790005DB110EE903ADFED180A002BCCBF38EE99
:1027A000608A38EE208AFDEEC80A01AA2046B8EEFB
:1027B000EA0AF8EEE00A6946FFF7A4FFDFED0F7AB8
:1027C000009A04F543532AEE27AADA6129EE279AE4
:1027D00004F54353019A1A6269EEA79A68EEA78A34
:1027E00084ED21AA84ED229AC4ED329AC4ED338A95
:1027F00003B0BDEC068B30BD00A00C470AD7233CCC
:1028000010B500F5BE54D4ED057A9FED157AF0EEC3
:10281000E77AF4EEC77AF1EE10FA04F114041DD44D
:1028200000F5BE53D3ED077A93ED047A67EEE07AB4
:102830000120E7EE007AC1ED007AD4ED006AD3ED15
:10284000047A93ED077AC7EEA67A87EE267A67EECA
:10285000A00AE7EE000AC2ED000A10BD002010BD7C
:102860000000003430B52DED068BB0F94430DFEDBB
:102870005D8A00F502555B42143585B0044608EECA
:10288000103A284625F0E0FBB8EEC88AD0ED009A51
:10289000B4F9443028EE288AB6EE009AD8EE099AA8
:1028A000284604F5025508EE103A25F0CDFBB8EEA7
:1028B000C88AD0ED007AB4F9483028EE288A20354D
:1028C000D8EE097A284609EE103AB0EE678A25F06C
:1028D000BBFBB4F94A3090ED00AA28460AEE903AC4
:1028E00025F0B2FBB8EEC99AF8EEEAAA99EE28AA4A
:1028F00002A96A4690ED009A8DED018A9AEEA89A97
:102900002046B0EE4A0AF0EE690ACDED009A8DED50
:1029100002AA8DED039AFFF773FFF0EE480A03A9B0
:1029200001AAB0EE490A2046FFF76AFF04F5B45346
:10293000186814F029FA04F54353D3ED047AB0EE85
:10294000408A94ED0F0A37EE800A20EE280A14F030
:1029500067FA30EE480A14F063FADFED237A9DED52
:10296000007AB5EEC00AF1EE10FAACBF70EE676AFD
:10297000F0EE406AF4EEC76AACBFF0EE407A70EE5B
:10298000277AF1EE10FA27D59DED016AF4EEC67AAA
:10299000F1EE10FA20DDB5EEC00AF1EE10FA08DD16
:1029A00077EE665A37EEC65AF4EEC55AF1EE10FAD3
:1029B00010D4B5EEC00AF1EE10FA0DD537EE667AF6
:1029C00077EEC67AB4EEE77AF1EE10FACCBF0120CA
:1029D000002002E0012000E0002005B0BDEC068BE5
:1029E00030BD00BF0000C84200A00C4710B52DED5F
:1029F000028B00F54353D3ED047A90ED0F0A9FED5F
:102A00002D8A37EE800A82B020EE080A044614F0C0
:102A100007FA04F54353F0EE408A93ED060AB4F941
:102A20004830D4ED107A00EE903AB4F94A3001EE15
:102A3000103A30EE270AB8EEC11AF8EEE00A14F0A8
:102A400043FA204620EE088AFFF70CFFB0EE480A52
:102A50000146F0EE680A2046FFF774FE2046B0EE0D
:102A6000480AF0EE680A694601AAFFF74BFEB4F97E
:102A70004630002B10DD07EE903A04F54352F8EE95
:102A8000E77A92ED057AB4EEE77AF1EE10FA03DA1E
:102A900043F29403E35C4BB920469DED000A00F03D
:102AA000E9FA20469DED010A00F0BCFB02B0BDEC46
:102AB000028B10BD0000C842024B01461868036833
:102AC0001B681847D468002008B50020FFF7F4FF02
:102AD000C18847202DF02EFA47202DF0A5FA0120BD
:102AE000FFF7EAFFC18848202DF024FA4820BDE80E
:102AF00008402DF099BA000038B543F2F0020446C0
:102B0000835C13F0010143D1B0F918009FED4C7ABA
:102B100007EE900A04F54355F8EEE77A1035C3F353
:102B2000001367EE877A95ED000A002BF7EE006A36
:102B3000BFEE007A08BFB0EE667AA7EE870ADFED37
:102B4000417A85ED000AB5EEC00AF1EE10FA10D513
:102B50001BB1A35C61F30413A354B4EEE70AF1EED6
:102B600010FA0DDD43F2F002A35C43F01003A3540E
:102B700006E0B4EEE70AF1EE10FA01DD002BF1D029
:102B8000DFED310A9FED2F1A14F09EF985ED000A52
:102B900043F2F001635CC3F34000002841D1B4F973
:102BA0001A209FED277A07EE902A04F54355F8EE98
:102BB000E77A1835C3F3C00367EE877A95ED000A0C
:102BC000002BF7EE006ABFEE007A08BFB0EE667A1F
:102BD000A7EE870A85ED000AB4F9482007EE902A8F
:102BE000F8EEE77AB4EEE70AF1EE10FA00D5EBB9A9
:102BF000B4F94A3001EE103AB8EEC11AB4EEC10A87
:102C0000F1EE10FA04DD43F2F001635C180712D50F
:102C1000534200EE903AF8EEE00A14F055F985EDD3
:102C2000000A2046BDE83840FFF7E0BE635C60F371
:102C3000C3036354DCE743F008036354E8E700BFD1
:102C40000AD7A33C0000B44300000000013970B56E
:102C5000CCB2012C154616D843F29003C35C032B6B
:102C600003D00321022200F087FB74B947202946D4
:102C70002DF060F947202DF0D7F92DF023FB2DF032
:102C800001F9012070BD002070BD482029462DF0BB
:102C900051F94820EFE7000008B52DF0B9F8BDE87C
:102CA00008402DF02BB8000038B5044608F024FD8C
:102CB00090F94D3073B104F2DC55284608F0C0FAA3
:102CC00040B104F5B3500830C0F89450BDE8384026
:102CD00004F03EBA38BD000010B5044608F00CFD03
:102CE00090F94D306BB194F82B3653B1054B1B68FE
:102CF0005B6C1B792BB904F2DC50BDE8104008F086
:102D00004BBB10BD082E002030B5104B1B685B6C10
:102D10001B7987B00446B3B900F53465284612F034
:102D2000A9FA284601A902AA12F0CAFA58B1019BD1
:102D3000039304F5B350029B04930830002303A9C6
:102D4000059304F0CBF907B030BD00BF082E00207A
:102D5000F8B5044600F506700BF06CFB94F8EC3304
:102D60000C2202FB0342D2F86002264A1168884214
:102D700046D094F8C21431B1742101FB034191F89B
:102D8000811201293CD8742101FB034191F8811281
:102D9000022935D910601C4A11780129164602D93A
:102DA00001391170F8BD2BD143F28801615831B956
:102DB00043F28C01615811B905231370F8BD7427D3
:102DC00007FB034303F523730FCB04F5425585E856
:102DD0000F002946204600F00DFB08F08DFC90F90D
:102DE0004D305BB194F8EC3307FB034304F2DC5045
:102DF000D3F89412D3F8982208F0DEFA0023337047
:102E0000F8BD00BFB45F0020B0280020704700006C
:102E100000F5B3500830002103F0BEBD30B543F2D9
:102E2000F80585B0435D04468BB9684606F06CF83A
:102E300004F5B3500830694603F090F938B104F254
:102E4000DC500299039A08F0B7FA0123635505B0E4
:102E500030BD000010B52DED028B04462DF04CF96D
:102E6000002047212DF0B0F9012048212DF0ACF9C8
:102E7000B4F844109FED178A01EB810101EB810149
:102E8000490089B247202DF0BBF8B4F94A30B4F9B3
:102E90004810591A01EB810101EB8101490089B207
:102EA00048202DF0ADF82DF00DFA2CF0EBFF04F5D5
:102EB0000250B0EE480A143025F088F8B0EE480A07
:102EC000BDEC028B04F502502030BDE8104025F027
:102ED0007DB800BFCDCCCC3D2DE9F0412DED028B6E
:102EE000B0F84880B0F84A60642318FB03F800F19A
:102EF000580716FB03F600F5435393ED070A054602
:102F0000384631F0C7FE48202DF06EF808EE100A62
:102F1000384631F07DFEB8EEC88A38EE000AFDEE84
:102F2000C07A17EE904A444503DC384631F08EFEF5
:102F30004446B44203DB384631F088FE344642F260
:102F4000AD06482021B22DF03DF807EE904AAB5D6A
:102F500005F502502030B8EEE70A3BB1BDEC028B1C
:102F6000DFED060ABDE8F04125F034B825F06EF833
:102F7000BDEC028B0123AB55BDE8F0810AD7A33C21
:102F800010B500F54351D0ED0C7A90ED0E6A91ED3D
:102F9000077AB0F84830B0F84A4067EE867AF0EE2B
:102FA000C76AF4EEE76AF1EE10FA02D54820002174
:102FB00028E0B5EEC07AF1EE10FADFED156A10DD0B
:102FC000642213FB02F207EE902A20EE267AF8EE36
:102FD000E77AB4EEE77AF1EE10FA02DD48200D4907
:102FE00010E0642314FB03F307EE903A20EE260A68
:102FF000F8EEE77AB4EEE70AF1EE10FA06D54820CB
:1030000042F22831BDE810402CF0DCBF10BD00BFFB
:103010000000C842D8DCFFFF37B500F5435300F18C
:103020005805044693ED070A284631F033FE28463A
:1030300031F0EEFDB4F94800B4F94A203223811A88
:10304000121A5943534300EE901A01EE103AF8EE6B
:10305000E00AB8EEC11A13F037FFBDEEC00A4820EF
:103060008DED010ABDF9041003B0BDE830402CF02D
:10307000A9BF000090F82830012B03D0022B03D108
:10308000FFF7CABFFFF77CBFFFF726BF70B52DED76
:10309000028BB0F84440322314FB03F400F19C0689
:1030A00000F5435393ED080A0546304631F0F2FD32
:1030B000304631F0ADFDDFED2B0A9FED2B1A13F0FA
:1030C00003FF4720B0EE408A2CF08EFF07EE900AF7
:1030D000B8EEE70ADFED230A9FED231A30EE080A67
:1030E00013F0F2FE634208EE903AF8EEE88AB0EE92
:1030F000408AB4EEE80AF1EE10FA04D8304631F016
:10310000A5FDB0EE688A07EE904AF8EEE78AB4EEC5
:10311000E88AF1EE10FA04DB304631F097FDB0EEAC
:10312000688AFDEEC87A42F2AC0417EE901A472086
:1031300009B22CF047FF2B5D05F502501430B0EEBC
:10314000480A3BB1BDEC028BDFED080ABDE87040D8
:1031500024F040BF24F07AFFBDEC028B01232B55F5
:1031600070BD00BF00A08CC600A08C460AD7A33C4F
:1031700000F543539FED117AD3ED087A90ED0D6A77
:1031800067EE877A90ED0B7A27EE067AF0EEE76A23
:10319000F4EEC76AF1EE10FA02D5472000210AE0EA
:1031A000F5EEC07AF1EE10FAD8BF05494FF04700AE
:1031B000C8BF44F250612CF005BF00BF0AD7233CC2
:1031C000B0B9FFFF37B500F5435300F19C05044645
:1031D00093ED080A284631F05DFD284631F018FDD0
:1031E000B4F844104FF6CE7211FB02F300EE903AA1
:1031F000322311FB03F301EE103AF8EEE00AB8EEC9
:10320000C11AB1EE400A13F05FFEBDEEC00A4720BE
:103210008DED010ABDF9041003B0BDE830402CF07B
:10322000D1BE000090F82930012B03D0022B03D12E
:10323000FFF7C8BFFFF79CBFFFF728BF0148FEF7A5
:103240002DBF00BF102E0020FFF7CCB9F0B590F9CC
:10325000500087B00D46D8B105210E482DF04CF92D
:10326000092107460B482DF047F901210646094878
:103270002DF042F902AC0022034600923946324654
:10328000204605F061FE94E80F0085E80F0001205C
:1032900007B0F0BDB85F002070B5194D0E46002193
:1032A00004460A4628462DF031F928467268012165
:1032B0002DF044F92846B26805212DF03FF9092187
:1032C0002846F2682DF03AF994F950309FED0D7AC6
:1032D000013B07EE903AF8EEE77A2046F0EEE77A07
:1032E000F4EEC77AF1EE10FA4FF0010500F8505FE6
:1032F0004CBF294600211CF0B7FE284670BD00BF18
:10330000B85F00200000003410B5074B1B6804466E
:10331000586C036801211B68984704F5D07001219F
:10332000BDE810401EF0F8BC082E002010B5074B79
:103330001B680446586C036800211B68984704F515
:10334000D0700021BDE810401EF0E6BC082E002021
:1033500010B5044631F072FF0021C4F89C014720EB
:103360002CF004FE482000212CF000FE2CF0AAFFD7
:10337000BDE810402CF086BD38B543F290031546E9
:10338000C25C8A42044626D01029C1540DD80123BC
:103390008B4040F20D421A402AB90F4A1A4022B11E
:1033A000FFF7C4FF01E0FFF7AFFF43F2900304F51E
:1033B000D070E15C2A461EF089FE04F5435304F503
:1033C000B454D4ED007A9FED057AF8EEE77A67EE13
:1033D000877AC3ED047A38BD020001000AD7233C86
:1033E00000F5D0701EF068BC014803212CF0E6BF48
:1033F000B85F00207FB5044604F5B356684608362A
:103400000D4605F081FD3046694602F01FFD30B9DA
:1034100020462946FFF740FF064640B905E0304602
:10342000294600F0B5FC0028F2D1002605E095E819
:103430000F0004F5425484E80F00304604B070BD1C
:103440002DE9F34700F502553035044628461DF0B6
:103450003BFF7E4BD3F80090D9F8306033681F688B
:1034600005F04AFDD0F80880D9F844000368DB6F06
:1034700098477749034642463046B8472046FFF70B
:10348000C9F8744BE2881A7028461EF02BF804F530
:103490000850083029460122002327F065FCD9F89E
:1034A00040006D49036804F52E589B69052208F118
:1034B00010089847404605F0AFFC04F5A87019F0D5
:1034C00007FF664B012204F52F509A71DA7104F25E
:1034D000C44A05F059FB04F504570823C4F8F03436
:1034E0005046283704F086FF2946384627F0BCFCB2
:1034F0002046FFF787F808F0FFF82023436608F01E
:10350000FBF809F0C9FA04F5B3560223C4F858329F
:10351000083604F50670294609F068FC304603F0C9
:1035200017FE96F88C306FF3410386F88C30B4F9AF
:103530001C3104F534601BB9B4F81A31A4F81C31FD
:10354000B4F81C1112F018FF3046002102F0AEF959
:103550005046012104F06EFA414B0093414B019318
:1035600002AB13E9060004F5D0701EF0CBFB284631
:1035700000211DF0CFFE2046FFF76CFC94ED077A8A
:10358000DFED397AF0EEC76AF4EEE76AF1EE10FA91
:1035900056D8D4ED087ADFED356AB0EEE76AB4EEBE
:1035A000E66AF1EE10FA4BD8DFED316A27EE267AA3
:1035B00067EEA67ABDEEC77A43F2880317EE102AAB
:1035C000FDEEE77AE25043F28C0317EE902AE250C8
:1035D00043F28803E35843B943F28C03E35823B919
:1035E000204604F54251FFF731FE38460621214AB4
:1035F00025F052F9D9F8400003684FF47A715B68FE
:10360000984794F94E100129204604D0022904D08D
:1036100019B10A2101E00A4600E00122FFF7ACFEE1
:10362000D4ED097AF5EEC07AF1EE10FA02DD20460B
:10363000FFF78EFE404602B0BDE8F04705F028BC1B
:10364000384605210C4A25F027F9C1E7082E00204D
:10365000181F0A08BE2800203D32010874600020AF
:10366000102E0020493201080000B442000034430B
:103670008096184B311F0A08401F0A0838B52DEDF7
:10368000028B044631F0D8FD43F2B803E358C01A68
:1036900007EE900AB8EE678ADFED1F7A28EE278AD8
:1036A000F1EE047AB4EEE78AF1EE10FA2DD504F5C6
:1036B000425318330FCB04F54255283585E80F00E7
:1036C00004F5435393ED000AD3ED010A284628EE92
:1036D000000A68EE200A05F067FD43F2AC0204F52B
:1036E0004353D3ED027A9FED0D7AA35827EE877AE4
:1036F00007EE903AF8EEE77AE7EE087AFDEEE77A21
:1037000017EE903AA350012200E00022BDEC028B9C
:1037100043F29403E25438BDBD3786350000C842F9
:1037200070B52DED028B43F294030446C35C002B6D
:1037300068D043F2900300F54256C35C3546022B35
:1037400005F1280514D043F2F003C35CDA070FD467
:103750003046294605F0A4FD07EE900A9FED2B7A2E
:10376000F8EEE77A04F5435367EE877AC3ED047AFF
:103770002946304605F06EFD04F5435383ED050AF6
:1037800094F82A10DFED226A04F543520129F0EE85
:10379000400A02F128020DD143F2AC0343F2840047
:1037A000E35820581B1A07EE903AF8EEE77AC7EE76
:1037B000A67A08E043F2CC03E35807EE903AB8EE5D
:1037C000E77AC7EE267A43F29003C2ED007AE35C13
:1037D000022B17D043F2F003E35C9B0712D404F5ED
:1037E000435518359FED0B8A21B904F5435494EDE8
:1037F000090A01E092ED000A84F0F8FE20EE080AC2
:1038000085ED000ABDEC028B70BD00BF0AD7233CDA
:103810000000C842E02E65422DE9F34143F2A007C3
:103820004B68C35143F2A4068B688351044643F2AC
:103830009C05CA689FED226A0A2092FBF0F2625151
:1038400043F2CC020B6993FBF0F3A350B1F91630AD
:1038500007EE103AB1F9183007EE903AB1F914308A
:1038600006EE903AB8EEC77AF8EEE77AF8EEE66A36
:1038700087EE067A04F54358C7EE867AC6EE866A66
:1038800088ED017AC8ED006AC8ED027A31F0D4FC07
:1038900043F2B803E05031F0D1FC43F2BC03022103
:1038A000E0502046FFF79CFD38B1CDF8008020465F
:1038B000E159A2596359FEF75FFE02B0BDE8F081FD
:1038C0000000C84210B52DED028B4B68DFED237A66
:1038D000044608EE103A94F8ED3428EE278A00F2F8
:1038E000C440242202FB0303F0EE480A93ED100AC1
:1038F00003F0C6FEB4EE400AF1EE10FAF0EE400A14
:1039000023D69FED177AF0EEC07AF4EE477AF1EE07
:1039100010FA1ADC04F543522C32D2ED007A04F589
:10392000435370EE277A243343F2F001C3ED007A5B
:10393000605C400709D5F1EE607AC2ED007A0022A2
:103940001A60635C6FF382036354B0EE480ABDEC07
:10395000028B2046BDE81040FEF7DEBD0000C842E5
:10396000FFFF7F7F30B5B1F9002007EE902AF8EE17
:10397000E77A00F54353C3ED047AB1F9022007EE6C
:10398000902AF8EEE77A00F54353C3ED067A00F586
:10399000435300225A61B1F9004043F2F00347F665
:1039A000FF75641BC25C18BF012464F30002C2549B
:1039B000B1F90220C15C521B18BF012262F3410120
:1039C000C15430BD70B543F2BC0506464359074C9F
:1039D0003BB131F033FC7359C01A41F2873398423E
:1039E00001D9002300E00123237170BD7460002021
:1039F00030B585B00446684605F086FA04F5B35044
:103A00000830694602F0AAFB48B143F2F7030022EE
:103A1000E2549DE80F0004F5425484E80F0005B01D
:103A200030BD000038B50446FFF728FE2046FFF7FA
:103A3000DFFF2046FFF774FED4ED097AF5EEC07A79
:103A4000F1EE10FA13DD31F0F9FBD4F89C3194ED6E
:103A5000097ADFED286AC01A07EE900A27EE267A67
:103A6000F8EE677AF4EEC77AF1EE10FA41D4224B01
:103A70001D68686C03685B6B9847012839D06B6CD4
:103A80001D79A5B994F94F30012B4FF04700294615
:103A900006D12CF097FA482029462CF093FA22E020
:103AA0002CF048FA482029462CF044FA1BE043F257
:103AB0009003E35C022B13D00A2B04D09BB9204661
:103AC000FFF702F80FE043F29403E35C1BB12046DA
:103AD000FEF78CFF07E043F2F603084AD35C13B10C
:103AE0002046FFF709F82CF0EDFBBDE838402CF03C
:103AF000C9B938BD00007A44082E0020102E0020DD
:103B00000C2303FB010000F58670704700F59870E8
:103B10007047000000207047012070470020704768
:103B20000020704700207047002070470020704739
:103B30000020704700207047002070470020704729
:103B40000020704700207047002070470020704719
:103B500000207047002070470368D3F8AC30184746
:103B600001207047002070470020704700207047F8
:103B700000207047002070470020704700207047E9
:103B80007047000000F506707047000000F5E07017
:103B90007047000000F5E0707047000000F5FE700F
:103BA0007047000090ED940A7047000090ED950A70
:103BB0007047000000F5377007C888B008AB03E90C
:103BC00007009DED050ADDED060A9DED071A08B018
:103BD000704700000023C0F80432C0F80032C0F87B
:103BE000FC31C0F81032C0F80C32C0F80832C0F80E
:103BF000143270477047000070B5036804465D6971
:103C000011F00AFC2B4690F821152046BDE87040C3
:103C10001847000008B511F0FFFB90F8210508BD1A
:103C200008B511F0F9FB90F8200508BD00F5CE703D
:103C300091ED000AD2ED000A93ED001A13F0F2BAEA
:103C4000002370B58B604B600B600C46164611F07C
:103C5000E3FB054690F82115224611F0BFF92846EE
:103C600095F8211511F0ECF986ED000A70BD000001
:103C700010B50C4604F018F890F82930242202FB05
:103C80000300D0ED127AF1EE677AC4ED007A10BD30
:103C900070B52DED028BD0F8A4328B60D0F8A8322D
:103CA000CB6082B00D46044603F0FEFF90F8293049
:103CB000D4ED567A9FED268A242202FB030090ED74
:103CC000127A2B78F8EEE77A03F0FE03E7EE087A33
:103CD0006FF382032B702846FDEEE77AC5ED017A7B
:103CE00094EDAB0AD4EDAC0A05F05EFA0AF07CFC68
:103CF00094F88C309B07064624D594F8B4320BB365
:103D000002AA002342F8043D90F8D41109F050FEB5
:103D100096F8D4319FED0F0A742000FB0360D0EDBC
:103D2000227AD0ED210A67EE887A2846FDEEE77AFE
:103D3000F8EEE77A27EE800ADDED017A60EEA70A59
:103D400005F066FA94F8B40202B0BDEC028B70BDC7
:103D50000000C8420AD7233C03F0FAB910B5044664
:103D600005F0EEFA204610BD10B5D0F8EC3204464E
:103D70005BB131F063FAD4F8EC32C01A41F2883307
:103D8000984294BF0020012010BD012010BD00000A
:103D90002DE9FF418B6806460C4633B9CB6823B941
:103DA0004B6813B94FF0000830E0204605F0B0FA38
:103DB0000028F7D094E80F008DE80F006846002136
:103DC00005F072F9804608B39DE80F0006F5AA7762
:103DD00087E80F0096F8643143F0010386F86431F8
:103DE000304603F031FB2AF049FB3B212AF0A2FECA
:103DF0002AF044FB3A212AF09DFE064BA1681B687D
:103E0000E268586C03681D696368A847404604B0BF
:103E1000BDE8F081082E002010B50446006808B9FE
:103E2000002010BD90F8401103F08AFB0028F7D065
:103E3000226892F84031882101FB032191F8480063
:103E400010F0010018D0142000FB0320D0ED027AFE
:103E5000F0EEE77AF5EEC07AF1EE10FA02DC91F8B6
:103E6000540048B1012BDBD8142101FB032393F943
:103E70001500003018BF012010BD000090F8AA22E4
:103E800090F8D43132B1742202FB030292F8692017
:103E9000012A05D8742202FB030393F869007047D6
:103EA0000120704738B50C460AF09EFB0546FFF727
:103EB000E5FF022881BF95F8D431742000FB035040
:103EC000943083BF07C884E807000120002038BD74
:103ED00010B5044600680368DB689847204610BDAB
:103EE00030B5164B1D680446686C036885B05B6886
:103EF000984708B3686C036801A95D6902AA03AB1F
:103F0000A847C8B1019A029B02B9ABB10399C4F8A2
:103F10005C21C4F86031002204F5AA7004F0FAFFB5
:103F200094F8643143F0030384F864312AF0A6FA6C
:103F30000621034A24F0B0FC05B030BD082E002055
:103F4000C4200A082DE9F0412DED028B86B004460D
:103F5000203002900F46FDF76BFB844B00251E6856
:103F6000C4F80452C4F80052C4F8FC51C4F8EC512F
:103F7000C4F8E851C4F8E451C4F8F851C4F8F45155
:103F8000C4F8F051C4F82052C4F81C52C4F81852B6
:103F9000706C03685B68984700285BD0706C03689E
:103FA00004F11001DE6904F1140204F11803B047B2
:103FB00000284FD031F042F942F20F73984249D8AD
:103FC000D4ED047A9FED6A1A9FED6A7AB8EEE70A9B
:103FD000D4ED057AF8EEE70AD4ED067AF8EEE77A42
:103FE00020EE010A60EE810A27EE811A20EE070A10
:103FF00060EE870A21EE071A84ED010AC4ED020A79
:1040000084ED031A04F5CE7013F00CF92AF036FA99
:1040100064232569626992FBF3F206210092A2698A
:1040200092FBF3F295FBF3F30192534A24F034FC34
:10403000D4F8F03213B92046FFF752FF31F0FEF802
:10404000C4F8F00202A8FFF743FF06B0BDEC028BF4
:10405000BDE8F081CFB194ED010AB4EE400AF1EE73
:1040600010FA12D6D4ED020AF4EE600AF1EE10FA5C
:104070000BD694ED031AB4EE411AF1EE10FA04D601
:1040800004F5CE7013F0CEF8D2E711F0C5F990F830
:1040900021350C2202FB030360330DEB02060746B9
:1040A00093E8070086E807004FF01508304615F042
:1040B0008DF9F2EE027AB4EEE70AF1EE10FA15D5B8
:1040C00008F1FF3818F0FF081AD0384610F0A8FAA7
:1040D000384610F037FB97F821350C2202FB0373AA
:1040E000603393E8070086E80700DFE7304615F005
:1040F0006DF9F2EE067AB4EEE70AF1EE10FADFDCC3
:10410000304615F063F9F1EE047AB4EEE70AF1EE09
:1041100010FA20DD9DED050ADDED047A9DED038AA0
:1041200020EE000AA7EEA70A84F06CFDF0EE400A2C
:10413000B0EE480A84F05AFADDED050A84ED020A71
:104140009DED040AF1EE600AB1EE400A84F04EFAE9
:1041500084ED010A01E06560A56004F5CE7094ED80
:10416000010AD4ED020A9FED051A8BE7082E002004
:104170000AD7233C35FA8E3CDB200A0800000000F9
:1041800070B5044631F05AF8D4F8F432C31AB3F5D6
:10419000A67F0DD9074BC4F8F4021B68586C03685E
:1041A0009D6904F11001AC460EC9BDE8704060473E
:1041B00070BD00BF082E00202DE9F0412DED028BCF
:1041C00000258CB0C0F82052C0F81C52C0F818521C
:1041D0000446B0EE408A00950195029511F01CF955
:1041E000002780463E4698F85030F9B28B4216D9E7
:1041F00008EB010393F840357BB1012E0DD8404602
:1042000009AA09950A950B9510F0B6FE28B101365A
:10421000684609A9F6B215F065F90137E3E7012E02
:1042200006D907EE906A6846B8EE670A15F02CF9D1
:10423000B5EEC08AF1EE10FA37DDB0EE480A6846F6
:1042400015F06AF904F5067584ED860AC4ED870A4F
:1042500084ED881A04F5FE71284615F043F92846C6
:1042600004F5F27115F078F904F5F87103A88DEDF5
:10427000030ACDED040A8DED051A15F06DF906A8B7
:104280008DED060AB0EE480ACDED070A8DED081A4D
:1042900015F052F904F5CE7009A98DED090ACDED9E
:1042A0000A0A8DED0B1A12F02FFF0CB0BDEC028B39
:1042B000BDE8F08170B5044608460E46154615F077
:1042C00085F8F7EE007A87EE800AB4F84C320133B5
:1042D000A4F84C32D4ED927A77EE807AC4ED927ADB
:1042E000F0EE007AB4EEE70AF1EE10FA06D5F6EE3B
:1042F000007AB4EEE70AF1EE10FA0DDCDFED0D7A8C
:10430000B4EEE70AF1EE10FA11D5DFED0B7AB4EE58
:10431000E70AF1EE10FA0ADD304615F00DF985EDE9
:10432000000AC5ED010A85ED021A012070BD0020CA
:1043300070BD00BF00247449BD37863570B52DEDC2
:10434000028B00F5CE7600F5D4758AB02946044676
:10435000304615F071F8B6EE008A20EE088A28463D
:10436000B0EE480A15F0E8F807A93046CDED080A86
:104370008DED091A8DED070A15F004F930468DED23
:10438000010AB0EE480ACDED020A8DED031A15F0D0
:10439000D3F8284607A98DED070ACDED080A8DED63
:1043A000091A15F0EFF801A804A98DED040ACDED66
:1043B000050A8DED061A15F023F8204601A93246AC
:1043C0008DED070ACDED080A8DED091AFFF772FF92
:1043D00060B1204604A92A46FFF76CFF30B12046A1
:1043E00007A904F5DA72FFF765FF38B930F026FF48
:1043F0000121C4F8EC022046FFF7A4FD0AB0BDEC91
:10440000028B70BD10B52DED028BD0F8942092F880
:104410005830F02101FB032182B001F59C71044664
:1044200000F5CE7013F0DEF968468DED000ACDED93
:10443000010A14F007FCDFED1E7AB4EEE70AF1EE94
:1044400010FA02D59FED1B0A2EE0684614F0FAFB25
:10445000684614F037FC684614F0A0FC0028F1D13F
:10446000D4F8940094EDA58A06F0E0FFF0EE400A3F
:10447000B0EE480A12F028FC88B9D4F8940006F08F
:10448000D5FF84EDA50AB0EE408A83F04FFE84ED9F
:10449000A60AB0EE480A83F023FF84EDA70A684617
:1044A00004F5267114F0F2FB02B0BDEC028B10BDD6
:1044B0000000003400000000DFED0B7AB4EEE70AE4
:1044C000F1EE10FA09D49FED097AB4EEC70AF1EEC5
:1044D00010FA05DC80EE270A7047B7EE000A704735
:1044E000B2EE040A704700BFF3665F3F58A00B416D
:1044F00008B590F880310C2202FB030090ED440ACD
:10450000D0ED437A20EE000AA7EEA70A84F07AFBEA
:10451000F1EE007AB4EEE70AF1EE10FA9FBFF1EE89
:10452000027A37EEC00ADFED047A20EE270A88BF50
:104530009FED020A08BD00BFCDCC4C3ECDCCCC3D9A
:1045400010B504460AF050F8FFF798FC012805D989
:1045500094F95400003018BF012010BD002010BD98
:10456000F8B52DED028B0546D0F8940018B106F091
:1045700051FF064608B9002460E095F88C309B078F
:1045800056D52846FFF7DCFF0446002850D00AF035
:104590002BF890F8D431742606FB030090ED217AB5
:1045A000F0EE087AB4EEE77AF1EE10FA46D4AF698D
:1045B0000AF01AF890F8D4319FED227A06FB030036
:1045C000D0ED227A67EE877AFDEEE77A17EE900A51
:1045D000381A12F0D9FBBDEEC00A41F2941210EE67
:1045E000103A002BB8BF5B42934223DD05F53770CC
:1045F00014F0ECFEB0EE408A09F0F6FF90F8D431EA
:104600009FED117A06FB0300D0ED217A67EE877AE1
:10461000B4EEE78AF1EE10FA0CD530F00FFED5F8C3
:10462000D842001BB0F5FA6F8CBF0024012405E0CE
:10463000344603E030F002FEC5F8D802BDEC028B30
:104640002046F8BD0000C842CDCC4C3F70B50446B2
:104650009C300D46FFF7E0FB064648B1D4F89C308D
:1046600093F84021882101FB02335B6B2B604EE005
:1046700094F88C301B074AD52046FFF761FFD4F829
:10468000D4322B600646002841D094F95530002BD7
:104690003DDD09F0A9FFFFF7F1FB012837D909F04B
:1046A000A3FF90F8D43195ED000A742202FB0300B9
:1046B000D4F89C3090ED217A33B393F840218821CF
:1046C00001FB0233D3ED117A94F9553001EE103A23
:1046D000B8EEC11A20EE270A77EE410A37EE011A2A
:1046E00012F0F2FBD4F89C303BB193F840218821C2
:1046F00001FB0233D3ED117A01E0F7EE007A80EE90
:10470000270A85ED000A02E0F7EE007ADCE7304682
:1047100070BD000010B50A4B1B685B6C1B7904462A
:104720005BB930F08BFDD4F8F032C01A44F61F6349
:1047300098428CBF0020012010BD002010BD00BF9A
:10474000082E002070B52DED068B044609F04CFFB5
:104750000546D4F8940020B104F038FE002840F05B
:104760003D812046FFF7FCFE70B3D4F8940090F82A
:104770005830F02202FB0303D3F84821D4F8A430C8
:104780009A423FD0D31A08EE103A94F88C30DFEDFD
:10479000957AC4F8A420B8EE488AD90728EE278A6B
:1047A00004D406F04DFD002840F0CB802046FFF7F2
:1047B00029FE95F8D4310C2202FB0355F0EE408A15
:1047C0006B6CC4F858326EE094F88C309A0719D5A7
:1047D0002046FFF7B5FEA8B195F8D4210C2303FBC2
:1047E0000253596CD4F8583299420BD0742606FB08
:1047F000025292ED217AF0EE087AB4EEE77AF1EE09
:1048000010FA09DABDEC068B04F5F8709FED760A14
:10481000BDE8704014F024BECB1AC4F8581208EE5C
:10482000103A95F8D431DFED717A9FED719A94EDDD
:10483000030AB8EE488A06FB035328EE278AD3ED15
:10484000227A27EE899ADFED6B7ABDEEC99AB8EE2F
:10485000C99A69EE277A9FED689A27EE899A39EE10
:10486000400A12F00BFBF0EE409A83F039FD94F809
:104870008C30DB07F0EE408A40F18C80F3EE047A56
:10488000B4EEE78AF1EE10FA00F3848095F8D431A3
:1048900006FB035595ED217AF2EE027AB4EEE77A43
:1048A000F1EE10FA6DDA04F5067094ED6F9A14F0DB
:1048B0008DFDDFED527A94ED117AB4EEE77AF1EEE8
:1048C00010FA48BFC4ED117A2046B0EE40AAFFF7B7
:1048D000F3FD28EE899AD4ED119A29EE000A2046BC
:1048E00060EE299AFFF704FE29EE800A204684ED47
:1048F0007E0AFFF70FFF38B1D4ED7E7AB2EE007A70
:1049000067EE877AC4ED7E7AF0EE007AB4EEE78A3D
:10491000F1EE10FA06D5DFED3A7AB4EEE7AAF1EE41
:1049200010FA50D4DFED377A94ED957AF0EEE88AFC
:1049300068EEA78ADFED347AE7EE278AC4ED958A20
:104940004CE0D4F8940004F5CE7690F85820314627
:1049500006F070FD3046B0EE401AD4ED020A94ED38
:10496000010A12F05FFC0023C4F8F831C4F8F431F6
:10497000C4F8F03194F88C3043F0010384F88C30A3
:1049800014E7DFED227AF0EEE99AF4EEE79AF1EE21
:1049900010FA88DB04F5CE7094ED010AD4ED020A1A
:1049A000DFED1B8AB0EE491A12F03CFC94F88C3013
:1049B000C4ED7E8A43F00103C4ED7D8AC4ED7C8A98
:1049C00084F88C306FE7D4ED667A29EE279AD4ED1F
:1049D000847AE9EE087AC4ED847AA3E7BDEC068B0D
:1049E00070BD00BFBD378635EC51783F6F12833AFA
:1049F0000000C8420AD7233C35FA8E3CCDCC4C3D52
:104A0000C2B8B23ECDCC4C3ECDCC4C3F1904863F13
:104A10000000000070B506468AB0684606F5CE7103
:104A200006F1E4026C4612F065FD0FCC06F5E07568
:104A30000FC50FCC0FC523682B6006F5E070311D44
:104A400006F1080206F10C0312F04CFC30460AB0E5
:104A5000BDE8704002F0CABC10B5044614F0D6FDA3
:104A600050B904F10C0014F0D1FD28B904F118007C
:104A7000BDE8104014F0CABD012010BD38B500F5E6
:104A8000CE7504462846FFF7E7FF28B120460121EE
:104A9000BDE83840FFF756BAD4ED6D7AB7EE007A2C
:104AA000F4EEC77AF1EE10FA06D5BFEE007AF4EE16
:104AB000C77AF1EE10FA12DC2046FFF73FFC2846D9
:104AC000FFF7CAFF0028E1D1D4ED6D7AB2EE047A87
:104AD000F0EEE77AF4EEC77AF1EE10FAD6DC38BDE4
:104AE00090ED007ADFED0F7AB0EEC77AB4EEE77A98
:104AF000F1EE10FA14D590ED017AB0EEC77AB4EE6B
:104B0000E77AF1EE10FA0BD590ED027AB0EEC77AA3
:104B1000B4EEE77AF1EE10FA4CBF012000207047A6
:104B2000002070470000003430B50C2303FB010166
:104B300001F50973154693E807008FB005AC84E8CA
:104B4000070095E8070083E807002046FFF7C8FF45
:104B500008AB28B195E807000BAC84E8070001E03A
:104B600094E8070083E807009DED080ADDED090AD7
:104B70009DED0A1A0FB030BD10B5044614F026FCA6
:104B80002046BDE8104014F07FBC00002DE9F04F36
:104B90002DED028BA7B000268246B0EE408A059626
:104BA00006960796FFF7CEFD10F036FC4FF0000892
:104BB000044694F851205FFA88F5954246D262196E
:104BC00092F84325002A3ED0294614AA204614967E
:104BD0001596169610F002FA2046294610F030FA83
:104BE000B5EEC00AF1EE10FA2DDD14A814F094FC15
:104BF0000C2045431DA90AF5CE708DED1D0ACDEDA3
:104C00001E0A8DED1F1A12F019FC0AEB05070AEBBC
:104C1000050087ED430AC7ED440A87ED451A00F504
:104C20008670B0EE480A14F087FC0AEB050707F51A
:104C3000177738461DA98DED1D0ACDED1E0A8DEDA5
:104C40001F1A14F04FFC08F10108B2E7022A69D1DB
:104C5000204600210FF0D2FC002863D0204601211D
:104C60000FF0CCFC00285DD09AF88021DFEDB87AF7
:104C70009AEDBA0A002AF7EE008A08BFF0EE687AC9
:104C8000F1EE480AB0EE481A37EEC00A12F01CF9ED
:104C9000DAEDBA7A30EE270A0AF586708AEDBA0A9A
:104CA00014F04AFC8DED140A9AEDBA0ACDED150AFE
:104CB00038EEC00A0AF58C708DED161A14F03CFC23
:104CC00014A81DA98DED1D0ACDED1E0A8DED1F1A2C
:104CD00014F042FC8AED4C0ACAED4D0A8AED4E1AD8
:104CE000DAEDA37A37EE888A8AEDA38A09F07CFC94
:104CF00005465046FFF724FC002800F0BE822846F7
:104D0000FFF7BCF8022840F2B88295F8D4119AF95E
:104D10005700742202FB015292F890708742C0F251
:104D2000AC820CE094F821250C2101FB02A202F5D3
:104D3000867207CA0AF5987585E80700D0E70C2047
:104D400000FB01514B6CDAF8901200938B4200F09B
:104D50001083943207CA05AF87E807009AF8A022AB
:104D60002AB997E807000AF5207E8EE8070001229D
:104D70000AF537718AF8A022384614F003FCDAF8F5
:104D800000208DED1D0ACDED1E0A8DED1F1AD26C8F
:104D9000504690471DA912F07FFBDFED6D7A8DED37
:104DA0001D0AB5EEC00AF1EE10FAD8BFB0EE670AE0
:104DB000CDED1E0A8DED1F1A8AEDB50A5046FFF79C
:104DC000BFFBB8B195F8D411742000FB0151CA6F34
:104DD000CAF8A42295F8D42100FB0252D2F8802010
:104DE000CAF8A8220122CAF8AC62CAF8B0628AF8EE
:104DF000B42211E09AEDA37ADAEDAB7ADDED056A23
:104E0000E6EE877ADDED066ACAEDAB7ADAEDAC7ACA
:104E1000E6EE877ACAEDAC7ADAF89022002A00F042
:104E20002282DAEDA37A4B4A0896F5EEC07AF1EECB
:104E300010FA09960A9240F29C82DFED478A9AF8AE
:104E40008C2067EEA88A02F00401F7EE007AC7EE24
:104E5000A88A01F0FF0089B39AF8A01221B902F0E4
:104E6000020202F0FF015AB30AF520719AED138A8B
:104E700005A814F087FB28EE888A8DED1D0A1DA871
:104E8000B0EE480ACDED1E0A8DED1F1A14F054FB4A
:104E900014A908A88DED140ACDED150A8DED161A8A
:104EA00014F020FB08A8FFF767FE08A814F0C8FB61
:104EB000002840F025820123019302E0019000E0E8
:104EC000019117AA20A942F80C6C42F8086C42F82C
:104ED000046C0C328A42F6D129A942F80C6C42F8D3
:104EE000086C42F8046C0C328A42F6D19FED188AA5
:104EF0004FF0000B4FF0FF0894F851205FFA8BF64B
:104F0000B24240F29180A21992F84325002A00F0A3
:104F100088804FF00C0909FB06F90AEB090202F53B
:104F200017721046B0EE680A029214F099FA26AB96
:104F300003EB0907019B029AC3B150463146FFF7C4
:104F4000F3FD07ED090A47ED080A07ED071A15E01A
:104F500000000000000080BF0AE81C41CDCC4C3F9F
:104F6000CDCC4C3DC2B8B23ECDCC4C3ED14409F57F
:104F7000177999E80700243F87E807004FF00C09EC
:104F800009FB06F91DAB03EB09073846FFF7A8FD3F
:104F9000002846D13846FFF7EFFD384614F050FBA5
:104FA00000283ED126AB03EB090CACF14802384691
:104FB00008A9CDF80CC0029214F022FA029ADDF88A
:104FC0000CC0384608A90CED120AC2ED010A82EDA8
:104FD000021A14F031FA26AB03EB860614AB03EB8E
:104FE000090006ED1B0A14F0F1F9B8F1FF0F04D027
:104FF000B4EEC80AF1EE10FA03D55FFA8BF8B0EE02
:10500000408A4FFA88F226AB03EB820252ED1B7AFC
:10501000F5EE407AF1EE10FAF7EE007A48BFB0EE06
:10502000678A0BF1010B67E74FFA88F6721C00F0F4
:1050300067818AF880815046FFF792FAF0B15046B6
:10504000FFF77EFA002800F050819AED130AF7EE80
:10505000000A11F039FE002800F047819AED010A9C
:10506000B0EEC00A83F03CF90C2226AB02FB0632FC
:1050700052ED107A27EE800A02ED100A94F82025EE
:1050800094F8501091420DD9224492F840254AB12B
:1050900094F8212594F85110914203D9224492F8B2
:1050A00043255AB90C2226AB02FB0632002142F8F6
:1050B000401C42F8441C42F8481C10E00C2171438B
:1050C00026AB03EB010814AB0AF5CE70194412F0BD
:1050D000E3F908ED120A48ED110A08ED101A0C2246
:1050E00014AB02FB0636304614F090FA002840F06C
:1050F0000481304614F0A4FA002840F0FE805FEDF1
:10510000667A9AED947A28EE278A5FED6C7AA7EE9C
:10511000278A0AF506708AED948A14F057F95FED34
:10512000707A9AED127AB4EEE77AF1EE10FAB0EEF8
:10513000408A01D5CAED127A5046B0EE480AFFF710
:10514000BBF9304614F0F8F911A88DED110A9AED6B
:10515000120ACDED120A8DED131A14F0EDF9504636
:105160008AED790ACAED7A0A8AED7B1AFFF7D2FA3C
:1051700028B10AF5F270B2EE000A14F071F99AF84B
:105180008C20930700F1C1805FED8A7AB4EEE78A44
:10519000F1EE10FA22D59AED650A304614F0CCF9FA
:1051A0000EA88DED0E0A9AEDA30ACDED0F0A8DED36
:1051B000101A14F0C1F90AF5027011A98DED110A47
:1051C000CDED120A8DED131A14F08CF9DAED857A13
:1051D0009AEDA37A77EE877ACAED857ADAED857A49
:1051E000B1EE047AF4EEC77AF1EE10FA4FF0000453
:1051F00031DB9AED428A9AED820A27EE888AF1EE37
:10520000488AF0EE680AB0EE481A11F05DFEF0EE42
:10521000680A8AED820AB0EE481A9AED830A11F004
:1052200053FEF0EE680A8AED830AB0EE481A9AED52
:10523000840A11F049FE0AF5FE708AED840A0AF527
:10524000027114F04FF9CAF81042CAF80C42CAF8B9
:105250000842CAF814420AF517700021242285F08A
:105260007BFFCAF88C4205AA07CA009BCAF8903295
:105270000AF5207383E807007BE09AEDA37A5FEDDF
:10528000C67AB4EEE77AF1EE10FA72D40AF19C0015
:10529000FEF7C2FD48B1DAF89C2092F84011882050
:1052A00000FB012292ED0D0A01E09AEDB50ADAF851
:1052B0009C01DAF8B421DAF8A8111D901DA81F92FC
:1052C0001E9114F039F90AF5377105A88DED050A1C
:1052D000CDED060A8DED071A14F004F92FF0AEFF9C
:1052E000002200908AF8A02268E50C2226AB02FB7F
:1052F0000632002142F8401CC0E65046FFF7BEFBD4
:105300002FF09CFFCAF8EC0233E02846FEF7B6FD0A
:1053100001287FF639AF95F8D421742101FB02559D
:1053200095ED217AF0EE087AB4EEE77AF1EE10FA14
:105330007FF52AAF94F821250C2101FB024494ED5E
:10534000187AF1EE0C7AB4EEE77AF1EE10FAFFF685
:105350001BAFDAF8142041F26E7102F6B7328A42BE
:105360003FF612AF0AF5F270B6EE000A14F078F8C4
:105370000AE727B0BDEC028BBDE8F08F30B52DED0C
:10538000028B044683B020300D460190FCF750F9A3
:10539000D4F8F03233B92FF051FFC4F8F0022046B0
:1053A000FEF79EFD1DB910F037F80FF0CBF910F0A5
:1053B00033F800F22C53D0ED177A93ED008AB4EE57
:1053C000E78AF1EE10FA58BFB0EE678ADFED1A7A7D
:1053D000B4EEE78AF1EE10FA09DD04F5177000214A
:1053E000242285F0B9FE0023C4F88C321DE0B0EE13
:1053F000480A2046FEF7E0FE2046FEF79FFFB0EE8B
:10540000480A2046FFF7C2FB2046FFF737FB20463D
:10541000FFF700FB204601F0A5FF23682046D3F8E4
:10542000D43098472046FEF7ABFE01A8FEF750FDAA
:1054300003B0BDEC028B30BDCDCC4C3E90ED940A58
:105440007047000090ED950A7047000070B5036842
:105450005D69DB68044698472B4601462046BDE857
:1054600070401847FFF7F2B870B58AB0044606A836
:105470000E4603F049FD0023009301930293236835
:1054800020469B6F6946984738B123682046D3F879
:10549000A43006A99847054608B9002516E006A8D5
:1054A00004F5AA7103F04CFEDDED007A37EEC00A78
:1054B000DDED017A86ED000A77EEE00ADDED027A95
:1054C000C6ED010A37EEC11A86ED021A28460AB067
:1054D00070BD000070B588B0044604A80E4603F005
:1054E00013FD00230093019323682046D3F88030F6
:1054F0006946984738B123682046D3F8A43004A9F8
:105500009847054608B9002510E004A804F5AA71DB
:1055100003F0F2FDDDED007A37EEC00ADDED017A31
:1055200086ED000A77EEE00AC6ED010A284608B0CB
:1055300070BD000010B5D0F8F802BDE8104016F0BC
:10554000BFBC00002DE9F0472DED028B92B003683F
:1055500000244FF07E59DB6CCDF818900994089424
:10556000079482460E4615469847014606A812F053
:1055700089FFDAF8940008B105F04CFF8046002757
:10558000DAF8F8029FED8E8A0278FBB29A424AD985
:105590000AAA79B2CDF828900D940C940B94039438
:1055A0000494059416F02EF806A80AA913F02CFB13
:1055B0000EA803A98DED0E0ACDED0F0A8DED101A80
:1055C000CDED111A13F044F99DED040ADDED037AD7
:1055D00020EE000AA7EEA70A11F0AAFBB4EEC80A53
:1055E000F1EE10FA0EDDDFED777A774B20EE270A29
:1055F0001B68BDEEC00A31468DED000A586C734B36
:105600002A46D4E0DDED057AB8F1000F09D09FED10
:10561000707AF0EEE77AF4EEC77AF1EE10FA00F362
:105620009A800137ACE70027DAF8FC020278CDF85F
:105630002890FBB29A420D940C940B94039404941A
:10564000059441D90AAA79B217F07AF806A80AA9EE
:1056500013F0DAFA0EA803A98DED0E0ACDED0F0AAC
:105660008DED101ACDED111A13F0F2F89DED040A2C
:10567000DDED037A20EE000AA7EEA70A11F058FB31
:10568000B4EEC80AF1EE10FA0EDDDFED4E7A4E4BA5
:1056900020EE270A1B68BDEEC00A31468DED000AD8
:1056A000586C4C4B2A4682E0DDED057AB8F1000FCC
:1056B00008D09FED477AF0EEE77AF4EEC77AF1EE84
:1056C00010FA57DC0137AFE7DAF8003050461B6DAF
:1056D000984701460AA812F0D5FE06A80AA913F0B9
:1056E00093FA0EA803A98DED0E0ACDED0F0A8DEDEC
:1056F000101ACDED111A13F0ABF89DED040ADDED93
:10570000037A20EE000AA7EEA70A11F011FBB4EE0F
:10571000C80AF1EE10FA0EDDDFED2A7A2A4B20EEF0
:10572000270A1B68BDEEC00A31468DED000A586C91
:10573000294B2A463BE0DDED057AB8F1000F08D091
:105740009FED237AF0EEE77AF4EEC77AF1EE10FAE5
:105750001FDC01202EE09FED1B7A1B4B67EE877A42
:105760001B68FDEEE77A3146CDED007A586C1B4B95
:105770002A461CE09FED137A134B67EE877A1B686D
:10578000FDEEE77A3146CDED007A586C144B2A468F
:105790000DE09FED0C7A0C4B67EE877A1B68FDEEEF
:1057A000E77A3146CDED007A586C0E4B2A460DF063
:1057B00081FF002012B0BDEC028BBDE8F08700BF76
:1057C000C2B8323EE02E6542082E002000210A08B1
:1057D000C2B8B23E27210A084E210A0874210A08DD
:1057E00094210A08B4210A0830B5044687B002A8FB
:1057F0000D4603F089FB23682046D3F8883001A9C1
:105800009847B8B123682046D3F8A43002A9984736
:1058100080B1D4F85821039B9DED017ADFED0D6A2C
:105820009B1A07EE903AF8EEE77AA7EEE67AF0EEEA
:10583000477A0AE002F038FA90F82930242202FB75
:105840000300D0ED127AF1EE677AC5ED007A07B069
:1058500030BD00BF0AD7233C7047000010B5044696
:1058600003F06EFD204610BD10B501600B680446C4
:105870009B6808469847204610BD000013B50446B3
:1058800004F1200101A8FFF7EFFF2046FEF7A2F97F
:10589000D4F8F80215F0AEFDD4F8FC0216F060FE64
:1058A00001A8FEF715FB02B010BD000037B5044695
:1058B0000D4601A804F12001FFF7D6FF2946204636
:1058C000FEF740FBE368C4F8303394F80033A26875
:1058D0006168C4F82813C4F82C232BB1D4F8F8025B
:1058E00015F02AFB84F8000394F801332BB1D4F8A7
:1058F000FC0216F0EDFB84F8010301A8FEF7E8FABC
:1059000003B030BDF7B504460F4616461D4604F1F8
:10591000200101A8FFF7A8FF394632462B46204652
:10592000FEF784F9E368C4F8303394F80033A268D2
:105930006168C4F82813C4F82C232BB1D4F8F802FA
:1059400015F0FAFA84F8000394F801332BB1D4F877
:10595000FC0216F0BDFB84F8010301A8FEF7B8FABB
:1059600003B0F0BD0022026042608260C26002614A
:1059700042618261C2610262704700002DE9F04F0E
:105980002DED028B1F46AA4B04468BB040F8203BFE
:10599000904689462FF054FB0023002684F84030BF
:1059A00004F1680004F1C00BFFF7DCFF04F1E4052B
:1059B000C4F8A860C4F8AC60C4F8B060C4F8B460BF
:1059C000C4F8B860C4F8BC605846FFF7CBFF28465F
:1059D000FFF7C8FF04F58C7304F59E7243F80C6C56
:1059E00043F8086C43F8046C0C3393429FED918AA2
:1059F000F4D184ED4C8A84ED4D8A84ED4E8A84ED99
:105A00004F8A84ED508A84ED518A84ED528A84ED68
:105A1000538A84ED548A04F5AA7003F075FA4FF0A6
:105A20007E5A854B8549C4F868A12046C4F86CA10C
:105A3000C4F870A11C601BF047F80FF0EDFC804B20
:105A4000C4F8083194F88C3043F0040384F88C30A7
:105A500004F1A80207CA04F1B40383E80700B0EE1A
:105A6000481A94ED2D0AD4ED2E0A584611F0DAFBAF
:105A70006846594611F0B0FDEE46BEE80F000FC56E
:105A8000BEE80F000FC5DEF800302B606D4B2360C1
:105A900004F5CE70FFF766FF04F5E070FFF762FFD4
:105AA00084ED798A84ED7A8A84ED7B8A84ED7C8A20
:105AB00084ED7D8A84ED7E8A84ED7F8A84ED808A00
:105AC00084ED818A84ED828A84ED838A84ED848AE0
:105AD00084ED868A84ED878A84ED888A04F50C73C8
