:020000040800F2
:1000000000040020E1010008B90C0008B90C000848
:10001000B90C0008B90C0008B90C0008B90C0008AC
:10002000B90C0008B90C0008B90C0008ED2A00084A
:10003000B90C0008B90C0008B90C0008B90C00088C
:10004000B90C0008B90C0008B90C0008B90C00087C
:10005000B90C0008B90C0008B90C0008B90C00086C
:10006000B90C0008B90C0008B90C0008B90C00085C
:10007000B90C0008B90C0008B90C0008B90C00084C
:10008000B90C0008B90C0008B90C0008B90C00083C
:10009000B90C0008B90C0008B90C0008B90C00082C
:1000A000B90C0008B90C0008B90C0008B90C00081C
:1000B00005240008B90C0008B90C0008B90C0008A8
:1000C000B90C0008B90C0008B90C0008B90C0008FC
:1000D000B90C0008B90C0008B90C0008B90C0008EC
:1000E000B90C0008B90C0008B90C0008B90C0008DC
:1000F000B90C0008B90C0008B90C0008B90C0008CC
:10010000B90C0008B90C0008B90C0008B90C0008BB
:10011000B90C0008B90C0008B90C0008B90C0008AB
:10012000B90C0008B90C0008B90C0008B90C00089B
:10013000B90C0008B90C0008B90C0008B90C00088B
:10014000B90C0008B90C0008B90C0008A52100087A
:10015000B90C0008B90C0008B90C0008B90C00086B
:10016000B90C0008B90C0008B90C0008B90C00085B
:10017000B90C0008B90C0008B90C0008B90C00084B
:10018000B90C0008B90C0008B90C0008B90C00083B
:10019000B90C0008B90C0008B90C0008B90C00082B
:1001A000B90C0008B90C0008B90C0008B90C00081B
:1001B000B90C0008B90C0008B90C0008B90C00080B
:1001C000B90C0008B90C0008B90C0008B90C0008FB
:1001D000B90C0008B90C0008B90C0008B90C0008EB
:1001E00072B6374880F3098836484EF60851CEF289
:1001F0000001086040F20000CCF200004EF63471BD
:10020000CEF200010860BFF34F8FBFF36F8F40F253
:100210000000C0F2F0004EF68851CEF200010860F6
:10022000BFF34F8FBFF36F8F4FF00000E1EE100A66
:100230004EF63C71CEF200010860062080F314886F
:10024000BFF36F8F00F01AFD02F01CF94FF055302C
:100250001D491E4A91423CBF41F8040BFAE71C4974
:10026000174A91423CBF41F8040BFAE719491A4A70
:100270001A4B9A423EBF51F8040B42F8040BF8E7C0
:1002800000201749174A91423CBF41F8040BFAE796
:1002900000F0F8FC02F0F8F8134C144DAC4203DA0D
:1002A00054F8041B8847F9E700F03EF8104C114D54
:1002B000AC4203DA54F8041B8847F9E700F0E0BCCD
:1002C00000080020000000080000002000040020BA
:1002D00000040020A03500080008002028080020A5
:1002E00028080020301A0020E0010008E001000882
:1002F000E0010008E00100082DE9F04F2DED108A23
:10030000C1F80CD0C3689D46BDEC108ABDE8F08FE3
:10031000002383F311882846A047002000F0D0FE78
:1003200000F06AFE00DFFEE738B5174B7F2200249D
:100330001A700F225C709C70DC701C715C719C7177
:10034000DC711C725C729A72DC7202F0F1FA0F4B73
:10035000984217D00133984241F2883412BF0025E9
:1003600000240125002002F0E9FA0DB100F052F856
:1003700000F058FC00F022FB204600F091F800F05D
:1003800049F8F9E72546EDE728080020010007B005
:1003900008B500F0B5FAA0F120035842584108BD55
:1003A00007B5054B02211B88ADF8043001A800F009
:1003B000F5FA03B05DF804FB6432000810B511488B
:1003C000C3680BB100F044FD0F4C104A0D480023E8
:1003D0004FF47A7100F000FD236813B12368013BEC
:1003E0002360636813B16368013B6360084B1B784B
:1003F00033B9636823B9022000F0C6FB322363607F
:1004000010BD00BF340800204C0D0020BD030008C3
:100410004808002038B51B4C2368013330D01A4DF2
:100420001A4B2A689A422BD9194B9B6803F1006337
:1004300003F580339A4223D2002000F0D9FA154BFD
:100440000220187000F092FB134B1A6C00221A6401
:10045000596C5A64596941F0800159615A611969AE
:1004600041F0005119611A6172B60C4B1C6023688F
:100470002A68202181F311889D4683F3088810475C
:1004800038BD00BF0000010804000108FFFF00089C
:1004900028080020480800200038024008ED00E04D
:1004A0002DE9F04FB34B8246B3489C680022C260EE
:1004B0008FB0202282F31188C26800930AB100F045
:1004C000C7FC0023AD4AAC484FF47A7100F084FCBD
:1004D000002383F31188DFF8C0B2BAF1000F01D016
:1004E000CBF800A0A64FCBF8043000253B702E4679
:1004F0004FF0FF38012000F039FBBAF1000F00F097
:10050000C181DBF80030002B40F0BC810FB0BDE8AA
:10051000F08F0220FFF73CFF002840F0AF81994B9D
:100520001B88ADF82430022109A800F037FAE1E772
:100530004FF47A7000F0E4F9031E0193EFDB022020
:10054000FFF726FF81460028E9D0019B581E0428AA
:10055000E5D8DFE800F00310131619000EA80523F4
:1005600040F8143D042100F019FA4D4600F050FB0C
:10057000FFF716FF7FE104217E48F4E7042182485B
:10058000F1E704218148EEE71C25284600F032FA05
:1005900004350990042109A800F000FA2C2DF4D1AB
:1005A000E3E7002EBBD0002DB9D00220FFF7F0FE0C
:1005B000064610B901252E46B1E7012000F018FAD1
:1005C0000220387000F0D2FA00255FFA85F948461B
:1005D00000F026FA0135044618B1484600F030FA1A
:1005E000F3E7012302203B7000F0B2FA009B9B6806
:1005F0009C4207D2204600F0FDF9013040F04081D6
:100600000434F3E700243C70CBF804403546ADE7F2
:10061000002E84D0002D82D00220387000F0A6FA7F
:10062000322000F06DF9051EC4DB15F00306C1D1C0
:10063000009A926863199342BCD8B5F5807FB9D807
:10064000DFF84C91AE420CDA4FF47A7000F058F9B2
:100650000390039B002BADDB039B06F809300136AA
:10066000F0E7C820FFF794FE06460028A2D02CB978
:10067000474B4FF0FF32D3F800801A60444B25F00F
:1006800003052544A3EB0409AC42BFD059F804107C
:10069000204600F0B5F9204600F0ACF959F80430D6
:1006A000984240F0ED800434EEE70220FFF770FE40
:1006B00000283FF434AF4FF0000AD146009B9B68FE
:1006C0009A4537D2BAF1000F17D1B8F1FF3F14D0D5
:1006D000CDF824802F494B68A3B1002209A8135CF0
:1006E00083EA0903DBB2013251F82330042A83EA9A
:1006F0001929F4D10AF1040AE0E7504600F07AF92A
:100700000990E7E71A46082012F0010F4FEA52025B
:100710001FBF82F06D4282F4380282F4034282F0FD
:1007200020020138F0D141F823200133B3F5807F56
:10073000E8D1D2E70EA8042140F8289D00F02EF958
:1007400014E70EA8002340F8143D642100F002F9DC
:1007500000287FF4E4AE0220FFF71AFE00283FF4E1
:10076000DEAE099800F07EF90EAB43F8240D0421AB
:100770001846E3E72808002034080020BD030008DD
:1007800048080020663200082C08002030080020AD
:100790004C0800204C0900204C0D00200EA800231E
:1007A00040F8143D642100F0D5F800287FF4B7AE7E
:1007B0000220FFF7EDFD00283FF4B1AE099800F0EC
:1007C0005FF90EAB43F8200DD1E70220FFF7E0FD03
:1007D00000283FF4A4AE00F059F90EAB43F81C0D0D
:1007E000C5E70220FFF7D4FD00283FF498AE09A921
:1007F000142000F051F981460EA8042140F8189DFC
:1008000000F0CCF8494609A898E74FF47A70FFF752
:10081000BFFD00283FF483AEB8F1FF3F05D1FFF7DD
:10082000BFFD354800F052FC70E64146002000F064
:10083000E7F8002000F0DEF88045F0D02F4B6FE69F
:100840000EA8002340F8143D642100F083F800282E
:100850007FF465AE0220FFF79BFD00283FF45FAEFA
:10086000FFF79EFD41F2883000F030FC099800F05F
:1008700003FA00F0CDF94FF0000A3BE6064675E6B4
:100880003546DBE7002000F03BF80390039B002B8C
:10089000FFF633AE012000F05BF9039B213B122BE6
:1008A0003FF628AE01A252F823F000BF130500085E
:1008B00031050008A3050008F5040008F504000848
:1008C000F504000811060008F5040008AB0600084E
:1008D000430700089D070008CB070008F50400083F
:1008E000E3070008F50400080B0800086D05000880
:1008F000F504000841080008A086010068320008DD
:1009000037B5114A12780132D2B20024012A0346C7
:100910008DF8074011D80D480268D5694FF47A72F6
:1009200053430DF107010122A847012805D1084BC7
:100930009DF807001C7003B030BD4FF4FA7000F052
:10094000C5FB4FF0FF30F6E700080020D81000206C
:10095000580D002038B50E4B1A780132D2B2012A58
:1009600005460ED80B480368DC694FF47A734B4395
:1009700004222946A047042803D1074B0020187001
:1009800038BD4FF4FA7000F0A1FB4FF0FF3038BDD6
:1009900000080020D8100020580D002030B4054C6D
:1009A00023689D69044B0A46AC460146204630BC8C
:1009B000604700BFD8100020A086010070B501F08C
:1009C000F3FE094C094E20700025306823788342DD
:1009D00008D901F0E3FE336805440133B5F5803FE3
:1009E0003360F2D370BD00BF590D0020540D0020BC
:1009F00001F08ABF00F1006000F5803000687047A8
:100A000007B502AB00F1006043F8041D042219464B
:100A100000F5803001F006FF03B05DF804FB000034
:100A2000054B1A68054B1B781344834202D91044C6
:100A300001F0B4BE00207047540D0020590D002075
:100A400038B5074D04462868204401F0AFFE28B9A8
:100A500028682044BDE8384001F0C0BE38BD00BF62
:100A6000540D002010F0030308D1B0F5007F05D825
:100A700000F10050A0F50840006870470020704762
:100A8000014BC058704700BF107AFF1F014B186818
:100A9000704700BF002004E070B52A4B1C68C4F307
:100AA0000B03240C63B140F21342934231D040F265
:100AB000194293422FD040F2214293422DD1032379
:100AC000214A0C2505FB03235D6893F9082042F2B7
:100AD00001039C4224D0B4F5805F23D041F201038E
:100AE0009C4221D041F203039C421FD041F20703F4
:100AF0009C4208BF3122441E0C44013D0B46A342D8
:100B00001ED215F9016F581C96B1034600F8016C0E
:100B1000F5E70123D4E70223D2E73F220B4DD6E7C6
:100B20003322E3E74122E1E75A22E4E75922E2E7F0
:100B30002C2584421D7001D9981C5A70401A70BD32
:100B40001846FBE7002004E0783200086C32000809
:100B5000022804D14FF08042034B9A61704701286C
:100B6000FCD14FF00052F7E700000240022804D108
:100B70004FF48042034B9A6170470128FCD14FF437
:100B80000052F7E700000240022805D1064A5369E7
:100B900083F48043536170470128FCD1024A5369B2
:100BA00083F40053F6E700BF0000024010B50023B5
:100BB000934203D0CC5CC4540133F9E710BD00006C
:100BC00030B5441E14F9010F0B4660B193F9005083
:100BD000854201F1010106D11AB993F90020801A6A
:100BE00030BD013AEEE7002AF7D1104630BD0000D3
:100BF00002460346981A13F9011B0029FAD17047DF
:100C000002440346934202D003F8011BFAE77047FF
:100C1000024B1A78024B1A70704700BF580D002023
:100C20000008002038B5104D104C284600F010FB8D
:100C30002146284600F038FB23680D485A6DD2F84B
:100C4000043843F00203C2F8043800F03FFA0949BF
:100C5000206800F041FC23685A6DD2F8043823F074
:100C60000203C2F8043838BDD810002074340008DC
:100C700040420F00C8340008704700007047000071
:100C8000FEE70000084A094B09498B4204D3094A90
:100C90000021934205D3704752F8040F43F8040B28
:100CA000F3E743F8041BF4E7C4350008301A0020CA
:100CB000301A0020301A00201EF0040F0CBFEFF392
:100CC0000880EFF309808169004A1047D50C0008BD
:100CD00070470000204B02681A60204B42681A607F
:100CE0001F4B82681A601F4BC2681A601E4B026954
:100CF0001A601E4B42691A601D4B82691A601D4BB7
:100D0000C2691A601C4B1D491A681D4B1A601A688B
:100D1000120A0A701A681B4B1A701B4B1A681B4B7D
:100D20001A601B4B1A681B4B1A601B4B1A681B4B33
:100D30001A601B4B1A681B4B1A601B4B1A681B4B23
:100D40001A601B4B5A6A1B4B1A601B4B1B68DB0754
:100D500001D500BEFEE7FEE78C0D0020900D0020BF
:100D6000980D00209C0D0020940D0020800D002087
:100D7000840D0020880D002028ED00E0640D002087
:100D8000680D0020780D00202CED00E0700D002093
:100D900030ED00E06C0D00203CED00E05C0D00202B
:100DA00034ED00E0740D002038ED00E0600D00200F
:100DB00000ED00E07C0D0020F0ED00E0054B03F1BC
:100DC00014025A619A614FF0FF32DA6100221A620E
:100DD000704700BFA00D0020F8B503614FF08043BD
:100DE000C2605C6A194B1A46022952F8145F38BF78
:100DF0000221954206461F460AD1586198611C623D
:100E00000560456081600819BDE8F84000F042BB0C
:100E1000186AAB68241A0C1902D3E41A2D6804E08E
:100E20009C4202D2204400F043FBAB689C42F4D8C1
:100E30006B68736035601E606E60B460A9684FF0C7
:100E4000FF33091BA960FB61F8BD00BFA00D0020A6
:100E500010B41B4C234653F8141F814210D0416834
:100E600002680A60026851609A424FF00001C16056
:100E700003D0936881680B4493605DF8044B70471E
:100E80000A68626100209A425360C86003D15DF82D
:100E9000044B00F007BB93688868034493604FF0ED
:100EA0008042506A226A821A9342E6D99B1A022B28
:100EB0002CBFC01802305DF8044B00F0F9BA00BF37
:100EC000A00D0020024B00221B605B609A607047FF
:100ED000A00D0020002303748268054B1B689968ED
:100EE0009142FBD25A6803604260106058607047BC
:100EF000A00D002008B5202383F31188037C032B69
:100F000005D0042B0DD02BB983F3118808BD43699C
:100F100000221A604FF0FF334361FFF7DBFF00232D
:100F2000F2E790E80C001A6002685360F2E70000F4
:100F3000002303748268054B1B6899689142FBD8B3
:100F40005A6803604260106058607047A00D00202E
:100F5000054B19690874186802681A6053601861B3
:100F600001230374FFF7C8B9A00D002030B54B1C56
:100F700087B005460A4C10D023690A4A01A8FFF73A
:100F80002BFF2846FFF7E4FF049B13B101A8FFF7EE
:100F90005FFF2369586907B030BDFFF7D9FFF8E755
:100FA000A00D0020F50E000838B50C4D41612B69ED
:100FB00081689A689142044603D8BDE83840FFF73B
:100FC00089BF1846FFF786FF01232C610146237471
:100FD0002046BDE83840FFF78FB900BFA00D0020C4
:100FE000044B1A681B6990689B68984294BF002064
:100FF00001207047A00D002010B5084C236820691F
:101000001A6822605460012223611A74FFF790FF6E
:1010100001462069BDE81040FFF76EB9A00D002021
:1010200008B5FFF7DDFF18B1BDE80840FFF7E4BFE2
:1010300008BD0000826002220274002242748261B4
:10104000704700008368A3F1840243F8142C0269FE
:1010500043F8442C426943F8402C084A43F8242CB6
:10106000C26843F8182C022203F8102C002203F85F
:101070000F2C43F8082CA3F120007047110300083F
:1010800008B5FFF7DFFFBDE80840FFF723BF00000A
:1010900010B5202383F31188FFF7D4FF0021044605
:1010A000FFF782FF002383F31188204610BD000064
:1010B000024B1B6958610F20FFF74ABFA00D0020AB
:1010C000202383F31188FFF7F3BF000008B5014622
:1010D000202383F311880820FFF748FF002383F3C0
:1010E000118808BD10B5054C2369036058610320C1
:1010F000FFF72EFF2369586910BD00BFA00D002027
:1011000003682BB10022026059611846FFF7E2BE66
:101110007047000049B1064B42681B6918605A606D
:10112000136043600420FFF721BF4FF0FF3070478A
:10113000A00D00200368984206D01A680260506033
:1011400059611846FFF7C6BE7047000038B504461F
:101150000D462068844200D138BD036823605C607E
:101160004561FFF7B7FEF4E713B5446BD4F88C3450
:101170001A681178042916D1217A022913D1197914
:10118000128901238B4013420DD101A904F14400BF
:1011900001F008FE024630B1D4F88C44019B21795D
:1011A000206800F0E5F902B010BD00000C3001F03D
:1011B00077BD00004FF0FF330C3001F071BD00002F
:1011C000443001F05BBE00004FF0FF33443001F0CB
:1011D00055BE00000C3001F045BD00004FF0FF315E
:1011E0000C3001F03FBD0000443001F027BE00008C
:1011F0004FF0FF32443001F021BE0000D0F88C24C3
:1012000038B5136819780429054601D0012038BD86
:10121000017A0229FAD112795C89012090400440B8
:10122000F4D105F10C0001F0D7FC02460028EDD006
:10123000D5F88C544FF480732868697900F086F9EA
:10124000204638BD406BFFF7D9BF00007047000053
:101250007FB50346114A43F8042B0125436002265B
:101260000F4B057204460290019300F17C0229465F
:1012700000964FF480730C3001F08AFC094B019307
:10128000029400964FF4807304F52172294604F10C
:10129000440001F063FD04B070BD00BFC832000817
:1012A00045120008691100080B68202282F311889A
:1012B0000A7903EB820290614A79093243F82200ED
:1012C0008A7912B103EB8203986102230372C0F89A
:1012D0008C14002383F311887047000038B504464E
:1012E00001250221043001F0DDFB04F10C0025751D
:1012F0006FF00101FFF72AFF84F84C5004F144001D
:101300006FF00101BDE83840FFF720BF10B50121A3
:101310000446043001F0C6FB0023237584F84C30EA
:1013200010BD000038B5044600250C3001F048FC23
:1013300004F14400257501F029FD201D84F84C506E
:10134000012101F0AFFB2046BDE83840FFF756BF52
:1013500090F8443003F06003202B19D190F8452019
:10136000212A0AD0222A4FF000030ED0202A0FD1C2
:10137000084A82630722C26304E0064B83630723A3
:10138000C36300230364012070478363C363F9E7E9
:101390000020704701080020D0F88C3437B51A6857
:1013A0001178042904461AD1017A022917D1197932
:1013B000128901238B40134211D100F144052846C4
:1013C00001F0BAFD58B101A9284601F0EBFCD4F8B0
:1013D0008C44019B21790246206800F0C9F803B0D3
:1013E00030BD000000EB8103F7B59C6905460E4651
:1013F000F4B1202383F3118805EB8607201D082113
:1014000001F050FBFB685B691B68443413B1204654
:1014100001F0D6FC01A9204601F0C4FC024648B107
:10142000019B3146284600F0A3F8002383F311887E
:1014300003B0F0BDFB685A691268002AF5D01B8A18
:10144000013B1340F1D105F14402EAE7093110B53F
:1014500050F82140CCB1202383F311880421601877
:1014600001F020FBD4F88C241368527903EB82033B
:1014700004F10C00DB689B69596801F0B7FB20465A
:10148000FFF7BCFE002383F3118810BD70470000F6
:1014900000F0CCBF4FF08043002258631A61022253
:1014A000DA6070474FF080430022DA607047000036
:1014B0004FF080435863704700F09CBB01230370DA
:1014C00000234360C36183620362C36243620363B8
:1014D000038143817047000038B50446202383F31D
:1014E000118800254160C56005614561856100F096
:1014F00093FB0223237085F3118838BD70B500EB90
:10150000810305465069DA600E46144618B1102270
:101510000021FFF775FBA06918B110220021FFF729
:101520006FFB31462846BDE8704000F04DBC00001E
:10153000028902F001020281428902F00102428125
:10154000002202614261826100F0D2BCF0B400EB83
:1015500081044789E4680125A4698D403D434581A4
:1015600023600023A2606360F0BC00F0EDBC0000CB
:10157000F0B400EB81040789E468012564698D40BB
:101580003D43058123600023A2606360F0BC00F04E
:101590006BBD000070B50223002504460370A0F85F
:1015A0004C5080F84E5080F84F5005814581C56001
:1015B00005614561856180F8345000F0A3FB6368E4
:1015C0001B6823B129462046BDE87040184770BD0E
:1015D000436802781B6880F85020052202700BB126
:1015E0000421184770470000436890F850201B689A
:1015F00002700BB1052118477047000070B5002339
:10160000044680F8343000F1440200F093FC636833
:101610009B685BBB94F8445015F0600614D194F8B5
:10162000453005F07F0545EA0325B5F5407F00F01C
:10163000A58059D8022D00F0F1803FD8002D00F090
:101640008780012D00F0E4800021204600F0BCFEE0
:101650000021204600F0AEFE63681B6813B106212E
:1016600020469847062384F8343070BD20469847BA
:101670000028CFD094F84B2094F84A3043EA022354
:10168000E26B934238BFE36394F94430E56B002B7F
:101690004FF0200380F20181002D00F0F080012244
:1016A00084F8342083F311880021E36BA26B204679
:1016B000FFF75EFF002383F3118870BDB5F5807FCF
:1016C0004DD0B5F5817FBFD194F84630002BBBD10A
:1016D00094F8483013F00F0126D01A06204640F146
:1016E000B78000F085FE1FE0B5F5C06F50D020D860
:1016F00040F202339D4200F0AE80B5F5A06FA3D159
:10170000B4F84430B3F5A06F0ED194F8463084F8A5
:101710004E30204600F04CFB63681B6813B101217A
:1017200020469847032323700023A363E3632364C5
:10173000A0E7B5F5106F41D040F602439D4267D057
:10174000B5F5006F80D104F14F03A363012333E0AB
:1017500004F14C03A3630223E36325648AE794F84E
:101760004630012B7FF470AFB4F84C3023F0020305
:10177000A4F84C30A663E66326647BE794F8463011
:10178000012B7FF461AFB4F84C3043F00203EFE774
:1017900094F84920616894F848304D6894F84710EF
:1017A00043EA0223204694F84620A84700283FF445
:1017B0004BAF4368A3630368E363DDE794F84F200E
:1017C00094F846309A42AFD02378042B10D12023CE
:1017D00083F311882046FFF7ABFE86F31188636818
:1017E00084F84F601B68032121700BB12046984795
:1017F00094F84630002B97D084F84F3004232370A0
:1018000063681B68002B8FD00221204698478BE726
:101810002E4BA3630223E363002388E794F8481068
:1018200011F0800F204601F00F010ED000F074FB84
:10183000012806D002287FF407AF254BA363E0639D
:101840009AE7244BA363E56396E700F057FBEFE7C5
:1018500000F0C4FD68E794F84630002B7FF4F4AE46
:1018600094F8483013F00F013FF45EAF1B0620469A
:1018700002D500F0A9FD57E700F09CFD54E70322D4
:1018800084F8342083F311882B462A4629462046C3
:10189000FFF75CFE85F3118870BD5DB1042284F80A
:1018A000342083F311880021E36BA26B2046FFF7FD
:1018B0004DFEFFE6052284F8342083F311882B4681
:1018C0002A4629462046FFF753FEE3E7F032000898
:1018D000E8320008EC32000838B590F8343004469D
:1018E000062B22D8DFE803F03704223737323700DF
:1018F00090F84B1090F84A20C36B42EA01229A42BA
:1019000014D9C268128AB3FBF2F502FB15356DB922
:10191000202383F311882B462A462946FFF728FE09
:1019200085F31188022384F8343038BD032384F80A
:101930003430202383F3118800231A4619462046A9
:10194000FFF704FE002383F3118838BD036C03B155
:1019500098470023E7E7002100F036FD00212046EC
:1019600000F028FD63681B6813B1062120469847E4
:101970000623D8E790F83420062A38B5044621D843
:101980000123934013F0670F1DD113F008050FD109
:10199000DB0617D5052380F83430202383F3118824
:1019A0002B462A462946FFF7E3FD85F3118838BD0B
:1019B000C3689B695B682BB9036C03B1984700232C
:1019C00084F8343038BD002100F0FEFC00212046B0
:1019D00000F0F0FC63681B6813B1062120469847AD
:1019E0000623EDE7836D30B500229D68446D1146F6
:1019F0004FF0FF3004EB421301329542C3F8001957
:101A0000C3F81019C3F80809C3F8001BC3F8101B6A
:101A1000C3F8080BEED24FF00113C4F81C3830BDE8
:101A2000890141F02001016103699B06FCD4122069
:101A300001F01AB82DE9F04F202387B00446456D18
:101A400083F3118800F1640305934FF0000B2378B2
:101A5000012B04D0236E4BB96B69DB0606D4AB694E
:101A6000059843F01003AB61FFF73CFB8BF3118843
:101A70004FF0000E4FF02009A36D9B685FFA8EF0C7
:101A800083421BD2202383F31188E0E7616D0A6A49
:101A900002F4F013B3F5802F66D0B3F5402F0DD1CB
:101AA000C2F30A1602F00F0204EB820201F5805124
:101AB000D3681F6A00231A469E4248D1696911F013
:101AC0001001E3D1012303FA00F2236E1A4200F061
:101AD0008C8089F31188AB6823F00103AB60236E1F
:101AE00023EA0203236681F3118804EB8003D3F811
:101AF0000C80D8F814100B680093431C1B0302934E
:101B0000430104934868009B98425FD2B8F8106084
:101B1000676D1B1AB34228BF3346049EBE19D6F820
:101B20001869B6B2B3EB860F62D8029EBE1903964F
:101B30008E680196A6F1040A9C46039E5AF8047F1B
:101B40003760BCF1040F3BD9ACF1040CF5E713F09E
:101B5000030F08BF0A68072B98BF3A7003F101030F
:101B60009CBF120A0137A7E7C2F30A1602F00F0260
:101B700004EB820201F58051D3689B691F68D3F89A
:101B800008805B68A7EB030C00231F469E4208D128
:101B9000D36899698A684B68324433448A604B60E1
:101BA0008CE713F0030F08BF0F689C4588BF88F8C7
:101BB000007003F1010384BF3F0A08F10108E5E763
:101BC000019E1E4403448E604B609BE7012189F314
:101BD0001188AB6843F00103AB6021B9D5F8343804
:101BE0001A43C5F834288BF311880EF1010E43E730
:101BF0000021ECE710B5064C2046FFF75FFC4FF0E4
:101C0000A04200236265034A6366A265A36610BD15
:101C1000E80D00201833000870B50378012B86B05A
:101C200005465BD12F4B446D984213D12E4B5A6B16
:101C300042F080025A635A6942F080025A610022DF
:101C40005A610E21432001F097F9284BE360284B9D
:101C5000C4F8003800232B66C4F8003EC02323607C
:101C60004FF40413A3636E6D202000F0FDFE0123EA
:101C700033613369DB07FCD4122000F0F5FE3369D1
:101C8000002BFCDA0026A6602846FFF7ABFE6B6847
:101C9000C4F81068DB68C4F81468C4F81C68FBB9A1
:101CA000144BA3614FF0FF336361AB6E93B9124BDA
:101CB000009305F17003019305F536730293022337
:101CC000039368460D4B04930595FFF7D9F9A86671
:101CD000FFF7A6F9A36843F00103A36006B070BD47
:101CE000074BDEE7E80D00200038024040140040BA
:101CF00003002002003C30C024330008351A0008DD
:101D0000083C30C0F8B5446D054600212046FFF779
:101D100087FEA96D00234FF001128F68C4F8343894
:101D20004FF00066C4F81C284FF0FF3004EB43125C
:101D300001339F42C2F80069C2F8006BC2F808097B
:101D4000C2F8080BF2D20B68EB6563626B6D102270
:101D50001A611E6916F01006FBD1122000F084FEF5
:101D6000D4F8003823F4FE63C4F80038A36943F4C0
:101D7000402343F01003A3610923C4F81038C4F8CA
:101D80001438094BEB60094BC4F8106BC4F8003BE6
:101D9000C4F81069C4F80039EB6D03F1100243F484
:101DA0008013EA65A362F8BDF43200084080001099
:101DB000426D90F84E10D2F8003823F4FE6343EAE7
:101DC0000113C2F8003870472DE9F0410EB200EB64
:101DD00086080D46D8F80C100F6807F00303022B95
:101DE00050D0032B50D03D4A3D4F012B18BF174612
:101DF000446D4FEA451E04EB0E030022C3F8102B7E
:101E00008A6905F1100C002A40D04A8A05F158036E
:101E10005B013A43E2500123D4F81C2803FA0CF387
:101E20001343A6444A69C4F81C380023CEF810397D
:101E300005F13F03002A39D00A8A898B92080129CB
:101E400088BF4A43C16D04EB8303561841EA02423E
:101E5000C66529465A602046FFF7E2FDD8F80C30E7
:101E60001B8A43EA85531F4305F148035B01E75092
:101E70000123D4F81C2803FA05F51543C4F81C58AF
:101E8000BDE8F081174FB3E7174FB1E704EB4613F6
:101E9000D3F8002B22F40042C3F8002BD4F81C28FE
:101EA000012303FA0CF322EA0303BAE704EB8303EA
:101EB0000E4A5A6004EB461629462046FFF7B0FD4D
:101EC000D6F8003923F40043C6F80039D4F81C389A
:101ED000012202FA05F523EA0505CFE7008000108C
:101EE000008004100080081000800C100004000224
:101EF000826D1268C265FFF775BD00005831436DF1
:101F000049015B5813F4004004D013F4001F14BFC0
:101F100001200220704700004831436D49015B58A1
:101F200013F4004004D013F4001F14BF012002205A
:101F30007047000000EB8101CB68196A0B681360E1
:101F40004B6853607047000000EB810330B5DD68DB
:101F5000AA691368D36019B9402B84BF402313606A
:101F60006B8A1468426D1C44013CB4FBF3F4634378
:101F7000033323F0030302EB411043EAC44343F06D
:101F8000C043C0F8103B2B6803F00303012B09B2D8
:101F90000ED1D2F8083802EB411013F4807FD0F84C
:101FA000003B14BF43F0805343F00053C0F8003BA4
:101FB00002EB4112D2F8003B43F00443C2F8003B6D
:101FC00030BD00002DE9F041264D6E6D06EB40134B
:101FD0000446D3F8087BC3F8087B38070AD5D6F83F
:101FE0001438190706D505EB84032146DB6828461B
:101FF0005B689847FA0733D5D6F81438DB072FD536
:1020000014B995F834305BB305EB8403D968CCB9C7
:102010008B69488A5E68B6FBF0F200FB12628AB9EF
:102020001868DA6890420DD2121A83E8140020234F
:1020300083F311880B482146FFF786FF84F311884C
:10204000BDE8F081012303FA04F26B8923EA02035D
:102050006B81CB6823B121460248BDE8F0411847A7
:10206000BDE8F081E80D002000EB810370B5DD686C
:10207000436D6C692668E6604A0156BB1A444FF40A
:102080000020C2F810092A6802F00302012A0AB2ED
:102090000ED1D3F8080803EB421410F4807FD4F873
:1020A000000914BF40F0805040F00050C4F800090F
:1020B00003EB4212D2F8000940F00440C2F80009D4
:1020C000D3F83408012202FA01F10143C3F83418AD
:1020D00070BD19B9402E84BF4020206020682E8A30
:1020E000841940F00050013C1A44B4FBF6F440EA75
:1020F000C440C6E72DE9F041284C666D06EB40135D
:102100000546D3F80879C3F80879F9071AD5D6F83F
:102110001038DA0716D504EB8003D9684B691868C4
:10212000DA6890422CD2121A4FF000081A60C3F8F5
:102130000480202383F3118829462046FFF794FF6B
:1021400088F311883B0619D5D6F83428012303FA01
:1021500005F5154212D0202383F31188236E104811
:102160002B432366D6F8343823EA0505C6F83458DD
:102170000021FEF7C5FF002383F31188BDE8F0813D
:10218000012303FA05F2238923EA020323818B68E2
:10219000002BD7D0294620469847D3E7E80D0020EA
:1021A0004C0E00202DE9F74F8048446D6669A36905
:1021B0001E4016F4805F6661054608D00023036662
:1021C000FFF7E8F903B0BDE8F04F00F0A1BC002E26
:1021D00012DAD4F8003E75489F071EBFD4F8003EBF
:1021E00023F00303C4F8003ED4F8043843F001039D
:1021F000C4F80438FFF7F8F9300504D500236B481C
:102200002B66FFF7E5F9B1040CD5D4F8083813F0C4
:10221000060FE36823F470530CBF43F4105343F4E8
:10222000A053E360320704D56B68DB680BB15F48ED
:102230009847F3024ED4B7020CD5D5F85480DFF896
:102240006CA100274FF00109AB6D9B68F9B28B427E
:1022500080F08F80F5060DD5202383F31188A369C4
:10226000534823F01003A3610021FEF749FF002328
:1022700083F311883003D4F8184813D5E10302D54D
:102280000020FFF79FFEA20302D50120FFF79AFE70
:10229000630302D50220FFF795FE270302D5032032
:1022A000FFF790FE75038DD5E00702D50020FFF7FC
:1022B00021FFA10702D50120FFF71CFF620702D50D
:1022C0000220FFF717FF23077FF57CAF0320FFF7FE
:1022D00011FF77E7D5F854A0DFF8D4B04FF000092C
:1022E000AB6D9B685FFA89F7BB42A4D30AEB471337
:1022F000D3F8002902F44022B2F5802F36D1D3F86A
:102300000029002A32DAD3F8002942F09042C3F8BB
:102310000029D3F80029002AFBDB3946686DFFF756
:102320007FFB01232A89BB406FEA030808EA020207
:102330002A8105EB8702D268926822B139461B4890
:1023400001939047019B202282F31188DAF8342808
:1023500008EA0202CAF834282A6E002113435846BC
:102360002B66FEF7CDFE002383F3118809F10109E6
:10237000B6E708EB4112D2F8003B03F44023B3F573
:10238000802F10D1D2F8003B002B0CDA6A8909FAB1
:1023900001F322EA03036B8105EB8103DB68DB6851
:1023A0000BB15046984701374EE700BFE80D0020BB
:1023B0004C0E0020436D03EB4111D1F8003B43F478
:1023C0000013C1F8003B7047436D03EB4111D1F896
:1023D000003943F40013C1F800397047436D03EB33
:1023E0004111D1F8003B23F40013C1F8003B7047C2
:1023F000436D03EB4111D1F8003923F40013C1F808
:10240000003970474FF0804310B51A69920708D51C
:1024100000241C61202383F3118800F0EBFA84F37D
:102420001188BDE8104000F073BB00000E4A136C29
:1024300043F0010313640D4A936843F00103936072
:102440004FF0804353229A624FF0FF32DA6200224B
:102450009A615A63DA605A6001225A6108211A604F
:102460001C2000F089BD00BF00380240002004E0BD
:1024700000207047FEE70000704700004FF0FF307B
:102480007047000000F0BCBD08B500F06FFB00F025
:1024900071FABDE8084000F0FDB800007047000088
:1024A000022906D0032906D00129064818BF0020BA
:1024B000704705487047032A9ABF044800EBC200E2
:1024C0000020704724350008D83400080808002090
:1024D00070B5044608460D46FEF78AFBC6B2204694
:1024E000013403780BB9184670BD32462946FEF711
:1024F00067FB0028F3D1012070BD00002DE9F04FEB
:1025000080469BB008460C461646FEF771FB3C49D8
:10251000C5B22046FFF7DCFF08B10735EDB23949F7
:102520002046FFF7D5FF08B11035EDB2632D01AF9E
:102530000CD8DFF8DC90DFF8DCB03D4694F800A062
:10254000BAF1000F1CD185F800A003E021463846FF
:1025500000F02AFE3846FEF74BFBC0B2431C5B007E
:1025600088E848003370032373700023023619464D
:10257000DAB2904206F102063BD81BB0BDE8F08FFC
:10258000BAF1250F30D107221D492046FEF718FB6E
:1025900070B91D4B2A4603F10C0153F8040B42F8A5
:1025A000040B8B42F9D11B88138007340E35C5E725
:1025B000082214492046FEF703FBA8B91349AB1CB7
:1025C00011F8012F100902F00F0210F8090012F89B
:1025D000092003F8020C594503F8012C03F102030A
:1025E000EED118350834A9E785F800A0013401358B
:1025F000A4E7FA5C06F8022C06F8011C0133B7E7E1
:102600007C340008843400088D3400080F7AFF1FE2
:102610009C3400081B7AFF1F08B5202383F3118820
:102620000348FEF7B9FE002383F3118808BD00BFFD
:10263000D810002010B50446052916D8DFE801F0AF
:1026400016150316161D202383F311880E4A012147
:10265000FEF754FF20460D4A0221FEF74FFF0C48BB
:10266000FEF760FE002383F3118810BD202383F35F
:1026700011880748FEF732FEF4E7202383F3118820
:102680000348FEF743FEEDE72C3400085034000801
:10269000D810002038B50C4D0C4C0D492A4604F1D9
:1026A0000800FFF72BFF05F1CA0204F110000949E9
:1026B000FFF724FF05F5CA7204F118000649BDE8CA
:1026C0003840FFF71BBF00BF981500200808002006
:1026D000B0340008BA34000884340008BFF34F8FC8
:1026E000024AD368DB03FCD4704700BF003C0240C1
:1026F00008B5094B1B7873B9FFF7F0FF074B1A6950
:10270000002ABFBF064A5A6002F188325A601A682E
:1027100022F480621A6008BDF6170020003C0240D7
:102720002301674508B50B4B1B7893B9FFF7D6FF1C
:10273000094B1A6942F000421A611A6842F4805249
:102740001A601A6822F480521A601A6842F4806291
:102750001A6008BDF6170020003C02400B2870B537
:1027600013D80B4A0B4C137863B90B4E4FF0006132
:1027700044F8231056F8235001330C2B2944F7D189
:102780000123137054F8200070BD002070BD00BFFD
:1027900028180020F817002044350008014B53F892
:1027A00020007047443500080C2070470B2810B5F6
:1027B000044601D9002010BDFFF7D0FF064B53F8A7
:1027C00024301844C21A0BB9012010BD126801321E
:1027D000F0D1043BF6E700BF443500080B2808B5EC
:1027E0001BD8FFF77BFFFFF783FF0D49F323CB6077
:1027F000FFF774FFC300DBB243F4007343F002033E
:102800000B610B6943F480330B61FFF767FFFFF740
:1028100089FFBDE80840FFF7C9BF002008BD00BF21
:10282000003C02402DE9F047D40715464DD413185B
:10283000B3F1016F49D2324B1B68DA0745D5314CF1
:10284000FFF756FFF323E360FFF748FF2F46401AD8
:1028500040F20129032F884601EB000618D8294CC5
:1028600040F201197B1A4344012B01EB0006236956
:102870002FD823F001032361FFF754FF2846BDE85A
:10288000F087366851F8043CB34218D1043FE1E7C1
:10289000B307E4D1236923F440732361236943EA36
:1028A000090323610431D8F800303360BFF34F8F40
:1028B000FFF714FFE368002BE3D0F323E360236901
:1028C00023F001032361FFF72DFF4FF0FF30BDE838
:1028D000F08723F440732361236943EA09032361EA
:1028E0008A4631F8023B3380BFF34F8FFFF7F6FE85
:1028F0003688BAF80030B6B2B342B3D0DFE700BFD3
:1029000000380240003C0240084908B50B7828B165
:1029100053B9FFF7EDFE01230B7008BD23B1BDE8ED
:1029200008400870FFF7FEBE08BD00BFF617002084
:10293000014B186D704700BF00280040094B1A6F0B
:10294000120407D41A6F42F400721A671A6F42F425
:1029500000421A67044A136843F480731360034B00
:1029600018657047003802400070004000280040A1
:10297000FEE7000010B5184CFEF7A4FAFEF71EFAA9
:1029800000F0A4F8802215492046FEF753FB0123EE
:1029900044F8180C0374124B124AD96821F4E06110
:1029A0000904090C0A431049DA60CA6842F08072CF
:1029B000CA600E490A6842F001020A601022DA7702
:1029C000202283F82220002383F3118862B608486E
:1029D000BDE81040FEF75CBBC80D00207435000850
:1029E00000ED00E00003FA05F0ED00E0001000E06B
:1029F0007C3500082DE9F8431A4C4FF08043002540
:102A00006769586A04F114082E46226ABB68811A65
:102A10008B420CD96169414522D013441B1A022B09
:102A20002CBFC0180230BDE8F843FEF741BD134487
:102A300023623B68D7F80C90C3F804804345636178
:102A4000FD6001D1FEF72EFD86F311883869C84775
:102A5000202383F311884FF080436769586AD4E7D5
:102A6000BDE8F883A00D0020034B59685A68521A3C
:102A70009042FBD8704700BF001000E08369194303
:102A8000037C81610A2B03D14369194205D1704748
:102A90000B2B06D143698B4303D100234361FEF71F
:102AA00019BA704770B5046805460E46AC4200D1AD
:102AB00070BDE3683343E36016B12269134203D06B
:102AC000A1686068FFF7DAFF2468EFE7034B044A68
:102AD0001A60044B044A1A60704700BF2C1A002089
:102AE000301A0020281A00200000022080B5074A72
:102AF000536823F0010300AF5360EFF30983683399
:102B000083F30988002383F3118880BD30EF00E050
:102B100098B5202300AF83F31188104B5B6813F442
:102B2000006318D0F1EE103AEFF309844FF0807390
:102B300044F84C3C0A4BDB6844F8083CA4F16803B9
:102B400083F30988FEF74CFA18B1064B44F8503C61
:102B500098BD054BFAE783F3118898BD00ED00E0BE
:102B600030EF00E0210300082403000808B500F05E
:102B700019FA064800F0CAFAFEF79EFCFEF766FB5B
:102B8000FFF78CFCBDE80840FEF782BC303300083C
:102B900030B5039C0172043304FB0325C361049B1D
:102BA00003630021059B00604060C16042610261D7
:102BB0008561046242628162C162436330BD00008C
:102BC0000022416A41610161C2608262C2626FF0AB
:102BD0000101FEF7BBBA000003694269934203D1C9
:102BE000C2680AB100207047181D70470369196058
:102BF000C2680132C260C2691344826903619342B0
:102C000024BF436A03610021FEF794BA38B5044635
:102C10000D46E3683BB16269131D1268A362134459
:102C2000E362002038BD237A33B929462046FEF7F7
:102C300071FA0028EDDA38BD6FF00100FBE7000003
:102C4000C368C269013BC36043691344826943613D
:102C5000934224BF436A436100238362036B03B141
:102C60001847704770B52023044683F31188866A9D
:102C70003EB9FFF7CBFF054618B186F31188284609
:102C800070BDA36AE26A13F8015BA362934202D3A8
:102C90002046FFF7D5FF002383F31188EFE70000FC
:102CA0002DE9F74F1F4604460E469146202383F335
:102CB00011884FF080480025D8F82430FB18009385
:102CC00007F1FF3AAB46A36AABB91AF1030F06D975
:102CD00039462046FFF79AFF68B1002305E0D8F88F
:102CE0002410009A511A8F42F3D283F31188284698
:102CF00003B0BDE8F08FA16AE36AA9EB05025B1A95
:102D0000934228BF1346402B1CD9334601F14002A1
:102D100051F8040B43F8040B9142F9D1A36A4033F4
:102D20004036A3624035A26AE36A9A4202D3204643
:102D3000FFF786FF8BF311884D45D8D2202383F30C
:102D40001188C0E71A4630460193FDF72FFF019B1B
:102D5000A26A1A441E44A2621D44E4E710B5029C14
:102D60000172043303FB0421C36100238362C36245
:102D7000039B0363049B00604060C4604261026186
:102D8000816104624262436310BD0000026AC26056
:102D9000426A4261026100228262C2626FF00101F6
:102DA000FEF7D4B9436902699A4203D1C2680AB1F5
:102DB00000207047184650F8043B0B607047000035
:102DC000C368C2690133C3604369134482694361C4
:102DD000934224BF436A43610021FEF7ABB9000070
:102DE00038B504460D46E3683BB123691A1DA2625B
:102DF000E2691344E362002038BD237A33B92946DF
:102E00002046FEF787F90028EDDA38BD6FF00100A3
:102E1000FBE7000003691960C268013AC260C26939
:102E2000134482690361934224BF436A0361002310
:102E30008362036B03B118477047000070B520230D
:102E400004460E4683F31188856A35B91146FFF7AB
:102E5000C7FF10B185F3118870BDA36A1E70A36A05
:102E6000E26A01339342A36204D3E1692046043944
:102E7000FFF7D0FF002080F3118870BD2DE9F74FD8
:102E80001F4604460D469146202383F311884FF0D8
:102E900080480026D8F82430FB18009307F1FF3A49
:102EA000B346A36AABB91AF1030F06D939462046D7
:102EB000FFF796FF68B1002305E0D8F82410009AC8
:102EC000511A8F42F3D283F31188304603B0BDE824
:102ED000F08FA06AE36AA9EB06021B1A934228BF8F
:102EE0001346402B1CD905F1400355F8042B40F83C
:102EF000042B9D42F9D1A36A4033A3624036A26AF3
:102F0000E36A9A4204D3E16920460439FFF782FF5D
:102F10008BF311884E45D8D2202383F31188C0E764
:102F20001A4629460193FDF741FE019BA26A1A4405
:102F30001D44A2621E44E2E7026943699A4203D13A
:102F4000C3681BB9184670470023FBE7836A002B50
:102F5000F8D0043B9B1AF5D01360C368013BC360F3
:102F6000C3691A44836902619A4224BF436A0361B8
:102F7000002383620123E5E700F1604300F01F02B4
:102F8000400903F5614309018000C9B200F16040C6
:102F900083F8001300F5614001239340C0F88031AD
:102FA00003607047144B00211A694FF0FF321A6119
:102FB000196158695A615961186A60F08050186245
:102FC0001962586A5A6259621A6C42F080521A6445
:102FD0000A4A106840F480701060186F00F4407066
:102FE000B0F5007F1EBF4FF4803018671967536833
:102FF00023F40073536070470038024000700040B3
:10300000314B4FF080521A64304A4FF44041116006
:103010001A6842F001021A601A689207FCD59A6891
:1030200022F003029A609A689A60274B19469A68C0
:1030300012F00C02FBD1186800F0F90018609A60D9
:103040001A6842F480321A600B689B03FCD54B6F00
:1030500043F001034B671C4B5A6F9007FCD51C4A89
:103060005A601A6842F080721A60184A536859040C
:10307000FCD5154B1A689201FCD5164A9A60164B7E
:103080001A68164B9A42164B1AD1164A1168164AFC
:10309000914215D140F205121A600B4B9A6842F02A
:1030A00002029A609A6802F00C02082AFAD15A6C5D
:1030B00042F480425A645A6E42F480425A66704723
:1030C00040F20572E8E700BF00380240007000409F
:1030D0000854400700948838002004E01164002060
:1030E000003C024000ED00E041C20F414B684360EC
:1030F0008B688360CB68C3600B6943614B69036273
:103100008B6943620B680360704700001C4B0246EA
:10311000186B10B540F2FF1420431863196D19485D
:10312000214319651146FFF7E1FF174802F11C0121
:10313000FFF7DCFF154802F13801FFF7D7FF14480D
:1031400002F15401FFF7D2FF124802F17001FFF7BC
:10315000CDFF114802F18C01FFF7C8FF0F4802F1C3
:10316000A801FFF7C3FF0E4802F1C401FFF7BEFF3D
:103170000C4802F1E001BDE81040FFF7B7BF00BF07
:1031800000380240000002400004024000080240F3
:10319000000C0240001002400014024000180240DF
:1031A000001C02400020024080EA0102844612F026
:1031B000030F4FD111F0030F32D14DF8044D11F030
:1031C000040F51F8043B0BD0A3F101329A4312F0E3
:1031D000803F04BF4CF8043B51F8043B16D100BFBC
:1031E00051F8044BA3F101329A4312F0803FA4F14D
:1031F00001320BD14CF8043BA24312F0803F04BFD4
:1032000051F8043B4CF8044BEAD023460CF8013B40
:1032100013F0FF0F4FEA3323F8D15DF8044B7047EA
:1032200011F0010F06D011F8012B0CF8012B002A28
:1032300008BF704711F0020FBFD031F8022B12F017
:10324000FF0F16BF2CF8022B8CF8002012F47F4FD2
:10325000B3D1704711F8012B0CF8012B002AF9D1DA
:10326000704700BF121012131211000053544D3357
:1032700032463F3F3F000000000000006C32000873
:103280003F00000013040000A83200083F000000C7
:1032900019040000B23200083F00000021040000C1
:1032A000BC3200083F00000053544D3332463430E6
:1032B000780053544D3332463432780053544D33F2
:1032C0003246343436585800C9110008B511000888
:1032D000F1110008DD110008E9110008D5110008FE
:1032E000C1110008AD11000800000000010000003D
:1032F0000000000000000000FD150008D9180008BB
:103300007519000840004000C0100020C0100020C7
:1033100001000000D01000208000000040010000EB
:10332000030000007573625F70756D70000000002F
:103330000000801600000000AAAAAAAA000000004F
:10334000FF9F00000000000000A00A000000000035
:1033500000000000AAAAAAAA00000000FFFF0000C7
:10336000000000000000000000000000000000005D
:10337000AAAAAAAA00000000FFFF000000000000A7
:10338000000000000000000000000000AAAAAAAA95
:1033900000000000FFFF000000000000000000002F
:1033A0000000000000000000AAAAAAAA0000000075
:1033B000FFFF00000000000000000000000000000F
:1033C00000000000AAAAAAAA00000000FFFF000057
:1033D00000000000000000000000000000000000ED
:1033E000AAAAAAAA00000000FFFF00000000000037
:1033F0000000000000000000000000000A000000C3
:1034000000000000030000000000000000000000B9
:1034100000000000000000000000000000000000AC
:10342000000000000000000000000000020000009A
:1034300000000000E51300084D14000840004000A3
:103440006815002078150020020000000000000030
:1034500003000000000000008D14000800000000C0
:10346000100000008815002000000000010000008E
:1034700000000000E80D00200101020025424F413C
:10348000524425002553455249414C25004D617455
:10349000656B463430352D57696E670030313233F5
:1034A0003435363738394142434445460000000040
:1034B0004172647550696C6F740025424F415244EB
:1034C000252D424C0000000035260008A1240008EC
:1034D000511300081926000843000000E0340008DA
:1034E00009024300020100C0320904000001020287
:1034F000010005240010010524010001042402023A
:103500000524060001070582030800FF09040100E5
:10351000020A0000000705010240000007058102C1
:1035200040000000120000002C35000812011001BC
:103530000200004083044057000201020301000022
:1035400004030904004000000040000000400000A7
:103550000040000000000100000002000000020026
:103560000000020000000200000002000000020053
:10357000000002006D61696E0000000094350008D3
:1035800030180020281A00200100000071290008CE
:103590000000000069646C6500000000000000008D
:1035A000FF009600000000080400000040350008FD
:1035B000000000000000000000000000000000000B
:1035C0000000000000000000FFFFFFFFFFFFFFFF03
:1035D000FFFFFFFFFFFFFFFFFFFFFFFFFFFFFFFFFB
:1035E000FFFFFFFFFFFFFFFFFFFFFFFFFFFFFFFFEB
:1035F000FFFFFFFFFFFFFFFFFFFFFFFFFFFFFFFFDB
:10360000FFFFFFFFFFFFFFFFFFFFFFFFFFFFFFFFCA
:020000040801F1
:1000000000040020C514010875E5060879E5060816
:10001000C9E5060879E50608A1E506084D320B0892
:100020004D320B084D320B084D320B08E5C40B085E
:100030004D320B084D320B084D320B084D320B0878
:100040004D320B084DD00B081DD10B0851D10B08B8
:100050004D320B084D320B0879CE0B08A9CE0B0898
:10006000D9CE0B0809CF0B0839CF0B08415A0B0822
:100070006D5A0B089D5A0B08CD5A0B08FD5A0B08F8
:10008000295B0B08595B0B08F1580B084D320B0824
:100090004D320B084D320B084D320B0869CF0B085F
:1000A0004D320B084D320B084D320B084D320B0808
:1000B0004D780B084D320B084D320B0861630B086D
:1000C00079630B08A5630B08BD630B084D320B0861
:1000D0004D320B08057C0B084D320B081D7C0B08BC
:1000E000D5CF0B0881D00B08B5D00B084D320B08CB
:1000F0004D320B084D320B084D320B08895B0B0853
:100100004D320B084D320B0851750B084D320B0860
:10011000357C0B084D7C0B084D320B084D320B081B
:10012000B95B0B08E55B0B08155C0B08455C0B081D
:10013000755C0B084D320B084D320B084D320B0825
:100140004D320B084D320B084D320B08716F0B0806
:10015000A15C0B08D15C0B08015D0B08657C0B08EA
:100160004D320B084D320B084D320B084D320B0847
:10017000E9D00B084D320B084D320B084D320B08FD
:100180004D320B084D320B084D320B084D320B0827
:100190004D320B084D320B084D320B084D320B0817
:1001A0004D320B084D320B084D320B084D320B0807
:1001B0004D320B084D320B084D320B084D320B08F7
:1001C0004D320B084D320B084D320B084D320B08E7
:1001D0004D320B084D320B084D320B084D320B08D7
:1001E000B53C0108C965010871DF010821F6010865
:1001F00029AD0308E10404085107040851EB040881
:1002000085F2040861F804088D0C05086D85050861
:10021000111C0608ADE90608FD170A0841300A0856
:10022000154C0A08DD4E0A0801320B0800000000D8
:1002300000000000000000000000000000000000BE
:10024000D0400B1CD1409C46203AD3401843524228
:100250006346934018437047D0400B1C1141203A2D
:1002600003D49C46134118436346524293401843BB
:10027000704700BF9140031C90409C46203A934039
:10028000194352426346D3401943704781F00041FD
:1002900002E000BF83F0004330B54FEA41044FEA6B
:1002A000430594EA050F08BF90EA020F1FBF54EA06
:1002B000000C55EA020C7FEA645C7FEA655C00F0A2
:1002C000E2804FEA5454D4EB5555B8BF6D420CDD73
:1002D0002C4480EA020281EA030382EA000083EAF6
:1002E000010180EA020281EA0303362D88BF30BD96
:1002F00011F0004F4FEA01314FF4801C4CEA1131EC
:1003000002D0404261EB410113F0004F4FEA03334A
:100310004CEA133302D0524263EB430394EA050FD5
:1003200000F0A780A4F10104D5F1200E0DDB02FA44
:100330000EFC22FA05F2801841F1000103FA0EF2D8
:10034000801843FA05F359410EE0A5F120050EF19E
:10035000200E012A03FA0EFC28BF4CF0020C43FACF
:1003600005F3C01851EBE37101F0004507D54FF0DC
:10037000000EDCF1000C7EEB00006EEB0101B1F52C
:10038000801F1BD3B1F5001F0CD349085FEA300072
:100390004FEA3C0C04F101044FEA445212F5800F7D
:1003A00080F09A80BCF1004F08BF5FEA500C50F11A
:1003B000000041EB045141EA050130BD5FEA4C0CFD
:1003C000404141EB010111F4801FA4F10104E9D186
:1003D00091F0000F04BF01460020B1FA81F308BF7D
:1003E0002033A3F10B03B3F120020CDA0C3208DD49
:1003F00002F1140CC2F10C0201FA0CF021FA02F124
:100400000CE002F11402D8BFC2F1200C01FA02F193
:1004100020FA0CFCDCBF41EA0C019040E41AA2BFB8
:1004200001EB0451294330BD6FEA04041F3C1CDA80
:100430000C340EDC04F11404C4F1200220FA04F0A0
:1004400001FA02F340EA030021FA04F345EA03014A
:1004500030BDC4F10C04C4F1200220FA02F001FA0C
:1004600004F340EA0300294630BD21FA04F029468E
:1004700030BD94F0000F83F4801306BF81F4801127
:100480000134013D4EE77FEA645C18BF7FEA655C9A
:1004900029D094EA050F08BF90EA020F05D054EA6C
:1004A000000C04BF1946104630BD91EA030F1EBF71
:1004B0000021002030BD5FEA545C05D14000494175
:1004C00028BF41F0004130BD14F580043CBF01F568
:1004D000801130BD01F0004545F0FE4141F470014E
:1004E0004FF0000030BD7FEA645C1ABF1946104629
:1004F0007FEA655C1CBF0B46024650EA013406BF2A
:1005000052EA033591EA030F41F4002130BD00BFE8
:1005100090F0000F04BF0021704730B54FF48064A5
:1005200004F132044FF000054FF0000150E700BF26
:1005300090F0000F04BF0021704730B54FF4806485
:1005400004F1320410F0004548BF40424FF0000172
:100550003EE700BF42004FEAE2014FEA31014FEAB5
:1005600002701FBF12F07F4393F07F4F81F0605104
:10057000704792F0000F14BF93F07F4F704730B573
:100580004FF4607401F0004521F0004120E700BF06
:1005900050EA010208BF704730B54FF000050AE08D
:1005A00050EA010208BF704730B511F0004502D58E
:1005B000404261EB41014FF4806404F132045FEA90
:1005C000915C3FF4DCAE4FF003025FEADC0C18BF35
:1005D00003325FEADC0C18BF033202EBDC02C2F12B
:1005E000200300FA03FC20FA02F001FA03FE40EABD
:1005F0000E0021FA02F11444C1E600BF70B54FF0BD
:10060000FF0C4CF4E06C1CEA11541DBF1CEA13559E
:1006100094EA0C0F95EA0C0F00F0DEF82C4481EA06
:10062000030621EA4C5123EA4C5350EA013518BF26
:1006300052EA033541F4801143F4801338D0A0FB13
:1006400002CE4FF00005E1FB02E506F00042E0FBC0
:1006500003E54FF00006E1FB03569CF0000F18BFC6
:100660004EF0010EA4F1FF04B6F5007F64F540746E
:1006700004D25FEA4E0E6D4146EB060642EAC62101
:1006800041EA55514FEAC52040EA5E504FEACE2E6E
:10069000B4F1FD0C88BFBCF5E06F1ED8BEF1004F71
:1006A00008BF5FEA500E50F1000041EB045170BDED
:1006B00006F0004646EA010140EA020081EA030131
:1006C000B4EB5C04C2BFD4EB0C0541EA045170BD2D
:1006D00041F480114FF0000E013C00F3AB8014F1A7
:1006E000360FDEBF002001F0004170BDC4F10004F0
:1006F000203C35DA0C341BDC04F11404C4F1200571
:1007000000FA05F320FA04F001FA05F240EA0200CB
:1007100001F0004221F0004110EBD37021FA04F601
:1007200042EB06015EEA430E08BF20EAD37070BDBB
:10073000C4F10C04C4F1200500FA04F320FA05F01A
:1007400001FA04F240EA020001F0004110EBD3701C
:1007500041F100015EEA430E08BF20EAD37070BD8C
:10076000C4F1200500FA05F24EEA020E20FA04F365
:1007700001FA05F243EA020321FA04F001F0004114
:1007800021FA04F220EA020000EBD3705EEA430E85
:1007900008BF20EAD37070BD94F0000F0FD101F0B4
:1007A0000046400041EB010111F4801F08BF013CED
:1007B000F7D041EA060195F0000F18BF704703F02B
:1007C0000046520043EB030313F4801F08BF013DB2
:1007D000F7D043EA0603704794EA0C0F0CEA13556E
:1007E00018BF95EA0C0F0CD050EA410618BF52EA28
:1007F0004306D1D181EA030101F000414FF000002E
:1008000070BD50EA410606BF1046194652EA43063B
:1008100019D094EA0C0F02D150EA013613D195EAAF
:100820000C0F05D152EA03361CBF104619460AD1F7
:1008300081EA030101F0004141F0FE4141F4700101
:100840004FF0000070BD41F0FE4141F4780170BDF1
:1008500070B54FF0FF0C4CF4E06C1CEA11541DBF56
:100860001CEA135594EA0C0F95EA0C0F00F0A7F858
:10087000A4EB050481EA030E52EA03354FEA013185
:1008800000F088804FEA03334FF0805545EA131398
:1008900043EA12634FEA022245EA111545EA106560
:1008A0004FEA00260EF000419D4208BF964244F1F7
:1008B000FD0404F5407402D25B084FEA3202B61A16
:1008C00065EB03055B084FEA32024FF480104FF4EA
:1008D000002CB6EB020E75EB030E22BFB61A75465E
:1008E00040EA0C005B084FEA3202B6EB020E75EBF1
:1008F000030E22BFB61A754640EA5C005B084FEA59
:100900003202B6EB020E75EB030E22BFB61A754625
:1009100040EA9C005B084FEA3202B6EB020E75EB30
:10092000030E22BFB61A754640EADC0055EA060EF1
:1009300018D04FEA051545EA16754FEA06164FEA34
:10094000C30343EA52734FEAC2025FEA1C1CC0D1E0
:1009500011F4801F0BD141EA00014FF000004FF06D
:10096000004CB6E711F4801F04BF01430020B4F12E
:10097000FD0C88BFBCF5E06F3FF6AFAEB5EB030CE6
:1009800004BFB6EB020C5FEA500C50F1000041EBE3
:10099000045170BD0EF0004E4EEA113114EB5C04B0
:1009A000C2BFD4EB0C0541EA045170BD41F4801183
:1009B0004FF0000E013C90E645EA060E8DE60CEA8B
:1009C000135594EA0C0F08BF95EA0C0F3FF43BAFA8
:1009D00094EA0C0F0AD150EA01347FF434AF95EA5F
:1009E0000C0F7FF425AF104619462CE795EA0C0F43
:1009F00006D152EA03353FF4FDAE1046194622E710
:100A000050EA410618BF52EA43067FF4C5AE50EAE9
:100A100041047FF40DAF52EA43057FF4EBAE12E7D9
:100A20004FF0FF3C06E000BF4FF0010C02E000BFBA
:100A30004FF0010C4DF804CD4FEA410C7FEA6C5C9D
:100A40004FEA430C18BF7FEA6C5C1BD001B050EA40
:100A5000410C0CBF52EA430C91EA030F02BF90EA2B
:100A6000020F0020704710F1000F91EA030F58BFEA
:100A7000994208BF90422CBFD8176FEAE37040F04C
:100A8000010070474FEA410C7FEA6C5C02D150EAEA
:100A9000013C07D14FEA430C7FEA6C5CD6D152EAA5
:100AA000033CD3D05DF8040B704700BF844610466A
:100AB00062468C461946634600E000BF01B5FFF769
:100AC000B7FF002848BF10F1000F01BD4DF808ED39
:100AD000FFF7F4FF0CBF012000205DF808FB00BF0A
:100AE0004DF808EDFFF7EAFF34BF012000205DF864
:100AF00008FB00BF4DF808EDFFF7E0FF94BF0120B1
:100B000000205DF808FB00BF4DF808EDFFF7CEFFB1
:100B100094BF012000205DF808FB00BF4DF808EDF0
:100B2000FFF7C4FF34BF012000205DF808FB00BFC1
:100B30004FEA410212F5001215D211D56FF4787305
:100B4000B3EB625212D94FEAC12343F0004343EAA8
:100B5000505311F0004F23FA02F018BF4042704783
:100B60004FF00000704750EA013005D111F000400D
:100B700008BF6FF0004070474FF00000704700BFA3
:100B80004A0011D212F5001211D20DD56FF478730C
:100B9000B3EB62520ED44FEAC12343F0004343EA61
:100BA000505323FA02F070474FF00000704750EAAC
:100BB000013002D14FF0FF3070474FF00000704716
:100BC0004FEA4102B2F1E04324BFB3F5001CDCF16F
:100BD000FE5C0DD901F0004C4FEAC0024CEA5070A7
:100BE000B2F1004F40EB830008BF20F001007047D6
:100BF00011F0804F21D113F13872BCBF01F00040D9
:100C0000704741F480114FEA5252C2F11802C2F10A
:100C1000200C10FA0CF320FA02F018BF40F001008B
:100C20004FEAC1234FEAD32303FA0CFC40EA0C003D
:100C300023FA02F34FEA4303CCE77FEA625307D17A
:100C400050EA01331EBF4FF0FE4040F440007047B1
:100C500001F0004040F0FE4040F40000704700BF4B
:100C600080F0004002E000BF81F0004142001FBF61
:100C70005FEA410392EA030F7FEA226C7FEA236C6A
:100C80006AD04FEA1262D2EB1363C1BFD21841405F
:100C900048404140B8BF5B42192B88BF704710F0F5
:100CA000004F40F4000020F07F4018BF404211F098
:100CB000004F41F4000121F07F4118BF494292EA00
:100CC000030F3FD0A2F1010241FA03FC10EB0C002C
:100CD000C3F1200301FA03F100F0004302D54942B9
:100CE00060EB4000B0F5000F13D3B0F1807F06D366
:100CF00040084FEA310102F10102FE2A51D2B1F15E
:100D0000004F40EBC25008BF20F0010040EA030052
:100D10007047490040EB000010F4000FA2F10102FF
:100D2000EDD1B0FA80FCACF1080CB2EB0C0200FA89
:100D30000CF0AABF00EBC25052421843BCBFD040D7
:100D40001843704792F0000F81F4000106BF80F451
:100D500000000132013BB5E74FEA41037FEA226C14
:100D600018BF7FEA236C21D092EA030F04D092F0DF
:100D7000000F08BF0846704790EA010F1CBF002013
:100D8000704712F07F4F04D1400028BF40F0004070
:100D9000704712F100723CBF00F50000704700F090
:100DA000004343F0FE4040F4000070477FEA2262B7
:100DB00016BF08467FEA23630146420206BF5FEA88
:100DC000412390EA010F40F4800070474FF0000388
:100DD00004E000BF10F0004348BF40425FEA000C4F
:100DE00008BF704743F0964301464FF000001CE0F7
:100DF00050EA010208BF70474FF000030AE000BF4D
:100E000050EA010208BF704711F0004302D540428A
:100E100061EB41015FEA010C02BF844601460020FC
:100E200043F0B64308BFA3F18053A3F50003BCFA17
:100E30008CF2083AA3EBC25310DB01FA02FC6344C4
:100E400000FA02FCC2F12002BCF1004F20FA02F2CB
:100E500043EB020008BF20F00100704702F12002BE
:100E600001FA02FCC2F1200250EA4C0021FA02F21F
:100E700043EB020008BF20EADC7070477BB972B90F
:100E80000029BEBF00204FF0004106E008BF002847
:100E90001CBF6FF000414FF0FF3000F08DB882B002
:100EA000EC462DE9005000F057F8DDF804E002B000
:100EB0000CBC704753B94AB9002908BF00281CBFB1
:100EC0004FF0FF314FF0FF3000F076B882B0EC46C3
:100ED0002DE9005000F058F8DDF804E002B00CBC39
:100EE000704700BF430803F05533C31A980800F059
:100EF000333003F03333184400EB101000F00F30A0
:100F000000EB002000EB0040000E7047D0B5FFF76B
:100F100021FB00220E4B06460F46FFF76FFBFFF743
:100F20002FFE0446FFF7F4FA00220A4BFFF766FB98
:100F300002460B4630463946FFF7ACF9FFF720FE74
:100F40002346002242EA000210461946D0BD00BFE7
:100F50000000F03D0000F0412DE9F041069C1546EF
:100F600006460F46984600F029F805FB01F300FB02
:100F70000838A5FB0023B21A434467EB0303C4E916
:100F80000023BDE8F08100BF2DE9F041069C9046AA
:100F900006460F461D4600F05FF900FB05F5A0FB75
:100FA000082308FB0155B21A2B4467EB0303C4E97D
:100FB0000023BDE8F08100BF704700BF00292DE984
:100FC000F043C0F2A6800026002BC0F29C80884629
:100FD00094469E46154604460F46002B3DD18A4254
:100FE00059D9B2FA82F33BB1C3F120029F4020FAF3
:100FF00002F29D4017439C40290C220CB7FBF1FEE6
:10100000A8B201FB1E7742EA074700FB0EF3BB4282
:101010000AD97F190EF1FF3280F00581BB4240F200
:101020000281AEF1020E2F44FF1AA4B2B7FBF1F316
:1010300001FB137744EA074700FB03F0B84208D9E5
:101040007F1903F1FF3280F0F080B84240F2ED806A
:10105000023B43EA0E43002203E08B420FD90022F9
:101060001346341C18BF012460424FF0000565EBA5
:1010700045015840514000196941BDE8F083B3FA79
:1010800083F2002A40F086808B4202D3844500F22E
:10109000DB800123E5E712B90123B3FBF2F5B5FAD2
:1010A00085F000283BD1781B4FEA154E1FFA85FCCE
:1010B0000122B0FBFEF8210C0EFB180741EA07479E
:1010C0000CFB08F3BB4207D97F1908F1FF3102D2AC
:1010D000BB4200F2BD808846FF1AA4B2B7FBFEF304
:1010E0000EFB137744EA07470CFB03FCBC4507D90A
:1010F0007F1903F1FF3102D2BC4500F2A7800B46F5
:1011000043EA0843ADE752426FEA060663EB430346
:101110005DE7404261EB41014FF0FF3654E7C0F11B
:10112000200224FA02F107FA00F385404FEA154E37
:10113000D7401943B7FBFEF20B0C0EFB12771FFAD8
:1011400085FC43EA07430CFB02F79F4204FA00F4D4
:1011500007D95B1902F1FF3074D29F4272D9023A6B
:101160002B44DF1B89B2B7FBFEF80EFB187341EA74
:1011700003430CFB08F79F4208D95B1908F1FF31C4
:101180005CD29F425AD9A8F102082B44D81B48EAE6
:1011900002428EE7C2F120032CFA03F10EFA02FE9E
:1011A00020FA03F741EA0E0E08FA02F028FA03F1DA
:1011B0004FEA1E453843B1FBF5F8030C05FB181147
:1011C0001FFA8EF743EA014107FB08F38B420CFA42
:1011D00002FC09D911EB0E0108F1FF3930D28B4224
:1011E0002ED9A8F102087144C91A80B2B1FBF5F3F7
:1011F00005FB131140EA014107FB03F78F4208D9B1
:1012000011EB0E0103F1FF3016D28F4214D9023BCD
:10121000714443EA0843C91BA3FB0C89494509D320
:1012200005D000221DE79646FEE6134611E79440DE
:101230004445F6D2013BF4E70346EAE78846A5E7D2
:10124000C846D1E702468CE713460AE7023B57E758
:10125000A8F102082F443FE72DE9F041002B44D1CB
:101260008A42154604464FD9B2FA82F70E464FB16C
:10127000C7F12003B94020FA03F602FA07F50E433E
:1012800000FA07F44FEA154E230CB6FBFEF0AFB29E
:101290000EFB106143EA014307FB00F1994209D9B3
:1012A0005B1900F1FF3280F0EC80994240F2E98056
:1012B00002382B445A1AA4B2B2FBFEF30EFB1322DF
:1012C00044EA024207FB03F7974208D9521903F197
:1012D000FF3180F0D880974240F2D580023B43EA4C
:1012E000004000263146BDE8F0818B4247D8B3FA72
:1012F00083F6002E48D18B4202D3824200F2CD8089
:1013000001203146BDE8F08112B90125B5FBF2F5A7
:10131000B5FA85F8B8F1000F77D14A1B4FEA154EA0
:10132000AFB20126B2FBFEF0230C0EFB102143EA04
:10133000014107FB00F38B4207D9491900F1FF3245
:1013400002D28B4200F2BA801046C91AA4B2B1FB95
:10135000FEF30EFB131144EA014407FB03F7A74217
:1013600008D9641903F1FF3280F08F80A74240F260
:101370008C80023B43EA00403146BDE8F081002604
:1013800030463146BDE8F081C6F1200422FA04F56A
:10139000B3402B4320FA04FC01FA06F721FA04F5C6
:1013A0004FEA134E4CEA0707B5FBFEF8390C0EFB6B
:1013B00018551FFA83FC41EA05450CFB08F1A942C8
:1013C00002FA06F204D9ED1808F1FF3467D3A046FB
:1013D0006D1ABFB2B5FBFEF40EFB145547EA05418A
:1013E0000CFB04FC8C4504D9C91804F1FF355CD30F
:1013F0002C4644EA0844CCEB0101A4FB02239942A9
:1014000048D344D0204600266CE7C8F1200401FAF6
:1014100008F305FA08F520FA04F7E1404FEA154E03
:101420001F43B1FBFEF63A0C0EFB16111FFA85FCAA
:1014300042EA01430CFB06F29A4200FA08F407D98B
:101440005B1906F1FF3137D29A4235D9023E2B445F
:101450009B1ABFB2B3FBFEF00EFB103347EA034307
:101460000CFB00F1994207D95B1900F1FF3221D240
:1014700099421FD902382B445A1A40EA0646674659
:1014800050E7104616E70B4629E7134672E7B040CF
:101490009042B7D2601E002624E7304622E7A942D8
:1014A00095D9A8F102081D4492E78C45A0D9023CC9
:1014B00019449EE71046DFE70E46C9E70238294483
:1014C00043E700BF72B6374880F3098836484EF6C6
:1014D0000851CEF20001086040F20000CCF200009A
:1014E0004EF63471CEF200010860BFF34F8FBFF3A8
:1014F0006F8F40F20000C0F2F0004EF68851CEF23D
:1015000000010860BFF34F8FBFF36F8F4FF00000F3
:10151000E1EE100A4EF63C71CEF2000108600620A2
:1015200080F31488BFF36F8FA1F072FEA9F05CFC0A
:101530001E481F491F4A91423CBF41F8040BFAE77D
:101540001D49184A91423CBF41F8040BFAE71B4978
:101550001B4A1C4B9A423EBF51F8040B42F8040B45
:10156000F8E700201849194A91423CBF41F8040BA2
:10157000FAE7A1F051FEA9F039FC154C154DAC422B
:1015800003DA54F8041B8847F9E701F075FC124CA4
:10159000124DAC4203DA54F8041B8847F9E7A1F076
:1015A00039BE0000000800200000010855555555BF
:1015B00000000020000400200004002068F40D0852
:1015C00000080020DC140020E0140020601201203C
:1015D000E00101082C0201082C0201082C0201087C
:1015E0002DE9F04F2DED108AC1F80CD0C3689D464F
:1015F000BDEC108ABDE8F08FA2F0D4FA002383F38B
:1016000011882846A0470020A2F0B0F9A2F0C4FA41
:10161000A2F0D0F8A2F0C6FA00DFFEE7844641EA65
:10162000000313F003036DD1403A41D351F8043B5A
:1016300040F8043B51F8043B40F8043B51F8043BAC
:1016400040F8043B51F8043B40F8043B51F8043B9C
:1016500040F8043B51F8043B40F8043B51F8043B8C
:1016600040F8043B51F8043B40F8043B51F8043B7C
:1016700040F8043B51F8043B40F8043B51F8043B6C
:1016800040F8043B51F8043B40F8043B51F8043B5C
:1016900040F8043B51F8043B40F8043B51F8043B4C
:1016A00040F8043B51F8043B40F8043B403ABDD2BB
:1016B000303211D351F8043B40F8043B51F8043B5D
:1016C00040F8043B51F8043B40F8043B51F8043B1C
:1016D00040F8043B103AEDD20C3205D351F8043BEC
:1016E00040F8043B043AF9D2043208D0D2071CBFB8
:1016F00011F8013B00F8013B01D30B8803806046E1
:10170000704700BF082A13D38B078DD010F0030356
:101710008AD0C3F10403D21ADB071CBF11F8013BC6
:1017200000F8013B80D331F8023B20F8023B7BE715
:10173000043AD9D3013A11F8013B00F8013BF9D240
:101740000B7803704B7843708B78837060467047DA
:10175000A2EB0300704700BF02780B78012A28BF74
:101760009A42F5D16DE9044540EA0104CDE90267EA
:101770006FF0000C4FEA447212B380EA010414F0D7
:10178000070F6AD100F0070420F0070004F00305FA
:1017900021F007014FEAC505F0E8042314F0040F17
:1017A000F1E804670CFA05F462EA040266EA04064A
:1017B0000AD063EA0403624667EA0407664603E068
:1017C000F0E80423F1E8046782FA4CF582EA0604A3
:1017D000A4FA8CF46CBB83FA4CF583EA0705A5FAEE
:1017E0008CF595B950E9022351E9026782FA4CF56C
:1017F00082EA0604A4FA8CF483FA4CF583EA07051E
:10180000A5FA8CF52543DBD09CB92DBAB5FA85F441
:1018100024F0070427FA04F1DDE9026723FA04F350
:1018200003F0FF0001F0FF01FDE80445A0EB01001B
:10183000704724BAB4FA84F424F0070426FA04F1B9
:10184000DDE9026722FA04F202F0FF0001F0FF0175
:10185000FDE80445A0EB0100704714F0030F3CD1F4
:1018600010F0030428D150F8082B51F8083B82FAF5
:101870004CF582EA0305A5FA8CF55DB950F8042C05
:1018800051F8043C82FA4CF582EA0305A5FA8CF57E
:10189000002DE8D02DBAB5FA85F424F0070423FA18
:1018A00004F122FA04F202F0FF0001F0FF01FDE86A
:1018B0000445A0EB010070474FEAC40420F0030088
:1018C00050F8082B21F0030151F8083B0CFA04F4FE
:1018D00062EA040263EA0403C9E710F003041AD0C1
:1018E000A1EB040120F00300E40750F8042B06D01C
:1018F0000FD28B785FFAA2F4E41A06D12BB1CB7821
:101900005FFAB2F4E41A00D11BB920465DF8104B1F
:10191000704701F1040150F8042BCC0721F00301BA
:1019200051F8043B48D824D222F07F4482FA4CF587
:1019300094EA1325A5FA8CF50AD165B951F8043B50
:1019400084EA0204B4EB036F0ED150F8042BEBE7EA
:101950004FEA132355E035F07F454DD10878FDE877
:101960000445C0F1000070474FEA126203F0FF0324
:1019700047E002EA1C4482FA4CF594EA1345A5FAC2
:101980008CF50AD165B951F8043B84EA0204B4EB42
:10199000034F0CD150F8042BEBE74FEA134330E030
:1019A00015EA1C4528D10B884FEA124229E04FEA7C
:1019B000124203EA1C4324E002F0FF0482FA4CF5D1
:1019C00094EA1365A5FA8CF50AD165B951F8043B80
:1019D00084EA0204B4EB032F09D150F8042BEBE79F
:1019E0004FEA13630DE015F0FF0F05D10B684FEAC6
:1019F000122223F07F4304E04FF00000FDE804458D
:101A0000704712BA1BBA82FA4CF482EA0304A4FAB1
:101A10008CF5B5FA85F402FA04F203FA04F34FEAFE
:101A20001260FDE80445A0EB1360704708B50D4A4D
:101A300013780133DBB21D2B98BF137003684FF08E
:101A4000000188BF11705B6888BF0121984742F68A
:101A50003803054AD15C60F30411D154034B58722A
:101A600008BD00BF00080020F8140020F05D002031
:101A70007FB50D4604A90023064641F8043D0C48F5
:101A80004FF0BCFC044678B9039B33B9304621467D
:101A90002A46084B59F052FF06E000933046214693
:101AA0002A46054B59F04AFF204604B070BD00BFDE
:101AB00050420020045B0C081D5B0C0807B50B4668
:101AC000009220211A46034B59F038FF03B05DF80D
:101AD00004FB00BF105B0C0810B50A4642F69403E5
:101AE0000749CB585B7903F0040303F0FF042BB9DB
:101AF0002146044B59F022FF204610BD012010BDA5
:101B0000F8140020205B0C0808B5C388012B0A4696
:101B100001D05B060BD50A4B93F9441039B1D3F8C9
:101B2000C019B3F94630B1F90010994201DB012028
:101B300008BD4021034B59F001FF002008BD00BF44
:101B4000F81400203E5B0C0808B5006C03685B6865
:101B5000984700F0010008BD73B5174C05462046B4
:101B60000E4612F049FC08B9012023E041F66C133F
:101B7000E35CDB070FD51148A48B19212EF0C2FEC0
:101B800024B2844207DD0E4B28462021324659F00C
:101B9000D5FE00200EE00B4801A90DF1060230F041
:101BA0007BF9BDF80430002BDED0284620213246D8
:101BB000054BECE702B070BDF8140020D02D0020DA
:101BC000715B0C082C430020585B0C0830B50446B0
:101BD00087B01E480D4649F023F9A0B31B4849F0D1
:101BE0001FF9012806D8204620212A46184B59F013
:101BF000A5FE26E0174842F6C553C35C1BB300F5AB
:101C0000147004A905AA49F0E1F9E0B19DED057A47
:101C1000DFED117AB4EEE77AF1EE10FA14D8DDEDCB
:101C2000047AFDEEE77A17EE100ACDED007AFEF7A2
:101C300091FC2A46CDE90201084B2046202159F0AB
:101C40007DFE002000E0012007B030BD48170020D5
:101C5000955B0C08F81400209A99193FAC5B0C08AE
:101C60002DE9F8432DED028BC388012B05460C4668
:101C700004D09A0602D44FF0010860E2BE4E30460E
:101C800010F038FF804640B1BC4B28462021224648
:101C900059F054FE4FF0000851E296F944306BB110
:101CA000D6F8C039B3F90410B6F9463003F10A0288
:101CB000914211DD40F28D3293420DDDB388AE4A80
:101CC000A3F57A739BB241F658318B420BD9284663
:101CD00020212246AA4B03E0AA4B28462021224677
:101CE00059F02CFE2BE242F6904392ED207AD35825
:101CF000D3ED097AB4EEE77AF1EE10FA08DC92ED52
:101D0000217AD3ED0A7AB4EEE77AF1EE10FA04DD27
:101D10002846202122469C4BE2E742F2A103D356FB
:101D200043B19A482EF014FE20B9284620212246BD
:101D3000974BADE742F694032146F0588E4F036867
:101D40001B6C984720B9284620212246914B9FE7DB
:101D500097F98C320D2B1CD097F95F302B2B00F0AC
:101D6000988097F960302B2B00F0938097F96130C1
:101D70002B2B00F08E8097F962302B2B00F089809E
:101D800097F963302B2B00F0848097F964302B2B6C
:101D90007FD028462146FFF7DFFE002800F0CF81E4
:101DA00042F68D03744FF35C9B06284603D5202131
:101DB0002246794B94E72146FFF708FF002800F000
:101DC000BE8142F694439FED758AFB58D3ED1B7A92
:101DD000F0EEE77AF4EEC87AF1EE10FA03D5284671
:101DE00021466F4A8DE1D3ED087AF0EEE77AF4EE02
:101DF000C87AF1EE10FA03D528462146694A80E1F7
:101E0000D3ED097AF0EEE77AF4EEC87AF1EE10FA43
:101E100003D528462146644A73E1D3ED0A7AF0EEF1
:101E2000E77AF4EEC87AF1EE10FA03D52846214697
:101E30005E4A66E1D3ED0B7AF0EEE77AF4EEC87A0B
:101E4000F1EE10FA03D528462146594A59E142F6E7
:101E5000904957F8090003689B689847D0ED007ACD
:101E6000F0EEE77AF4EEC87AF1EE10FA1BD557F8E7
:101E7000090003689B689847D0ED057AF0EEE77A91
:101E8000F4EEC87AF1EE10FA0DD528462146494AFB
:101E900037E1002C00F053813BF040FD0221464A1F
:101EA00037F028FF4BE142F69047F05903689B68F2
:101EB0009847D0ED017AF0EEE77AF4EEC87AF1EEC9
:101EC00010FA13D52C4BD85903689B689847D0ED6E
:101ED000057A9FED327AF0EEE77AF4EEC77AF1EE0A
:101EE00010FA03D528462146344A0AE142F69047C3
:101EF000F05903689B689847D0ED027AF0EEE77AD4
:101F0000F4EEC87AF1EE10FA13D51B4BD8590368DA
:101F10009B689847D0ED057A9FED207AF0EEE77A3E
:101F2000F4EEC77AF1EE10FA03D528462146244A8A
:101F3000E7E042F69047F0590368DB689847D0ED38
:101F4000007AF0EEE77AF4EEC87AF1EE10FA3BD5BB
:101F5000094BD8590368DB689847D0ED057A9FEDA7
:101F60000F7AF0EEE77AF4EEC77AF1EE10FA2BD59D
:101F700028462146134AC4E0F8140020C55B0C082B
:101F8000B35C0C08A05C0C08C35C0C08D02D0020CE
:101F9000D75C0C08E25B0C08295C0C0800000034DC
:101FA0003E5C0C084A5C0C08555C0C08605C0C0834
:101FB0006B5C0C08EA5C0C08FC5B0C08F85C0C0819
:101FC000065D0C08145D0C0842F69047F059036852
:101FD000DB689847D0ED017AF0EEE77AF4EEC87A44
:101FE000F1EE10FA13D5584BD8590368DB689847BF
:101FF000D0ED057A9FED557AF0EEE77AF4EEC77AE8
:10200000F1EE10FA03D528462146514A79E042F60E
:102010009047F0590368DB689847D0ED027AF0EEFC
:10202000E77AF4EEC87AF1EE10FA13D5464BD85998
:102030000368DB689847D0ED057A9FED447AF0EEAF
:10204000E77AF4EEC77AF1EE10FA03D52846214676
:10205000404A56E042F69047F05903681B6998479A
:10206000D0ED007AF0EEE77AF4EEC87AF1EE10FAED
:102070000FD5354BD85903681B699847D0ED057AC1
:102080009FED327AF0EEE77AF4EEC77AF1EE10FACD
:1020900022D442F69047F05903681B699847D0ED67
:1020A000017AF0EEE77AF4EEC87AF1EE10FA17D57D
:1020B000254BD85903681B699847D0ED057A9FEDE9
:1020C000237AF0EEE77AF4EEC77AF1EE10FA07D54C
:1020D00028462146204A14E0284621461F4A10E09F
:1020E00042F690439FED197AF358D3ED0A7AF0EE59
:1020F000E77AF4EEC87AF1EE10FA05D5184A2846C8
:102100002146FFF7DBFC1AE0D3ED097AF0EEE77A1F
:10211000F4EEC77AF1EE10FA03D528462146114AAB
:10212000EFE7D3ED0B7AF0EEE77AF4EEC77AF1EE53
:1021300010FA7FF5A0AD284621460B4AE1E7BDEC39
:10214000028B4046BDE8F883F814002000000034FC
:10215000225D0C08305D0C084C5D0C083E5D0C08DF
:10216000765C0C08845C0C08925C0C082DE9F04F3E
:10217000824680699046026885B0D2F8B0200D464C
:102180009047044620B9504621462A467D4B16E02A
:10219000DAF81C0017F098FC044638B150460021CC
:1021A0002A46794B59F0CAFB0024E6E0DAF81C20F5
:1021B00092F83D2032B1754B504621462A4659F0DF
:1021C000BDFBDAE0724F42F63C02414617F802903E
:1021D00043F69C723E46B85802685269904720B94F
:1021E000504621462A466B4BE9E750462946FFF701
:1021F00073FC0390002800F0C08042F63A0B17F8F9
:102200000B2002F02402242A04D1504621462A46FB
:10221000614BD4E738461F2110F0BAFB20B938468D
:10222000214600F05DFB08E038461F2110F0B0FBAE
:1022300018B117F80B20130728D4BAF806201AB3E0
:10224000012A2AD0D70628D4BAF8062011B20129CB
:1022500045D0900643D401E001294AD0520648D423
:102260004E4A1268506C026852699047012804D1A6
:10227000504600212A464A4BA1E75046414605B048
:10228000BDE8F04F59F02EBF039C76E03BF046FBD3
:102290000221444A37F02EFD6FE0DAF81820D2ED23
:1022A000517A92ED500A20EE270AABF069FDDFED7E
:1022B0003E7AB6F9043020EE270ADFED3C7A20EEB4
:1022C000270A07EE903AF8EEE77AB4EEE70AF1EE65
:1022D00010FAB9DD504610212A46354B6FE742F619
:1022E0008D00305C8306B7D5504620212A46314BFD
:1022F00065E796F94410264A39B1D2F8C019B2F907
:102300004620B1F9001091422FDBB8F1000F03D045
:1023100009F0EF02042AA3D0D6F8C0291C4FB2F965
:10232000023000EE103A3846B8EEC00A00F06EFFF8
:10233000B5EEC00AF1EE10FA06DD1F4A00925046D3
:1023400040212A461D4B16E043F69C72B85802689D
:102350001269904710B9B9F10B0F81D1D6F8C02995
:10236000B2F90220002AE8DC7AE7134A144B009203
:10237000504640212A4659F0E1FA204605B0BDE812
:10238000F08F00BF5A5D0C08715D0C088D5D0C0864
:10239000F8140020B05D0C08C15D0C08F01400209A
:1023A000F85D0C08065E0C08E02E65420000C8428D
:1023B000D95D0C08295C0C08ED5D0C08E15D0C088A
:1023C000235E0C0870B503680D4D5B680E46012155
:1023D0000446984742F638010A4A6B5C507260F333
:1023E00004136B5403F0100303F0FF0033B12046D5
:1023F00032460121BDE87040FFF7B8BE70BD00BF96
:10240000F8140020F05D00202DE9F04142F694031D
:10241000264FFB580546587910F001040E46B84681
:1024200002D00120BDE8F0813846202110F0B0FA3A
:1024300068B138461F2110F0ABFA40B1284621465A
:1024400032461B4B59F07AFA2046BDE8F08142F63D
:102450003A0318F8033003F02403242B05D128464F
:1024600000213246134B59F069FAB5F90630002BBA
:10247000D7D031462846FFF7FBFA314604462846B6
:10248000FFF7EEFB20403146C4B22846FFF724FB9D
:10249000314604402846FFF737FB314604402846C2
:1024A00059F0E6FD2040BDE8F08100BFF81400209F
:1024B000355E0C08C15D0C0870B505460E4659F036
