:100000000C9420240C9451240C9451240C945124CD
:100010000C9451240C9451240C9451240C9406E912
:100020000C9451240C9451240C9451240C9451247C
:100030000C9451240C9451240C9451240D94EF5D94
:100040000C9451240C9451240C9451240C9451245C
:100050000C9451240C9451240C9451240C949BF333
:100060000C9451240C94ACE90C94DCE90C945124CC
:100070000C9451240C9451240C9451240C9451242C
:100080000C9451240C9451240C9451240C9451241C
:100090000C9418EA0C9448EA0C9451240C94EAED60
:1000A0000C9451240D941D5E0C9451240C945124F5
:1000B0000C9451240C9451240D944B5E0C945124B7
:1000C0000C9451240C9451240C9451240C9484EAE3
:1000D0000C94B4EA0C9451240C9451240C945124A3
:1000E0000C94512494279C27A427AC27B427BC2721
:1000F000C427CC27D427DC27E427F427EC27FF2DBF
:10010000182E742E422E5B2E962EB82EEB2EFC2E21
:10011000132F6330262F6330A32F63306330B42F47
:10012000CD2FE62F6330E62D582F8A2F852E312EC6
:10013000A72E3F2F712F633063306330FF2FC92EFE
:10014000173028303930DA2E4A301C4B1C4B1F4BED
:10015000244B764B764B2D4B2D4B704B1A4D1D4D32
:10016000204D234D264D294D2C4D2F4D324D904E77
:10017000AA53F64E364FCC4F6250C3509E51245274
:100180009752B652015354546D541955A055035605
:1001900072561B57C157E657145845587658B058F1
:1001A000347134712E71D47010712E7134712E71BE
:1001B0003471E675A175F17501764A76207666761A
:1001C00010762E7658766E7676768E762F77347712
:1001D0004A777277BC773C7845785C78777B8C7B04
:1001E000937B7E7B857B9A7BD97BBD7BB67BAF7B0C
:1001F000C47BCB7BD27BA17BA87BEF7BDF7BFB7BB4
:10020000017C077C117C0D7CBA80C780EB80338138
:100210004E815781A581AE81DA8175A093A0A8A0F7
:1002200088A206A16EA1DDA01BA188A288A288A237
:1002300088A288A288A288A288A288A288A288A26E
:1002400088A288A288A288A288A288A288A29CA14B
:100250009FA1A4A1EBAC09AD0EAD15AD1AADA7BE23
:1002600021ADA7BEA7BEA7BE26AD2DAD32AD48F0CD
:1002700048F04DF04DF04DF052F052F052F064F075
:1002800057F057F071F075F07BF07FF083F089F054
:100290008DF091F0A0F097F09BF0D3F0D7F0DDF067
:1002A000E1F0E5F0EBF0EFF0F3F002F1F9F0FDF042
:1002B00044F149F14EF153F158F15DF162F167F10A
:1002C00075F16CF171F1A3F1A8F1ADF1B2F1B7F1F3
:1002D000BCF1C1F1C6F1D5F1CBF1D0F1D223B223FB
:1002E000D02274230023DC235622E8231423FE2289
:1002F0003C238A2372227422EC22D422B22290223E
:10030000C0235E234E22A022FC2308234C23EE238D
:10031000EE23C623DA23D623E022BA2292234A22EE
:1003200080234423442340224423DE22DE22DE2293
:10033000DE22DE224423DE22DE22DE22DE224022F4
:100340004022402240224022036EDB363D9A99999A
:10035000993DABAAAA2A3E000000803F084AD73B3D
:100360003BCE016E84BCBFFDC12F3D6C74319ABD84
:1003700056833DDA3D00C77F11BED9E4BB4C3E91A8
:100380006BAAAABE000000803F07634236B79BD825
:10039000A71A39685618AEBAAB558C1D3CB7CC5766
:1003A00063BD6DEDFD753EF6177231BF0000008034
:1003B0003F072C7AA5BA6CC590DA3B9365FC8BBCE1
:1003C00053F810FD3C5692834DBD879D3AB63DCB08
:1003D000C9BF5BBE73DA0FC93F05A84CCDB2D44E7E
:1003E000B93836A9020C50B9918688083CA6AAAA49
:1003F0002ABE000000803F08000000BE922449127F
:100400003EABAAAA2ABECDCCCC4C3E00000080BE9A
:10041000ABAAAAAA3E00000000BF000000803F0077
:1004200000000000084178D3BB4387D1133D190E6B
:100430003CC3BD4282AD2B3E68EC8276BED98FE1D3
:10044000A93E4C80EFFFBE01C4FF7F3F00000000CB
:10045000000664EC1B3C04BC163E3BE5B93CC93CC1
:1004600037C29E5A3D660498083EEA69AAAA3E0031
:100470000000803F0253595349445F53575F4D5228
:1004800045560000000000A60D0000000001535971
:100490005349445F53575F545950450000000001D1
:1004A000A80D000020410253595349445F54484964
:1004B000534D41560000000070A90D0000803F021E
:1004C00053595349445F4D594743530000000000BE
:1004D0000071AB0D00007F430153455249414C333D
:1004E0005F42415544000000000072AD0D00006401
:1004F000420154454C454D5F44454C415900000074
:1005000000000073AE0D000000000252544C5F4129
:100510004C5400000000000000000000A0AF0D00DF
:1005200080BB4401534F4E41525F454E41424C45C2
:10053000000000000094B10D0000000001534F4E78
:1005400041525F54595045000000000000009AB22B
:100550000D0000000001424154545F4D4F4E49547C
:100560004F5200000000008DB30D00000000014656
:10057000535F424154545F454E41424C4500000098
:10058000C1BE0D000000000146535F4750535F4558
:100590004E41424C4500000000C3BF0D000000006A
:1005A00004564F4C545F444956494445520000009C
:1005B00000008EB40D0AD7634004414D505F504592
:1005C000525F564F4C5400000000008FB80D5C8FF6
:1005D000DA4102424154545F434150414349545926
:1005E0000000000091BC0D0000DC44014D41475F5C
:1005F000454E41424C450000000000000092C00DF5
:100600000000803F01464C4F575F454E41424C45EC
:1006100000000000000096C10D00000000044C4FD7
:10062000575F564F4C540000000000000000009738
:10063000C20D000028410153555045525F53494DAA
:10064000504C4500000000009BC60D000000000259
:1006500052544C5F414C545F46494E414C0000009F
:1006600000A3C70D0000484301424154545F564F58
:100670004C545F50494E00000000A8CB0D00008094
:100680003F01424154545F435552525F50494E001E
:10069000000000A9CC0D0000004001525353495FF7
:1006A00050494E00000000000000000018CD0D0071
:1006B0000080BF015448525F4143435F454E414271
:1006C0004C4500000019CE0D0000803F01594157F4
:1006D0005F4F56525F4245484156450000001ACFD1
:1006E0000D000000000157505F544F54414C000072
:1006F00000000000000000D3D00D000000000157F2
:10070000505F494E444558000000000000000000C2
:10071000D4D10D0000000002434952434C455F52C2
:10072000414449555300000000D7D20D000020413C
:100730000352544C5F4C4F49545F54494D4500009F
:100740000000A2D40D00409C45024C414E445F5332
:100750005045454400000000000000D9D80D0000BD
:100760004842024155544F5F56454C5A5F4D494EE1
:1007700000000000DADA0D0000FAC2024155544FC1
:100780005F56454C5A5F4D415800000000DBDC0DC0
:100790000000FA420250494C4F545F56454C5A5F94
:1007A0004D41580000001CDE0D00007A4302544801
:1007B000525F4D494E00000000000000000000B4F0
:1007C000E00D00000243025448525F4D41580000C2
:1007D0000000000000000000B5E20D00007A4401B6
:1007E00046535F5448525F454E41424C450000001D
:1007F00000B6E40D000000000246535F5448525F0B
:1008000056414C55450000000000B8E50D00C0738E
:1008100044025452494D5F5448524F54544C450081
:10082000000000B9E70D0000E143025448525F4D5B
:10083000494400000000000000000000C2E90D0073
:1008400000FA4301464C544D4F444531000000002E
:100850000000000000C8EB0D0000000001464C54F1
:100860004D4F444532000000000000000000C9EC7C
:100870000D0000000001464C544D4F44453300002C
:1008800000000000000000CAED0D0000000001465D
:100890004C544D4F4445340000000000000000005F
:1008A000CBEE0D0000000001464C544D4F44453541
:1008B000000000000000000000CCEF0D0000000070
:1008C00001464C544D4F44453600000000000000E6
:1008D0000000CDF00D000000000153494D504C4583
:1008E0000000000000000000000000CEF10D00003C
:1008F0000000024C4F475F4249544D41534B0000AA
:100900000000000014F20D0000BF4301544F595F76
:100910005241544500000000000000000016F40D94
:100920000000803F0145534300000000000000002C
:10093000000000000000BAF50D0000000001545551
:100940004E4500000000000000000000000000BB59
:10095000F60D000000000254554E455F4C4F570005
:100960000000000000000000BDF90D0000000002C2
:1009700054554E455F4849474800000000000000BC
:1009800000BCF70D00007A44014652414D4500007D
:100990000000000000000000000095FB0D000000BA
:1009A00000014348375F4F50540000000000000032
:1009B00000000098FC0D0000E040024155544F5FDC
:1009C000534C4557000000000000000099FD0D0049
:1009D000003442085243315F000000000000000074
:1009E0000000000000AAFF0DCC4100000852433275
:1009F0005F00000000000000000000000000AB1CD1
:100A00000ECC410000085243335F0000000000009C
:100A100000000000000000AC390ECC41000008527C
:100A200043345F00000000000000000000000000F0
:100A3000AD560ECC410000085243355F0000000067
:100A4000000000000000000000AE730E81410000B5
:100A5000085243365F000000000000000000000064
:100A60000000AF910E81410000085243375F000043
:100A70000000000000000000000000B0AF0E814147
:100A80000000085243385F00000000000000000032
:100A900000000000B1CD0E8141000008524331300A
:100AA0005F000000000000000000000000B2EB0E3C
:100AB0008141000008524331315F00000000000016
:100AC000000000000000B3090F8141000002524302
:100AD0005F5350454544000000000000000000C086
:100AE000270F0000F543044143524F5F50000000C0
:100AF0000000000000000000DD290F000090400110
:100B0000415849535F454E41424C450000000000AA
:100B1000009DC90D0000803F024143524F5F42419A
:100B20004C5F524F4C4C00000000EF2D0F0000486E
:100B300043024143524F5F42414C5F504954434846
:100B4000000000F02F0F00004843014143524F5F67
:100B5000545241494E455200000000001B310F0025
:100B600000803F014C45445F4D4F4445000000006C
:100B700000000000009ECA0D0000104108524154C0
:100B8000455F524C4C5F0000000000000000DF3267
:100B90000F0728000008524154455F5049545F0038
:100BA00000000000000000E04C0F07280000085281
:100BB0004154455F5941575F0000000000000000AC
:100BC000E1660F07280000084C4F495445525F4C1E
:100BD00041545F000000000000E7800F072800007C
:100BE000084C4F495445525F4C4F4E5F0000000087
:100BF0000000E89A0F07280000085448525F52414D
:100C000054455F0000000000000000ECB40F07280E
:100C10000000085448525F414343454C5F000000C8
:100C200000000000F1CE0F07280000084F465F5279
:100C30004C4C5F00000000000000000000EDE80FD9
:100C400007280000084F465F5049545F000000002D
:100C5000000000000000EE021007280000085354B6
:100C6000425F524C4C5F000000000000000000E2B8
:100C70003810CF280000085354425F5049545F0099
:100C80000000000000000000E34610CF280000082C
:100C90005354425F5941575F0000000000000000BC
:100CA00000E45410CF280000085448525F414C54CF
:100CB0005F000000000000000000EB6210CF280081
:100CC0000008484C445F4C41545F000000000000A5
:100CD000000000E51C10CF28000008484C445F4C81
:100CE0004F4E5F000000000000000000E62A10CF19
:100CF0002800000843414D5F000000000000000094
:100D00000000000000A57A073E2D000008434F4D6B
:100D1000504153535F000000000000000000937139
:100D20000BBB2D000008494E41565F00000000003B
:100D300000000000000000643008D03700000857B1
:100D4000504E41565F00000000000000000000000F
:100D500065850784280000085352305F00000000BA
:100D60000000000000000000006E5D0A830E00001D
:100D7000085352335F000000000000000000000034
:100D800000006F0D0A830E000008414852535F00B7
:100D900000000000000000000000009F980C3329B4
:100DA0000000084D4E545F000000000000000000ED
:100DB00000000000A60707C83C000008474E445F3B
:100DC000000000000000000000000000000B070B06
:100DD000142A00000853434845445F000000000007
:100DE0000000000000000C960D233F0000084C4955
:100DF0004D5F000000000000000000000000004106
:100E0000E006353B0000084C494D5F000000000043
:100E1000000000000000000042D506B83A000008BB
:100E20004C494D5F00000000000000000000000081
:100E300000438A06223A0000084C494D5F0000003A
:100E400000000000000000000000447706A5390003
:100E500000084D4F545F000000000000000000003B
:100E60000000005A3A09203C000000000000000089
:100E70000000000000000000000000000000000072
:100E800000000002005241575F53454E53000000DE
:100E90000000000000003000000000000201455882
:100EA000545F535441540000000000000000003221
:100EB0000000000000020252435F4348414E000020
:100EC00000000000000000003400000000000203E9
:100ED0005241575F4354524C000000000000000094
:100EE000003600000000000204504F534954494F9F
:100EF0004E0000000000000000003800000000006C
:100F00000205455854524131000000000000000025
:100F10000000003A0000000000020645585452410B
:100F20003200000000000000000000003C00000053
:100F300000000207455854524133000000000000F1
:100F400000000000003E0000000000020850415276
:100F5000414D530000000000000000000000400070
:100F60000000000000FF0000000000000000000082
:100F700000000000000000000000000000FE9D02D4
:100F8000008403BE600A00F4012F9F0200BC025BD4
:100F90002A0500E80374820200B603C17C0A00201F
:100FA00003EC8E0A00F4011AC00200BC021D80642A
:100FB00000BC02FD7F0200DC051A800200B004A123
:100FC000340200BC020E2602008403AA8264004C94
:100FD000049A6EE803F401504552463A2025752FD5
:100FE000257520256C750A0044495341524D494EE0
:100FF00047204D4F544F5253004C696D6974732014
:101000002D205374617465206368616E67653A20B2
:10101000494E4954004C696D697473202D205374F6
:10102000617465206368616E67653A204449534185
:10103000424C4544004C696D697473202D205374F3
:10104000617465206368616E67653A20454E414270
:101050004C4544004C696D697473202D20537461B4
:101060007465206368616E67653A2054524947474A
:1010700045524544004C696D697473202D205374AA
:10108000617465206368616E67653A205245434F1D
:10109000564552494E47004C696D697473202D20A6
:1010A0005374617465206368616E67653A205245C8
:1010B000434F5645524544004C696D697473202D69
:1010C000205374617465206368616E67653A2055CA
:1010D0004E4B4E4F574E004C696D697473202D2056
:1010E000416C6C20436C65617200214750534C6F1A
:1010F000636B002147656F66656E63650021416C17
:10110000746974756465004C696D6974732041631A
:1011100074696F6E202D2052544C004C696D6974B7
:101120007320416374696F6E202D20626F756E634A
:1011300065206D6F64652C20504F534954494F4EC4
:10114000004C696D697473205265636F76657279BE
:1011500020426F756E63653A2052657475726E69D0
:101160006E6720636F6E74726F6C20746F2070698D
:101170006C6F74004C696D697473205265636F768F
:1011800065727920457363616C6174696F6E3A2092
:1011900052544C004C696D697473202D2052657453
:1011A00075726E696E6720636F6E74726F6C730018
:1011B0004C696D6974733A20756E6B6E6F776E2033
:1011C0007374617465005265616368656420436F80
:1011D0006D6D616E6420232569004C6F772042613C
:1011E000747465727921004C696D697473202D20C7
:1011F00052756E6E696E67207072652D61726D201A
:10120000636865636B730041524D494E47205052ED
:101210004556454E544544202D204C696D69742037
:1012200042726561636865640041524D494E4720D2
:101230004D4F544F52530047524F554E4420535434
:1012400041525400494E530A002D00475F6F6666B5
:101250003A2025342E32662C2025342E32662C205E
:1012600025342E32660A00415F6F66663A202534C7
:101270002E32662C2025342E32662C2025342E3238
:10128000660A415F7363616C653A2025342E3266CD
:101290002C2025342E32662C2025342E32660A006E
:1012A0004C6F73742047505321000A0A496E6974C9
:1012B0002041726475436F707465722056322E3906
:1012C0002E31622D6465760A0A46726565205241A8
:1012D0004D3A2025750A004E6F2064617461666C7A
:1012E00061736820696E736572746564004552416C
:1012F00053494E47204C4F4753000A507265737351
:1013000020454E54455220332074696D6573207416
:101310006F20737461727420696E74657261637496
:101320006976652073657475700A00576169746920
:101330006E6720666F722066697273742048494C2C
:101340005F5354415445206D657373616765000AAE
:10135000526561647920746F20464C592000496EB3
:10136000697469616C6973696E672041504D2E2EF6
:101370002E004657205665723A2025640A004669B9
:10138000726D77617265206368616E67653A20658A
:10139000726173696E6720454550524F4D2E2E2E57
:1013A0000A00646F6E652E006C6F61645F616C6C27
:1013B00020746F6F6B20256C7575730A0045726120
:1013C00073696E67206C6F67730A004C6F672065E6
:1013D0007261736520636F6D706C6574650A00459A
:1013E0006E746572696E67204553432043616C6972
:1013F00062726174696F6E3A20706C65617365200A
:10140000726573746172742041504D2E0A00455309
:10141000432043616C6962726174696F6E2061631D
:10142000746976653A2070617373696E67207468B9
:10143000726F74746C65207468726F75676820745D
:101440006F20455343732E0A00434F4D5041535371
:1014500020494E4954204552524F52000A46616974
:101460006C656420746F20496E6974204F707446F7
:101470006C6F7720004C696D697473204D6F6475D3
:101480006C6573204C6F6164656400556E73757094
:10149000706F72746564207468726F74746C652008
:1014A0006D6F64653A2025642121004572723A20EF
:1014B0007461726765742073656E7420746F20693F
:1014C0006E6163746976652061636320746872205D
:1014D000636F6E74726F6C6C6572210A00636F6D5E
:1014E0006D616E642072656365697665643A20009B
:1014F000556E6B6E6F776E20706172616D6574658D
:101500007220696E64657820256400556E6B6E6F7D
:10151000776E20706172616D6574657220252E3161
:10152000367300666C6967687420706C616E207237
:1015300065636569766564006261642066656E63F3
:101540006520706F696E74006261642066656E6309
:101550006520706F696E74002D00256C642E253037
:10156000376C64004F7074466C6F770A00656E00CC
:101570006469730061626C65640A004C6F670064A3
:10158000756D7000000000000000000000967A6594
:1015900072617365000000000000000000CE8765E6
:1015A0006E61626C6500000000000000008FA664A0
:1015B000697361626C65000000000000008FA67313
:1015C000657475700065726173650000000000004D
:1015D000000000B42672657365740000000000000E
:1015E000000000CF59726164696F000000000000C4
:1015F00000000093866672616D65000000000000C7
:101600000000001F9C6D6F746F727300000000007B
:10161000000000E99B6C6576656C0000000000002E
:101620000000002135616363656C0000000000006C
:10163000000000AA346D6F646573000000000000B4
:101640000000009D8562617474657279000000007D
:10165000000000AA9B736F6E617200000000000022
:10166000000000599B636F6D706173730000000090
:10167000000000FC9A636F6D706173736D6F74008E
:101680000000003B8A74756E6500000000000000D9
:10169000000000F39A72616E6765000000000000B0
:1016A00000000067A66465636C696E6174696F6EA3
:1016B00000000090346F7074666C6F77000000005B
:1016C0000000002F7973686F7700000000000000B1
:1016D0000000006B797365740000000000000000DA
:1016E0000000008AAB41726475436F7074657220AC
:1016F00056322E392E31622D646576006C6F677319
:10170000000000000000000000006A30736574757E
:10171000700000000000000000004F5C74657374EE
:101720000000000000000000000064307265626F7D
:101730006F740000000000000000822768656C7074
:10174000000000000000000000005F277465737453
:101750000070776D00000000000000000000002E07
:1017600085726164696F000000000000000000C520
:101770008467707300000000000000000000006932
:101780006B696E730000000000000000000000198B
:101790005A62617474657279000000000000004DA7
:1017A0008974756E65000000000000000000007F75
:1017B0008472656C61790000000000000000006325
:1017C000597770000000000000000000000000A138
:1017D0005B636F6D7061737300000000000000FBBD
:1017E0005A6F7074666C6F7700000000000000FE96
:1017F0005F656564756D700000000000000000D139
:101800002B6C6F6767696E6700000000000000BA0C
:101810002B6E61760000000000000000000000A1B7
:101820006F6C6F677320656E61626C65643A20004F
:101830006E6F6E65002041545449545544455F46CF
:10184000415354002041545449545544455F4D453B
:101850004400204750530020504D00204354554E23
:1018600000204E54554E0020494D550020434D4414
:10187000002043555252454E5400204D4F544F5274
:101880005300204F5054464C4F57002050494400BD
:1018900020434F4D504153530020494E41560020A4
:1018A00043414D455241000A4E6F206C6F67730AE9
:1018B0000A000A2575206C6F67730A004C6F672059
:1018C00025642C2020202073746172742025642CE0
:1018D000202020656E642025640A00626561723AEA
:1018E00020256C640A0054657374696E6720646116
:1018F0007461666C617368206C6F6767696E6700FE
:10190000253034783A002025303278004F70744604
:101910006C6F773A20006D616E2069643A2025640F
:101920000900782F64783A2025642F2564092079EE
:101930002F64792025642F25640920737175616CEB
:101940003A25640A0048697420456E7465722074F3
:101950006F20657869742E0A0A00436F6D70617399
:10196000733A200048656164696E673A20256C64AB
:101970002C2058595A3A2025642C2025642C2025E7
:10198000640A006E6F74206865616C746879004841
:101990006F6C6420616C7420000A006F66202564FF
:1019A0006D0A0025642077700A004869742072610E
:1019B000643A2025646D0A00636D64233A2025642F
:1019C000207C2025642C2025642C2025642C2025B7
:1019D0006C642C20256C642C20256C640A005265F4
:1019E0006C6179206F6E0A0052656C6179206F66B8
:1019F000660A0074756E653A2025312E33660A003A
:101A00000A4361726566756C21204D6F746F727345
:101A10002077696C6C207370696E21205072657339
:101A20007320456E74657220746F207374617274D4
:101A30002E0A00563A2025342E34660A00563A20E3
:101A400025342E34662C20413A2025342E34662C41
:101A50002041683A2025342E34660A00494E530A44
:101A600000612025372E34662025372E3466202548
:101A7000372E346620672025372E34662025372EF2
:101A800034662025372E34662074202537346620AE
:101A90007C2025372E34660A004C61743A20002CD5
:101AA000204C6F6E20002C20416C743A20256C6411
:101AB0006D2C2023736174733A2025640A002E0074
:101AC000494E2020313A20256409323A2025640904
:101AD000333A20256409343A20256409353A202513
:101AE0006409363A20256409373A2025640A0049FA
:101AF0004E3A20313A20256409323A2025640933D0
:101B00003A20256409343A20256409353A202564B1
:101B100009363A20256409373A20256409383A20E5
:101B200025640A00436F6D6D616E64733A0A20206C
:101B30006C6F67730A202073657475700A202074B7
:101B40006573740A20207265626F6F740A0A004917
:101B50006E76616C696420636F6D6D616E642E20BA
:101B600055736167653A20736574203C6E616D65DD
:101B70003E203C76616C75653E0A00506172616D75
:101B8000206E6F7420666F756E643A2025730A00AC
:101B900056616C7565206F7574206F662072616E7A
:101BA000676520666F72207479706520494E5438DD
:101BB0000A0056616C7565206F7574206F6620721F
:101BC000616E676520666F72207479706520494E7A
:101BD0005431360A0043616E6E6F74207365742051
:101BE000706172616D65746572206F6620747970C2
:101BF000652025642E0A00506172616D65746572FE
:101C0000206E6F7420666F756E643A2027257327E7
:101C10000A00494E5438202025733A2025640A00D2
:101C2000494E5431362025733A2025640A00494E26
:101C30005433322025733A20256C640A00464C4FF9
:101C400041542025733A2025660A00556E68616E5E
:101C5000646C656420706172616D65746572207476
:101C600079706520666F722025733A2025642E0AEC
:101C700000526164696F0A004348313A20256420AC
:101C80007C2025640A004348323A202564207C20C9
:101C900025640A004348333A202564207C202564CB
:101CA0000A004348343A202564207C2025640A0039
:101CB0004348353A202564207C2025640A004348A7
:101CC000363A202564207C2025640A004348373AB0
:101CD000202564207C2025640A004672616D650A17
:101CE0000051756164206672616D650A0058206D4F
:101CF0006F64650A002B206D6F64650A0056206DC5
:101D00006F64650A000A42617474204D6F6E3A0A6E
:101D100000766F6C747300766F6C747320616E6400
:101D20002063757200536F6E61720A00547970659A
:101D30003A2025642028303D584C2C20313D4C560B
:101D40002C20323D584C4C2C20333D48524C5629C7
:101D500000466C69676874206D6F6465730A005093
:101D60006F732025643A09002C090953696D706C62
:101D7000653A20004F46460A0053544142494C49B7
:101D80005A45004143524F00414C545F484F4C4428
:101D9000004155544F00475549444544004C4F4974
:101DA0005445520052544C00434952434C45005054
:101DB0004F534954494F4E004C414E44004F465FEB
:101DC0004C4F4954455200544F595F4D00544F59A0
:101DD0005F41002D2D2D004F4E0A00436F6D706145
:101DE00073730A004D6167204465633A2025342EE1
:101DF00034660A004D6167206F66663A2025342EEE
:101E000034662C2025342E34662C2025342E34665E
:101E10000A004D6F746F7220436F6D703A20004F4F
:101E200066660A005468726F74746C65004375725C
:101E300072656E74000A436F6D70205665633A20B8
:101E400025342E32662C2025342E32662C20253463
:101E50002E32660A006F6E006F6666000A4F703A97
:101E60005B6F6E2C206F66665D0A000A4348203661
:101E70002052616E676573206172652064697669BE
:101E800064656420627920313030303A205B6C6FB9
:101E9000772C20686967685D0A000A54554E453AF8
:101EA0000A002025642C204C6F773A25312E3466A9
:101EB0002C20486967683A25312E34660A00740080
:101EC000540063004300636F6D7061737320646935
:101ED0007361626C65642C2065786974696E670053
:101EE00063757272656E74206D6F6E69746F7220A7
:101EF00064697361626C65642C2065786974696ECD
:101F00006700546869732073657475702072656327
:101F10006F7264732074686520696D7061637420EA
:101F20006F6E2074686520636F6D70617373206FCE
:101F300066207370696E6E696E67207570207468B4
:101F400065206D6F746F72732E2020546865206D4C
:101F50006F746F72732077696C6C207370696E2177
:101F60000A486F6C64207468726F74746C65206CBE
:101F70006F772C207468656E2072616973652061CB
:101F800073206869676820617320736166656C7986
:101F900020706F737369626C6520666F72203130D8
:101FA000207365632E0A417420616E792074696D17
:101FB0006520796F75206D6179207072657373206B
:101FC000616E79206B657920746F20657869742E55
:101FD0000A6D6561737572696E6720636F6D7061FC
:101FE0007373207673200043555252454E540A00B5
:101FF0005448524F54544C450A007468726F7474BC
:102000006C65206E6F74207A65726F2C206578691C
:1020100074696E6700636F6D70617373206E6F74A7
:10202000206865616C7468792C2065786974696EC4
:1020300067007468723A2564206375723A25342EFD
:102040003266206D6F7420783A25342E31662079FF
:102050003A25342E3166207A3A25342E31662020F6
:10206000636F6D7020783A25342E326620793A25D8
:10207000342E3266207A3A25342E32660A0074688D
:10208000723A2564206375723A25342E3266206DCB
:102090006F7420783A25342E316620793A25342E13
:1020A0003166207A3A25342E31662020636F6D70B8
:1020B00020783A25342E326620793A25342E32663D
:1020C000207A3A25342E32660A004661696C6564CE
:1020D0002120436F6D70656E736174696F6E20644B
:1020E000697361626C65642E202044696420796F95
:1020F0007520666F7267657420746F2072616973F2
:102100006520746865207468726F74746C652068EB
:1021100069676820656E6F7567683F006F6E006F56
:102120006666000A4F703A5B6F6E2C6F66665D0ADA
:10213000006F6E006F6666000A4F703A5B6F6E2C20
:10214000206F66662C20302D335D0A006F666600B6
:102150000A4F703A206F66662C20332D34000A4DEA
:102160006F64652073776974636820746F20656499
:1021700069742C2061696C65726F6E3A2073656CAE
:10218000656374206D6F6465732C2072756464657B
:10219000723A2053696D706C65206F6E2F6F6666A2
:1021A0000A000A53617665640A00496E69746961C0
:1021B0006C6973696E67206779726F7300436F6E25
:1021C0006E656374206261747465727920666F72E3
:1021D000207468697320746573742E0A4D6F746F70
:1021E00072732077696C6C206E6F74207370696EE7
:1021F00020696E206368616E6E656C206F72646525
:10220000722028312C322C332C3429206275742012
:102210006279206672616D6520706F736974696F91
:102220006E206F726465722E0A46726F6E7420287B
:1022300026207269676874206F662063656E746516
:10224000726C696E6529206D6F746F722066697299
:1022500073742C207468656E20696E20636C6F63E4
:102260006B77697365206F726465722061726F7538
:102270006E64206672616D652E0A687474703A2F00
:102280002F636F64652E676F6F676C652E636F6D6C
:102290002F702F61726475636F707465722F776928
:1022A0006B692F4143325F50726F70735F322066EB
:1022B0006F722064656D6F20766964656F2E0A52B7
:1022C000656D656D62657220746F20646973636FFC
:1022D0006E6E6563742062617474657279206166E4
:1022E000746572207468697320746573742E0A4172
:1022F0006E79206B657920746F20657869742E0A79
:1023000000780070002B0076000A4F703A5B782C42
:102310002B2C765D0A000A0A526164696F205365AE
:102320007475703A000A4D6F766520616C6C20639D
:102330006F6E74726F6C7320746F20657874726541
:102340006D65732E20456E74657220746F20736105
:1023500076653A20000A275927203D20666163747C
:102360006F72792072657365742C20616E79206FAD
:1023700074686572206B657920746F2061626F727A
:10238000743A0A000A5265626F6F742041504D0022
:102390000A45726173696E6720454550524F4D0A78
:1023A00000646F6E650A005365747570204D6F642C
:1023B000650A0A0A000A215761726E696E672C204D
:1023C000726164696F206E6F7420636F6E666967F7
:1023D0007572656421000A20547970652027726146
:1023E00064696F27206E6F772E0A0A006D69737318
:1023F000696E67206C6F6720747970650A00616C84
:102400006C0041545449545544455F46415354006F
:1024100041545449545544455F4D45440047505339
:1024200000504D004354554E004E54554E004D4FF4
:10243000444500494D5500434D44004355525245D3
:102440004E54004D4F544F5253004F5054464C4F32
:10245000570050494400434F4D5041535300494E9B
:1024600041560043414D45524100656E61626C65C5
:102470000064756D70696E6720616C6C0A00626142
:1024800064206C6F67206E756D6265720A000A4188
:10249000726475436F707465722056322E392E3116
:1024A000622D6465760A467265652052414D3A2078
:1024B00025750A0041504D2032004154542C2025EE
:1024C000642C2025642C2025642C2025642C2025B8
:1024D000642C2025752C2025750A004D4F442C00B6
:1024E0002C2025640A004354554E2C2025642C20B2
:1024F00025642C20256C642C2025342E30662C205D
:1025000025642C2025642C2025642C2025642C2077
:1025100025640A004E54554E2C20256C752C202520
:10252000642C20252E30662C20252E30662C20256C
:10253000642C2025642C2025642C2025640A00505E
:102540004D2C2025752C2025752C2025752C20251B
:10255000752C2025752C20256C750A00494D552CAD
:102560002025342E34662C2025342E34662C20254C
:10257000342E34662C2025342E34662C2025342E1F
:1025800034662C2025342E34660A00434D442C201A
:1025900025752C2025752C2025752C2025752C20A3
:1025A00025752C20256C642C20256C642C20256C32
:1025B000640A0043555252454E542C2025642C2069
:1025C000256C752C2025342E34662C2025342E3491
:1025D000662C2025640A0053544152542055500A59
:1025E000004D4F542C2025642C2025642C2025647C
:1025F0002C2025640A004F462C2025642C202564BD
:102600002C2025642C2025642C2025642C202534A6
:102610002E37662C2025342E37662C20256C642C12
:1026200020256C640A004750532C20256C752C2003
:1026300025752C20002C20002C2025342E34662CCF
:102640002025342E34662C20256C752C20256C64B6
:102650000A0045562C2025750A005049442D257541
:102660002C20256C642C20256C642C20256C642C7B
:1026700020256C642C20256C642C2025342E346697
:102680000A00434F4D504153532C2025642C2025E4
:10269000642C2025642C2025642C2025642C2025E6
:1026A000642C2025642C2025642C2025640A0044F9
:1026B0004D502C2025642C2025642C2025642C20B2
:1026C00025642C2025752C2025750A00494E41567D
:1026D0002C2025642C2025642C2025642C202536D4
:1026E0002E34662C2025362E34662C2025362E34AA
:1026F000662C20256C642C20256C642C2025362E1D
:1027000034662C2025362E34662C2025362E346651
:102710002C2025362E34660A0043414D4552412C6B
:1027200020256C752C20002C20002C20256C642C7E
:102730002025642C2025642C2025750A0045525242
:102740002C20004D41494E00524144494F00434F17
:102750004D004F46004653524144494F00465342B4
:10276000415454004653475053002575002C2025F2
:10277000750A00444154412C2025752C2025640AFB
:1027800000444154412C2025752C2025750A004415
:102790004154412C2025752C20256C640A004441AD
:1027A00054412C2025752C20256C750A0044415479
:1027B000412C2025752C2025312E36660A005750D5
:1027C0004E41562C2025342E32662C2025342E32B4
:1027D000662C2025342E32662C2025342E32662C91
:1027E0002025342E32662C2025342E32662C2025CE
:1027F000342E32662C2025342E32662C20256C6433
:102800002C20256C640A0004005000000000000029
:1028100000000000000000000000000000000000B8
:10282000040149000000000000000000000000005A
:10283000000000040000000000040244000000004A
:102840000000000000000000000000000800000080
:1028500000000203494D4158000000000000000044
:1028600000000000000C000000000000FF0000005D
:102870000000000000000000000000000000000058
:1028800000000000040053504545440000000000D3
:10289000000000000000000A000000FA430401529A
:1028A00041444955530000000000000000000000B2
:1028B00012000000484300FF00000000000000007C
:1028C0000000000000000000000000000000000404
:1028D00000500000000000000000000000000000A8
:1028E000000000000000000004014900000000009A
:1028F00000000000000000000000000400000000D4
:10290000000202494D415800000000000000000094
:102910000000000008000000000000FF00000000B0
:1029200000000000000000000000000000000000A7
:1029300000000004024750535F4741494E00000029
:1029400000000000000028000000803F0103475005
:10295000535F555345000000000000000000002CAC
:10296000000000803F04045941575F500000000000
:10297000000000000000000020009A99993E040524
:1029800052505F50000000000000000000000000F6
:102990000024009A99993E010657494E445F4D41E3
:1029A000580000000000000000002D0000000000A2
:1029B00005085452494D00000000000000000000CE
:1029C0000000003C000000000001094F5249454E44
:1029D000544154494F4E0000000000002E000000FA
:1029E0000000040A434F4D505F424554410000002F
:1029F00000000000001C00CDCCCC3D00FF0000001A
:102A000000000000000000000000000000000000C6
:102A10000000000004024142535F505245535300EE
:102A2000000000000000000C00000000000403543F
:102A3000454D5000000000000000000000000000B4
:102A400008000000000000FF00000000000000007F
:102A50000000000000000000000000000000005026
:102A6000414E49433A2041505F4261726F3A3A7297
:102A700065616420756E7375636365737366756CE9
:102A800020666F72206D6F7265207468616E2035EC
:102A900030306D7320696E2041505F4261726F3A31
:102AA0003A63616C696272617465205B315D0D0A25
:102AB0000050414E49433A2041505F4261726F3AA3
:102AC0003A7265616420756E7375636365737366CE
:102AD000756C20666F72206D6F7265207468616E10
:102AE000203530306D7320696E2041505F42617235
:102AF0006F3A3A63616C696272617465205B325D42
:102B00000D0A0050414E49433A2041505F426172E4
:102B10006F3A3A7265616420756E737563636573AD
:102B20007366756C20666F72206D6F7265207468B5
:102B3000616E203530306D7320696E2041505F42E8
:102B400061726F3A3A63616C696272617465205BAD
:102B5000335D0D0A0050414E49433A2041505F42D7
:102B600061726F5F4D533536313120646964206E78
:102B70006F74206765742076616C696420535049D6
:102B800020646576696365206472697665722100E8
:102B900050414E49433A2041505F4261726F5F4D50
:102BA000533536313120646964206E6F7420676557
:102BB000742076616C6964205350492073656D619F
:102BC0007068726F65210050414E49433A2066613A
:102BD000696C656420746F2074616B65205F73702D
:102BE000695F73656D203130302074696D657320C5
:102BF000696E206120726F772C20696E2041505FD2
:102C00004261726F5F4D53353631313A3A5F7570BC
:102C1000646174650050414E49433A2041505F421F
:102C200061726F5F4D533536313120646964206EB7
:102C30006F74206765742076616C69642049324343
:102C40002073656D617068726F65210050414E4957
:102C5000433A206661696C656420746F2074616B0F
:102C600065205F6932635F73656D20313030207499
:102C7000696D657320696E206120726F772C206901
:102C80006E2041505F4261726F5F4D533536313176
:102C90003A3A5F7570646174650050414E49433A39
:102CA0002041505F4261726F5F4D53353631313A8A
:102CB000204E554C4C2073657269616C20647269BA
:102CC0007665720050414E49433A2041505F42615F
:102CD000726F5F4D53353631313A206661696C65EC
:102CE0006420746F2074616B652073657269616C18
:102CF0002073656D6170686F726520666F72206900
:102D00006E69740050414E49433A2041505F426120
:102D1000726F5F4D533536313120746F6F6B206D9C
:102D20006F7265207468616E20313030306D7320B1
:102D3000746F20696E697469616C697A650001005D
:102D400054524947475F5459504500000000000065
:102D50000000000000000001014455524154494F59
:102D60004E000000000000000000010000002041B3
:102D70000202534552564F5F4F4E000000000000C4
:102D800000000002000080A2440203534552564F47
:102D90005F4F464600000000000000000400008075
:102DA000894400FF00000000000000000000000057
:102DB000000000000000000000000005014F465325
:102DC00000000000000000000000000000001200F1
:102DD0000000000004024445430000000000000021
:102DE000000000000000001E000000000001034C75
:102DF0004541524E000000000000000000000000AD
:102E00000F000000803F0104555345000000000002
:102E100000000000000000000022000000803F01D0
:102E2000054155544F444543000000000000000098
:102E3000000023000000803F01064D4F5443540022
:102E400000000000000000000000009E00000000E4
:102E50000005074D4F540000000000000000000076
:102E6000000000009F000000000000FF00000000C4
:102E70000000000000000000000000000000000052
:102E800000000043757276653A00783A0009793A95
:102E90000009736C6F70653A0043757276653A008D
:102EA000783A0009793A0009736C6F70653A00430B
:102EB000757276653A00783A0009793A0009736CC0
:102EC0006F70653A0043757276653A00783A00098A
:102ED000793A0009736C6F70653A004375727665D4
:102EE0003A00783A0009793A0009736C6F70653AD4
:102EF0000043757276653A00783A0009793A00091C
:102F0000736C6F70653A0096918C87827D78736ED2
:102F100069645F5A55504B46413C37322D28231E79
:102F200019140F0A050004090E13181D22272C314D
:102F3000363B40454A4F54595E63686D72777C81D9
:102F4000868B90959A9FA4A9AEB3AFAAA5A09B9695
:102F50008F89837E78736E69645F5A55504B474200
:102F60003E3935302C27231F1B16120E090501038D
:102F7000070B1014191D22262B2F34393D42474CC4
:102F800051565B60656B70757B80868C92979DA3B4
:102F9000A9AFB2ACA6A09A948F827C76706B656064
:102FA0005C57524E4A46413D3936322E2A26221F60
:102FB0001B1713100C08040102060A0E12161A1E23
:102FC00022262B2F33383D41464B4F54595E6469BE
:102FD0006F747A80878D949BA2AAB1AEA69F9790BA
:102FE00089826F68635E5955514D4946423F3C386E
:102FF00035322E2B2824211E1A1714100D0A060311
:10300000000306090D1014181C2024282C30343914
:103010003D41464A4F54585D62676D737980878F92
:1030200098A2ACB0A59A90867D766F55514D4A47CF
:1030300044413F3C3A383533312E2B292623201D7D
:103040001A1713100D0A070401010306090D1013C6
:10305000171A1E22262A2E32363A3E42464A4E532E
:10306000575B5F64696E757C85909FB2A08D7D70A3
:1030700067605A553E3C3A393736343332302F2E5A
:103080002C2A292724221F1C191613100D0A0704A5
:1030900002000305080A0D1013161A1D2125292DFB
:1030A0003135383C4043464A4D505356595B5E617A
:1030B00065696F826D544D4A474442403E2E2E2D25
:1030C0002C2C2B2A2A2929282726252423211F1C9A
:1030D0001A1714100D0A07040101030507090C0E45
:1030E0001013161A1D2124282C3033373A3D404244
:1030F0004447484A4A4B4A48443D30190216212861
:103100002B2D2E2F2E2E06090C0F121517191B1CF6
:103110001B1811040E2231383C3C3C3A3835322F12
:103120002B2824201C1915110D09050102060A0E71
:103130001115181C1F222527292A2B2B2926211976
:1031400011080004080A0A0A080704020003061608
:10315000181A1C1E20211F1712516063625F5D59EF
:1031600056524E4A46423E3935312C2824201B17F0
:10317000130E0A060102060A0F13171B1F23262A25
:103180002D313437393C3D3F3F3E3D39352F2821E5
:103190001C17151313131416A8ADB2B0ABA6A19C3F
:1031A00097928D88837E79746F6A65605B56514C07
:1031B00047423D38332E29241F1A15100B060103F0
:1031C000080D12171C21262B30353A3F44494E5327
:1031D000585D62676C71767B80858A8F94999EA317
:1031E000A800000001FFFFE000000000000001FF58
:1031F000FFF000000000000001FFFFF800000000E9
:10320000000001FFFFFE00000000000003FFFFFFC1
:1032100000000000000003FFFFFFF00000000000BE
:103220000FFFFFFFFE00000003FFFFFC000007FC94
:1032300000007FFFFFFC000000000000001FFFFEF9
:103240000000000000241E191512100E0C0B0A09B4
:103250000909080808070606050404040304040411
:103260000000000000000000000027262123252385
:1032700025242722292A2A1C27282B3332272522D6
:103280002C333130370000000000000000000080C7
:103290001140114071327334333213121132111252
:1032A000933413145352310021030406080B2D0AE2
:1032B000090705040241C011C05112535473121181
:1032C00012515273147332310021020405060708AB
:1032D000090806070624030201020001200120114B
:1032E000C00111003132137413143312F112D312CE
:1032F000510001022325060746442342210001E034
:10330000A0313213B43311121100112011005233C5
:1033100012133211200122248504230402034241A6
:103320000001E0A05112141315131534133251404B
:103330000120115213323100012223040504050437
:1033400023010382612001E011801132135415140E
:1033500033323140210201003172314102234423D2
:1033600002012201220102614001A01180511214C8
:1033700013341514331231400102010302012052AB
:10338000111220212243042241022102A10001E066
:1033900020114051537413321140210203020302E1
:1033A0000100111211320011412223222100410299
:1033B000A1800160116011001132337413121140A9
:1033C00001620302032131121112114001020102B4
:1033D000030201000100E121E0A011201211733469
:1033E00033312001620362401211121100110100F9
:1033F000010201220001200100E1C0010011801141
:103400000012111312141334522001E20221203150
:1034100012110011000100210201000140210002EF
:10342000410001E060114011121113121413141322
:103430003211002122034201022100010011001279
:1034400011001120010041600100C1000140112064
:103450000160114051121312131433123100014252
:10346000032201022100014011003100110001007E
:10347000010001A0E10001A001801120315293124E
:10348000110021C221002140310011201100010052
:1034900001E0E16001E0110011727312310021427C
:1034A000030102010220214011001120116001409E
:1034B0001160010001022102000120014001A05120
:1034C0003213125332112001020182210021000126
:1034D00000110031E0001100116021000102010221
:1034E000010100212001000160110011521312148A
:1034F000135211004182010200010021401100110C
:103500000011A011003100112081220101000201EF
:103510000021000160110052131213141332310103
:1035200000020122014201002100010001112011CD
:10353000001120114071001140010221020102011D
:1035400000210221000100010011001211123312AA
:103550003413321120010201420122010041000115
:10356000601120110011001100511231206102017F
:103570002202000201028120110012117334133261
:10358000110041020182010061000180110011005F
:103590009132314021420102020062614011521415
:1035A0001354333100418201220001020041000125
:1035B0006091121152512001220103010202008286
:1035C00061005133541514333100210201220342AA
:1035D0004102A180319213323100412203020103E2
:1035E0000022032201020140111233953331010000
:1035F0002201034203222122010261000111001174
:1036000052131253123100412203220300230203FA
:10361000020102212032131416151716153311203A
:10362000016203020302032201A24140111253145A
:1036300013141332110100020102030203020200FB
:1036400002230203222120321416371817151312F1
:1036500011002122030243024301030203822120BD
:1036600011121314153415143211000162230203D0
:103670000043020342012012131518193A171513BB
:103680001100210203026304E302030203020102A8
:103690004012131415171516341220212243020369
:1036A00000A3220100111215181C1E1D191613115A
:1036B000000201030203042304032403044304233C
:1036C0000403020342201112141517183615133182
:1036D000210203022302034572726F723A204150A5
:1036E0005F48414C5F4156523A3A415652416E61F1
:1036F0006C6F67496E206F7574206F662063686118
:103700006E6E656C730D0A0050414E49433A20734A
:1037100063686564756C65723A3A73797374656D44
:103720005F696E697469616C697A65642063616C54
:103730006C65646D6F7265207468616E206F6E6376
:103740006500474F494E4720444F574E20464F5241
:103750002041205245424F4F540D0A0050414E49DE
:10376000433A2041565253656D6170686F72653AF5
:103770003A74616B6520757365642066726F6D20A5
:10378000696E736964652074696D65722070726F0B
:10379000636573730050414E49433A20535049309A
:1037A000207472616E7366657220636F6C6C6973EE
:1037B000696F6E0050414E49433A205350493020C2
:1037C000777269746520636F6C6C6973696F6E00E2
:1037D000040154435F58590000000000000000003D
:1037E000000000150000004040040254435F5A00EE
:1037F0000000000000000000000000006A0000005F
:10380000A04000FF000000000000000000000000D9
:103810000000000000000000000000020050524FB5
:10382000445543545F4944000000000000001A0062
:103830000000000005014143435343414C00000098
:10384000000000000000001C000000000005024114
:1038500043434F46465300000000000000000000B4
:1038600028000000000005034759524F4646530008
:103870000000000000000000003400000000000113
:10388000044D5055364B5F46494C5445520000009C
:10389000000040000000000000FF000000000000E9
:1038A0000000000000000000000000000000000018
:1038B00000496E6974204779726F002A000A67799F
:1038C000726F20646964206E6F7420636F6E76651A
:1038D0007267653A20646966663D25662064707388
:1038E0000A00496E697420416363656C002A0020F8
:1038F000006F6E20697473204241434B00506C612D
:1039000063652041504D20255320616E6420707204
:1039100065737320616E79206B65792E0A004361AF
:103920006C6962726174696F6E207375636365732D
:103930007366756C0A0043616C6962726174696FC9
:103940006E206661696C65642028252E316620250D
:103950002E316620252E316620252E316620252E1B
:10396000316620252E3166290A006C6576656C006B
:103970006F6E20697473204C4546542073696465EA
:10398000006F6E2069747320524947485420736950
:103990006465006E6F736520444F574E006E6F7301
:1039A00065205550000100414C545F4F4E0000000F
:1039B0000000000000000000020000000000010103
:1039C000414C545F524551000000000000000000CF
:1039D000000300000000000302414C545F4D494EBB
:1039E000000000000000000000000B0000000000CC
:1039F0000303414C545F4D4158000000000000009B
:103A00000000000F000000000000FF0000000000A8
:103A100000000000000000000000000000000000A6
:103A200000000100464E435F4F4E000000000000C2
:103A300000000000000200000000000101464E43AB
:103A40005F5245510000000000000000000003002C
:103A5000000000000102464E435F534D504C0000F1
:103A6000000000000000000F0000000000020346FC
:103A70004E435F524144000000000000000000007F
:103A80001000000000000104464E435F544F5400F4
:103A90000000000000000000001200000000000014
:103AA000FF00000000000000000000000000000017
:103AB000000000000000000001004750534C434B41
:103AC0005F4F4E00000000000000000200000000F8
:103AD0000001014750534C434B5F524551000000D9
:103AE0000000000003000000000000FF00000000D4
:103AF00000000000000000000000000000000000C6
:103B00000000004552524F52004750534C6F636BB8
:103B1000204C696D69740047656F66656E6365204A
:103B20004C696D697400416C746974756465204CEE
:103B3000696D6974000100454E41424C45440000E6
:103B400000000000000000001B0000000000010158
:103B50005245515549524544000000000000000004
:103B6000001C0000000000010244454255470000CF
:103B7000000000000000000000001D000000000028
:103B800001035341464554494D45000000000000E3
:103B90000000001E000000000001044348414E4E9A
:103BA000454C000000000000000000002000000064
:103BB000000001055245434D4F4445000000000000
:103BC000000000000021000000000000FF000000D5
:103BD00000000000000000000000000000000000E5
:103BE0000000000025535D200068656C700065785A
:103BF000697400496E76616C696420636F6D6D61F4
:103C00006E642C2074797065202768656C702700BD
:103C1000436F6D6D616E64733A00202025530A0076
:103C2000040054425F524154494F0000000000001C
:103C30000000001A000000803F0101544352565F0B
:103C4000454E41424C450000000000005B00000072
:103C5000803F0102544352565F4D49445043540043
:103C600000000000005C0000005042010354435279
:103C7000565F4D41585043540000000000005D0065
:103C80000000BA4200FF0000000000000000000039
:103C90000000000000000000000000000041505F34
:103CA0004D6F746F72733A206661696C656420743D
:103CB0006F20637265617465207468726F74746CD0
:103CC000652063757276650001004D4F4445000024
:103CD00000000000000000000000003600000000AE
:103CE00000050152455452414354000000000000B9
:103CF0000000000047000000000005024E4555543A
:103D000052414C0000000000000000000053000081
:103D10000000000503434F4E54524F4C000000007A
:103D20000000000000005F00000000000104535488
:103D300041425F524F4C4C00000000000000003335
:103D400000000000000105535441425F54494C54A7
:103D50000000000000000000340000000000010628
:103D6000535441425F50414E0000000000000000EB
:103D700000350000000000010752435F494E5F52CA
:103D80004F4C4C0000000000000037000000000015
:103D90000208414E474D494E5F524F4C0000000013
:103DA0000000003A0000A08CC50209414E474D4179
:103DB000585F524F4C000000000000003C0000A083
:103DC0008C45010A52435F494E5F54494C540000F0
:103DD0000000000000380000000000020B414E47C8
:103DE0004D494E5F54494C000000000000003E0069
:103DF00000A08CC5020C414E474D41585F54494CC0
:103E000000000000000000400000A08C45010D52A1
:103E1000435F494E5F50414E00000000000000002B
:103E2000390000000000020E414E474D494E5F50E0
:103E3000414E00000000000000420000A08CC502BE
:103E40000F414E474D41585F50414E000000000069
:103E50000000440000A08C4501104A535449434BD4
:103E60005F535044000000000000004600000000C6
:103E70000000FF0000000000000000000000000043
:103E80000000000000000000000050414E49433A8D
:103E900020476F7420535049204472697665722C14
:103EA0002062757420646964206E6F742067657485
:103EB0002076616C6964205350492073656D617090
:103EC000686F726520696E2041505F4F7074666C38
:103ED0006F775F41444E5333303830004F70746613
:103EE0006C6F773A206661696C656420746F206638
:103EF000696E6420666972737420706978656C00FD
:103F00002C0025733A2025640A0025733A20256485
:103F10000A0025733A20256C640A0025733A20258F
:103F2000660A0001004445425547000000000000B9
:103F300000000000000000000000000000FF000082
:103F40000000000000000000000000000000000071
:103F500000000000005363686564756C657220732F
:103F60006C6970207461736B5B25755D2028257505
:103F70002F25752F2575290A005363686564756CB4
:103F80006572206F76657272756E207461736B5BFB
:103F900025755D202825752F2575290A0050414E6D
:103FA00049433A2044617461466C61736820535000
:103FB00049446576696365447269766572206E6FFF
:103FC0007420666F756E640050414E49433A204438
:103FD000617461466C617368205350494465766929
:103FE00063654472697665722073656D6170686F90
:103FF0007265206973206E756C6C00444620706198
:1040000067652C206C6F672066696C6520232C2007
:104010006C6F6720706167653A2025752C09002553
:10402000752C090025750A004E6F20646174616665
:104030006C61736820696E736572746564004D61AC
:104040006E7566616374757265723A2030782530DA
:1040500032782020204465766963653A20307825DF
:104060003034780A004E756D50616765733A2025CB
:104070007520205061676553697A653A2025750A75
:1040800000327C8900EDD9687700000059000000FB
:104090000000000000D69FDCA81817AA90437327E1
:1040A000F6B968EDF4DED409FEE61C1C84DDE80BED
:1040B000992927D6DF8D210F036418EFEE1EF0B784
:1040C000828200941500F37C0000001400988F0099
:1040D000007F6A00000000000000E7B73F360000E4
:1040E0000000000000AF669ED0385D00000000EBCD
:1040F0005D7C0000000000000000000000000000E7
:1041000000000000000000000000000000000000AF
:10411000000000002AF10F86DBD0BC541613158670
:10412000004E44BD7F6F15159001EA49B516530046
:10413000000000000000000000000000000000007F
:10414000000000000000000000000000000000006F
:10415000000000000000000000000000000000005F
:10416000000000000000000000000000000000004F
:1041700000000000000000000000CC31AA2C532EEB
:104180000008000000000000000000000000000027
:10419000000000000000CC410000010146554E43E4
:1041A00054494F4E0000000000000000001D0000B8
:1041B00000000000FF000000000000000000000000
:1041C00000000000000000000000000002004D4957
:1041D0004E00000000000000000000000000000A87
:1041E000000080894402015452494D000000000043
:1041F00000000000000000000C000080BB44020230
:104200004D415800000000000000000000000000C8
:10421000000E000080ED44010352455600000000EE
:104220000000000000000000000010000000803FBF
:104230000204445A000000000000000000000000DA
:1042400000000011000000000000FF00000000005E
:10425000000000000000000000000000000000005E
:1042600000006E616E00696E660001021020200879
:1042700008102040102040800201020108040201C1
:104280000102040810204080804020100804020130
:104290008004020180402010080402010804020189
:1042A0000102040810204080010204081020408010
:1042B0004005050505070508080808020202020A6C
:1042C0000A080804040404010101010101010103B9
:1042D00003030303030303040707070C0C0C0C0C74
:1042E0000C0C0C0202020206060606060606060B67
:1042F0000B0B0B0B0B0B0B05000020002300260003
:1043000029002C002F0032000001000003010601EB
:10431000090100002200250028002B002E0031009A
:10432000340002010000050108010B01000021001A
:10433000240027002A002D00300033000101000076
:10434000040107010A0100407A10F35A00A0724EDE
:1043500018090010A5D4E80000E87648170000E42A
:104360000B54020000CA9A3B000000E1F505000072
:1043700080969800000040420F000000A0860100D7
:104380000000102700000000E803000000006400A7
:10439000000000000A000000000001000000000012
:1043A0002C76D888DC674F0823DFC1DFAE59E1B136
:1043B000B796E5E3E453C63AE651997696E8E6C245
:1043C0008426EB898C9B62ED407C6FFCEFBC9C9F4C
:1043D00040F2BAA56FA5F490055A2AF75C936B6C6E
:1043E000F9676DC11BFCE0E40D47FEF520E6B50062
:1043F000D0ED902E0300943577050080841E0800D0
:1044000000204E0A000000C80C333333330F986E7F
:1044100012831141EF8D2114893BE65516CFFEE63C
:10442000DB18D1844B381BF77C1D901DA4BBE42402
:10443000203284725E228100C9F124ECA1E53D277F
:10444000494E46494E4954594E414E0000204100C4
:1044500000C84200401C4620BCBE4CCA1B0E5AAECF
:10446000C59D74CDCCCC3D0AD7233C17B7D1387746
:10447000CC2B329595E6241FB14F0A000D942827C6
:104480000D94DB580D9432270D94AA310D946F4C86
:104490000D942F520D9461570D94E63C0D941A2201
:1044A0000D941B540D940F550D945B240D94D32043
:1044B0000D9438270D9441470D9448200D94B5284C
:1044C0000D94E2280D946C540D94433F0D94923852
:1044D0000D94CE530D94003E0D947F5E0D944F13BA
:1044E0000D945E430D9444210D9467210D94491958
:1044F0000D9416270D949F4F0D94A5580D940927E0
:104500000D94644B0D94CE020D947F0F0D941D29D4
:104510000D943D5B0D94E0220D946C510D94945BD1
:104520000D94D8210D9467120D94FD040D940D2760
:104530000D9473280D94C8020D94C8520D94A54F84
:104540000D9448220D942C3B0D94B9010D94015902
:104550000D94EA270D94FE3E0D948D0F0D94F704F3
:104560000D94754C0D94B9210D942E2A0D94EB3DAC
:104570000D94E8260D9439570D94ED4E0D94322983
:104580000D94691A0D94F0150D94333E0D941F3857
:104590000D942B3B0D941E270D9436580D94FF1D42
:1045A0000D9471200D94DE430D94AC210D94A5372C
:1045B0000D9461120D945C3E0D94892D0D94DE587E
:1045C0000D9432570D943B120D94A3500D9423413A
:1045D0000D94710F0D948F510D947A210D94FA4F13
:1045E0000D942A270D947F480D9400160D94AC125B
:1045F0000D9415550D945E4B0D940F150D941A21C5
:104600000D94A7200D94283B0D9415540D946F40E4
:104610000D949B220D9452310D94CC5C0D94924DCF
:104620000D9486520D9410270D94FB200D94433D5C
:104630000D94794E0D94953D0D94EE320D94243BDE
:104640000D940A270D94F8150D94D54B0D949116E1
:104650000D94A6080D94C8530D941F270D94C40EF5
:104660000D9477250D9429270D94234B0D94310437
:104670000D94DA400D943D340D9427210D94493D5D
:104680000D948C230D946B130D94D5580D943A53BF
:104690000D94DB4B0D948A450D94AC220D94722D34
:1046A0000D9448590D941F420D940A250D94173B03
:1046B0000D94B43D0D949B560D94D3290D940C226A
:1046C0000D94DB560D94D9590D94F6120D943B526E
:1046D0000D94DB4C0D94CE4A0D9402270D94BE0E22
:1046E0000D94342A0D94E4150D9494200D945513D3
:1046F0000D94323B0D94045D0D94D4130D94252735
:104700000D949E570D9442130D9490470D94EC3CDC
:104710000D94E12D0D943A210D94821B0D94115CA2
:104720000D940A3A0D9449570D94034E0D94345349
:104730000D941F470D9416120D94EF440D94062707
:104740000D940D0B0D94701E0D94655C0D949D12CF
:104750000D949C4D0D94B0120D94334B0D9478280C
:104760000D94E8280D9467200D94CD230D94412ECF
:104770000D946B5C0D9438290D94B3010D94C618FB
:104780000D94ED210D94A3020D9497370D940957C4
:104790000D94C1420D9409150D9421140D94130B21
:1047A0000D9427270D9454200D941A270D941F570C
:1047B0000D944E390D942B570D94C6200D94EA2973
:1047C0000D9410240D9493460D94E8150D946F41AB
:1047D0000D94F6200D942B040D94FC150D94F956B0
:1047E0000D94F34E0D94A8320D9472510D94BA515C
:1047F0000D94AC140D94AC080D9463220D94FC3F01
:104800000D94C3540D94930F0D9413270D94293BCD
:104810000D94C4300D94F0290D94A32D0D94B4156E
:104820000D94EA500D9486170D9408160D94AD1A48
:10483000AFC301DC2AEB85F688F65CF79A23FBC54B
:1048400011241FBECFEFD1E2DEBFCDBF00E00CBF11
:1048500016E0A0E0B2E0ECE1FAED02E00BBF02C02E
:1048600007900D92AA36B107D9F715E1AAE6B6E08E
:1048700001C01D92AF36B107E1F718E4CEE3D8E4EA
:1048800000E006C022970109FE010BBF0F94FD68EE
:10489000C033D10780E00807A9F70E9413C30D9425
:1048A000FD6C0C940000283008F027E03327DA0173
:1048B000990F311D87FD916000966105710539F4EE
:1048C00032602E5F3D9330E32A95E1F708959F3FD4
:1048D00030F080387105610509F03C5F3C5F3D9325
:1048E000913008F08068911DDF93CF931F930F9351
:1048F000FF92EF92192F987F9695E92F96959695AE
:10490000E90FFF27E056FC4B99273327EE24FF24BD
:10491000A701E70105900894079428F4360FE71ED5
:10492000F81E491F511D660F771F881F991F069497
:10493000A1F70590079428F4E70EF81E491F561FAB
:10494000C11D770F881F991F661F0694A1F7059058
:10495000079428F4F80E491F561FC71FD11D880F52
:10496000991F661F771F0694A1F70590079420F4FE
:10497000490F561FC71FD81F990F661F771F881F23
:104980000694A9F784911095177041F0D695C795B4
:1049900057954795F794E7941A95C1F7E6E4F3E441
:1049A00068941590159135916591959105907FE2E8
:1049B0007395E118F10A430B560BC90BD009C0F7E8
:1049C000E10CF11E431F561FC91FD01D7EF470332A
:1049D00011F48A95E6CFE894015030F0080F0AF4FC
:1049E0000027021708F4202F2395022F7A3328F08E
:1049F00079E37D932A95E9F710C07D932A9589F68E
:104A0000069497956795379517951794E118F10ACD
:104A1000430B560BC90BD00998F023957E917395E3
:104A20007A3308F070E37C932013B8F77E917061BD
:104A30007D9330F0839571E37D9370E32A95E1F7E0
:104A40001124EF90FF900F911F91CF91DF91992743
:104A500087FD90950895FA01AA27283051F1203159
:104A600081F1E8946F936E7F6E5F7F4F8F4F9F4F02
:104A7000AF4FB1E03ED0B4E03CD0670F781F891F44
:104A80009A1FA11D680F791F8A1F911DA11D6A0F12
:104A9000711D811D911DA11D20D009F468943F91C5
:104AA0002AE0269F11243019305D3193DEF6CF01C4
:104AB0000895462F4770405D4193B3E00FD0C9F78A
:104AC000F6CF462F4F70405D4A3318F0495D31FDF7
:104AD0004052419302D0A9F7EACFB4E0A69597954A
:104AE000879577956795BA95C9F700976105710520
:104AF00008959B01AC010A2E06945795479537956A
:104B00002795BA95C9F7620F731F841F951FA01DC3
:104B10000895DC01D896ED91FC91D997EF5BFF4F9A
:104B20009E968C91992787FD909591838083089517
:104B3000CF93DF93DC01DA96ED91FC91DB97019046
:104B4000F081E02D309739F0DF01A55BBF4F8D91EB
:104B50009C91029714F480E012C082859385A4850D
:104B6000B585EB018F839887A987BA878685978556
:104B7000A089B1898B879C87AD87BE8781E0DF9153
:104B8000CF910895FC011082118212821382148247
:104B90001582168217821086118612861386089552
:104BA000DC01D096ED91FC91D197309739F0868554
:104BB000882321F081E092A1911101C080E0089545
:104BC000FB01EE58FF4F2CE0DC0101900D922A957D
:104BD000E1F70895DC01D8968D919C91D997DC017D
:104BE000ED91FC910084F185E02D19950895FC016B
:104BF0001082118212821382148215821682178209
:104C000010861186128613860895089560E070E07C
:104C1000CB01089560E070E0CB01089508951092F3
:104C2000D10D10928E1010928D1010928F10109244
:104C30009010109291101092A01008950F931F934E
:104C40000091AF0D1091B00D8091B3109091B41000
:104C5000A091B510B091B610101611066CF08C0131
:104C60009D0101348FE118072105310574F000E43E
:104C70001FE120E030E009C0222717FD2095322FE8
:104C8000081719072A073B0754F3B801C9011F91F8
:104C90000F9108958091730E9091740E8F3C24E0D3
:104CA00092078CF0813525E092077CF0833D25E06A
:104CB00092076CF0853526E092075CF0863D9640C1
:104CC00054F484E0089580E0089581E0089582E03E
:104CD000089583E0089585E008951092CC10109215
:104CE000CD101092CE101092CF1010923209109267
:104CF000330910923409109235091092D010109295
:104D0000D1101092D2101092D3101092D410109291
:104D1000D5101092D6101092D7101092D810109271
:104D2000D9101092DA101092DB101092DC10109251
:104D3000DD101092DE101092DF100895E091A40DA6
:104D4000F091A50DA081B18182EA91E29F938F93AA
:104D5000FF93EF935096ED91FC91519719950F9019
:104D60000F900F900F9008950F931F93CF93DF93A1
:104D7000E091A40DF091A50DA081B18180E993E2AD
:104D80009F938F93FF93EF935096ED91FC915197E2
:104D900019950F900F900F900F90C0E0D0E0009108
:104DA000EA121091EB12D801ED91FC910284F38587
:104DB000E02D40E0BE01C80119952196C115B0E172
:104DC000DB0789F7E091A40DF091A50DA081B181D9
:104DD00081EA93E29F938F93FF93EF935096ED9127
:104DE000FC91519719950F900F900F900F9080E0C4
:104DF000DF91CF911F910F910895A091A40DB091D3
:104E0000A50DED91FC9111970284F385E02D882387
:104E100019F06DE675E102C060E775E1CD01199505
:104E20008091A40D9091A50DDC01ED91FC9102847F
:104E3000F385E02D64E775E119950895CF93DF932D
:104E4000FC01A091A40DB091A50DCD91DC9111971D
:104E500086858F9385858F9384858F9383858F93A4
:104E600082858F9381858F9380858F9387818F93A0
:104E700086818F9385818F9384818F9383818F9394
:104E800082811F928F9381811F928F9380811F92C5
:104E90008F931F926F9388EB99E19F938F93BF93AA
:104EA000AF93E889F98919958DB79EB748960FB6E3
:104EB000F8949EBF0FBE8DBFDF91CF910895E09112
:104EC000A40DF091A50DA081B18184E29BE19F9397
:104ED0008F93FF93EF935096ED91FC915197199515
:104EE0000F900F900F900F9080E008958091F41232
:104EF0009091F512DC01ED91FC91048CF58DE02D83
:104F000019950895F3DF80E00895E82FF0E080918F
:104F1000A40D9091A50DED30F10508F06DC0EE588F
:104F2000FF4FDC010D94CD68ED91FC910284F38577
:104F3000E02D69E77DE168C0ED91FC910284F38585
:104F4000E02D63E87DE160C0ED91FC910284F38582
:104F5000E02D68E87DE158C0ED91FC910284F38575
:104F6000E02D61E97DE150C0ED91FC910284F38573
:104F7000E02D66E97DE148C0ED91FC910284F38566
:104F8000E02D6DE97DE140C0ED91FC910284F38557
:104F9000E02D64EA7DE138C0ED91FC910284F38557
:104FA000E02D68EA7DE130C0ED91FC910284F3854B
:104FB000E02D6FEA7DE128C0ED91FC910284F3853C
:104FC000E02D68EB7DE120C0ED91FC910284F3853A
:104FD000E02D6DEB7DE118C0ED91FC910284F3852D
:104FE000E02D67EC7DE110C0ED91FC910284F3852A
:104FF000E02D6DEC7DE108C0DC01ED91FC910284B7
:10500000F385E02D63ED7DE119950895E091A40D00
:10501000F091A50DA081B18185E499E19F938F93D3
:10502000FF93EF935096ED91FC91519719950F9046
:105030000F900F900F900895FC0112821382089533
:10504000FC01128213820895FC01138212821582E0
:1050500014821782168210860895FC0122E0629F56
:10506000E00DF11D11243296808191810895FC019B
:10507000CB012085DF0132E0239FA00DB11D11245B
:1050800012966C9311969C932F5F233010F4208717
:10509000089510860895FC0123819281892F820F43
:1050A0008F3008F08F50DF0134E0839FA00DB11DD9
:1050B000112414964D935D936D937C9317979F30B5
:1050C00018F49F5F928307C0822F8F5F8F3010F498
:1050D000838301C0138281E00895FC012281222391
:1050E000D1F03381DC0184E0389FA00DB11D112483
:1050F00014967C9111966C91119712969C9112972F
:1051000013968C913F5F3F3010F4338301C01382BC
:105110002150228304C070E060E090E080E0AB01A9
:105120009C01652F742F832F922F0895FC0183819A
:105130009281691778F4680F6F3008F06F5084E03F
:10514000689FE00DF11D1124349670816181928178
:10515000838104C070E060E090E080E0AB019C01DE
:10516000652F742F832F922F0895FC01828108955B
:10517000FC0123819281892F820F853008F08550B0
:10518000DF0134E0839FA00DB11D112414964D93CF
:105190005D936D937C931797953018F49F5F92837E
:1051A00007C0822F8F5F853010F4838301C0138284
:1051B00081E00895FC0122812223D1F03381DC01BA
:1051C00084E0389FA00DB11D112414967C91119696
:1051D0006C91119712969C91129713968C913F5F48
:1051E000353010F4338301C013822150228304C070
:1051F00070E060E090E080E0AB019C01652F742FCF
:10520000832F922F0895FC0183819281691778F48E
:10521000680F653008F0655084E0689FE00DF11D6F
:1052200011243496708161819281838104C070E081
:1052300060E090E080E0AB019C01652F742F832F2C
:10524000922F0895FC0182810895FF920F931F937E
:10525000CF93DF93FC0112852085233018F42F5F54
:10526000208702C01123F1F00085402F41505527BF
:1052700047FD5095DA011196AA0FBB1FAE0FBF1F55
:1052800080E090E0EA01C81BD90B3E912E91621795
:10529000730714F0DE0111C00196F02EF81A1F14E6
:1052A0005CF1F8CFEC01A0E0B0E030E02150310932
:1052B0008C819D818617970744F01196AA0FBB1F1A
:1052C000AE0FBF1F6D937C9305C02296A217B30744
:1052D000C4F0F3CF81E0812782878085833010F48A
:1052E000869501C0818592E0899FE00DF11D112412
:1052F00032968081918109C013963C932E93129728
:10530000C1CF998388831196D3CFCDB7DEB7E5E0BF
:105310000D94BF68ACE1B0E0E0E9F9E20D94A46857
:105320008E010F5F1F4F8CE1F80111928A95E9F70A
:1053300083EA898385E98A838CE08B838091B80A2C
:105340009091B90A9D838C839F838E838091B30A49
:1053500088876091E20A7091E30A8091E40A909153
:10536000E50A0F94EE637A8769876091E60A709187
:10537000E70A8091E80A9091E90A0F94EE637C872E
:105380006B878091C00A9091C10AA091C20AB09126
:10539000C30A8D879E87AF87B88B8091BC0A909196
:1053A000BD0AA091BE0AB091BF0A898B9A8BAB8BC4
:1053B000BC8B8091DB119091DC11A091DD11B0913B
:1053C000DE118D8B9E8BAF8BB88F8091DF1190910A
:1053D000E011A091E111B091E211898F9A8FAB8F0A
:1053E000BC8F4CE150E0B8018BE79DE00F94FA4F81
:1053F0006C96E4E00D94C068A5E0B0E0E2E0FAE26B
:105400000D94A668FE01319695E0DF011D929A95F4
:10541000E9F793EA998395E99A8393E19B838C83D7
:105420006D8345E050E0BF018BE79DE00F94FA4F9C
:105430002596E2E00D94C268ACE1B0E0E2E2FAE267
:105440000D949C68FE0131969CE1DF011D929A95B6
:10545000E9F793EA998395E99A839EE09B838C838D
:105460004D835E836F83788709871A872B873C87F4
:10547000CD86DE86EF86F88A898A9A8AAB8ABC8ACC
:105480008CA59DA5AEA5BFA58D8B9E8BAF8BB88F30
:1054900088A999A9AAA9BBA9898F9A8FAB8FBC8F1C
:1054A0004CE150E0BF018BE79DE00F94FA4F6C9602
:1054B000ECE00D94B868A9E1B0E0E1E6FAE20D9401
:1054C000A668E091EE10F091EF1082899389A4898B
:1054D000B5894091C3115091C4116091C51170916B
:1054E000C611841B950BA60BB70B8093C711909325
:1054F000C811A093C911B093CA112091B10D2223F4
:1055000021F09093CC118093CB112091F20D24FFC8
:1055100053C020916A09222309F44EC0BE016F5F77
:105520007F4F29E1FB0111922A95E9F723EA2983AC
:1055300025E92A8324E02B8320913B0E30913C0EF9
:105540003D832C832091CB113091CC113F832E834E
:1055500088879987AA87BB878091CD119091CE11BA
:10556000A091CF11B091D0118C879D87AE87BF8756
:105570008091D1119091D211998B888B8091D31108
:105580009091D4119B8B8A8B8091B0119091B11125
:105590009D8B8C8B80913D0E90913E0E9F8B8E8BC0
:1055A0008091D5119091D611998F888F49E150E063
:1055B0008BE79DE00F94FA4F6996E2E00D94C26884
:1055C000ABE2B0E0E6EEFAE20D94A2684091060983
:1055D00050910709609108097091090980910A09A1
:1055E00090910B09A0910C09B0910D09EE24E39460
:1055F000F12CEC0EFD1E2BE2F70111922A95E9F732
:1056000023EA298325E92A8329E12B8300911808BD
:105610001091190820911A0830911B080C831D83E2
:105620002E833F8300911C0810911D0820911E08B5
:1056300030911F08088719872A873B870091200827
:105640001091210820912208309123080C871D8792
:105650002E873F8700912408109125082091260865
:1056600030912708088B198B2A8B3B8B4C8B5D8BD9
:105670006E8B7F8B888F998FAA8FBB8F8091280824
:1056800090912908A0912A08B0912B088C8F9D8FAA
:10569000AE8FBF8F80912C0890912D08A0912E087D
:1056A000B0912F0888A399A3AAA3BBA38091AF07A9
:1056B0009091B007A091B107B091B2078CA39DA3C0
:1056C000AEA3BFA38091B3079091B407A091B50793
:1056D000B091B60788A799A7AAA7BBA74BE250E04D
:1056E000B7018BE79DE00F94FA4FAB96E6E00D947F
:1056F000BE68A4E1B0E0EFE7FBE20D94A668FB0111
:10570000BE016F5F7F4F94E1DB011D929A95E9F72F
:1057100093EA998395E99A8398E09B839091D00DC1
:105720009C838D8380818E8381818F838281888712
:1057300083819481A581B68189879A87AB87BC874D
:1057400087819085A185B2858D879E87AF87B88B2D
:1057500083859485A585B685898B9A8BAB8BBC8B0D
:1057600044E150E08BE79DE00F94FA4F6496E2E04D
:105770000D94C2688091A40D9091A50DDC01ED916E
:10578000FC910484F585E02D66EE78E11995609131
:10579000A40D7091A50D8BE79DE00F946C5480E0F3
:1057A0000895A0E0B0E0E7EDFBE20D949E68C0E054
:1057B000D0E030E0E32E39E1F32EC090EA12D09031
:1057C000EB1246E0A42E49E1B42EE091A40DF09135
:1057D000A50DA081B181DF93CF93FF92EF92FF934C
:1057E000EF935096ED91FC91519719950F900F9072
:1057F0000F900F900F900F9000E010E0D601ED9108
:10580000FC91B8016C0F7D1F0280F381E02DC60171
:105810001995E091A40DF091A50DA081B1811F9281
:105820008F93BF92AF92FF93EF935096ED91FC91BF
:10583000519719950F5F1F4F0F900F900F900F907A
:105840000F900F9000311105C9F68091A40D909131
:10585000A50D0F94A05C6096C115B0E1DB0709F0BF
:10586000B4CF80E0CDB7DEB7EAE00D94BA68CF934D
:10587000DF93C8E2D0E08091A40D9091A50DDC01EA
:10588000ED91FC910284F385E02D69E472E11995B4
:10589000219789F78091A40D9091A50D0F94A05C9C
:1058A000DF91CF910895A4E0B0E0E9E5FCE20D942A
:1058B00098682B013C018A01C0906210D09063105F
:1058C000E0906410F09065104A0157FF04C08824EE
:1058D0009924841A950AAA2497FCA094BA2CA701AB
:1058E000960160E070E08AE793E40F9455630F94AB
:1058F000EE6386169706A806B906E4F4C301B20162
:105900000F9421644B015C01B801882777FD8095D5
:10591000982F0F942164A70196010F9455639B0162
:10592000AC01C501B4010F9471620F94EE634B0199
:105930005C0142C0A7019601C701B6010F947162D4
:10594000A70196010F9467669B01AC0160E070E0CF
:105950008AE793E40F9455630F94EE636B017C0127
:1059600010161106ACF4530142018C0C9D1CAE1CA8
:10597000BF1C9801D8010F94406724EF31E040E04C
:1059800050E00F94CC67820E931EA41EB51E14C067
:105990009801D8010F9440672CE03EEF4FEF5FEF86
:1059A0000F94CC6749015A018C189D08AE08BF08B6
:1059B000840C951CA61CB71CC301B20168537F4F11
:1059C0008F4F9F4F0F9421647B018C01C301B20163
:1059D000685C7109810991090F9421649B01AC01F4
:1059E000C501B40129833A834B835C830F942164FE
:1059F00029813A814B815C810F9480170F94EE636B
:105A00002496E0E10D94B468A0E0B0E0EAE0FDE2A5
:105A10000D949668EC012091250230912602409168
:105A200027025091280260912102709122028091F8
:105A30002302909124020F946766E12CF12C00E878
:105A40001FE320E030E040E05FE30F9480174B015C
:105A50005C010091A60C1091A70C2091A80C30912C
:105A6000A90C37FF07C030952095109501951F4F61
:105A70002F4F3F4F4091AA0C5091AB0C6091AC0C52
:105A80007091AD0C77FF07C070956095509541956A
:105A90005F4F6F4F7F4F041715072607370714F422
:105AA0008A019B0168E273E280E090E0601B710B69
:105AB000820B930B0F942164E12C10E8F12E0BE381
:105AC00015E420E030E0A9010F9480172B013C0180
:105AD000A8019701C501B4010F9467661B018C01F1
