:020000040801F1
:1000000000040020E1140108C1DA0608C5DA060878
:1000100015DB0608C5DA0608EDDA0608E1360B0836
:10002000E1360B08E1360B08E1360B0889C60B08F0
:10003000E1360B08E1360B08E1360B08E1360B0818
:10004000E1360B08F1D10B08C1D20B08F5D20B0831
:10005000E1360B08E1360B081DD00B084DD00B081C
:100060007DD00B08ADD00B08DDD00B08D55E0B089A
:10007000015F0B08315F0B08615F0B08915F0B0894
:10008000BD5F0B08ED5F0B08855D0B08E1360B08C3
:10009000E1360B08E1360B08E1360B080DD10B08F1
:1000A000E1360B08E1360B08E1360B08E1360B08A8
:1000B000E17C0B08E1360B08E1360B08F5670B080D
:1000C0000D680B0839680B0851680B08E1360B08FE
:1000D000E1360B0899800B08E1360B08B1800B085C
:1000E00079D10B0825D20B0859D20B08E1360B0841
:1000F000E1360B08E1360B08E1360B081D600B08F2
:10010000E1360B08E1360B08E5790B08E1360B0800
:10011000C9800B08E1800B08E1360B08E1360B08BB
:100120004D600B0879600B08A9600B08D9600B08BB
:1001300009610B08E1360B08E1360B08E1360B08C4
:10014000E1360B08E1360B08E1360B0805740B08A5
:1001500035610B0865610B0895610B08F9800B0888
:10016000E1360B08E1360B08E1360B08E1360B08E7
:100170008DD20B08E1360B08E1360B08E1360B088F
:10018000E1360B08E1360B08E1360B08E1360B08C7
:10019000E1360B08E1360B08E1360B08E1360B08B7
:1001A000E1360B08E1360B08E1360B08E1360B08A7
:1001B000E1360B08E1360B08E1360B08E1360B0897
:1001C000E1360B08E1360B08E1360B08E1360B0887
:1001D000E1360B08E1360B08E1360B08E1360B0877
:1001E000D1720108E9A7010875A803083DFE0308BC
:1001F000AD000408B5E40408E9EB0408C5F10408FF
:1002000059090508B58A0508F9DE060835150A08F2
:10021000E1220A08513B0A08A5570A08995A0A0818
:1002200095360B08000000000000000000000000F0
:1002300000000000000000000000000000000000BE
:10024000D0400B1CD1409C46203AD3401843524228
:100250006346934018437047D0400B1C1141203A2D
:1002600003D49C46134118436346524293401843BB
:10027000704700BF9140031C90409C46203A934039
:10028000194352426346D3401943704781F00041FD
:1002900002E000BF83F0004330B54FEA41044FEA6B
:1002A000430594EA050F08BF90EA020F1FBF54EA06
:1002B000000C55EA020C7FEA645C7FEA655C00F0A2
:1002C000E2804FEA5454D4EB5555B8BF6D420CDD73
:1002D0002C4480EA020281EA030382EA000083EAF6
:1002E000010180EA020281EA0303362D88BF30BD96
:1002F00011F0004F4FEA01314FF4801C4CEA1131EC
:1003000002D0404261EB410113F0004F4FEA03334A
:100310004CEA133302D0524263EB430394EA050FD5
:1003200000F0A780A4F10104D5F1200E0DDB02FA44
:100330000EFC22FA05F2801841F1000103FA0EF2D8
:10034000801843FA05F359410EE0A5F120050EF19E
:10035000200E012A03FA0EFC28BF4CF0020C43FACF
:1003600005F3C01851EBE37101F0004507D54FF0DC
:10037000000EDCF1000C7EEB00006EEB0101B1F52C
:10038000801F1BD3B1F5001F0CD349085FEA300072
:100390004FEA3C0C04F101044FEA445212F5800F7D
:1003A00080F09A80BCF1004F08BF5FEA500C50F11A
:1003B000000041EB045141EA050130BD5FEA4C0CFD
:1003C000404141EB010111F4801FA4F10104E9D186
:1003D00091F0000F04BF01460020B1FA81F308BF7D
:1003E0002033A3F10B03B3F120020CDA0C3208DD49
:1003F00002F1140CC2F10C0201FA0CF021FA02F124
:100400000CE002F11402D8BFC2F1200C01FA02F193
:1004100020FA0CFCDCBF41EA0C019040E41AA2BFB8
:1004200001EB0451294330BD6FEA04041F3C1CDA80
:100430000C340EDC04F11404C4F1200220FA04F0A0
:1004400001FA02F340EA030021FA04F345EA03014A
:1004500030BDC4F10C04C4F1200220FA02F001FA0C
:1004600004F340EA0300294630BD21FA04F029468E
:1004700030BD94F0000F83F4801306BF81F4801127
:100480000134013D4EE77FEA645C18BF7FEA655C9A
:1004900029D094EA050F08BF90EA020F05D054EA6C
:1004A000000C04BF1946104630BD91EA030F1EBF71
:1004B0000021002030BD5FEA545C05D14000494175
:1004C00028BF41F0004130BD14F580043CBF01F568
:1004D000801130BD01F0004545F0FE4141F470014E
:1004E0004FF0000030BD7FEA645C1ABF1946104629
:1004F0007FEA655C1CBF0B46024650EA013406BF2A
:1005000052EA033591EA030F41F4002130BD00BFE8
:1005100090F0000F04BF0021704730B54FF48064A5
:1005200004F132044FF000054FF0000150E700BF26
:1005300090F0000F04BF0021704730B54FF4806485
:1005400004F1320410F0004548BF40424FF0000172
:100550003EE700BF42004FEAE2014FEA31014FEAB5
:1005600002701FBF12F07F4393F07F4F81F0605104
:10057000704792F0000F14BF93F07F4F704730B573
:100580004FF4607401F0004521F0004120E700BF06
:1005900050EA010208BF704730B54FF000050AE08D
:1005A00050EA010208BF704730B511F0004502D58E
:1005B000404261EB41014FF4806404F132045FEA90
:1005C000915C3FF4DCAE4FF003025FEADC0C18BF35
:1005D00003325FEADC0C18BF033202EBDC02C2F12B
:1005E000200300FA03FC20FA02F001FA03FE40EABD
:1005F0000E0021FA02F11444C1E600BF70B54FF0BD
:10060000FF0C4CF4E06C1CEA11541DBF1CEA13559E
:1006100094EA0C0F95EA0C0F00F0DEF82C4481EA06
:10062000030621EA4C5123EA4C5350EA013518BF26
:1006300052EA033541F4801143F4801338D0A0FB13
:1006400002CE4FF00005E1FB02E506F00042E0FBC0
:1006500003E54FF00006E1FB03569CF0000F18BFC6
:100660004EF0010EA4F1FF04B6F5007F64F540746E
:1006700004D25FEA4E0E6D4146EB060642EAC62101
:1006800041EA55514FEAC52040EA5E504FEACE2E6E
:10069000B4F1FD0C88BFBCF5E06F1ED8BEF1004F71
:1006A00008BF5FEA500E50F1000041EB045170BDED
:1006B00006F0004646EA010140EA020081EA030131
:1006C000B4EB5C04C2BFD4EB0C0541EA045170BD2D
:1006D00041F480114FF0000E013C00F3AB8014F1A7
:1006E000360FDEBF002001F0004170BDC4F10004F0
:1006F000203C35DA0C341BDC04F11404C4F1200571
:1007000000FA05F320FA04F001FA05F240EA0200CB
:1007100001F0004221F0004110EBD37021FA04F601
:1007200042EB06015EEA430E08BF20EAD37070BDBB
:10073000C4F10C04C4F1200500FA04F320FA05F01A
:1007400001FA04F240EA020001F0004110EBD3701C
:1007500041F100015EEA430E08BF20EAD37070BD8C
:10076000C4F1200500FA05F24EEA020E20FA04F365
:1007700001FA05F243EA020321FA04F001F0004114
:1007800021FA04F220EA020000EBD3705EEA430E85
:1007900008BF20EAD37070BD94F0000F0FD101F0B4
:1007A0000046400041EB010111F4801F08BF013CED
:1007B000F7D041EA060195F0000F18BF704703F02B
:1007C0000046520043EB030313F4801F08BF013DB2
:1007D000F7D043EA0603704794EA0C0F0CEA13556E
:1007E00018BF95EA0C0F0CD050EA410618BF52EA28
:1007F0004306D1D181EA030101F000414FF000002E
:1008000070BD50EA410606BF1046194652EA43063B
:1008100019D094EA0C0F02D150EA013613D195EAAF
:100820000C0F05D152EA03361CBF104619460AD1F7
:1008300081EA030101F0004141F0FE4141F4700101
:100840004FF0000070BD41F0FE4141F4780170BDF1
:1008500070B54FF0FF0C4CF4E06C1CEA11541DBF56
:100860001CEA135594EA0C0F95EA0C0F00F0A7F858
:10087000A4EB050481EA030E52EA03354FEA013185
:1008800000F088804FEA03334FF0805545EA131398
:1008900043EA12634FEA022245EA111545EA106560
:1008A0004FEA00260EF000419D4208BF964244F1F7
:1008B000FD0404F5407402D25B084FEA3202B61A16
:1008C00065EB03055B084FEA32024FF480104FF4EA
:1008D000002CB6EB020E75EB030E22BFB61A75465E
:1008E00040EA0C005B084FEA3202B6EB020E75EBF1
:1008F000030E22BFB61A754640EA5C005B084FEA59
:100900003202B6EB020E75EB030E22BFB61A754625
:1009100040EA9C005B084FEA3202B6EB020E75EB30
:10092000030E22BFB61A754640EADC0055EA060EF1
:1009300018D04FEA051545EA16754FEA06164FEA34
:10094000C30343EA52734FEAC2025FEA1C1CC0D1E0
:1009500011F4801F0BD141EA00014FF000004FF06D
:10096000004CB6E711F4801F04BF01430020B4F12E
:10097000FD0C88BFBCF5E06F3FF6AFAEB5EB030CE6
:1009800004BFB6EB020C5FEA500C50F1000041EBE3
:10099000045170BD0EF0004E4EEA113114EB5C04B0
:1009A000C2BFD4EB0C0541EA045170BD41F4801183
:1009B0004FF0000E013C90E645EA060E8DE60CEA8B
:1009C000135594EA0C0F08BF95EA0C0F3FF43BAFA8
:1009D00094EA0C0F0AD150EA01347FF434AF95EA5F
:1009E0000C0F7FF425AF104619462CE795EA0C0F43
:1009F00006D152EA03353FF4FDAE1046194622E710
:100A000050EA410618BF52EA43067FF4C5AE50EAE9
:100A100041047FF40DAF52EA43057FF4EBAE12E7D9
:100A20004FF0FF3C06E000BF4FF0010C02E000BFBA
:100A30004FF0010C4DF804CD4FEA410C7FEA6C5C9D
:100A40004FEA430C18BF7FEA6C5C1BD001B050EA40
:100A5000410C0CBF52EA430C91EA030F02BF90EA2B
:100A6000020F0020704710F1000F91EA030F58BFEA
:100A7000994208BF90422CBFD8176FEAE37040F04C
:100A8000010070474FEA410C7FEA6C5C02D150EAEA
:100A9000013C07D14FEA430C7FEA6C5CD6D152EAA5
:100AA000033CD3D05DF8040B704700BF844610466A
:100AB00062468C461946634600E000BF01B5FFF769
:100AC000B7FF002848BF10F1000F01BD4DF808ED39
:100AD000FFF7F4FF0CBF012000205DF808FB00BF0A
:100AE0004DF808EDFFF7EAFF34BF012000205DF864
:100AF00008FB00BF4DF808EDFFF7E0FF94BF0120B1
:100B000000205DF808FB00BF4DF808EDFFF7CEFFB1
:100B100094BF012000205DF808FB00BF4DF808EDF0
:100B2000FFF7C4FF34BF012000205DF808FB00BFC1
:100B30004FEA410212F5001215D211D56FF4787305
:100B4000B3EB625212D94FEAC12343F0004343EAA8
:100B5000505311F0004F23FA02F018BF4042704783
:100B60004FF00000704750EA013005D111F000400D
:100B700008BF6FF0004070474FF00000704700BFA3
:100B80004A0011D212F5001211D20DD56FF478730C
:100B9000B3EB62520ED44FEAC12343F0004343EA61
:100BA000505323FA02F070474FF00000704750EAAC
:100BB000013002D14FF0FF3070474FF00000704716
:100BC0004FEA4102B2F1E04324BFB3F5001CDCF16F
:100BD000FE5C0DD901F0004C4FEAC0024CEA5070A7
:100BE000B2F1004F40EB830008BF20F001007047D6
:100BF00011F0804F21D113F13872BCBF01F00040D9
:100C0000704741F480114FEA5252C2F11802C2F10A
:100C1000200C10FA0CF320FA02F018BF40F001008B
:100C20004FEAC1234FEAD32303FA0CFC40EA0C003D
:100C300023FA02F34FEA4303CCE77FEA625307D17A
:100C400050EA01331EBF4FF0FE4040F440007047B1
:100C500001F0004040F0FE4040F40000704700BF4B
:100C600080F0004002E000BF81F0004142001FBF61
:100C70005FEA410392EA030F7FEA226C7FEA236C6A
:100C80006AD04FEA1262D2EB1363C1BFD21841405F
:100C900048404140B8BF5B42192B88BF704710F0F5
:100CA000004F40F4000020F07F4018BF404211F098
:100CB000004F41F4000121F07F4118BF494292EA00
:100CC000030F3FD0A2F1010241FA03FC10EB0C002C
:100CD000C3F1200301FA03F100F0004302D54942B9
:100CE00060EB4000B0F5000F13D3B0F1807F06D366
:100CF00040084FEA310102F10102FE2A51D2B1F15E
:100D0000004F40EBC25008BF20F0010040EA030052
:100D10007047490040EB000010F4000FA2F10102FF
:100D2000EDD1B0FA80FCACF1080CB2EB0C0200FA89
:100D30000CF0AABF00EBC25052421843BCBFD040D7
:100D40001843704792F0000F81F4000106BF80F451
:100D500000000132013BB5E74FEA41037FEA226C14
:100D600018BF7FEA236C21D092EA030F04D092F0DF
:100D7000000F08BF0846704790EA010F1CBF002013
:100D8000704712F07F4F04D1400028BF40F0004070
:100D9000704712F100723CBF00F50000704700F090
:100DA000004343F0FE4040F4000070477FEA2262B7
:100DB00016BF08467FEA23630146420206BF5FEA88
:100DC000412390EA010F40F4800070474FF0000388
:100DD00004E000BF10F0004348BF40425FEA000C4F
:100DE00008BF704743F0964301464FF000001CE0F7
:100DF00050EA010208BF70474FF000030AE000BF4D
:100E000050EA010208BF704711F0004302D540428A
:100E100061EB41015FEA010C02BF844601460020FC
:100E200043F0B64308BFA3F18053A3F50003BCFA17
:100E30008CF2083AA3EBC25310DB01FA02FC6344C4
:100E400000FA02FCC2F12002BCF1004F20FA02F2CB
:100E500043EB020008BF20F00100704702F12002BE
:100E600001FA02FCC2F1200250EA4C0021FA02F21F
:100E700043EB020008BF20EADC7070477BB972B90F
:100E80000029BEBF00204FF0004106E008BF002847
:100E90001CBF6FF000414FF0FF3000F09BB882B0F4
:100EA000EC462DE9005000F065F8DDF804E002B0F2
:100EB0000CBC704753B94AB9002908BF00281CBFB1
:100EC0004FF0FF314FF0FF3000F084B882B0EC46B5
:100ED0002DE9005000F066F8DDF804E002B00CBC2B
:100EE000704700BF430803F05533C31A980800F059
:100EF000333003F03333184400EB101000F00F30A0
:100F000000EB002000EB0040000E704780EA10402C
:100F100080EA102080EA101000F00F0346F69610C9
:100F2000184100F001007047D0B5FFF713FB002215
:100F30000E4B06460F46FFF761FBFFF721FE044606
:100F4000FFF7E6FA00220A4BFFF758FB02460B4672
:100F500030463946FFF79EF9FFF712FE234600227E
:100F600042EA000210461946D0BD00BF0000F03D25
:100F70000000F0412DE9F041069C154606460F465B
:100F8000984600F029F805FB01F300FB0838A5FBA3
:100F90000023B21A434467EB0303C4E90023BDE80E
:100FA000F08100BF2DE9F041069C904606460F46B1
:100FB0001D4600F05FF900FB05F5A0FB082308FBC8
:100FC0000155B21A2B4467EB0303C4E90023BDE8C3
:100FD000F08100BF704700BF00292DE9F043C0F247
:100FE000A6800026002BC0F29C80884694469E4630
:100FF000154604460F46002B3DD18A4259D9B2FA14
:1010000082F33BB1C3F120029F4020FA02F29D40DF
:1010100017439C40290C220CB7FBF1FEA8B201FB40
:101020001E7742EA074700FB0EF3BB420AD97F193D
:101030000EF1FF3280F00581BB4240F20281AEF139
:10104000020E2F44FF1AA4B2B7FBF1F301FB137792
:1010500044EA074700FB03F0B84208D97F1903F1BF
:10106000FF3280F0F080B84240F2ED80023B43EA6C
:101070000E43002203E08B420FD900221346341C9A
:1010800018BF012460424FF0000565EB4501584050
:10109000514000196941BDE8F083B3FA83F2002A98
:1010A00040F086808B4202D3844500F2DB8001232E
:1010B000E5E712B90123B3FBF2F5B5FA85F0002894
:1010C0003BD1781B4FEA154E1FFA85FC0122B0FB7D
:1010D000FEF8210C0EFB180741EA07470CFB08F34A
:1010E000BB4207D97F1908F1FF3102D2BB4200F29F
:1010F000BD808846FF1AA4B2B7FBFEF30EFB137740
:1011000044EA07470CFB03FCBC4507D97F1903F1F0
:10111000FF3102D2BC4500F2A7800B4643EA0843E8
:10112000ADE752426FEA060663EB43035DE74042D8
:1011300061EB41014FF0FF3654E7C0F1200224FA81
:1011400002F107FA00F385404FEA154ED7401943E4
:10115000B7FBFEF20B0C0EFB12771FFA85FC43EA7D
:1011600007430CFB02F79F4204FA00F407D95B190E
:1011700002F1FF3074D29F4272D9023A2B44DF1B36
:1011800089B2B7FBFEF80EFB187341EA03430CFB70
:1011900008F79F4208D95B1908F1FF315CD29F42E2
:1011A0005AD9A8F102082B44D81B48EA02428EE71C
:1011B000C2F120032CFA03F10EFA02FE20FA03F723
:1011C00041EA0E0E08FA02F028FA03F14FEA1E4532
:1011D0003843B1FBF5F8030C05FB18111FFA8EF725
:1011E00043EA014107FB08F38B420CFA02FC09D9E0
:1011F00011EB0E0108F1FF3930D28B422ED9A8F144
:1012000002087144C91A80B2B1FBF5F305FB131152
:1012100040EA014107FB03F78F4208D911EB0E01A9
:1012200003F1FF3016D28F4214D9023B714443EAD6
:101230000843C91BA3FB0C89494509D305D00022EB
:101240001DE79646FEE6134611E794404445F6D264
:10125000013BF4E70346EAE78846A5E7C846D1E73D
:1012600002468CE713460AE7023B57E7A8F102085B
:101270002F443FE72DE9F041002B44D18A42154627
:1012800004464FD9B2FA82F70E464FB1C7F1200398
:10129000B94020FA03F602FA07F50E4300FA07F404
:1012A0004FEA154E230CB6FBFEF0AFB20EFB1061F9
:1012B00043EA014307FB00F1994209D95B1900F1A8
:1012C000FF3280F0EC80994240F2E98002382B44F2
:1012D0005A1AA4B2B2FBFEF30EFB132244EA0242F6
:1012E00007FB03F7974208D9521903F1FF3180F049
:1012F000D880974240F2D580023B43EA0040002666
:101300003146BDE8F0818B4247D8B3FA83F6002E10
:1013100048D18B4202D3824200F2CD800120314677
:10132000BDE8F08112B90125B5FBF2F5B5FA85F8F3
:10133000B8F1000F77D14A1B4FEA154EAFB2012624
:10134000B2FBFEF0230C0EFB102143EA014107FB28
:1013500000F38B4207D9491900F1FF3202D28B42C8
:1013600000F2BA801046C91AA4B2B1FBFEF30EFB1C
:10137000131144EA014407FB03F7A74208D9641993
:1013800003F1FF3280F08F80A74240F28C80023B55
:1013900043EA00403146BDE8F08100263046314640
:1013A000BDE8F081C6F1200422FA04F5B3402B43D6
:1013B00020FA04FC01FA06F721FA04F54FEA134E6D
:1013C0004CEA0707B5FBFEF8390C0EFB18551FFA5F
:1013D00083FC41EA05450CFB08F1A94202FA06F23A
:1013E00004D9ED1808F1FF3467D3A0466D1ABFB2D7
:1013F000B5FBFEF40EFB145547EA05410CFB04FC5B
:101400008C4504D9C91804F1FF355CD32C4644EA55
:101410000844CCEB0101A4FB0223994248D344D0F9
:10142000204600266CE7C8F1200401FA08F305FA0B
:1014300008F520FA04F7E1404FEA154E1F43B1FBCF
:10144000FEF63A0C0EFB16111FFA85FC42EA014328
:101450000CFB06F29A4200FA08F407D95B1906F170
:10146000FF3137D29A4235D9023E2B449B1ABFB284
:10147000B3FBFEF00EFB103347EA03430CFB00F115
:10148000994207D95B1900F1FF3221D299421FD945
:1014900002382B445A1A40EA0646674650E710467F
:1014A00016E70B4629E7134672E7B0409042B7D2E1
:1014B000601E002624E7304622E7A94295D9A8F10C
:1014C00002081D4492E78C45A0D9023C19449EE7CE
:1014D0001046DFE70E46C9E70238294443E700BF5C
:1014E00072B6374880F3098836484EF60851CEF276
:1014F0000001086040F20000CCF200004EF63471AA
:10150000CEF200010860BFF34F8FBFF36F8F40F240
:101510000000C0F2F0004EF68851CEF200010860E3
:10152000BFF34F8FBFF36F8F4FF00000E1EE100A53
:101530004EF63C71CEF200010860062080F314885C
:10154000BFF36F8FA2F0AEF8A9F098FE1E481F49B6
:101550001F4A91423CBF41F8040BFAE71D49184A63
:1015600091423CBF41F8040BFAE71B491B4A1C4B54
:101570009A423EBF51F8040B42F8040BF8E70020F2
:101580001849194A91423CBF41F8040BFAE7A2F00E
:101590008DF8A9F075FE154C154DAC4203DA54F8E0
:1015A000041B8847F9E701F055FA124C124DAC4282
:1015B00003DA54F8041B8847F9E7A2F075B8000075
:1015C0000008002000000108555555550000002076
:1015D000000400200004002008470E080008002036
:1015E000DC140020E0140020F0FB0020E0010108E2
:1015F0002402010824020108240201082DE9F04F09
:101600002DED108AC1F80CD0C3689D46BDEC108A40
:10161000BDE8F08FA2F010FD002383F31188284667
:10162000A0470020A2F0ECFBA2F000FDA2F00CFB12
:10163000A2F002FD00DFFEE7844641EA000313F05A
:1016400003036DD1403A41D351F8043B40F8043BC9
:1016500051F8043B40F8043B51F8043B40F8043B8C
:1016600051F8043B40F8043B51F8043B40F8043B7C
:1016700051F8043B40F8043B51F8043B40F8043B6C
:1016800051F8043B40F8043B51F8043B40F8043B5C
:1016900051F8043B40F8043B51F8043B40F8043B4C
:1016A00051F8043B40F8043B51F8043B40F8043B3C
:1016B00051F8043B40F8043B51F8043B40F8043B2C
:1016C00051F8043B40F8043B403ABDD2303211D3CC
:1016D00051F8043B40F8043B51F8043B40F8043B0C
:1016E00051F8043B40F8043B51F8043B40F8043BFC
:1016F000103AEDD20C3205D351F8043B40F8043BCC
:10170000043AF9D2043208D0D2071CBF11F8013BC9
:1017100000F8013B01D30B8803806046704700BF8F
:10172000082A13D38B078DD010F003038AD0C3F19E
:101730000403D21ADB071CBF11F8013B00F8013B80
:1017400080D331F8023B20F8023B7BE7043AD9D33F
:10175000013A11F8013B00F8013BF9D20B78037014
:101760004B7843708B78837060467047A2EB030020
:10177000704700BF02780B78012A28BF9A42F5D142
:101780006DE9044540EA0104CDE902676FF0000C01
:101790004FEA447212B380EA010414F0070F6AD1D1
:1017A00000F0070420F0070004F0030521F0070112
:1017B0004FEAC505F0E8042314F0040FF1E80467CC
:1017C0000CFA05F462EA040266EA04060AD063EA47
:1017D0000403624667EA0407664603E0F0E8042370
:1017E000F1E8046782FA4CF582EA0604A4FA8CF464
:1017F0006CBB83FA4CF583EA0705A5FA8CF595B91D
:1018000050E9022351E9026782FA4CF582EA0604A4
:10181000A4FA8CF483FA4CF583EA0705A5FA8CF553
:101820002543DBD09CB92DBAB5FA85F424F0070422
:1018300027FA04F1DDE9026723FA04F303F0FF005D
:1018400001F0FF01FDE80445A0EB0100704724BA58
:10185000B4FA84F424F0070426FA04F1DDE90267FF
:1018600022FA04F202F0FF0001F0FF01FDE8044556
:10187000A0EB0100704714F0030F3CD110F00304FB
:1018800028D150F8082B51F8083B82FA4CF582EA2F
:101890000305A5FA8CF55DB950F8042C51F8043C09
:1018A00082FA4CF582EA0305A5FA8CF5002DE8D002
:1018B0002DBAB5FA85F424F0070423FA04F122FACC
:1018C00004F202F0FF0001F0FF01FDE80445A0EB87
:1018D000010070474FEAC40420F0030050F8082BC1
:1018E00021F0030151F8083B0CFA04F462EA040207
:1018F00063EA0403C9E710F003041AD0A1EB040162
:1019000020F00300E40750F8042B06D00FD28B78A8
:101910005FFAA2F4E41A06D12BB1CB785FFAB2F4E5
:10192000E41A00D11BB920465DF8104B704701F155
:10193000040150F8042BCC0721F0030151F8043BBB
:1019400048D824D222F07F4482FA4CF594EA132539
:10195000A5FA8CF50AD165B951F8043B84EA020472
:10196000B4EB036F0ED150F8042BEBE74FEA1323CF
:1019700055E035F07F454DD10878FDE80445C0F1CC
:10198000000070474FEA126203F0FF0347E002EAEB
:101990001C4482FA4CF594EA1345A5FA8CF50AD159
:1019A00065B951F8043B84EA0204B4EB034F0CD14F
:1019B00050F8042BEBE74FEA134330E015EA1C45DF
:1019C00028D10B884FEA124229E04FEA124203EA7B
:1019D0001C4324E002F0FF0482FA4CF594EA1365FC
:1019E000A5FA8CF50AD165B951F8043B84EA0204E2
:1019F000B4EB032F09D150F8042BEBE74FEA136344
:101A00000DE015F0FF0F05D10B684FEA122223F00D
:101A10007F4304E04FF00000FDE80445704712BA30
:101A20001BBA82FA4CF482EA0304A4FA8CF5B5FAE4
:101A300085F402FA04F203FA04F34FEA1260FDE8B7
:101A40000445A0EB136070472DE9F34180460F4633
:101A50004DF084F84F4D0446394640464CF02AFE7E
:101A600095ED1F7AD5ED1E7AB4EEE77A2040F1EEBF
:101A700010FAC4B203D595F97430032B65D1B5F9CA
:101A80001A30B3F5967F0ADA424B5B8BADF8003023
:101A9000404600213A46404B4CF05CFC0024B5F92E
:101AA0001C30B3F5967F0ADA3A4B9B8BADF80030C9
:101AB000404600213A46394B4CF04CFC0024B5F925
:101AC0001E3013F5967F0ADD324BDB8BADF800300C
:101AD000404600213A46324B4CF03CFC0024D5F8FD
:101AE00018092C4E3DF064FE50B196F96C303BB1B4
:101AF000D6F81839B6F96E20B3F908309A422CDBC3
:101B0000244B03F58942127852B1B3F9B4281AB9BB
:101B1000B3F8B228A3F8B428B5F8B438632B24D9A5
:101B200042F6B453EB5C0A2B03D11E4B1B88012BEE
:101B300023D91D4B1B785B0727D5404600213A4629
:101B40001A4B4CF007FC00241FE0404600213A46A7
:101B5000174B4CF0FFFB002491E7404600213A462A
:101B6000144B4CF0F7FB0024CAE7404600213A46EC
:101B7000114B4CF0EFFB0024D2E7404600213A46DF
:101B80000E4B4CF0E7FB0024D3E7204602B0BDE843
:101B9000F08100BF30150020C8590C08E3590C082B
:101BA000005A0C08F0460020F04200201D5A0C0894
:101BB000325A0C08555A0C087B5A0C08A25A0C08C9
:101BC000F7B506460F464CF093FE0446E0B1F388A5
:101BD00003F01103C3B114F0C7FB0368D3F8B030AE
:101BE0009847054680B914F0BFFB03685B6A9847C5
:101BF000074B002808BF18460090102130463A468F
:101C0000044B4CF0A7FB2C46204603B0F0BD00BFB0
:101C1000B45A0C0838AC0C0849F08CBA56F0E4BE43
:101C200045F006BB06F0E8BA22F070B830F08EBE80
:101C300009F0B2B82FF000BC09F0FABE0EF0E0BC1B
:101C400004F0E8BA2FF07AB84DF062BB3FF008BE5E
:101C50000DF082BA0EF0C2BD0DF09EBA0DF070BA52
:101C600045F03EBB0DF02EBA0EF098BE16F094BDB6
:101C700017F0EEB808F00ABB02F0E8BD02F0ECBDC8
:101C800005F0E8BE0DF0ACBA09F0FABC02F0F0BD08
:101C900008F008B90EF0B4BB01F0E6BF0EF050BE7C
:101CA0000DF040B910B504462DF00AFE04F52D5094
:101CB0003C303FF027FC20460FF0B6F904F67800E0
:101CC000034933220823BDE810402EF053BE00BF65
:101CD000085B0C0838B500F67805044628462EF057
:101CE00087FFD5ED107A9FED0E7AF0EEE77AF4EEED
:101CF000C77AF1EE10FA41BFB4F9B23807EE903A64
:101D0000F8EEE77AB7EE007A48BFC7EE277A04F517
:101D1000854448BFC5ED107A2B6CA36738BD00BF62
:101D20000000003470B50E4B06461D6800F5874074
:101D300010306C6C4CF0EAFA40B16C6C23682046B1
:101D40005B69984710F1FF3018BF012020716B6C60
:101D500006F66C101979BDE8704030F04BBC00BF3E
:101D6000B85A002043F28C13C35CDB0705D542F65A
:101D7000CC23C05803681B6818477047FFF7F2BFB1
:101D800090F9B2301BB100F6745019F027BA7047C1
:101D9000FFF7F6BF10B5022104460FF00DF820B191
:101DA000204601210FF008F8B8B1204602210FF0BB
:101DB00003F820B1204680210EF0FEFF88B12046B6
:101DC00002210EF0F9FF88B104F5E05104F66C1021
:101DD0001831BDE8104035F0EBBD204604F046F95F
:101DE000E3E704F66C1032F001FDE8E710BD0000F7
:101DF000FFF7D0BF10B5102104460EF0DDFF10B183
:101E0000204604F027FC204620210EF0D5FF10B11B
:101E1000204604F033FA20464FF400510EF0CCFF78
:101E200010B1204604F0D2FB204680210EF0C4FF02
:101E300028B104F66C10BDE8104032F0C9BD10BDE9
:101E4000FFF7D8BF70B542F6C8530446C55808F02E
:101E5000C3FC42F6D453024604F584402946E358B5
:101E60003830BDE870404AF0ADBC0000FFF7EABF73
:101E700090F9B2305BB190F8C23D43B1044B1B689E
:101E80005B6C1B791BB900F6745019F009BA7047E6
:101E9000B85A0020FFF7ECBF38B5044600F53E50B5
:101EA0003C3090F82411012959D8142303FB010375
:101EB00093F91130002B52D094F8843B6C2203F03C
:101EC00003035A43A51895F8315A022D47D904F651
:101ED000C8152A4492ED207AF1EE007AB4EEE77A42
:101EE000F1EE10FA3BD47C2202FB0101B4F90A2086
:101EF00091ED0C6A07EE902AF8EEE76AB4EEE66A16
:101F0000F1EE10FA06D5F8EE677AB4EEE77AF1EE64
:101F100010FA24D441F62842D4F8C019A258002A55
:101F2000B8BF52428A421ADC41F62C42B4F91C1066
:101F3000A2588A4213DCD4F8C4198A4200DA38BDA8
:101F40006C2202FB035590352946B4F90C2015F09C
:101F5000F3FF20462946BDE8384002F083BC38BD77
:101F6000FFF79ABFF8B590F8841B3D4A01F00301D2
:101F70000C2303FB01030446D3F8100A13689842AC
:101F800006D06C2303FB014393F8313A022B10D89F
:101F90006C2303FB014191F8313A022B04D842F63D
:101FA000D853E25C002A58D12046BDE8F84009F039
:101FB000E1BC106042F6D852A35C012B01D9013B71
:101FC00009E03BD144F2B823E35833B944F2BC23CF
:101FD000E35813B90523A35430E06C2707FB0141F4
:101FE000204601F63A2106F05FFB44F2A42304F5F3
:101FF0008542E658283230687168154603C5B068D6
:1020000028601068516804F58543403303C3906825
:10201000186094F9B2306BB194F8843B03F0030379
:1020200007FB034304F67450D3F83E1AD3F8422A50
:1020300019F046F942F6D8530022E2542046002116
:1020400008F0D8FB04F52B502C304DF0EFF804F5D8
:10205000E050183011F0BAFAA6E70522E254A3E7DF
:10206000E0140020FFF77EBFF8B543F2B813044632
:10207000C35C012B0CD00B2108220EF0FDFC04F5F3
:102080000F50083006212C4ABDE8F84037F0F0B96F
:1020900000F5874500F547534C3528465E8C0BF01C
:1020A00029F9074638B104F5854128464031BDE895
:1020B000F8400CF0D9BA162E06D0152E29D143F2CD
:1020C0009413E35C072B06D120460FF07FFC2046DB
:1020D0000FF058FD2BE0204601F00EFC204601F0E9
:1020E0008BFA43F2A41694F9D820A15904F56B5544
:1020F0001435642328465A4356F0B8FDA0512846AB
:1021000056F06EFF98B139464620BDE8F8403EF0E3
:1021100091B81E2E1CBF43F214134FF0FF3220461D
:1021200018BFE25001F0E8FB204601F065FA2046B6
:10213000BDE8F84001F04EB81C5F0C082DE9F041F5
:102140002DED028B42F6B4530446C75C0A2F04D12E
:1021500090F952302A2B05D1052743F214134FF082
:10216000FF32E25004F587464C3630460BF0FCF85F
:1021700004F5E055183538B904F589431B7843B1A7
:1021800096F8D5309B0704D595F868306FF3410376
:102190000EE043F29413E35C042B40F0288204F534
:1021A0006B50143056F02CFF95F8683060F3410303
:1021B00085F86830152F00F21F82DFE817F06901FB
:1021C00054014C012C0065008600110114018600A9
:1021D0001D021600280028001D021D001D001D0202
:1021E00084018401840184018401BDEC028B2046BA
:1021F000BDE8F041FFF738BF43F25813E35C98079E
:1022000005D504F589431B78002B40F0D581204685
:1022100001F072FB32E142F2653342F2643600258E
:10222000A5552046E55401F0AFFA41F6284343F2A4
:10223000A412E158D4F8C039994202DA5B429942BB
:1022400001DCA35002E00123A355A55041F62C4325
:10225000B4F91C20E158914243F2A81308DAD4F8EB
:10226000C4299142C1BF42F265320121A15400222A
:10227000E250204607F0C0FE002800F0BD8143F286
:10228000A812A3585B42ECE043F2EC0343F2A41221
:10229000E35C43B104F54353D3ED0C7AFDEEE77AEA
:1022A00017EE903A02E041F62843E358A35043F278
:1022B000ED03E25C43F2A81312B143F2F40201E031
:1022C00041F62C42A258E25096E1D4F810093DF0B4
:1022D000F1FAD4F8C03907EE903AF8EEE77A43F213
:1022E000A41520EE270AFDEEC07A17EE900A605181
:1022F000D4F8C0391A46594223F0B0FE6051204646
:1023000001F042FAD4F814093DF0D4FAB5EEC00A4F
:10231000F1EE10FACBBFB4F91C20D4F8C42907EEB3
:10232000902A07EE902ACBBFF8EEE77AF8EEE77A2C
:1023300020EE270A27EEC00A43F2A813BDEEC00A1A
:1023400043F2A81510EE102A2046E25001F0EAF9F7
:102350006059D4F8C419B4F91C2023F07FFE6051F1
:10236000204607F049FE10B163595B42635104F502
:1023700037531B78D90704D594F97430022B00F039
:10238000228194F8E40043B2002B40F335810138F8
:10239000C0B23DF0C5FB40F2A463984240F22C81EC
:1023A00043F22011635C9A0600F1268104F5445241
:1023B00092ED0C7AD4ED327AB4EEE77AF1EE10FABF
:1023C00040F11A81BDEC028B04F50F5043F020035D
:1023D0006354083004218A4ABDE8F04137F048B818
:1023E000D4F8100911E0D4F81009B0F90230002B2C
:1023F00040F0F580D4F81C39B3F90230002B40F0DE
:10240000EE8043F2F803E35CDBB93DF053FAD4F815
:10241000C03907EE903AF8EEE77A43F2A41520EEC1
:10242000270AFDEEC07A17EE900A6051D4F8C03941
:1024300059421A4623F012FE6051204601F0A4F9D9
:1024400002E0204601F058FABDEC028B2046BDE8C0
:10245000F04108F0D5BF43F2A4120023A35043F289
:10246000A812A350C8E0D4F8C039032293FBF2F3BA
:1024700043F2A4122046A35001F086F9204601F051
:10248000BBF8BDEC028B2046BDE8F04100F0A2BED7
:10249000D4F810093DF004FA014604203DF0CAFECC
:1024A000D4F814093DF0FCF9014613203DF0C2FEBA
:1024B000D4F81C093DF0F4F942F26A33E05242F2DA
:1024C0006833E05298E044F2D037D4F8C039E25F84
:1024D0009FED4C7A9342A8BF1346D4F81029B2F965
:1024E000022007EE902AF8EEE77A1AB2C7EE877A52
:1024F00043F2A418514204F58745503507EE102ADF
:10250000B8EEC77A67EE877AFDEEE77A17EE900AA3
:1025100044F8080023F0A2FD44F80800D4F8140998
:102520003DF0C8F93046B0EE408A0EF0D7FE43F2D7
:10253000A816E15F58B107EE901AF8EEE77A28EE98
:10254000278ABDEEC88A18EE103AA35154E0B5EEC2
:10255000C08AF1EE10FAB4F91C2013DD8A42B8BF2C
:1025600004F11C05B5F9003007EE903AF8EEE77A71
:1025700043F2A81328EE278ABDEEC88A18EE101A77
:10258000E15010E0D4F8C4395B428B42A8BF0B463F
:1025900007EE903AF8EEE77A28EE278ABDEEC88A71
:1025A00018EE103AA35143F2A815D4F8C419605993
:1025B00023F054FD60511FE0BDEC028B3046BDE8B6
:1025C000F0410CF0E7B843F2A4120023A35043F209
:1025D000A8124620A35001213DF0D0FCD1E643F2E1
:1025E000F8020023A35404F54452136009E795F858
:1025F000683043F00203DBE5BDEC028BBDE8F081FF
:10260000475F0C0800A08C45FFF798BD38B52DED4D
:10261000028BB0F95A50002DB8BF6D42044625B95F
:10262000B0F92250002DB8BF6D4242F6B453ADB29E
:10263000E35C073B082B00F2B580DFE803F06AB3E8
:10264000B3051662B362620004F5E053183393F8E1
:102650003C31D80740F1A680BDEC028B04F5465012
:102660003830BDE8384027F0E1BF04F589431B78D6
:10267000002B55D044F25643E356012B50D142F67D
:10268000C823E05803689B6B984788B15BF07CFADD
:1026900042F6B853E358C01AB0F57A7F40D9BDEC82
:1026A000028B204615210022BDE838400EF0E4B927
:1026B00004F5854004F5854104F585423430283120
:1026C000403223F0A3FE0028E0D104F5874004F552
:1026D00045534C3093ED018A0BF01EFD07EE905AE6
:1026E000F8EEE77AF4EEC07AF1EE10FAC4BF07EE26
:1026F000905AB8EE670AB4EEC08AF1EE10FAC5D46B
:102700000EE00021BDEC028B2046BDE8384008F009
:10271000F3BFBDEC028B2046BDE8384008F0CEBDCB
:1027200094F93030012B11D143F22013E35C5906A8
:102730000CD4204608F00EFF40B142F6EC5340F2B4
:10274000CE72E35803F2E733934219D994F930304B
:10275000022B04D143F22013E35C5B0610D5B4F9DD
:102760005A3083EAE371A1EBE3710029CAD0002B50
:1027700044F28423B4BFFF22012289B2E254C1E7AC
:1027800004F54650383028F051F820B120460A218F
:1027900000220EF071F943F22012A35C43F04003D3
:1027A000A354DCE7BDEC028B38BD000070B543F2EA
:1027B00094130446C35C8B420D461ED00B1F594236
:1027C00000F56B505941143056F05EFB072D0CD1CB
:1027D00043F2241304F50F50E658084A64230830E6
:1027E000052196FBF3F336F043FE43F294132046A3
:1027F000E554BDE8704003F0A1BD70BD575F0C0803
:1028000038B543F28C130446C35CD8072CD543F289
:102810008D13E35C43BB42F6B453E35C0A2B2FD128
:1028200004F587454C3528460AF064FD10B1204672
:10283000022127E043F22013E35CD90702D42046AB
:1028400001211FE004F5475320335B88152B13D17A
:1028500004F56B5014300379DA0741D443F2941332
:10286000E35C072B24D13BE004F587454C35284633
:102870000AF07AFD0028DAD104F589431B7893B970
:1028800020460321FFF792FF04F5466004F53E540D
:1028900015F0BEFC94F860317C223C3402FB03440A
:1028A00084ED100A38BD95F8D5309B07E8D5BEE712
:1028B00043F63A43E3562BB1D4F81839B3F9023052
:1028C000592B02DC20460421DCE756F0C7FA002829
:1028D000F8D004F50F5008300621034A36F0C8FD41
:1028E00020460721CEE700BF785F0C0830B542F6DE
:1028F000353389B0C35604467BB300F52C502C30D9
:102900002BF0CAFB164D42F660332A68E358934217
:1029100023D02B6042F64D3304AAE35C8DF80F30D0
:1029200004F52D53103393E8030082E8030004F507
:102930002D51183103C906AB83E8030004F52C516F
:102940003C3104F5E0500191183000950DF10F0174
:1029500012F0A4FE204603F09DFD09B030BD00BF7B
:10296000E4140020FFF7C2BF70B543F638460446B2
:102970008357002B27DD08F0D7F820BB04F58745E7
:10298000103528464CF0C4F9E8B128464BF0BEFC9F
:1029900000B970BD5BF0F8F843F24C13A257E3584E
:1029A000C01A4FF47A73534398420CD320460EF06A
:1029B00047FA40B104F50F5008300621024ABDE83D
:1029C000704036F055BD70BD955F0C0810B52DED0B
:1029D000028B43F294130446C35C042B09D105F027
:1029E00013F92046B0EE408A05F0EAF938EE400AC5
:1029F00003E000F5854494ED1D0ABDEC028B10BD8B
:102A000030B500F5455342F6C825043385B0044679
:102A10001B684059009303681B69984701906059EF
:102A200003685B69984743F2E0134FF6FF72E35A7D
:102A30008DED020A04F52E50934208BF0023143096
:102A40006946ADF80C3059F051F805B030BD0000C2
:102A5000FFF7D6BF10B50A46044903460868016867
:102A60000C681946024BA047002010BDB85A002040
:102A700030150020F8B50446FFF754F994F9B13049
:102A8000012B02D1204601F0E7FE04F5E055183590
:102A90002846002112F038FD204680210EF08CF9E6
:102AA00018B104F66C1031F0A1FEB4F91A30C4F874
:102AB000C03904F58747B4F91E30C4F8C4394C371F
:102AC00038460EF00BFC28BBD4F8C03907EE903A1C
:102AD00004F5EA5393ED077AF8EEE77A67EE877A22
:102AE000FDEEE77A17EE903AC4F8C039D4F8C4394D
:102AF00007EE903A04F5EA53B8EEE77AD3ED067A9A
:102B0000F0EEE77A67EE277AFDEEE77A17EE903A75
:102B1000C4F8C439284612F03FF80646284612F099
:102B200047F804F5445500F11801304626F0AEF898
:102B30001C3504F5854696ED1E7AD5ED007AE0EE5B
:102B4000077AC5ED007AB0EE670A23F073FA3846CB
:102B500085ED000A09F0B6FA04F5874096ED1E0AE5
:102B60005430BDE8F8404EF027BC0000FFF782BFAC
:102B700070B590F9B2300446FBB100F67456304699
:102B800018F03EFB00B970BD04F5E0551835284635
:102B90002E6713F027FA20464FF480610EF00CF9EF
:102BA00058B1284611F020FF38B904F66C10002205
:102BB0000023BDE8704034F0A5BC70BDFFF7D8BF5E
:102BC00070B5044600F50F500021083038F0E0F9E8
:102BD00020460BF067FF04F5E050183013F002FABE
:102BE00043F6AE436289E25204F57152A38992F82A
:102BF0007D1051B91BB207EE903A9FED2C7AF8EE9A
:102C0000E77A67EE877AC2ED1E7A294BE28C1A705A
:102C100004F5874510353DF0F3F828460021FEF70E
:102C200013FF244E012370722846B3724BF06EFBE3
:102C300028B928464CF06CF8B0FA80F040093072A0
:102C4000042120460EF0B8F830B104F54950243084
:102C500004F66C112EF09EFC28464BF057FBB8B9D9
:102C600094F8843B0C2203F0030302FB034244F27A
:102C70003831D2F8100A625841F28835821AAA42D5
:102C800006D96C2202FB034393F8313A022B04D895
:102C90002046BDE870400CF0EDBA6050204605F0CB
:102CA000CFFC04F56B5300225A61F1E7C0CFF83F27
:102CB0000A080020505B0020FFF782BF70B5044671
:102CC00000F5E056183604F585413046343111F0F0
:102CD000A3FF04F5854542F6D9537435E0542946DF
:102CE000304611F069FBD5ED007AF1EE677AC5ED5B
:102CF000007A04F6C810BDE870401BF067B8000009
:102D0000FFF7DCBF2DE9F04F2DED028B00F5466596
:102D100087B00446284615F051FB04F5E050002327
:102D2000183003A903930493059312F0BDF810B172
:102D30009DED050A13E094F8843B03F003026C2335
:102D40005343E21892F8311A02296DD992F8702A89
:102D5000D20769D504F6C812134493ED260ADFEDB5
:102D6000397A04F5445393ED0F7A20EE270ADFED0C
:102D7000367AA7EE270A2046012183ED0F0A07F0D5
:102D800039FD2046FFF73CFD43F28C13E35CDB0783
:102D900053D543F28D13E35C002B4ED143F29413D1
:102DA000E35C042B46D104F5854604F585453436AD
:102DB000403504F58541304628312A4623F026FB6C
:102DC000C0B33046294623F0EFF9B0EE408A42F610
:102DD000CC232046E65833685F6805F00FF842F6CA
:102DE000DC53824654F8039043F29413204614F8BF
:102DF00003800EF057FE42F6E6538346E55A20461E
:102E0000FFF7E4FD2DB204F54654CDF800B001956E
:102E1000F0EE400A304651464A464346B0EE480A74
:102E200094ED0C1AB84708E0284615F0A3F9B1EE66
:102E3000400A94E79FED058AC9E707B0BDEC028B15
:102E4000BDE8F08FCDCC4C3ECDCC4C3F0000000017
:102E5000FFF758BF38B543F28C130546C35CD9075A
:102E600011D59A070FD590F9B930CBB107F07AFC9C
:102E70000446A8B142F6C253EB5E8BB928460BF06C
:102E8000ADFF68B90DE005F537531B78DB0705D5B5
:102E900095F97440023C18BF012402E0012400E0CF
:102EA0000024204638BD000010B52DED028B0446ED
:102EB000B0EE408A07F0A0F878B143F2A412A3580C
:102EC00003F58C415031A15041F628416158002949
:102ED000BEBFA3F58C43503BA35042F6B453E35C12
:102EE000022B07D1D4F81039B3F90220003218BFF1
:102EF000012200E0002243F2A41304F50550E1583A
:102F000041F62843B0EE480AE3582830C91A49F080
:102F1000FDF8BDEC028B01B2BDE8104004203DF08D
:102F200089B9000038B52DED028B0546F0EE408AD8
:102F30000EF0E2FE044630B100EB4004C4EB041195
:102F4000132009B233E043F2A813B5F9AC20EB58D3
:102F5000134407EE903A4620B8EEE78A3DF07CF93C
:102F600007EE900AB8EEE77AD5ED0F7A42F6B45341
:102F7000A7EE278AEB5C022BBDEEC88A07D1D5F8F5
:102F80001439B3F90220003218BF012200E02246B2
:102F900041F62C4305F50850E95818EE103A143064
:102FA000591AB0EE680A48F019FF01B21320BDECBF
:102FB000028BBDE838403DF03DB90000B0F900306B
:102FC0009FED176A07EE903AB0F90630B8EEE77A4F
:102FD00007EE903AF8EEE77AB1F9003077EE677ACB
:102FE00082B0F0EEE77AF4EEC67AF1EE10FA58BF4E
:102FF000F0EE467A36EE677A07EE903AF8EEE76A38
:10300000C7EE067A66EEA77AFDEEE77ACDED017A95
:10301000BDF804300B80428813440B8002B0704727
:103020000000C84313B50446FFF714FF38B342F657
:10303000B453E35CA3F11102042A20D9033B052B0E
:103040001DD904203DF008F902A921F8040DD4F897
:103050001009FFF7B3FFBDF9041004203DF0EAF8B2
:1030600013203DF0F9F802A921F8020DD4F8140953
:10307000FFF7A4FF1320BDF906103DF0DBF802B006
:1030800010BD000038B52DED028B0446FFF7E2FEBF
:10309000002800F09B8042F6B453E35CA3F11102D8
:1030A000042A40F29380DA1E052A40F28F800A2B10
:1030B00004D194F952302A2B00F08880D4F81009FA
:1030C0003CF0F8FBF6EE007AB4EEE70AF1EE10FA07
:1030D000F0EE678A02DDFFEE007A08E0FEEE007A8D
:1030E000B4EEE70AF1EE10FA07D5F7EE007AB0EE8B
:1030F000087AE0EE077AB0EE670A43F2A415635946
:1031000007EE903AD4F8C03907EE103AF8EEE77AB5
:10311000B8EEC77AE0EE077AFDEEE77A17EE900A8E
:103120006051D4F8C03959421A4622F097FF6051D5
:10313000D4F814093CF0BEFBB4EEE80AF1EE10FA44
:10314000B0EE408A02DDFFEE007A08E0FEEE007A83
:10315000B4EEE70AF1EE10FA07D5F7EE007AB0EE1A
:10316000087AE8EE077AB0EE678A204606F044FF58
:1031700008B1B1EE488A43F2A813B5EEC08AE1580F
:10318000B4F91C20F1EE10FA07EE901AD6BFD4F86D
:10319000C41907EE102A07EE101AF8EEE77ACABF34
:1031A000B8EEC77AB8EEC77AE8EE077A43F2A81508
:1031B000D8BFE8EE477AFDEEE77A17EE901AE150B5
:1031C0006059D4F8C41922F049FF6051BDEC028B5C
:1031D00038BD000037B590F90730012B044602DCFA
:1031E000462000211CE042F6CC23C05803689B68AF
:1031F000984742F6B4530190E35C0E3B012B0CD888
:103200000E4D43F278142B593BB15AF0BDFC2B59AB
:10321000C01A40F6B733984207D9BDF904104620CA
:1032200003B0BDE830403DF005B8054BD3ED007A62
:10323000FDEEE77ACDED017AEFE700BF3015002013
:10324000A4460020F8B52DED028B42F6B453054696
:10325000C35C022BB0EE408A06D143F2AC12845E0E
:10326000003418BF012400E000240E3B012B1CD8C1
:103270001F4E43F27017F359002B16DD5AF084FCF1
:10328000F359C01A40F6B73398420ED843F264138C
:10329000F05A184900B241F2941222F0E7FEBDEC58
:1032A000028B42F26A33E852F8BD05F50B50214615
:1032B000B0EE480A083049F08FF8044604203CF08C
:1032C000CBFF07EE900A23B2F8EEE76A07EE903ADA
:1032D00095ED0D7AF8EEE77A43F2AC13E6EE877AD5
:1032E000E85AFDEEE77A17EE903A034498B2D0E739
:1032F000301500206CEEFFFF70B542F6C82304467F
:10330000C0580368DB689847014604F50C50143038
:1033100049F040F842F2683504F50D5660532046F6
:103320002836FFF797FD20B1D4F81C093146FFF786
:1033300045FE605F034941F2941222F097FE60530C
:1033400070BD00BF6CEEFFFF38B590F8842B00F61F
:10335000C81302F003026C2101FB023393ED207AC3
:10336000F7EE007AB4EEE77AF1EE10FA044619D5DA
:10337000D0F81839B3F90230A3B943F29412825C41
:10338000012A0FD0072A0DD043F21812835400F5FA
:1033900044530022DA6143F2AC13C25A42F268335A
:1033A000C25238BD43F2941143F2AC13615CE35A4C
:1033B000B4F84420012912D0072910D01BB200EE26
:1033C000103ADFED297AB8EEC00A13B2C0EE277AC0
:1033D00000EE103AB8EEC00A27EE800A01E09FED39
:1033E000230A9FED237AF0EEC07AF4EEC77AF1EE6D
:1033F00010FA43F2181302D40022E2540BE0E25C0C
:103400004AB901229142E25405D007291EBF04F5B2
:1034100044530022DA6143F2181304F50C50E35CC4
:10342000143013B948F096FE11E004F5445393EDBF
:10343000077ADFED107A67EEC77A9FED0F7A67EEB5
:10344000877AFDEEE77A17EE901A48F0A3FF42F272
:10345000683342F26835E0520849605F41F29412E5
:1034600022F004FE605338BD00A08C45000000002F
:1034700000000034E02E65420000C8426CEEFFFF01
:1034800070B500F56B5514352DED028B04462846BA
:10349000B0EE408A55F096FB20B142F2663301222D
:1034A000E2541BE0D4F81039B3F9023073B904F5D3
:1034B0008543D3ED1D7A94ED107AF0EEE77AF4EEC1
:1034C000C77AF1EE10FA4CBF0120002042F26636B6
:1034D000A055284655F090FB00B9A055284655F058
:1034E00071FB40B943F21413E35801330FD042F299
:1034F0006633E35C5BB12046FFF7FEFEB0EE480AA0
:10350000BDEC028B2046BDE87040FFF79BBE42F247
:103510006633E35C002BF1D02046FFF715FFEDE7A3
:1035200038B52DED028B42F264330446C35CB0EE35
:10353000408A002B4FD1FFF7B7FC43F2A413E358A6
:10354000002B05DC43F2A413E358002B13DA09E047
:10355000D4F8103904205D883CF07EFE2DB28542FF
:1035600039DBEFE7D4F8103904205D883CF074FEB5
:103570002DB285422FDC42F26533E35C9BBB2046D3
:10358000B0EE480AFFF7CEFC43F2A813E358002B35
:1035900005DC43F2A813E358002B13DA09E0D4F852
:1035A000143913205D883CF057FE2DB285421ADB9A
:1035B000EFE7D4F8143913205D883CF04DFE2DB2AE
:1035C000854210DCB0EE480ABDEC028B2046BDE817
:1035D0003840FFF755BFD4F810390420B3F9021072
:1035E0003CF028FEC7E7D4F814391320B3F90210D1
:1035F0003CF020FEE6E70000F8B542F6CC23044696
:10360000C0580368DB68984742F6B4530646E35C4B
:103610000E3B012B0DD80E4D43F26C17EB59002BCE
:1036200007DD5AF0B1FAEB59C01A40F6B7339842A9
:103630000AD93046D4F8C419B4F91C2022F00EFD82
:1036400043F2A813E050F8BD43F26013EE58F0E7E0
:103650003015002030B50346B0F8720000285FD066
:1036600042F6B4529A5C013A0E2A56D8DFE802F0CC
:1036700049555555554F4C555508464355525200DE
:1036800003F547535C8C162C49D085B205F0020334
:103690009BB200F001022BB1A4F1150CDCF1000388
:1036A00043EB0C03134305F0040292B21AB1A4F1E8
:1036B0001F004242424105F0080113438AB25AB149
:1036C0001F2C08D0A4F11202012A04D9A4F111017F
:1036D0004A424A4100E0012205F0100080B21A433C
:1036E00038B1102C04D0A4F152035842584100E0E4
:1036F0000120104330BDC0F3401030BDC0F3801036
:1037000030BDC0F3C01030BDC0F3002030BDC0F3E9
:10371000402030BDC0F3802030BD012030BD0020EE
:1037200030BD000010B504460DF04AFB002827DB31
:1037300094F90730984223DA43F29412A25C022AE9
:103740001ED043F2A81294ED126AA158DFED0D7A53
:1037500027EEC66A07EE901A191AB8EEE77A06EE57
:10376000903A07EE901AF8EEE66AF8EEE77AC7EEBE
:10377000A67AA6EE277AFDEEC77A17EE903AA35006
:1037800010BD00BF0000C842F8B52DED028B43F21A
:10379000A4139FED530AC3589FED527A07EE903A57
:1037A000F8EEE77A044667EE807A9FED4F0AF0EE76
:1037B000E77AF4EE477AF1EE10FAC8BFF0EE477AF6
:1037C00027EE800AAAF0BAF922F076FBB7EE008A5B
:1037D00088EE000A04F5465604F5874530364C3528
:1037E000284686ED000A0AF07BFC20B144F23053F3
:1037F000E358DB0762D494F92130002B6CD02046CB
:1038000006F0FAFB002867D128460DF067FD002876
:1038100062D1B4F90A30012BB8BF012307EE903A08
:1038200004F54652B8EEE70AD2ED0D7AC7EE807A7B
:10383000F4EEC87AF1EE10FA0ED843F2A4152B4933
:10384000605940F6C41222F009FC60512749D4F8AF
:10385000C00940F6C4122CE096ED007AF4EEC77A67
:10386000F1EE10FA38D5B7EE000A80EE270A43F2DF
:10387000A41720EE000AAAF055FBDFED1D7AE059EF
:1038800020EE270ADFED1B7A20EE270A40F6C4134C
:10389000FDEEC07A17EE905A9D42B8BF1D466E42AB
:1038A00031462A4622F0DAFBE051D4F8C00931460D
:1038B0002A4622F0D3FBC4F8C0090DE094F9D820C1
:1038C000642312FB03F3D4F8C0299A42D4BFC4F88E
:1038D000C029C4F8C0398EE7BDEC028BF8BD00BF2B
:1038E0000AD7233C0000AA4235FA8E3C3CF6FFFF83
:1038F000E02E65420000C842F8B542F6C8230446EF
:10390000C05803681B68984742F6B4530646E35C08
:103910000E3B012B0DD8104D43F26817EB59002BCD
:1039200007DD5AF031F9EB59C01A40F6B733984227
:103930000DD9D4F8C0293046514222F08FFB43F212
:10394000A413E0502046BDE8F840FFF71DBF43F246
:103950005C13EE58EDE700BF3015002010B52DEDDB
:10396000028B044682B000F5E050183001A910F037
:10397000A9FC002856D004F544539DED010AD3ED6F
:103980000C7AB4EEE70AF1EE10FA03F13003C8BF87
:1039900083ED000AB4F90A30DFED457AD4ED136AFD
:1039A00000EE903AB4F90C30B4EEE70A07EE903A24
:1039B000F8EEE00AF6EE008AB8EEE77A60EEA80AC2
:1039C000F7EE087A67EE277AC0EEA60AC7EEA67A67
:1039D000F1EE10FAB0EE006AF4EE680ACCBF86EEA3
:1039E000800AB0EE460AF1EE10FAF4EE467AC8BF4D
:1039F000F0EE680AB0EE001AF1EE10FA58BFB0EE21
:103A0000671A22F03DFB04F587404C30B0EE408A47
:103A100009F0AAFC002845D0264B1B685B6C1B797B
:103A200003BB3FE046203CF017FC00280FDD46209A
:103A30003CF012FC07EE900AB8EEE77ADFED1E7A52
:103A4000C7EE877AB6EE000AA7EE800A01E09FED86
:103A50001B0ADFED1B0A9FED191A22F011FBB0EED5
:103A6000408A1FE0B4F90A309DED011A02EE103AC7
:103A7000B8EEC22A22EE282AB4EEC21AF1EE10FAEB
:103A800010D5D4ED130A9FED0F0AC0EE820AF0EEB6
:103A9000401A22F021FAB4EEC08AF1EE10FA58BFB3
:103AA000B0EE408AB0EE480A02B0BDEC028B10BD09
:103AB00017B7D138B85A0020000034428FC2D53F22
:103AC0009A99193F0000000070B52DED028BD0F8D7
:103AD00010399FED617AB3F90230F0EE408A00EEC2
:103AE000103AB8EEC00AB0F98C30C0EE077A00F593
:103AF00005560446283600EE103AD0F81439B3F9CA
:103B0000023008EE103AB8EEC00AB8EEC88A27EEC6
:103B1000800AC8EE077AB0F98E3008EE103A90F9B4
:103B20009030B8EEC88A27EE888A43B19FED4B7A71
:103B3000F0EEC07AF4EEC77AF1EE10FA1DD443F23B
:103B4000EC030022E2543046F0EE680A48F0DAFA5C
:103B500001B204203CF06EFB94F9903004F508505B
:103B60001430002B6DD09FED3D7AF0EEC87AF4EE64
:103B7000C77AF1EE10FA39D463E043F2EC0300F5B2
:103B80004355C25C303522B90122E25400232B6038
:103B900010E004F5E050183010F0FEFF04F5854306
:103BA000D0ED006A93ED1E7AD5ED007AE6EE877AC5
:103BB000C5ED007A95ED007ADFED297A67EEC77AD8
:103BC0009FED287A67EE877A41F62843FDEEE77A83
:103BD000E35817EE901A43F2A4120B44A350304658
:103BE000B0EE680A012248F091FAB1E743F2ED0322
:103BF000E25C3AB90122E25441F62C43E25843F226
:103C0000F403E25043F2F40343F2A812E358A35042
:103C100041F62C42B0EE680AA1580022591A48F029
:103C2000DDF801B213203CF005FB43F2AC13BDEC10
:103C3000028B42F26A32E35AA35242F26832A35232
:103C400070BD43F2ED030022E254B0EE480AF0EEFC
:103C5000680A47F0D7FFE4E700A08C450000003475
:103C6000E02E65420000C84270B52DED028B42F691
:103C7000B4530446C35C002B00F0C880FFF76EFE0F
:103C800004F587454C352846B0EE408A0DF0ACFB74
:103C9000D0B144F20853DFED5F0AE3569FED5E1AA0
:103CA0005A1D6423534300EE103AB8EEC00A22F0C6
:103CB000E7F9BDEEC00A43F2A81310EE102AE25055
:103CC00043F2A4130022E25042F6B453E35C032B08
:103CD00005D12046B0EE480AFFF722FC30E0042B65
:103CE00005D12046B0EE480AFFF7EEFE28E0113B72
:103CF000042B04D828460DF077FB002853D094F904
:103D0000B930012B04D142F6B453E35C022B4ED1FF
:103D10002046B0EE480AFFF7C7F82046B0EE480A42
:103D2000FFF700F994F9B930022B44D042F6B453AE
:103D3000E35C022B3FD02046B0EE480AFFF7A0FB21
:103D4000D4F81839B3F90230002B5FD104F585435C
:103D5000D3ED1D7AB1EE047AF0EEE77AF4EEC77A8D
:103D6000F1EE10FA52D504F5466014F003FAF6EEBF
:103D7000007AB0EEC00AB4EEE70AF1EE10FA45D5CB
:103D800094F8842B04F6C81502F003026C2606FB97
:103D9000025292ED207AF0EE087AB4EEE77AF1EE74
:103DA00010FA0CD432E028460AF0C0FCC8E72046DE
:103DB000FFF768F9ACE72046FFF734F9BBE704F5F5
:103DC0000550283048F0C2F904F50850143048F086
:103DD0005FF804F50B50083048F056FC94F8842B3B
:103DE00002F0030206FB025393ED207AF7EE007A0D
:103DF000B4EEE77AF1EE10FA08D5BDEC028B04F5CB
:103E00000C501430BDE8704048F0E2BABDEC028BB3
:103E100070BD00BF00E0AB4500D0044600207047F5
:103E200001207047002070470120704742F6B453CC
:103E3000014AD05C704700BF30150020014B93F859
:103E40002800704730150020014B93F92A00704775
:103E500030150020034B93F9B100431E58425841DE
:103E6000704700BF3015002044F25443024AD05638
:103E7000003018BF012070473015002000487047FF
:103E8000A422002000487047E84600200048704700
:103E90001C400020004870476857002000487047C9
:103EA00094400020014809F033B900BFFC580020BD
:103EB00010B5204B42F6B45201249A5C152A0FD853
:103EC0001D499440214041B91C49214039B914F0A1
:103ED000190F14BF4024012402E0182400E010242C
:103EE00042F26531595C21B142F264311148415CC2
:103EF00009B944F0100493F9B91012F0EF0F18BF8C
:103F000044F0100409B1102A0ED193F9B130012BFD
:103F100008BF44F02004102A09D009484AF0F6F9F5
:103F200028B144F0800402E044F04004EDE744F09E
:103F3000010010BD3015002002DC2000E4011E004D
:103F4000C05800202DE9F0432DED028B8BB0804648
:103F500012F00AFADFF89490476890ED028AC6687A
:103F6000B9F8AC5004461E480DF0B8F968B92DB246
:103F700007EE905A9FED1B7AF8EEE77A67EE677AC4
:103F80009FED197AA7EE878A07E044F21C5359F88F
:103F900003305F6893ED028ADE6823682046DB6A9F
:103FA0009847044698F8185059F0EEFD6268A368E7
:103FB00021680892099327221C23039007910192FC
:103FC000009328461E2103AA04978DED058A0696C4
:103FD0003AF040F90BB0BDEC028BBDE8F08300BFB6
:103FE000FC5800200AD7233C35FA8E3C30150020BF
:103FF00008B504480CF0E4FE0028B8BF404200B207
:1040000008BD00BF30150020F0B50C89CB791C4EDF
:104010001C4843EA042343F3170444F2C127C4F3C2
:1040200007237370C455C4F30743B3708B79DB0760
:1040300013D544F2A423C558AB786A7842EA032228
:10404000EB7842EA034343F317032344C3F3072205
:10405000C355C3F307437270B37044F2C023C25C0C
:104060006FF30002C2548A79C15CC2F3C00262F3EA
:10407000C301C1540348BDE8F04003F039BB00BFA1
:10408000F15700203015002070B542F6B4531A4C99
:10409000E35C0F2B2ED10B46184A53F8060F5968D4
:1040A00003C244F2CC259868615D1060CB071CD533
:1040B00044F2A4236059E658B378727842EA0322A6
:1040C000F37842EA034343F3170303EB202344F25C
:1040D000CD200B4A2354C3F30720C3F30743937047
:1040E0000B466FF3000363555070034804F054FA15
:1040F000012070BD002070BD30150020FC5700204D
:10410000FD570020152910B50BD80124064804FAE4
:1041100001F3184030B1054802220CF0ADFC2046F6
:1041200010BD002010BD00BFFFDD3E003015002097
:1041300010B5074C204656F05FFF28B914F062FB1B
:10414000BDE8104014F016B894ED320A10BD00BF5F
:10415000641C002008B5134842F6B453C35C102B0E
:104160000DD042F6C253C35E5BB942F60173C35C25
:104170003BB900F537531B785A0704D501E00220FC
:1041800008BD052008BD43F27C13C35C9B0706D421
:1041900006F0CAFC002814BF0420032008BD062036
:1041A00008BD00BF30150020F0B5264B93F9B130A3
:1041B000012B8FB043D1244B9FED245AB3F9322009
:1041C000DFED235A196AD3F80CE01F695E699D6917
:1041D000DC69007E06EE102AB3F9342006EE902A40
:1041E000B3F9362007EE902AB8EEC66AF8EEE66A12
:1041F000B8EEE77A26EE056A66EE856A67EE057A1E
:104200005A6A9B68039326EE256A66EEA56A67EEF6
:10421000A57A0D922C239A220C9101920093A4214D
:1042200003AACDF810E005978DED066ACDED076A7B
:10423000CDED087A09960A950B943AF00BF80FB079
:10424000F0BD00BF30150020F01400206F12833A3B
:104250000AE81C4113B51D4A43F2E003D35C012B6D
:1042600026D8142000FB032000F53F5191F90D10D2
:10427000F1B17C2101FB032101F540542478E407CE
:1042800016D500F53F50D0ED007AF0EEE77AF5EE66
:10429000C07AF1EE10FA03DC01F54051097B39B127
:1042A0007C2101FB032303F53F5393ED0B0A0BE045
:1042B00012F05AF8036801A9DB6D984710B19DED23
:1042C000010A01E09FED020A02B010BD3015002086
:1042D000000000000B4991F930378BB1907A537A86
:1042E00043EA0023D07A43EA0043A62B08D06D2B83
:1042F00006D0B1F92800D3791B1A584258417047AB
:10430000012070473015002030B542F6B4531D4CE3
:10431000E35C91B0002B33D0057E59F035FC44F2BC
:10432000C4239FED197AE158039044F2C823049105
:10433000E258059244F2C0239622E358019243F3D7
:10434000172307EE903A0023F8EEE77A07930893D5
:1043500009930A930B930C930D930E934FF6F873F6
:10436000ADF83C30052367EE877A8DF83E30332375
:1043700000932846572103AACDED067A39F06AFF4B
:1043800011B030BD301500200AD7233C70B52DED9B
:10439000028B86B00D46044659F0E6FB04F5E05466
:1043A00018340646204611F0ABFF2046B0EE408A96
:1043B00011F0B0FF00230393CD221023019200934C
:1043C000284642F60C3102AA02968DED048A8DED44
:1043D000050A39F03FFF06B0BDEC028B70BD00004E
:1043E0002DE9F04F2DED028B00F5375530358DB0AE
:1043F000064688462846002114F062FB28B128466C
:10440000002114F03DFB002852D1FF274FF6FF7426
:1044100030460AF02FFF42F6B07306F6780056F8E1
:1044200003B042F6B47356F803A042F6B87356F8D8
:1044300003902CF0BBFB28460021B0EE408A14F01C
:1044400053FBDFED257ACDF810B028EE278A20EE59
:10445000270ABCEEC87AFCEEC07A17EE103AADF827
:104460001C3017EE903AADF81E300023ADF8223024
:10447000ADF82430ADF82630ADF82830ADF82A304C
:10448000ADF82C307C221F2301920093404601217D
:1044900004AACDF814A0CDF81890ADF820408DF8FE
:1044A0002E7039F0D7FE0DB0BDEC028BBDE8F08F59
:1044B0000021284614F054FA0021C7B2284614F00F
:1044C00039FBDFED067A20EE270ABDEEC00A8DED3E
:1044D000030ABDF80C409BE700007A440000C84284
:1044E0002DE9F0412DED068B43F2A41342F6C827C7
:1044F000C358DFED3C9A9FED3C8A0AEE103A43F236
:10450000A8130446C358C05909EE103A03688CB08A
:104510009B688846984707EE900AF8EEE77AE059DC
:1045200067EEA97A0368FDEEE77A1B69CDED037AA1
:10453000BDF80C60984707EE900AF8EEE77A04F5AC
:10454000455367EEA97AE059FDEEE77AB8EECAAABC
:10455000CDED037AD3ED017ABDF80C5042F6EC5361
:10456000F4EEC87AE35808EE903AF1EE10FA04F54A
:104570003753B8EEC99AF8EEE88A48BFB0EE678ABA
:10458000D3ED087A03682AEE29AA29EE299A68EE63
:10459000A98ADFED169A5B6967EEA99A9847FCEE47
:1045A000C87AB72217EE903AADF82C301A23019250
:1045B000009340463E2105AA8DED05AA8DED069A91
:1045C000CDED078ACDED089A8DED090AADF828608A
:1045D000ADF82A5039F03EFE0CB0BDEC068BBDE8BC
:1045E000F08100BF0AD7233C00FF7F470000C8428C
:1045F00070B52DED048B88B00C46064659F0C4FA10
:10460000054604203BF028FE09EE900A13203BF0FB
:1046100023FE09EE100A46203BF01EFE08EE900A2B
:1046200015203BF019FE08EE100A06F52D503C301F
:104630003DF00EF8DFED286A9FED287A8DF81D0019
:10464000F8EEE99AB8EEC99AC9EEA69AED2201925F
:104650002046222102AA029589EE269A69EE879ABF
:1046600029EE079AFDEEE97AF8EEE88A17EE903A1D
:10467000FDEEC97AADF80C3017EE903ADFED187AFE
:10468000ADF80E30C8EEA78A68EE878AFDEEE87AAC
:1046900017EE903AF8EEC87AADF8103087EEA68A99
:1046A00028EE078AFDEEC87A17EE903AADF8123080
:1046B0000023ADF81430ADF81630ADF81830ADF871
:1046C0001A308DF81C301623009339F0C3FD08B062
:1046D000BDEC048B70BD00BF00A08C4500401C46A3
:1046E0000000C8427FB500F5CA540E46204600219E
:1046F0003CF070FD20B9204601213CF06BFDE0B19B
:10470000204600213CF050FDA8B1A56A20460121B9
:104710003CF04AFD08B1A36B00E0094B0393CF22A4
:104720000823019200933046E2210DEB030202952B
:1047300039F090FD01E0024DE8E704B070BD00BF24
:10474000000080BFF0B52DED028B0D468BB01F46EB
:10475000B0EE408A144602B308463AF011FD064610
:10476000284639F033FD1836864216DAA268E36827
:1047700020696168079208936222192324680590D2
:104780000691019200932846C22103AA03948DED5D
:10479000048A8DF8247039F05DFD0BB0BDEC028BFE
:1047A000F0BD000070B500F50F53283304461B79A7
:1047B000002B42D090F8A1396FF3000380F8A139A3
:1047C00059F0E2F91D4A1368C31AB3F57A7F05461A
:1047D0000BD904F50F56083610600021304636F02C
:1047E000D7FB3046032136F0D3FB154A1368EB1A8A
:1047F000142B0DD904F50F5608363046156037F0E6
:1048000035FA304638F00CFA04F5126028F08AFACE
:104810000C4A136841F28831EB1A8B4207D904F530
:104820000F50156008300621074A34F021FE94F835
:10483000A13943F0010384F8A13970BDEC140020C4
:1048400028150020E8140020F4630C0800F50F5030
:10485000083038F0E5B9000000F50F50083037F0A7
:1048600005BA000000F50F50083001F0D7BB00007A
:1048700000F50F50083038F0B1BD000070B50446A7
:1048800000F5E05018300D4610F086F9B4F8E83025
:10489000DB0706461CD504F587404C3008F064FD64
:1048A00040B144F21443E05803689B68984700F114
:1048B0002C0202E004F50752383296ED000ADFEDD3
:1048C0003D7A20462946012320EE270AFFF73AFFCA
:1048D000B4F8E83098071CD504F587404C3008F050
:1048E00043FD40B144F21443E0580368DB68984745
:1048F00000F12C0202E004F50A522C3296ED010A76
:10490000DFED2C7A20462946022320EE270AFFF706
:1049100019FFB4F8E83059071CD504F587404C302E
:1049200008F022FD40B144F21443E05803681B69CB
:10493000984700F12C0202E004F50B52383296ED54
:10494000020ADFED1C7A20462946032320EE270ABF
:10495000FFF7F8FEB4F8E8301A070DD596ED020A15
:10496000DFED147A04F50D52204629460432052362
:1049700020EE270AFFF7E6FEB4F8E830DB0617D58D
:1049800043F29413E35C042B12D104F56B50143002
:1049900054F058F996ED020ADFED067A02462946F0
:1049A0002046062320EE270ABDE87040FFF7CABE66
:1049B00070BD00BFE02E654210B52DED028B00F5F5
:1049C000E05088B018300C4610F082F9F0EE407AD2
:1049D0008DED020ACDED030AB1EE600AF1EE670A31
:1049E0008DED041AA9F05AFB02A8B0EE408A24F01B
:1049F000E9FADFED0B7A049B079328EE278A0C2354
:104A00000122019200932046A82105AA8DED058A76
:104A10008DED060A39F01EFC08B0BDEC028B10BD0E
:104A2000E02E6542F8B504460E4636F09BFD08B10F
:104A3000002542E1A24B1B68186C03689B699847EC
:104A4000054648B99F482CF0A3F8C72804D838F089
:104A500017FC0123037630E1F31E2A2B00F2268196
:104A6000DFE813F02B002401470024012401240176
:104A7000240124012401240124012401240124010E
:104A800024015D0024012401730024012401240178
:104A900093002401830024012401A300B300C90072
:104AA0002401240124012401D9002401EF00240160
:104AB0002401FF0024010F011F01207E3AF060FB5A
:104AC0000546207E39F082FB1E358542B0DA217E14
:104AD0007D48FFF785FC207E3AF052FB0546207E9C
:104AE00039F074FB05358542A2DA204635F07CF8B2
:104AF000E2E0754E42F6B453F35C002B00F0DC802C
:104B0000207E3AF03DFB0546207E39F05FFB1935EB
:104B100085428DDA3046217EFFF7E2FCCCE06A4F19
:104B200097F9B150012D40F0C780207E3AF028FB64
:104B30000646207E39F04AFB15368642BFF678AF2E
:104B40003846217EFFF754FDB7E0207E3AF018FB8F
:104B50000546207E39F03AFB07358542BFF668AF3F
:104B60005948217E05F016FEA6E0207E3AF008FBAB
:104B70000546207E39F02AFB11358542BFF658AF35
:104B80005248217E2CF094FE96E0207E3AF0F8FA0E
:104B90000546207E39F01AFB0B358542BFF648AF3B
:104BA0004948217EFFF708FF86E0207E3AF0E8FAC8
:104BB0000546207E39F00AFB0D358542BFF638AF39
:104BC0004348217E3CF090FE76E042F635333E4A83
:104BD000D356002B70D0207E3AF0D2FA0546207EC4
:104BE00039F0F4FA21358542BFF622AF2046394923
:104BF00036F098FA60E0207E3AF0C2FA0546207E50
:104C000039F0E4FA29358542BFF612AF3048217EEB
:104C10003CF07EFE50E02C4E42F6B453F35C002B89
:104C20004AD0207E3AF0ACFA0546207E39F0CEFA22
:104C300018358542BFF6FCAE3046217EFFF71EFEDA
:104C40003AE0207E3AF09CFA0546207E39F0BEFA22
:104C500007358542BFF6ECAE1B48217EFFF742FDCB
:104C60002AE0207E3AF08CFA0546207E39F0AEFA32
:104C700025358542BFF6DCAE1748217E48F03AF86C
:104C80001AE0207E3AF07CFA0546207E39F09EFA42
:104C90000F358542BFF6CCAE0B48217EFFF776FB81
:104CA0000AE0217E0D4853F081FF05E020463146A1
:104CB000BDE8F84037F028BD01252846F8BD00BF03
:104CC000B85A0020A81D002030150020944700206D
:104CD0006C5800205C4000207051002004500020DF
:104CE00038B5054D42F26D3401232B5534F0B8FD33
:104CF00000232B5538BD00BF3015002038B5CB68D8
:104D0000F7EE000A00EE103A05460C4621F0A0F836
:104D100028B928462146BDE8384037F029BA04486A
:104D200009F0DEFF002814BF0020042038BD00BFBA
:104D30003015002070B506460D461446114605484C
:104D400048F06CFF304629462246BDE8704034F0FA
:104D5000ABBC00BF24570020F0B58B8BB32B85B0C4
:104D60000C4602D0C02B6ED009E10B68F7EE000AAA
:104D700000EE103A21F06CF868B119F01FF990F8C4
:104D8000BC316C2103F0030301FB030172318E4837
:104D900003F08AFC4EE023689FED8C7A07EE903A90
:104DA000F0EEE77AF4EEC77AF1EE10FA50D520690A
:104DB00058B963694BB9A36907EE903AF0EEE77A08
:104DC000F4EEC77AF1EE10FA42D494F820301BB119
:104DD0005A1F012A00F2D680616921F0D5FBB8B3D1
:104DE0000C2201A80021ABF059FE236902936369EC
:104DF0000393A3699FED767A07EE903A67EE877A80
:104E0000FDEEE77A17EE903AC3F307228DF80530EE
:104E1000C3F307438DF8073094F820308DF806204F
:104E2000032B00F0B380062B00F0B080664801A988
:104E300003F0F4FB11F098FA90F83C3143F00203D0
:104E400080F83C3199E00869496921F09DFB08B977
:104E50000420B6E001AD284600210C22ABF01EFE76
:104E60002369029363690393A3699FED597A07EE5F
:104E7000903A67EE877A9FED577AF0EEE76AF4EEA4
:104E8000C76AF1EE10FAE3DAFDEEE77A17EE903A30
:104E9000C3F307228DF80530C3F307438DF80730BD
:104EA00094F820308DF80620062B04D19DF80430AC
:104EB00043F0010305E00B2B06D19DF8043043F0CD
:104EC00008038DF8043001E0052BC1D1E3689FEDA4
:104ED0003F7A414807EE903AF0EEE77AF4EEC77A6F
:104EE000F1EE10FA58BF9DF8043029465CBF43F03C
:104EF00004038DF8043021F099FB0028A8D16368E1
:104F0000314F07EE903AFDEEE77A17EE903A13F044
:104F1000010F04D142F6B453FB5C0F2B98D12A4CFD
:104F20000F21204602220BF0A7FD95E807002B4B2E
:104F300083E8070044F2CC26BA5DD3071AD544F2C1
:104F4000A4236FF30002E1584B788D78C978A255FD
:104F500043EA052343EA014343F3170344F2CD2117
:104F600003EB20201E4B6054C0F30721C0F3074021
:104F700059709870144803F00FFB002021E034F0C2
:104F800043FB1EE0032B7FF463AF25E711F0ECF940
:104F900090F83C31DA077FF55BAF0B4A41F6485396
:104FA000D358019A43F3172303EB2223C3F30722B9
:104FB0008DF80530C3F307438DF806208DF80730D0
:104FC00034E705B0F0BD00BF30150020000000340C
:104FD0000000C842FEFFFF4AE4570020FC570020B3
:104FE000FD57002030B58B8BCD2B8BB00C4600F0DD
:104FF000D5801AD8B22B51D009D8142B64D0162BD7
:1050000069D0112B40F08E82BF480C215EE0BD2B91
:1050100000F0168103D8B32B00F0908182E2BF2B01
:1050200000F01881C92B65D07CE2D42B00F00A82F5
:1050300009D8D02B00F01882D12B00F04582CF2B5D
:1050400040F0708232E1B3F5967F00F0CE800FD849
:10505000DF2B40F067820B68AC4800EE103A4B68DB
:1050600000EE903A8B6801EE103A42F071FA3DE0A2
:10507000B3F5C87F00F0BC8040F6B832934240F0F0
:1050800051820B68A24807EE903AFCEEE77ACDED2C
:10509000037A9DF80C1007F07BFA27E042F6B45330
:1050A000994AD35C0A2B03D00E3B012B00F24082BD
:1050B000204605A924F0C6FC002840F03982924819
:1050C00005A904F0AFF804E08F480B2102220BF091
:1050D000D3FC00202DE28F488B690278002A00F073
:1050E0002782B43800EE103A07F0A6FF002800F03F
:1050F0001F82EEE70B6900EE103A4B6900EE903A22
:1051000021F026FA002800F013822369DFED826A7D
:1051100007EE103A27EE267AFDEEC77A9FED7F7AEA
:10512000CDED067A636917EE902A07EE903A67EEA6
:10513000A67AFDEEE77ACDED077AA16917EE903AEF
:1051400007EE901A67EE877AFDEEE77A17EE904A3F
:1051500044F31704C4F307218DF81610C4F3074174
:105160008DF817108DF8154067497AB973B96CB985
:1051700044F246356A48495D3CF078FB0428A8D1E2
:10518000614B6748595D3CF07FFBA2E744F2463330
:105190006348C95C05AA3CF0ADFB9AE7A0685A4A8F
:1051A00007EE900A44F24633FDEEE77AD15C63687D
:1051B0002268CDED007AA06907EE900AFCEEE77A4E
:1051C000CDED037A07EE902AFDEEE77A9DF80C000C
:1051D000019017EE902A07EE903AFDEEE77A5048DC
:1051E00017EE903A3CF06EFB73E747480A216DE7F3
:1051F0000B68F7EE000A00EE103A20F029FE70B1BD
:105200006368DFED480A00EE103A20F021FE80F0DE
:1052100001020121D2B23C480BF0F8FE66E7236898
:105220009FED417A07EE903AF0EEE77AF4EEC77A16
:10523000F1EE10FA40F17A8133480BF001FE55E7A8
:105240003A4825F0F3FA002800F072812E480A212E
:1052500000223CE72C4D43F29413EB5C042B40F00E
:1052600067810B689FED307A314807EE903AF0EE97
:10527000E76AF4EEC76AF1EE10FA5FBF9FED277A96
:1052800067EE877A43F22413FDEEE77A5CBF17EEF0
:10529000902AEA5053F0E2FD002800F0498143F2E1
:1052A0002013EA5C6FF3C302EA5412E7164805F0D4
:1052B00079F920B937F0E4FF05211E4AFDE02368A3
:1052C00007EE903AFCEEE77ACDED037ABDF80C10CC
:1052D000012906D002D3022908D029E10A48002179
:1052E00000E00948032205F071F9FFE606480021B5
:1052F00005F064F9002800F01B8137F0C1FF05219B
:105300000D4A34F0B5F8E4E6301500208016002090
:10531000FC580020B05900208096184B0000C8426D
:105320006C58002000D03A4500000034E8460020C8
:105330000450002005640C081A640C080B68F7EE92
:10534000000A00EE103A20F083FD68B118F036FE36
:1053500090F8BC316C2103F0030301FB03017231AF
:10536000754803F0A1F964E02368DFED747A07EE75
:10537000103AB0EEC77AB4EEE77AF1EE10FA40F1E7
:10538000D780236900EE103AB0EEC07AB4EEE77A27
:105390006369F1EE10FA00EE903A13D5B0EEE07AC0
:1053A000B4EEE77AF1EE10FA0CD5A3699FED637ABB
:1053B00007EE903AF0EEE77AF4EEC77AF1EE10FAE3
:1053C00000F1B68021F0C4F8002800F0B18000217F
:1053D0000C2205A8ABF062FB2369DFED596A564841
:1053E00007EE103A27EE267A05A9BDEEC77A8DEDB5
:1053F000067A63699FED537A07EE903A67EEA67AD4
:10540000FDEEE77ACDED077AA36907EE903A67EEF5
:10541000877AFDEEE77A17EE903AC3F307228DF80C
:105420001530C3F307438DF816208DF8173003F0BD
:10543000F5F810F099FF90F83C3143F0020380F842
:105440003C3146E60B689FED3D7A3B4807EE903ACB
:10545000F0EEE77AF4EEC77AF1EE10FA54BF0121CC
:10546000002104F0C3FD34E60B6807EE903AFCEE31
:10547000E77ACDED037ABDF80C10012906D002D3EE
:10548000022907D054E03048002100E02E484AF0BD
:105490005FFC1EE6284B43F260229A5C520704D55B
:1054A00037F0EEFE0521294A07E043F24C229B56D5
:1054B00033B937F0E5FE264A052133F0D9FF37E04E
:1054C0001D4806F0D9FA11E62368E568017E2148F7
:1054D00006EE903A636807EE103AA36807EE903A3A
:1054E000FCEEE77AFCEEE66ACDED037ABDF80C300F
:1054F0000093236907EE903AFCEEE77ABCEEC77A98
:10550000CDED037A9DF80C30CDED036A9DF80C20AB
:105510008DED037A019300EE105A9DF80C3005F0E2
:10552000BFFD06E0214636F01FFF02E0032000E049
:1055300004200BB030BD00BF301500200000003447
:105540008096184B0000C8427C4700202F640C084E
:105550004A640C08FC5800202DE9F0472DED048B1F
:105560008A7A4B7A43EA0223CA7A43EA0243872BB8
:10557000AAB005460C462BDC862B80F26E83542B9A
:1055800000F0488410DC452B00F02F8104DC002B58
:1055900000F01B8200F0F3BC462B00F0D980522BA8
:1055A00000F0788300F0EBBC5A2B00F01B8204DC87
:1055B000562B00F08D8400F0E2BC6D2B00F042838E
:1055C000842B40F0DC84D0482AF0FAFD00F0EFBCD8
:1055D000A62B00F0378316DC9D2B00F02A830CDC11
:1055E0009C2B40F0CC8444F24633C84AC848D15C76
:1055F00022463CF057F900F0DABCA02B17D0A12BC3
:105600005FD000F0BCBCF62B00F0B38407DCC82BE5
:1056100000F09880F32B00F0C58300F0B0BCA3F538
:105620001C53113B022B40F2A48400F0A8BCCE789E
:105630000C220C2E4FF000011AA828BF0C26ABF04C
:105640002DFA04F10C01B14C1AA83246FBF7F4FF15
:1056500094F95C301BB128460421AE4A08E09DF85D
:10566000732094F95D309A4206D0AB4A2846042153
:1056700034F0EAFE00F09BBCDDED1A8A9DED1B8A3A
:10568000B0EE680AF0EE480A20F062FF18B928462A
:105690000421A24AECE7DFEDA27A9DF8722068EEC1
:1056A000A78A28EE278AFDEEE88ABDEEC88A204642
:1056B00015A9CDED158A8DED168A04F0A9FE00F02E
:1056C00076BCCA78914F032A4FF0000328BF03220B
:1056D00015A80C31ADF854308DF85630FBF7ACFFFF
:1056E0009DF8566097F95D309E42BEDA1AA8394699
:1056F000324604F06BFE9DED1A7ADFED8A6ADDED2D
:105700001B7A287E97F85D30227AE1796272B8EED2
:10571000C77AF8EEE77A27EE267A67EEA67A17EED2
:10572000105A256017EE905AE3724E220C23217214
:105730006560A672A02101920093224638F08AFD8E
:1057400000F035BC7249224634F052FE00F02FBC06
:105750006E4FCA79B7F928309A4240F0288458F041
:1057600013FAE678262E28BF262605460021262293
:105770001AA8ABF093F904F10C0132461AA8FBF712
:105780005BFF0020BDF968102A463AF03BFA012081
:10579000BDF96A102A463AF035FA0220BDF96C10BC
:1057A0002A463AF02FFA0320BDF96E102A463AF045
:1057B00029FA0420BDF970102A463AF023FA052090
:1057C000BDF972102A463AF01DFA0620BDF9741090
:1057D0002A463AF017FA0720BDF976102A463AF021
:1057E00011FA42F6C853FD50E1E3484DCA79B5F9C4
:1057F00028309A4240F0DB83CE780B2E28BF0B2650
:1058000000210B221AA8ABF049F932461AA804F17C
:105810000C01FBF711FF9DF87220B5F926309A4272
:1058200040F0C58358F0B0F9BDF96A3047F6FF7211
:10583000934204461ED0D5F81019B1F90420B1F9ED
:10584000081007EE902A03F57A738A1A5343F8EE8C
:10585000E76A07EE903AB8EEE77ADFED347AC7EE02
:10586000277A76EEA77AFDEEE77ACDED077ABDF8D6
:105870001C1000E00021BDF9683047F6FF7293422A
:105880001ED0D5F81409B0F90420B0F9080007EECD
:10589000902AC3F57A73821A5343F8EEE76A07EE4B
:1058A000903AB8EEE77ADFED217AC7EE277A76EE06
:1058B000A77AFDEEE77ACDED077ABDF81C7000E01F
:1058C0000027BDF96C3047F6FF72934230D0D5F80F
:1058D0001809B0F90420B0F9080007EE902A821ADE
:1058E0005343F8EEE76A07EE903AB8EEE77ADFED59
:1058F0000E7AC7EE277A76EEA77AFDEEE77ACDED3F
:10590000077ABDF81C8015E0B82D00203015002066
:105910006C58002060640C0879640C0889640C08D9
:105920008096184B95BFD63300007A440000FA44A5
:105930004FF00008BDF96E3047F6FF7293421ED05B
:10594000D5F81C09B0F90420B0F9080007EE902A38
:1059500003F57A73821A5343F8EEE76A07EE903A3A
:10596000B8EEE77A5FED0F7AC7EE277A76EEA77A80
:10597000FDEEE77ACDED077ABDF81C6000E0002669
:1059800095F8E8080138C0B209B222463AF03AF96F
:1059900095F8E9080138C0B239B222463AF032F936
:1059A00095F8EB080138C0B20FFA88F122463AF0B8
:1059B00029F995F8EA080138C0B231B222463AF026
:1059C00021F942F6C853EC50F1E2A74CCA79B4F978
:1059D00028309A4240F0EB8258F0D6F842F6C8538D
:1059E000E050E4E2A04D95F9B130012B40F0DF82A8
:1059F000CE78382E28BF3826002138221AA8ABF0DE
:105A00004DF804F10C0132461AA8FBF715FE229F4F
:105A1000239E3846314620F0B7FD002800F0C782AB
:105A2000924C1AAB0DF1A00E1A4603CA72452060C3
:105A30006160134604F10804F6D10DF1300A00212B
:105A40000C225046ABF02AF84FF00A090D97249F1C
:105A500097FBF9F3C3F307228DF83130C3F3074303
:105A60008DF83330BDF996309FED810A8DF83220E4
:105A700007EE103ABDF998300E9607EE903ABDF950
:105A80009430794C9FED7B8A06EE903AB8EEC77A57
:105A9000F8EEE66AF8EEE77A0DF13C084046CDED07
:105AA0000F6A8DED107ACDED117A23F063F940463F
:105AB00023F088FADFED707A20EE000A04F54052F8
:105AC000B6EE007AE0EE077A137843F00303C2EDF6
:105AD000017A1370DDE91A0100234FF47A72FBF7A3
