:020000040801F1
:10000000000400207D140108858206088982060804
:10001000D982060889820608B182060859BA0A08F8
:1000200059BA0A0859BA0A0859BA0A0885040B08C5
:1000300059BA0A0859BA0A0859BA0A0859BA0A082C
:1000400059BA0A08490F0B0819100B084D100B0874
:1000500059BA0A0859BA0A08750D0B08A50D0B08FC
:10006000D50D0B08050E0B08350E0B0889DB0A08A9
:10007000B5DB0A08E5DB0A0815DC0A0845DC0A08D6
:1000800071DC0A08A1DC0A0839DA0A0859BA0A0838
:1000900059BA0A0859BA0A0859BA0A08650E0B086B
:1000A00059BA0A0859BA0A0859BA0A0859BA0A08BC
:1000B00059BA0A0859BA0A0859BA0A08D9E20A0804
:1000C000EDE30A0859BA0A0859BA0A0859BA0A08DF
:1000D00059BA0A0805FA0A0859BA0A081DFA0A089C
:1000E000D10E0B087D0F0B08B10F0B0859BA0A0887
:1000F00001F70A0859BA0A0819F70A08D1DC0A08F0
:1001000059BA0A0859BA0A0839F50A0859BA0A0840
:1001100059BA0A0859BA0A0859BA0A0859BA0A084B
:1001200001DD0A082DDD0A085DDD0A088DDD0A08FB
:10013000BDDD0A0859BA0A0859BA0A0859BA0A08A4
:1001400059BA0A0859BA0A0859BA0A08C1EF0A087E
:10015000E9DD0A0819DE0A0849DE0A0859BA0A0860
:1001600059BA0A0859BA0A0859BA0A0859BA0A08FB
:10017000E50F0B0859BA0A0859BA0A0859BA0A0809
:1001800059BA0A0859BA0A0859BA0A0859BA0A08DB
:1001900059BA0A0859BA0A0859BA0A0859BA0A08CB
:1001A00059BA0A0859BA0A0859BA0A0859BA0A08BB
:1001B00059BA0A0859BA0A0859BA0A0859BA0A08AB
:1001C00059BA0A0859BA0A0859BA0A0859BA0A089B
:1001D00059BA0A0859BA0A0859BA0A0859BA0A088B
:1001E000AD710108B9A20108CD9703087DEB0308A2
:1001F000EDED030845AF040879B6040855BC0408C2
:10020000E9D3040839550508B9860608C58F0908D9
:10021000199C090891B409089DD009080DBA0A086B
:10022000D0400B1CD1409C46203AD3401843524248
:100230006346934018437047D0400B1C1141203A4D
:1002400003D49C46134118436346524293401843DB
:10025000704700BF9140031C90409C46203A934059
:10026000194352426346D3401943704781F000411D
:1002700002E000BF83F0004330B54FEA41044FEA8B
:10028000430594EA050F08BF90EA020F1FBF54EA26
:10029000000C55EA020C7FEA645C7FEA655C00F0C2
:1002A000E2804FEA5454D4EB5555B8BF6D420CDD93
:1002B0002C4480EA020281EA030382EA000083EA16
:1002C000010180EA020281EA0303362D88BF30BDB6
:1002D00011F0004F4FEA01314FF4801C4CEA11310C
:1002E00002D0404261EB410113F0004F4FEA03336B
:1002F0004CEA133302D0524263EB430394EA050FF6
:1003000000F0A780A4F10104D5F1200E0DDB02FA64
:100310000EFC22FA05F2801841F1000103FA0EF2F8
:10032000801843FA05F359410EE0A5F120050EF1BE
:10033000200E012A03FA0EFC28BF4CF0020C43FAEF
:1003400005F3C01851EBE37101F0004507D54FF0FC
:10035000000EDCF1000C7EEB00006EEB0101B1F54C
:10036000801F1BD3B1F5001F0CD349085FEA300092
:100370004FEA3C0C04F101044FEA445212F5800F9D
:1003800080F09A80BCF1004F08BF5FEA500C50F13A
:10039000000041EB045141EA050130BD5FEA4C0C1D
:1003A000404141EB010111F4801FA4F10104E9D1A6
:1003B00091F0000F04BF01460020B1FA81F308BF9D
:1003C0002033A3F10B03B3F120020CDA0C3208DD69
:1003D00002F1140CC2F10C0201FA0CF021FA02F144
:1003E0000CE002F11402D8BFC2F1200C01FA02F1B4
:1003F00020FA0CFCDCBF41EA0C019040E41AA2BFD9
:1004000001EB0451294330BD6FEA04041F3C1CDAA0
:100410000C340EDC04F11404C4F1200220FA04F0C0
:1004200001FA02F340EA030021FA04F345EA03016A
:1004300030BDC4F10C04C4F1200220FA02F001FA2C
:1004400004F340EA0300294630BD21FA04F02946AE
:1004500030BD94F0000F83F4801306BF81F4801147
:100460000134013D4EE77FEA645C18BF7FEA655CBA
:1004700029D094EA050F08BF90EA020F05D054EA8C
:10048000000C04BF1946104630BD91EA030F1EBF91
:100490000021002030BD5FEA545C05D14000494195
:1004A00028BF41F0004130BD14F580043CBF01F588
:1004B000801130BD01F0004545F0FE4141F470016E
:1004C0004FF0000030BD7FEA645C1ABF1946104649
:1004D0007FEA655C1CBF0B46024650EA013406BF4A
:1004E00052EA033591EA030F41F4002130BD00BF09
:1004F00090F0000F04BF0021704730B54FF48064C6
:1005000004F132044FF000054FF0000150E700BF46
:1005100090F0000F04BF0021704730B54FF48064A5
:1005200004F1320410F0004548BF40424FF0000192
:100530003EE700BF42004FEAE2014FEA31014FEAD5
:1005400002701FBF12F07F4393F07F4F81F0605124
:10055000704792F0000F14BF93F07F4F704730B593
:100560004FF4607401F0004521F0004120E700BF26
:1005700050EA010208BF704730B54FF000050AE0AD
:1005800050EA010208BF704730B511F0004502D5AE
:10059000404261EB41014FF4806404F132045FEAB0
:1005A000915C3FF4DCAE4FF003025FEADC0C18BF55
:1005B00003325FEADC0C18BF033202EBDC02C2F14B
:1005C000200300FA03FC20FA02F001FA03FE40EADD
:1005D0000E0021FA02F11444C1E600BF70B54FF0DD
:1005E000FF0C4CF4E06C1CEA11541DBF1CEA1355BF
:1005F00094EA0C0F95EA0C0F00F0DEF82C4481EA27
:10060000030621EA4C5123EA4C5350EA013518BF46
:1006100052EA033541F4801143F4801338D0A0FB33
:1006200002CE4FF00005E1FB02E506F00042E0FBE0
:1006300003E54FF00006E1FB03569CF0000F18BFE6
:100640004EF0010EA4F1FF04B6F5007F64F540748E
:1006500004D25FEA4E0E6D4146EB060642EAC62121
:1006600041EA55514FEAC52040EA5E504FEACE2E8E
:10067000B4F1FD0C88BFBCF5E06F1ED8BEF1004F91
:1006800008BF5FEA500E50F1000041EB045170BD0D
:1006900006F0004646EA010140EA020081EA030151
:1006A000B4EB5C04C2BFD4EB0C0541EA045170BD4D
:1006B00041F480114FF0000E013C00F3AB8014F1C7
:1006C000360FDEBF002001F0004170BDC4F1000410
:1006D000203C35DA0C341BDC04F11404C4F1200591
:1006E00000FA05F320FA04F001FA05F240EA0200EC
:1006F00001F0004221F0004110EBD37021FA04F622
:1007000042EB06015EEA430E08BF20EAD37070BDDB
:10071000C4F10C04C4F1200500FA04F320FA05F03A
:1007200001FA04F240EA020001F0004110EBD3703C
:1007300041F100015EEA430E08BF20EAD37070BDAC
:10074000C4F1200500FA05F24EEA020E20FA04F385
:1007500001FA05F243EA020321FA04F001F0004134
:1007600021FA04F220EA020000EBD3705EEA430EA5
:1007700008BF20EAD37070BD94F0000F0FD101F0D4
:100780000046400041EB010111F4801F08BF013C0D
:10079000F7D041EA060195F0000F18BF704703F04B
:1007A0000046520043EB030313F4801F08BF013DD2
:1007B000F7D043EA0603704794EA0C0F0CEA13558E
:1007C00018BF95EA0C0F0CD050EA410618BF52EA48
:1007D0004306D1D181EA030101F000414FF000004E
:1007E00070BD50EA410606BF1046194652EA43065C
:1007F00019D094EA0C0F02D150EA013613D195EAD0
:100800000C0F05D152EA03361CBF104619460AD117
:1008100081EA030101F0004141F0FE4141F4700121
:100820004FF0000070BD41F0FE4141F4780170BD11
:1008300070B54FF0FF0C4CF4E06C1CEA11541DBF76
:100840001CEA135594EA0C0F95EA0C0F00F0A7F878
:10085000A4EB050481EA030E52EA03354FEA0131A5
:1008600000F088804FEA03334FF0805545EA1313B8
:1008700043EA12634FEA022245EA111545EA106580
:100880004FEA00260EF000419D4208BF964244F117
:10089000FD0404F5407402D25B084FEA3202B61A36
:1008A00065EB03055B084FEA32024FF480104FF40A
:1008B000002CB6EB020E75EB030E22BFB61A75467E
:1008C00040EA0C005B084FEA3202B6EB020E75EB11
:1008D000030E22BFB61A754640EA5C005B084FEA79
:1008E0003202B6EB020E75EB030E22BFB61A754646
:1008F00040EA9C005B084FEA3202B6EB020E75EB51
:10090000030E22BFB61A754640EADC0055EA060E11
:1009100018D04FEA051545EA16754FEA06164FEA54
:10092000C30343EA52734FEAC2025FEA1C1CC0D100
:1009300011F4801F0BD141EA00014FF000004FF08D
:10094000004CB6E711F4801F04BF01430020B4F14E
:10095000FD0C88BFBCF5E06F3FF6AFAEB5EB030C06
:1009600004BFB6EB020C5FEA500C50F1000041EB03
:10097000045170BD0EF0004E4EEA113114EB5C04D0
:10098000C2BFD4EB0C0541EA045170BD41F48011A3
:100990004FF0000E013C90E645EA060E8DE60CEAAB
:1009A000135594EA0C0F08BF95EA0C0F3FF43BAFC8
:1009B00094EA0C0F0AD150EA01347FF434AF95EA7F
:1009C0000C0F7FF425AF104619462CE795EA0C0F63
:1009D00006D152EA03353FF4FDAE1046194622E730
:1009E00050EA410618BF52EA43067FF4C5AE50EA0A
:1009F00041047FF40DAF52EA43057FF4EBAE12E7FA
:100A00004FF0FF3C06E000BF4FF0010C02E000BFDA
:100A10004FF0010C4DF804CD4FEA410C7FEA6C5CBD
:100A20004FEA430C18BF7FEA6C5C1BD001B050EA60
:100A3000410C0CBF52EA430C91EA030F02BF90EA4B
:100A4000020F0020704710F1000F91EA030F58BF0A
:100A5000994208BF90422CBFD8176FEAE37040F06C
:100A6000010070474FEA410C7FEA6C5C02D150EA0A
:100A7000013C07D14FEA430C7FEA6C5CD6D152EAC5
:100A8000033CD3D05DF8040B704700BF844610468A
:100A900062468C461946634600E000BF01B5FFF789
:100AA000B7FF002848BF10F1000F01BD4DF808ED59
:100AB000FFF7F4FF0CBF012000205DF808FB00BF2A
:100AC0004DF808EDFFF7EAFF34BF012000205DF884
:100AD00008FB00BF4DF808EDFFF7E0FF94BF0120D1
:100AE00000205DF808FB00BF4DF808EDFFF7CEFFD2
:100AF00094BF012000205DF808FB00BF4DF808ED11
:100B0000FFF7C4FF34BF012000205DF808FB00BFE1
:100B10004FEA410212F5001215D211D56FF4787325
:100B2000B3EB625212D94FEAC12343F0004343EAC8
:100B3000505311F0004F23FA02F018BF40427047A3
:100B40004FF00000704750EA013005D111F000402D
:100B500008BF6FF0004070474FF00000704700BFC3
:100B60004A0011D212F5001211D20DD56FF478732C
:100B7000B3EB62520ED44FEAC12343F0004343EA81
:100B8000505323FA02F070474FF00000704750EACC
:100B9000013002D14FF0FF3070474FF00000704736
:100BA0004FEA4102B2F1E04324BFB3F5001CDCF18F
:100BB000FE5C0DD901F0004C4FEAC0024CEA5070C7
:100BC000B2F1004F40EB830008BF20F001007047F6
:100BD00011F0804F21D113F13872BCBF01F00040F9
:100BE000704741F480114FEA5252C2F11802C2F12B
:100BF000200C10FA0CF320FA02F018BF40F00100AC
:100C00004FEAC1234FEAD32303FA0CFC40EA0C005D
:100C100023FA02F34FEA4303CCE77FEA625307D19A
:100C200050EA01331EBF4FF0FE4040F440007047D1
:100C300001F0004040F0FE4040F40000704700BF6B
:100C400080F0004002E000BF81F0004142001FBF81
:100C50005FEA410392EA030F7FEA226C7FEA236C8A
:100C60006AD04FEA1262D2EB1363C1BFD21841407F
:100C700048404140B8BF5B42192B88BF704710F015
:100C8000004F40F4000020F07F4018BF404211F0B8
:100C9000004F41F4000121F07F4118BF494292EA20
:100CA000030F3FD0A2F1010241FA03FC10EB0C004C
:100CB000C3F1200301FA03F100F0004302D54942D9
:100CC00060EB4000B0F5000F13D3B0F1807F06D386
:100CD00040084FEA310102F10102FE2A51D2B1F17E
:100CE000004F40EBC25008BF20F0010040EA030073
:100CF0007047490040EB000010F4000FA2F1010220
:100D0000EDD1B0FA80FCACF1080CB2EB0C0200FAA9
:100D10000CF0AABF00EBC25052421843BCBFD040F7
:100D20001843704792F0000F81F4000106BF80F471
:100D300000000132013BB5E74FEA41037FEA226C34
:100D400018BF7FEA236C21D092EA030F04D092F0FF
:100D5000000F08BF0846704790EA010F1CBF002033
:100D6000704712F07F4F04D1400028BF40F0004090
:100D7000704712F100723CBF00F50000704700F0B0
:100D8000004343F0FE4040F4000070477FEA2262D7
:100D900016BF08467FEA23630146420206BF5FEAA8
:100DA000412390EA010F40F4800070474FF00003A8
:100DB00004E000BF10F0004348BF40425FEA000C6F
:100DC00008BF704743F0964301464FF000001CE017
:100DD00050EA010208BF70474FF000030AE000BF6D
:100DE00050EA010208BF704711F0004302D54042AB
:100DF00061EB41015FEA010C02BF8446014600201D
:100E000043F0B64308BFA3F18053A3F50003BCFA37
:100E10008CF2083AA3EBC25310DB01FA02FC6344E4
:100E200000FA02FCC2F12002BCF1004F20FA02F2EB
:100E300043EB020008BF20F00100704702F12002DE
:100E400001FA02FCC2F1200250EA4C0021FA02F23F
:100E500043EB020008BF20EADC7070477BB972B92F
:100E60000029BEBF00204FF0004106E008BF002867
:100E70001CBF6FF000414FF0FF3000F079B882B036
:100E8000EC462DE9005000F043F8DDF804E002B034
:100E90000CBC704753B94AB9002908BF00281CBFD1
:100EA0004FF0FF314FF0FF3000F062B882B0EC46F7
:100EB0002DE9005000F044F8DDF804E002B00CBC6D
:100EC000704700BFD0B5FFF735FB00220E4B06463A
:100ED0000F46FFF783FBFFF743FE0446FFF708FBCF
:100EE00000220A4BFFF77AFB02460B463046394692
:100EF000FFF7C0F9FFF734FE2346002242EA000262
:100F000010461946D0BD00BF0000F03D0000F04182
:100F10002DE9F041069C154606460F46984600F01E
:100F200029F805FB01F300FB0838A5FB0023B21AE2
:100F3000434467EB0303C4E90023BDE8F08100BF2D
:100F40002DE9F041069C904606460F461D4600F0EE
:100F50005FF900FB05F5A0FB082308FB0155B21A59
:100F60002B4467EB0303C4E90023BDE8F08100BF15
:100F7000704700BF00292DE9F043C0F2A68000268B
:100F8000002BC0F29C80884694469E461546044637
:100F90000F46002B3DD18A4259D9B2FA82F33BB1B8
:100FA000C3F120029F4020FA02F29D4017439C406B
:100FB000290C220CB7FBF1FEA8B201FB1E7742EA16
:100FC000074700FB0EF3BB420AD97F190EF1FF322F
:100FD00080F00581BB4240F20281AEF1020E2F4447
:100FE000FF1AA4B2B7FBF1F301FB137744EA0747FA
:100FF00000FB03F0B84208D97F1903F1FF3280F0FB
:10100000F080B84240F2ED80023B43EA0E430022FA
:1010100003E08B420FD900221346341C18BF012471
:1010200060424FF0000565EB450158405140001902
:101030006941BDE8F083B3FA83F2002A40F086806C
:101040008B4202D3844500F2DB800123E5E712B92D
:101050000123B3FBF2F5B5FA85F000283BD1781BEC
:101060004FEA154E1FFA85FC0122B0FBFEF8210C59
:101070000EFB180741EA07470CFB08F3BB4207D9F0
:101080007F1908F1FF3102D2BB4200F2BD808846D1
:10109000FF1AA4B2B7FBFEF30EFB137744EA07472F
:1010A0000CFB03FCBC4507D97F1903F1FF3102D2C9
:1010B000BC4500F2A7800B4643EA0843ADE7524225
:1010C0006FEA060663EB43035DE7404261EB4101D3
:1010D0004FF0FF3654E7C0F1200224FA02F107FA7C
:1010E00000F385404FEA154ED7401943B7FBFEF297
:1010F0000B0C0EFB12771FFA85FC43EA07430CFB2F
:1011000002F79F4204FA00F407D95B1902F1FF309D
:1011100074D29F4272D9023A2B44DF1B89B2B7FBCB
:10112000FEF80EFB187341EA03430CFB08F79F42DD
:1011300008D95B1908F1FF315CD29F425AD9A8F156
:1011400002082B44D81B48EA02428EE7C2F1200372
:101150002CFA03F10EFA02FE20FA03F741EA0E0E12
:1011600008FA02F028FA03F14FEA1E453843B1FBB2
:10117000F5F8030C05FB18111FFA8EF743EA01413D
:1011800007FB08F38B420CFA02FC09D911EB0E01A4
:1011900008F1FF3930D28B422ED9A8F102087144F0
:1011A000C91A80B2B1FBF5F305FB131140EA014106
:1011B00007FB03F78F4208D911EB0E0103F1FF3053
:1011C00016D28F4214D9023B714443EA0843C91B2B
:1011D000A3FB0C89494509D305D000221DE796469B
:1011E000FEE6134611E794404445F6D2013BF4E78E
:1011F0000346EAE78846A5E7C846D1E702468CE7FA
:1012000013460AE7023B57E7A8F102082F443FE7DD
:101210002DE9F041002B44D18A42154604464FD9AE
:10122000B2FA82F70E464FB1C7F12003B94020FA57
:1012300003F602FA07F50E4300FA07F44FEA154EDB
:10124000230CB6FBFEF0AFB20EFB106143EA014384
:1012500007FB00F1994209D95B1900F1FF3280F0D8
:10126000EC80994240F2E98002382B445A1AA4B229
:10127000B2FBFEF30EFB132244EA024207FB03F724
:10128000974208D9521903F1FF3180F0D880974274
:1012900040F2D580023B43EA004000263146BDE8DB
:1012A000F0818B4247D8B3FA83F6002E48D18B42A7
:1012B00002D3824200F2CD8001203146BDE8F081A8
:1012C00012B90125B5FBF2F5B5FA85F8B8F1000FB2
:1012D00077D14A1B4FEA154EAFB20126B2FBFEF0A2
:1012E000230C0EFB102143EA014107FB00F38B4264
:1012F00007D9491900F1FF3202D28B4200F2BA80BD
:101300001046C91AA4B2B1FBFEF30EFB131144EA56
:10131000014407FB03F7A74208D9641903F1FF3220
:1013200080F08F80A74240F28C80023B43EA00406D
:101330003146BDE8F081002630463146BDE8F081F7
:10134000C6F1200422FA04F5B3402B4320FA04FC32
:1013500001FA06F721FA04F54FEA134E4CEA0707A3
:10136000B5FBFEF8390C0EFB18551FFA83FC41EA59
:1013700005450CFB08F1A94202FA06F204D9ED1862
:1013800008F1FF3467D3A0466D1ABFB2B5FBFEF477
:101390000EFB145547EA05410CFB04FC8C4504D9AF
:1013A000C91804F1FF355CD32C4644EA0844CCEB61
:1013B0000101A4FB0223994248D344D020460026D1
:1013C0006CE7C8F1200401FA08F305FA08F520FAE1
:1013D00004F7E1404FEA154E1F43B1FBFEF63A0C0D
:1013E0000EFB16111FFA85FC42EA01430CFB06F2C4
:1013F0009A4200FA08F407D95B1906F1FF3137D297
:101400009A4235D9023E2B449B1ABFB2B3FBFEF081
:101410000EFB103347EA03430CFB00F1994207D956
:101420005B1900F1FF3221D299421FD902382B44B7
:101430005A1A40EA0646674650E7104616E70B463A
:1014400029E7134672E7B0409042B7D2601E0026EB
:1014500024E7304622E7A94295D9A8F102081D44A5
:1014600092E78C45A0D9023C19449EE71046DFE77D
:101470000E46C9E70238294443E700BF72B6374831
:1014800080F3098836484EF60851CEF20001086014
:1014900040F20000CCF200004EF63471CEF20001B2
:1014A0000860BFF34F8FBFF36F8F40F20000C0F2B0
:1014B000F0004EF68851CEF200010860BFF34F8F66
:1014C000BFF36F8F4FF00000E1EE100A4EF63C7153
:1014D000CEF200010860062080F31488BFF36F8FFE
:1014E0009AF09CFA9EF07EFB1E481F491F4A9142CB
:1014F0003CBF41F8040BFAE71D49184A91423CBF32
:1015000041F8040BFAE71B491B4A1C4B9A423EBFA9
:1015100051F8040B42F8040BF8E700201849194A67
:1015200091423CBF41F8040BFAE79AF07BFA9EF037
:101530005BFB154C154DAC4203DA54F8041B88478D
:10154000F9E701F029FA124C124DAC4203DA54F8D3
:10155000041B8847F9E79AF063BA000000080020EE
:1015600000000108555555550000002000040020DA
:1015700000040020C82E0D0800080020E8120020FA
:10158000E8120020F0D90020E00101082002010843
:1015900020020108200201082DE9F04F2DED108AEC
:1015A000C1F80CD0C3689D46BDEC108ABDE8F08F31
:1015B0009AF0FEFE002383F311882846A0470020FE
:1015C0009AF0DAFD9AF0EEFE9AF0FAFC9AF0F0FE4C
:1015D00000DFFEE7844641EA000313F003036DD108
:1015E000403A41D351F8043B40F8043B51F8043BE6
:1015F00040F8043B51F8043B40F8043B51F8043BED
:1016000040F8043B51F8043B40F8043B51F8043BDC
:1016100040F8043B51F8043B40F8043B51F8043BCC
:1016200040F8043B51F8043B40F8043B51F8043BBC
:1016300040F8043B51F8043B40F8043B51F8043BAC
:1016400040F8043B51F8043B40F8043B51F8043B9C
:1016500040F8043B51F8043B40F8043B51F8043B8C
:1016600040F8043B403ABDD2303211D351F8043B2C
:1016700040F8043B51F8043B40F8043B51F8043B6C
:1016800040F8043B51F8043B40F8043B103AEDD2DB
:101690000C3205D351F8043B40F8043B043AF9D22C
:1016A000043208D0D2071CBF11F8013B00F8013BFF
:1016B00001D30B8803806046704700BF082A13D30C
:1016C0008B078DD010F003038AD0C3F10403D21A24
:1016D000DB071CBF11F8013B00F8013B80D331F858
:1016E000023B20F8023B7BE7043AD9D3013A11F8D8
:1016F000013B00F8013BF9D20B7803704B78437043
:101700008B78837060467047A2EB0300704700BF80
:1017100002780B78012A28BF9A42F5D16DE9044579
:1017200040EA0104CDE902676FF0000C4FEA447211
:1017300012B380EA010414F0070F6AD100F0070425
:1017400020F0070004F0030521F007014FEAC5056A
:10175000F0E8042314F0040FF1E804670CFA05F430
:1017600062EA040266EA04060AD063EA04036246F7
:1017700067EA0407664603E0F0E80423F1E804673B
:1017800082FA4CF582EA0604A4FA8CF46CBB83FA64
:101790004CF583EA0705A5FA8CF595B950E90223C3
:1017A00051E9026782FA4CF582EA0604A4FA8CF445
:1017B00083FA4CF583EA0705A5FA8CF52543DBD0BF
:1017C0009CB92DBAB5FA85F424F0070427FA04F180
:1017D000DDE9026723FA04F303F0FF0001F0FF01E3
:1017E000FDE80445A0EB0100704724BAB4FA84F484
:1017F00024F0070426FA04F1DDE9026722FA04F274
:1018000002F0FF0001F0FF01FDE80445A0EB01003C
:10181000704714F0030F3CD110F0030428D150F8A6
:10182000082B51F8083B82FA4CF582EA0305A5FA29
:101830008CF55DB950F8042C51F8043C82FA4CF553
:1018400082EA0305A5FA8CF5002DE8D02DBAB5FA89
:1018500085F424F0070423FA04F122FA04F202F0DA
:10186000FF0001F0FF01FDE80445A0EB0100704717
:101870004FEAC40420F0030050F8082B21F00301C4
:1018800051F8083B0CFA04F462EA040263EA040328
:10189000C9E710F003041AD0A1EB040120F0030003
:1018A000E40750F8042B06D00FD28B785FFAA2F42D
:1018B000E41A06D12BB1CB785FFAB2F4E41A00D166
:1018C0001BB920465DF8104B704701F1040150F838
:1018D000042BCC0721F0030151F8043B48D824D253
:1018E00022F07F4482FA4CF594EA1325A5FA8CF590
:1018F0000AD165B951F8043B84EA0204B4EB036FE2
:101900000ED150F8042BEBE74FEA132355E035F0E6
:101910007F454DD10878FDE80445C0F100007047CF
:101920004FEA126203F0FF0347E002EA1C4482FA26
:101930004CF594EA1345A5FA8CF50AD165B951F82E
:10194000043B84EA0204B4EB034F0CD150F8042B9F
:10195000EBE74FEA134330E015EA1C4528D10B882A
:101960004FEA124229E04FEA124203EA1C4324E004
:1019700002F0FF0482FA4CF594EA1365A5FA8CF59F
:101980000AD165B951F8043B84EA0204B4EB032F91
:1019900009D150F8042BEBE74FEA13630DE015F083
:1019A000FF0F05D10B684FEA122223F07F4304E0BA
:1019B0004FF00000FDE80445704712BA1BBA82FAE6
:1019C0004CF482EA0304A4FA8CF5B5FA85F402FA21
:1019D00004F203FA04F34FEA1260FDE80445A0EBB9
:1019E000136070472DE9F34107460E4649F0F8FDB4
:1019F00031460446384649F09FFB504B93ED1F7A21
:101A0000D3ED1E7AB4EEE77A2040F1EE10FAC4B2BC
:101A1000984603D593F97430032B6BD1B8F91A307B
:101A2000B3F5967F0ADA454B5B8BADF8003038464C
:101A300000213246424B49F0CFF90024B8F91C305E
:101A4000B3F5967F0ADA3D4B9B8BADF800303846F4
:101A5000002132463B4B49F0BFF90024B8F91E3053
:101A600013F5967F0ADD354BDB8BADF80030384639
:101A700000213246344B49F0AFF90024D8F8080968
:101A80002E4D3AF0DDFB50B195F96C303BB1D5F8F5
:101A90000839B5F96E20B3F908309A4232DB43F6C3
:101AA000D012264B18F8022052B1B3F9AC281AB95B
:101AB000B3F8AA28A3F8AC28B8F8AC38632B29D916
:101AC00042F6843318F803300A2B05D142F690739E
:101AD0001A4AD35A012B25D942F6903318F803300D
:101AE0005B0727D5384600213246184B49F074F978
:101AF00000241FE0384600213246154B49F06CF9AE
:101B000000248BE7384600213246124B49F064F935
:101B10000024C4E73846002132460F4B49F05CF9F7
:101B20000024CDE73846002132460C4B49F054F9E9
:101B30000024D1E7204602B0BDE8F0813813002030
:101B400084930B089F930B08BC930B08D9930B0845
:101B5000EE930B0811940B0837940B085E940B0856
:101B6000F7B506460F4649F005FC0446E0B1F38898
:101B700003F01103C3B114F009F90368D3F8B030CE
:101B80009847054680B914F001F903685B6A9847E5
:101B9000074B002808BF18460090102130463A46EF
:101BA000044B49F019F92C46204603B0F0BD00BFA4
:101BB00070940B0830E50B0845F0FEBF53F03CBCB9
:101BC00042F078B806F088B821F07CB82EF0A4BBBB
:101BD00008F048BE09F096BC0EF028BA04F092BA9C
:101BE0002DF04CBF4AF0D6B83CF07CBB0CF0FCBFEB
:101BF0000EF00ABB0DF01AB80CF0EABF42F0B2B812
:101C00000CF0BABF0EF0E0BB16F0D8BA16F032BE38
:101C100008F0A4B802F0AABD02F0AEBD05F072BD96
:101C20000DF02AB809F096BA02F0B2BD07F0ACBECA
:101C30000EF0FCB801F0A8BF0EF098BB0CF0CCBEC3
:101C400010B504462CF0DCFC04F52D502C303CF093
:101C50009BF920460EF000FF04F50760034931228E
:101C60000823BDE810402DF025BD00BFC4940B082B
:101C700038B500F50765044628462DF059FED5ED28
:101C8000107A9FED0E7AF0EEE77AF4EEC77AF1EE75
:101C900010FA41BFB4F9AA3807EE903AF8EEE77AA5
:101CA000B7EE007A48BFC7EE277A04F5615448BF03
:101CB000C5ED107A2B6CE36038BD00BF0000003426
:101CC00070B50E4B06461D6800F5635020306C6CF5
:101CD00049F05EF840B16C6C236820465B69984718
:101CE00010F1FF3018BF012020716B6C06F65C10FC
:101CF0001979BDE870402EF061B900BF104E002088
:101D000042F65C73C35CDB0705D542F6BC23C058C2
:101D100003681B6818477047FFF7F2BF90F9B230AD
:101D20001BB100F6645018F049BF7047FFF7F6BFCB
:101D300010B5022104460EF055FD20B120460121C8
:101D40000EF050FDB8B1204602210EF04BFD20B13F
:101D5000204680210EF046FD88B1204602210EF07B
:101D600041FD88B104F5E05104F65C100831BDE88E
:101D7000104033F003BB204604F0F2F8E3E704F62A
:101D80005C1030F019FAE8E710BD0000FFF7D0BF93
:101D900010B5102104460EF025FD10B1204604F0C8
:101DA000D1FB204620210EF01DFD10B1204604F08D
:101DB000DDF920464FF400510EF014FD10B120461D
:101DC00004F07CFB204680210EF00CFD28B104F6C7
:101DD0005C10BDE8104030F0E1BA10BDFFF7D8BF8D
:101DE00070B542F698330446C55808F05DFA42F6DD
:101DF000A433024604F55E502946E3581830BDE886
:101E0000704047F021BA0000FFF7EABF90F9B23006
:101E10005BB190F8B23D43B1044B1B685B6C1B791E
:101E20001BB900F6645018F02BBF7047104E00200D
:101E3000FFF7ECBF38B5044600F536500C3090F88B
:101E40002411012959D8142303FB010393F91130FC
:101E5000002B52D094F8743B6C2203F003035A43D6
:101E6000A51895F8215A022D47D904F6B8152A4429
:101E700092ED207AF1EE007AB4EEE77AF1EE10FA04
:101E80003BD47C2202FB0101B4F90A2091ED0C6ADB
:101E900007EE902AF8EEE76AB4EEE66AF1EE10FA81
:101EA00006D5F8EE677AB4EEE77AF1EE10FA24D4AC
:101EB00041F61842D4F8B019A258002AB8BF5242CD
:101EC0008A421ADC41F61C42B4F91C10A2588A421C
:101ED00013DCD4F8B4198A4200DA38BD6C2202FB54
:101EE000035590352946B4F90C2015F037FD2046EE
:101EF0002946BDE8384002F045BC38BDFFF79ABF1F
:101F0000F8B590F8741B3D4A01F003010C2303FB64
:101F100001030446D3F8000A1368984206D06C23E4
:101F200003FB014393F8213A022B10D86C2303FBE7
:101F3000014191F8213A022B04D842F6A833E25C21
:101F4000002A58D12046BDE8F84009F07DBA10605B
:101F500042F6A832A35C012B01D9013B09E03BD139
:101F600043F61803E35833B943F61C03E35813B997
:101F70000523A35430E06C2707FB0141204601F6FE
:101F80002A2106F001F943F6040304F56052E658ED
:101F9000083230687168154603C5B068286010685B
:101FA000516804F56053203303C39068186094F9B6
:101FB000B2306BB194F8743B03F0030307FB0343A7
:101FC00004F66450D3F82E1AD3F8322A18F068FEBB
:101FD00042F6A8330022E2542046002108F072F9AC
:101FE00004F52B501C3049F063FE04F5E050083036
:101FF00010F0FEFFA6E70522E254A3E7E812002056
:10200000FFF77EBFF8B542F688730446C35C012B28
:102010000CD00B2108220EF045FA04F50E50383092
:1020200006212C4ABDE8F84033F06ABF00F564553C
:1020300000F53E531C3528465E8E0AF0B1FE074679
:1020400038B104F5605128462031BDE8F8400CF065
:1020500065B8162E06D0152E29D142F66473E35CBE
:10206000072B06D120460FF0C3F920460FF09CFA4B
:102070002BE0204601F0D2FB204601F051FA42F657
:10208000747694F9D820A15904F540553435642369
:1020900028465A4353F004FBA051284653F0BAFC9B
:1020A00098B139464620BDE8F8403AF00BBE1E2EE6
:1020B0001CBF42F6E4634FF0FF32204618BFE250E7
:1020C00001F0ACFB204601F02BFA2046BDE8F840B9
:1020D00001F014B8B0980B082DE9F0412DED028BFA
:1020E00042F684330446C75C0A2F04D190F952307B
:1020F0002A2B05D1052742F6E4634FF0FF32E25068
:1021000004F564561C3630460AF084FE04F5E055AA
:10211000083538B943F6D013E35C43B196F8D530AF
:102120009B0704D595F868306FF341030EE042F643
:102130006473E35C042B40F0288204F54050343093
:1021400053F078FC95F8683060F3410385F8683007
:10215000152F00F21F82DFE817F0690154014C01CE
:102160002C00650086001101140186001D02160076
:10217000280028001D021D001D001D02840184018D
:10218000840184018401BDEC028B2046BDE8F0414E
:10219000FFF738BF42F62873E35C9D0705D543F689
:1021A000D013E35C002B40F0D581204601F036FBD4
:1021B00032E142F2553342F254360025A55520460D
:1021C000E55401F075FA41F6184342F67472E1588D
:1021D000D4F8B039994202DA5B42994201DCA3504B
:1021E00002E00123A355A55041F61C43B4F91C207D
:1021F000E158914242F6787308DAD4F8B429914252
:10220000C1BF42F255320121A1540022E2502046C2
:1022100007F064FC002800F0BD8142F67872A358F4
:102220005B42ECE042F6BC63E25C42F6747342B19E
:1022300004F53B52D2ED007AFDEEE77A17EE902AD4
:1022400002E041F61842A258E25042F6BD63E25C59
:1022500042F6787312B142F6C46201E041F61C42C4
:10226000A258E25096E1D4F800093AF06BF8D4F89D
:10227000B03907EE903AF8EEE77A42F6747520EE40
:10228000270AFDEEC07A17EE900A6051D4F8B039F3
:102290001A46594222F0BEFE6051204601F008FA6B
:1022A000D4F804093AF04EF8B5EEC00AF1EE10FA8F
:1022B000CBBFB4F91C20D4F8B42907EE902A07EE5E
:1022C000902ACBBFF8EEE77AF8EEE77A20EE270AFD
:1022D00027EEC00A42F67873BDEEC00A42F6787562
:1022E00010EE102A2046E25001F0B0F96059D4F8FF
:1022F000B419B4F91C2022F08DFE6051204607F07D
:10230000EDFB10B163595B42635142F69033E35CDD
:10231000D80704D594F97430022B00F0228194F888
:10232000E00043B2002B40F335810138C0B23AF0EF
:102330003FF940F2A463984240F22C8142F6F062E9
:10234000A35C990600F1268104F53C5191ED007AD9
:10235000D4ED327AB4EEE77AF1EE10FA40F11A8158
:10236000BDEC028B04F50E5043F02003A35438302B
:1023700004218A4ABDE8F04133F0C2BDD4F8000917
:1023800011E0D4F80009B0F90230002B40F0F580DC
:10239000D4F80C39B3F90230002B40F0EE8042F64D
:1023A000C863E35CDBB939F0CDFFD4F8B03907EE90
:1023B000903AF8EEE77A42F6747520EE270AFDEEC1
:1023C000C07A17EE900A6051D4F8B03959421A46D3
:1023D00022F020FE6051204601F06AF902E020461A
:1023E00001F01CFABDEC028B2046BDE8F04108F07C
:1023F0006FBD42F674720023A35042F67872A35068
:10240000C8E0D4F8B039032293FBF2F342F67472B9
:102410002046A35001F04CF9204601F081F8BDECB4
:10242000028B2046BDE8F04100F068BED4F80009F8
:1024300039F07EFF014604203AF044FCD4F8040948
:1024400039F076FF014613203AF03CFCD4F80C0931
:1024500039F06EFF42F25A33E05242F25833E05202
:1024600098E043F62017D4F8B039E25F9FED4C7A3C
:102470009342A8BF1346D4F80029B2F9022007EE10
:10248000902AF8EEE77A1AB2C7EE877A42F67478A5
:10249000514204F56455203507EE102AB8EEC77A8C
:1024A00067EE877AFDEEE77A17EE900A44F80800A7
:1024B00022F0B0FD44F80800D4F8040939F042FFD6
:1024C0003046B0EE408A0EF01BFC42F67876E15FB3
:1024D00058B107EE901AF8EEE77A28EE278ABDEE9B
:1024E000C88A18EE103AA35154E0B5EEC08AF1EE56
:1024F00010FAB4F91C2013DD8A42B8BF04F11C05A0
:10250000B5F9003007EE903AF8EEE77A42F67873C4
:1025100028EE278ABDEEC88A18EE101AE15010E0A6
:10252000D4F8B4395B428B42A8BF0B4607EE903A11
:10253000F8EEE77A28EE278ABDEEC88A18EE103A40
:10254000A35142F67875D4F8B419605922F062FDAF
:1025500060511FE0BDEC028B3046BDE8F0410BF04E
:1025600073BE42F674720023A35042F6787246207E
:10257000A35001213AF04AFAD1E642F6C86200239C
:10258000A35442F6D062A35009E795F8683043F0AF
:102590000203DBE5BDEC028BBDE8F081DB980B08A4
:1025A00000A08C45FFF798BD38B52DED028BB0F932
:1025B0005A50002DB8BF6D42044625B9B0F92250DB
:1025C000002DB8BF6D4242F68433ADB2E35C073BE9
:1025D000082B00F2B580DFE803F06AB3B30516629A
:1025E000B362620004F5E053083393F83C31D80736
:1025F00040F1A680BDEC028B04F53E500830BDE8EA
:10260000384026F0BFBF43F6D013E35C002B55D013
:1026100043F6A613E356012B50D142F6B823E058F7
:1026200003689B6B984788B155F090FE42F688335B
:10263000E358C01AB0F57A7F40D9BDEC028B204632
:1026400015210022BDE838400DF02CBF04F5605084
:1026500004F5605104F5605214300831203222F044
:10266000B1FE0028E0D104F5645004F53C531C3061
:1026700093ED058A0BF0AAFA07EE905AF8EEE77A86
:10268000F4EEC07AF1EE10FAC4BF07EE905AB8EE3D
:10269000670AB4EEC08AF1EE10FAC5D40EE000214C
:1026A000BDEC028B2046BDE8384008F08FBDBDEC84
:1026B000028B2046BDE8384008F066BB94F9303004
:1026C000012B11D142F6F063E35C59060CD420468D
:1026D00008F0A6FC40B142F6BC3340F2CE72E3589B
:1026E00003F2E733934219D994F93030022B04D125
:1026F00042F6F063E35C5B0610D5B4F95A3083EA26
:10270000E371A1EBE3710029CAD0002B43F2E4731B
:10271000B4BFFF22012289B2E254C1E704F53E5062
:10272000083027F02FF820B120460A2100220DF0B2
:10273000B9FE42F6F062A35C43F04003A354DCE729
:10274000BDEC028B38BD000070B542F664730446E0
:10275000C35C8B420D461ED00B1F594200F5405002
:102760005941343053F0AAF8072D0CD142F6F463E6
:1027700004F50E50E658084A64233830052196FBCC
:10278000F3F333F0BDFB42F664732046E554BDE835
:10279000704003F04BBD70BDEB980B0838B542F6A6
:1027A0005C730446C35CD8072CD542F65D73E35CCA
:1027B00043BB42F68433E35C0A2B2FD104F5645506
:1027C0001C3528460AF0ECFA10B12046022127E019
:1027D00042F6F063E35CD90702D4204601211FE0F2
:1027E00004F53E5330335B88152B13D104F540506C
:1027F00034300379DA0741D442F66473E35C072B83
:1028000024D13BE004F564551C3528460AF002FB50
:102810000028DAD143F6D013E35C93B920460321B4
:10282000FFF792FF04F5456004F5365415F002FAFF
:1028300094F830317C220C3402FB034484ED100AFE
:1028400038BD95F8D5309B07E8D5BEE743F29A131B
:10285000E3562BB1D4F80839B3F90230592B02DC16
:1028600020460421DCE753F013F80028F8D004F5E3
:102870000E5038300621034A33F042FB2046072130
:10288000CEE700BF0C990B0830B542F6253389B06E
:10289000C35604466BB300F52C501C302AF09CFA4A
:1028A000154D42F650332A68E358934221D02B60ED
:1028B00042F63D3304AAE35C8DF80F3004F52D5346
:1028C00093E8030082E803001946083103C906AB08
:1028D00083E8030004F52C512C3104F5E0500191FC
:1028E000083000950DF10F0112F0EAFB204603F0CD
:1028F00049FD09B030BD00BFEC120020FFF7C4BF96
:1029000070B543F2981604468357002B27DD07F075
:1029100073FE20BB04F563552035284648F03AFF86
:10292000E8B1284648F034FA00B970BD55F00EFD04
:1029300042F61C73A257E358C01A4FF47A735343FC
:1029400098420CD320460DF091FF40B104F50E5093
:1029500038300621024ABDE8704033F0D1BA70BD6C
:1029600029990B0810B52DED028B42F664730446CD
:10297000C35C042B09D104F09FFF2046B0EE408ACF
:1029800004F0E0FF38EE400A03E000F5615494EDF6
:10299000020ABDEC028B10BD10B50A46044903467D
:1029A000086801680C681946024BA047002010BD5A
:1029B000104E00203813002070B50446FFF780F950
:1029C00094F9B130012B02D1204601F0D5FE04F577
:1029D000E05508352846002112F0A8FA204680214B
:1029E0000DF000FF18B104F65C102FF0E5FBB4F910
:1029F0001A30C4F8B03904F56450B4F91E30C4F884
:102A0000B4391C300EF07CF928BBD4F8B03907EE8D
:102A1000903A04F5EA5393ED037AF8EEE77A67EE1D
:102A2000877AFDEEE77A17EE903AC4F8B039D4F819
:102A3000B43907EE903A04F5EA53B8EEE77AD3EDED
:102A4000027AF0EEE77A67EE277AFDEEE77A17EE84
:102A5000903AC4F8B439284611F0B0FD064628462D
:102A600011F0B8FD04F53B5500F11801304625F092
:102A7000E9F82C3504F5615696ED037AD5ED007A28
:102A8000E0EE077AC5ED007AB0EE670A22F0AEFA02
:102A900004F5645085ED000A96ED030A2430BDE884
:102AA00070404BF0CBB90000FFF786BF70B590F9CE
:102AB000B2300446FBB100F66456304618F090F888
:102AC00000B970BD04F5E055083528462E6712F0B0
:102AD0009BFF20464FF480610DF084FE58B12846DC
:102AE00011F094FC38B904F65C1000220023BDE814
:102AF000704032F0EDB970BDFFF7D8BF70B5044635
:102B000000F50E500021383034F08AFF20460BF0DB
:102B100023FD04F5E050083012F076FF43F20E2357
:102B20006289E25204F54652A38992F89D10203240
:102B300051B91BB207EE903A9FED267AF8EEE77A8C
:102B400067EE877AC2ED1E7A234BE28C1A7004F589
:102B50006355203539F09CFE28460021FEF742FFE0
:102B60001E4E012370722846B37248F011F928B93D
:102B7000284648F00FFEB0FA80F04009307228462F
:102B800048F006F9B8B994F8743B0C2203F003033B
:102B900002FB034243F68801D2F8000A625841F270
:102BA0008835821AAA4206D96C2202FB034393F8A5
:102BB000213A022B04D82046BDE870400CF0A6B89C
:102BC0006050204605F0ACFA04F5405300225A63E9
:102BD000F1E700BFC0CFF83F0A080020A84E002050
:102BE000FFF78CBF70B5044600F5E056083604F5D3
:102BF00060513046143111F021FD04F5615542F663
:102C0000A9330835E0542946304611F0E7F8D5EDF0
:102C1000007AF1EE677AC5ED007A04F6B810BDE8E7
:102C200070401AF0AFB80000FFF7DCBF2DE9F04F9D
:102C30002DED028B00F5456587B00446284615F05A
:102C4000CFF804F5E0500023083003A90393049360
:102C5000059311F03BFE10B19DED050A13E094F8C9
:102C6000743B03F003026C235343E21892F8211AD9
:102C700002296DD992F8602AD20769D504F6B812F4
:102C8000134493ED260ADFED397A04F53C5393EDB6
:102C9000037A20EE270ADFED367AA7EE270A2046D0
:102CA000012183ED030A07F00DFB2046FFF776FDB7
:102CB00042F65C73E35CDB0753D542F65D73E35C7D
:102CC000002B4ED142F66473E35C042B46D104F52D
:102CD000605604F560551436203504F560513046D1
:102CE00008312A4622F06EFBC0B33046294622F056
:102CF00037FAB0EE408A42F6BC232046E6583368E5
:102D00005F6804F03DFE42F6AC33824654F803900F
:102D100042F66473204614F803800EF0D5FB42F6A9
:102D2000B6338346E55A2046FFF71CFE2DB204F564
:102D30003E54CDF800B00195F0EE400A30465146C1
:102D40004A464346B0EE480A94ED001AB84708E0F8
:102D5000284614F021FFB1EE400A94E79FED058A62
:102D6000C9E707B0BDEC028BBDE8F08FCDCC4C3E7F
:102D7000CDCC4C3F00000000FFF758BF38B542F6FD
:102D80005C730546C35CD90711D59A070FD590F936
:102D9000B930CBB107F04EFA0446A8B142F69233EF
:102DA000EB5E8BB928460BF073FD68B90DE042F677
:102DB0009033EB5CDB0705D595F97440023C18BFF6
:102DC000012402E0012400E00024204638BD000078
:102DD00010B52DED028B0446B0EE408A06F07EFE63
:102DE00078B142F67472A35803F58C415031A1506A
:102DF00041F6184161580029BEBFA3F58C43503BF2
:102E0000A35042F68433E35C022B07D1D4F8003997
:102E1000B3F90220003218BF012200E0002242F67E
:102E2000747304F50550E15841F61843B0EE480AB2
:102E3000E3581830C91A45F0ABFEBDEC028B01B265
:102E4000BDE81040042039F03DBF000038B52DED3D
:102E5000028B0546F0EE408A0EF060FC044630B16D
:102E600000EB4004C4EB0411132009B233E042F636
:102E70007873B5F9AC20EB58134407EE903A46202E
:102E8000B8EEE78A39F030FF07EE900AB8EEE77A3D
:102E9000D5ED0F7A42F68433A7EE278AEB5C022B3E
:102EA000BDEEC88A07D1D5F80439B3F90220003243
:102EB00018BF012200E0224641F61C4305F50850E8
:102EC000E95818EE103A0430591AB0EE680A45F085
:102ED000C7FC01B21320BDEC028BBDE8384039F0CD
:102EE000F1BE0000B0F900309FED176A07EE903A8E
:102EF000B0F90630B8EEE77A07EE903AF8EEE77AE6
:102F0000B1F9003077EE677A82B0F0EEE77AF4EE4E
:102F1000C67AF1EE10FA58BFF0EE467A36EE677ACE
:102F200007EE903AF8EEE76AC7EE067A66EEA77A01
:102F3000FDEEE77ACDED017ABDF804300B804288D2
:102F400013440B8002B070470000C84313B5044619
:102F5000FFF714FF38B342F68433E35CA3F11102A8
:102F6000042A20D9033B052B1DD9042039F0BCFECF
:102F700002A921F8040DD4F80009FFF7B3FFBDF949
:102F80000410042039F09EFE132039F0ADFE02A992
:102F900021F8020DD4F80409FFF7A4FF1320BDF9AE
:102FA000061039F08FFE02B010BD000038B52DEDCF
:102FB000028B0446FFF7E2FE002800F09B8042F6F9
:102FC0008433E35CA3F11102042A40F29380DA1EF9
:102FD000052A40F28F800A2B04D194F952302A2B13
:102FE00000F08880D4F8000939F0ACF9F6EE007AE8
:102FF000B4EEE70AF1EE10FAF0EE678A02DDFFEEBA
:10300000007A08E0FEEE007AB4EEE70AF1EE10FA7C
:1030100007D5F7EE007AB0EE087AE0EE077AB0EE68
:10302000670A42F67475635907EE903AD4F8B039DE
:1030300007EE103AF8EEE77AB8EEC77AE0EE077AD4
:10304000FDEEE77A17EE900A6051D4F8B039594294
:103050001A4621F0DFFF6051D4F8040939F072F903
:10306000B4EEE80AF1EE10FAB0EE408A02DDFFEEAF
:10307000007A08E0FEEE007AB4EEE70AF1EE10FA0C
:1030800007D5F7EE007AB0EE087AE8EE077AB0EEF0
:10309000678A204606F022FD08B1B1EE488A42F662
:1030A0007873B5EEC08AE158B4F91C20F1EE10FA3D
:1030B00007EE901AD6BFD4F8B41907EE102A07EE1F
:1030C000101AF8EEE77ACABFB8EEC77AB8EEC77A38
:1030D000E8EE077A42F67875D8BFE8EE477AFDEE5B
:1030E000E77A17EE901AE1506059D4F8B41921F03C
:1030F00091FF6051BDEC028B38BD000037B590F9EF
:103100000730012B044602DC462000211CE042F679
:10311000BC23C05803689B68984742F684330190EB
:10312000E35C0E3B012B0CD80E4D42F648742B5934
:103130003BB155F00BF92B59C01A40F6B733984202
:1031400007D9BDF90410462003B0BDE8304039F07E
:10315000B9BD054BD3ED007AFDEEE77ACDED017AEE
:10316000EFE700BF381300207C420020F8B52DEDBA
:10317000028B42F684330546C35C022BB0EE408AD4
:1031800006D142F67C72845E003418BF012400E050
:1031900000240E3B012B1CD81F4E06F53D573B6803
:1031A000002B16DD55F0D2F83B68C01A40F6B73355
:1031B00098420ED842F63473F05A184900B241F2E0
:1031C000941221F02FFFBDEC028B42F25A33E852E9
:1031D000F8BD05F50A502146B0EE480A383045F0F2
:1031E0003DFE0446042039F07FFD07EE900A23B22D
:1031F000F8EEE76A07EE903A95ED0D7AF8EEE77A89
:1032000042F67C73E6EE877AE85AFDEEE77A17EE2F
:10321000903A034498B2D0E7381300206CEEFFFFD9
:1032200070B542F6B8230446C0580368DB68984777
:10323000014604F50C50043045F0EEFD42F25835DD
:1032400004F50D56605320461836FFF797FD20B160
:10325000D4F80C093146FFF745FE605F034941F29F
:10326000941221F0DFFE605370BD00BF6CEEFFFFD3
:1032700038B590F8742B00F6B81302F003026C21F5
:1032800001FB023393ED207AF7EE007AB4EEE77A91
:10329000F1EE10FA044619D5D0F80839B3F9023026
:1032A000A3B942F66472825C012A0FD0072A0DD0BE
:1032B00042F6E862835400F53B530022DA6242F69C
:1032C0007C73C25A42F25833C25238BD42F664711E
:1032D00042F67C73615CE35AB4F84420012912D0B1
:1032E000072910D01BB200EE103ADFED297AB8EEB4
:1032F000C00A13B2C0EE277A00EE103AB8EEC00A48
:1033000027EE800A01E09FED230A9FED237AF0EE7D
:10331000C07AF4EEC77AF1EE10FA42F6E86302D40E
:103320000022E2540BE0E25C4AB901229142E254ED
:1033300005D007291EBF04F53B530022DA6242F68E
:10334000E86304F50C50E35C043013B945F044FC29
:1033500011E004F53B5393ED0B7ADFED107A67EE45
:10336000C77A9FED0F7A67EE877AFDEEE77A17EE60
:10337000901A45F051FD42F2583342F25835E0526E
:103380000849605F41F2941221F04CFE605338BD51
:1033900000A08C450000000000000034E02E6542D3
:1033A0000000C8426CEEFFFF70B500F540553435A3
:1033B0002DED028B04462846B0EE408A52F01CF9EF
:1033C00020B142F256330122E2541BE0D4F8003916
:1033D000B3F9023073B904F56153D3ED027A94ED79
:1033E000107AF0EEE77AF4EEC77AF1EE10FA4CBFFD
:1033F0000120002042F25636A055284652F016F918
:1034000000B9A055284652F0F7F840B942F6E463F7
:10341000E35801330FD042F25633E35C5BB12046F0
:10342000FFF7FEFEB0EE480ABDEC028B2046BDE879
:103430007040FFF79BBE42F25633E35C002BF1D0A5
:103440002046FFF715FFEDE738B52DED028B42F270
:1034500054330446C35CB0EE408A002B4FD1FFF7D3
:10346000B7FC42F67473E358002B05DC42F6747324
:10347000E358002B13DA09E0D4F8003904205D8802
:1034800039F032FC2DB2854239DBEFE7D4F8003950
:1034900004205D8839F028FC2DB285422FDC42F2F1
:1034A0005533E35C9BBB2046B0EE480AFFF7CEFCE9
:1034B00042F67873E358002B05DC42F67873E35844
:1034C000002B13DA09E0D4F8043913205D8839F0B1
:1034D0000BFC2DB285421ADBEFE7D4F80439132038
:1034E0005D8839F001FC2DB2854210DCB0EE480A4F
:1034F000BDEC028B2046BDE83840FFF755BFD4F83D
:1035000000390420B3F9021039F0DCFBC7E7D4F826
:1035100004391320B3F9021039F0D4FBE6E70000B8
:10352000F8B542F6BC230446C0580368DB689847E8
:1035300042F684330646E35C0E3B012B0DD80E4D5C
:1035400042F63C77EB59002B07DD54F0FFFEEB59B8
:10355000C01A40F6B73398420AD93046D4F8B419A5
:10356000B4F91C2021F056FD42F67873E050F8BD06
:1035700042F63073EE58F0E73813002030B50346BA
:10358000B0F8720000285FD042F684329A5C013AAB
:103590000E2A56D8DFE802F049555555554F4C557F
:1035A000550846435552520003F53E535C8E162C87
:1035B00049D085B205F002039BB200F001022BB1A5
:1035C000A4F1150CDCF1000343EB0C03134305F0ED
:1035D000040292B21AB1A4F11F004242424105F026
:1035E000080113438AB25AB11F2C08D0A4F1120269
:1035F000012A04D9A4F111014A424A4100E0012202
:1036000005F0100080B21A4338B1102C04D0A4F198
:1036100052035842584100E00120104330BDC0F32E
:10362000401030BDC0F3801030BDC0F3C01030BDBD
:10363000C0F3002030BDC0F3402030BDC0F3802077
:1036400030BD012030BD002030BD000010B5044663
:103650000DF0CCF8002827DB94F90730984223DAE4
:1036600042F66472A25C022A1ED042F6787294ED91
:10367000126AA158DFED0D7A27EEC66A07EE901A9E
:10368000191AB8EEE77A06EE903A07EE901AF8EEBD
:10369000E66AF8EEE77AC7EEA67AA6EE277AFDEE9E
:1036A000C77A17EE903AA35010BD00BF0000C84281
:1036B000F8B52DED028B42F674739FED520AC35894
:1036C0009FED517A07EE903AF8EEE77A044667EEFE
:1036D000807A9FED4E0AF0EEE77AF4EE477AF1EE4B
:1036E00010FAC8BFF0EE477A27EE800A9EF02EF857
:1036F00021F0BEFBB7EE008A88EE000A04F564559F
:1037000004F53E561C35284686ED000A0AF042FABA
:1037100020B104F56A531B68DB0762D494F92130A9
:10372000002B6CD0204606F0D9F9002867D1284636
:103730000DF0E6FA002862D1B4F90A30012BB8BFC7
:10374000012307EE903A04F53E52B8EEE70AD2EDB7
:10375000017AC7EE807AF4EEC87AF1EE10FA0ED84C
:1037600042F674752A49605940F6C41221F052FCA1
:1037700060512749D4F8B00940F6C4122CE096ED08
:10378000007AF4EEC77AF1EE10FA38D5B7EE000AF7
:1037900080EE270A42F6747720EE000A9EF082F946
:1037A000DFED1C7AE05920EE270ADFED1B7A20EED0
:1037B000270A40F6C413FDEEC07A17EE905A9D42D8
:1037C000B8BF1D466E4231462A4621F023FCE05127
:1037D000D4F8B00931462A4621F01CFCC4F8B009DF
:1037E0000DE094F9D820642312FB03F3D4F8B02938
:1037F0009A42D4BFC4F8B029C4F8B0398EE7BDEC02
:10380000028BF8BD0AD7233C0000AA4235FA8E3C51
:103810003CF6FFFFE02E65420000C842F8B542F6D4
:10382000B8230446C05803681B68984742F684339F
:103830000646E35C0E3B012B0DD8104D42F638775F
:10384000EB59002B07DD54F081FDEB59C01A40F60F
:10385000B73398420DD9D4F8B0293046514221F0FF
:10386000D9FB42F67473E0502046BDE8F840FFF7FC
:103870001FBF42F62C73EE58EDE700BF381300204F
:1038800010B52DED028B044682B000F5E0500830F3
:1038900001A910F029FA002854D004F53C539DEDFD
:1038A000010AD3ED007AB4EEE70AF1EE10FAC8BFD0
:1038B00083ED000AB4F90A30DFED457AD4ED136ADE
:1038C00000EE903AB4F90C30B4EEE70A07EE903A05
:1038D000F8EEE00AF6EE008AB8EEE77A60EEA80AA3
:1038E000F7EE087A67EE277AC0EEA60AC7EEA67A48
:1038F000F1EE10FAB0EE006AF4EE680ACCBF86EE84
:10390000800AB0EE460AF1EE10FAF4EE467AC8BF2D
:10391000F0EE680AB0EE001AF1EE10FA58BFB0EE01
:10392000671A21F089FB04F564501C30B0EE408A20
:1039300009F070FA002845D0264B1B685B6C1B7998
:1039400003BB3FE0462039F0CFF900280FDD4620C9
:1039500039F0CAF907EE900AB8EEE77ADFED1E7A81
:10396000C7EE877AB6EE000AA7EE800A01E09FED67
:103970001B0ADFED1B0A9FED191A21F05DFBB0EE6B
:10398000408A1FE0B4F90A309DED011A02EE103AA8
:10399000B8EEC22A22EE282AB4EEC21AF1EE10FACC
:1039A00010D5D4ED130A9FED0F0AC0EE820AF0EE97
:1039B000401A21F06DFAB4EEC08AF1EE10FA58BF49
:1039C000B0EE408AB0EE480A02B0BDEC028B10BDEA
:1039D00017B7D138104E0020000034428FC2D53FB7
:1039E0009A99193F0000000070B52DED028BD0F8B8
:1039F00000399FED617AB3F90230F0EE408A00EEB3
:103A0000103AB8EEC00AB0F98C30C0EE077A00F573
:103A100005550446183500EE103AD0F80439B3F9CC
:103A2000023008EE103AB8EEC00AB8EEC88A27EEA7
:103A3000800AC8EE077AB0F98E3008EE103A90F995
:103A40009030B8EEC88A27EE888A43B19FED4B7A52
:103A5000F0EEC07AF4EEC77AF1EE10FA1DD442F619
:103A6000BC630022E2542846F0EE680A45F08CF868
:103A700001B2042039F026F994F9903004F5085089
:103A80000430002B6CD09FED3D7AF0EEC87AF4EE56
:103A9000C77AF1EE10FA38D462E042F6BC6300F562
:103AA0003B56C25C22B90122E2540023336010E08D
:103AB00004F5E050083010F081FD04F56153D0EDBD
:103AC000006A93ED037AD6ED007AE6EE877AC6EDCA
:103AD000007A96ED007ADFED2A7A67EEC77A9FEDDD
:103AE000297A67EE877A41F61843FDEEE77AE358C4
:103AF00017EE901A42F674720B44A3502846B0EEAB
:103B0000680A012245F044F8B2E742F6BD63E25C80
:103B10003AB90122E25441F61C43E25842F6C4632A
:103B2000E25042F6C46342F67872E358A35041F67D
:103B30001C42B0EE680AA1580022591A44F090FEC7
:103B400001B2132039F0BEF842F67C73BDEC028B53
:103B500042F25A32E35AA35242F25832A35270BD93
:103B600042F6BD630022E254B0EE480AF0EE680A65
:103B700044F08AFDE4E700BF00A08C45000000345B
:103B8000E02E65420000C84270B52DED028B42F672
:103B900084330446C35C002B00F0C880FFF770FE3E
:103BA00004F564551C352846B0EE408A0DF02EF918
:103BB000D0B143F65823DFED5F0AE3569FED5E1A5E
:103BC0005A1D6423534300EE103AB8EEC00A21F0A8
:103BD00033FABDEEC00A42F6787310EE102AE250B6
:103BE00042F674730022E25042F68433E35C032B06
:103BF00005D12046B0EE480AFFF726FC30E0042B42
:103C000005D12046B0EE480AFFF7EEFE28E0113B52
:103C1000042B04D828460DF0F9F8002853D094F965
:103C2000B930012B04D142F68433E35C022B4ED130
:103C30002046B0EE480AFFF7CBF82046B0EE480A1F
:103C4000FFF704F994F9B930022B44D042F68433DB
:103C5000E35C022B3FD02046B0EE480AFFF7A4FBFE
:103C6000D4F80839B3F90230002B5FD104F5615361
:103C7000D3ED027AB1EE047AF0EEE77AF4EEC77A89
:103C8000F1EE10FA52D504F5456013F085FFF6EE1B
:103C9000007AB0EEC00AB4EEE70AF1EE10FA45D5AC
:103CA00094F8742B04F6B81502F003026C2606FB98
:103CB000025292ED207AF0EE087AB4EEE77AF1EE55
:103CC00010FA0CD432E028460AF08AFAC8E72046F7
:103CD000FFF76CF9ACE72046FFF738F9BBE704F5CE
:103CE0000550183044F074FF04F50850043044F0D7
:103CF00011FE04F50A50383045F008FA94F8742B98
:103D000002F0030206FB025393ED207AF7EE007AED
:103D1000B4EEE77AF1EE10FA08D5BDEC028B04F5AB
:103D20000C500430BDE8704045F094B8BDEC028BF7
:103D300070BD00BF00E0AB4500D0044600207047D6
:103D400001207047002070470120704742F68433FD
:103D5000014AD05C704700BF38130020014B93F834
:103D60002800704738130020014B93F92A00704750
:103D700038130020034B93F9B100431E58425841B9
:103D8000704700BF3813002043F6A413024AD056F0
:103D9000003018BF012070473813002000487047DA
:103DA0009C20002000487047C04200200048704717
:103DB000143E002000487047D04A00200048704759
:103DC0008C3E0020014808F0F9BE00BF544C002092
:103DD00010B5204B42F6843201249A5C152A0FD884
:103DE0001D499440214041B91C49214039B914F082
:103DF000190F14BF4024012402E0182400E010240D
:103E000042F25531595C21B142F254311148415CC2
:103E100009B944F0100493F9B91012F0EF0F18BF6C
:103E200044F0100409B1102A0ED193F9B130012BDE
:103E300008BF44F02004102A09D0094846F0A8FF22
:103E400028B144F0800402E044F04004EDE744F07F
:103E5000010010BD3813002002DC2000E4011E0028
:103E6000184C00202DE9F0432DED028B8BB08046DD
:103E700011F08CFFDFF89490476890ED028AC668D5
:103E8000B9F8AC5004461E480CF03AFF68B92DB2A0
:103E900007EE905A9FED1B7AF8EEE77A67EE677AA5
:103EA0009FED197AA7EE878A07E043F66C2359F84D
:103EB00003305F6893ED028ADE6823682046DB6A80
:103EC0009847044698F8185054F040FA6268A3687E
:103ED00021680892099327221C23039007910192DD
:103EE000009328461E2103AA04978DED058A0696A5
:103EF00036F0F8FE0BB0BDEC028BBDE8F08300BFDE
:103F0000544C00200AD7233C35FA8E3C381300204D
:103F100008B504480CF06AFC0028B8BF404200B263
:103F200008BD00BF38130020F0B50C89CB791C4EBA
:103F30001C4843EA042343F3170443F62107C4F360
:103F400007237370C455C4F30743B3708B79DB0741
:103F500013D543F60403C558AB786A7842EA0322C6
:103F6000EB7842EA034343F317032344C3F30722E6
:103F7000C355C3F307437270B37043F62003C25CAA
:103F80006FF30002C2548A79C15CC2F3C00262F3CB
:103F9000C301C1540348BDE8F04003F095BA00BF27
:103FA000594B00203813002070B542F684331A4C68
:103FB000E35C0F2B2ED10B46184A53F8060F5968B5
:103FC00003C243F62C059868615D1060CB071CD5D1
:103FD00043F604036059E658B378727842EA032244
:103FE000F37842EA034343F3170303EB202343F63A
:103FF0002D000B4A2354C3F30720C3F307439370E8
:104000000B466FF3000363555070034804F034F817
:10401000012070BD002070BD38130020644B0020CB
:10402000654B0020152910B50BD80124064804FA69
:1040300001F3184030B1054802220CF033FA204653
:1040400010BD002010BD00BFFFDD3E003813002072
:1040500010B5074C204653F0E9FC28B914F0E4F8F9
:10406000BDE8104013F098BD94ED320A10BD00BFBA
:10407000641A002008B5134842F68433C35C102B41
:104080000DD042F69233C35E5BB942F6D143C35CB6
:104090003BB942F69033C35C5A0704D501E00220D5
:1040A00008BD052008BD42F64C73C35C9B0706D4CF
:1040B00006F0A2FA002814BF0420032008BD062041
:1040C00008BD00BF38130020F0B5264B93F9B1307E
:1040D000012B8FB043D1244B9FED245AB3F93220EA
:1040E000DFED235A196AD3F80CE01F695E699D69F8
:1040F000DC69007E06EE102AB3F9342006EE902A21
:10410000B3F9362007EE902AB8EEC66AF8EEE66AF2
:10411000B8EEE77A26EE056A66EE856A67EE057AFE
:104120005A6A9B68039326EE256A66EEA56A67EED7
:10413000A57A0D922C239A220C9101920093A4212E
:1041400003AACDF810E005978DED066ACDED076A5C
:10415000CDED087A09960A950B9436F0C3FD0FB0A1
:10416000F0BD00BF38130020F81200206F12833A10
:104170000AE81C4113B542F6B0631C49CB5C012B25
:1041800026D8142202FB031202F5365090F91D00C6
:10419000F0B17C2000FB031000F53754247CE407C9
:1041A00016D502F53652D2ED047AF0EEE77AF5EE46
:1041B000C07AF1EE10FA03DC00F53750027F3AB115
:1041C0007C2202FB031303F5365393ED0F0A0BE039
:1041D00011F0DCFD036801A9DB6D984710B19DED7E
:1041E000010A01E09FED020A02B010BD3813002061
:1041F000000000000B4991F928378BB1907A537A6F
:1042000043EA0023D07A43EA0043A62B08D06D2B63
:1042100006D0B1F92800D3791B1A5842584170478B
:10422000012070473813002030B542F684331D4C0E
:10423000E35C91B0002B33D0057E54F087F843F651
:1042400024039FED197AE158039043F62803049163
:10425000E258059243F620039622E358019243F375
:10426000172307EE903A0023F8EEE77A07930893B6
:1042700009930A930B930C930D930E934FF6F873D7
:10428000ADF83C30052367EE877A8DF83E30332356
:1042900000932846572103AACDED067A36F022FD79
:1042A00011B030BD381300200AD7233C70B52DED76
:1042B000028B86B00D46044654F038F804F5E054FD
:1042C00008340646204611F02DFD2046B0EE408A07
:1042D00011F032FD00230393CD22102301920093AD
:1042E000284642F60C3102AA02968DED048A8DED25
:1042F000050A36F0F7FC06B0BDEC028B70BD00007D
:104300002DE9F04F2DED028B00F52F568DB00546AF
:1043100088463046002114F0E5F828B130460021E7
:1043200014F0C0F8002852D1FF274FF6FF7428463A
:104330000AF0ECFC05F5365305F50760D3F800B03C
:1043400042F6845355F803A042F6885355F803907B
:104350002BF0CCFA30460021B0EE408A14F0D6F8AB
:10436000DFED257ACDF810B028EE278A20EE270A57
:10437000BCEEC87AFCEEC07A17EE103AADF81C30ED
:1043800017EE903AADF81E300023ADF82230ADF8AC
:104390002430ADF82630ADF82830ADF82A30ADF82D
:1043A0002C307C221F23019200934046012104AA55
:1043B000CDF814A0CDF81890ADF820408DF82E70EF
:1043C00036F090FC0DB0BDEC028BBDE8F08F002103
:1043D000304613F0D7FF0021C7B2304614F0BCF8C6
:1043E000DFED067A20EE270ABDEEC00A8DED030A46
:1043F000BDF80C409BE700BF00007A440000C842B3
:104400002DE9F0412DED068B42F6747342F6B82784
:10441000C358DFED3C9A9FED3C8A0AEE103A42F613
:1044200078730446C358C05909EE103A03688CB03B
:104430009B688846984707EE900AF8EEE77AE059BD
:1044400067EEA97A0368FDEEE77A1B69CDED037A82
:10445000BDF80C60984707EE900AF8EEE77A04F58D
:104460003C5367EEA97AE059FDEEE77AB8EECAAAA6
:10447000CDED037AD3ED057ABDF80C5042F6BC338E
:10448000F4EEC87AE35808EE903AF1EE10FA04F52B
:104490002E53B8EEC99AF8EEE88A48BFB0EE678AA4
:1044A000D3ED0C7A03682AEE29AA29EE299A68EE40
:1044B000A98ADFED169A5B6967EEA99A9847FCEE28
:1044C000C87AB72217EE903AADF82C301A23019231
:1044D000009340463E2105AA8DED05AA8DED069A72
:1044E000CDED078ACDED089A8DED090AADF828606B
:1044F000ADF82A5036F0F6FB0CB0BDEC068BBDE8EB
:10450000F08100BF0AD7233C00FF7F470000C8426C
:1045100070B52DED048B88B00C46064653F016FF9F
:104520000546042038F0E0FB09EE900A132038F02D
:10453000DBFB09EE100A462038F0D6FB08EE900AA5
:10454000152038F0D1FB08EE100A06F52D502C305E
:1045500039F0C0FDDFED286A9FED287A8DF81D0047
:10456000F8EEE99AB8EEC99AC9EEA69AED22019240
:104570002046222102AA029589EE269A69EE879AA0
:1045800029EE079AFDEEE97AF8EEE88A17EE903AFE
:10459000FDEEC97AADF80C3017EE903ADFED187ADF
:1045A000ADF80E30C8EEA78A68EE878AFDEEE87A8D
:1045B00017EE903AF8EEC87AADF8103087EEA68A7A
:1045C00028EE078AFDEEC87A17EE903AADF8123061
:1045D0000023ADF81430ADF81630ADF81830ADF852
:1045E0001A308DF81C301623009336F07BFB08B090
:1045F000BDEC048B70BD00BF00A08C4500401C4684
:104600000000C8427FB500F5C95410340E4620465C
:10461000002139F027FB20B92046012139F022FB87
:10462000E0B12046002139F007FBA8B1A56A204679
:10463000012139F001FB08B1A36B00E0084B0393A3
:10464000CF220823019200933046E2210DEB0302B2
:10465000029536F047FB01E0014DE8E704B070BD7C
:10466000000080BFF0B52DED028B0D468BB01F46CC
:10467000B0EE408A144602B3084637F0C9FA06463F
:10468000284636F0EBFA1836864216DAA268E36856
:1046900020696168079208936222192324680590B3
:1046A0000691019200932846C22103AA03948DED3E
:1046B000048A8DF8247036F015FB0BB0BDEC028B2C
:1046C000F0BD000070B500F50F53183304461B7998
:1046D000002B42D090F891396FF3000380F89139A4
:1046E00053F034FE1D4A1368C31AB3F57A7F0546AA
:1046F0000BD904F50E56383610600021304633F0E1
:104700008FF93046032133F08BF9154A1368EB1A01
:10471000142B0DD904F50E5638363046156033F09B
:10472000EDFF304634F0C4FF04F5116027F080FA45
:104730000C4A136841F28831EB1A8B4207D904F511
:104740000E50156038300621074A31F0D9FB94F835
:10475000913943F0010384F8913970BDF4120020BF
:1047600030130020F0120020749D0B0800F50E504D
:10477000383034F09DBF000000F50E50383033F073
:10478000BDBF000000F50E50383001F0C1BB000085
:1047900000F50E50383035F069BB000070B50446A6
:1047A00000F5E05008300D460FF008FFB4F8E43093
:1047B000DB0706461CD504F564501C3008F02AFBC4
:1047C00040B143F66413E05803689B68984700F1D2
:1047D0002C0202E004F50752283296ED000ADFEDC4
:1047E0003D7A20462946012320EE270AFFF73AFFAB
:1047F000B4F8E43098071CD504F564501C3008F078
:1048000009FB40B143F66413E0580368DB6898473E
:1048100000F12C0202E004F50A521C3296ED010A66
:10482000DFED2C7A20462946022320EE270AFFF7E7
:1048300019FFB4F8E43059071CD504F564501C3056
:1048400008F0E8FA40B143F66413E05803681B69C6
:10485000984700F12C0202E004F50B52283296ED45
:10486000020ADFED1C7A20462946032320EE270AA0
:10487000FFF7F8FEB4F8E4301A070DD596ED020AFA
:10488000DFED147A04F50C52204629463432052314
:1048900020EE270AFFF7E6FEB4F8E430DB0617D572
:1048A00042F66473E35C042B12D104F540503430BB
:1048B00050F0E2FE96ED020ADFED067A0246294646
:1048C0002046062320EE270ABDE87040FFF7CABE47
:1048D00070BD00BFE02E654210B52DED028B00F5D6
:1048E000E05088B008300C460FF004FFF0EE407A3C
:1048F0008DED020ACDED030AB1EE600AF1EE670A12
:104900008DED041A9DF08AF902A8B0EE408A23F0DA
:1049100035FBDFED0B7A049B079328EE278A0C23E7
:104920000122019200932046A82105AA8DED058A57
:104930008DED060A36F0D6F908B0BDEC028B10BD3D
:10494000E02E6542F8B504460E4633F053FB08B13D
:10495000002532E19A4B1B68186C03689B699847E5
:10496000054648B997482AF0B3FFC72804D835F060
:10497000CFF90123037620E1F31E2A2B00F21681E2
:10498000DFE813F02B001401470014011401140197
:10499000140114011401140114011401140114016F
:1049A00014015D00140114017300140114011401B9
:1049B000830014011A01140114019300A300B9002B
:1049C0001401140114011401C9001401DF001401C1
:1049D0001401EF001401FF000F01207E37F018F9D9
:1049E0000546207E36F03AF91E358542B0DA217E42
:1049F0007548FFF785FC207E37F00AF90546207ED2
:104A000036F02CF905358542A2DA204631F034FE25
:104A1000D2E06D4E42F68433F35C002B00F0CC8084
:104A2000207E37F0F5F80546207E36F017F9193567
:104A300085428DDA3046217EFFF7E2FCBCE0624F12
:104A400097F9B150012D40F0B780207E37F0E0F8A3
:104A50000646207E36F002F915368642BFF678AF5C
:104A60003846217EFFF754FDA7E0207E37F0D0F8CE
:104A70000546207E36F0F2F807358542BFF668AF6E
:104A80005148217E05F0EEFB96E0207E37F0C0F81D
:104A90000546207E36F0E2F80B358542BFF658AF6A
:104AA0004948217EFFF718FF86E0207E37F0B0F8F6
:104AB0000546207E36F0D2F80D358542BFF648AF68
:104AC0004248217E39F052FC76E042F625333E4AD8
:104AD000D356002B70D0207E37F09AF80546207E02
:104AE00036F0BCF821358542BFF632AF2046384952
:104AF00033F060F860E0207E37F08AF80546207ECB
:104B000036F0ACF829358542BFF622AF2F48217E1A
:104B100039F040FC50E02C4E42F68433F35C002B1D
:104B20004AD0207E37F074F80546207E36F096F89D
:104B300018358542BFF60CAF3046217EFFF72EFEBA
:104B40003AE0207E37F064F80546207E36F086F89D
:104B500007358542BFF6FCAE1B48217EFFF752FDAC
:104B60002AE0207E37F054F80546207E36F076F8AD
:104B700025358542BFF6ECAE1648217E44F0FCFD9B
:104B80001AE0207E37F044F80546207E36F066F8BD
:104B90000F358542BFF6DCAE0B48217EFFF786FB62
:104BA0000AE0217E0C4850F01BFD05E0204631460E
:104BB000BDE8F84034F0F0BA01252846F8BD00BF42
:104BC000104E0020A81B002038130020C44B0020EA
:104BD000543E0020D84400206C43002038B5054DD9
:104BE00042F25D3401232B5531F082FB00232B551B
:104BF00038BD00BF3813002038B5CB68F7EE000A87
:104C000000EE103A05460C4620F0FEF828B928467A
:104C10002146BDE8384033F0F3BF044809F0BAFD3F
:104C2000002814BF0020042038BD00BF3813002026
:104C300070B506460D4614461146054845F030FD50
:104C4000304629462246BDE8704031F075BA00BFB3
:104C50008C4A0020F0B58B8BB32B85B00C4602D06C
:104C6000C02B6ED009E10B68F7EE000A00EE103A97
:104C700020F0CAF868B118F07DF990F8BC316C21C9
:104C800003F0030301FB030172318E4803F07CFA49
:104C90004EE023689FED8C7A07EE903AF0EEE77ACB
:104CA000F4EEC77AF1EE10FA50D5206958B963696D
:104CB0004BB9A36907EE903AF0EEE77AF4EEC77AC3
:104CC000F1EE10FA42D494F820301BB15A1F012A99
:104CD00000F2D680616920F033FCB8B30C2201A841
:104CE00000219FF0E3FC2369029363690393A369A6
:104CF0009FED767A07EE903A67EE877AFDEEE77AD7
:104D000017EE903AC3F307228DF80530C3F307433B
:104D10008DF8073094F820308DF80620032B00F032
:104D2000B380062B00F0B080664801A903F0E6F9D5
:104D300011F02CF890F83C3143F0020380F83C313C
:104D400099E00869496920F0FBFB08B90420B6E046
:104D500001AD284600210C229FF0A8FC2369029394
:104D600063690393A3699FED597A07EE903A67EE62
:104D7000877A9FED577AF0EEE76AF4EEC76AF1EEB4
:104D800010FAE3DAFDEEE77A17EE903AC3F3072262
:104D90008DF80530C3F307438DF8073094F82030C1
:104DA0008DF80620062B04D19DF8043043F0010352
:104DB00005E00B2B06D19DF8043043F008038DF875
:104DC000043001E0052BC1D1E3689FED3F7A4148F3
:104DD00007EE903AF0EEE77AF4EEC77AF1EE10FAC9
:104DE00058BF9DF8043029465CBF43F004038DF89A
:104DF000043020F0F7FB0028A8D16368314F07EE9C
:104E0000903AFDEEE77A17EE903A13F0010F04D1D5
:104E100042F68433FB5C0F2B98D12A4C0F2120469D
:104E200002220BF03FFB95E807002B4B83E80700BD
:104E300043F62C06BA5DD3071AD543F604036FF385
:104E40000002E1584B788D78C978A25543EA0523D2
:104E500043EA014343F3170343F62D0103EB2020FC
:104E60001E4B6054C0F30721C0F30740597098707F
:104E7000144803F001F9002021E031F00DF91EE0A3
:104E8000032B7FF463AF25E710F080FF90F83C31EF
:104E9000DA077FF55BAF0B4A41F63853D358019AD6
:104EA00043F3172303EB2223C3F307228DF80530C6
:104EB000C3F307438DF806208DF8073034E705B0BB
:104EC000F0BD00BF38130020000000340000C842CD
:104ED000FEFFFF4A4C4B0020644B0020654B002036
:104EE00030B58B8BCD2B8BB00C4600F0D7801AD809
:104EF000B22B51D009D8142B64D0162B69D0112BAA
:104F000040F08E82C0480C215EE0BD2B00F018817D
:104F100003D8B32B00F0908182E2BF2B00F01A81FE
:104F2000C92B67D07CE2D42B00F00A8209D8D02BA1
:104F300000F01882D12B00F04582CF2B40F0708218
:104F400034E1B3F5967F00F0D0800FD8DF2B40F02E
:104F500067820B68AD4800EE103A4B6800EE903A5D
:104F60008B6801EE103A3FF035F83FE0B3F5C87FAB
:104F700000F0BE8040F6B832934240F051820B6898
:104F8000A34807EE903AFCEEE77ACDED037A9DF860
:104F90000C1007F063F829E042F684339A4AD35C98
:104FA0000A2B03D00E3B012B00F24082204605A9BC
:104FB00023F008FD002840F03982934805A903F04A
:104FC000A1FE04E090480B2102220BF06BFA0020B6
:104FD0002DE28B698C4943F6D0128A5C002A00F0DE
:104FE00025828B4800EE103A07F07CFD002800F087
:104FF0001D82ECE70B6900EE103A4B6900EE903A27
:1050000020F082FA002800F011822369DFED816A26
:1050100007EE103A27EE267AFDEEC77A9FED7E7AEC
:10502000CDED067A636917EE902A07EE903A67EEA7
:10503000A67AFDEEE77ACDED077AA16917EE903AF0
:1050400007EE901A67EE877AFDEEE77A17EE904A40
:1050500044F31704C4F307218DF81610C4F3074175
:105060008DF817108DF8154067497AB973B96CB986
:1050700043F696056948495D39F03AF90428A6D106
:10508000614B6648595D39F041F9A0E743F6960354
:105090006248C95C05AA39F06FF998E7A0685A4AD6
:1050A00007EE900A43F69603FDEEE77AD15C63685B
:1050B0002268CDED007AA06907EE900AFCEEE77A4F
:1050C000CDED037A07EE902AFDEEE77A9DF80C000D
:1050D000019017EE902A07EE903AFDEEE77A4F48DE
:1050E00017EE903A39F030F971E747480A216BE73B
:1050F0000B68F7EE000A00EE103A1FF085FE70B163
:105100006368DFED470A00EE103A1FF07DFE80F085
:1051100001020121D2B23C480BF090FC66E7236803
:105120009FED407A07EE903AF0EEE77AF4EEC77A18
:10513000F1EE10FA40F1788133480BF097FB55E718
:10514000394824F01FFB002800F070812E480A2106
:1051500000223AE72C4D42F66473EB5C042B40F0DE
:1051600065810B689FED2F7A304807EE903AF0EE9C
:10517000E76AF4EEC76AF1EE10FA5FBF9FED267A98
:1051800067EE877A42F6F463FDEEE77A5CBF17EECE
:10519000902AEA5050F07CFB002800F0478142F64C
:1051A000F063EA5C6FF3C302EA5410E7164804F0B8
:1051B00061FF20B934F0ACFD05211D4AFBE02368F6
:1051C00007EE903AFCEEE77ACDED037ABDF80C10CD
:1051D000012906D002D3022908D027E10A4800217C
:1051E00000E00948032204F059FFFFE606480021C9
:1051F00004F04CFF002800F0198134F089FD0521EE
:105200000C4A30F07DFEE2E63813002080140020C6
:10521000544C00208096184B0000C842C44B00201C
:1052200000D03A4500000034C04200206C4300200A
:10523000859D0B089A9D0B080B68F7EE000A00EE9F
:10524000103A1FF0E1FD68B117F094FE90F8BC3100
:105250006C2103F0030301FB03017231754802F076
:1052600093FF64E02368DFED747A07EE103AB0EE46
:10527000C77AB4EEE77AF1EE10FA40F1D7802369ED
:1052800000EE103AB0EEC07AB4EEE77A6369F1EE60
:1052900010FA00EE903A13D5B0EEE07AB4EEE77A69
:1052A000F1EE10FA0CD5A3699FED637A07EE903A00
:1052B000F0EEE77AF4EEC77AF1EE10FA00F1B6807C
:1052C00020F022F9002800F0B18000210C2205A86E
:1052D0009FF0ECF92369DFED596A564807EE103A62
:1052E00027EE267A05A9BDEEC77A8DED067A6369A9
:1052F0009FED537A07EE903A67EEA67AFDEEE77AD5
:10530000CDED077AA36907EE903A67EE877AFDEE56
:10531000E77A17EE903AC3F307228DF81530C3F3FE
:1053200007438DF816208DF8173002F0E7FE10F0D5
:105330002DFD90F83C3143F0020380F83C3146E605
:105340000B689FED3D7A3B4807EE903AF0EEE77A26
:10535000F4EEC77AF1EE10FA54BF0121002104F0F7
:10536000B7FB34E60B6807EE903AFCEEE77ACDED3A
:10537000037ABDF80C10012906D002D3022907D008
:1053800054E03048002100E02E4847F023FA1EE6A2
:10539000284B43F230029A5C520704D534F0B8FC33
:1053A0000521294A07E043F21C029B5633B934F029
:1053B000AFFC264A052130F0A3FD37E01D4806F07A
:1053C000C5F813E62368E568017E214806EE903AA9
:1053D000636807EE103AA36807EE903AFCEEE77AAE
:1053E000FCEEE66ACDED037ABDF80C30009323693C
:1053F00007EE903AFCEEE77ABCEEC77ACDED037A81
:105400009DF80C30CDED036A9DF80C208DED037AEC
:10541000019300EE105A9DF80C3005F0A7FB06E052
:10542000214633F0E9FC02E0032000E004200BB049
:1054300030BD00BF38130020000000348096184BA8
:105440000000C84254430020AF9D0B08CA9D0B08C2
:10545000544C00202DE9F0472DED048B8A7A4B7ACD
:1054600043EA0223CA7A43EA0243872BAAB00546DD
:105470000C462BDC862B80F21185542B00F04184E6
:1054800010DC452B00F02F8104DC002B00F01B8288
:1054900000F0ECBC462B00F0D980522B00F0728358
:1054A00000F0E4BC5A2B00F01B8204DC562B00F009
:1054B000868400F0DBBC6D2B00F04083842B40F031
:1054C000D584D04829F01CFD00F0E8BCA62B00F0E4
:1054D000358316DC9D2B00F028830CDC9C2B40F0E0
:1054E000C58443F69603C84AC848D15C224638F0C2
:1054F0001BFF00F0D3BCA02B17D0A12B5FD000F076
:10550000B5BCF62B00F0AC8407DCC82B00F098800B
:10551000F32B00F0BE8300F0A9BCA3F51C53113B94
:10552000022B40F29D8400F0A1BCCE780C220C2E00
:105530004FF000011AA828BF0C269FF0B7F804F11D
:105540000C01B14C1AA83246FCF744F894F95C30CF
:105550001BB128460421AE4A08E09DF8732094F957
:105560005D309A4206D0AB4A2846042131F0B4FCA3
:1055700000F094BCDDED1A8A9DED1B8AB0EE680A3E
:10558000F0EE480A1FF0C0FF18B928460421A24ACD
:10559000ECE7DFEDA27A9DF8722068EEA78A28EE8C
:1055A000278AFDEEE88ABDEEC88A204615A9CDED12
:1055B000158A8DED168A04F093FC00F06FBCCA7852
:1055C000914F032A4FF0000328BF032215A80C3186
:1055D000ADF854308DF85630FBF7FCFF9DF856605F
:1055E00097F95D309E42BEDA1AA83946324604F079
:1055F00055FC9DED1A7ADFED8A6ADDED1B7A287E77
:1056000097F85D30227AE1796272B8EEC77AF8EEE7
:10561000E77A27EE267A67EEA67A17EE105A25600B
:1056200017EE905AE3724E220C2321726560A67227
:10563000A02101920093224635F054FB00F02EBCCD
:105640007249224631F01CFC00F028BC6E4FCA792A
:10565000B7F928309A4240F0218452F077FEE6787C
:10566000262E28BF26260546002126221AA89FF0AE
:105670001DF804F10C0132461AA8FBF7ABFF00201D
:10568000BDF968102A4637F005F80120BDF96A1007
:105690002A4636F0FFFF0220BDF96C102A4636F08C
:1056A000F9FF0320BDF96E102A4636F0F3FF0420FF
:1056B000BDF970102A4636F0EDFF0520BDF97210D5
:1056C0002A4636F0E7FF0620BDF974102A4636F068
:1056D000E1FF0720BDF976102A4636F0DBFF42F6DF
:1056E0009833FD50DAE3484DCA79B5F928309A422B
:1056F00040F0D483CE780B2E28BF0B2600210B223E
:105700001AA89EF0D3FF32461AA804F10C01FBF749
:1057100061FF9DF87220B5F926309A4240F0BE83B1
:1057200052F014FEBDF96A3047F6FF729342044608
:105730001ED0D5F80019B1F90420B1F9081007EE10
:10574000902A03F57A738A1A5343F8EEE76A07EE54
:10575000903AB8EEE77ADFED347AC7EE277A76EE44
:10576000A77AFDEEE77ACDED077ABDF81C1000E0D0
:105770000021BDF9683047F6FF7293421ED0D5F87C
:105780000409B0F90420B0F9080007EE902AC3F527
:105790007A73821A5343F8EEE76A07EE903AB8EE4E
:1057A000E77ADFED217AC7EE277A76EEA77AFDEE6B
:1057B000E77ACDED077ABDF81C7000E00027BDF94F
:1057C0006C3047F6FF72934230D0D5F80809B0F933
:1057D0000420B0F9080007EE902A821A5343F8EE2D
:1057E000E76A07EE903AB8EEE77ADFED0E7AC7EE99
:1057F000277A76EEA77AFDEEE77ACDED077ABDF847
:105800001C8015E0B02B002038130020C44B002072
:10581000E09D0B08F99D0B08099E0B088096184B1C
:1058200095BFD63300007A440000FA444FF00008D8
:10583000BDF96E3047F6FF7293421ED0D5F80C09C1
:10584000B0F90420B0F9080007EE902A03F57A7346
:10585000821A5343F8EEE76A07EE903AB8EEE77A19
:105860005FED0F7AC7EE277A76EEA77AFDEEE77A3C
:10587000CDED077ABDF81C6000E0002695F8E00841
:105880000138C0B209B2224636F004FF95F8E108AB
:105890000138C0B239B2224636F0FCFE95F8E30872
:1058A0000138C0B20FFA88F1224636F0F3FE95F8BF
:1058B000E2080138C0B231B2224636F0EBFE42F6C1
:1058C0009833EC50EAE2A34CCA79B4F928309A42F2
:1058D00040F0E48252F03AFD42F69833E050DDE2C7
:1058E0009C4D95F9B130012B40F0D882CE78382EFE
:1058F00028BF3826002138221AA89EF0D7FE04F1CE
:105900000C0132461AA8FBF765FE229F239E3846FB
:1059100031461FF015FE002800F0C0828E4C1AABF5
:105920000DF1A00E1A4603CA72452060616013464D
:1059300004F10804F6D10DF1300A00210C22504682
:105940009EF0B4FE4FF00A090D97249F97FBF9F3E0
:10595000C3F307228DF83130C3F307438DF833309A
:10596000BDF996309FED7D0A8DF8322007EE103A92
:10597000BDF998300E9607EE903ABDF99430754C0B
:105980009FED778A06EE903AB8EEC77AF8EEE66AAF
:10599000F8EEE77A0DF13C084046CDED0F6A8DED4B
:1059A000107ACDED117A22F0C1F9404622F0E6FAE4
:1059B00042F6D05220EE000ADFED6A7AAB5CB6EE1A
:1059C000007AE0EE077A43F00303AB54664BDDE95F
:1059D0001A01C3ED007A4FF47A720023FBF75AFAEA
:1059E0000026CDE90001032204F6B8103146CDF8B7
:1059F00008A0CDF80C80CDF81090059616F0D6F8DA
:105A00001F9B1293209B1393219B1493BDF99A30F3
:105A1000DFED566A564807EE103AB8EEC77ABDF980
:105A20009C3027EE267A314627EE087A12AA8DEDB1
:105A3000157A07EE103ABDF99E3007EE903AB8EEAF
:105A4000C77AF8EEE77A27EE267A67EEA67A27EE8F
:105A5000087A67EE887A8DED167ACDED177A1DF00B
:105A60007BFF15AA314642481DF054FF07EE907A9D
:105A7000B8EEE70A04F5456020EE080A11F0FCFFD5
:105A80009DED1C9ADDED1D8A9DED1E8A04F6645085
:105A90003146B0EE490AF0EE680AB0EE481A15F049
:105AA00009FA04F664500121B0EE490AF0EE680AE2
:105AB000B0EE481A15F0FEF9D5ED0B7AF5EEC07A86
:105AC000F1EE10FA40F3EA812A4BDFED2B9A93EDC9
:105AD000007A39EE477A67EEA97AB0EEC77AB4EE6B
