:020000040800F2
:1000000000040020E1010008E3010008E30100080A
:10001000E3010008E3010008E3010008E301000830
:10002000E3010008E3010008E3010008992D00083E
:10003000E3010008E3010008E3010008E301000810
:10004000E3010008E3010008E3010008E301000800
:10005000E3010008E3010008F92F0008253000083B
:10006000513000087D300008A9300008E301000885
:10007000E3010008E3010008E3010008E3010008D0
:10008000E3010008E3010008E3010008E3010008C0
:10009000E3010008E3010008E3010008D53000088F
:1000A000E3010008E3010008E3010008E3010008A0
:1000B000152E0008E3010008E3010008E301000831
:1000C000E3010008E3010008E3010008E301000880
:1000D000E3010008E3010008E3010008E301000870
:1000E0003D310008E3010008E3010008E3010008D6
:1000F000E3010008E3010008E3010008E301000850
:10010000E3010008E3010008E3010008E30100083F
:10011000E3010008E3010008E3010008E30100082F
:10012000E3010008E3010008E3010008E30100081F
:10013000E3010008E3010008E3010008E30100080F
:10014000E3010008E3010008E3010008ED240008D2
:10015000E3010008E3010008E3010008E3010008EF
:10016000E3010008E3010008E3010008E3010008DF
:10017000E3010008E3010008E3010008E3010008CF
:10018000E3010008E3010008E3010008E3010008BF
:10019000E3010008E3010008E3010008E3010008AF
:1001A000E3010008E3010008E3010008E30100089F
:1001B000E3010008E3010008E3010008E30100088F
:1001C000E3010008E3010008E3010008E30100087F
:1001D000E3010008E3010008E3010008E30100086F
:1001E00002E000F000F8FEE772B6394880F30888B4
:1001F000384880F3098838484EF60851CEF200019D
:10020000086040F20000CCF200004EF63471CEF2ED
:1002100000010860BFF34F8FBFF36F8F40F2000003
:10022000C0F2F0004EF68851CEF200010860BFF334
:100230004F8FBFF36F8F4FF00000E1EE100A4EF6C4
:100240003C71CEF200010860062080F31488BFF3F1
:100250006F8F01F013FE02F035FD4FF055301F494E
:100260001B4A91423CBF41F8040BFAE71C49194A6A
:1002700091423CBF41F8040BFAE71A491A4A1B4B5A
:100280009A423EBF51F8040B42F8040BF8E70020F5
:100290001749184A91423CBF41F8040BFAE701F0B4
:1002A000F1FD02F06BFD144C144DAC4203DA54F82E
:1002B000041B8847F9E700F03FF8114C114DAC42A0
:1002C00003DA54F8041B8847F9E701F0D9BD0000B0
:1002D000000400200024002000000008000000208E
:1002E0000004002068350008002400202824002095
:1002F0002824002018340020E0010008E001000854
:10030000E0010008E00100082DE9F04F2DED108A12
:10031000C1F80CD0C3689D46BDEC108ABDE8F08FD3
:10032000002383F311882846A047002001F066FAD5
:1003300001F016FA00DFFEE71A4B6FF0790270B594
:1003400000241A700F225C709C70DC701C715C7150
:100350009C71DC711C725C729A72DC7201F05CFD43
:10036000064601F085FD054650B90F4B9E4217D059
:1003700001339E4241F2883412BF05460024012514
:10038000002001F04FFD0DB100F0B4F800F0DCFCEE
:1003900000F0C0FB204600F00BF900F0ABF8F9E7E5
:1003A0000446EDE728240020010007B008B500F05E
:1003B00053FBA0F120035842584108BD07B5054B37
:1003C00002211B88ADF8043001A800F093FB03B0B4
:1003D0005DF804FB38320008064991F8243033B147
:1003E00000230822086A81F8243000F0B5BB012000
:1003F000704700BF482400202DE9F84F234C94F8A3
:1004000024300546884617468BBB2E46DFF87C9085
:10041000002F38D094F824A0BAF1000F05D1202283
:10042000FF214846266200F07DFCCAF10805BD4266
:1004300028BF3D465FFA85FBAD0041462A4604EBE6
:100440008A0000F045FC94F82430A7EB0B079B448E
:100450005FFA8BFBBBF1080F2E44A844FFB284F86F
:1004600024B0D5D1FFF7B8FF0028D1D108E0266A23
:1004700006EB8306B042C9D0FFF7AEFF0028C4D117
:100480000020BDE8F88F0120BDE8F88F4824002047
:1004900010B5202383F311881248C3680BB101F013
:1004A00033FA0023104A0F484FF47A7101F0F0F943
:1004B000002383F311880D4C236813B12368013B9B
:1004C0002360636813B16368013B6360084B1B786A
:1004D00033B9636823B9022000F0F0FB3223636074
:1004E00010BD00BF342400209104000878290020AA
:1004F0007024002010B5254B254953F8042F0132F4
:1005000000D110BD8B42F8D1224C234B22689A4275
:100510003AD9224B9B6803F1006303F580339A427A
:1005200032D2002000F010FB1D4B0220187000F0AA
:10053000BDFB1C4B1A6C00221A64196E1A66196EE8
:10054000596C5A64596E5A665A6E5A6942F0800262
:100550005A615A6922F080025A615A691A6942F056
:1005600000521A611A6922F000521A611B6972B6B0
:100570000D4A0E4B13601B682268202181F31188FD
:100580009D4683F30888104710BD00BFFCFF00089C
:100590001C00010804000108FFFF000828240020B7
:1005A000702400200038024008ED00E0000001083F
:1005B0002DE9F04FB54C97B020228246FF210EA8BE
:1005C000A56800F0AFFBB24A1378A046A3B9B148C2
:1005D0000121C3601170202383F31188C3680BB11C
:1005E00001F092F90023AC4AAA484FF47A7101F065
:1005F0004FF9002383F31188DFF8BCB2BAF1000F82
:1006000001D0CBF800A0A54F00243C70CBF80440EB
:100610002646012000F04AFBBAF1000F00F0E0810D
:10062000DBF80030002B40F0DB8117B0BDE8F08F25
:100630000220FFF7BBFE002840F0D081984B1B88BA
:10064000ADF82430022109A800F054FAE1E74FF494
:100650007A7000F001FA031E0193EFDB0220FFF72E
:10066000A5FE81460028E9D0019B581E0428E5D844
:10067000DFE800F0030C0F12150016A8052340F860
:10068000343D042100F036FA4C4650E004217F4806
:10069000F8E704218348F5E704218348F2E71C24A6
:1006A000204600F053FA04340990042109A800F010
:1006B00021FA2C2CF4D1E7E7002EBFD0002CBDD0BE
:1006C0000220FFF773FE064610B901242646B5E75F
:1006D000012000F039FA0220387000F0E7FA002417
:1006E000E3B21846019300F03FFA814648B1019BFE
:1006F000184600F049FA01340028F1D134466B4B1A
:100700009DE7012302203B7000F0C6FA4D46D8F861
:1007100008309D4206D2284600F018FA0130EDD18B
:100720000435F4E700253D70CBF80450344600F062
:1007300001FBFFF743FE4EE1002E3FF47FAF002C9C
:100740003FF47CAF0220387000F0B0FA322000F0A5
:1007500083F9041EB9DB14F00306B6D1D8F80820DB
:100760002B199342B1D8B4F5807FAED8DFF8409111
:10077000A6420CDA4FF47A7000F06EF90390039BF6
:10078000002BA2DB039B06F809300136F0E7C820F6
:10079000FFF70CFE0646002897D01F2D11D8C5F193
:1007A0002009A14528BFA1460EAB25F003004A460B
:1007B0003F49184400F08CFA4A46FF213C4800F0BB
:1007C000B1FA4FEAA4095FFA89F239492846FFF7DE
:1007D00013FE0446002891D005EB89050646A6E7DE
:1007E0000220FFF7E3FD00283FF428AFFFF7F4FDF8
:1007F00000283FF423AF4FF0000AD146D8F8083064
:100800009A453CD2BAF11F0F1CD80E9B013319D068
:100810002AF0030316AA134453F8203C09932549F0
:100820004B68A3B1002209A8135C83EA0903DBB279
:10083000013251F82330042A83EA1929F4D10AF14C
:10084000040ADBE7504600F081F90990E7E71A4611
:10085000082012F0010F4FEA52021FBF82F06D42D2
:1008600082F4380282F4034282F020020138F0D18F
:1008700041F823200133B3F5807FE8D1D2E716A8F1
:10088000042140F8489D00F035F950E72824002065
:1008900074250020342400209104000870240020D6
:1008A0003A3200082C240020302400203C3200087A
:1008B00074240020782500207829002016A8002321
:1008C00040F8343D642100F0F1F800287FF4B6AE22
:1008D0000220FFF76BFD00283FF4B0AE099800F04E
:1008E00065F916AB43F8440D04211846CBE716A86A
:1008F000002340F8343D642100F0D8F800287FF44C
:100900009DAE0220FFF752FD00283FF497AE0998F4
:1009100000F05AF916AB43F8400DE5E70220FFF767
:1009200045FD00283FF48AAE00F054F916AB43F8B9
:100930003C0DD9E70220FFF739FD00283FF47EAED9
:1009400009A9142000F04CF9814616A8042140F8AA
:10095000389D00F0CFF8494609A894E74FF47A7023
:10096000FFF724FD00283FF469AEFFF735FD0028AE
:100970003FF4C5AE0E9B01330CD008220EA9002017
:10098000FFF73AFD00283FF4BAAE2022FF210EA85F
:1009900000F0C8F9FFF712FD2E4800F035FF44E6DD
:1009A00016A8002340F8343D642100F07FF80028A9
:1009B0007FF444AE0220FFF7F9FC00283FF43EAE7E
:1009C000FFF7FCFC41F2883000F01EFF099800F0B0
:1009D000E5F900F0AFF94FF0000A1AE60646A6E680
:1009E000002000F039F80390039B002BFFF614AEB3
:1009F000012000F051F9039B213B122B3FF609AE79
:100A000001A252F823F000BF310600084F0600088B
:100A1000B9060008130600081306000813060008AC
:100A20003907000813060008E1070008BD080008A0
:100A3000EF0800081D090008130600083509000822
:100A4000130600085D0900082F07000813060008B8
:100A5000A1090008A086010037B5114B1A780132B0
:100A6000D2B20024012A01468DF8074011D80D4862
:100A700003681D6A4FF47A734B4301220DF107019D
:100A8000A847012805D1084B9DF807001C7003B04A
:100A900030BD4FF4FA7000F0B7FE4FF0FF30F6E7CC
:100AA00000240020C82900208429002038B50E4BDE
:100AB0001A780132D2B2012A05460ED80B480368D3
:100AC0001C6A4FF47A734B4304222946A04704283A
:100AD00003D1074B0020187038BD4FF4FA7000F0B6
:100AE00093FE4FF0FF3038BD00240020C8290020BD
:100AF0008429002030B4054C2368DD69044B0A4684
:100B0000AC460146204630BC604700BFC8290020E3
:100B1000A086010070B501F0C1F8094C094E2070A3
:100B2000002530682378834208D901F0B1F8336892
:100B300005440133B5F5803F3360F2D370BD00BF8B
:100B4000852900208029002001F052B900F10060C1
:100B500000F580300068704700F10060920000F5F9
:100B6000803001F0DDB80000054B1A68054B1B789A
:100B70009B1A834202D9104401F08AB800207047C2
:100B8000802900208529002038B5074D04462868B3
:100B9000204401F085F828B928682044BDE8384091
:100BA00001F096B838BD00BF8029002010F0030383
:100BB00008D1B0F5007F05D800F10050A0F508403D
:100BC0000068704700207047014BC058704700BF55
:100BD000107AFF1F014B1868704700BF002004E027
:100BE00070B52A4B1C68C4F30B03240C63B140F2AC
:100BF0001342934231D040F2194293422FD040F237
:100C0000214293422DD10323214A0C2505FB0323C6
:100C10005D6893F9082042F201039C4224D0B4F5A8
:100C2000805F23D041F201039C4221D041F20303B3
:100C30009C421FD041F207039C4208BF3122441E50
:100C40000C44013D0B46A3421ED215F9016F581CFE
:100C500096B1034600F8016CF5E70123D4E70223BF
:100C6000D2E73F220B4DD6E73322E3E74122E1E70B
:100C70005A22E4E75922E2E72C2584421D7001D96B
:100C8000981C5A70401A70BD1846FBE7002004E01B
:100C90004C32000840320008022802BF024B4FF4D9
:100CA00000129A61704700BF00040240022802BF90
:100CB000014B20229A61704700040240022801BFC4
:100CC000024A536983F020035361704700040240D5
:100CD00010B50023934203D0CC5CC4540133F9E730
:100CE00010BD000030B5441E14F9010F0B4660B171
:100CF00093F90050854201F1010106D11AB993F927
:100D00000020801A30BD013AEEE7002AF7D11046E4
:100D100030BD000002460346981A13F9011B002952
:100D2000FAD1704702440346934202D003F8011BF4
:100D3000FAE77047024B1A78024B1A70704700BFEF
:100D4000842900200024002038B5104D104C28467E
:100D500000F0A2F82146284600F0CAF823680D48A2
:100D60005A6DD2F8043843F00203C2F8043800F098
:100D70004BFD0949206800F0C7F923685A6DD2F885
:100D8000043823F00203C2F8043838BDC829002013
:100D90001833000840420F00683300087047000015
:100DA000026843681143016003B1184770470000AF
:100DB00013B5446BD4F894341A681178042915D10A
:100DC000217C022912D11979128901238B40134207
:100DD0000CD101A904F14C0001F0EEFDD4F89444CB
:100DE000019B21790246206800F0DAF902B010BDBB
:100DF000143001F071BD00004FF0FF33143001F0EA
:100E00006BBD00004C3001F043BE00004FF0FF33DB
:100E10004C3001F03DBE0000143001F03FBD000039
:100E20004FF0FF31143001F039BD00004C3001F0BB
:100E30000FBE00004FF0FF324C3001F009BE000041
:100E4000D0F8942438B5136819780429054601D0E0
:100E5000012038BD017C0229FAD112795C89012078
:100E600090400440F4D105F1140001F0D1FC024699
:100E70000028EDD0D5F894544FF480732868697930
:100E800000F07CF9204638BD406BFFF7D9BF000069
:100E900000207047704700007FB5124B03600023AD
:100EA00043608360C360012502260F4B057404462E
:100EB0000290019300F18402294600964FF480735A
:100EC000143001F081FC094B0193029400964FF419
:100ED000807304F52372294604F14C0001F048FDAB
:100EE00004B070BD9C320008890E0008B10D0008E6
:100EF0000B68202282F311880A7903EB8202906149
:100F00004A79093243F822008A7912B103EB82034D
:100F1000986102230374C0F89414002383F31188AA
:100F20007047000038B5037F044613B190F8543081
:100F3000ABB9201D01250221FFF732FF04F1140097
:100F400025776FF0010100F087FC84F8545004F11C
:100F50004C006FF00101BDE8384000F07DBC38BDA9
:100F600010B5012104460430FFF71AFF0023237750
:100F700084F8543010BD000038B504460025143004
:100F800001F03AFC04F14C00257701F009FD201D29
:100F900084F854500121FFF703FF2046BDE8384094
:100FA000FFF74EBF90F8443003F06003202B19D1B7
:100FB00090F84520212A0AD0222A4FF000030ED0B3
:100FC000202A0FD1084A82630722C26304E0064B3D
:100FD00083630723C3630023036401207047836393
:100FE000C363F9E70020704701240020D0F894344F
:100FF00037B51A681178042904461AD1017C0229F0
:1010000017D11979128901238B40134211D100F1B4
:101010004C05284601F084FD58B101A9284601F08D
:10102000CBFCD4F89444019B21790246206800F05F
:10103000B7F803B030BD000000EB8103F7B59C6941
:1010400005460E46F4B1202383F3118805EB86078D
:10105000201D0821FFF7A4FEFB685B691B684C3468
:1010600013B1204601F0B6FC01A9204601F0A4FC12
:10107000024648B1019B3146284600F091F8002312
:1010800083F3118803B0F0BDFB685A691268002A27
:10109000F5D01B8A013B1340F1D105F14402EAE788
:1010A000093138B550F82140DCB1202383F3118891
:1010B000D4F894241368527903EB8203DB689B69AC
:1010C0005D6845B104216018FFF76AFE294604F106
:1010D000140001F0A7FB2046FFF7B2FE002383F3C4
:1010E000118838BD7047000000F052BF0123037023
:1010F00000234360C36183620362C362436203638C
:10110000038143817047000038B50446202383F3F0
:10111000118800254160C56005614561856100F069
:1011200047FF0223237085F3118838BD70B500EBAB
:10113000810305465069DA600E46144618B1102244
:101140000021FFF7EFFDA06918B110220021FFF781
:10115000E9FD31462846BDE8704000F0F3BF0000CD
:10116000028902F001020281428902F001024281F9
:10117000002202614261826101F078B8F0B400EBB4
:1011800081044789E4680125A4698D403D43458178
:1011900023600023A2606360F0BC01F093B80000FC
:1011A000F0B400EB81040789E468012564698D408F
:1011B0003D43058123600023A2606360F0BC01F021
:1011C0000DB9000070B50223002504460370A0F895
:1011D0004C5080F84E5080F84F5005814581C560D5
:1011E00005614561856180F8345000F047FF636810
:1011F0001B6823B129462046BDE87040184770BDE2
:10120000436802781B6880F85020052202700BB1F9
:101210000421184770470000436890F850201B686D
:1012200002700BB1052118477047000090F8343068
:1012300070B5044613B1002380F8343004F1440241
:10124000204601F035F863689B6863BB94F844500E
:1012500015F0600615D194F8453005F07F0545EA94
:10126000032540F202339D4200F00E815BD8022D2F
:1012700000F0DC803FD8002D00F08780012D00F0C9
:10128000CF800021204601F06BFA0021204601F0BA
:101290005DFA63681B6813B1062120469847062350
:1012A00084F8343070BD204698470028CED094F89A
:1012B0004B2094F84A3043EA0223E26B934238BF52
:1012C000E36394F94430E56B002B4FF0200380F288
:1012D000FD80002D00F0EC80092284F8342083F397
:1012E00011880021E36BA26B2046FFF759FF002312
:1012F00083F3118870BDB5F5817F00F0B180B5F53D
:10130000407F49D0B5F5807FBBD194F84630012BA2
:10131000B7D1B4F84C3023F00203A4F84C30A663E4
:10132000E6632664C3E740F201639D421ED8B5F52B
:10133000C06F3BD2B5F5A06FA3D1B4F84430B3F57C
:10134000A06F0ED194F8463084F84E30204600F05D
:10135000EDFE63681B6813B1012120469847032303
:1013600023700023A363E3632364A0E7B5F5106F44
:1013700032D040F602439D4252D0B5F5006F80D185
:1013800004F14F03A363012324E004F14C03A3639E
:101390000223E36325648AE794F84630012B7FF447
:1013A00070AFB4F84C3043F00203B6E794F849202C
:1013B000616894F848304D6894F8471043EA022376
:1013C000204694F84620A84700283FF45AAF4368C7
:1013D000A3630368E363A4E72378042B10D12023DD
:1013E00083F311882046FFF7BBFE86F311886368FC
:1013F00084F84F601B68032121700BB12046984789
:1014000094F84630002BACD084F84F30042323707E
:1014100063681B68002BA4D0022120469847A0E7F0
:10142000374BA3630223E36300239DE794F848103E
:1014300011F0800F204601F00F010ED000F02AFFBE
:10144000012806D002287FF41CAF2E4BA363E06373
:1014500067E72D4BA363E56363E700F00DFFEFE75C
:1014600094F84630002B7FF40CAF94F8483013F01A
:101470000F013FF476AF1A06204602D501F084F939
:101480006FE701F077F96CE794F84630002B7FF4B2
:10149000F8AE94F8483013F00F013FF462AF1B062A
:1014A000204602D501F05CF95BE701F04FF958E7FF
:1014B000142284F8342083F311882B462A462946C7
:1014C0002046FFF75BFE85F3118870BD5DB11522E4
:1014D00084F8342083F311880021E36BA26B20464B
:1014E000FFF74CFE03E70B2284F8342083F31188C6
:1014F0002B462A4629462046FFF752FEE3E700BF67
:10150000CC320008C4320008C832000838B590F860
:1015100034300446152B29D8DFE803F03E2828286C
:1015200028283E28280B2939282828282828282830
:101530003E3E90F84B1090F84A20C36B42EA0122DD
:101540009A4214D9C268128AB3FBF2F502FB153530
:101550006DB9202383F311882B462A462946FFF7CD
:101560001FFE85F311880A2384F8343038BD142314
:1015700084F83430202383F3118800231A46194657
:101580002046FFF7FBFD002383F3118838BD036C71
:1015900003B198470023E7E7002101F0E1F80021BB
:1015A000204601F0D3F863681B6813B1062120467A
:1015B00098470623D8E7000090F83420152A38B55C
:1015C000044622D80123934040F6416213421DD1C4
:1015D00013F480150FD19B0217D50B2380F83430FC
:1015E000202383F311882B462A462946FFF7D8FD8E
:1015F00085F3118838BDC3689B695B682BB9036CA0
:1016000003B19847002384F8343038BD002101F03D
:10161000A7F80021204601F099F863681B6813B110
:101620000621204698470623EDE70000024B0022E2
:101630001B605B609A607047882900200023037458
:101640008268054B1B6899689142FBD25A68036017
:1016500042601060586070478829002008B5202338
:1016600083F31188037C032B05D0042B0DD02BB9F9
:1016700083F3118808BD436900221A604FF0FF33DD
:101680004361FFF7DBFF0023F2E790E80C001A60EC
:1016900002685360F2E70000002303748268054B80
:1016A0001B6899689142FBD85A68036042601060D9
:1016B0005860704788290020054B1969087418681C
:1016C00002681A605360186101230374FEF71CBEA0
:1016D0008829002030B54B1C87B005460A4C10D035
:1016E00023690A4A01A800F0D3F82846FFF7E4FF6F
:1016F000049B13B101A800F007F92369586907B0EA
:1017000030BDFFF7D9FFF8E7882900205D160008F3
:1017100038B50C4D41612B6981689A689142044645
:1017200003D8BDE83840FFF789BF1846FFF786FFAA
:1017300001232C61014623742046BDE83840FEF7A2
:10174000E3BD00BF88290020044B1A681B6990681C
:101750009B68984294BF0020012070478829002090
:1017600010B5084C236820691A6822605460012271
:1017700023611A74FFF790FF01462069BDE810400D
:10178000FEF7C2BD88290020826002220274002276
:10179000427470478368A3F17C0243F80C2C026901
:1017A00043F83C2C426943F8382C074A43F81C2C78
:1017B000C26843F8102C022203F8082C002203F818
:1017C000072CA3F1180070472103000810B520234F
:1017D00083F31188FFF7DEFF00210446FFF798FF2F
:1017E000002383F31188204610BD0000024B1B69C3
:1017F00058610F20FFF760BF88290020202383F362
:101800001188FFF7F3BF000008B50146202383F3DA
:1018100011880820FFF75EFF002383F3118808BDBD
:1018200049B1064B42681B6918605A6013604360F7
:101830000420FFF74FBF4FF0FF307047882900208A
:101840000368984206D01A680260506059611846D1
:10185000FFF7F4BE7047000038B504460D46206817
:10186000844200D138BD036823605C604561FFF7A6
:10187000E5FEF4E7054B03F114025A619A614FF05B
:10188000FF32DA6100221A62704700BF8829002007
:10189000F8B503614FF08043C2605C6A194B1A4689
:1018A000022952F8145F38BF0221954206461F46AE
:1018B0000AD1586198611C62056045608160081911
:1018C000BDE8F84001F04EB9186AAB68241A0C194B
:1018D00002D3E41A2D6804E09C4202D2204401F0B5
:1018E0004FF9AB689C42F4D86B68736035601E603A
:1018F0006E60B460A9684FF0FF33091BA960FB61FB
:10190000F8BD00BF8829002010B41B4C234653F8B3
:10191000141F814210D0416802680A600268516059
:101920009A424FF00001C16003D0936881680B4474
:1019300093605DF8044B70470A68626100209A4228
:101940005360C86003D15DF8044B01F013B993688C
:101950008868034493604FF08042206A526A121AEA
:101960009342E6D9991A012998BF931C18445DF84F
:10197000044B01F005B900BF882900200020704702
:10198000FEE70000704700004FF0FF307047000096
:10199000022906D0032906D00129064818BF0020D5
:1019A000704705487047032A9ABF044800EBC200FD
:1019B00000207047C4330008783300080824002052
:1019C00070B5044608460D46FFF7A4F9C6B2204696
:1019D000013403780BB9184670BD32462946FFF72B
:1019E00081F90028F3D1012070BD00002DE9F04FEE
:1019F00081469BB008460D461646FFF78BF93D49D8
:101A0000C4B22846FFF7DCFF08B10434E4B23A4917
:101A10002846FFF7D5FF08B11034E4B2632C01AFBC
:101A20000CD8DFF8E0A0DFF8E0B03C4695F8008085
:101A3000B8F1000F1CD184F8008003E02946384635
:101A400001F0F2FB3846FFF765F9C0B2431C5B00BA
:101A500089E8480033700323737000230236194667
:101A6000DAB2904206F102063DD81BB0BDE8F08F15
:101A7000B8F1250F32D107221E492846FFF732F967
:101A800070B9DBF800202260DBF804206260BBF84C
:101A9000082022819BF80A20A27207350B34C5E783
:101AA000082215492846FFF71DF9B8B91348A21CAA
:101AB00010F8011F124B4FEA111E01F00F011EF822
:101AC0000AE011F80A1002F802EC984202F8011C30
:101AD00002F10202ECD118340835A7E784F800803F
:101AE00001350134A2E7FA5C06F8022C06F8011C65
:101AF0000133B5E720330008283300080F7AFF1FB1
:101B00001B7AFF1F3D3300083133000808B520233E
:101B100083F311880348FFF769FA002383F31188E0
:101B200008BD00BFC829002010B50446052916D8F5
:101B3000DFE801F016150316161D202383F3118824
:101B40000E4A0121FFF7F2FA20460D4A0221FFF763
:101B5000EDFA0C48FFF710FA002383F3118810BD4B
:101B6000202383F311880748FFF7DCF9F4E72023EB
:101B700083F311880348FFF7F3F9EDE7D03200084B
:101B8000F4320008C829002038B50C4D0C4C0D4922
:101B90002A4604F10800FFF729FF05F1CA0204F103
:101BA00010000949FFF722FF05F5CA7204F1180079
:101BB0000649BDE83840FFF719BF00BF902E00204E
:101BC00008240020503300085A3300082833000846
:101BD000BFF34F8F024AD368DB03FCD4704700BFCA
:101BE000003C024008B5094B1B7873B9FFF7F0FFC2
:101BF000074B1A69002ABFBF064A5A6002F18832B1
:101C00005A601A6822F480621A6008BDEE30002023
:101C1000003C02402301674508B50B4B1B7893B984
:101C2000FFF7D6FF094B1A6942F000421A611A68A1
:101C300042F480521A601A6822F480521A601A68BC
:101C400042F480621A6008BDEE300020003C024081
:101C50000B2870B513D80B4A0B4C137863B90B4E95
:101C60004FF0006144F8231056F8235001330C2B39
:101C70002944F7D10123137054F8200070BD0020CF
:101C800070BD00BF20310020F0300020E433000898
:101C9000014B53F820007047E43300080C207047D4
:101CA0000B2810B5044601D9002010BDFFF7D0FF66
:101CB000064B53F824301844C21A0BB9012010BD4A
:101CC00012680132F0D1043BF6E700BFE4330008AC
:101CD0000B2810B504461ED8FFF77AFFFFF782FFE6
:101CE0000E49F323CB60FFF773FFC300DBB243F46D
:101CF000007343F002030B610B6943F480330B6103
:101D0000FFF766FFFFF7A4FFFFF786FF2046BDE859
:101D10001040FFF7C5BF002010BD00BF003C0240CF
:101D20002DE9F84312F00103154643D10244B2F104
:101D3000016F3FD22C4B1B6813F001033AD02B4CA0
:101D4000FFF750FFF323E360FFF742FF40F2012764
:101D5000032D16D8254C0F46401A40F20118EB1BF4
:101D60000B44012B00EB0706236926D823F001035F
:101D70002361FFF751FF0120BDE8F883043D0430E3
:101D8000E6E78307E6D1236923F4407323612369DF
:101D90003B43236151F8046B0660BFF34F8FFFF79D
:101DA00017FF03689E42E9D0236923F001032361F2
:101DB000FFF732FF0020BDE8F88323F4407323616E
:101DC000236943EA08032361B94637F8023B3380AD
:101DD000BFF34F8FFFF7FCFE3688B9F80030B6B27C
:101DE000B342BCD0E0E700BF00380240003C0240F4
:101DF000084908B50B7828B153B9FFF7F3FE012362
:101E00000B7008BD23B1BDE808400870FFF704BFA0
:101E100008BD00BFEE300020014B186D704700BFB9
:101E200000280040094B1A6F120407D41A6F42F4BD
:101E300000721A671A6F42F400421A67044A136864
:101E400043F480731360034B1865704700380240F9
:101E50000070004000280040034B1B689B0042BFFD
:101E6000024B01221A707047743802402131002061
:101E7000014B1878704700BF2131002070470000E7
:101E8000FEE70000084A094B09498B4204D3094A7E
:101E90000021934205D3704752F8040F43F8040B16
:101EA000F3E743F8041BF4E78C35000818340020EE
:101EB0001834002018340020836D30B500229D684E
:101EC000446D11464FF0FF3004EB4213013295424E
:101ED000C3F80019C3F81019C3F80809C3F8001BA8
:101EE000C3F8101BC3F8080BEED24FF00113C4F86F
:101EF0001C3830BD890141F02001016103699B0656
:101F0000FCD4122000F0C4BE204B03EB80022DE96C
:101F1000F047D2F80CE05D6DDEF81420461CD2F8D4
:101F200000C005EB063605EB4018516861450BD340
:101F3000D5F83428012303FA00F022EA0000C5F89E
:101F400034081846BDE8F087BEF81040ACEB01033A
:101F5000A34228BF2346D8F81849A4B2B3EB840F94
:101F600010D894681F46A4F1040959F804AFC6F8C4
:101F700000A0042F01D9043FF7E71C440B449460F0
:101F80005360D2E70020BDE8F08700BF2431002075
:101F900010B5054C2046FFF7A9F84FF0A043636544
:101FA000024BA36510BD00BF243100203834000867
:101FB0000378012B70B5054650D12A4B446D9842E9
:101FC0001BD1294B5A6B42F080025A635A6D42F082
:101FD00080025A655A6D5A6942F080025A615A6904
:101FE00022F080025A610E2143205B6900F0D6FB8B
:101FF0001E4BE3601E4BC4F800380023C4F8003EBB
:10200000C02323606E6D4FF40413A3633369002B68
:10201000FCDA012333610C2000F03AFE3369DB0760
:10202000FCD4122000F034FE3369002BFCDA0026C9
:10203000A6602846FFF740FF6B68C4F81068DB68AD
:10204000C4F81468C4F81C684BB90A4BA3614FF07C
:10205000FF336361A36843F00103A36070BD064BC7
:10206000F4E700BF24310020003802404014004053
:1020700003002002003C30C0083C30C0F8B5446D7D
:10208000054600212046FFF735FFA96D00234FF0DC
:1020900001128F68C4F834384FF00066C4F81C2869
:1020A0004FF0FF3004EB431201339F42C2F8006946
:1020B000C2F8006BC2F80809C2F8080BF2D20B682C
:1020C0006A6DEB65636210231361166916F01006E2
:1020D000FBD1122000F0DCFDD4F8003823F4FE63BD
:1020E000C4F80038A36943F4402343F01003A3610C
:1020F0000923C4F81038C4F814380A4BEB604FF0C9
:10210000C043C4F8103B084BC4F8003BC4F8106946
:10211000C4F80039EB6D03F1100243F48013EA6553
:10212000A362F8BD1434000840800010426D90F89E
:102130004E10D2F8003823F4FE6343EA0113C2F8CC
:10214000003870472DE9F0410EB200EB86080D46CD
:10215000D8F80C100F6807F00303022B50D0032BA4
:1021600050D03D4A3D4F012B18BF1746446D4FEAF2
:10217000451E04EB0E030022C3F8102B8A6905F1FB
:10218000100C002A40D04A8A05F158035B013A43FB
:10219000E2500123D4F81C2803FA0CF31343A6449D
:1021A0004A69C4F81C380023CEF8103905F13F0302
:1021B000002A39D00A8A898B9208012988BF4A43AC
:1021C000C16D04EB8303561841EA0242C6652946F5
:1021D0005A602046FFF78EFED8F80C301B8A43EA7F
:1021E00085531F4305F148035B01E7500123D4F8F1
:1021F0001C2803FA05F51543C4F81C58BDE8F08106
:10220000174FB3E7174FB1E704EB4613D3F8002B92
:1022100022F40042C3F8002BD4F81C28012303FA4F
:102220000CF322EA0303BAE704EB83030E4A5A6075
:1022300004EB461629462046FFF75CFED6F8003927
:1022400023F40043C6F80039D4F81C38012202FAFE
:1022500005F523EA0505CFE7008000100080041093
:102260000080081000800C1000040002826D1268CB
:10227000C265FFF721BE00005831436D49015B582C
:1022800013F4004004D013F4001F14BF01200220F7
:10229000704700004831436D49015B5813F400401A
:1022A00004D013F4001F14BF012002207047000067
:1022B00000EB8101CB68196A0B6813604B685360AF
:1022C0007047000000EB810330B5DD68AA69136830
:1022D000D36019B9402B84BF402313606B8A146804
:1022E000426D1C44013CB4FBF3F46343033323F01D
:1022F000030302EB411043EAC44343F0C043C0F878
:10230000103B2B6803F00303012B09B20ED1D2F866
:10231000083802EB411013F4807FD0F8003B14BF63
:1023200043F0805343F00053C0F8003B02EB4112EE
:10233000D2F8003B43F00443C2F8003B30BD00003C
:102340002DE9F041244D6E6D06EB40130446D3F8A1
:10235000087BC3F8087B38070AD5D6F81438190764
:1023600006D505EB84032146DB6828465B68984761
:10237000FA072FD5D6F81438DB072BD505EB8403E5
:10238000D968CCB98B69488A5E68B6FBF0F200FB6D
:1023900012628AB91868DA6890420DD2121A83E87C
:1023A0001400202383F311880B482146FFF78AFF8E
:1023B00084F31188BDE8F081012303FA04F26B89EC
:1023C00023EA02036B81CB6823B121460248BDE8B2
:1023D000F0411847BDE8F0812431002000EB810373
:1023E00070B5DD68436D6C692668E6604A0156BBCE
:1023F0001A444FF40020C2F810092A6802F00302C0
:10240000012A0AB20ED1D3F8080803EB421410F4E3
:10241000807FD4F8000914BF40F0805040F0005095
:10242000C4F8000903EB4212D2F8000940F004405E
:10243000C2F80009D3F83408012202FA01F101437D
:10244000C3F8341870BD19B9402E84BF40202060F5
:1024500020682E8A841940F00050013C1A44B4FBD5
:10246000F6F440EAC440C6E7F8B504461E48456D98
:1024700005EB4413D3F80869C3F80869F10717D5C9
:10248000D5F81038DA0713D500EB8403D9684B6907
:102490001F68DA68974218D2D21B00271A605F6063
:1024A000202383F311882146FFF798FF87F31188D3
:1024B000330617D5D5F834280123A340134211D091
:1024C0002046BDE8F840FFF71FBD012303FA04F2E0
:1024D000038923EA020303818B68002BE8D021469D
:1024E0009847E5E7F8BD00BF2431002096482DE964
:1024F000F84F456D6E69AB691E4016F4805F6E61E2
:10250000044605D0FEF75EFEBDE8F84F00F054BC6F
:10251000002E12DAD5F8003E8B489B071EBFD5F877
:10252000003E23F00303C5F8003ED5F8043823F03D
:102530000103C5F80438FEF76FFE370502D582485F
:10254000FEF75EFEB0040CD5D5F8083813F0060F80
:10255000EB6823F470530CBF43F4105343F4A053BF
:10256000EB60310704D56368DB680BB176489847A8
:10257000F2025AD4B3020CD5D4F85480DFF8C8A1C3
:1025800000274FF00109A36D9B68F9B28B4280F0E0
:102590008780F70619D5616D0A6AC2F30A1702F03F
:1025A0000F0302F4F012B2F5802F00F0A180B2F513
:1025B000402F0AD104EB830301F58051DB68186AD0
:1025C00000231A469F4240F087803003D5F8184810
:1025D00013D5E10302D50020FFF7B2FEA20302D516
:1025E0000120FFF7ADFE630302D50220FFF7A8FE2E
:1025F000270302D50320FFF7A3FE750384D5E00768
:1026000002D50020FFF730FFA10702D50120FFF718
:102610002BFF620702D50220FFF726FF23077FF575
:1026200073AF0320FFF720FF6EE7D4F85480DFF884
:1026300018A100274FF00109A36D9B685FFA87FB83
:102640005B4597D308EB4B13D3F8002902F44022E3
:10265000B2F5802F22D1D3F80029002A1EDAD3F850
:10266000002942F09042C3F80029D3F80029002A3B
:10267000FBDB5946606DFFF73DFC228909FA0BF33D
:1026800022EA0303238104EB8B03DB689B6813B10D
:102690005946504698475846FFF736FC0137CBE776
:1026A00008EB4112D2F8003B03F44023B3F5802F2E
:1026B00010D1D2F8003B002B0CDA628909FA01F341
:1026C00022EA0303638104EB8103DB68DB680BB15F
:1026D00050469847013756E79C0708BF0A68072B02
:1026E00098BF027003F101039CBF120A013069E731
:1026F000023304EB830201F580515268906902684D
:10270000D0F808C04068A2EB000E002210469742A5
:102710000AD104EB830463689B699A683A449A601F
:102720005A6817445F6050E712F0030F08BF08684B
:10273000964588BF8CF8000002F1010284BF000AB0
:102740000CF1010CE3E700BF24310020436D03EBE3
:102750004111D1F8003B43F40013C1F8003B70472E
:10276000436D03EB4111D1F8003943F40013C1F874
:1027700000397047436D03EB4111D1F8003B23F45E
:102780000013C1F8003B7047436D03EB4111D1F8D2
:10279000003923F40013C1F80039704700F1604399
:1027A00000F01F02400903F5614309018000C9B22E
:1027B00000F1604083F8001300F56140012393406D
:1027C000C0F880310360704730B5039C0172043358
:1027D00004FB0325C361049B03630021059B006088
:1027E0004060C1604261026185610462426281624F
:1027F000C162436330BD00000022416A4161016152
:10280000C2608262C2626FF00101FFF725B800006A
:1028100003694269934203D1C2680AB1002070473C
:10282000181D704703691960C2680132C260C2692D
:10283000134482690361934224BF436A0361002108
:10284000FEF7FEBF38B504460D46E3683BB162694A
:10285000131D1268A3621344E362002038BD237A7B
:1028600033B929462046FEF7DBFF0028EDDA38BDF4
:102870006FF00100FBE70000C368C269013BC36061
:102880004369134482694361934224BF436A4361AD
:1028900000238362036B03B11847704770B5202390
:1028A000044683F31188866A3EB9FFF7CBFF0546DD
:1028B00018B186F31188284670BDA36AE26A13F83E
:1028C000015BA362934202D32046FFF7D5FF0023AA
:1028D00083F31188EFE700002DE9F84F04460E4618
:1028E00090469946202787F311880025AA46D4F8F8
:1028F00028B0BBF1000F09D149462046FFF7A2FFDF
:1029000020B18BF311882846BDE8F88FA16AE36AED
:10291000A8EB050B5B1A9B4528BF9B46BBF1400FFC
:102920001BD9334601F1400251F8040B43F8040B64
:102930009142F9D1A36A40334036A3624035A26A7E
:10294000E36A9A4202D32046FFF796FF8AF3118882
:102950004545D8D287F31188C9E730465A46FEF775
:10296000B7F9A36A5B445E44A3625D44E7E70000F5
:1029700010B5029C0172043303FB0421C3610023E0
:102980008362C362039B0363049B00604060C46076
:1029900042610261816104624262436310BD0000D2
:1029A000026AC260426A4261026100228262C262BD
:1029B0006FF00101FEF750BF436902699A4203D1EB
:1029C000C2680AB100207047184650F8043B0B60FB
:1029D00070470000C368C2690133C3604369134490
:1029E00082694361934224BF436A43610021FEF739
:1029F00027BF000038B504460D46E3683BB12369A4
:102A00001A1DA262E2691344E362002038BD237AF2
:102A100033B929462046FEF703FF0028EDDA38BD1A
:102A20006FF00100FBE7000003691960C268013A1A
:102A3000C260C269134482690361934224BF436A3E
:102A4000036100238362036B03B1184770470000E2
:102A500070B5202304460E4683F31188856A35B984
:102A60001146FFF7C7FF10B185F3118870BDA36A47
:102A70001E70A36AE26A01339342A36204D3E16940
:102A800020460439FFF7D0FF002080F3118870BD85
:102A90002DE9F84F04460D4691469A464FF020081E
:102AA00088F311880026B346A76A4FB951462046DD
:102AB000FFF7A0FF20B187F311883046BDE8F88FFB
:102AC000A06AE76AA9EB06033F1A9F4228BF1F4688
:102AD000402F1BD905F1400355F8042B40F8042B77
:102AE0009D42F9D1A36A4033A3624036A26AE36AE9
:102AF0009A4204D3E16920460439FFF795FF8BF32E
:102B000011884E45D9D288F31188CDE729463A4637
:102B1000FEF7DEF8A36A3B443D44A3623E44E5E78A
:102B2000026943699A4203D1C3681BB918467047CA
:102B30000023FBE7836A002BF8D0043B9B1AF5D0F7
:102B40001360C368013BC360C3691A4483690261AF
:102B50009A4224BF436A0361002383620123E5E7AD
:102B600000F06CB94FF08043002258631A610222D2
:102B7000DA6070474FF080430022DA60704700004F
:102B80004FF0804358637047FEE7000010B5174CC4
:102B9000FEF74CFDFEF76EFE802215492046FEF73B
:102BA000F3FD012344F8180C0374124B124AD96840
:102BB00021F4E0610904090C0A431049DA60CA688B
:102BC00042F08072CA600E490A6842F001020A604F
:102BD0001022DA77202283F82220002383F3118841
:102BE00062B60848BDE81040FEF7F0BDB0290020ED
:102BF0004434000800ED00E00003FA05F0ED00E0C9
:102C0000001000E04C3400082DE9F84F1F4C4FF045
:102C10000008656904F11407C1464FF08043266A35
:102C20005B6AAA689E1B96421DD34FF0200AAA68D1
:102C3000236AD5F80CB0134423622B68BB425F6053
:102C4000A6EB02066361C5F80C8001D1FFF792FF85
:102C500089F311882869D8478AF311886569AB68B8
:102C60009E42E4D2D9E76269BA420CD091682362ED
:102C70008E1B9660A86802282CBF1818981CBDE807
:102C8000F84FFFF77DBFBDE8F88F00BF882900200F
:102C9000034B59685A68521A9042FBD8704700BFDC
:102CA000001000E04B6843608B688360CB68C360B2
:102CB0000B6943614B6903628B6943620B68036074
:102CC0007047000008B5224B22481A6940F2FF11F4
:102CD0000A431A611A6922F4FF7222F001021A6192
:102CE0001A691A6B0A431A631A6D0A431A651A4A5B
:102CF0001B6D1146FFF7D6FF184802F11C01FFF7C4
:102D0000D1FF174802F13801FFF7CCFF154802F157
:102D10005401FFF7C7FF144802F17001FFF7C2FF2B
:102D2000124802F18C01FFF7BDFF114802F1A80122
:102D3000FFF7B8FF0F4802F1C401FFF7B3FF0E48D9
:102D400002F1E001FFF7AEFFBDE8084000F0E0B897
:102D500000380240000002406C34000800040240C9
:102D600000080240000C0240001002400014024023
:102D700000180240001C02400020024008B500F08C
:102D800037FAFFF703FFFFF767F8BDE80840FEF7E3
:102D9000FBBE000070470000064A536823F00103A1
:102DA0005360EFF30983683383F30988002383F3C7
:102DB0001188704730EF00E010B5202383F31188AD
:102DC000104B5B6813F4006318D0F1EE103AEFF388
:102DD00009844FF0807344F84C3C0B4BDB6844F89B
:102DE000083CA4F1680383F30988FEF7ADFC18B131
:102DF000064B44F8503C10BD054BFAE783F31188AD
:102E000010BD00BF00ED00E030EF00E0310300082E
:102E1000340300084FF0804310B51A69920708D5B3
:102E200000241C61202383F31188FFF7EDFE84F357
:102E30001188BDE81040FFF7BFBF0000104B1A6CAF
:102E400042F001021A641A6E42F001021A660D4A3B
:102E50001B6E936843F0010393604FF0804353224D
:102E60009A624FF0FF32DA6200229A615A63DA60A6
:102E70005A6001225A6108211A601C20FFF78EBC9B
:102E800000380240002004E01F4B1A696FEAC2526A
:102E90006FEAD2521A611A69C2F308021A614FF03E
:102EA000FF301A695A69586100215A6959615A6993
:102EB0001A6A62F080521A621A6A02F080521A622A
:102EC0001A6A5A6A58625A6A59625A6A1A6C42F005
:102ED00080521A641A6E42F080521A661A6E0B4AB9
:102EE000106840F480701060186F00F44070B0F506
:102EF000007F1EBF4FF4803018671967536823F4B2
:102F00000073536000F054B9003802400070004074
:102F1000304B4FF080521A642F4A4FF440411160F9
:102F20001A6842F001021A601A689207FCD59A6882
:102F300022F003029A60274B19469A6812F00C029D
:102F4000FBD1186800F0F90018609A601A6842F422
:102F500080321A600B689B03FCD54B6F43F0010372
:102F60004B671C4B5A6F9007FCD51C4A5A601A6875
:102F700042F080721A60184A53685904FCD5154B08
:102F80001A689201FCD5164A9A60164B1A68164BBD
:102F90009A42164B1BD1164A1168164A914216D115
:102FA00040F205121A600B4B9A6842F002029A60D6
:102FB0009A6802F00C02082AFAD15A6C42F4804254
:102FC0005A645A6E42F480425A665B6E704740F211
:102FD0000572E7E7003802400070004008544007DF
:102FE00000948838002004E011640020003C024076
:102FF00000ED00E041C20F41084A08B5536911686D
:103000000B4003F00103536123B1054A13680BB170
:1030100050689847BDE80840FFF7CEBE003C01402D
:1030200098330020084A08B5536911680B4003F033
:103030000203536123B1054A93680BB1D0689847E6
:10304000BDE80840FFF7B8BE003C014098330020BF
:10305000084A08B5536911680B4003F00403536133
:1030600023B1054A13690BB150699847BDE8084080
:10307000FFF7A2BE003C014098330020084A08B583
:10308000536911680B4003F00803536123B1054AEB
:1030900093690BB1D0699847BDE80840FFF78CBE33
:1030A000003C014098330020084A08B55369116874
:1030B0000B4003F01003536123B1054A136A0BB1AF
:1030C000506A9847BDE80840FFF776BE003C0140D3
:1030D00098330020174B10B55C691A68144004F44B
:1030E00078725A61A30604D5134A936A0BB1D06A69
:1030F0009847600604D5104A136B0BB1506B984784
:10310000210604D50C4A936B0BB1D06B9847E205AE
:1031100004D5094A136C0BB1506C9847A30504D52C
:10312000054A936C0BB1D06C9847BDE81040FFF78F
:1031300043BE00BF003C0140983300201A4B10B53D
:103140005C691A68144004F47C425A61620504D533
:10315000164A136D0BB1506D9847230504D5134AD9
:10316000936D0BB1D06D9847E00404D50F4A136EF0
:103170000BB1506E9847A10404D50C4A936E0BB165
:10318000D06E9847620404D5084A136F0BB1506F94
:103190009847230404D5054A936F0BB1D06F984725
:1031A000BDE81040FFF708BE003C01409833002006
:1031B000062108B50846FFF7F1FA06210720FFF7B8
:1031C000EDFA06210820FFF7E9FA06210920FFF7AA
:1031D000E5FA06210A20FFF7E1FA06211720FFF79A
:1031E000DDFA06212820BDE80840FFF7D7BA000025
:1031F00008B5FFF749FE00F00BF8FDF775FFFDF786
:1032000049FEFFF7C7FDBDE80840FFF7A9BC000075
:10321000002304491A465A50C8180833802B4260CC
:10322000F9D1704798330020034611F8012B03F8B9
:10323000012B002AF9D1704712101213121100004D
:1032400053544D3332463F3F3F0000000000000022
:10325000403200083F000000130400007C320008E8
:103260003F00000019040000863200083F00000003
:1032700021040000903200083F00000053544D33F9
:1032800032463430780053544D333246343278006D
:1032900053544D3332463434365858000000000041
:1032A0000D0E0008F90D0008350E0008210E00086B
:1032B0002D0E0008190E0008050E0008F10D00087B
:1032C000910E000800000000010000000000000056
:1032D000020000000000000039100008A1100008E2
:1032E00040004000602E0020702E002002000000F0
:1032F000000000000300000000000000E5100008CE
:103300000000000010000000802E002000000000DF
:103310000100000000000000243100200101020033
:1033200025424F41524425002553455249414C25E1
:1033300000737065656479626565663400303132AA
:10334000333435363738394142434445460000006E
:103350004172647550696C6F740025424F4152444C
:10336000252D424C00000000291B0008911900087F
:10337000A50F00080D1B0008430000008033000863
:1033800009024300020100C03209040000010202E8
:10339000010005240010010524010001042402029B
:1033A0000524060001070582030800FF0904010047
:1033B000020A000000070501024000000705810223
:1033C0004000000012000000CC3300081201100180
:1033D0000200004083044057000201020301000084
:1033E0000403090400400000004000000040000009
:1033F0000040000000000100000002000000020088
:1034000000000200000002000000020000000200B4
:1034100000000200000000002D1200080D15000839
:10342000B91500084000400084310020843100209C
:1034300001000000943100208000000040010000E5
:10344000030000006D61696E000000006434000834
:10345000A03100209833002001000000892B0008D3
:103460000000000069646C6500000000000080023C
:1034700000000000AAAAAAAA00000000FFFF0000A6
:103480000000000000A00A0000040000000000008E
:10349000AAAAAAAA00000000DFFF000000000000A6
:1034A000000000000000000000000000AAAAAAAA74
:1034B00000000000FFFF000000000000000000000E
:1034C0000000000000000000AAAAAAAA0000000054
:1034D000FFFF0000000000000000000000000000EE
:1034E00000000000AAAAAAAA00000000FFFF000036
:1034F00000000000000000000000000000000000CC
:10350000AAAAAAAA00000000FFFF00000000000015
:10351000000000000000000000000000AAAAAAAA03
:1035200000000000FFFF000000000000000000009D
:1035300000000000000000000A0000000000000081
:103540000300000000000000000000000000000078
:10355000000000000000000000000000000000006B
:103560000000000000000000FF00960000000008BE
:1035700004000000E033000800000000000000002C
:10358000000000000000000000000000000000003B
:10359000FFFFFFFFFFFFFFFFFFFFFFFFFFFFFFFF3B
:1035A000FFFFFFFFFFFFFFFFFFFFFFFFFFFFFFFF2B
:1035B000FFFFFFFFFFFFFFFFFFFFFFFFFFFFFFFF1B
:020000040801F1
:1000000000040020B9140108AD040708B104070872
:1000100001050708B1040708D90407088D650B0816
:100020008D650B088D650B088D650B0841B50B08B8
:100030008D650B088D650B088D650B088D650B08AC
:100040008D650B0805C00B08D5C00B0809C10B084E
:100050008D650B088D650B0831BE0B0861BE0B0862
:1000600091BE0B08C1BE0B08F1BE0B0855860B08EC
:1000700081860B08B1860B08E1860B0811870B08F7
:100080003D870B086D870B0805850B088D650B08F0
:100090008D650B088D650B088D650B0821BF0B085E
:1000A000D9A20B088D650B088D650B088D650B08B3
:1000B0008D650B088D650B088D650B08A58D0B08EC
:1000C000BD8E0B088D650B088D650B088D650B08C3
:1000D0008D650B0881A60B088D650B0899A60B088A
:1000E0008DBF0B0839C00B086DC00B088D650B0860
:1000F0008D650B088D650B088D650B089D870B08BA
:100100008D650B088D650B0871A00B088D650B08BC
:10011000B1A60B08C9A60B088D650B088D650B08E9
:10012000CD870B08F9870B0829880B0859880B081D
:1001300089880B088D650B088D650B088D650B088C
:100140008D650B088D650B088D650B08919A0B0862
:10015000B5880B08E5880B0815890B088D650B0819
:100160008D650B088D650B088D650B088D650B087B
:10017000A1C00B088D650B088D650B088D650B08FC
:100180008D650B088D650B088D650B088D650B085B
:100190008D650B088D650B088D650B088D650B084B
:1001A0008D650B088D650B088D650B088D650B083B
:1001B0008D650B088D650B088D650B088D650B082B
:1001C0008D650B088D650B088D650B088D650B081B
:1001D0008D650B088D650B088D650B088D650B080B
:1001E000B93B010835660108590D0208D5230208FC
:1001F0004DDD0308D136040841390408B9FB040871
:10020000ED020508C9080508251C050869960508BA
:10021000AD2C0608810907083D550A08AD6D0A088E
:100220005D8B0A0841650B0800000000000000001B
:1002300000000000000000000000000000000000BE
:10024000D0400B1CD1409C46203AD3401843524228
:100250006346934018437047D0400B1C1141203A2D
:1002600003D49C46134118436346524293401843BB
:10027000704700BF9140031C90409C46203A934039
:10028000194352426346D3401943704781F00041FD
:1002900002E000BF83F0004330B54FEA41044FEA6B
:1002A000430594EA050F08BF90EA020F1FBF54EA06
:1002B000000C55EA020C7FEA645C7FEA655C00F0A2
:1002C000E2804FEA5454D4EB5555B8BF6D420CDD73
:1002D0002C4480EA020281EA030382EA000083EAF6
:1002E000010180EA020281EA0303362D88BF30BD96
:1002F00011F0004F4FEA01314FF4801C4CEA1131EC
:1003000002D0404261EB410113F0004F4FEA03334A
:100310004CEA133302D0524263EB430394EA050FD5
:1003200000F0A780A4F10104D5F1200E0DDB02FA44
:100330000EFC22FA05F2801841F1000103FA0EF2D8
:10034000801843FA05F359410EE0A5F120050EF19E
:10035000200E012A03FA0EFC28BF4CF0020C43FACF
:1003600005F3C01851EBE37101F0004507D54FF0DC
:10037000000EDCF1000C7EEB00006EEB0101B1F52C
:10038000801F1BD3B1F5001F0CD349085FEA300072
:100390004FEA3C0C04F101044FEA445212F5800F7D
:1003A00080F09A80BCF1004F08BF5FEA500C50F11A
:1003B000000041EB045141EA050130BD5FEA4C0CFD
:1003C000404141EB010111F4801FA4F10104E9D186
:1003D00091F0000F04BF01460020B1FA81F308BF7D
:1003E0002033A3F10B03B3F120020CDA0C3208DD49
:1003F00002F1140CC2F10C0201FA0CF021FA02F124
:100400000CE002F11402D8BFC2F1200C01FA02F193
:1004100020FA0CFCDCBF41EA0C019040E41AA2BFB8
:1004200001EB0451294330BD6FEA04041F3C1CDA80
:100430000C340EDC04F11404C4F1200220FA04F0A0
:1004400001FA02F340EA030021FA04F345EA03014A
:1004500030BDC4F10C04C4F1200220FA02F001FA0C
:1004600004F340EA0300294630BD21FA04F029468E
:1004700030BD94F0000F83F4801306BF81F4801127
:100480000134013D4EE77FEA645C18BF7FEA655C9A
:1004900029D094EA050F08BF90EA020F05D054EA6C
:1004A000000C04BF1946104630BD91EA030F1EBF71
:1004B0000021002030BD5FEA545C05D14000494175
:1004C00028BF41F0004130BD14F580043CBF01F568
:1004D000801130BD01F0004545F0FE4141F470014E
:1004E0004FF0000030BD7FEA645C1ABF1946104629
:1004F0007FEA655C1CBF0B46024650EA013406BF2A
:1005000052EA033591EA030F41F4002130BD00BFE8
:1005100090F0000F04BF0021704730B54FF48064A5
:1005200004F132044FF000054FF0000150E700BF26
:1005300090F0000F04BF0021704730B54FF4806485
:1005400004F1320410F0004548BF40424FF0000172
:100550003EE700BF42004FEAE2014FEA31014FEAB5
:1005600002701FBF12F07F4393F07F4F81F0605104
:10057000704792F0000F14BF93F07F4F704730B573
:100580004FF4607401F0004521F0004120E700BF06
:1005900050EA010208BF704730B54FF000050AE08D
:1005A00050EA010208BF704730B511F0004502D58E
:1005B000404261EB41014FF4806404F132045FEA90
:1005C000915C3FF4DCAE4FF003025FEADC0C18BF35
:1005D00003325FEADC0C18BF033202EBDC02C2F12B
:1005E000200300FA03FC20FA02F001FA03FE40EABD
:1005F0000E0021FA02F11444C1E600BF70B54FF0BD
:10060000FF0C4CF4E06C1CEA11541DBF1CEA13559E
:1006100094EA0C0F95EA0C0F00F0DEF82C4481EA06
:10062000030621EA4C5123EA4C5350EA013518BF26
:1006300052EA033541F4801143F4801338D0A0FB13
:1006400002CE4FF00005E1FB02E506F00042E0FBC0
:1006500003E54FF00006E1FB03569CF0000F18BFC6
:100660004EF0010EA4F1FF04B6F5007F64F540746E
:1006700004D25FEA4E0E6D4146EB060642EAC62101
:1006800041EA55514FEAC52040EA5E504FEACE2E6E
:10069000B4F1FD0C88BFBCF5E06F1ED8BEF1004F71
:1006A00008BF5FEA500E50F1000041EB045170BDED
:1006B00006F0004646EA010140EA020081EA030131
:1006C000B4EB5C04C2BFD4EB0C0541EA045170BD2D
:1006D00041F480114FF0000E013C00F3AB8014F1A7
:1006E000360FDEBF002001F0004170BDC4F10004F0
:1006F000203C35DA0C341BDC04F11404C4F1200571
:1007000000FA05F320FA04F001FA05F240EA0200CB
:1007100001F0004221F0004110EBD37021FA04F601
:1007200042EB06015EEA430E08BF20EAD37070BDBB
:10073000C4F10C04C4F1200500FA04F320FA05F01A
:1007400001FA04F240EA020001F0004110EBD3701C
:1007500041F100015EEA430E08BF20EAD37070BD8C
:10076000C4F1200500FA05F24EEA020E20FA04F365
:1007700001FA05F243EA020321FA04F001F0004114
:1007800021FA04F220EA020000EBD3705EEA430E85
:1007900008BF20EAD37070BD94F0000F0FD101F0B4
:1007A0000046400041EB010111F4801F08BF013CED
:1007B000F7D041EA060195F0000F18BF704703F02B
:1007C0000046520043EB030313F4801F08BF013DB2
:1007D000F7D043EA0603704794EA0C0F0CEA13556E
:1007E00018BF95EA0C0F0CD050EA410618BF52EA28
:1007F0004306D1D181EA030101F000414FF000002E
:1008000070BD50EA410606BF1046194652EA43063B
:1008100019D094EA0C0F02D150EA013613D195EAAF
:100820000C0F05D152EA03361CBF104619460AD1F7
:1008300081EA030101F0004141F0FE4141F4700101
:100840004FF0000070BD41F0FE4141F4780170BDF1
:1008500070B54FF0FF0C4CF4E06C1CEA11541DBF56
:100860001CEA135594EA0C0F95EA0C0F00F0A7F858
:10087000A4EB050481EA030E52EA03354FEA013185
:1008800000F088804FEA03334FF0805545EA131398
:1008900043EA12634FEA022245EA111545EA106560
:1008A0004FEA00260EF000419D4208BF964244F1F7
:1008B000FD0404F5407402D25B084FEA3202B61A16
:1008C00065EB03055B084FEA32024FF480104FF4EA
:1008D000002CB6EB020E75EB030E22BFB61A75465E
:1008E00040EA0C005B084FEA3202B6EB020E75EBF1
:1008F000030E22BFB61A754640EA5C005B084FEA59
:100900003202B6EB020E75EB030E22BFB61A754625
:1009100040EA9C005B084FEA3202B6EB020E75EB30
:10092000030E22BFB61A754640EADC0055EA060EF1
:1009300018D04FEA051545EA16754FEA06164FEA34
:10094000C30343EA52734FEAC2025FEA1C1CC0D1E0
:1009500011F4801F0BD141EA00014FF000004FF06D
:10096000004CB6E711F4801F04BF01430020B4F12E
:10097000FD0C88BFBCF5E06F3FF6AFAEB5EB030CE6
:1009800004BFB6EB020C5FEA500C50F1000041EBE3
:10099000045170BD0EF0004E4EEA113114EB5C04B0
:1009A000C2BFD4EB0C0541EA045170BD41F4801183
:1009B0004FF0000E013C90E645EA060E8DE60CEA8B
:1009C000135594EA0C0F08BF95EA0C0F3FF43BAFA8
:1009D00094EA0C0F0AD150EA01347FF434AF95EA5F
:1009E0000C0F7FF425AF104619462CE795EA0C0F43
:1009F00006D152EA03353FF4FDAE1046194622E710
:100A000050EA410618BF52EA43067FF4C5AE50EAE9
:100A100041047FF40DAF52EA43057FF4EBAE12E7D9
:100A20004FF0FF3C06E000BF4FF0010C02E000BFBA
:100A30004FF0010C4DF804CD4FEA410C7FEA6C5C9D
:100A40004FEA430C18BF7FEA6C5C1BD001B050EA40
:100A5000410C0CBF52EA430C91EA030F02BF90EA2B
:100A6000020F0020704710F1000F91EA030F58BFEA
:100A7000994208BF90422CBFD8176FEAE37040F04C
:100A8000010070474FEA410C7FEA6C5C02D150EAEA
:100A9000013C07D14FEA430C7FEA6C5CD6D152EAA5
:100AA000033CD3D05DF8040B704700BF844610466A
:100AB00062468C461946634600E000BF01B5FFF769
:100AC000B7FF002848BF10F1000F01BD4DF808ED39
:100AD000FFF7F4FF0CBF012000205DF808FB00BF0A
:100AE0004DF808EDFFF7EAFF34BF012000205DF864
:100AF00008FB00BF4DF808EDFFF7E0FF94BF0120B1
:100B000000205DF808FB00BF4DF808EDFFF7CEFFB1
:100B100094BF012000205DF808FB00BF4DF808EDF0
:100B2000FFF7C4FF34BF012000205DF808FB00BFC1
:100B30004FEA410212F5001215D211D56FF4787305
:100B4000B3EB625212D94FEAC12343F0004343EAA8
:100B5000505311F0004F23FA02F018BF4042704783
:100B60004FF00000704750EA013005D111F000400D
:100B700008BF6FF0004070474FF00000704700BFA3
:100B80004A0011D212F5001211D20DD56FF478730C
:100B9000B3EB62520ED44FEAC12343F0004343EA61
:100BA000505323FA02F070474FF00000704750EAAC
:100BB000013002D14FF0FF3070474FF00000704716
:100BC0004FEA4102B2F1E04324BFB3F5001CDCF16F
:100BD000FE5C0DD901F0004C4FEAC0024CEA5070A7
:100BE000B2F1004F40EB830008BF20F001007047D6
:100BF00011F0804F21D113F13872BCBF01F00040D9
:100C0000704741F480114FEA5252C2F11802C2F10A
:100C1000200C10FA0CF320FA02F018BF40F001008B
:100C20004FEAC1234FEAD32303FA0CFC40EA0C003D
:100C300023FA02F34FEA4303CCE77FEA625307D17A
:100C400050EA01331EBF4FF0FE4040F440007047B1
:100C500001F0004040F0FE4040F40000704700BF4B
:100C600080F0004002E000BF81F0004142001FBF61
:100C70005FEA410392EA030F7FEA226C7FEA236C6A
:100C80006AD04FEA1262D2EB1363C1BFD21841405F
:100C900048404140B8BF5B42192B88BF704710F0F5
:100CA000004F40F4000020F07F4018BF404211F098
:100CB000004F41F4000121F07F4118BF494292EA00
:100CC000030F3FD0A2F1010241FA03FC10EB0C002C
:100CD000C3F1200301FA03F100F0004302D54942B9
:100CE00060EB4000B0F5000F13D3B0F1807F06D366
:100CF00040084FEA310102F10102FE2A51D2B1F15E
:100D0000004F40EBC25008BF20F0010040EA030052
:100D10007047490040EB000010F4000FA2F10102FF
:100D2000EDD1B0FA80FCACF1080CB2EB0C0200FA89
:100D30000CF0AABF00EBC25052421843BCBFD040D7
:100D40001843704792F0000F81F4000106BF80F451
:100D500000000132013BB5E74FEA41037FEA226C14
:100D600018BF7FEA236C21D092EA030F04D092F0DF
:100D7000000F08BF0846704790EA010F1CBF002013
:100D8000704712F07F4F04D1400028BF40F0004070
:100D9000704712F100723CBF00F50000704700F090
:100DA000004343F0FE4040F4000070477FEA2262B7
:100DB00016BF08467FEA23630146420206BF5FEA88
:100DC000412390EA010F40F4800070474FF0000388
:100DD00004E000BF10F0004348BF40425FEA000C4F
:100DE00008BF704743F0964301464FF000001CE0F7
:100DF00050EA010208BF70474FF000030AE000BF4D
:100E000050EA010208BF704711F0004302D540428A
:100E100061EB41015FEA010C02BF844601460020FC
:100E200043F0B64308BFA3F18053A3F50003BCFA17
:100E30008CF2083AA3EBC25310DB01FA02FC6344C4
:100E400000FA02FCC2F12002BCF1004F20FA02F2CB
:100E500043EB020008BF20F00100704702F12002BE
:100E600001FA02FCC2F1200250EA4C0021FA02F21F
:100E700043EB020008BF20EADC7070477BB972B90F
:100E80000029BEBF00204FF0004106E008BF002847
:100E90001CBF6FF000414FF0FF3000F087B882B008
:100EA000EC462DE9005000F051F8DDF804E002B006
:100EB0000CBC704753B94AB9002908BF00281CBFB1
:100EC0004FF0FF314FF0FF3000F070B882B0EC46C9
:100ED0002DE9005000F052F8DDF804E002B00CBC3F
:100EE000704700BF80EA104080EA102080EA1010AE
:100EF00000F00F0346F69610184100F0010070470D
:100F0000D0B5FFF727FB00220E4B06460F46FFF732
:100F100075FBFFF735FE0446FFF7FAFA00220A4B8D
:100F2000FFF76CFB02460B4630463946FFF7B2F935
:100F3000FFF726FE2346002242EA00021046194629
:100F4000D0BD00BF0000F03D0000F0412DE9F041B0
:100F5000069C154606460F46984600F029F805FB04
:100F600001F300FB0838A5FB0023B21A434467EBEA
:100F70000303C4E90023BDE8F08100BF2DE9F0417F
:100F8000069C904606460F461D4600F05FF900FBA2
:100F900005F5A0FB082308FB0155B21A2B4467EBAB
:100FA0000303C4E90023BDE8F08100BF704700BF20
:100FB00000292DE9F043C0F2A6800026002BC0F2E4
:100FC0009C80884694469E46154604460F46002B54
:100FD0003DD18A4259D9B2FA82F33BB1C3F1200222
:100FE0009F4020FA02F29D4017439C40290C220C9E
:100FF000B7FBF1FEA8B201FB1E7742EA074700FBF0
:101000000EF3BB420AD97F190EF1FF3280F0058141
:10101000BB4240F20281AEF1020E2F44FF1AA4B28D
:10102000B7FBF1F301FB137744EA074700FB03F03A
:10103000B84208D97F1903F1FF3280F0F080B8423E
:1010400040F2ED80023B43EA0E43002203E08B4274
:101050000FD900221346341C18BF012460424FF000
:10106000000565EB45015840514000196941BDE854
:10107000F083B3FA83F2002A40F086808B4202D3D9
:10108000844500F2DB800123E5E712B90123B3FBBD
:10109000F2F5B5FA85F000283BD1781B4FEA154EE2
:1010A0001FFA85FC0122B0FBFEF8210C0EFB18078D
:1010B00041EA07470CFB08F3BB4207D97F1908F147
:1010C000FF3102D2BB4200F2BD808846FF1AA4B2B3
:1010D000B7FBFEF30EFB137744EA07470CFB03FC58
:1010E000BC4507D97F1903F1FF3102D2BC4500F29C
:1010F000A7800B4643EA0843ADE752426FEA060673
:1011000063EB43035DE7404261EB41014FF0FF3683
:1011100054E7C0F1200224FA02F107FA00F38540F7
:101120004FEA154ED7401943B7FBFEF20B0C0EFBEE
:1011300012771FFA85FC43EA07430CFB02F79F4234
:1011400004FA00F407D95B1902F1FF3074D29F4210
:1011500072D9023A2B44DF1B89B2B7FBFEF80EFBB3
:10116000187341EA03430CFB08F79F4208D95B1947
:1011700008F1FF315CD29F425AD9A8F102082B44F2
:10118000D81B48EA02428EE7C2F120032CFA03F191
:101190000EFA02FE20FA03F741EA0E0E08FA02F0F8
:1011A00028FA03F14FEA1E453843B1FBF5F8030C6A
:1011B00005FB18111FFA8EF743EA014107FB08F3FC
:1011C0008B420CFA02FC09D911EB0E0108F1FF3930
:1011D00030D28B422ED9A8F102087144C91A80B2CC
:1011E000B1FBF5F305FB131140EA014107FB03F7DF
:1011F0008F4208D911EB0E0103F1FF3016D28F4256
:1012000014D9023B714443EA0843C91BA3FB0C8970
:10121000494509D305D000221DE79646FEE6134650
:1012200011E794404445F6D2013BF4E70346EAE770
:101230008846A5E7C846D1E702468CE713460AE789
:10124000023B57E7A8F102082F443FE72DE9F041A0
:10125000002B44D18A42154604464FD9B2FA82F790
:101260000E464FB1C7F12003B94020FA03F602FA47
:1012700007F50E4300FA07F44FEA154E230CB6FBB0
:10128000FEF0AFB20EFB106143EA014307FB00F131
:10129000994209D95B1900F1FF3280F0EC80994244
:1012A00040F2E98002382B445A1AA4B2B2FBFEF392
:1012B0000EFB132244EA024207FB03F7974208D9C8
:1012C000521903F1FF3180F0D880974240F2D58067
:1012D000023B43EA004000263146BDE8F0818B42E4
:1012E00047D8B3FA83F6002E48D18B4202D382420C
:1012F00000F2CD8001203146BDE8F08112B9012510
:10130000B5FBF2F5B5FA85F8B8F1000F77D14A1BB5
:101310004FEA154EAFB20126B2FBFEF0230C0EFBD6
:10132000102143EA014107FB00F38B4207D9491919
:1013300000F1FF3202D28B4200F2BA801046C91A85
:10134000A4B2B1FBFEF30EFB131144EA014407FB08
:1013500003F7A74208D9641903F1FF3280F08F80A8
:10136000A74240F28C80023B43EA00403146BDE890
:10137000F081002630463146BDE8F081C6F12004F8
:1013800022FA04F5B3402B4320FA04FC01FA06F7D5
:1013900021FA04F54FEA134E4CEA0707B5FBFEF8B5
:1013A000390C0EFB18551FFA83FC41EA05450CFB6E
:1013B00008F1A94202FA06F204D9ED1808F1FF3447
:1013C00067D3A0466D1ABFB2B5FBFEF40EFB1455F1
:1013D00047EA05410CFB04FC8C4504D9C91804F10B
:1013E000FF355CD32C4644EA0844CCEB0101A4FB56
:1013F0000223994248D344D0204600266CE7C8F126
:10140000200401FA08F305FA08F520FA04F7E14090
:101410004FEA154E1F43B1FBFEF63A0C0EFB1611B8
:101420001FFA85FC42EA01430CFB06F29A4200FADD
:1014300008F407D95B1906F1FF3137D29A4235D942
:10144000023E2B449B1ABFB2B3FBFEF00EFB1033DF
:1014500047EA03430CFB00F1994207D95B1900F1FD
:10146000FF3221D299421FD902382B445A1A40EA3E
:101470000646674650E7104616E70B4629E713462F
:1014800072E7B0409042B7D2601E002624E7304693
:1014900022E7A94295D9A8F102081D4492E78C459C
:1014A000A0D9023C19449EE71046DFE70E46C9E783
:1014B0000238294443E700BF72B6374880F30988F1
:1014C00036484EF60851CEF20001086040F20000A6
:1014D000CCF200004EF63471CEF200010860BFF38A
:1014E0004F8FBFF36F8F40F20000C0F2F0004EF656
:1014F0008851CEF200010860BFF34F8FBFF36F8FAA
:101500004FF00000E1EE100A4EF63C71CEF2000101
:101510000860062080F31488BFF36F8FA5F018F8D9
:10152000A9F004FA1E481F491F4A91423CBF41F8E6
:10153000040BFAE71D49184A91423CBF41F8040BDD
:10154000FAE71B491B4A1C4B9A423EBF51F8040B59
:1015500042F8040BF8E700201849194A91423CBFB1
:1015600041F8040BFAE7A4F0F7FFA9F0E1F9154CF4
:10157000154DAC4203DA54F8041B8847F9E701F033
:101580000FFC124C124DAC4203DA54F8041B88478E
:10159000F9E7A4F0DFBF0000000800200000010808
:1015A000555555550000002000040020000400207F
:1015B000204D0E08000800207C130020801300201E
:1015C0009CFB0020E0010108280201082802010814
:1015D000280201082DE9F04F2DED108AC1F80CD03A
:1015E000C3689D46BDEC108ABDE8F08FA5F07AFC7B
:1015F000002383F311882846A0470020A5F056FB5E
:10160000A5F06AFCA5F076FAA5F06CFC00DFFEE719
:10161000844641EA000313F003036DD1403A41D3FD
:1016200051F8043B40F8043B51F8043B40F8043BBC
:1016300051F8043B40F8043B51F8043B40F8043BAC
:1016400051F8043B40F8043B51F8043B40F8043B9C
:1016500051F8043B40F8043B51F8043B40F8043B8C
:1016600051F8043B40F8043B51F8043B40F8043B7C
:1016700051F8043B40F8043B51F8043B40F8043B6C
:1016800051F8043B40F8043B51F8043B40F8043B5C
:1016900051F8043B40F8043B51F8043B40F8043B4C
:1016A000403ABDD2303211D351F8043B40F8043BEC
:1016B00051F8043B40F8043B51F8043B40F8043B2C
:1016C00051F8043B40F8043B103AEDD20C3205D3FC
:1016D00051F8043B40F8043B043AF9D2043208D0F4
:1016E000D2071CBF11F8013B00F8013B01D30B8866
:1016F00003806046704700BF082A13D38B078DD044
:1017000010F003038AD0C3F10403D21ADB071CBF15
:1017100011F8013B00F8013B80D331F8023B20F87F
:10172000023B7BE7043AD9D3013A11F8013B00F8B8
:10173000013BF9D20B7803704B7843708B78837040
:1017400060467047A2EB0300704700BF02780B7839
:10175000012A28BF9A42F5D16DE9044540EA010407
:10176000CDE902676FF0000C4FEA447212B380EAD1
:10177000010414F0070F6AD100F0070420F00700FD
:1017800004F0030521F007014FEAC505F0E8042342
:1017900014F0040FF1E804670CFA05F462EA04029D
:1017A00066EA04060AD063EA0403624667EA0407AD
:1017B000664603E0F0E80423F1E8046782FA4CF59A
:1017C00082EA0604A4FA8CF46CBB83FA4CF583EA33
:1017D0000705A5FA8CF595B950E9022351E902678E
:1017E00082FA4CF582EA0604A4FA8CF483FA4CF5EA
:1017F00083EA0705A5FA8CF52543DBD09CB92DBA01
:10180000B5FA85F424F0070427FA04F1DDE902674C
:1018100023FA04F303F0FF0001F0FF01FDE80445A3
:10182000A0EB0100704724BAB4FA84F424F0070452
:1018300026FA04F1DDE9026722FA04F202F0FF0061
:1018400001F0FF01FDE80445A0EB0100704714F032
:10185000030F3CD110F0030428D150F8082B51F8A5
:10186000083B82FA4CF582EA0305A5FA8CF55DB9CE
:1018700050F8042C51F8043C82FA4CF582EA030536
:10188000A5FA8CF5002DE8D02DBAB5FA85F424F030
:10189000070423FA04F122FA04F202F0FF0001F037
:1018A000FF01FDE80445A0EB010070474FEAC404C6
:1018B00020F0030050F8082B21F0030151F8083BF9
:1018C0000CFA04F462EA040263EA0403C9E710F0C4
:1018D00003041AD0A1EB040120F00300E40750F840
:1018E000042B06D00FD28B785FFAA2F4E41A06D14B
:1018F0002BB1CB785FFAB2F4E41A00D11BB92046C1
:101900005DF8104B704701F1040150F8042BCC072F
:1019100021F0030151F8043B48D824D222F07F443F
:1019200082FA4CF594EA1325A5FA8CF50AD165B92B
:1019300051F8043B84EA0204B4EB036F0ED150F873
:10194000042BEBE74FEA132355E035F07F454DD1EB
:101950000878FDE80445C0F1000070474FEA1262C4
:1019600003F0FF0347E002EA1C4482FA4CF594EAD4
:101970001345A5FA8CF50AD165B951F8043B84EA00
:101980000204B4EB034F0CD150F8042BEBE74FEA01
:10199000134330E015EA1C4528D10B884FEA124268
:1019A00029E04FEA124203EA1C4324E002F0FF045C
:1019B00082FA4CF594EA1365A5FA8CF50AD165B95B
:1019C00051F8043B84EA0204B4EB032F09D150F828
:1019D000042BEBE74FEA13630DE015F0FF0F05D181
:1019E0000B684FEA122223F07F4304E04FF000001F
:1019F000FDE80445704712BA1BBA82FA4CF482EA39
:101A00000304A4FA8CF5B5FA85F402FA04F203FA99
:101A100004F34FEA1260FDE80445A0EB1360704741
:101A200008B50D4A13780133DBB21D2B98BF137034
:101A300003684FF0000188BF11705B6888BF012107
:101A4000984742F66803054AD15C60F30411D1540B
:101A5000034B587208BD00BF0008002098130020F7
:101A6000085500207FB50D4604A90023064641F81D
:101A7000043D0C4850F010FD044678B9039B33B97F
:101A8000304621462A46084B5BF0EAFE06E000930A
:101A9000304621462A46054B5BF0E2FE204604B064
:101AA00070BD00BF2841002020840C0899CD0C088F
:101AB00007B50B46009220211A46034B5BF0D0FE7F
:101AC00003B05DF804FB00BF2C840C0810B50A4677
:101AD00042F6CC030749CB585B7903F0040303F0CB
:101AE000FF042BB92146044B5BF0BAFE204610BD23
:101AF000012010BD981300203C840C0808B5C38851
:101B0000012B0A4601D05B060BD50A4B93F9441012
:101B100039B1D3F8D819B3F94630B1F90010994268
:101B200001DB012008BD4021034B5BF099FE002042
:101B300008BD00BF981300205A840C0808B5006C3B
:101B400003685B68984700F0010008BD30B50446A3
:101B500087B01E480D464AF0E1F9A0B31B484AF091
:101B6000DDF9012806D8204620212A46184B5BF0D3
:101B700077FE26E0174842F6FD53C35C1BB300F521
:101B8000187004A905AA4AF09FFAE0B19DED057A04
:101B9000DFED117AB4EEE77AF1EE10FA14D8DDED4C
:101BA000047AFDEEE77A17EE100ACDED007AFEF723
:101BB000D1FC2A46CDE90201084B204620215BF0EA
:101BC0004FFE002000E0012007B030BDF8150020D6
:101BD00072840C08981300209A99193F89840C0884
:101BE0002DE9F8432DED028BC388012B04460D46E9
:101BF00003D09A0601D4012730E2B64E304613F0E6
:101C000047FF074638B1B44B204620212A465BF0F7
:101C100027FE002722E296F944306BB1D6F8D83976
:101C2000B3F90410B6F9463003F10A02914211DD0E
:101C300040F28D3293420DDDB388A64AA3F57A7344
:101C40009BB241F658318B4209D9204620212A46C1
:101C5000A24B1DE0204620212A46A14B18E042F667
:101C6000C84392ED207AD358D3ED097AB4EEE77ADF
:101C7000F1EE10FA08DC92ED217AD3ED0A7AB4EE97
:101C8000E77AF1EE10FA06DD964B204620212A462F
:101C90005BF0E6FDE2E142F2D503D35643B1924850
:101CA00031F04EFF20B9204620212A468F4BAEE767
:101CB00042F6C503DFF81C82F35C9B0604D5204680
:101CC00020212A468A4BE3E720462946FFF73EFFBC
:101CD00000289ED042F6CC43DFED868A58F80330C8
:101CE000D3ED1B7AF0EEE77AF4EEE87AF1EE10FA33
:101CF000B0EE688A03D5204629467F4A90E1D3EDAD
:101D0000087AF0EEE77AF4EEE87AF1EE10FA03D50D
:101D100020462946794A83E1D3ED097AF0EEE77A45
:101D2000F4EEE87AF1EE10FA03D520462946744A1B
:101D300076E1D3ED0A7AF0EEE77AF4EEE87AF1EEA6
:101D400010FA03D5204629466E4A69E1D3ED0B7A95
:101D5000F0EEE77AF4EEE87AF1EE10FA03D52046D9
:101D60002946694A5CE142F6C84958F80900036807
:101D70009B689847D0ED007AF0EEE77AF4EEE87AC7
:101D8000F1EE10FA11D558F8090003689B689847DE
:101D9000D0ED057AF0EEE77AF4EEE87AF1EE10FA9B
:101DA00003D520462946594A3AE142F6C84856F832
:101DB000080003689B689847D0ED017AF0EEE77A57
:101DC000F4EEC87AF1EE10FA14D5424B53F808003D
:101DD00003689B689847D0ED057A9FED467AF0EE50
:101DE000E77AF4EEC77AF1EE10FA03D520462946D9
:101DF000474A15E142F6C84856F8080003689B6850
:101E00009847D0ED027AF0EEE77AF4EEC87AF1EE78
:101E100010FA14D52F4B53F8080003689B689847B5
:101E2000D0ED057A9FED337AF0EEE77AF4EEC77ADB
:101E3000F1EE10FA03D520462946364AF0E042F684
:101E4000C84856F808000368DB689847D0ED007A68
:101E5000F0EEE77AF4EEC87AF1EE10FA14D51D4BE5
:101E600053F808000368DB689847D0ED057A9FEDCA
:101E7000217AF0EEE77AF4EEC77AF1EE10FA03D5A4
:101E800020462946244ACBE042F6C84856F80800C6
:101E90000368DB689847D0ED017AF0EEE77AF4EE5C
:101EA000C87AF1EE10FA3BD50A4B53F808000368E4
:101EB000DB689847D0ED057A9FED0E7AF0EEE77A71
:101EC000F4EEC77AF1EE10FA2AD520462946134AD5
:101ED000A6E000BF98130020A2840C0849850C08D6
:101EE00036850C0859850C08882C00206D850C0857
:101EF000BF840C0800000034D4840C08E0840C0873
:101F0000EB840C08F6840C0801850C0880850C080D
:101F10008E850C089C850C08AA850C08B8850C08D1
:101F200042F6C84856F808000368DB689847D0EDC9
:101F3000027AF0EEE77AF4EEC87AF1EE10FA14D5F0
:101F4000494B53F808000368DB689847D0ED057AE1
:101F50009FED467AF0EEE77AF4EEC77AF1EE10FAEA
:101F600003D520462946424A5AE042F6C84856F868
:101F7000080003681B699847D0ED007AF0EEE77A15
:101F8000F4EEC87AF1EE10FA10D5374B53F808008A
:101F900003681B699847D0ED057A9FED347AF0EE1F
:101FA000E77AF4EEC77AF1EE10FA24D442F6C84884
:101FB00056F8080003681B699847D0ED017AF0EEE7
:101FC000E77AF4EEC87AF1EE10FA18D5264B53F8FA
:101FD000080003681B699847D0ED057A9FED237AC6
:101FE000F0EEE77AF4EEC77AF1EE10FA07D5204664
:101FF0002946204A14E0204629461F4A10E042F6AE
:10200000C8439FED1A7AF358D3ED0A7AF0EEE77AD7
:10201000F4EEC87AF1EE10FA05D5184A20462946A2
:10202000FFF746FD1AE0D3ED097AF0EEE77AF4EE19
:10203000C77AF1EE10FA03D520462946104AEFE799
:10204000D3ED0B7AF0EEE77AF4EEC77AF1EE10FA00
:102050007FF5D1AD204629460A4AE1E7BDEC028B67
:102060003846BDE8F88300BF981300200000003414
:10207000C6850C08E2850C08D4850C080C850C0874
:102080001A850C0828850C082DE9F04F82468069D6
:102090009046026885B0D2F8B0200D4690470446BD
:1020A00020B9504621462A467D4B16E0DAF81C003E
:1020B0001AF0F6FB044638B1504600212A46794B07
:1020C0005BF0CEFB0024E6E0DAF81C2092F83D201D
:1020D00032B1754B504621462A465BF0C1FBDAE02F
:1020E000724F42F66C02414617F8029043F2387282
:1020F0003E46B85802685269904720B9504621467A
:102100002A466B4BE9E750462946FFF7DFFC039070
:10211000002800F0C08042F66A0B17F80B2002F08E
:102120002402242A04D1504621462A46614BD4E792
:1021300038461F2113F0EEFB20B93846214600F047
:1021400061FB08E038461F2113F0E4FB18B117F8D3
:102150000B20130728D4BAF806201AB3012A2AD074
:10216000D70628D4BAF8062011B2012945D0900626
:1021700043D401E001294AD0520648D44E4A12689D
:10218000506C0268526B9047012804D150460021E0
:102190002A464A4BA1E75046414605B0BDE8F04FFC
:1021A0005BF032BF039C76E03CF0ECFB0221444A3A
:1021B00038F0CAFD6FE0DAF81820D2ED517A92EDCE
:1021C000500A20EE270AAAF013FDDFED3E7AB6F999
:1021D000043020EE270ADFED3C7A20EE270A07EED6
:1021E000903AF8EEE77AB4EEE70AF1EE10FAB9DDCC
:1021F000504610212A46354B6FE742F6C500305C49
:102200008306B7D5504620212A46314B65E796F91B
:102210004410264A39B1D2F8D819B2F94620B1F99A
:10222000001091422FDBB8F1000F03D009F0EF024C
:10223000042AA3D0D6F8D8291C4FB2F9023000EEF8
:10224000103A3846B8EEC00A00F0D4FFB5EEC00A26
:10225000F1EE10FA06DD1F4A0092504640212A4650
:102260001D4B16E043F23872B85802681269904765
:1022700010B9B9F10B0F81D1D6F8D829B2F90220E3
:10228000002AE8DC7AE7134A144B009250464021BA
:102290002A465BF0E5FA204605B0BDE8F08F00BFA6
:1022A000F0850C0807860C0823860C08981300207C
:1022B00046860C0857860C08901300208C860C0864
:1022C0009A860C08E02E65420000C8426F860C0812
:1022D000BF840C0883860C0877860C08B7860C0828
:1022E00070B503680D4D5B680E46012104469847A2
:1022F00042F668010A4A6B5C507260F304136B5437
:1023000003F0100303F0FF0033B1204632460121F1
:10231000BDE87040FFF7B8BE70BD00BF9813002045
:10232000085500202DE9F04142F6CC03264FFB581A
:102330000546587910F001040E46B84602D0012037
:10234000BDE8F0813846202113F0E4FA68B1384640
:102350001F2113F0DFFA40B12846214632461B4BBD
:102360005BF07EFA2046BDE8F08142F66A0318F879
:10237000033003F02403242B05D1284600213246E4
:10238000134B5BF06DFAB5F90630002BD7D0314610
:102390002846FFF767FB314604462846FFF720FC36
:1023A00020403146C4B22846FFF790FB3146044036
:1023B0002846FFF7A3FB3146044028465BF0EAFDC0
:1023C0002040BDE8F08100BF98130020C9860C08AA
:1023D00057860C0870B505460E465BF069FA002872
:1023E0002FD0EB88012B02D09A0700D470BD286C47
:1023F00003685B689847C0F300240CB9830501D4D7
:10240000012070BD286C03685B6A984742F65C4304
:102410000C4AD35807EE903AF8EEE77A30EE670AA6
:10242000DFED097AB0EEC00AB4EEE70AF1EE10FA79
:10243000E6DD284602213246044B5BF011FA2046C5
:1024400070BD70BD981300200000C842E3860C08E0
:10245000F8B504460F465BF045FAE388012B0546C4
:1024600001D05B070BD5E0691CF03CFC064630B997
:10247000204604213A46034B5BF0F2F935462846E4
:10248000F8BD00BFF6860C08F8B504460F465BF0B1
:1024900051FCE388012B054601D0DB060BD5204615
:1024A000FFF74CFB064630B9204610213A46034B55
:1024B0005BF0D6F935462846F8BD00BF0D870C08FD
:1024C00038B504460D465BF051F9C0B1E388012BE5
:1024D00002D01B0600D438BD42F60923084AD35C5B
:1024E0003BB1204680212A46064B5BF0B9F900201B
:1024F00038BD20462946BDE838405BF07FBC38BD7A
:102500009813002022870C08F0B5124C85B0D4F83F
