:020000040800F2
:1040000000040020115300084D8108085181080860
:10401000B5810808518108088181080813530008F8
:10402000135300081353000813530008C5C60F08A4
:1040300013530008135300081353000813530008C8
:1040400013530008135300081353000813530008B8
:10405000135300081353000899301008C930100892
:10406000F9301008293110085931100855CA0F08C5
:1040700081CA0F08B1CA0F08E1CA0F0811CB0F0897
:104080003DCB0F086DCB0F08ADC80F08B57A0808F7
:10409000E97A08081D7B08081353000889311008C5
:1040A0001353000813530008135300081353000858
:1040B0001353000813530008135300081DD10F08B1
:1040C000E1D20F08135300081353000813530008DC
:1040D0001353000845E80F085DE80F0875E80F085E
:1040E000F531100813530008135300081353000848
:1040F00035E20F0813530008C9E10F089DCB0F08E4
:10410000135300089DD70F08CD391008135300082A
:104110008DE80F08135300081353000813530008C9
:10412000CDCB0F08F9CB0F0829CC0F0859CC0F08BD
:1041300089CC0F081353000813530008517B08085B
:10414000857B0808B97B080813530008F52B100875
:10415000B5CC0F08E5CC0F0815CD0F081353000898
:104160001353000813530008135300081353000897
:104170001353000813530008135300081353000887
:104180001353000813530008A5E80F08BDE80F08F3
:104190001353000813530008135300081353000867
:1041A0001353000813530008135300081353000857
:1041B0001353000813530008135300081353000847
:1041C0001353000813530008135300081353000837
:1041D0001353000813530008135300081353000827
:1041E000E97600087DA90008053D0108A5F1010850
:1041F0002D0502080D0E0208CD1102083116020825
:104200008D160208A11D0208093F0208CD7E020892
:104210006DC30208512303089DD40308CD4504084B
:10422000F14704084D700408D9730408CD800408D0
:10423000C11D0508ED2505086D29050821AA0508F9
:1042400009BF0608090E0708251D08085D6808084B
:104250002D6C08089D6D0808ED7B0808DD7F0808B7
:104260002586080861D30908D5DD090851FC09082D
:10427000C50C0A08D9250A080D260A08F1500A08B3
:10428000AD880A0851A30A080D3D0D08DD450D084B
:10429000A5810D08ADBD0D0829160E08ED1D0E08EF
:1042A000E93F0E084D4A0E08D9660E08CD8C0F085E
:1042B00081F0004102E000BF83F0004330B54FEAD7
:1042C00041044FEA430594EA050F08BF90EA020F44
:1042D0001FBF54EA000C55EA020C7FEA645C7FEAD7
:1042E000655C00F0E2804FEA5454D4EB5555B8BFFA
:1042F0006D420CDD2C4480EA020281EA030382EA6B
:10430000000083EA010180EA020281EA0303362DFC
:1043100088BF30BD11F0004F4FEA01314FF4801CCF
:104320004CEA113102D0404261EB410113F0004FE1
:104330004FEA03334CEA133302D0524263EB430398
:1043400094EA050F00F0A780A4F10104D5F1200E36
:104350000DDB02FA0EFC22FA05F2801841F1000191
:1043600003FA0EF2801843FA05F359410EE0A5F165
:1043700020050EF1200E012A03FA0EFC28BF4CF096
:10438000020C43FA05F3C01851EBE37101F000454C
:1043900007D54FF0000EDCF1000C7EEB00006EEB59
:1043A0000101B1F5801F1BD3B1F5001F0CD34908E3
:1043B0005FEA30004FEA3C0C04F101044FEA44523A
:1043C00012F5800F80F09A80BCF1004F08BF5FEAC1
:1043D000500C50F1000041EB045141EA050130BDA1
:1043E0005FEA4C0C404141EB010111F4801FA4F144
:1043F0000104E9D191F0000F04BF01460020B1FA99
:1044000081F308BF2033A3F10B03B3F120020CDAD0
:104410000C3208DD02F1140CC2F10C0201FA0CF0AE
:1044200021FA02F10CE002F11402D8BFC2F1200C13
:1044300001FA02F120FA0CFCDCBF41EA0C019040C9
:10444000E41AA2BF01EB0451294330BD6FEA040412
:104450001F3C1CDA0C340EDC04F11404C4F12002FD
:1044600020FA04F001FA02F340EA030021FA04F30F
:1044700045EA030130BDC4F10C04C4F1200220FA66
:1044800002F001FA04F340EA0300294630BD21FAA4
:1044900004F0294630BD94F0000F83F4801306BF6A
:1044A00081F480110134013D4EE77FEA645C18BF5E
:1044B0007FEA655C29D094EA050F08BF90EA020FF5
:1044C00005D054EA000C04BF1946104630BD91EAED
:1044D000030F1EBF0021002030BD5FEA545C05D1F0
:1044E0004000494128BF41F0004130BD14F580042F
:1044F0003CBF01F5801130BD01F0004545F0FE41A3
:1045000041F470014FF0000030BD7FEA645C1ABFD7
:10451000194610467FEA655C1CBF0B46024650EA0E
:10452000013406BF52EA033591EA030F41F400213A
:1045300030BD00BF90F0000F04BF0021704730B5C0
:104540004FF4806404F132044FF000054FF0000195
:1045500050E700BF90F0000F04BF0021704730B556
:104560004FF4806404F1320410F0004548BF40422B
:104570004FF000013EE700BF42004FEAE2014FEA80
:1045800031014FEA02701FBF12F07F4393F07F4F5B
:1045900081F06051704792F0000F14BF93F07F4F8D
:1045A000704730B54FF4607401F0004521F00041D0
:1045B00020E700BF50EA010208BF704730B54FF056
:1045C00000050AE050EA010208BF704730B511F05B
:1045D000004502D5404261EB41014FF4806404F193
:1045E00032045FEA915C3FF4DCAE4FF003025FEA15
:1045F000DC0C18BF03325FEADC0C18BF033202EB9D
:10460000DC02C2F1200300FA03FC20FA02F001FAF6
:1046100003FE40EA0E0021FA02F11444C1E600BF95
:1046200070B54FF0FF0C4CF4E06C1CEA11541DBF48
:104630001CEA135594EA0C0F95EA0C0F00F0DEF813
:104640002C4481EA030621EA4C5123EA4C5350EAF8
:10465000013518BF52EA033541F4801143F4801349
:1046600038D0A0FB02CE4FF00005E1FB02E506F0DA
:104670000042E0FB03E54FF00006E1FB03569CF02F
:10468000000F18BF4EF0010EA4F1FF04B6F5007F35
:1046900064F5407404D25FEA4E0E6D4146EB0606A7
:1046A00042EAC62141EA55514FEAC52040EA5E5030
:1046B0004FEACE2EB4F1FD0C88BFBCF5E06F1ED8DA
:1046C000BEF1004F08BF5FEA500E50F1000041EB11
:1046D000045170BD06F0004646EA010140EA0200BE
:1046E00081EA0301B4EB5C04C2BFD4EB0C0541EAE0
:1046F000045170BD41F480114FF0000E013C00F3F5
:10470000AB8014F1360FDEBF002001F0004170BD18
:10471000C4F10004203C35DA0C341BDC04F1140431
:10472000C4F1200500FA05F320FA04F001FA05F2BD
:1047300040EA020001F0004221F0004110EBD3708A
:1047400021FA04F642EB06015EEA430E08BF20EAB6
:10475000D37070BDC4F10C04C4F1200500FA04F359
:1047600020FA05F001FA04F240EA020001F00041EB
:1047700010EBD37041F100015EEA430E08BF20EA5E
:10478000D37070BDC4F1200500FA05F24EEA020EA6
:1047900020FA04F301FA05F243EA020321FA04F0D5
:1047A00001F0004121FA04F220EA020000EBD3708C
:1047B0005EEA430E08BF20EAD37070BD94F0000F8C
:1047C0000FD101F00046400041EB010111F4801FC0
:1047D00008BF013CF7D041EA060195F0000F18BF71
:1047E000704703F00046520043EB030313F4801FAD
:1047F00008BF013DF7D043EA0603704794EA0C0F67
:104800000CEA135518BF95EA0C0F0CD050EA41067C
:1048100018BF52EA4306D1D181EA030101F00041F9
:104820004FF0000070BD50EA410606BF1046194621
:1048300052EA430619D094EA0C0F02D150EA01362D
:1048400013D195EA0C0F05D152EA03361CBF10466E
:1048500019460AD181EA030101F0004141F0FE410D
:1048600041F470014FF0000070BD41F0FE4141F491
:10487000780170BD70B54FF0FF0C4CF4E06C1CEA91
:1048800011541DBF1CEA135594EA0C0F95EA0C0F46
:1048900000F0A7F8A4EB050481EA030E52EA033501
:1048A0004FEA013100F088804FEA03334FF0805522
:1048B00045EA131343EA12634FEA022245EA11154F
:1048C00045EA10654FEA00260EF000419D4208BF00
:1048D000964244F1FD0404F5407402D25B084FEAAD
:1048E0003202B61A65EB03055B084FEA32024FF459
:1048F00080104FF4002CB6EB020E75EB030E22BFB6
:10490000B61A754640EA0C005B084FEA3202B6EB75
:10491000020E75EB030E22BFB61A754640EA5C0024
:104920005B084FEA3202B6EB020E75EB030E22BFB4
:10493000B61A754640EA9C005B084FEA3202B6EBB5
:10494000020E75EB030E22BFB61A754640EADC0074
:1049500055EA060E18D04FEA051545EA16754FEAD6
:1049600006164FEAC30343EA52734FEAC2025FEAF4
:104970001C1CC0D111F4801F0BD141EA00014FF083
:1049800000004FF0004CB6E711F4801F04BF014354
:104990000020B4F1FD0C88BFBCF5E06F3FF6AFAE70
:1049A000B5EB030C04BFB6EB020C5FEA500C50F100
:1049B000000041EB045170BD0EF0004E4EEA113183
:1049C00014EB5C04C2BFD4EB0C0541EA045170BD8A
:1049D00041F480114FF0000E013C90E645EA060ECE
:1049E0008DE60CEA135594EA0C0F08BF95EA0C0FFC
:1049F0003FF43BAF94EA0C0F0AD150EA01347FF444
:104A000034AF95EA0C0F7FF425AF104619462CE71A
:104A100095EA0C0F06D152EA03353FF4FDAE10467D
:104A2000194622E750EA410618BF52EA43067FF4CE
:104A3000C5AE50EA41047FF40DAF52EA43057FF45E
:104A4000EBAE12E74FF0FF3C06E000BF4FF0010C69
:104A500002E000BF4FF0010C4DF804CD4FEA410CCD
:104A60007FEA6C5C4FEA430C18BF7FEA6C5C1BD09A
:104A700001B050EA410C0CBF52EA430C91EA030F1B
:104A800002BF90EA020F0020704710F1000F91EA78
:104A9000030F58BF994208BF90422CBFD8176FEA46
:104AA000E37040F0010070474FEA410C7FEA6C5C14
:104AB00002D150EA013C07D14FEA430C7FEA6C5C1B
:104AC000D6D152EA033CD3D05DF8040B704700BF47
:104AD0008446104662468C461946634600E000BF95
:104AE00001B5FFF7B7FF002848BF10F1000F01BD67
:104AF0004DF808EDFFF7F4FF0CBF012000205DF832
:104B000008FB00BF4DF808EDFFF7EAFF34BF0120B6
:104B100000205DF808FB00BF4DF808EDFFF7E0FF4F
:104B200094BF012000205DF808FB00BF4DF808EDA0
:104B3000FFF7CEFF94BF012000205DF808FB00BF07
:104B40004DF808EDFFF7C4FF34BF012000205DF8E9
:104B500008FB00BF4FEA410C7FEA6C5C02D150EACF
:104B6000013C0AD14FEA430C7FEA6C5C02D152EA65
:104B7000033C02D14FF0000070474FF00100704736
:104B80004FEA410212F5001215D211D56FF4787375
:104B9000B3EB625212D94FEAC12343F0004343EA18
:104BA000505311F0004F23FA02F018BF40427047F3
:104BB0004FF00000704750EA013005D111F000407D
:104BC00008BF6FF0004070474FF00000704700BF13
:104BD0004A0011D212F5001211D20DD56FF478737C
:104BE000B3EB62520ED44FEAC12343F0004343EAD1
:104BF000505323FA02F070474FF00000704750EA1C
:104C0000013002D14FF0FF3070474FF00000704785
:104C10004FEA4102B2F1E04324BFB3F5001CDCF1DE
:104C2000FE5C0DD901F0004C4FEAC0024CEA507016
:104C3000B2F1004F40EB830008BF20F00100704745
:104C400011F0804F21D113F13872BCBF01F0004048
:104C5000704741F480114FEA5252C2F11802C2F17A
:104C6000200C10FA0CF320FA02F018BF40F00100FB
:104C70004FEAC1234FEAD32303FA0CFC40EA0C00AD
:104C800023FA02F34FEA4303CCE77FEA625307D1EA
:104C900050EA01331EBF4FF0FE4040F44000704721
:104CA00001F0004040F0FE4040F40000704700BFBB
:104CB00080F0004002E000BF81F0004142001FBFD1
:104CC0005FEA410392EA030F7FEA226C7FEA236CDA
:104CD0006AD04FEA1262D2EB1363C1BFD2184140CF
:104CE00048404140B8BF5B42192B88BF704710F065
:104CF000004F40F4000020F07F4018BF404211F008
:104D0000004F41F4000121F07F4118BF494292EA6F
:104D1000030F3FD0A2F1010241FA03FC10EB0C009B
:104D2000C3F1200301FA03F100F0004302D5494228
:104D300060EB4000B0F5000F13D3B0F1807F06D3D5
:104D400040084FEA310102F10102FE2A51D2B1F1CD
:104D5000004F40EBC25008BF20F0010040EA0300C2
:104D60007047490040EB000010F4000FA2F101026F
:104D7000EDD1B0FA80FCACF1080CB2EB0C0200FAF9
:104D80000CF0AABF00EBC25052421843BCBFD04047
:104D90001843704792F0000F81F4000106BF80F4C1
:104DA00000000132013BB5E74FEA41037FEA226C84
:104DB00018BF7FEA236C21D092EA030F04D092F04F
:104DC000000F08BF0846704790EA010F1CBF002083
:104DD000704712F07F4F04D1400028BF40F00040E0
:104DE000704712F100723CBF00F50000704700F000
:104DF000004343F0FE4040F4000070477FEA226227
:104E000016BF08467FEA23630146420206BF5FEAF7
:104E1000412390EA010F40F4800070474FF00003F7
:104E200004E000BF10F0004348BF40425FEA000CBE
:104E300008BF704743F0964301464FF000001CE066
:104E400050EA010208BF70474FF000030AE000BFBC
:104E500050EA010208BF704711F0004302D54042FA
:104E600061EB41015FEA010C02BF8446014600206C
:104E700043F0B64308BFA3F18053A3F50003BCFA87
:104E80008CF2083AA3EBC25310DB01FA02FC634434
:104E900000FA02FCC2F12002BCF1004F20FA02F23B
:104EA00043EB020008BF20F00100704702F120022E
:104EB00001FA02FCC2F1200250EA4C0021FA02F28F
:104EC00043EB020008BF20EADC7070477BB972B97F
:104ED0000029BEBF00204FF0004106E008BF0028B7
:104EE0001CBF6FF000414FF0FF3000F00FBAADF182
:104EF000080C6DE904CE002909DB002B1ADB00F059
:104F000097F8DDF804E0DDE9022304B07047404281
:104F100061EB4101002B1BDB00F08AF8DDF804E0B7
:104F2000DDE9022304B0404261EB4101524263EBF0
:104F300043037047524263EB430300F079F8DDF816
:104F400004E0DDE9022304B0404261EB4101704717
:104F5000524263EB430300F06BF8DDF804E0DDE957
:104F6000022304B0524263EB4303704753B94AB97A
:104F7000002908BF00281CBF4FF0FF314FF0FF3061
:104F800000F0C4B9ADF1080C6DE904CE00F050F8A2
:104F9000DDF804E0DDE9022304B07047430803F0C4
:104FA0005533C01A830803F0333300F0333018440C
:104FB00000EB101000F00F3000EB002000EB004081
:104FC000000E704780EA104080EA102080EA10103E
:104FD00046F6961300F00F0043FA00F000F00100CF
:104FE000704700BFD0B5FFF7C7FA00220E4B064648
:104FF0000F46FFF715FBFFF7EBFD0446FFF79AFAA4
:1050000000220A4BFFF70CFB02460B46304639469E
:10501000FFF752F9FFF7DCFD2346002242EA0002C7
:1050200010461946D0BD00BF0000F03D0000F04121
:105030002DE9F0478C460D460446089E002B51D1C1
:105040008A4217466DD9B2FA82FEBEF1000F0BD02C
:10505000CEF1200C01FA0EF520FA0CFC02FA0EF744
:105060004CEA050C00FA0EF44FEA174A250CBCFB7B
:10507000FAF81FFA87F90AFB18CC45EA0C4508FB39
:1050800009F3AB420AD9ED1908F1FF3280F0238110
:10509000AB4240F22081A8F102083D44ED1AA4B2CF
:1050A000B5FBFAF00AFB105544EA054400FB09F988
:1050B000A14509D9E41900F1FF3380F00A81A14527
:1050C00040F2078102383C44A4EB090440EA08405E
:1050D0000021002E61D024FA0EF4002334607360A6
:1050E000BDE8F0878B4207D9002E54D0002186E816
:1050F00021000846BDE8F087B3FA83F1002940F0AB
:105100008E80AB4202D3824200F2FA80841A65EBB1
:1051100003050120AC46002E3FD086E81010BDE804
:10512000F08712B90127B7FBF2F7B7FA87FEBEF195
:10513000000F34D1EB1B3A0C1FFA87FC0121B3FBA3
:10514000F2F8250C02FB183345EA03450CFB08F383
:10515000AB4207D9ED1908F1FF3002D2AB4200F2A1
:10516000D1808046ED1AA3B2B5FBF2F002FB1055D8
:1051700043EA05440CFB00FCA44507D9E41900F1FF
:10518000FF3302D2A44500F2B8801846A4EB0C0409
:1051900040EA08409DE731463046BDE8F087CEF151
:1051A000200405FA0EF307FA0EF720FA04F83A0C79
:1051B00025FA04F448EA0308B4FBF2F14FEA184573
:1051C00002FB11441FFA87FC45EA044501FB0CF37E
:1051D000AB4200FA0EF409D9ED1901F1FF3080F06D
:1051E0008A80AB4240F2878002393D44EB1A1FFAB5
:1051F00088F5B3FBF2F002FB103345EA034500FBF0
:105200000CF3AB4207D9ED1900F1FF386FD2AB4276
:105210006DD902383D44EB1A40EA01418FE7C1F1F4
:10522000200722FA07F88B4005FA01F448EA030345
:1052300020FA07FE4FEA134CFD404EEA040EB5FB80
:10524000FCF94FEA1E440CFB19551FFA83F844EA97
:10525000054509FB08F4AC4202FA01F200FA01FA32
:1052600008D9ED1809F1FF3043D2AC4241D9A9F178
:1052700002091D442D1B1FFA8EFEB5FBFCF00CFB32
:1052800010554EEA054400FB08F8A04507D9E4187C
:1052900000F1FF3529D2A04527D902381C4440EA45
:1052A0000940A4EB0804A0FB02894C45C6464D46C4
:1052B00015D312D056B1BAEB0E0364EB050404FA11
:1052C00007F7CB401F43CC40376074600021BDE836
:1052D000F0871846F8E69046E0E6C245EAD2B8EB19
:1052E000020E69EB03050138E4E72846D7E740469C
:1052F00091E78146BEE7014678E702383C4445E73E
:10530000084608E7A8F102083D442BE7704700BFB4
:1053100002E000F000F8FEE772B6394880F3088832
:10532000384880F3098838484EF60851CEF200011B
:10533000086040F20000CCF200004EF63471CEF26C
:1053400000010860BFF34F8FBFF36F8F40F2000082
:10535000C0F2F0004EF68851CEF200010860BFF3B3
:105360004F8FBFF36F8F4FF00000E1EE100A4EF643
:105370003C71CEF200010860062080F31488BFF370
:105380006F8FFDF081F8FCF011F94FF055301F4997
:105390001B4A91423CBF41F8040BFAE71C49194AE9
:1053A00091423CBF41F8040BFAE71A491A4A1B4BD9
:1053B0009A423EBF51F8040B42F8040BF8E7002074
:1053C0001749184A91423CBF41F8040BFAE7FDF037
:1053D0005FF8FCF0B1F9144C144DAC4203DA54F808
:1053E000041B8847F9E702F06FF9114C114DAC42EC
:1053F00003DA54F8041B8847F9E7FDF047B80000CA
:1054000000040020002400200040000800000020CC
:105410000004002078E812080024002070280020F2
:10542000702800204C450120E0410008B0420008EF
:10543000B0420008B04200082DE9F04F2DED108A6F
:10544000C1F80CD0C3689D46BDEC108ABDE8F08F52
:10545000FBF090FC002383F311882846A04700202E
:10546000FBF086FEFBF080FCFBF0B6FBFBF082FC61
:1054700000DFFEE701F0FF01102A2BDB10F0070F21
:1054800008D010F8013B013A8B422DD010F0070FE5
:1054900042B3F6D1F0B441EA012141EA014122F0E0
:1054A00007047FF000070023F0E80256083C85EA75
:1054B000010586EA010685FA47F5A3FA87F586FA1B
:1054C00047F6A5FA87F68EB9EED1F0BC01F0FF01E0
:1054D00002F0070232B110F8013B013A83EA0103FE
:1054E00013B1F8D10020704701387047002D06BF76
:1054F00035460338073815F0010F07D1013015F490
:10550000807F02BF013015F4C03F0130F0BC01388C
:10551000704700BFEC46A0E8F05F4FF00000704716
:10552000B0E8F05FE546080008BF0120704700BF03
:1055300010F8012B11F8013B012A28BF9A42F7D03D
:10554000D01A7047034613F8012B002AFBD1181A12
:105550000138704700207047084A13780133DBB2E6
:105560001D2B05D900231370036801219B68184780
:105570001370036800219B68184700BF00240020B7
:105580002DE9F04742F61033DFF8AC8058F80330CD
:105590005B7913F0040433D081468A461CF042F84C
:1055A00090F83C60C6B100252C462F4602E0B4427C
:1055B000254610DA1CF036F80134012DE4B2F6DC91
:1055C00005EB850500EB85056B7D032B08BF0127E7
:1055D000B4422546EEDB17B90120BDE8F08742F65C
:1055E000103458F8040077F0B5F9B0F57A7F0DD093
:1055F000484651460D4A7BF0E9FD0020BDE8F087A2
:105600000B4A7BF0E3FD2046BDE8F08758F8040024
:1056100077F0B0F9B0F5FA6FDED048465146054A4A
:105620007BF0D4FD0020BDE8F08700BF60AA100821
:1056300040AA100884AA1008802800208368012B43
:1056400001D05B061AD5104B41F2F0429A56AAB12E
:1056500010B542F2C41441F2F2421C599A5EB4F9F8
:1056600006309A4282B00BDD084B00930A46084B85
:1056700040217BF0EBFB002002B010BD0120704701
:10568000012002B010BD00BF8028002068AC1008C7
:105690007423110870B58EB005460E46322201A95A
:1056A0000C4867F0D3FD044640B99DF9043043B17E
:1056B00001AB31462846084A7BF088FD20460EB0F3
:1056C00070BD28463146054B034A7BF07FFD2046DE
:1056D0000EB070BD3048002074231108C0AC100813
:1056E00070B51D4C82B0054620460E4614F0ECFE07
:1056F000D0B142F27823E35CDB0719D40DF1060246
:1057000001A9164843F01CFEBDF80430002BD4BF9D
:105710000124002405D032462846114B20217BF07D
:1057200095FB204602B070BD0124204602B070BD3A
:1057300041F2C84319210B48E45E42F0F9FB844270
:10574000DCDD28463246084B20217BF07FFB00241D
:10575000204602B070BD00BF80280020CC5A002037
:1057600080AC1008B83900209CAC10088368012B6D
:1057700001D09B0625D570B590B00D46044654F077
:1057800075FB54F0F7F9002854D1504E41F2F04324
:10579000F356C3B142F2C41241F2F243B258F35E7F
:1057A000B2F90A1003F10A02914203DD40F28D3290
:1057B000934208DC2A462046454B20217BF046FBDD
:1057C0003EE00120704741F2B04341F65832F35AAF
:1057D000A3F57A739BB2934235D843F250033D4A06
:1057E000F35892ED007AD3ED097AB4EEE77AF1EE50
:1057F00010FA2FDC92ED017AD3ED0A7AB4EEE77A53
:10580000F1EE10FA26DC41F2EC43F35E002B3ADDB8
:1058100041F22873F35C0D2B23D84FF4215222FA66
:1058200003F3DA071DD52A4620462B4B20217BF0B7
:105830000DFB05E02A462046284B20217BF006FB85
:10584000002010B070BD2A462046254B20217BF059
:10585000FDFAF5E72A462046224B20217BF0F6FA96
:10586000EEE729462046FFF73BFF0028E8D042F646
:105870000933F35CDB060DD52A4620461A4B20215E
:105880007BF0E4FADCE72A462046184B20217BF027
:10589000DDFAD5E743F254031549F05803AA322341
:1058A00070F04CFD48B143F250023223B058114918
:1058B00003AA6EF0BBFF0028C3D103AB00932A46B6
:1058C00020460D4B20217BF0C1FAB9E7802800204B
:1058D00040AB1008A03D002078AB1008D4AA1008F7
:1058E00054AB100864AB10080CAB1008F4AA1008F5
:1058F00024AB10083CAB100828AB10082DE9F0478A
:105900008EB00F46064618F097FB0368D3F8B43004
:1059100004469847054680B9236820465B6A984745
:10592000464B474A002818BF0346394630467BF0AD
:105930004DFC28460EB0BDE8F087424A43F66C4362
:10594000D05803689B68984780463F4866F030FD12
:1059500000F00609B8F1000F02D1B9F1000FE8D04C
:10596000384814F0DFFB80B9236820465B6A98470B
:105970000346002850D03046314A39467BF026FC99
:10598000002528460EB0BDE8F08704A9204618F08F
:10599000EDF918B19DF811305B0647D400230B9345
:1059A0000C930D9309930A932368DFF8B48009A937
:1059B00008AA0DF12C0902910192CDF80090D3F8BC
:1059C000D4A006AA07AB05A92046D047D8ED007A97
:1059D000F5EEC07AF1EE10FA09DD484635F054FDD7
:1059E000D8ED007AB4EEE70AF1EE10FA0DDA04F51C
:1059F000A871144805F0B4FB00289AD03946304607
:105A0000124A7BF0E3FB002593E739463046104A03
:105A10007BF0DCFB00258CE70E4BB8F1000FAAD120
:105A20000D48B9F1000F18BF0346A4E739463046C8
:105A30000A4A7BF0CBFB00257BE700BFF0AB1008E8
:105A40007423110880280020885900203CAC1008DD
:105A500050AC100804AC100810AC10082CAC1008A6
:105A60008C3D002008B5FFF749FF014BD87108BDF8
:105A7000587200202DE9F04742F61033334FFB589F
:105A80005B7913F0010402D00120BDE8F0870E46D7
:105A9000054654F0EBF9202154F058F868B154F061
:105AA000E5F91F2154F052F838B128463146284A0A
:105AB0007BF08CFB2046BDE8F08742F6EA23FB5CD6
:105AC00003F01403142B3BD0AB685BB3314628467C
:105AD0007CF068F8314681462846FFF747FE31469C
:105AE00082462846FFF74CFD314680462846FFF7A0
:105AF000A5FD314604462846FFF7CCFD42F60933A2
:105B0000FB5C9B0715D409EA0A0908EA090804EABC
:105B100008040440E4B2314628467BF0EDFF204003
:105B2000BDE8F0872B68314628461B6BBDE8F0477F
:105B30001847084A314628467BF048FB0024EAE72C
:105B4000054A314628467BF041FBBDE7802800200E
:105B5000C0AB100898AB1008A8AB100810B5FFF741
:105B600089FF054A054942F6E8238871D15C60F354
:105B70000411D15410BD00BF8028002058720020AD
:105B8000F8B505460E467BF0D5F9044610B3AB6870
:105B9000012B01D09A071DD5134874F085FBC0F383
:105BA0000027BFB9830515D50F4874F025FB0F4AB0
:105BB0009FED0F7A42F6F873D35807EE903AF8EE5D
:105BC000E77A30EE670AB0EEC00AB4EEC70AF1EE2B
:105BD00010FA01DC2046F8BD32462846054B02216A
:105BE0003C467BF033F9F5E7B058002080280020D0
:105BF0000000C842C0AA1008F8B505460F467BF061
:105C000085FBAB68012B044601D05B0705D51EF070
:105C100075F91EF00DF8064608B12046F8BD284675
:105C20003A46034B042134467BF010F92046F8BD78
:105C3000A8AA1008F8B505460E467BF00BFDAB6828
:105C4000012B044601D0DB0605D5084874F02CFB77
:105C500010F0010701D02046F8BD28463246044B1B
:105C600010213C467BF0F2F82046F8BDB0580020E9
:105C70002CAA100838B504460D467BF04DFA28B121
:105C8000A368012B03D01B0601D438BD38BD094AD7
:105C900042F6F573D35C2BB929462046BDE838405F
:105CA0007BF05CBD20462A46034B80217BF0CEF87A
:105CB000002038BD80280020DCAB1008F0B5134C64
:105CC00042F2BC1285B004F5075642F2C41542F206
:105CD000C813A258E3586559366800926A46039380
:105CE00001960F46064602957BF082FF394605462F
:105CF00030467BF0D7F842F6E8222840A35C60F3F8
:105D0000C303C3F3C000A35405B0F0BD8028002036
:105D10002DE9F04105460F46FFF7F0FD28B91E4B6F
:105D20000024DC712046BDE8F08143F66C431B4E35
:105D30000446F05803689B6898478046184866F008
:105D400037FBB8F1000F1CD0AB68012B07D01B0745
:105D500005D4114B0122DA712046BDE8F08196F896
:105D6000783241F2D64206EBC313B25EB3F810317B
:105D700093420ADC394628467BF0F6F80028E8D141
:105D8000CDE710F0060FDFD1E3E73A462846054B92
:105D900008217BF05BF8C2E75872002080280020C1
:105DA000885900201CAA100870B586B005460E461A
:105DB0007BF02EFA044648B1AB68012B01D09B065C
:105DC00004D5164A43F2B513D35C13B9204606B086
:105DD00070BD05AA04A9124861F0C6FB0028F5D0E1
:105DE000DDED057A9FED0F7AF4EEC77AF1EE10FA49
:105DF000ECD817EE900AFEF7BFFBDDED047A0A4BF4
:105E0000FDEEE77ACDE9020132462846CDED007A73
:105E100020217BF01BF80024D8E700BF8028002059
:105E2000783F00209A99193FD8AC10082DE9F0432B
:105E300083B00646884618F0FFF80368D3F8B03000
:105E40000546984700287FD0284618F0FBF850B93F
:105E50001EF054F890F85830F42202FB030090F83A
:105E60007140002C7AD0844F43F66C4242F6EC230A
:105E7000B85817F803900368A8F10101B1FA81F14D
:105E80001B69490998470446002854D0012130462F
:105E9000FFF776FB0446002852D042F6EA23FB5C6B
:105EA00003F01403142B00F0A58053F0DFFF1F2133
:105EB00053F04CFE002800F0C08053F0D7FF1F21A4
:105EC00053F044FE20B16D4B1B78002B40F08A80CC
:105ED000B368ABB3012B01D0DC0645D5D5ED5A7ABA
:105EE00095ED590A20EE270AFEF0A4F841F2B043DE
:105EF000DFED637AFB5EDFED636A60EE277A07EE23
:105F0000103A67EEA67AB8EEC77AF4EEC77AF1EEE9
:105F100010FA00F38A80B368012B25D142F60933C9
:105F2000FB5CDB0638D53046574B012220217AF046
:105F30008DFF002404E03046544A01217BF046F9ED
:105F4000204603B0BDE8F0830446514A30460121A3
:105F50007BF03CF9204603B0BDE8F08330464D4A63
:105F600001217BF033F9EBE7980604D542F60932BC
:105F7000BA5CD206D7D459060ED4474B474A1B68A1
:105F8000986C03689B6993426CD14146304603B0DC
:105F9000BDE8F0437BF08EB841F2F043FB5683BB83
:105FA000B8F1010F03D109F0EF03042BE5D042F261
:105FB000C4133148FB58B3F9083000EE103AB8EE7C
:105FC000C00A00F0B9FAB5EEC00AF1EE10FA37DDFA
:105FD000334B00933046334B012240217AF036FF99
:105FE0000024ADE753F0B4F82F4A02214AF02EFC0A
:105FF0000024A5E730462D4A01217BF0E7F8002474
:106000009EE742F2C41341F2F242FB58BA5EB3F982
:1060100006309A42C4DD224B00933046244B0122C5
:1060200040217AF013FF00248AE73046214B0122F9
:1060300010217AF00BFF002482E7104B187047E71D
:1060400043F66C43F8580368DB68984710B9B9F118
:106050000B0F92D142F2C413FB58B3F90830002B56
:10606000B6DC8AE7984701288FD10146124A3046AC
:106070007BF0ACF8002463E7802800201C7B002024
:10608000E02E65420000C8420CAB1008A4A910081D
:10609000F0AB100890A91008806E0020555500083C
:1060A000CCA91008C0A91008E8A91008A8AB1008CE
:1060B00008AA1008B8A91008D8A910082DE9F041BD
:1060C000574C2378E3B9574F42F610354FF001088B
:1060D0007D5984F800806D79ED0704D5237046461C
:1060E0003046BDE8F0817AF03DFE064660B94E4A82
:1060F0002070137843F0010313703046BDE8F0813F
:1061000000263046BDE8F08144F0C4FF414644F02B
:10611000F9FA384606F0E4FE444B0B2583F8048078
:106120003BF060FB3BF0D4FA013DF9D13D4800F073
:1061300043FE17F081FF42F634338269FA5090F83B
:106140006031DA0780465DD59B074CD50021354884
:1061500000F0B8FE334813F0E5FF0146344879F00B
:10616000CDFA98F88C30334A43F00403126888F86B
:106170008C30906C01212EF057FB43F2DC13294840
:10618000FA5C6FF34102FA5412F012FC42F610333B
:106190000121F85877F024FF44F07CFF0A2144F0F5
:1061A00009FF44F077FF42F6EC2342F6ED22F95C5A
:1061B000BA5C44F00FFC1B4806F084FE002542F058
:1061C00081FB41F0BDFF257082F024F81A4BD9788D
:1061D0009A7843F2640465F3410142F02002D970D9
:1061E00038519A707CE729460E4805F05BF8134851
:1061F00074F002F8DFED127A124B20EE270A83EDDD
:10620000000AA3E70368D3F8CC30984744F042FF74
:106210003C2144F0CFFE0B4B00221A6096E700BFF2
:1062200070280020802800207472002058720020FE
:10623000D0460020806E002068530020B058002017
:106240000AD7233C785300202DE9F04742F610335B
:106250003A4EF3585B79DB0784B004D40125284615
:1062600004B0BDE8F0877AF0AFFD05460028F6D00F
:1062700017F0E2FE81461DF041FED9F8003082465B
:10628000D3F890304846984718B19AF94F30022B0E
:106290003BD043F66C432A48F358834231D00AF08E
:1062A00049FD0121254807F04BF80121234806F05C
:1062B00069FF44F0EFFE0B2144F07CFE42F6103300
:1062C0000021F05877F08CFE1E4835F017FB44F0A3
:1062D000E1FE002144F016FA99F88C301A4A6FF367
:1062E0008203126889F88C30906C00212EF09CFAA1
:1062F000164B9A7828466FF345129A7004B0BDE8A1
:10630000F08718460AF00AFDCBE70027002401E0D9
:10631000032CBED05FFA84F8414601AA4846019793
:106320000297039717F084FD01340028F0D041460E
:1063300001AA50461DF07AFAEAE700BF8028002043
:10634000B4670020A4650020806E00206853002000
:10635000014866F08BB800BF8859002042F6E82259
:1063600030B4835CC3F340158D4203D061F3451311
:10637000835409B930BC70470F2130BC02F04ABFCA
:1063800038B542F6E823C35CC3F341038B4218D00F
:1063900004460D4609B3012914D0012100F092FDF5
:1063A0001D21204602F036FF04F527503030104AF8
:1063B00006214AF04BFA42F6E823E25C65F342021A
:1063C000E25438BD1A2102F025FF04F52750303081
:1063D000084A06214AF03AFAEDE71B2102F01AFFBB
:1063E00004F527503030044A06214AF02FFAE2E73C
:1063F0005CAD10084CAD10083CAD100838B542F645
:106400000935435D03F001048C4209D061F30003B8
:106410004355DB070C4604D506F01EFB024B9C726D
:1064200038BD06F0EFF9F9E75872002042F609335B
:1064300010B4C25C034C61F341022173C2545DF895
:10644000044B70475872002010B5044653F00EFDFF
:10645000202153F07BFB04F52B53003093F82A20C6
:1064600018BF012060F3820283F82A2010BD00BF0C
:1064700090ED280A704700BF42F6093382B0C35C32
:106480000191DA0734D442F6E923C35C5B072FD5C8
:1064900000F5B95393ED007AB5EEC07AF1EE10FA3B
:1064A00034D9F7EE007AB4EEE77AF1EE10FA23DD94
:1064B000B7EE007A9FED1B0A83ED007ADDED017ADD
:1064C0009FED196AF8EEE76A00F5A850C6EE867AE5
:1064D000D0ED075A67EEA76A27EE800A66EEA77A24
:1064E000A7EE870A20EE060A20EE250A02B07047C2
:1064F0009FED0C0A02B07047F6EE006AB4EEE67A41
:10650000F1EE10FAD4D437EEC70AD7E707EE101A27
:1065100000F5A850D0ED077AB8EEC70A20EE270A9A
:10652000E8E700BF0000000000A08C4543F25403E0
:10653000C0586EF03DBE00BFF8B52DED048B42F69D
:106540000932815C11F0010405D142F6E9220546C9
:10655000825C530704D49FED320ABDEC048BF8BD76
:1065600041F2F44710EE106A12F052FBDFED2D9A63
:10657000EB5FDFED2B0A07EE900A08EE903AB0EEE3
:10658000691A00EE106AB8EEE79A32F079F9F8EE7F
:10659000E88A2146E85F4FF4C872B0EE408A32F0D4
:1065A00067F939EE687AE853B4EEC78AF1EE10FA6B
:1065B00018D505F5F853B3F9003053BB41F2EC435D
:1065C000EB5E002BB8BF5B429BB207EE903A38EE11
:1065D000478AF8EEE77A67EE887ABDEC048B87EE9F
:1065E000870AF8BD79EE288AF4EEC88AF1EE10FA2F
:1065F000B1D541F2EC4338EE688AEB5E00EE103A1A
:10660000B8EEC00A79EEE88A20EE088A88EE280AF9
:10661000A3E7002BB8BF5B429BB207EE903AD6E7E8
:106620000000000000007A4408B542F610330C4A1E
:10663000C05803681B6893420FD190ED280AF6EE0C
:10664000007A20EE270ADFED077AB4EE670AF1EE52
:1066500010FA48BFB0EE670A08BD9847EFE700BFE1
:10666000716400080000000000B543F2540283B0DA
:10667000825800F5405302A900F5465021ED010A69
:1066800093ED0B1A92ED080AD2ED390A283067F023
:1066900013F89DED010A03B05DF804FB10B52DED74
:1066A000028B43F25003B7EE001AC358DFED130A12
:1066B00093ED2B0A044632F0E3F842F6103243F22F
:1066C0005403A058E45803680D4A1B689342B0EE87
:1066D000408A04F128040ED190ED280A38EE408A51
:1066E0009FED080A28EE000ABDEC028B2046BDE8AB
:1066F00010406BF087BC9847F0E700BF0000000037
:106700007164000800007A4400F51D531846D3ED6B
:10671000066AD2ED007AD0ED035A91ED006A26EEBA
:10672000E77A67EEA57AA6EE257AE6EE267A81ED7F
:10673000007AC2ED007A704700F5F853B3F90030E3
:106740002BB183EAE370A0EBE37080B2704741F2B3
:10675000EC43C05E0028B8BF404280B2704700BF23
:1067600038B542F6103543595B79DB0750D542F610
:10677000E823C356002B4CDB43F66C430446C05859
:106780000368DB689847002842D142F6EC23E35CBB
:106790000B2B3FD043F254039FED227AE358D3ED05
:1067A0004A7AF0EEE77AF4EEC77AF1EE10FA2FD5D6
:1067B0006059383049F048FBB7EE001A90ED000AF6
:1067C000DFED190A32F05CF8B5EEC00AF1EE10FA0E
:1067D0001EDD04F54050303073F012FDDFED137A0A
:1067E000B0EEC00AB4EEE70AF1EE10FA10D542F2AC
:1067F000F05340F2E632E35803F2F313934207D822
:1068000042F2F453E35803F2F313934203D938BD31
:1068100038BD38BD38BD60599FED050ABDE8384028
:1068200076F0F4B800000034000000000000704270
:106830000AD7233C79F0C0BA5AF0CCBB63F006BC4F
:1068400013F01EBE04F064B95EF088BA12F0E2BA2A
:1068500012F076BA12F04ABA42F010B82FF05CBCCF
:1068600044F074B873F00CBB54F0B2BF51F096BC56
:1068700052F066BB11F09CBD12F008BD06F030BFAF
:1068800006F0E4BA05F010BD05F02EBC3AF020BFCA
:1068900011F01ABF403065F051BD00BF19F0DCBDEA
:1068A0005CF0F6B963F022BF0FF028BCFFF758BFC9
:1068B00011F0C0BE5EF094BA79F04CBD60F020BD1E
:1068C00012F0DEBA03F03CBC11F038BE11F0BABDD4
:1068D00053F050BA3DF004BF10B504463FF0FEF946
:1068E000074B084A1A60204613F038FA04F50450A2
:1068F0003830082332220449BDE8104041F048BD39
:106900001424002048D8110884AD100810B504469E
:1069100000F50450383041F09DFE04F506531C3359
:1069200004F540541B68E36210BD00BF06F046B991
:1069300009F096BE09F0C8BD0AF07AB870B543F602
:10694000E032154B8458036005462CB120462DF0EB
:10695000D9FF20461BF03AFA42F6A02242F6F01385
:10696000A8580E4AEA5008B11BF02CFA0C4B2B60C9
:1069700005F59D50083054F09DFC0A4BC5F8183AB7
:1069800005F6BC5605F6F854143C204649F090F83C
:10699000A642F9D1284670BDB4B11008F8D211084A
:1069A00078AD1008106C110810B5044600F61820D8
:1069B0002FF026FE43F25003E0580368DB6A984745
:1069C000204611F081FC04F517500121203017F00A
:1069D000FBF8204606F072FB204605F021FC20461D
:1069E00006F0A2FF204604F081FC204606F02CFEB3
:1069F00004F54250343054F0F1FE20464FF6FF715A
:106A000012F0D2FE00B910BD2046BDE8104002F0E1
:106A100091BC00BFFFF7C8BF10B512F07FF853F06C
:106A200025FA0368BDE810405B681847FFF7F4BF1C
:106A300010B5044606F0C0FB204612F055FE204675
:106A400004F00AFA2046BDE8104012F0B1BD00BFC4
:106A5000FFF7EEBF70B500F52C55383504462846D3
:106A60001AF046F91DF04AFA90F94D3003B970BD9D
:106A700042F6103304F59066E058383049F0E4F9F6
:106A8000B7EE001A90ED000ADFED100A31F0F8FEC3
:106A900094F9E834012B284608BF86ED1B0A002133
:106AA00019F0E2FFDFED0A7A9FED0A7A04F51F6420
:106AB00020EE270AD4ED007AA7EE870A304684ED4F
:106AC000000ABDE870401CF019BF00BF00000000C4
:106AD000CDCCCC3D6666663FFFF7BCBF10B501214B
:106AE000044612F061FE00B910BD43F66C43064A3D
:106AF000D05803681B6A98470028F5D12046BDE8A6
:106B0000104002F0B7BA00BF80280020FFF7E6BFB0
:106B100038B50221044612F047FE002840F0858077
:106B20000221204612F040FE002877D0204602F0D5
:106B300023FB4FF40031204612F036FE002869D1C5
:106B40004021204612F030FE002854D14FF48061DD
:106B5000204612F029FE002847D12021204612F0BD
:106B600023FEA0BB8021204612F01EFE00B304F5D8
:106B70000750103045F030FF1021204612F014FE6F
:106B800000B938BD43F2500304F50755E0586CF0E6
:106B900003F8103504F5B7512846183146F00EFFBA
:106BA00004F5AF5128460C31BDE8384046F0A2BE8E
:106BB0004FF48021204612F0F7FD0028D7D14FF482
:106BC0000021204612F0F0FD0028D0D1D4E743F692
:106BD0006C43E05803689B68984700283AD043F21A
:106BE0005403E0586EF002FFBCE704F50750103084
:106BF00045F0F0FBB1E704F507551035284645F0A0
:106C000083FB41F2A833E356002B9FD0284645F082
:106C100073FC9BE7204602F0BFFA91E70121204672
:106C200012F0C2FD002881D183E70121204612F035
:106C3000BBFD00287FF474AF43F66C43084AD0587C
:106C400003681B6A984700287FF46AAF204602F069
:106C500011FA65E720460DF001F90028BFD181E760
:106C600080280020FFF754BF10B50121044612F020
:106C70009BFD70B98021204612F096FD20B104F5ED
:106C80000750103045F0A2FD2046BDE8104002F04C
:106C90005BBC204602F070FAECE700BFFFF7E4BFF0
:106CA00010B5044606F09EF8204605F087FE204603
:106CB00006F08AF92046BDE8104013F00DBC00BF75
:106CC000FFF7EEBF38B54FF6FF71044612F06CFDCA
:106CD000002837D104F5255042F610352C30FEF748
:106CE0003BFC63595B79DB071BD404F5175020305C
:106CF00017F04EFD2046FFF7A7FB605941F2065200
:106D00000368A25C1B6941F22871615C984742F2FA
:106D1000C4136059E358B3F90E20B3F90A1075F0A3
:106D200039FE53F0B1F9204613F0C0FB42F6E823D8
:106D300043F6A531E35C074ADB43C3F3C013635456
:106D4000537138BD42F6E8230721E258204602F08D
:106D500091FABFE758720020FFF7B4BF2DE9F04168
:106D600000F180070646384625F004FADFF8408037
:106D7000002505E0D3F8C83058F8242093420DD1FF
:106D8000384623F07DFDECB204EB4403844206EB6D
:106D9000830305F10105EDDBBDE8F08148F82430FF
:106DA00006F541502C30BDE8F04172F0F9BF00BF4C
:106DB00074280020FFF7D2BFF8B500F51D5300F589
:106DC0002C56DA68326200F51D53183342F2F85738
:106DD0001B6873620446C05900F58C40503031F096
:106DE00003FD42F628323546A05004F52C53326A92
:106DF000EA626A6A1A6320464FF6FF7112F0D4FC09
:106E000000B9F8BDE25920460921BDE8F84002F07A
:106E100007BA00BF42F6E823C218C35C13F00603AA
:106E20004ED042F6E921415CC90749D510B45178EA
:106E30006FF30001517000F50751022B42F2BC12B2
:106E40000B688458B3F9083007EE903AB4F908306B
:106E500000F52C520BBF92ED086A92ED0B6AD2ED51
:106E6000095AD2ED0C5A07EE103AF8EEE77AB8EE6E
:106E7000C77A65EEE76A66EE277A00F51D52E7EEFF
:106E8000257AE7EE066A92ED067A92ED036A27EE1E
:106E9000877AA6EE867ABDEEC77A17EE103A23817E
:106EA00092ED036A92ED067A0A6867EE867AE6EE5C
:106EB000C77AFDEEE77A17EE903A13815DF8044B3E
:106EC000704700BF10B504462DED028B71B942F634
:106ED000E823C35C03F00603042B02D0BDEC028B55
:106EE00010BD11F0B3FBB0F57A7FF7D3204611F057
:106EF000CDFB42F6283240F2E631A3581B1A03F2CA
:106F0000F3138B42EAD900F58C431149A05050335A
:106F100081FB0312DB17C3EB621307EE103ADFEDC0
:106F20000D7AB8EEC78A28EE278AB0EE480AFCF040
:106F3000B5FE04F52C5383ED0B0AB0EE480AFDF0C4
:106F400001F804F52C5484ED0C0ABDEC028B10BD45
:106F50001F85EB5135FA8E3C10B5044611F05EFEEC
:106F60002046102112F020FC00B910BD2046BDE8DB
:106F7000104002F0B9BB00BFFFF7EEBF2DE9F04FA4
:106F80002DED028B0546D64B45F8083B044689B0EB
:106F9000203063F07BF9D34BD3491D6028463EF087
:106FA0003FFE04F140001AF03FF904F1800023F0A5
:106FB000D9FB04F5547018F03FF904F590601AF00D
:106FC00007FF04F618202EF091FE04F5895504F50C
:106FD00088501830183559F095FF284640F002FACD
:106FE00004F59D50083054F051F904F5A25904F508
:106FF0009E50143009F1080941F074FC48465BF0DA
:1070000067FD41F25043B94A0021E15404F5A35011
:10701000234413603AF0ECF9B54B1A68002A40F0AB
:107020001083B44A1C6004F5A9502260103002F0AD
:107030001BFCB14B0593049404AB04F5045093E896
:107040000600383041F064F904F5075004F5A85102
:10705000103043F015F942F2742242F2702004F528
:10706000A753062116332350A15404F50A5048F0C3
:107070009DFE04F50A501C3048F098FE42F2B02301
:107080004FF0010A04F50B5004F50C5604F51757A0
:1070900044F803A020371836043004F5115853F093
:1070A00025FE08F128082A463946304636F096FF74
:1070B00042F66C1B2A463946404638F0B3FF04EBD3
:1070C0000B05534642463146384615F013FE284616
:1070D00079F098FE894B44F80B30281D3EF07AFD7C
:1070E00018B942F6701304F803A004F5265042F6CE
:1070F000F01820303DF098FA814B44F8083004F540
:107100002956A04408F11C053036284614354EF0A7
:107110007BFBB542F9D142F6A02508F1980080F03A
:10712000ABFE631900220521DA801A8199804FF4A1
:1071300082701AF03FFE605104F52B50103080F041
:107140009BFE704B1A68002A00F0788242F6F0131A
:1071500042F6ED2142F6EF2242F6EC256A48E05075
:10716000002304F52B50635530306354A35476F05C
:107170008BFF04F52C5265490791B7EE008A0694FF
:10718000634982ED088A104608AB82ED0B8A3830DD
:1071900013E90C0000914FF4007119F0ABFA04F5FB
:1071A0003F50B0EE480A3C3048F000FF04F5405034
:1071B0000646B0EE480A1C36103048F0FFFD304657
:1071C0001AF096FA43F2300304F5405204F54155A3
:1071D000E1185048E050002353639363D36305F1F3
:1071E00048002B606B60AB60CF611AF081FA4FF4FE
:1071F0000043EB662E672C35284647493EF010FDCC
:10720000464B04F54250314634301D6054F01CFAB0
:1072100004F54450083065F0ABF804F5465043F2ED
:10722000B815283066F01CFA60193FF031FF3C4B6E
:10723000635104F547500C3063F0E0F904F547530F
:107240002833C3F81090374A37491360184604F5BD
:1072500048573EF0E5FC38461030303759F052FEC2
:10726000FF23BB733B75384630493EF0D9FC304BA9
:107270001D68002D40F0E88104F57456243604F5AD
:10728000495031460C301F6041F0D6FD04F56D5772
:1072900004F56A500C3743F6E83938306FF0B6F829
:1072A00004EB0908384669F0C1FD3946404676F0DE
:1072B000F5FE204B44F809301F49204A062388F880
:1072C00060300B781160002B3AD02B4601339BB213
:1072D00003EB430211F83220002AF7D130E000BF5F
:1072E00078AD10088070002090231108687D002080
:1072F00000730020B4B11008156A0008FCAC100837
:10730000F8D21108E87A002044B410082D6900086A
:107310006CB110082013120874111208647E00204A
:1073200038AD1008707D0020CCE41108C8FD1108AC
:10733000F07D002038FF100884EA1008BC7200209D
:1073400044F2A42A43F66C4104EB0A02104643F6C9
:107350007045BF4A605002906019138043F6AC47F5
:1073600006F042FABB4B6351E01943F6E84504EBE3
:10737000050B06F039FAB84AE251584606F034FADD
:1073800043F63C5743F62C5043F6345244F800B0D1
:1073900043F6305144F802B043F6385044F807B091
:1073A000AE4F675104F57552AD4FAE4D6750255045
:1073B000AD49116010460C301AF09AF904F5755079
:1073C000243000251AF094F94FF6FF77A74AA6F863
:1073D000505043F62458C6F89450A6F85270A6F8B8
:1073E00054703046A24916603EF01AFC3784378745
:1073F00004F80850727843F6E45102F0FE0265F397
:1074000041024FF0010843F60469727004EB090071
:107410008BF8D4508BF8F85004F801807BF072F9A7
:1074200043F63476934B44F80930A01906F0DCF9A2
:1074300043F67079904AA25104EB090043F6B47602
:1074400006F0D2F9A3198D4A44F80920184603938F
:1074500006F0CAF9039B8A4AA25143F6F47983F8ED
:107460003C5083F83D5004EB090006F0BDF944F2AE
:107470003006844B44F80930A01906F0B5F9824B68
:10748000A35144F2840904F58043002704EB090169
:10749000DF661F675F670846039106F0A5F9039949
:1074A0007A4B81F83C5044F2C80644F8093004EBAA
:1074B0000609484606F098F9754AA25144F20816A2
:1074C00089F83C50A01906F08FF944F24419714A2A
:1074D000A25104EB090006F087F944F284166E4AC3
:1074E00044F80920A01906F07FF96C4BA35144F22F
:1074F000182104F5834304EB0109DF67C3F88070AA
:107500004846039104F5844606F06EF90399644BEE
:107510006350583689F83C8089F83D5030461AF05F
:10752000E7F806F110001AF0E3F806F120001AF06F
:10753000DFF806F130001AF0DBF8029806F054F993
:1075400044F2E026574B44F80A30A01906F04CF9F3
:1075500044F29039544AA25104F5864004EB090BD9
:107560001C300FF0F1F844F2D03A584606F03CF9DE
:1075700004EB0A064D4A8BF83C50304644F809208B
:1075800044F2204906F030F904EB0902484B44F874
:107590000A30104686F83C5086F83D5044F2604A66
:1075A000029206F021F9029A424982F83C5004EB1B
:1075B0000A0B44F8091004F58946584606F014F9F8
:1075C0002036374B44F80A3030468BF83C808BF835
:1075D0003D501AF08DF806F110001AF089F806F106
:1075E00020001AF085F806F130001AF081F844F214
:1075F000AC59314A44F80A2004F5894004EB0906E5
:107600008BF889806C300AF015FB304606F0ECF8F8
:1076100004F58B42294944F8091042F60C3197666B
:10762000D766176757673565635C204643F00303E9
:10763000635409B0BDEC028BBDE8F08FC3F8008045
:1076400084E51F4880F0D0FD1E4880F0CDFD00BFCE
:10765000B872002040041108B00411081C0611087B
:107660003169000835690008396900080472002092
:1076700060781108E80611088C06110894071108B3
:10768000000811086C081108D0081108C00A110878
:10769000240B1108FC0B1108680C1108D40C1108FC
:1076A000640D1108A80E1108380E110828071108DA
:1076B00018121108980B1108CC0D1108F4121108BA
:1076C00074B1100888B1100838B5054A054B146824
:1076D00025680A462D6801462046A847002038BD87
:1076E000806E00208028002010B580F08BFF064CB3
:1076F000064B18602046FFF741FC2046044A054926
:10770000BDE81040FCF0A6B980280020806E002063
:10771000488200203D690008FA207047054A42F679
:10772000E823D05C00F00600A0F10200B0FA80F07F
:107730004009704780280020054A42F6E823D05CC3
:1077400000F00600A0F10400B0FA80F04009704794
:1077500080280020014812F049B800BF802800208E
:107760002DE9F84300F110010EC942F4E05243F450
:10777000E05341F4E051426183610161044624F029
:10778000EFFD90F8F83190F8CE2200EBC3130646D7
:1077900093F86930002A00F0D780012B40F3D480A1
:1077A0002269636942F0200243F020032261636191
:1077B0003DF018F8074620B190F90530002B40F055
:1077C000AE807A4D43F6B823EB563BB1226963692C
:1077D00042F0800243F08003226163615DF05CFB54
:1077E000814620B15DF0F2FA002840F0A48042F614
:1077F000E923EB5C5B0707D52269636942F48032B9
:1078000043F480332261636169485FF013FF18B16C
:10781000236943F080632361664BD3F80080B8F19D
:10782000000F00F0BB801921404640F071FB236936
:1078300000287DD143F4C04342F6EC222361AB5CC7
:10784000162B0BD801225C4902FA03F319400029D8
:1078500040F08F80594A134240F0A28054485FF0B4
:10786000F9FE18B1636943F08063636196F8F8111B
:10787000304624F045FD18B1A36943F02003A3610D
:1078800042F6E923EB5C580704D542F60933EB5C7A
:10789000D90769D527B13B6813B13B79DA0757D4CB
:1078A00043F6B823EB5623B143F64433EB5C002B8D
:1078B00053D1B9F1000F04D048465DF087FA002893
:1078C0005CD13B485FF0D0FE18B9A36943F08063F8
:1078D000A36143F6B423EB5C013B012B0BD804F10D
:1078E00010010EC941F4800142F4800243F4800388
:1078F00021616261A36142F27823EB5CDB0731D541
:10790000636943F480736361B8F1000F2AD0404685
:10791000192140F01DFB00283AD1BDE8F883226907
:10792000636942F0400243F040032261636148E72B
:1079300043F480737EE72269636942F0800243F07A
:1079400080032261636152E7002B7FF429AF2FE7A8
:10795000A36943F04003A361A2E7A36943F0800356
:10796000A361A6E7BDE8F883A36943F48033A3616C
:1079700090E7636943F4005363616FE748465DF045
:107980006DFA00289DD0A36943F08003A36198E7B6
:10799000A36943F48073A361BDE8F883236949E7D1
:1079A000636943F4C043636158E700BF8028002047
:1079B000783F0020C872002004A05000F8022F0079
:1079C00070B54FF4F8700D4616461AF0F9F93246C4
:1079D000044629464CF00EF8014B2360204670BD4A
:1079E00058B6100808B590F88030994204DC00EBD6
:1079F0008100D0F8840008BD42F01CFC4FF48021C7
:107A000042F004FC002008BD08B590F8803099428F
:107A100004DC00EB8100D0F8840008BD42F00AFCD1
:107A20004FF4802142F0F2FB002008BD0020704797
:107A30000020704700207047F030704700F5A270BA
:107A4000704700BF00F5CC70704700BF032070473F
:107A50000F4B42F6EC229A5C172A16D801200D49EA
:107A600000FA02F2114000290BBF502058201021CB
:107A7000182142F610329B5823B15B79DB0748BFCF
:107A800041F0C00040F00100704750201021F0E7A5
:107A900080280020F800AB00024A41F2B843D05CD5
:107AA000704700BF80280020034A41F21873D05667
:107AB000003018BF0120704780280020024A41F2A0
:107AC000BA43D056704700BF80280020024A42F6D1
:107AD000E823D05CC009704780280020704700BFB1
:107AE000F0B595B0044603A819F002FE43F66C43C6
:107AF0001A4AD058036803A99B6B984708B915B078
:107B0000F0BD247C80F086FBDDED047A9FED147AD5
:107B10000790F8EEE77A002167EE877A3323962202
:107B200020460192059E069D0B910C910D910E91A0
:107B30000F9110911191129100934FF6F877002454
:107B400007AA5721CDED0A7A08960995ADF84C7031
:107B50008DF84E4049F002FC15B0F0BD80280020A1
:107B60000AD7233C0F4A42F61033D058C8B100B5AB
:107B7000383083B048F068F9B7EE001A90ED000A8B
:107B8000DFED090A30F07CFEDFED087A20EE270AEF
:107B9000FDEEC07ACDED017ABDF9040003B05DF8C9
:107BA00004FB704780280020000000000000C8424D
:107BB000014807F06DBB00BF6865002070B541F259
:107BC0001C730B4CE358DB0705460E46144603D5E1
:107BD0001146084876F066FE214607487AF096F985
:107BE000224631462846BDE8704051F0ADB800BF8E
:107BF00080280020686400208847002010B50446D3
:107C00004CF084FD054811F0F1FD054A03460621BC
:107C10002046BDE810404CF053BD00BF8028002036
:107C200030B5100838B504460D4680F0F3FA42F638
:107C3000FC23044AD05029462046BDE838404BF08A
:107C40004DBB00BF8028002010B442F2B812044C93
:107C5000A35C0133A3545DF8044B4BF0DDBA00BFC5
:107C60008028002010B508460C461AF047F808B9DD
:107C7000042010BD2146024802F024FE002010BD61
:107C8000906E0020014803F00DBB00BF802800204B
:107C9000014803F087BA00BF802800208A8B202A81
:107CA00010D10B6807EE903AF5EEC07AF1EE10FABB
:107CB00006DD9FED0C7AF4EEC77AF1EE10FA03D9E7
:107CC000032070474FF0BABAFCEEE77A82B0CDEDF0
:107CD000017A05499DF8043041F60A7200208B5262
:107CE00002B0704700007F438028002038B58B8B9E
:107CF000CD2B0C46054605D021462846BDE8384028
:107D00004BF0B8BA0E4A0F4843F2BA03D15C53F0B5
:107D10006BFD02460028EFD1A368DFED0B7A0B481C
:107D2000DFED0B0A00EE103A114620EE270A02F0B2
:107D30005BFD21462846BDE838404BF09BBA00BFAA
:107D400080280020345900200AD7233C906E002060
:107D50000000000038B50C464B7A897AE27A43EA93
:107D6000012343EA02439D2B054605D021462846C0
:107D7000BDE838404BF000BA0E4A0F4843F2BA0350
:107D8000D15C53F031FD02460028EFD1D4ED057AE5
:107D90009FED0A0A0A48DFED0B0AF8EEE77A114672
:107DA00027EE800A02F020FD21462846BDE8384033
:107DB0004BF0E2B980280020345900200AD7233C38
:107DC000906E00200000000038B50A4A43F24C23B0
:107DD000D3563BB94BF0DEF941F6CF1400252043D2
:107DE000294338BD4BF0D6F941F6CF340025204366
:107DF000294338BD8028002010B5044619F0E6FF5D
:107E0000204610BD38B50D4C42F6E823E356002B52
:107E100008DB43F66C45605903685B6B984718B103
:107E2000042038BD012038BD60590368DB6A9847DB
:107E3000002814BF0320022038BD00BF8028002086
:107E400038B54B69F7EE000A00EE103A0C460546CD
:107E500030F0B0FB28B921462846BDE838404EF046
:107E600081BF29460248BDE8384003F053BA00BF3D
:107E7000802800200B7ADB0706D50448CB6842F245
:107E8000347282581344CB60704700BF80280020B2
:107E9000044B187828B9044A42F6EA23D05CC0F3B0
:107EA0008010704784700020802800202DE9F04366
:107EB0002DED048B404C42F6E9238FB0E35C9B062A
:107EC00075D543F250030646E0589FED3C0A9FEDFE
:107ED0003C8A3C3033F092FB43F66C4361EE087A07
:107EE000E558CDED050AFDEEE77A2B688DED061A13
:107EF0008DED040ACDED037ADB6B96F81090BDF999
:107F00000C70284660EE888A20EE089A984707EEA3
:107F1000900AF8EEE77A2B6867EE887A1B6CFDEE24
:107F2000E77A2846CDED037ABDF90C60984707EE55
:107F3000900AF8EE677A9FED237A27EE888A43F25B
:107F40005403B4EEC78AF1EE10FA48BFFCEEC87ACB
:107F5000E05846BFCDED037ABDF80C804FF6FF78B0
:107F60006DF090F82B6828465B6CB0EE408A98471D
:107F7000DFED137A8DED079AB72220EE270A28EE5F
:107F8000278A1A23002401924846009307AA3E211B
:107F9000CDED088AADF83070ADF83260ADF83480C0
:107FA0008DED0B0A8DED098A0A9449F0D7F90FB0CF
:107FB000BDEC048BBDE8F083802800209F0CB34506
:107FC0000AD7233C00FF7F47F0B52DED068B484CC8
:107FD00043F66C4506466059036897B0DB699847DD
:107FE000002851D044F20413E35C012B68D0022B2B
:107FF0004ED043F258039FED3F0AE058443033F02F
:10800000FDFA6359CDED040A5B698DED051A186818
:10801000B0EE409A00F590709FED360A8DED039A10
:10802000F0EE418AB0EE608A33F0E8FAF1EE688A49
:10803000F0EE40AAF0EE609AB1EE41AA4FF47C67F0
:10804000357C80F0E7F88C223323002409900192DC
:1080500028460093012509AA55218DED0A9A8DED38
:108060000B8ACDED0C8ACDED0DAACDED0E9A8DEDDE
:108070000FAAADF8547010941194129413941494A0
:108080008DF8565049F06AF917B0BDEC068BF0BD7B
:1080900063599FED180A5B699FED178A1868DFED39
:1080A000178A00F5907033F0A9FAB0EE489AF0EE16
:1080B00040AAF0EE609AB1EE41AA40F6C777BFE75A
:1080C00043F258039FED0B0AE058DFED0B9A9FED4A
:1080D0000BAA443033F092FAF0EE69AAB0EE409A5F
:1080E000B0EE608AF1EE418A40F6F877A8E700BF6B
:1080F000802800200AD7233C0000000000000080F8
:1081000070B5A1F1190382B00446222B4DD8DFE8E7
:1081100003F03C4C4C4C4C4C4C4C4C4C4C3C4C4C64
:108120003F4C4C4C4C4C4C4C4C4C4C4C4C4C4C4C9C
:108130004C124C3C3C00007C4AF0F6FB0546207C8F
:1081400049F022FE253585422CDA217C1C4868F056
:1081500055FF1C4B1E68C6B1207C4AF0E5FB054666
:10816000207C49F011FE253585421BDA02AA002346
:1081700022F8023D382120464DF09EFE28B1217C98
:10818000BDF80620304664F0EDFE012002B070BD5F
:10819000007C4AF0C9FB0546207C49F0F5FD11350D
:1081A000854206DB002002B070BD4FF0A9FA02B094
:1081B00070BD0548217C41F0BFF90120E6E700BF12
:1081C000CC630020E47D0020CC5A00200B4B42F60B
:1081D00009329A5CD10703D442F6F571595C09B1B2
:1081E0000520704712F01E0FFAD142F6E8229B5686
:1081F000002BB4BF03200420704700BF802800205C
:1082000008B5084A41F20453D356032B03D0BDE806
:1082100008404EF09FB8044A02214CF051FA042065
:1082200008BD00BF802800203CB51008094B41F272
:108230001C729A5892070BD543F22002DFED067AA2
:108240009B5800EE103AB8EEC00A20EE270A70479D
:108250004AF0F4BD802800200AD7233C2DE9F04FD6
:108260002DED048B8BB0804616F0A2FC0368524CB7
:108270005B6B524E9FED528A9FED529ADFED528A10
:108280009847E71C81460125B6F9003005F1FF3A11
:1082900043FA0AF3DB0704D4A74216D014F8015BB3
:1082A000F2E798F810004AF03FFB834698F8100078
:1082B00049F06AFD0BF1180B834506DABAF1030F9A
:1082C000EAD8DFE80AF0645546070BB0BDEC048B32
:1082D000BDE8F08F3D4B186800F1600A16F068FCAD
:1082E0000368DB699847D0ED027A77EE897A5046C9
:1082F000F1EE677A0028CFD0D0ED005A90ED036AF6
:10830000D0ED046A90ED057A90ED065ACDED047A31
:1083100025EE085A65EE885A26EE086A66EE886AE7
:1083200067EE087A6222192398F8100001920093F0
:1083300003AAC2218DED055ACDED035A8DED066AD3
:10834000CDED076ACDED087A8DF8245049F006F896
:10835000A2E71F4B1F4A186803681B69934226D186
:1083600000F5CC70D9ED027A383067EEA87AC1E713
:10837000174B194A18680368DB68934219D100F556
:10838000A270D9ED017A383067EEA87AB2E7104BC7
:10839000124A186803689B68934206D1F030D9ED01
:1083A000007A383067EEA87AA4E79847F7E798474D
:1083B000D8E79847E5E700BF25B71008903D0020B3
:1083C0000AD7233C0AE81C41E02E6542D45800201D
:1083D000D0580020457A00083D7A0008397A000814
:1083E000014811F0F7B900BF80280020024A42F688
:1083F000EC23D05C704700BF80280020034A42F67F
:10840000E923D05CC0F34010704700BF80280020F3
:10841000F8B500F50754103494F859306FF30003A1
:1084200084F8593006467FF0F5FE1F4A1368C31AD8
:10843000B3F57A7F054629D81C4A1368EB1A142B2A
:1084400015D81B490B6841F28832EB1A934207D9C1
:1084500006F527500D603030164A062148F0F6F92F
:1084600094F8593043F0010384F85930F8BD06F50B
:10847000275730373846156050F062FD38464FF0C8
:108480008DFE06F5A35039F023F9DAE706F52757F4
:1084900030373846002115604DF06CF9384603211D
:1084A0004DF068F9C8E700BF886E00208C6E002090
:1084B000846E00203CB61008F0B58B8BB22B87B0D1
:1084C0000C4600F06081054615D940F6D81293425B
:1084D00000F09F803BD8D12B50D0B3F5967F00F0B1
:1084E0003381D02B00F0C3802146284607B0BDE879
:1084F000F0404FF051BF152B00F0DD8040F2CD80F1
:10850000202B00F09880732B00F06481162BEBD1A8
:108510008B68DFEDD36A9FEDD37AD34A07EE903AAA
:108520008B69F0EEE77A00EE103AF4EEE67A43F665
:108530006C43F1EE10FA4CBF0121002120EE070A36
:10854000D05811F019FEB0B9042007B0F0BD4AF2BE
:108550001242934241D04AF21342934200F0BD804E
:108560004AF211429342BFD1BF4842F60933C35C7D
:10857000D90740F16681002007B0F0BD0E69896817
:1085800062682368E468B84807EE906AFCEEE77A10
:1085900000EE104ACDED047A07EE901AFCEEE77A71
:1085A0002946CDED057A07EE902AFCEEE77A9DF894
:1085B0001020CDED027A07EE903AFCEEE77ABDF896
:1085C0001430CDED037A019200939DF80C209DF8B4
:1085D00008300FF0CBFD07B0F0BDA34E42F60933D3
:1085E000F05C10F00105C6D142F61033F35858790B
:1085F00010F0010700F0788142F6E823F356002BD3
:10860000C0F25B8130460222092105F083FC284636
:10861000E1E74B68954807EE903AFCEEE77ACDED3E
:10862000027A9DF80830012B0CBF0021012166F071
:10863000BBF90020CFE70B6807EE903AF5EEC07A61
:10864000F1EE10FA80DD9FED8A7AF4EEC77AF1EE52
:1086500010FA3FF679AFFCEEE77A8349CDED027A66
:1086600041F60A729DF808308B520020B3E70B6880
:1086700007EE903AFCEEE77ACDED027ABDF80810ED
:10868000012900F00D81C0F0018102297FF45CAF67
:10869000754803F0E7FA00209DE7112B14D0142B46
:1086A0007FF422AF022206216F4805F033FC002838
:1086B0003FF44AAF5FE7022209216B4805F02AFC2C
:1086C00000283FF441AF56E702220521664805F035
:1086D00021FC00283FF438AF4DE7634B42F60932E6
:1086E000985C10F001057FF446AF42F610329A58BC
:1086F0005279D2077FF53FAF42F6E8229A56002A18
:10870000C0F215810A689FED567A07EE902AF0EEC6
:10871000E77AF4EEC77AF1EE10FA07D442F6EC22CB
:108720009B5C03F0EF03042B3FF425AF02221121E1
:108730004D4805F0EFFB002800F08A8040F6C41198
:108740004C4808F0D5FB16E7474C42F61033E35887
:108750005B79D8077FF5F8AE02220321204605F0A9
:10876000D9FB00283FF4F0AE01212046FDF7F6FDCD
:1087700043F62453E35C012B3FF4FDAE3E4834F056
:10878000C1FD002027E74B6807EE903AF5EEC07A6E
:10879000F1EE10FA7FF7D8AE0B68DFED386A07EE1E
:1087A000103AB4EEE67AF1EE10FA00F3A480DFEDB1
:1087B000346A9FED2C0A2C4AB4EEE67A43F2580351
:1087C000F1EE10FA27EE800AD05872DD6FF0BCFC93
:1087D000002000E70B6800EE103AB5EEC00AF1EE9B
:1087E00010FAFFF6B1AEDFED277AB4EEE70AF1EE4C
:1087F00010FA3FF6A9AECB689FED197A07EE903AD2
:10880000F0EEE76AF4EEC76AF1EE10FA7FD5A268DF
:108810009FED137A63681C48F4EEC77A07EE902A3E
:10882000FDEEE77AF1EE10FACDED027AACBF01224F
:1088300000229DF9081000EE903A01F0D5FF0020CB
:10884000C9E60222052105F065FB00287FF493AEFE
:1088500002221146044805F05DFB0020BBE600BF84
:10886000000000340000C84280280020B05A0020D8
:1088700000007F43F0670020A46500209A993940EA
:108880003333F33F0000B443906E002000212A48A8
:108890005AF094FC2948312100F0BCFC00209AE6F3
:1088A00025485AF08BFC2548322100F0B3FC00200B
:1088B00091E66FF037FC00208DE60222052130465C
:1088C00005F028FB00283FF456AE2368DFED1C7A44
:1088D00000EE103A43F66C4320EE270AF0580121CF
:1088E00011F04AFC284676E6012211461548FDF7AC
:1088F000E5FB38466FE6114A9FED110A43F2580333
:1089000027EE800AD0586FF02DFC002063E600EEC1
:10891000103AF7EE000A2FF04DFE00283FF414AE97
:10892000236800EE103AE36807EE903A6FE70548D7
:10893000FDF78AFC28464EE6685A00208028002071
:108940000000C842EC51002008B50B6807EE103A51
:10895000F6EE007AB4EEE77AF1EE10FA01DC0420CC
:1089600008BD0248FDF770FC002008BDEC51002056
:108970002DE9F0432DED028B05464B7A887ACA7AB1
:1089800043EA002343EA0243872B9BB00C4619D8E5
:10899000862B80F0E881542B37D024D8452B00F06B
:1089A000DF80522B00F0F38133BBA74DCA7941F22F
:1089B000B843EB5E9A4223D17FF02CFC42F6FC23B5
:1089C000E8501DE0F62B00F0DC8100F23481A62B8C
:1089D00000F02781F32B00F03082952B0CD19B48BF
:1089E0006DF068FE0CE06D2B00F01B81842B00F015
:1089F000B281562B00F03A812146284650F01CF8EF
:108A00001BB0BDEC028BBDE8F083CD78352D28BFBF
:108A10003525352200210AA8FEF03CF92A460AA88D
:108A200004F10C01FEF010F943F66C43864AD0586D
:108A30000368DB6998470028E2D09DF85C50012D5F
:108A400002D0EB1F022BDBD8BDF85820002312F018
:108A5000070402F0380602F4E07902F4806802F4B8
:108A6000006703930493059323D19FED796ADDEDAD
:108A70000C6A9DED0D7ADDED0B7A66EE866A27EEC7
:108A8000467A67EE867AA5F10803012BCDED046ADC
:108A90008DED057ACDED037A40F2DD82EB1F022BDE
:108AA00000F2A3826B4871F0A3FB014603A832F0E9
:108AB0007BFD0023069307930893C6B99FED646A74
:108AC000DDED0F6A9DED107ADDED0E7A66EE866AB9
:108AD00027EE467A67EE867AA5F10803012BCDEDE5
:108AE000076A8DED087ACDED067A40F2D281B8F1B1
:108AF000000F40F003829DED140A9FED577ADFEDE1
:108B0000547A20EE070AA5F10801012920EE270A70
:108B10008CBF00210121002F40F0F481DDED150A0A
:108B20009FED4D7ADFED4A7A60EE870A60EEA70A84
:108B3000002C40F0EA81002E40F04B82B9F1000F8A
:108B40003FF45EAFB7FA87F77F09B8FA88F301916F
:108B500000975B0906AA03A940480AF05BFB4FE7B0
:108B6000394ECA7941F2B843F35E9A427FF448AF76
:108B7000CA780B2A4FF0000728BF0B220AA80C3135
:108B80000B970A97CDF82F70FEF05EF841F2B643CE
:108B90009DF83220F35E9A427FF432AFBDF92C800B
:108BA000B845FFF62DAF7FF035FB42F2BC1304460B
:108BB000F158BDF92A209FED2A0A4FF47A7328460E
:108BC0008DE8900050F08CFA06F50753BDF9282087
:108BD00019689FED230A00940123019328464FF45E
:108BE0007A7350F07DFA42F2C4130094F1589FED6D
:108BF0001D0A019742463B46284650F071FA42F260
:108C0000C813BDF92E20F1589FED150A4FF47A7361
:108C10008DE89000284650F063FA42F6FC23F450A9
:108C2000EEE60821084810F0BFFD2146024628461E
:108C30004BF0C6FDE4E6B3F5A57F40F09A800A4804
:108C40005EF0B6FBDCE600BF802800203863002021
:108C50000000C842B0580020E02E6542486900205C
:108C60000000FA4400007A44783F0020CE78352E88
:108C700028BF3526352200210AA8FEF00BF832461F
:108C80000AA804F10C01FDF0DFFF43F66C43BF4A74
:108C9000D0580368DB69984700283FF4B1AEBDF8AF
:108CA0005840002314F0070603930493059300F043
:108CB000418114F4806240F0F5809DED140A9FED2F
:108CC000B47A9DF85C10DFEDB37A20EE070A08391C
:108CD000012920EE270A8CBF0021012114F4006332
:108CE00040F0DD80DDED150A9FEDA97ADFEDA97A70
:108CF00060EE870A60EEA70A04F0380004F4E0741E
:108D0000002E40F0D380002840F05481002C3FF426
:108D100077AE9FEDA06ADDED0E6A9DED0F7ADDED79
:108D2000107A0191B3FA83F14909B2FA82F366EE3F
:108D3000866A27EE067A67EEC67A00915B0906AA74
:108D400003A99548CDED066A8DED077ACDED087A39
:108D50000AF060FA54E691483FF068F821469048DE
:108D60005EF026FB4CE60A468E48297C40F034FD36
:108D700046E6FFF441AEA3F51C53113B022B3FF630
:108D80003BAE2246297C884868F048FF38E6CD781B
:108D90007E4E272D28BF2725272200210AA8FDF077
:108DA00079FF2A460AA804F10C01FDF04DFF43F6B5
:108DB0006C43F0580368DB69984700283FF420AE05
:108DC0009DF84E4014F0C00F7FF41AAEDFED770A25
:108DD0009DED120AB7EE001A2FF052FDF6EE000AD2
:108DE000B0EE408A2FF0E6FB002840F0FB80F6EE64
:108DF000007AB4EEE78AF1EE10FA43F2580340F33A
:108E00001C81F35838EE678A93ED080A38EE088A19
:108E100028EE000A0B9A069284F004020C9E0D9D27
:108E20000E9B5D48DDED110A0796C2F3800206A98C
:108E3000089509930AF05CFAE2E5CD783D2D28BF4C
:108E40003D253D2200210AA8FDF024FF2A4604F119
:108E50000C010AA8FDF0F8FE0A9D0B9E0C9C35B98A
:108E60002EB924B90121494802F01CFAC8E506A828
:108E700018F03EFC4E4B4548089583FB0423E4174D
:108E8000C4EBA30406A901220996079402F08AF90B
:108E9000B6E507AA06A93D48FDF736FC27E6DFED53
:108EA000430A29E79FED410A002117E700287FF4D4
:108EB000A7AD002C3FF4A4AD9FED366ADDED0E6A40
:108EC0009DED0F7ADDED107A009166EE866A27EE51
:108ED000067A67EEC67A0121B3FA83F3B2FA82F218
:108EE00001915B09520906A92B48CDED066A8DED6B
:108EF000077ACDED087A0AF043F981E59FED2B0A58
:108F0000002108E6DFED290A12E6002E7FF478AD95
:108F1000B9F1000F3FF474ADB7FA87F3B8FA88F2ED
:108F20000120009101905B09520906A91A480AF034
:108F300027F965E50B9FDDF83080384641462FF074
:108F400089FE00283FF45CAD284602AA9DF85C101B
:108F500050F0AEF800283FF453ADDDED0D7A9FEDF3
:108F60000D7A029B009367EE877A3946FDEEE77A29
:108F7000424617EE903A06A818F0D2FB06A803A9BD
:108F800018F048FD00283FF43BAD92E68028002011
:108F9000E02E65420000C84248690020B839002030
:108FA000783F0020CC5A0020CC6300200000000055
:108FB00067666666002C3FF423ADB3FA83F3B2FA1A
:108FC00082F200915B09520903A926480AF00CF8C5
:108FD00016E5B9F1000F3FF413ADB7FA87F3B8FA0D
:108FE00088F2EEE79FED200A14E715F0E1FD90F816
:108FF0006031DB077FF504AD06A818F079FB15F0AA
:10900000D7FDD0ED557A9DED057A1848F8EEE77A50
:1090100006A977EE277ACDED057A13F01DFC00281E
:109020003FF447AD9DED077ADDED057AB8EEC77ADE
:1090300077EEC77ACDED057A3BE5F6EE007AF35888
:1090400037EEC88A93ED090A38EE088AB0EEC00AF6
:1090500020EE480ADEE604AA03A90548FDF754FB02
:109060001CE500BF4869002000000000604E0020A1
:1090700080280020F0B543F250070446C0599FED08
:109080003A0A8DB03C3032F0B9FA0CABCDED0A0A99
:109090008DED0B1A8DED090A13E9070003AE86E882
:1090A000070006AB9DED050A83E8070004F50755A8
:1090B0002FF084FB1035314628468DED050A43F02C
:1090C000E1FF43F2540042F6103242F66811205894
:1090D0006158E359A2580090284644F025FB2046E9
:1090E0004FF4805110F060FB08B90DB0F0BDE059AD
:1090F0001E4A03689B68934230D1F03000F1380279
:10910000C821284644F06CFA43F25003184AE0584C
:109110000368DB68934225D100F5A27000F13802A4
:10912000C921284644F05CFA43F25003114AE05842
:1091300003681B69934213D100F5CC7000F138022B
:10914000CA21284644F04CFA43F254032846E25818
:10915000CB21603244F044FA0DB0F0BD9847CDE722
:109160009847EBE79847D9E79F0CB345397A000851
:109170003D7A0008457A000810B500F50754103410
:1091800014F05AFF14F04CFF204643F0BFFD204678
:10919000BDE8104043F050BE30B589B0002304460E
:1091A00042F610350622A3209521019306930293DF
:1091B000039304930593CDF81B308DF806208DF8AA
:1091C00004008DF805107FF02DF86359CDF80700E5
:1091D000D3F8D420CDF80B1003F1C800CDF80F2040
:1091E00046F032FE03686259CDF8133004F5365369
:1091F0001433D2F8D8201B68CDF81B2004F5075093
:1092000001A910301B22CDF8173041F097FA09B0B0
:1092100030BD00BF00F50750103041F0CBBE00BF9D
:1092200070B50D4684B04FF6FF711446064610F037
:10923000BBFAE8B100230322A320952100930193F8
:109240008DF80220029303938DF800008DF8011031
:109250007EF0E8FFCDF8030006F50750CDF80710C3
:109260001030694610228DF80B50039441F082FAB9
:1092700004B070BD70B50D4684B04FF6FF71144652
:10928000064610F091FAE8B100230422A3209521AC
:10929000009301938DF80220029303938DF8000050
:1092A0008DF801107EF0BEFFCDF8030006F50750E3
:1092B000CDF807101030694610228DF80B5003943A
:1092C00041F058FA04B070BDF0B52DED048B87B0B5
:1092D00000230722A32795260093B0EE409AF0EED4
:1092E000608AB0EE418A05460C46019302930393CF
:1092F000049305938DF802208DF800708DF80160BD
:109300007EF090FFCDF8030005F50750CDF807106B
:109310001030182269468DF80B408DED039ACDED83
:10932000048A8DED058A41F009FA07B0BDEC048B83
:10933000F0BD00BF38B590F8793342F60C325B01CE
:10934000825C0446184402F0010290F89D13002943
:109350004AD090F89E13002949D1AAB1E21892F898
:109360009E13002949D142F60C35635D61F3000379
:10937000635541F08FFE635D13F0010F0CBF0422B3
:109380000022122141F044FE94F8D824F42342F63E
:109390000C3503FB0242635D92F8F124C3F34001F4
:1093A00091420DD062F34103635541F073FE635D5A
:1093B00013F0020F0CBF04220022032141F028FE0B
:1093C00042F60C3294F87812A35CC3F38100884211
:1093D00017D061F38303A35404F5075010304321E1
:1093E000BDE8384041F0E6BD002ABCD1CCE790F89A
:1093F0009F130029B1D0002AC6D1234493F89F13AC
:10940000B1E738BD2DE9F0412DED0A8B4FF02F0863
:109410008CB00446424668460021B0EE40CAF0EEE9
:1094200060BAB0EE41BAF0EE61AAB0EE42AAF0EE38
:10943000629AB0EE439AF0EE638AB0EE448AFDF091
:1094400029FC95220B23A3218DF801208DF80230F1
:109450008DF800107EF0E6FE1CEE106ACDF80300D9
:109460001BEE905A1AEE903A04F507501BEE104A84
:10947000CDF80B60CDF80F50CDF81340CDF8173074
:109480001AEE107A18EE103A19EE906A19EE105A88
:1094900018EE904ACDF80710103042466946CDF8D4
:1094A0001B70CDF81F60CDF82350CDF82740CDF8C4
:1094B0002B3041F043F90CB0BDEC0A8BBDE8F081D4
:1094C00070B52DED088B28248AB006460D4622463D
:1094D00068460021B0EE40BAF0EE60AAB0EE41AAB4
:1094E000F0EE619AB0EE429AF0EE628AB0EE438AF4
:1094F000FDF0D0FB0C239522A3218DF801208DF8DF
:1095000002308DF800107EF08DFECDF8030006F5D8
:109510000750CDF807101030224669468DF80B50E1
:109520008DED03BACDED04AA8DED05AACDED069A19
:109530008DED079ACDED088A8DED098A41F0FEF890
:109540000AB0BDEC088B70BDF0B543F6B823C51862
:10955000C35695B00BB915B0F0BD0023044669465B
:109560002846049305930693009301930293039373
:109570006DF058F802A928466DF078F804A928463D
:109580006DF040F807A832220021FDF083FB952200
:109590000923A3218DF81D208DF81E308DF81C1095
:1095A0007EF040FE43F64433CDF81F00E35CCDF877
:1095B000231028468DF827306CF0D6FF43F6E425BB
:1095C00043F6103243F6BB2366598DF82800A558A0
:1095D000019A029FCDF8456004F50750E45C009BBA
:1095E000039ECDF849508DF84D40049D059CCDF863
:1095F0002930CDF82D20069BCDF8317007A9103009
:109600003222CDF83560CDF83950CDF83D40CDF857
:10961000413041F093F815B0F0BD00BF2DE9F0479F
:1096200024268AB0154681468846324601A8002184
:109630001C46FDF02FFB95220A23A3218DF805205F
:109640008DF806308DF804107EF0ECFDCDF80700A3
:1096500009F50750D5F800A0D5F804C0D5F808E002
:109660002768CDF80B106568A3688DF80F8010305F
:10967000324601A9CDF810A0CDF814C0CDF818E0FD
:1096800007970895099341F059F80AB0BDE8F087AB
:1096900038B5044600F5075510F0A8F81035024615
:1096A0000B49284640F07AFF42F6EC2342F6ED22C1
:1096B0002846A25CE15C41F08DF904F5175020309A
:1096C00015F03EFA04F18000BDE8384021F052BFA9
:1096D00030B5100800F507501030A922014940F0BC
:1096E00001BE00BF88B71008F0B52DED028B95B014
:1096F00014A90023044600F5495041F8443D0C30BC
:1097000001223FF00DFD08B9534B039343F66C4320
:10971000E0580368DB689847002840F0968043F2E1
:109720005403DFED4E7AE35893ED447AD3ED4D6A5E
:1097300087EE278AFDEEE66ACDED016ABDF9047079
:1097400004F50A563036304604A90FF0E9FD18B981
:1097500041F0A0FC404B04933B22002105A8FDF002
:1097600099FAA32295238DF814208DF815307EF0F8
:1097700059FD42F6103543F25003CDF81700E35877
:109780006059D3F8AC20D3F8B030CDF81F20383072
:10979000CDF82330CDF81B1046F056FBB7EE001A7B
:1097A00090ED000ADFED2E0A2FF06AF810EE103A65
:1097B0006059CDF8273003682A4A1B68934248D184
:1097C00090ED280A04F5405510EE102A18EE103AD4
:1097D00030352846CDF82B20CDF82F3070F00CFD19
:1097E000DFED1E7A049BCDF83B3080EE270A42F66F
:1097F000F8733046E358CDF8373010EE103ACDF814
:1098000033300FF0A1FD10EE102A039BCDF83F205E
:109810002846CDF84330ADF8477070F0F1FCFDEE0E
:10982000C07A04F6F85317EE902A04F507501B6827
:10983000ADF8492005A910303B22CDF84B3040F05F
:109840007DFF15B0BDEC028BF0BD9FED058A0027B2
:1098500076E79847B6E700BF2292CA7F0000C84269
:109860000000000071640008F8B50546083057F0A4
:1098700049FB05F1280076F03FFA05F1680060F039
:1098800091FB2D4AC5F8B42000232C4A2C48C5F87A
:1098900088304FF08041C5F88C30C5F89030C5F85D
:1098A000B030C5F8B820C5F8A800C5F8AC1005F16F
:1098B000BC002449244F76F00DFB05F5C0705BF029
:1098C0005DFA05F5E4705DF00DFD05F5FE7050F0F4
:1098D00089F91E4BC5F8FC3105F5047405F592664F
:1098E00020464FF0DBFC44F8287BA642F8D13046F6
:1098F00050F0CEFF164C002105F5126075F092FA7B
:10990000C5F8D44905F6D81078F04EFAA4F5DD6311
:10991000C5F8603A05F664207FF0EAF9A4F5E8742A
:1099200005F5286063F054FC2846C5F8F84B094952
:109930003CF076F92846F8BD0AD7233C0000E04009
:109940000000C841543C0020B0FE1008C4FE1008BE
:109950006C6D00203CE710082DE9F0432DED028BE3
:10996000694C9FED6A8AADF5477D0DF1D808A4F1E9
:109970009001074690224046FDF066F90FCC1AADE3
:109980000FC50FCC0FC594E80F007EAE85E80F0021
:1099900004F110014FF490723046FDF055F904F5D2
:1099A000987EBEE80F000AAD0FC59EE80F0004F5D3
:1099B000A87485E80F000FCC26AD0FC50FCC0FC5DE
:1099C0000FCC0FC594E80F0041F2065485E80F0054
:1099D0003B5DDFED4F7A013B022B88BFB0EE678A1B
:1099E00045465AAC28460021B0EE480A10353CF0F6
:1099F000DBFCA542F6D11AA800219FED460A3CF0F7
:109A0000D3FC00219FED430A1EA83CF0CDFC0021B1
:109A10009FED400A22A83CF0C7FC35460DF546797B
:109A200028460021B7EE000A10353CF0BDFC4D453C
:109A3000F6D10AA800219FED380A3CF0B5FC0021C0
:109A40000EA89FED350A3CF0AFFC344B0FCB06ADB2
:109A500085E80F00284601A93CF074FC00283FD19E
:109A600026AD284600211035B7EE000A3CF09CFCDC
:109A70004545F6D190222A492046FDF0E5F82046DA
:109A80000022012110343CF07DFDA642F7D1254C87
:109A90000FCC12AD0FC594E80F0085E80F0012A897
:109AA000002201213CF06EFD10340022012116A895
:109AB0003CF068FD94E80F0002AC07C402A8002245
:109AC00043F6F071238050F079FD18B143F66943F5
:109AD0000122FA540DF5477DBDEC028BBDE8F08301
