:100000000C9459240C948A240C948A240C948A24E9
:100010000C948A240C948A240C948A240C94A4BEF4
:100020000C948A240C948A240C948A240C948A2498
:100030000C948A240C948A240C948A240D94BF5125
:100040000C948A240C948A240C948A240C948A2478
:100050000C948A240C948A240C948A240C948A2468
:100060000C948A240C9441BF0C9471BF0C948A2484
:100070000C948A240C948A240C948A240C948A2448
:100080000C948A240C948A240C948A240C948A2438
:100090000C94ADBF0C94DDBF0C948A240C947EC3E9
:1000A0000C948A240D94ED510C948A240C948A2487
:1000B0000C948A240C9429CA0D941B520C948A2403
:1000C0000C948A240C948A240C948A240C948A24F8
:1000D0000C948A240C948A240C9419C00C9449C062
:1000E0000C948A24B03AAE3AB03AB03AAD3AAE3A4D
:1000F000AE3AAE3AAE3AAE3AA93AA93AAE3AAE3ACA
:10010000AE3AA93AAB3A964BCB4BD34BB54BBC4B23
:10011000DB4B214C0A4C024CFA4B124C644C194CF0
:10012000EA4BF24B644C374C294C454C644C644CC4
:100130004C4C534C584C644C5E4C05579857E55703
:10014000F1584A58A4582B585F58F158F158F158B3
:10015000F158F158F158F158F158F158F158F15857
:10016000F158F158F158F158F158F158F158D25866
:10017000E858ED58D5589766AB66B066B866BD6668
:100180009D72C2669D729D729D72C766CC66D16675
:100190002AAF21AF33AF3CAF4EAF74AFADAFC0AFFE
:1001A0008AB383B393B39EB3AFB3C1B3E4B309B41B
:1001B00012B4EEB4EAB4F7B400B50FB521B534B556
:1001C00051B555B55CC65CC64DC64DC652C652C685
:1001D00057C657C65CC64DC657C676C67AC67EC6D3
:1001E00082C686C68AC690C694C698C69EC6A4C64F
:1001F000DCC6E0C6E4C6E8C6ECC6F0C6F6C6FAC67B
:10020000FEC604C70AC751C756C75BC760C765C7E4
:100210006AC76FC774C779C77EC783C7B5C7BAC770
:10022000BFC7C4C7C9C7CEC7D3C7D8C7DDC7E2C712
:10023000E7C73D2341233B2365235323D123BD231C
:1002400049232B231B23DF224F2377235D231F23E7
:10025000BF23F9233924F3224D24D5221324BF22AE
:100260004F242123CD23CF23FD22D32235239F23C7
:100270006B23CD2271234724E9223B2497232F248B
:1002800097232F2497232F2497230723072307231C
:1002900007230723072307230723072307240F2305
:1002A0000F230F23132313230F230F230F231323B2
:1002B0001323432343234323FF22FF2243234323C8
:1002C0004323FF22FF228923B5238923B5238923D2
:1002D000B5238923B52389235B23BB23E1233D2455
:1002E000BB23E1233D24BB23E1233D241D24DB224A
:1002F000DB221D241D24DB22DB221D241D241D24C2
:100300001D24DF23E723F5234324F523F523352498
:100310002124F523F52393232D244B23F523F523C3
:10032000F523F523F523F523F523F523F523F5230D
:10033000F523C123F523F523F523F523F523F52331
:10034000F52357233F24F5230123B923F523312433
:100350001724F523F523F523F5230D24D722D722DF
:100360002B2437241524DD23FF23EB231523052419
:10037000036EDB363D9A9999993DABAAAA2A3E00B5
:100380000000803F084AD73B3BCE016E84BCBFFDD6
:10039000C12F3D6C74319ABD56833DDA3D00C77F55
:1003A00011BED9E4BB4C3E916BAAAABE00000080EE
:1003B0003F072C7AA5BA6CC590DA3B9365FC8BBCE1
:1003C00053F810FD3C5692834DBD879D3AB63DCB08
:1003D000C9BF5BBE73DA0FC93F05A84CCDB2D44E7E
:1003E000B93836A9020C50B9918688083CA6AAAA49
:1003F0002ABE000000803F02464F524D41545F56D6
:10040000455253494F4E00000000CF080000803F86
:100410000153595349445F53575F545950450000A5
:10042000000001D1080000A041024C4F475F424943
:10043000544D41534B0000000000000AD20800F860
:100440007D46025359535F4E554D5F5245534554B7
:10045000530000000BD40800000000015253545F09
:100460005357495443485F4348000000000CD608E6
:100470000000000001494E495449414C5F4D4F4432
:100480004500000000000DD7080000000001525395
:1004900053495F50494E0000000000000000001466
:1004A000D808000080BF0253595349445F5448495B
:1004B000534D41560000000070D9080000803F02F3
:1004C00053595349445F4D594743530000000000BE
:1004D0000071DB0800007F430153455249414C3015
:1004E0005F42415544000000000072DD080000E654
:1004F000420153455249414C315F4241554400004D
:1005000000000073DE08000064420154454C454D74
:100510005F44454C415900000000000074DF0800B2
:1005200000000001534B49505F4759524F5F434110
:100530004C0000000075E00800000000014D41473C
:100540005F454E41424C450000000000000082E142
:10055000080000803F014155544F5F5452494747BE
:1005600045525F50494E009CEC08000080BF04419A
:1005700055544F5F4B49434B535441525400000074
:100580009DED0800000000044352554953455F5358
:1005900050454544000000000098E2080000A040DB
:1005A0000153504545445F5455524E5F4741494EB3
:1005B000000099E608000048420453504545445F56
:1005C0005455524E5F4449535400009AE7080000C6
:1005D0000040014348375F4F5054494F4E000000E0
:1005E000000000009BEB080000803F085243315F91
:1005F00000000000000000000000000000A0F5085E
:1006000019430000085243325F0000000000000060
:10061000000000000000A11209CE42000008524371
:10062000335F00000000000000000000000000A296
:10063000300919430000085243345F0000000000F5
:100640000000000000000000A34D09CE4200000899
:100650005243355F00000000000000000000000071
:1006600000A46B09CE420000085243365F00000030
:1006700000000000000000000000A58909CE420033
:1006800000085243375F0000000000000000000037
:10069000000000A6A709CE420000085243385F00C0
:1006A000000000000000000000000000A7C509CE07
:1006B000420000015448525F4D494E0000000000C6
:1006C0000000000000AAE3090000000001544852A5
:1006D0005F4D415800000000000000000000ABE446
:1006E000090000C842014352554953455F544852DE
:1006F0004F54544C450000ACE509000048420154F9
:1007000048525F534C455752415445000000000089
:10071000ADE6090000000001534B49445F535445C6
:1007200045525F4F5554000000B0E809000000003A
:1007300001534B49445F53544545525F494E0000B5
:100740000000AFE709000000000146535F41435439
:10075000494F4E0000000000000000B4E90900000D
:1007600000400446535F54494D454F555400000026
:1007700000000000B5EA090000A0400146535F54A4
:1007800048525F454E41424C4500000000B6EE091C
:100790000000803F0246535F5448525F56414C551B
:1007A000450000000000B7EF090080634401465394
:1007B0005F4743535F454E41424C4500000000B83F
:1007C000F1090000000002534F4E41525F5452495C
:1007D000474745525F434D00C0F2090000C842043C
:1007E000534F4E41525F5455524E5F414E474C4518
:1007F00000C1F4090000344204534F4E41525F548B
:1008000055524E5F54494D450000C2F80900008022
:100810003F01534F4E41525F4445424F554E434571
:10082000000000C4FC0900000040014C4541524E4C
:100830005F4348000000000000000000D9040A00E7
:1008400000E040014D4F44455F4348000000000078
:100850000000000000D2FD0900000041014D4F449E
:100860004531000000000000000000000000D3FE41
:100870000900000040014D4F4445320000000000D7
:1008800000000000000000D4FF0900000040014DFE
:100890004F4445330000000000000000000000004D
:1008A000D5000A00000040014D4F444534000000CF
:1008B000000000000000000000D6010A0000004017
:1008C000014D4F44453500000000000000000000CD
:1008D0000000D7020A00000040014D4F4445360099
:1008E0000000000000000000000000D8030A000023
:1008F000000001434D445F544F54414C0000000040
:1009000000000000DC050A0000000001434D445FC8
:10091000494E4445580000000000000000DD060A72
:10092000000000000457505F5241444955530000F5
:10093000000000000000DE070A00000040045455DB
:10094000524E5F4D41585F47000000000000009F7D
:10095000F1080000004008535445455232535256A6
:100960005F00000000000000F63C0D30270000088A
:100970005350454544325448525F00000000000087
:1009800000E80B0A5142000008434F4D50415353B9
:100990005F000000000000000000F32E0A342D006C
:1009A000000853434845445F000000000000000079
:1009B0000000000EBA08603F00000852454C415943
:1009C0005F00000000000000000000000F4E062E37
:1009D0003F00000852434D41505F000000000000FE
:1009E0000000000000F4720CB73D000008535230C4
:1009F0005F000000000000000000000000006E38F2
:100A00000BFF0A0000085352315F00000000000095
:100A1000000000000000006FD50BFF0A0000084E28
:100A200041564C315F000000000000000000000053
:100A3000F5600D023B000008534F4E41525F00002D
:100A4000000000000000000000BF8A0D343E0000DE
:100A500008534F4E4152325F00000000000000007A
:100A60000000C39E0D343E000008494E535F000055
:100A70000000000000000000000000F2C1073D3946
:100A8000000008414852535F0000000000000000D1
:100A900000000000F15306BA2800000843414D5FF2
:100AA00000000000000000000000000000DF070D53
:100AB0007E2C0000084D4E545F0000000000000036
:100AC000000000000000E0E305953B000008424103
:100AD00054545F000000000000000000000000917E
:100AE0008F08B62B0000000000000000000000008E
:100AF00000000000000000000000000000000002F4
:100B0000005241575F53454E530000000000000063
:100B1000000066000000803F02014558545F5354B6
:100B20004154000000000000000000680000008048
:100B30003F020252435F4348414E00000000000064
:100B4000000000006A000000803F02035241575F2E
:100B50004354524C0000000000000000006C0000F4
:100B600000803F0204504F534954494F4E0000004B
:100B70000000000000006E000000803F02054558A4
:100B800054524131000000000000000000000070DD
:100B9000000000803F0206455854524132000000D8
:100BA000000000000000000072000000803F02070B
:100BB000455854524133000000000000000000007E
:100BC0000074000000803F0208504152414D530024
:100BD000000000000000000000007600000020413E
:100BE00000FF000000000000000000000000000006
:100BF000000000000000000000855A0100E803A08A
:100C000038010000191E4D0100D0072E530100DCF1
:100C100005ED2E0100DC05E7350100C409D75405B8
:100C200000C4097F600500400654490500D007EA6A
:100C3000650500E803BC430500E80324430500E81C
:100C400003024F0100E80308740100A406CC4F0121
:100C500000B80B48600F00E803C8610500E80366B0
:100C6000350500E803232D0500E8036E370F00E883
:100C70000313260F00E8035E35010058021B6005D0
:100C8000005802553501008403513501002C019AAA
:100C9000743200B80B475F44745F6D61783D256C1A
:100CA000750A004661696C7361666520656E6465EE
:100CB00064004661696C7361666520747269676778
:100CC00065722030782578004E617620636F6D6DF7
:100CD000616E6420696E6465782075706461746506
:100CE0006420746F20232569004E6F6E2D4E61764F
:100CF00020636F6D6D616E6420494420757064617E
:100D000074656420746F20232569004E6F6E2D4E2C
:100D1000617620636F6D6D616E642049442075704B
:100D2000646174656420746F20232569004E6F2010
:100D3000636F6D6D616E6473202D207365747469CB
:100D40006E6720484F4C4400457865637574696E42
:100D50006720636F6D6D616E6420494420232569AF
:100D600000526573657474696E6720707265765F92
:100D7000575000457865637574696E6720636F6DC1
:100D80006D616E64204944202325690045786563C0
:100D90007574696E6720636F6D6D616E6420494480
:100DA0002023256900496E206A756D702E20204A27
:100DB000756D7073206C6566743A202569007365E3
:100DC0007474696E6720636F6D6D616E6420696E07
:100DD0006465783A2025690073657474696E6720CC
:100DE000636F6D6D616E6420696E6465783A20256D
:100DF00069004372756973652073706565643A2094
:100E0000252E316600437275697365207468726FB0
:100E100074746C653A20252E3166004572617369E1
:100E20006E6720776179706F696E7473004C6561CD
:100E3000726E696E6720776179706F696E742025B4
:100E400075003C6E617669676174653E205750207D
:100E50006572726F72202D2064697374616E6365B0
:100E6000203C2030007665726966795F6E61763A63
:100E700020496E76616C6964206F72206E6F20630A
:100E8000757272656E74204E617620636D640052D7
:100E900065616368656420576179706F696E74205D
:100EA00023256920646973742025756D0050617372
:100EB00073656420576179706F696E7420232569AA
:100EC00020646973742025756D0076657269667992
:100ED0005F636F6E6469746F6E3A20496E76616C01
:100EE0006964206F72206E6F2063757272656E7414
:100EF00020436F6E646974696F6E20636D64005285
:100F000065616368656420686F6D65005265616343
:100F100068656420486F6D65206469737420257569
:100F20006D004155544F207472696767657265643E
:100F3000206F666600547269676765726564204158
:100F400055544F20776974682070696E0054726937
:100F5000676765726564204155544F20786163630B
:100F6000656C3D252E316600536F6E617231206FC6
:100F700062737461636C6520257520636D00536F27
:100F80006E617232206F62737461636C65202575C7
:100F900020636D00536F6E6172206F6273746163C2
:100FA0006C6520257520636D004F62737461636CFE
:100FB0006520706173736564000A0A496E69742064
:100FC00041726475526F7665722076322E34342009
:100FD000286437643661653937290A0A46726565BF
:100FE0002052414D3A2025750A008059464D540043
:100FF0000042426E4E5A0000000000000000000057
:1010000000547970652C4C656E6774682C4E616D68
:10101000652C466F726D61740000000000000000D6
:1010200000000000000000000000000000000000C0
:1010300000000000000000000000000000000000B0
:101040000081175041524D004E6600000000000024
:1010500000000000000000004E616D652C56616CC0
:1010600075650000000000000000000000000000A6
:101070000000000000000000000000000000000070
:101080000000000000000000000000000000000060
:101090000000000000000000822D47505300004275
:1010A000494842634C4C65654565664900000053FC
:1010B00074617475732C54696D654D532C57656557
:1010C0006B2C4E536174732C48446F702C4C6174BC
:1010D0002C4C6E672C52656C416C742C416C742CDA
:1010E0005370642C474372732C565A2C540000835F
:1010F0001F494D5500004966666666666600000039
:1011000000000000000054696D654D532C47797252
:10111000582C477972592C4779725A2C416363587D
:101120002C416363592C4163635A000000000000A6
:1011300000000000000000000000000000000000AF
:10114000000000000000871F494D553200496666C7
:101150006666666600000000000000000054696DCD
:10116000654D532C477972582C477972592C477921
:10117000725A2C416363582C416363592C41636359
:101180005A00000000000000000000000000000005
:101190000000000000000000000000000084434D3B
:1011A000534700005A00000000000000000000004B
:1011B000000000004D65737361676500000000006A
:1011C000000000000000000000000000000000001F
:1011D000000000000000000000000000000000000F
:1011E00000000000000000000000000000000000FF
:1011F0000000000085175243494E0049686868683E
:10120000686868680000000000000054696D654D62
:10121000532C4368616E312C4368616E322C4368F5
:10122000616E332C4368616E342C4368616E352CDB
:101230004368616E362C4368616E372C4368616E7B
:101240003800000000000000000000861752434FE5
:1012500055004968686868686868680000000000B0
:10126000000054696D654D532C4368616E312C4309
:1012700068616E322C4368616E332C4368616E3452
:101280002C4368616E352C4368616E362C4368616F
:101290006E372C4368616E380000000000000000CB
:1012A0000000080D415454000049636343000000EE
:1012B00000000000000000000054696D654D532CD3
:1012C000526F6C6C2C50697463682C596177000004
:1012D000000000000000000000000000000000000E
:1012E00000000000000000000000000000000000FE
:1012F000000000000000000000031C504D00000032
:101300004949484942426868684248000000000074
:1013100054696D654D532C4C54696D652C4D4C438F
:101320002C6744742C524E436E742C524E426C2CDB
:101330004744782C4744792C47447A2C493243451A
:1013400072722C494E53457272000000000000007A
:101350000418434D440000494242424242654C4C0D
:101360000000000000000054696D654D532C43548B
:101370006F742C434E756D2C4349642C434F70742D
:101380002C50726D312C416C742C4C61742C4C6E51
:1013900067000000000000000000000000000000E6
:1013A000000000000000000B1B43414D00004949B4
:1013B000484C4C6563634300000000000000546922
:1013C0006D654D532C47505354696D652C475053F0
:1013D0005765656B2C4C61742C4C6E672C416C749A
:1013E0002C526F6C6C2C50697463682C59617700B7
:1013F00000000000000000000000000000000609DE
:1014000053545254004942420000000000000000C2
:10141000000000000054696D654D532C53547970E1
:10142000652C43546F7400000000000000000000B1
:1014300000000000000000000000000000000000AC
:10144000000000000000000000000000000000009C
:10145000000000000001134354554E0049686363C7
:1014600068660000000000000000000054696D651F
:101470004D532C53746565722C526F6C6C2C5069F3
:101480007463682C5468724F75742C4163635900FF
:10149000000000000000000000000000000000004C
:1014A00000000000000000000000000002124E5486
:1014B000554E0049486648486200000000000000A0
:1014C00000000054696D654D532C5961772C57709D
:1014D000446973742C546172674272672C4E617652
:1014E0004272672C54687200000000000000000087
:1014F00000000000000000000000000000000000EC
:101500000000000717534F4E520049664848486292
:101510004843620000000000000054696D654D53AF
:101520002C4C61744163632C5331446973742C53A4
:1015300032446973742C44436E742C54416E672C8E
:101540005454696D2C5370642C5468720000000070
:101550000000000000000000000005134355525237
:10156000004968686848660000000000000000004C
:101570000054696D654D532C5468722C566F6C7411
:101580002C437572722C5663632C43757272546FC0
:1015900074000000000000000000000000000000D7
:1015A000000000000000000000000000000000003B
:1015B0000009094D4F444500494D4200000000001C
:1015C000000000000000000054696D654D532C4D73
:1015D0006F64652C4D6F64654E756D0000000000F2
:1015E00000000000000000000000000000000000FB
:1015F00000000000000000000000000000000000EB
:1016000000000000000000000A194D414700004999
:1016100068686868686868686800000000000054CE
:10162000696D654D532C4D6167582C4D6167592C80
:101630004D61675A2C4F6673582C4F6673592C4F67
:1016400066735A2C4D4F6673582C4D4F6673592C48
:101650004D4F66735A000000000000000000000CAF
:10166000194D414732004968686868686868686869
:1016700000000000000054696D654D532C4D6167FA
:10168000582C4D6167592C4D61675A2C4F66735821
:101690002C4F6673592C4F66735A2C4D4F667358F6
:1016A0002C4D4F6673592C4D4F66735A0000000045
:1016B0000000000000000D0F5354455200496666BB
:1016C0000000000000000000000000000054696DF0
:1016D000654D532C44656D616E6465642C4163688F
:1016E00069657665640000000000000000000000ED
:1016F00000000000000000000000000000000000EA
:10170000000000000000000000000000004E6F20FC
:1017100064617461666C61736820636172642069DE
:101720006E7365727465640045524153494E47209B
:101730004C4F475300436F6D7061737320696E693E
:101740007469616C69736174696F6E206661696C3C
:10175000656421000A507265737320454E544552EA
:1017600020332074696D657320746F207374617207
:101770007420696E7465726163746976652073653F
:101780007475700A00496E697469616C6973696E79
:10179000672041504D2E2E2E004669726D77617282
:1017A00065206368616E67653A2065726173696E72
:1017B0006720454550524F4D2E2E2E0A00646F6E05
:1017C000652E006C6F61645F616C6C20746F6F6B71
:1017D00020256C7575730A00496E76616C6964200A
:1017E0006261756472617465000A45726173696E45
:1017F00067206C6F672E2E2E0A000A4C6F672065DB
:1018000072617365642E0A0041726475526F766569
:10181000722076322E34342028643764366165397C
:101820003729003C737461727475705F67726F75ED
:101830006E643E2047524F554E44205354415254FB
:10184000000A0A20526561647920746F206472690D
:1018500076652E005761726D696E67207570204144
:1018600044432E2E2E00426567696E6E696E6720B6
:10187000494E532063616C6962726174696F6E3B9B
:1018800020646F206E6F74206D6F766520766568BA
:1018900069636C6500636F6D6D616E642072656372
:1018A00065697665643A200041726475526F7665A9
:1018B000722076322E3434202864376436616539DC
:1018C000372900556E6B6E6F776E20706172616D97
:1018D0006574657220696E64657820256400556EB4
:1018E0006B6E6F776E20706172616D6574657220CA
:1018F000252E31367300666C6967687420706C61E0
:101900006E207570646174652072656A65637465C4
:101910006400666C6967687420706C616E20726523
:10192000636569766564004261642052657175651E
:101930007374202D2063616E6E6F74206368616E16
:10194000676520746F206E6F6E2D4E617620636D1B
:1019500064005265636569766564205265717565DA
:101960007374202D206A756D7020746F20636F6D05
:101970006D616E642023256900696E697420686F4B
:101980006D65004C6F670064756D700000000000AD
:1019900000000000001F38657261736500000000E0
:1019A0000000000000CB30656E61626C65000000D5
:1019B0000000000000E43864697361626C65000037
:1019C0000000000000E43873657475700072657380
:1019D0006574000000000000000000DA37726164E6
:1019E000696F000000000000000000AA5E6D6F64D7
:1019F0006573000000000000000000FF5D6C65766C
:101A0000656C000000000000000000114961636384
:101A1000656C000000000000000000A948636F6DC5
:101A20007061737300000000000000CF3F646563C5
:101A30006C696E6174696F6E000000BE3F73686F01
:101A40007700000000000000000000404073657453
:101A50000000000000000000000000A33965726172
:101A6000736500000000000000000047254172641B
:101A700075526F7665722076322E3434006C6F6743
:101A800073000000000000000000009630736574D1
:101A900075700000000000000000007B307465736A
:101AA00074000000000000000000006030726562F9
:101AB0006F6F740000000000000000052668656C70
:101AC0007000000000000000000000EE2574657347
:101AD000740070776D00000000000000000000003E
:101AE000875D726164696F00000000000000000003
:101AF000FE5C706173737468727500000000000012
:101B0000732E6661696C73616665000000000000F9
:101B1000FC5B72656C617900000000000000000051
:101B2000512C776179706F696E747300000000004A
:101B3000BC2B6D6F64657377697463680000000087
:101B4000C42A67707300000000000000000000005D
:101B50003F2A696E730000000000000000000000D2
:101B6000FD47736F6E61727465737400000000004E
:101B70007528636F6D7061737300000000000000D2
:101B80009C466C6F6767696E67000000000000008C
:101B9000B92654657374696E672064617461666CFC
:101BA000617368206C6F6767696E6700436F6D7063
:101BB0006173733A2000436F6D7061737320696EB7
:101BC000697469616C69736174696F6E20666169BB
:101BD0006C65642100656E006469730061626C6508
:101BE000640A0048656164696E673A20256C642C5C
:101BF0002058595A3A20252E30662C20252E306642
:101C00002C20252E30662C0958595A6F66663A20CA
:101C100025362E32662C2025362E32662C2025368F
:101C20002E32660A00636F6D70617373206E6F747D
:101C3000206865616C74687900736176696E6720ED
:101C40006F6666736574730048697420456E7465C9
:101C50007220746F20657869742E0A0A00436F6DD4
:101C6000706173733A2000484D43353838334C0067
:101C7000484D43353834330048494C003F3F004D10
:101C80006167204465636C696E6174696F6E3A20A8
:101C900025342E34660A004D6167206F66667365D1
:101CA00074733A2025342E34662C2025342E346665
:101CB0002C2025342E34660A002D005741524E49FF
:101CC0004E473A20536F6E6172206973206E6F74B5
:101CD00020656E61626C656400736F6E61723120A5
:101CE000646973743D252E31663A252E3166636D25
:101CF00020766F6C74313D252E32663A252E326681
:101D0000202020736F6E61723220646973743D25E8
:101D10002E31663A252E3166636D20766F6C7432F3
:101D20003D252E32663A252E32660A00723A253457
:101D3000642020703A2534642020793A25336420C9
:101D400020673D2825352E31662025352E31662029
:101D500025352E3166292020613D2825352E316616
:101D60002025352E31662025352E3166290A004C76
:101D700061743A20256C642C204C6F6E20256C64B5
:101D80002C20416C743A20256C646D2C20237361E7
:101D900074733A2025640A002E00436F6E74726FCC
:101DA0006C2043482000506F736974696F6E202562
:101DB000640A00257520776179706F696E74730A03
:101DC00000486974207261646975733A2025660A57
:101DD00000636F6D6D616E6420233A202564206975
:101DE000643A2564206F7074696F6E733A256420BD
:101DF00070313A25642070323A256C642070333A91
:101E0000256C642070343A256C64200A0052656C9D
:101E10006179206F6E0A0052656C6179206F666689
:101E20000A00556E706C7567206261747465727912
:101E30002C207468726F74746C6520696E206E65F6
:101E4000757472616C2C207475726E206F666620DA
:101E5000726164696F2E0A005448524F54544C45C5
:101E6000204348414E474544202564200A00434F03
:101E70004E54524F4C204D4F4445204348414E470D
:101E800045443A20005448524F54544C4520464152
:101E9000494C5341464520414354495641544544D9
:101EA0003A2025642C20004C4F53206361757365E4
:101EB00064206E6F206368616E676520696E2041E3
:101EC000504D2E0A004D616E75616C00484F4C44B8
:101ED000004C6561726E696E67005374656172696A
:101EE0006E67004155544F0052544C004D6F64656D
:101EF0002825752900494E20313A20256409323AB7
:101F000020256409333A20256409343A20256409E0
:101F1000353A20256409363A20256409373A2025C8
:101F20006409383A2025640A00494E3A09313A20BA
:101F3000256409323A20256409333A20256409349E
:101F40003A20256409353A20256409363A2025646B
:101F500009373A20256409383A2025640A006C6F55
:101F6000677320656E61626C65643A20006E6F6E07
:101F700065002025530041545449545544455F465B
:101F8000415354002025530041545449545544456D
:101F90005F4D4544002025530047505300202553F2
:101FA00000504D00202553004354554E002025532A
:101FB000004E54554E00202553004D4F44450020FF
:101FC000255300494D550020255300434D44002022
:101FD00025530043555252454E540020255300537B
:101FE0004F4E41520020255300434F4D5041535313
:101FF000002025530043414D455241002025530008
:102000005354454552494E4700436F6D6D616E64B0
:10201000733A0A20206C6F67732020202020202034
:10202000206C6F6720726561646261636B2F7365FA
:10203000747570206D6F64650A2020736574757007
:10204000202020202020207365747570206D6F641F
:10205000650A202074657374202020202020202011
:1020600074657374206D6F64650A0A4D6F76652020
:1020700074686520736C696465207377697463683C
:1020800020616E6420726573657420746F20464C05
:10209000592E0A0A0054657374204D6F64650A0A4C
:1020A000005365747570204D6F64650A0A494D5080
:1020B0004F5254414E543A20696620796F7520681A
:1020C000617665206E6F742070726576696F7573C6
:1020D0006C792073657420746869732073797374E4
:1020E000656D2075702C20757365207468650A27EE
:1020F00072657365742720636F6D6D616E64207403
:102100006F20696E697469616C697A6520746865AD
:1021100020454550524F4D20746F2073656E736992
:10212000626C652064656661756C742076616C759F
:1021300065730A616E64207468656E20746865203A
:1021400027726164696F2720636F6D6D616E642013
:10215000746F20636F6E66696775726520666F7253
:1021600020796F757220726164696F2E0A0A000A05
:10217000547970652027592720616E64206869743E
:1021800020456E74657220746F20657261736520DE
:10219000616C6C20776179706F696E7420616E6418
:1021A00020706172616D6574657220646174612C68
:1021B00020616E79206F74686572206B6579207478
:1021C0006F2061626F72743A20000A457261736910
:1021D0006E6720454550524F4D0A00646F6E650A88
:1021E00000496E76616C696420636F6D6D616E6429
:1021F0002E2055736167653A20736574203C6E61CB
:102200006D653E203C76616C75653E0A00506172DA
:10221000616D206E6F7420666F756E643A20257351
:102220000A0056616C7565206F7574206F662072A8
:10223000616E676520666F72207479706520494E03
:1022400054380A0056616C7565206F7574206F668E
:102250002072616E676520666F72207479706520E8
:10226000494E5431360A0043616E6E6F74207365B7
:102270007420706172616D65746572206F66207480
:102280007970652025642E0A00506172616D657455
:102290006572206E6F7420666F756E643A20272514
:1022A00073270A00494E5438202025733A202564AC
:1022B0000A00494E5431362025733A2025640A001D
:1022C000494E5433322025733A20256C640A004667
:1022D0004C4F41542025733A2025660A00556E68FC
:1022E000616E646C656420706172616D65746572A5
:1022F000207479706520666F722025733A202564FA
:102300002E0A005261772056616C7565730A00527F
:102310006164696F0A004348313A202564207C20BB
:102320002564207C2025640A004348323A20256435
:10233000207C202564207C2025640A004348333A11
:10234000202564207C202564207C2025640A00430D
:1023500048343A202564207C202564207C20256494
:102360000A004348353A202564207C202564207CDF
:102370002025640A004348363A202564207C202525
:1023800064207C2025640A004348373A20256420D5
:102390007C202564207C2025640A004348383A20AC
:1023A0002564207C202564207C2025640A0042616D
:1023B0007474204D6F696E746F720A004261747498
:1023C000206D6F6E69746F72696E672064697361E6
:1023D000626C6564004D6F6E69746F72696E672020
:1023E0006261747420766F6C7473004D6F6E6974E3
:1023F0006F72696E6720766F6C747320616E6420F3
:1024000063757272656E74004761696E730A00735A
:1024100070656564207468726F74746C653A0A0044
:10242000503A2025342E33662C20493A25342E3359
:10243000662C20443A25342E33662C20494D4158D1
:102440003A256C640A005468726F74746C650A00F3
:102450006D696E3A2025750A6D61783A2025750AF6
:102460006372756973653A2025750A6661696C73D4
:102470006166655F656E61626C65643A2025750A08
:102480006661696C736166655F76616C75653A203B
:1024900025750A00466C69676874206D6F64657302
:1024A0000A00506F732025643A20006F6E00436F5E
:1024B0006D7061737320696E697469616C697361B1
:1024C00074696F6E206661696C656421006F666671
:1024D000007265736574000A4F7074696F6E733AA9
:1024E0005B6F6E2C6F66662C72657365745D0A0097
:1024F000496E697469616C6973696E672067797286
:102500006F7300496E697469616C6973696E6720E5
:102510006779726F73000A4D6F766520524320749D
:102520006F67676C652073776974636820746F20C8
:102530006561636820706F736974696F6E20746F72
:1025400020656469742C206D6F76652061696C6507
:10255000726F6E20737469636B20746F2073656C87
:10256000656374206D6F6465732E000A5361766530
:10257000642053657474696E67730A0A000A0A520C
:102580006164696F2053657475703A0A000A4E6F72
:1025900020726164696F3B20436865636B20636FE1
:1025A0006E6E6563746F72732E000A4D6F766520D0
:1025B000616C6C20636F6E74726F6C7320746F202B
:1025C000656163682065787472656D652E20486961
:1025D0007420456E74657220746F20736176653A5D
:1025E000200A000A547970652027592720616E64FB
:1025F0002068697420456E74657220746F20706560
:1026000072666F726D20666163746F727920726595
:102610007365742C20616E79206F74686572206B0D
:10262000657920746F2061626F72743A20000A46E7
:102630004143544F525920524553455420636F6DC6
:10264000706C657465202D20706C656173652072F7
:102650006573657420626F61726420746F20636FAC
:102660006E74696E7565006D697373696E67206C51
:102670006F6720747970650A00616C6C0041545476
:1026800049545544455F46415354004154544954BC
:102690005544455F4D45440047505300504D00435D
:1026A00054554E004E54554E004D4F444500494D33
:1026B0005500434D440043555252454E5400534F2C
:1026C0004E415200434F4D504153530043414D45FD
:1026D0005241005354454552494E4700656E616270
:1026E0006C6500626164206C6F67206E756D626559
:1026F000720A0064756D70696E6720616C6C0A0007
:102700000A41726475526F7665722076322E3434C7
:1027100020286437643661653937290A4672656551
:102720002052414D3A2025750A0041504D2031007C
:10273000040054434F4E53540000000000000000BA
:1027400000000000000000403F04015000000000B5
:1027500000000000000000000000000004006666A9
:10276000E63F0403490000000000000000000000F4
:1027700000000000000800CDCC4C3E0404440000E2
:1027800000000000000000000000000000000C003D
:102790000AD7A33B0205494D415800000000000044
:1027A0000000000000000014000080BB4404064D3F
:1027B000494E53504400000000000000000000009B
:1027C00010000000803F00FF00000000000000003B
:1027D00000000000000000000000000000000050A9
:1027E000414E49433A206661696C656420746F20EC
:1027F00074616B65205F7370695F73656D20313044
:10280000302074696D657320696E2041505F4144CA
:10281000435F414453373834343A3A726561640057
:1028200050414E49433A2041505F4144435F414447
:102830005337383434206D697373696E6720535091
:102840004920646576696365206472697665720AF9
:102850000050414E49433A2041505F4144435F415B
:10286000445337383434206D697373696E6720536D
:102870005049206465766963652073656D61706891
:102880006F72650050414E49433A206661696C653C
:102890006420746F2074616B65205F7370695F736F
:1028A000656D20696E41505F4144435F4144533739
:1028B0003834343A3A496E69740004024750535F21
:1028C0004741494E000000000000000000240000C5
:1028D00000803F01034750535F55534500000000FF
:1028E0000000000000002C000000803F040459415B
:1028F000575F500000000000000000000000001CB6
:1029000000CDCC4C3E040552505F5000000000004A
:1029100000000000000000002000CDCC4C3E01066D
:1029200057494E445F4D4158000000000000000030
:10293000002D000000000005085452494D00000021
:10294000000000000000000000003E000000000049
:1029500001094F5249454E544154494F4E00000021
:102960000000002E0000000000040A434F4D505F9D
:102970004245544100000000000000002800CDCC7A
:10298000CC3D010B4750535F4D494E5341545300CA
:1029900000000000002F000000C040010C47505311
:1029A0005F44454C41590000000000000000300029
:1029B0000000803F00FF0000000000000000000059
:1029C0000000000000000000000000000050414E28
:1029D00049433A2041505F4261726F5F4D53353633
:1029E000313120646964206E6F74206765742076CD
:1029F000616C696420535049206465766963652081
:102A0000647269766572210050414E49433A204113
:102A1000505F4261726F5F4D5335363131206469CA
:102A200064206E6F74206765742076616C69642021
:102A30005350492073656D617068726F6521005055
:102A4000414E49433A206661696C656420746F2089
:102A500074616B65205F7370695F73656D203130E1
:102A6000302074696D657320696E206120726F7704
:102A70002C20696E2041505F4261726F5F4D53356B
:102A80003631313A3A5F7570646174650050414E79
:102A900049433A2041505F4261726F5F4D53353672
:102AA000313120646964206E6F742067657420760C
:102AB000616C6964204932432073656D617068728E
:102AC0006F65210050414E49433A206661696C654B
:102AD0006420746F2074616B65205F6932635F737B
:102AE000656D203130302074696D657320696E200A
:102AF0006120726F772C20696E2041505F426172B5
:102B00006F5F4D53353631313A3A5F757064617499
:102B1000650050414E49433A2041505F4261726F17
:102B20005F4D53353631313A204E554C4C2073654C
:102B30007269616C206472697665720050414E4919
:102B4000433A2041505F4261726F5F4D53353631D9
:102B5000313A206661696C656420746F2074616B22
:102B6000652073657269616C2073656D6170686F53
:102B7000726520666F7220696E69740050414E491B
:102B8000433A2041505F4261726F5F4D5335363199
:102B90003120746F6F6B206D6F7265207468616E89
:102BA00020313030306D7320746F20696E69746924
:102BB000616C697A650001004D4F4E49544F5200D7
:102BC0000000000000000000000000000000000104
:102BD00001564F4C545F50494E0000000000000069
:102BE00000000100000000000102435552525F50F6
:102BF000494E0000000000000000000200000080BC
:102C00003F0403564F4C545F4D554C540000000098
:102C10000000000003000AD763400404414D505FE8
:102C2000504552564F4C5400000000000007000071
:102C30000000000405414D505F4F46465345540087
:102C40000000000000000B000000000003064341EC
:102C50005041434954590000000000000000000F9B
:102C60000000404E4500FF00000000000000000092
:102C70000000000000000000000000000000010053
:102C800054524947475F5459504500000000000026
:102C90000000000000000001014455524154494F1A
:102CA0004E00000000000000000001000000204174
:102CB0000202534552564F5F4F4E00000000000085
:102CC00000000002000080A2440203534552564F08
:102CD0005F4F464600000000000000000400008036
:102CE0008944040454524947475F444953540000FF
:102CF000000000000009000000000000FF000000CC
:102D000000000000000000000000000000000000C3
:102D1000000000004661696C656420746F2067657F
:102D20007420484D43353834332073656D617068C5
:102D30006F72650005014F4653000000000000005F
:102D40000000000000000017000000000004024422
:102D500045430000000000000000000000000000EB
:102D600023000000000001034C4541524E000000CA
:102D700000000000000000000008000000803F018B
:102D80000455534500000000000000000000000052
:102D9000000027000000803F01054155544F444585
:102DA0004300000000000000000000280000008038
:102DB0003F01064D4F544354000000000000000046
:102DC00000000000A4000000000005074D4F540063
:102DD00000000000000000000000000000A500004E
:102DE00000000001084F5249454E54000000000009
:102DF0000000000000001600000000000109455816
:102E00005445524E414C00000000000000000029D3
:102E1000000000000000FF000000000000000000B3
:102E2000000000000000000000000000000096917B
:102E30008C87827D78736E69645F5A55504B46412A
:102E40003C37322D28231E19140F0A050004090EE1
:102E500013181D22272C31363B40454A4F54595EEA
:102E600063686D72777C81868B90959A9FA4A9AEDA
:102E7000B3AFAAA5A09B968F89837E78736E696491
:102E80005F5A55504B47423E3935302C27231F1B84
:102E900016120E09050103070B1014191D22262B0B
:102EA0002F34393D42474C51565B60656B70757BE2
:102EB00080868C92979DA3A9AFB2ACA6A09A948F5E
:102EC000827C76706B65605C57524E4A46413D3954
:102ED00036322E2A26221F1B1713100C080401025B
:102EE000060A0E12161A1E22262B2F33383D414693
:102EF0004B4F54595E64696F747A80878D949BA29E
:102F0000AAB1AEA69F979089826F68635E595551AA
:102F10004D4946423F3C3835322E2B2824211E1A7B
:102F20001714100D0A0603000306090D1014181CCF
:102F30002024282C3034393D41464A4F54585D6294
:102F4000676D737980878F98A2ACB0A59A90867DC3
:102F5000766F55514D4A4744413F3C3A38353331FD
:102F60002E2B292623201D1A1713100D0A070401E2
:102F7000010306090D1013171A1E22262A2E3236B7
:102F80003A3E42464A4E53575B5F64696E757C8594
:102F9000909FB2A08D7D7067605A553E3C3A39379C
:102FA00036343332302F2E2C2A292724221F1C1985
:102FB0001613100D0A070402000305080A0D10136A
:102FC000161A1D2125292D3135383C4043464A4DDE
:102FD000505356595B5E6165696F826D544D4A4727
:102FE0004442403E2E2E2D2C2C2B2A2A29292827DC
:102FF00026252423211F1C1A1714100D0A0704016B
:1030000001030507090C0E1013161A1D2124282C84
:103010003033373A3D40424447484A4A4B4A484495
:103020003D3019021621282B2D2E2F2E2E06090C8D
:103030000F121517191B1C1B1811040E2231383CD6
:103040003C3C3A3835322F2B2824201C1915110D01
:1030500009050102060A0E1115181C1F2225272931
:103060002A2B2B2926211911080004080A0A0A080C
:1030700007040200030616181A1C1E20211F17122F
:10308000516063625F5D5956524E4A46423E393541
:10309000312C2824201B17130E0A060102060A0FE2
:1030A00013171B1F23262A2D313437393C3D3F3F50
:1030B0003E3D39352F28211C17151313131416A85C
:1030C000ADB2B0ABA6A19C97928D88837E79746FC8
:1030D0006A65605B56514C47423D38332E29241FA8
:1030E0001A15100B060103080D12171C21262B3090
:1030F000353A3F44494E53585D62676C71767B8028
:10310000858A8F94999EA3A800000001FFFFE0002C
:10311000000000000001FFFFF000000000000001BF
:10312000FFFFF800000000000001FFFFFE000000AC
:1031300000000003FFFFFF00000000000003FFFF8E
:10314000FFF000000000000FFFFFFFFE0000000383
:10315000FFFFFC000007FC00007FFFFFFC000000F9
:10316000000000001FFFFE0000000000241E1915D3
:1031700012100E0C0B0A09090908080807060605B3
:103180000404040304040400000000000000000024
:103190000027262123252325242722292A2A1C2704
:1031A000282B33322725222C333130370000000002
:1031B0000000000000008011401140713273343370
:1031C000321312113211129334131453523100215D
:1031D000030406080B2D0A090705040241C011C0AB
:1031E000511253547312111251527314733231002D
:1031F0002102040506070809080607062403020140
:1032000002000120012011C001110031321374139A
:10321000143312F112D3125100010223250607467E
:10322000442342210001E0A0313213B433111211C2
:103230000011201100523312133211200122248573
:10324000042304020342410001E0A05112141315AB
:103250001315341332514001201152133231000141
:103260002223040504050423010382612001E011E7
:1032700080113213541514333231402102010031D0
:1032800072314102234423020122012201026140E2
:1032900001A011805112141334151433123140015E
:1032A0000201030201205211122021224304224173
:1032B000022102A10001E020114051537413321188
:1032C00040210203020302010011121132001141D8
:1032D00022232221004102A180016011601100110E
:1032E00032337413121140016203020321311211AF
:1032F00012114001020102030201000100E121E07C
:10330000A011201211733433312001620362401284
:10331000111211001101000102012200012001001F
:10332000E1C0010011801100121113121413345264
:103330002001E202212031121100110001002102BE
:1033400001000140210002410001E0601140111222
:10335000111312141314133211002122034201021B
:103360002100010011001211001120010041600133
:1033700000C10001401120016011405112131213CD
:1033800014331231000142032201022100014011D5
:1033900000310011000100010001A0E10001A001C5
:1033A00080112031529312110021C221002140319D
:1033B0000011201100010001E0E16001E0110011A5
:1033C00072731231002142030102010220214011D7
:1033D0000011201160014011600100010221020072
:1033E0000120014001A05132131253321120010279
:1033F0000182210021000100110031E000110011C3
:103400006021000102010201010021200100016090
:1034100011001152131214135211004182010200C3
:10342000010021401100110011A0110031001120F4
:1034300081220101000201002100016011005213EC
:103440001213141332310100020122014201002142
:1034500000010001112011001120114071001140E4
:1034600001022102010201002102210001000100EC
:1034700011001211123312341332112001020142D1
:103480000122010041000160112011001100110012
:103490005112312061020122020002010281201139
:1034A00000121173341332110041020182010061D4
:1034B00000018011001100913231402142010202CD
:1034C00000626140115214135433310041820122D1
:1034D00000010200410001609112115251200122AD
:1034E000010301020200826100513354151433318B
:1034F000002102012203424102A1803192133231A4
:1035000000412203020103002203220102014011B3
:10351000123395333101002201034203222122019B
:1035200002610001110011521312531231004122A5
:103530000322030023020302010221203213141686
:10354000151716153311200162030203020322012D
:10355000A24140111253141314133211010002013D
:10356000020302030202000223020322212032147A
:1035700016371817151312110021220302430243B4
:103580000103020382212011121314153415143281
:1035900011000162230203004302034201201213BF
:1035A0001518193A1715131100210203026304E3D9
:1035B00002030203020102401213141517151634F8
:1035C0001220212243020300A32201001112151828
:1035D0001C1E1D191613110002010302030423040B
:1035E000032403044304230403020342201112149E
:1035F0001517183615133121020302230203245034
:103600005352463130302C302C33383430302C3853
:103610002C312C302A334300245047434D442C3165
:10362000362C302C302C302C302C302A36410D0AE0
:10363000000096000000E1000080250000C012009C
:10364000004F4B002075626C6F782000204D544B6A
:1036500031392000204D544B200020534952462040
:1036600000204E4D454120004750565447004750DA
:10367000474741004750524D430024505542582C73
:1036800034302C6767612C302C312C302C302C30AE
:103690002C302A37420D0A24505542582C34302CF5
:1036A0007674672C302C312C302C302C302C302A76
:1036B00037460D0A24505542582C34302C726D6315
:1036C0002C302C302C302C302C302C302A36370D2E
:1036D0000A0024504D544B3331342C302C302C31D3
:1036E0002C312C302C302C302C302C302C302C30F9
:1036F0002C302C302C302C302C302C302A32380D01
:103700000A24504D544B3333302C302A32450D0AA5
:1037100024504D544B3331332C312A32450D0A2479
:10372000504D544B3330312C322A32450D0A00248F
:10373000505352463130332C302C302C312C312A1E
:1037400032350D0A24505352463130332C312C304F
:103750002C302C312A32350D0A2450535246313048
:10376000332C322C302C302C312A32360D0A245096
:103770005352463130332C332C302C302C312A32FA
:10378000370D0A24505352463130332C342C302C10
:10379000312C312A32300D0A245053524631303305
:1037A0002C352C302C312C312A32300D0A24505338
:1037B00052463130332C362C302C302C312A3232D8
:1037C0000D0A24505352463130332C382C302C30D3
:1037D0002C312A32430D0A24505352463135312CB4
:1037E000312A33460D0A24505352463130362C329A
:1037F000312A30460D0A00A0A20008A602000000EF
:1038000000000000A8B0B3A0A20008A60029010093
:1038100000000000D0B0B3B562060103000106014C
:10382000124F24505542582C34312C312C3030302A
:10383000332C303030312C33383430302C302A3285
:10384000360D0A004572726F723A2041505F48414E
:103850004C5F4156523A3A415652416E616C6F6725
:10386000496E206F7574206F66206368616E6E65A7
:103870006C730D0A0050414E49433A2073636865EA
:1038800064756C65723A3A73797374656D5F696ECD
:10389000697469616C697A65642063616C6C6564E4
:1038A0006D6F7265207468616E206F6E636500478E
:1038B0004F494E4720444F574E20464F52204120FB
:1038C0005245424F4F540D0A0050414E49433A2051
:1038D00041565253656D6170686F72653A3A746112
:1038E0006B6520757365642066726F6D20696E73F9
:1038F0006964652074696D65722070726F636573A9
:10390000730050414E49433A20535049302074725D
:10391000616E7366657220636F6C6C6973696F6E3C
:103920000050414E49433A20535049302077726944
:10393000746520636F6C6C6973696F6E0002005070
:10394000524F445543545F494400000000000000BA
:1039500026000000000005014143435343414C0051
:10396000000000000000000000280000000000052A
:10397000024143434F464653000000000000000050
:10398000000034000000000005034759524F46462E
:103990005300000000000000000000400000000094
:1039A0000001044D5055364B5F46494C544552007A
:1039B000000000004C000000000000FF00000000BC
:1039C00000000000000000000000000000000000F7
:1039D000000000496E6974204779726F002A006701
:1039E00079726F5B25755D20646964206E6F742049
:1039F000636F6E76657267653A20646966663D2519
:103A000066206470730A00496E69742041636365BF
:103A10006C002A0020006F6E2069747320424143BD
:103A20004B00506C6163652076656869636C652046
:103A3000255320616E6420707265737320616E7906
:103A4000206B65792E0A004661696C656420746F8D
:103A50002067657420494E532073616D706C650A50
:103A6000004F6666736574735B25755D3A20252E7D
:103A7000326620252E326620252E32660A005363D8
:103A8000616C696E675B25755D3A20252E32662074
:103A9000252E326620252E32660A0043616C69624B
:103AA000726174696F6E2073756363657373667595
:103AB0006C0A0043616C6962726174696F6E2046C2
:103AC00041494C45440A006C6576656C006F6E2078
:103AD000697473204C4546542073696465006F6EA9
:103AE0002069747320524947485420736964650003
:103AF0006E6F736520444F574E006E6F736520558F
:103B000050000400504552494F440000000000009E
:103B100000000000001D000000C841040144414DA8
:103B200050494E4700000000000000000000210046
:103B30000000403F00FF0000000000000000000007
:103B4000000000000000000000000000002D002523
:103B50006C642E2530376C640025535D2000686549
:103B60006C70006578697400496E76616C696420D8
:103B7000636F6D6D616E642C2074797065202768A9
:103B8000656C702700436F6D6D616E64733A002041
:103B90002025530A0001004D4F444500000000005D
:103BA00000000000000000003600000000000501D9
:103BB00052455452414354000000000000000000F0
:103BC0000047000000000005024E45555452414C8C
:103BD0000000000000000000000053000000000092
:103BE0000503434F4E54524F4C00000000000000AC
:103BF0000000005F00000000000104535441425FD8
:103C0000524F4C4C00000000000000003300000048
:103C100000000105535441425F54494C54000000D8
:103C20000000000000340000000000010653544171
:103C3000425F50414E0000000000000000003500CF
:103C400000000000010752435F494E5F524F4C4C49
:103C500000000000000000370000000000020841E2
:103C60004E474D494E5F524F4C000000000000008F
:103C70003A0000A08CC50209414E474D41585F52A1
:103C80004F4C000000000000003C0000A08C4501EB
:103C90000A52435F494E5F54494C540000000000F3
:103CA0000000380000000000020B414E474D494E15
:103CB0005F54494C000000000000003E0000A08C52
:103CC000C5020C414E474D41585F54494C0000001D
:103CD00000000000400000A08C45010D52435F49E8
:103CE0004E5F50414E00000000000000003900000F
:103CF000000000020E414E474D494E5F50414E00BC
:103D0000000000000000420000A08CC5020F414EE0
:103D1000474D41585F50414E0000000000000044F4
:103D20000000A08C4501104A535449434B5F535047
:103D3000440000000000000046000000000000FFFA
:103D40000000000000000000000000000000000073
:103D500000000000000000454550524F4D206675A0
:103D60006C6C0025733A2025640A0025733A2025DF
:103D7000640A0025733A20256C640A0025733A20F2
:103D800025660A00556E6B6E6F776E20636F6E76D8
:103D9000657273696F6E20272553270A004261649C
:103DA00020636F6E76657273696F6E2074797065CB
:103DB00020272553270A000100524F4C4C000000D9
:103DC0000000000000000000000000000000803F34
:103DD0000101504954434800000000000000000069
:103DE00000000001000000004001025448524F54FE
:103DF000544C4500000000000000000003000000DB
:103E0000404001035941570000000000000000003D
:103E1000000000000002000000804000FF000000E1
:103E20000000000000000000000000000000000092
:103E300000000000010050494E000000000000009A
:103E40000000000000000002000000000004015318
:103E500043414C494E4700000000000000000000B4
:103E600006000000404004024F46465345540000FF
:103E70000000000000000000000A00000000000137
:103E80000346554E4354494F4E00000000000000C9
:103E900000000E000000000002044D494E5F434D3B
:103EA00000000000000000000000000F000000A063
:103EB0004102054D41585F434D00000000000000E5
:103EC00000000000110000002F440106454E414251
:103ED0004C4500000000000000000000001300003E
:103EE000000000010753544F505F50494E0000003E
:103EF0000000000000000300000080BF02085345DE
:103F000054544C455F4D5300000000000000000475
:103F1000000000000000FF000000000000000000A2
:103F20000000000000000000000000000000010090
:103F300050494E000000000000000000000000009A
:103F400000000000003C4200FF00000000000000F4
:103F50000000000000000000000000000000000061
:103F600001004445425547000000000000000000E9
:103F700000000000000000000000FF000000000042
:103F80000000000000000000000000000000000031
:103F900000005363686564756C657220736C6970AA
:103FA000207461736B5B25755D202825752F257541
:103FB0002F2575290A005363686564756C65722046
:103FC0006F76657272756E207461736B5B25755DBB
:103FD000202825752F2575290A0050414E49433A5E
:103FE0002044617461466C61736820535049446594
:103FF00076696365447269766572206E6F742066B7
:104000006F756E640050414E49433A2044617461BB
:10401000466C617368205350494465766963654412
:1040200072697665722073656D6170686F72652064
:104030006973206E756C6C00554E4B4E2C202575A7
:104040000A0025532C2000256400257500256400F6
:10405000257500256C6400256C7500256600252EED
:10406000326600252E326600252E326600252E325D
:1040700066002573002573002573002C2000464D33
:10408000542C2025752C2025752C2025532C2025DB
:10409000532C2025530A00444620706167652C206C
:1040A0006C6F672066696C6520232C206C6F67201D
:1040B000706167653A2025752C090025752C09006B
:1040C00025750A004E6F2064617461666C617368C7
:1040D00020696E736572746564004D616E7566610A
:1040E0006374757265723A203078253032782020FA
:1040F000204465766963653A203078253034780A43
:10410000004E756D50616765733A2025752020500B
:1041100061676553697A653A2025750A000A4E6F12
:10412000206C6F67730A0A000A2575206C6F67732D
:104130000A004C6F672025752C20202020737461A5
:1041400072742025752C202020656E642025750A48
:1041500000327C8900EDD96877000000590000002A
:104160000000000000D69FDCA81817AA9043732710
:10417000F6B968EDF4DED409FEE61C1C84DDE80B1C
:10418000992927D6DF8D210F036418EFEE1EF0B7B3
:10419000828200941500F37C0000001400988F00C8
:1041A000007F6A00000000000000E7B73F36000013
:1041B0000000000000AF669ED0385DD36C20B9EBE4
:1041C0005D7C7C77044C80387486EDCB0000000069
:1041D00000000000000000000000000000000000DF
:1041E00000000000B1F10F86DBD0BC541613158619
:1041F000004E44BD7F9A15159001EA49B51653A7A4
:104200008AEA00000000000000000000000000003A
:10421000000000000000000000000000000000009E
:10422000000000000000000000000000000000008E
:10423000000000000000000000000000000000007E
:1042400000000000000000000000CC31AA2C532E1A
:10425000000400500000000000000000000000000A
:104260000000000000000000000004014900000000
:10427000000000000000000000000000000400003A
:1042800000000004024400000000000000000000E4
:104290000000000000000800000000000203494D7B
:1042A0004158000000000000000000000000000C69
:1042B000000000000000FF000000000000000000FF
:1042C00000000000000000000000000000000800E6
:1042D00000000000000000000000000000000000DE
:1042E00000000019430000010146554E4354494F58
:1042F0004E0000000000000000001D000000000053
:1043000000FF0000000000000000000000000000AE
:1043100000000000000000000002004D494E0000B7
:104320000000000000000000000000000A00008003
:10433000894402015452494D000000000000000071
:1043400000000000000C000080BB4402024D4158F8
:1043500000000000000000000000000000000E004F
:104360000080ED44010352455600000000000000AB
:104370000000000000000010000000803F02054423
:104380005A000000000000000000000000000000D3
:1043900011000000000000FF00000000000000000D
:1043A000000000000000000000000000000000DC31
:1043B000DFE1E3E6E8EBEDEFF2F4F7F9FCFE0003F2
:1043C00005080A0C0F111416181B1D202224272C77
:1043D00076D888674F0823C1DFAE59B1B796E5E4B8
:1043E00053C63A51997696E6C28426898C9B6240E0
:1043F0007C6FFCBC9C9F40BAA56FA590055A2A5CB7
:10440000936B6C676DC11BE0E40D47F520E6B5D0FA
:10441000ED902E009435770080841E0000204E0021
:104420000000C833333333986E128341EF8D2189F6
:104430003BE655CFFEE6DBD1844B38F77C1D90A4DC
:10444000BBE4243284725E8100C9F1ECA1E53D6ECB
:10445000616E00696E6600010210202008081020BD
:104460004010204080020102010804020101020400
:1044700008102040808040201008040201800402BF
:104480000180402010080402010804020101020416
:1044900008102040800102040810204080400505DB
:1044A0000505070508080808020202020A0A0808AA
:1044B00004040404010101010101010103030303D8
:1044C00003030303040707070C0C0C0C0C0C0C0C67
:1044D0000202020206060606060606060B0B0B0B78
:1044E0000B0B0B0B05000020002300260029002CDD
:1044F000002F003200000100000301060109010045
:10450000002200250028002B002E0031003400027C
:10451000010000050108010B010000210024002713
:10452000002A002D003000330001010000040107C3
:10453000010A01494E46494E4954594E414E000028
:1045400020410000C84200401C4620BCBE4CCA1B93
:104550000E5AAEC59D74CDCCCC3D0AD7233C17B7BF
:10456000D13877CC2B329595E6241FB14F0A0D94A4
:10457000E5320D94142E0D94B8370D94F40F0D946C
:1045800049050D9461070D94BB4C0D94F11A0D94DF
:10459000282B0D94640B0D94B0010D9434060D94EA
:1045A00058000D94C7310D94D4050D9404050D9455
:1045B000DD420D94AC440D94B31A0D944A090D9448
:1045C00015040D94CE1B0D94A1470D941E020D945D
:1045D0004C100D9475060D9431010D945A020D94F2
:1045E0007E380D94CE2A0D94D7040D94653D0D941C
:1045F000A6390D942E2B0D94E93D0D94C7050D940D
:10460000AE190D942F360D94E7010D94BE370D941D
:104610009F180D948E2E0D94E31B0D942C3B0D943E
:1046200090190D94D5380D9492190D9445430D941D
:10463000DE120D94DF1D0D9408040D942D2D0D94A4
:1046400068040D9489050D94E1220D94094D0D9493
:10465000FF080D942B510D94E9030D9493320D94A2
:1046600073310D941A440D948F2B0D94E3050D9422
:10467000531B0D946C3C0D9459030D943D030D9404
:1046800030310D9450030D94AC190D94943F0D945A
:10469000BF420D94E4030D949D360D94AE2F0D94FE
:1046A00028040D94CF060D9495030D9435300D9488
:1046B00052350D943F1C0D94CE190D9455040D9454
:1046C000C3390D9421400D94C74A0D9482030D9473
:1046D0005A330D946C340D9417060D942A310D94B1
:1046E000521E0D944E060D94BA3D0D940D350D9449
:1046F00032040D9482250D94FA330D94B5330D9444
:1047000045480D94882E0D947F400D943D440D94A2
:10471000952A0D94CA190D94CC3B0D9496020D94D4
:104720009D2A0D94A03A0D9475360D94161C0D9487
:104730005D180D94591B0D942C3A0D944C270D9433
:10474000F9050D9433250D94B5200D9427380D945B
:10475000DB380D94EF2E0D9485240D94E6300D94E6
:10476000880E0D94D2210D94F8490D94CC190D9416
:1047700007290D94CF350D94711A0D94C5030D942E
:104780009A040D94B8360D9466330D94A0490D9497
:10479000372D0D9466340D948E2C0D949B050D943D
:1047A000B2050D94B8030D94F5100D947B080D948B
:1047B000261D0D94E11C0D94BF460D9416430D94D7
:1047C0005E350D94761A0D94FE120D94C1310D9440
:1047D0000A360D94061F0D942D430D94BD1E0D94A5
:1047E000383D0D94714C0D94E1470D94F5360D94C0
:1047F000493F0D94A7040D942D380D94D30B0D94BF
:104800001D430D94222C0D94B42F0D9482430D94CE
:104810005F180D949E2D0D9452210D9482360D94A7
:10482000720F0D94F52E0D9432050D9403430D94E3
:10483000A1350D941A200D942B470D94D21A0D9486
:10484000EB1A0D94B8350D94BC080D947C230D948F
:10485000C82A0D9431030D94ED420D94D6360D9473
:104860004E180D9479350D9429570D9488350D9473
:104870000F430D94C6040D948F060D947A1A0D946F
:10488000ED350D945C010D9448360D94282C0D9453
:104890005C060D9499320D9411250D94F6040D9437
:1048A0007B05FC755696BFC0CCC9AFCD9FCFA2CFBC
:1048B00042E811241FBECFEFD1E2DEBFCDBF00E042
:1048C0000CBF15E0A0E0B2E0EAE2F9EB02E00BBFBA
:1048D00002C007900D92A23EB107D9F711E1A2EEF6
:1048E000B5E001C01D92AA3BB107E1F718E4C2EBA5
:1048F000D8E400E006C022970109FE010BBF0F9427
:104900009B58C23AD10780E00807A9F70E94CD65FD
:104910000D94935C0C940000009719F00197A9F492
:1049200005C0A0917810B091791004C0A0917610C4
:10493000B0917710ED91FC9111970680F781E02DF1
:10494000CD0119959C0197FF02C020E030E0C9011C
:1049500008958FE0E6EAFCE0A7E9BCE001900D9243
:104960008A95E1F78BE090E090930702809306022E
:104970008FE0E4ECFCE0A5EBBCE001900D928A95A1
:10498000E1F70895A0913F0FB091400FED91FC9198
:1049900011970280F381E02DCD0119950895A09122
:1049A0003F0FB091400FED91FC9111970280F38180
:1049B000E02DCD011995089580913F0F9091400F02
:1049C000DC01ED91FC910480F581E02D19950895AD
:1049D00080913F0F9091400FDC01ED91FC9106809A
:1049E000F781E02D1995089580913B0F90913C0F30
:1049F000DC01ED91FC916091FD0961500480F5812D
:104A0000E02D19959C012F5833402B393440E8F4A0
:104A10009C012F5C344022383105C8F09C0121559F
:104A2000354022383105A8F09C01235D35402238FD
:104A3000310588F09C01255536402138310568F054
:104A4000863D964060F085E008958FEF089581E0FF
:104A5000089582E0089583E0089584E0089580E059
:104A60000895E0917608F0917708A081B1818BE6F6
:104A700095E29F938F93FF93EF935096ED91FC9166
:104A8000519719950F900F900F900F9008950F93D5
:104A90001F93CF93DF93E0917608F0917708A08180
:104AA000B1818FE691E29F938F93FF93EF9350969E
:104AB000ED91FC91519719950F900F900F900F90D9
:104AC000A0917608B0917708ED91FC911197008440
:104AD000F185E02DCD0119958F3F2FEF920781F3DE
:104AE0008937910521F08935910509F041C0E091A0
:104AF0007608F0917708A081B1818AEC91E29F93CA
:104B00008F93FF93EF935096ED91FC9151971995E8
:104B10000F900F900F900F90C0E0D0E00091350FF4
:104B20001091360FD801ED91FC910284F385E02DB0
:104B300040E0BE01C80119952196C115B0E1DB071F
:104B400089F7E0917608F0917708A081B1818BED2B
:104B500091E29F938F93FF93EF935096ED91FC9189
:104B6000519719950F900F900F900F9080E001C012
:104B70008FEFDF91CF911F910F910895E09176080B
:104B8000F0917708A081B181882319F085ED9BE130
:104B900002C088ED9BE19F938F93FF93EF93509614
:104BA000ED91FC91519719950F900F900F900F90E8
:104BB000E0917608F0917708A081B1818CED9BE1BE
:104BC0009F938F93FF93EF935096ED91FC915197A4
:104BD00019950F900F900F900F900895E09176081F
:104BE000F0917708A081B18189E090E29F938F9343
:104BF000FF93EF935096ED91FC91519719950F907B
:104C00000F900F900F9080E0089580913F0F90914A
:104C1000400FDC01ED91FC91068CF78DE02D60E0FA
:104C2000199580E008958091390F90913A0FDC0139
:104C3000ED91FC910088F189E02D19959091350D49
:104C400089138093350D0895DC01ED91FC9163305B
:104C500009F1DF01643028F4662351F0623069F510
:104C600013C06A30E9F06B3009F1643031F506C0E9
:104C70000284F385E02D65EC7EE11DC00284F3859E
:104C8000E02D6CEC7EE117C00284F385E02D61ED30
:104C90007EE111C00284F385E02D6AED7EE10BC058
:104CA0000284F385E02D63EE7EE105C00284F38586
:104CB000E02D68EE7EE1199508951F926F932CEE1A
:104CC0003EE13F932F939F938F935096ED91FC91EC
:104CD000519719950F900F900F900F900F900F9084
:104CE00008951F93CF93DF93C091390FD0913A0F5E
:104CF000E881F9810284F385E02D682FCE011995B2
:104D0000182F8F3FD9F0E881F9810280F381E02DDF
:104D100040E0682FCE011995E881F9810680F7817E
:104D2000E02D41E0612FCE011995E881F9810480E1
:104D3000F581E02D612FCE01199501C080E0DF9152
:104D4000CF911F910895E0917608F0917708A081A6
:104D5000B18188E49CE19F938F93FF93EF935096EA
:104D6000ED91FC91519719950F900F900F900F9026
:104D700008958091760890917708DC01ED91FC917F
:104D80000484F585E02D62E97BE119956091760850
:104D90007091770888E19BE00F947E3880E0089559
:104DA0000F931F93CF93DF93C8E2D0E009EB1CE190
:104DB000E0917608F0917708A081B1811F930F935D
:104DC000FF93EF935096ED91FC9151971995219790
:104DD0000F900F900F900F9059F767E373E0809159
:104DE0007608909177080F94594CDF91CF911F91DD
:104DF0000F910895CF93DF93EC0109C0219767E3EA
:104E000073E080917608909177080F94594C1C16A6
:104E10001D06A4F3DF91CF910895CF93DF93E09126
:104E20007608F0917708A081B1818FE093E29F939B
:104E30008F93FF93EF935096ED91FC9151971995B5
:104E4000AFDFA0917608B0917708E091760CF091F1
:104E5000770CCD91DC91119787858F9386858F9301
:104E600085858F9384858F9383858F9382858F9398
:104E700086E193E29F938F93BF93AF93E889F9897B
:104E80001995E0917608F0917708C081D181A0E270
:104E9000B9E011968C9111978F938C918F93AEE11D
:104EA000B9E011968C9111978F938C918F93ACE10F
:104EB000B9E011968C9111978F938C918F9389E221
:104EC00093E29F938F93FF93EF93E889F989199564
:104ED000A0917608B0917708E091160BF091170B2E
:104EE000CD91DC91119787858F9386858F938585EA
:104EF0008F9384858F9383858F9382858F938CE3A3
:104F000093E29F938F93BF93AF93E889F9891995A3
:104F1000E0917608F09177088DB79EB782960FB62C
:104F2000F8949EBF0FBE8DBFC081D181ABE5B9E0C3
:104F300011968C9111978F938C918F93A9E5B9E07D
:104F400011968C9111978F938C918F93A7E5B9E06F
:104F500011968C9111978F938C918F938FE493E29C
:104F60009F938F93FF93EF93E889F9891995E091C7
:104F70007608F0917708C081D181A9E7B9E0119650
:104F80008C9111978F938C918F93A7E7B9E011962D
:104F90008C9111978F938C918F93A5E7B9E011961F
:104FA0008C9111978F938C918F9382E693E29F93CC
:104FB0008F93FF93EF93E889F9891995E09176082B
:104FC000F0917708C081D181A7E9B9E011968C9161
:104FD00011978F938C918F93A5E9B9E011968C91DD
:104FE00011978F938C918F93A3E9B9E011968C91CF
:104FF00011978F938C918F9385E793E29F938F9373
:10500000FF93EF93E889F9891995E0917608F0917B
:105010007708C081D181A5EBB9E011968C911197E9
:105020008F938C918F93A3EBB9E011968C9111978C
:105030008F938C918F93A1EBB9E011968C9111977E
:105040008F938C918F9388E893E29F938F93FF9334
:10505000EF93E889F9891995E0917608F09177083E
:105060008DB79EB788960FB6F8949EBF0FBE8DBFC2
:10507000C081D181A3EDB9E011968C9111978F93E6
:105080008C918F93A1EDB9E011968C9111978F932C
:105090008C918F93AFECB9E011968C9111978F930F
:1050A0008C918F938BE993E29F938F93FF93EF9370
:1050B000E889F989199582E090E09CDE8DB79EB76A
:1050C0000A960FB6F8949EBF0FBE8DBFDF91CF91A9
:1050D000089560ED7DE08AE89DE00F946D2760ED16
:1050E0007DE08EE99DE00D946D27A2E2B0E0EBE754
:1050F000F8E20D94075880919D0D81110DC08091AB
:10510000760890917708DC01ED91FC910484F58597
:10511000E02D6BEB7CE1199516DEDBDF1B8E1C8E20
:105120001D8E1E8E1F8A188E198E1A8E1F8218864B
:1051300019861A861B8A1C8A1D8A1E8A00E0B12CD9
:10514000A12C912C1F86188A198A1A8A1B821C820C
:105150001D821E821B861C861D861E861A821F8E3D
:105160001AA210E064E170E080E090E00BDC24DC47
:105170006B017C018AE89DE00F94D8276983272E74
:10518000382E492E8AE89DE00F94A027562E672ED0
:10519000782E892E20E030E0A901BA81AF8DFAA1E6
:1051A0006B2F7A2F8F2F912F0F943553811109C0B8
:1051B0005B826C827D828E82B981BA832F8E3AA205
:1051C000142D7981272F322D432D542DBB85AC858D
:1051D000ED85FE856B2F7A2FCF010F94B2551816EF
:1051E0002CF0E981EB872C863D864E867981272F2E
:1051F000322D432D542DBA81AF8DFAA16B2F7A2F0A
:105200008F2F912F0F94355387FD05C0F981FA83B5
:105210002F8E3AA2142D252D362D472D582DBB81CA
:10522000AC814D803E806B2F7A2F842D932D0F946F
:10523000355387FD04C05B826C827D828E82252D72
:10524000362D472D582DBF85A88949883A886B2F60
:105250007A2F842D932D0F94B255181624F05F8663
:10526000688A798A8A8A8EE99DE00F94D8276983B3
:10527000272E382E492E8EE99DE00F94A027562E1A
:10528000672E782E892E20E030E0A901602F7B2D3B
:105290008A2D992D0F943553811108C05F8268863D
:1052A00079868A860981B22CA32C942C7981272FA8
:1052B000322D432D542DBB89AC89ED89FE896B2F8E
:1052C0007A2FCF010F94B25518162CF029812B8B11
:1052D0002C8A3D8A4E8A7981272F322D432D542DD9
:1052E000602F7B2D8A2D992D0F94355387FD04C097
:1052F0000981B22CA32C942C252D362D472D582D09
:10530000BF81A88549843A846B2F7A2F842D932DF1
:105310000F94355387FD04C05F82688679868A863C
:10532000252D362D472D582DBF89A88D498C3A8CB7
:105330006B2F7A2F842D932D0F94B255181624F0CD
:105340005F8A688E798E8A8ED701C6012B8D3C8D3F
:105350004D8D5E8D821B930BA40BB50B883C910584
:10536000A105B10508F476C0E0917608F0917708C0
:10537000408151813A8D3F93898D8F93988D9F9372
:10538000AF89AF93BA85BF9329852F9338853F9313
:105390008F818F939E899F93AD89AF93BC89BF9373
:1053A0002B892F939F92AF92BF920F933A893F938D
:1053B00089898F9398899F93AF85AF93BE81BF935F
:1053C0002D812F933C813F938B818F939E859F935B
:1053D000AD85AF93BC85BF932B852F931F933AA1C7
:1053E0003F938F8D8F939A819F93A9EDBCE1BF93DB
:1053F000AF93FF93EF93DA015096ED91FC915197A3
:1054000019950FB6F894DEBF0FBECDBFCB8EDC8EE4
:10541000ED8EFE8E1F8A188E198E1A8E1F821886A8
:1054200019861A861B8A1C8A1D8A1E8A00E0B12CE6
:10543000A12C912C1F86188A198A1A8A1B821C8219
:105440001D821E821B861C861D861E861A821F8E4A
:105450001AA210E0A0917608B0917708ED91FC9126
:1054600011970480F581E02DCD01199518161906C4
:105470000CF078CE80E0A296E2E10D942358A0E0F3
:10548000B0E0E5E4FAE20D940F585DDC68EE73E0FD
:1054900080E090E077DA88E9E82E8DE1F82E9FE64B
:1054A000C92E9DE1D92E64E670E080E090E06ADAD2
:1054B0008091320D9091330D0E94C8B5C091320D8C
:1054C000D091330D8BA10091760810917708D80107
:1054D0008823B1F1AD90BC908AA11F928F93688907
:1054E00079898A899B8924E630E040E050E00F9476
:1054F00002575F934F933F932F938F858F938E85A2
:105500008F938D858F938C858F938B858F938A85D1
:105510008F9389858F9388858F93DF92CF921F9386
:105520000F93D5015096ED91FC9151971995EDB7D8
:10553000FEB772960FB6F894FEBF0FBEEDBF0EC059
:10554000ED91FC91FF92EF921F930F930088F189E8
:10555000E02D19950F900F900F900F90A091760865
:10556000B0917708ED91FC9111970480F581E02DC1
:10557000CD011995181619060CF095CF80E0CDB71E
:10558000DEB7EAE00D942B58A1E0B0E0EAECFAE2D5
:105590000D941558D8DB68EE73E080E090E0F2D906
:1055A000E0917608F0917708A081B1818AE99DE1C8
:1055B0009F938F93FF93EF935096ED91FC915197AA
:1055C00019954AE050E068E070E08091760890918B
:1055D00077080F94EB4C0F900F900F900F9006EA06
:1055E0001DE164E170E080E090E0CCD9FDD99091BC
:1055F000E2059817D9F0E0917608F0917708A0813C
:10560000B1811F928F931F930F93FF93EF93509647
:10561000ED91FC9151978983199589818093E205D9
:105620000F900F900F900F900F900F90A091760811
:10563000B0917708ED91FC9111970480F581E02DF0
:10564000CD0119951816190664F680E02196E4E05C
:105650000D943158EF92FF920F931F93CF93DF93E6
:10566000EC018091050A992787FD90958617970789
:1056700034F48FE0DE011D928A95E9F75BC08FE07C
:10568000869F7001879FF00C1124BBEFFB1A0091DD
:10569000350F1091360FD801ED91FC910280F38106
:1056A000E02DB701C80119958883D801ED91FC91CF
:1056B000B7016F5F7F4F0280F381E02DC80119951C
:1056C0008983D801ED91FC91B7016E5F7F4F028015
:1056D000F381E02DC80119958A83D801ED91FC91E1
:1056E000B7016D5F7F4F0680F781E02DC8011995E6
:1056F0006B837C838D839E83D801ED91FC91B701F0
:10570000695F7F4F0680F781E02DC80119956F838F
:10571000788789879A87D801ED91FC91B701655FF9
:105720007F4F0680F781E02DC80119956B877C8734
:105730008D879E8788818F3510F08137B9F48981F4
:1057400080FF14C04B815C816D817E810091C70C0C
:105750001091C80C2091C90C3091CA0C400F511FF8
:10576000621F731F4B835C836D837E83CE01CDB735
:10577000DEB7E6E00D942F58AFE0B0E0E2ECFBE2DC
:105780000D94145868EE73E080E090E0FBD8E0914F
:105790007608F0917708A081B1812091050A822FC7
:1057A000992787FD90959F932F9383EB9DE19F937E
:1057B0008F93FF93EF935096ED91FC91519719952C
:1057C000E0917608F0917708A081B18180910A0A72
:1057D0008F938091090A8F938091080A8F9380910B
:1057E000070A8F9381EC9DE19F938F93FF93EF9333
:1057F0005096ED91FC91519719950FB6F894DEBF34
:105800000FBECDBFF12C01ED1DE13BC0CE010196D5
:1058100021DFE0917608F0917708A081B1818F8532
:105820008F938E858F938D858F938C858F938B85AA
:105830008F938A858F9389858F9388858F938F81A6
:105840008F938E818F938D818F938C818F938B819A
:105850001F928F938A811F928F9389811F928F93BA
:105860001F92FF921F930F93FF93EF935096ED912A
:10587000FC9151971995F3940FB6F894DEBF0FBEC3
:10588000CDBF6F2D70E08091050A992787FD909517
:10589000861797070CF0BACF80E02F96E5E00D94BD
:1058A00030580F931F93CF93DF934DDA68EE73E078
:1058B00080E090E067D80DE01EE1C7E1DEE1E09115
:1058C0007608F0917708A081B1811F930F93FF9321
:1058D000EF935096ED91FC91519719958EE496E0D7
:1058E0000F94812868EB7BE080E090E04BD8A0919A
:1058F0007608B0917708ED91FC9111970480F581BD
:10590000E02DCD0119950F900F900F900F90181664
:10591000190664F1E0917608F0917708A081B181D1
:10592000DF93CF93FF93EF935096ED91FC915197B6
:1059300019958EE496E00F94942868EB7BE080E064
:1059400090E020D8A0917608B0917708ED91FC9175
:1059500011970480F581E02DCD0119950F900F90DE
:105960000F900F90181619060CF0A9CF80E0DF9168
:10597000CF911F910F910895A1E0B0E0E2ECFCE21D
:105980000D941758E0917608F0917708A081B181C5
:105990001F928F9382EA94E29F938F93FF93EF93EA
:1059A0005096ED91FC915197698319956981809189
:1059B00076089091770848D9809176089091770879
:1059C0000F94454C0F900F900F900F900F900F90E9
:1059D0002196E2E00D9433581F93CF93DF93E0912B
:1059E0007608F0917708A081B18184E994E29F93D1
:1059F0008F93FF93EF935096ED91FC9151971995EA
:105A0000CFD9CEEFD9E00F900F900F900F9010E00C
:105A10006991812FB1DF1F5F1630D1F782E090E0EE
:105A2000E9D9DF91CF911F910895CF93C82F80912D
:105A3000340D8C1731F08BE09AE00F948A46C093B6
:105A4000340DCF9108958091510690915206DC015A
:105A5000ED91FC910480F581E02D6091D8081995B5
:105A60008091510690915206DC01ED91FC910284E7
:105A7000F385E02D199520E030E048E452E40F94DE
:105A8000BD550F94A453DC01CB014FEF50E060E013
:105A900070E00E9421F380936F0E0895AFE0B0E0B4
:105AA000E4E5FDE20D940D58A982BA82CB82DC8236
:105AB000ED82FE820F83188729873A874B875C87A0
:105AC0006D877E878F87C4014091050A552747FD62
:105AD000509560E070E00E9421F32FE0289F700154
