:100000000C94252E0C94562E0C94562E0C94562E91
:100010000C94562E0C94562E0C94562E0C94D7FEFF
:100020000C94562E0C94562E0C94562E0C94562E40
:100030000C94562E0C94562E0C94562E0D942AC9C0
:100040000C94562E0C94562E0C94562E0C94562E20
:100050000C94562E0C94562E0C94562E0C94562E10
:100060000C94562E0C9480FF0C94AFFF0C94562EDB
:100070000C94562E0C94562E0C94562E0C94562EF0
:100080000C94562E0C94562E0C94562E0C94562EE0
:100090000C94EAFF0D9419000C94562E0D949503C0
:1000A0000C94562E0D9457C90C94562E0C94562E23
:1000B0000C94562E0D94C5090D9484C90C94562E9B
:1000C0000C94562E0C94562E0C94562E0C94562EA0
:1000D0000C94562E0C94562E0D9454000D948300BF
:1000E0000C94562ECF30D430D930DE30E330E830A7
:1000F000F230F730ED301131FC3001310631113181
:1001000011310B31814A854A834A814A814A834AA7
:10011000834A834A834A884A854A854A854A884A67
:10012000884A854A874AAD5A905A7F5A125896583B
:10013000DB58205A255ADB58E55AAD560F580F5850
:10014000E55AE55A0F584F6D786D4F6D4F6D5D6DE7
:100150004F6D726D646D526D116E886DA26DF16D93
:10016000116E116E0A6E4B6D9B8D8A8D908D878DF1
:100170008A8D8D8D8D8D8A8D9D8D9B8D9B8D9B8D7B
:100180009D8D9D8D9B8D238F6A8F738F458F598F8A
:100190007C8F1690CE8FC58FB28FD78FEC8FFF8F4D
:1001A0008C8F9F8FBD9030901F904190BD904A9052
:1001B000539066907990AC908290BD909A908A907E
:1001C000B490A0EAA6EAADEAB4EAC2EAD8EAE0EA64
:1001D000BBEBB4EBCAEBD7EBEFEB08EC14ECCAF0DB
:1001E000C5F0D1F0D5F0E0F0FBF01FF128F153F1AC
:1001F0004EF15CF161F165F175F17FF1B0F5A9F5B2
:10020000B9F5C4F5D4F5E9F509F62CF637F6F4F6A8
:10021000EDF6FCF606F71AF730F747F765F771F7D2
:10022000312A312AE52AE52A932C932C232C232CDE
:10023000312AE52A232C272ABB2A812D972CDD2A57
:10024000D72C432D272BF92AE92A4D2CCF2CC32A52
:100250003D2DE3297D2C092DC12C132DFB2D0D2DBA
:10026000772BEB29E72AEB2BE72DF92C7D2B052AA1
:10027000072DB72B452A012B072B0B2A772AAF2AEC
:10028000792AA12A052EF72B1B2D6B2AE12BE92CAD
:100290000F2DF92DB32B9D2B292B272DA32D552D5C
:1002A000D32BD52AC52D472BFD29692AAB2DA72B8A
:1002B0006D2D012AE529212C372AD12CB92D212B8E
:1002C000212D3D2C792D9F2A332BD32D992C3F2C7A
:1002D000AD2D2B2BDF2DA32ACF2A032B032B972DFC
:1002E000032B032B972D972D152B0F2A152B0F2A38
:1002F000152B0F2A152BED2CED2CED2CED2CED2CC8
:10030000ED2CED2CED2CED2C0D2C152B0F2A152B97
:100310000F2A152B0F2A152B0F2A152B0D2C152BF9
:10032000ED2CED2C0F2A152BED2C0F2A152B0F2A57
:10033000152B0D2CBD2CFF2ABD2CFF2ABD2CFF2A0E
:10034000BD2CFF2ABD2CFF2A932D932D932DEF2A30
:10035000EF2A932D932D932DEF2AEF2ADD2CDD2C00
:10036000DD2C2D2B2D2BDD2CDD2CDD2C2D2B2D2B09
:10037000772DD32C772DD32C772DD32C772DD32CF1
:10038000772DCB2D0F2C4B2A052B6D2A052B052BFA
:100390005F2D032C052B052B752CE72B532B052BE1
:1003A000052B052B052B052B052B052B052B052BCD
:1003B000052B052B232D052B052B052B052B052B9D
:1003C000052B052B9F2DD32A052BDD2BBD2B052BB4
:1003D0008D2D8D2B052B052B052B052BC32D5F2C70
:1003E0007F2B9F2CB32C612B172AF52C172A172A49
:1003F000172AB12D712B552A4F2D4F2D5F2BFB2B1B
:100400001F2CB12C2F2A452B3B2D952CB52BB52B12
:10041000C92D5B2A5B2A5B2A5B2A5B2A5B2AB52BE8
:100420005B2A5B2A5B2A5B2AC92DC92DC92DC92DE0
:10043000C92DC92D5B2A5B2AC92DC92DC92D036E73
:10044000DB363D9A9999993DABAAAA2A3E00000055
:10045000803F084AD73B3BCE016E84BCBFFDC12F15
:100460003D6C74319ABD56833DDA3D00C77F11BEA5
:10047000D9E4BB4C3E916BAAAABE000000803F07A6
:100480002C7AA5BA6CC590DA3B9365FC8BBC53F80B
:1004900010FD3C5692834DBD879D3AB63DCBC9BFFA
:1004A0005BBE73DA0FC93F05A84CCDB2D44EB93844
:1004B00036A9020C50B9918688083CA6AAAA2ABE81
:1004C000000000803F08000000BE922449123EABAD
:1004D000AAAA2ABECDCCCC4C3E00000080BEABAA5E
:1004E000AAAA3E00000000BF000000803F000000FC
:1004F0000000084178D3BB4387D1133D190E3CC39C
:10050000BD4282AD2B3E68EC8276BED98FE1A93E1A
:100510004C80EFFFBE01C4FF7F3F000000000006DB
:1005200064EC1B3C04BC163E3BE5B93CC93C37C2FD
:100530009E5A3D660498083EEA69AAAA3E00000059
:10054000803F536574207468726F74746C652025E5
:1005500075005365742067726F756E64737065659E
:100560006420257500536574206169727370656538
:1005700064202575206D2F7300526573657474694E
:100580006E6720707265765F575000536574206601
:10059000656E636520656E61626C6564207374616D
:1005A000746520746F20257500556E61626C65203E
:1005B000746F207365742066656E636520656E6177
:1005C000626C656420737461746520746F20257596
:1005D0000053657420696E766572746564202575B4
:1005E00000457865637574696E6720636F6D6D6132
:1005F0006E6420494420232569004578656375743D
:10060000696E67206E617620636F6D6D616E642028
:100610004944202325690052657475726E696E67BE
:1006200020746F20486F6D65004D6F6465282575D7
:100630002900477569646564004C6F6974657200D0
:1006400052544C004155544F0043525549534500B4
:100650004642575F42004155544F54554E4500465F
:1006600042575F41004143524F00547261696E69C5
:100670006E670053746162696C697A6500436972E0
:10068000636C65004D616E75616C0041504D2031A9
:10069000000A41726475506C616E652056332E32CB
:1006A0002E3220283763643063653637290A467254
:1006B00065652052414D3A2025750A00626164202B
:1006C0006C6F67206E756D6265720A0064756D707F
:1006D000696E6720616C6C0A00656E61626C650012
:1006E000534F4E41520052430043414D4552410049
:1006F0005445435300434F4D5041535300435552CB
:1007000052454E5400434D4400494D55004D4F4411
:1007100045004E54554E004354554E00504D004731
:1007200050530041545449545544455F4D4544008D
:1007300041545449545544455F4641535400616CFB
:100740006C006D697373696E67206C6F67207479D4
:1007500070650A0020255300534F4E41520020255A
:1007600053005243002025530043414D4552410060
:1007700020255300544543530020255300434F4D3B
:1007800050415353002025530043555252454E5477
:100790000020255300434D440020255300494D556A
:1007A00000202553004D4F444500202553004E5452
:1007B000554E00202553004354554E00202553002C
:1007C000504D002025530047505300202553004131
:1007D000545449545544455F4D4544002025530029
:1007E00041545449545544455F46415354006E6F3B
:1007F0006E65006C6F677320656E61626C65643A4C
:1008000020004C6F77204261747465727920252E28
:10081000326656205573656420252E3066206D4162
:1008200068006661696C656420746F20736574206C
:1008300072616C6C7920706F696E74006261642003
:1008400072616C6C7920706F696E7420696E64657A
:1008500078006261642072616C6C7920706F696EDF
:1008600074206D65737361676520636F756E7400C6
:100870006261642072616C6C7920706F696E7420A3
:100880006D65737361676520494400626164206629
:10089000656E636520706F696E74006261642066C6
:1008A000656E636520706F696E740066656E63695E
:1008B0006E67206D75737420626520646973616270
:1008C0006C65640041726475506C616E65205633CE
:1008D0002E322E3220283763643063653637290084
:1008E00052656A656374656420676F2061726F7515
:1008F0006E6420636F6D6D616E642E00476F2061C2
:10090000726F756E6420636F6D6D616E64206163DC
:100910006365707465642E00556E737570706F72C8
:1009200074656420707265666C69676874206361C1
:100930006C6962726174696F6E00636F6D6D616E78
:10094000642072656365697665643A200044656D6C
:100950006F20536572766F7321007A65726F206124
:10096000697273706565642063616C696272617439
:100970006564006261726F6D657465722063616C9D
:100980006962726174696F6E20636F6D706C6574FB
:10099000650043616C6962726174696E67206261AF
:1009A000726F6D65746572004E4F2061697273706D
:1009B00065656400426567696E6E696E6720494EC1
:1009C000532063616C6962726174696F6E3B20646D
:1009D0006F206E6F74206D6F766520706C616E6530
:1009E000000A0A20526561647920746F20464C59D0
:1009F0002E003C737461727475705F67726F756EF0
:100A0000643E2047524F554E4420535441525400A7
:100A10004C6F6720657261736520636F6D706C65E4
:100A200074650045726173696E67206C6F6773004F
:100A30006C6F61645F616C6C20746F6F6B20256CF0
:100A40007575730A00646F6E652E004669726D7766
:100A5000617265206368616E67653A2065726173D3
:100A6000696E6720454550524F4D2E2E2E0A00428A
:100A7000616420706172616D657465722074616279
:100A80006C650042616420706172616D65746572AD
:100A9000207461626C650A00496E697469616C69F1
:100AA00073696E672041504D2E2E2E000A507265DC
:100AB000737320454E54455220332074696D65731D
:100AC00020746F20737461727420696E7465726132
:100AD00063746976652073657475700A00436F6D81
:100AE0007061737320696E697469616C6973617494
:100AF000696F6E206661696C6564210045524153DF
:100B0000494E47204C4F4753004E6F20646174613B
:100B1000666C617368206361726420696E736572CC
:100B2000746564000A0A496E6974204172647550E4
:100B30006C616E652056332E322E32202837636466
:100B40003063653637290A0A467265652052414D81
:100B50003A2025750A004D5347204653204F4646FC
:100B6000202575004D5347204653204F4E202575B4
:100B7000004661696C73616665202D2053686F7251
:100B800074206576656E74206F666600666C6967B2
:100B90006874206D6F6465203D202575004661698D
:100BA0006C73616665202D2053686F7274206576C2
:100BB000656E74206F6E2C2000464257412074648D
:100BC000726167206D6F64650A0046425741207468
:100BD00064726167206F6666005472696767657248
:100BE0006564204155544F2C204750537370642046
:100BF0003D20252E316600426164204C61756E6394
:100C000068204155544F0054696D656F75742041DB
:100C100055544F0041726D6564204155544F2C204E
:100C200078616363656C203D20252E3166206D2F31
:100C3000732F732C2077616974696E6720252E31BC
:100C400066207365630054696D657220496E746532
:100C500072727570746564204155544F00677073EB
:100C600020616C743A20256C7500696E6974206887
:100C70006F6D6500556E61626C6520746F207374D2
:100C8000617274206C616E64696E67207365717542
:100C9000656E63652E004C616E64696E67207365D6
:100CA0007175656E636520626567756E2E005265AD
:100CB000616368656420686F6D650076657269665A
:100CC000795F6E61763A204C4F49544552207469E1
:100CD0006D6520636F6D706C657465007665726913
:100CE00066795F6E61763A204C4F49544552206FC9
:100CF000726269747320636F6D706C657465005007
:100D0000617373656420576179706F696E74202315
:100D1000256920646973742025756D0052656163CF
:100D200068656420576179706F696E742023256946
:100D300020646973742025756D00466C61726520AE
:100D4000252E31666D2073696E6B3D252E3266202F
:100D500073706565643D252E31660046656E63657A
:100D600020656E61626C65642E20286175746F6504
:100D70006E61626C65642900456E61626C65206617
:100D8000656E6365206661696C6564202863616EC9
:100D90006E6F74206175746F656E61626C6500487A
:100DA0006F6C64696E6720636F7572736520256C64
:100DB0006420617420252E31666D2F732028252E26
:100DC000316629007665726966795F636F6E646962
:100DD000746F6E3A20496E76616C6964206F722080
:100DE0006E6F2063757272656E7420436F6E6469F6
:100DF00074696F6E20636D64007665726966795FF1
:100E00006E61763A20496E76616C6964206F72205B
:100E10006E6F2063757272656E74204E617620630A
:100E20006D640067656F2D66656E63652074726919
:100E30006767657265640067656F2D66656E6365DB
:100E4000204F4B0067656F2D66656E636520736587
:100E5000747570206572726F720067656F2D6665BC
:100E60006E6365206C6F616465640046656E6365E2
:100E70002064697361626C656420286175746F64B5
:100E8000697361626C65290044697361626C6520F5
:100E900066656E6365206661696C656420286175AE
:100EA000746F64697361626C652900666C69676858
:100EB00074206D6F6465203D202575004E6F2047BE
:100EC0004353206865617274626561742E004661E7
:100ED000696C73616665202D204C6F6E67206576A6
:100EE000656E74206F6E2C2000475F44745F6D61E7
:100EF000783D256C7520475F44745F6D696E3D25B4
:100F00006C750A0041726475506C616E65205633D1
:100F10002E322E322028376364306365363729003D
:100F2000F1000400524C4C325352565F5000000006
:100F30000000000000F1010400524C4C32535256A4
:100F40005F490000000000000000F1020400524C64
:100F50004C325352565F440000000000000000F184
:100F6000030400524C4C325352565F494D415800D5
:100F700000000000F200040050544348325352561F
:100F80005F5000000000000000F2010400505443D4
:100F900048325352565F4900000000000000F20240
:100FA000040050544348325352565F44000000003E
:100FB000000000F203040050544348325352565F7D
:100FC000494D415800000000860001004241545440
:100FD0005F4D4F4E49544F520000000000A80001E1
:100FE00000424154545F564F4C545F50494E0000EC
:100FF0000000A9000100424154545F435552525F22
:1010000050494E0000000087000400424154545FE4
:10101000564F4C545F4D554C54000000880004005E
:10102000424154545F414D505F504552564F4C54CD
:10103000008F000400424154545F414D505F4F46C1
:101040004653455400008A000300424154545F4314
:1010500041504143495459000000000B0002004C2C
:101060004F475F4249544D41534B00000000000080
:101070003400040052414C4C595F4C494D49545F77
:101080004B4D000000EE00010052414C4C595F54A2
:101090004F54414C0000000000008059464D540060
:1010A0000042426E4E5A00000000000000000000A6
:1010B00000547970652C4C656E6774682C4E616DB8
:1010C000652C466F726D61742C436F6C756D6E7319
:1010D0000000000000000000000000000000000010
:1010E0000000000000000000000000000000000000
:1010F0000081175041524D004E6600000000000074
:1011000000000000000000004E616D652C56616C0F
:1011100075650000000000000000000000000000F5
:1011200000000000000000000000000000000000BF
:1011300000000000000000000000000000000000AF
:101140000000000000000000822D475053000042C4
:10115000494842634C4C656545656649000000534B
:1011600074617475732C54696D654D532C576565A6
:101170006B2C4E536174732C48446F702C4C61740B
:101180002C4C6E672C52656C416C742C416C742C29
:101190005370642C474372732C565A2C54000083AE
:1011A00027494D55000049666666666666494900EE
:1011B00000000000000054696D654D532C477972A2
:1011C000582C477972592C4779725A2C41636358CD
:1011D0002C416363592C4163635A2C457272472C2E
:1011E0004572724100000000000000000000000095
:1011F00000000000000084434D534700005A0000E7
:10120000000000000000000000000000004D6573B9
:10121000736167650000000000000000000000002E
:1012200000000000000000000000000000000000BE
:1012300000000000000000000000000000000000AE
:1012400000000000000000000000000000852352A4
:1012500043494E00496868686868686868686868F3
:101260006868680054696D654D532C43312C4332D6
:101270002C43332C43342C43352C43362C43372C0E
:1012800043382C43392C4331302C4331312C4331FA
:10129000322C4331332C4331340000000000000075
:1012A00000000000861F52434F5500496868686877
:1012B000686868686868686800000054696D654D12
:1012C000532C4368312C4368322C4368332C4368D9
:1012D000342C4368352C4368362C4368372C4368DC
:1012E000382C4368392C436831302C436831312C19
:1012F000436831320000000000000088154241526E
:101300004F004966666366000000000000000000B0
:10131000000054696D654D532C416C742C507265FE
:1013200073732C54656D702C4352740000000000E0
:1013300000000000000000000000000000000000AD
:10134000000000000000000000000000000000009D
:101350000000A315424152320049666663660000F0
:1013600000000000000000000054696D654D532C22
:10137000416C742C50726573732C54656D702C43E2
:101380005274000000000000000000000000000097
:10139000000000000000000000000000000000004D
:1013A000000000000000000000890D504F5752005F
:1013B0004943434800000000000000000000000016
:1013C00054696D654D532C5663632C565365727684
:1013D0006F2C466C61677300000000000000000085
:1013E00000000000000000000000000000000000FD
:1013F00000000000000000000000000000000000ED
:101400009129434D4400004948484866666666662F
:101410006666000000000054696D654D532C43540E
:101420006F742C434E756D2C4349642C50726D3192
:101430002C50726D322C50726D332C50726D342CD6
:101440004C61742C4C6E672C416C740000000000E1
:101450000000000000000092105241440000494288
:101460004242424248480000000000000000546927
:101470006D654D532C525353492C52656D52535345
:10148000492C54784275662C4E6F6973652C5265F1
:101490006D4E6F6973652C52784572726F72732C42
:1014A0004669786564000000000000000000941F99
:1014B00043414D000049484C4C656563634300005F
:1014C000000000000047505354696D652C4750538D
:1014D0005765656B2C4C61742C4C6E672C416C7499
:1014E0002C52656C416C742C526F6C6C2C5069746E
:1014F00063682C59617700000000000000000000C4
:101500000000000000A41941525350004966666370
:1015100066660000000000000000000054696D6570
:101520004D532C41697273706565642C446966661D
:1015300050726573732C54656D702C5261775072C4
:101540006573732C4F6666736574000000000000BD
:10155000000000000000000000000000A615435538
:101560005252004968686848666800000000000040
:1015700000000054696D654D532C5468726F74748B
:101580006C652C566F6C742C437572722C566363A9
:101590002C43757272546F742C566F6C7432000049
:1015A000000000000000000000000000000000003B
:1015B000000000A51741545400004963636363436E
:1015C0004343430000000000000054696D654D5323
:1015D0002C446573526F6C6C2C526F6C6C2C446590
:1015E0007350697463682C50697463682C44657324
:1015F0005961772C5961772C45727252502C457283
:1016000072596177000000000000A7194D414700A2
:1016100000496868686868686868680000000000D9
:101620000054696D654D532C4D6167582C4D6167B1
:10163000592C4D61675A2C4F6673582C4F6673595D
:101640002C4F66735A2C4D4F6673582C4D4F667352
:10165000592C4D4F66735A00000000000000000036
:1016600000AA094D4F444500494D420000000000CA
:10167000000000000000000054696D654D532C4DC2
:101680006F64652C4D6F64654E756D000000000041
:10169000000000000000000000000000000000004A
:1016A000000000000000000000000000000000003A
:1016B00000000000000000000216504D000000492C
:1016C0004849686868424800000000000000004C7B
:1016D00054696D652C4D4C432C6744742C474478F9
:1016E0002C4744792C47447A2C4932434572722C5A
:1016F000494E5345727200000000000000000000D7
:1017000000000000000000000000000000000005D4
:1017100006535452540042480000000000000000EC
:1017200000000000000053547970652C43546F741E
:1017300000000000000000000000000000000000A9
:101740000000000000000000000000000000000099
:101750000000000000000000000000000000000089
:1017600000000000000000174354554E0049636319
:101770006363686866000000000000000054696D43
:10178000654D532C4E6176526F6C6C2C526F6C6CA5
:101790002C4E617650697463682C50697463682CB0
:1017A0005468724F75742C5264724F75742C416377
:1017B00063590000000000000000000000011D4E01
:1017C00054554E00494366636363636649000000F5
:1017D0000000000054696D654D532C5961772C57FA
:1017E00070446973742C546172674272672C4E6145
:1017F000764272672C416C744572722C4172737020
:10180000642C416C742C47537064434D00000000FD
:10181000000000000E1D534F4E520049666666667A
:10182000424266000000000000000054696D654DF2
:10183000532C44697374434D2C566F6C742C426165
:10184000726F416C742C475370642C5468722C4333
:101850006E742C436F7272000000000000000000E4
:101860000000000000000000000000100A41524D7E
:101870000000494842000000000000000000000095
:10188000000054696D654D532C41726D5374617441
:10189000652C41726D436865636B73000000000046
:1018A0000000000000000000000000000000000038
:1018B0000000000000000000000000000000000028
:1018C00000009317415452500049424263666666D5
:1018D00000000000000000000054696D654D532CAD
:1018E000547970652C53746174652C536572766FEE
:1018F0002C44656D616E6465642C4163686965762E
:1019000065642C5000000000000000000000000092
:101910000000000000000000000C37544543530055
:1019200049666666666666666666666666000000A6
:1019300054696D654D532C682C64682C685F646530
:101940006D2C64685F64656D2C73705F64656D2CCD
:1019500073702C6473702C6974682C6970682C74B3
:10196000682C70682C6473705F64656D0000000003
:101970004C6F670064756D7000000000000000008F
:101980000000B02E65726173650000000000000069
:101990000000DE33656E61626C65000000000000CF
:1019A0000000C44864697361626C65000000000057
:1019B0000000C4485D6A0100BC0299860100E8038A
:1019C0004938010000190340010040068656010015
:1019D00078052A4F0100AC0D9B6301004006C870DA
:1019E0000700E8035E330100E80394360100C409F0
:1019F00051790500C409DC7F0500B80BEA5A0500DF
:101A0000B00434350500B00488700500480D485412
:101A10000500E803582E0500E803EA340100A40697
:101A20009B620100B80BE6340100DC05AD30050017
:101A30002C016E870500E803DD340100DC05D93494
:101A400001008403D53401002C01D65E0100F401AD
:101A500075343200E80315820F00E80325440500C1
:101A6000E80358463200E8033E330100DC051478F1
:101A7000F401E8033533B80BC4095B560500A4062E
:101A8000E7310500A406592E0500F40102464F5225
:101A90004D41545F56455253494F4E00000000558A
:101AA00012000000000153595349445F53575F54DB
:101AB0005950450000000001571200000000025379
:101AC000595349445F544849534D41560000000062
:101AD0007058120000803F0253595349445F4D59DA
:101AE000474353000000000000715A1200007F437A
:101AF0000253455249414C305F4241554400000079
:101B000000003F5C120000E6420253455249414C3E
:101B1000315F424155440000000000405E12000069
:101B20006442014155544F54554E455F4C4556450E
:101B30004C0000003D12140000C0400154454C45CB
:101B40004D5F44454C415900000000000073601295
:101B500000000000044B46465F524444524D495831
:101B6000000000000000C962120000003F044B4664
:101B7000465F54485232505443480000000000CBA6
:101B80006A120000000004535441425F504954431C
:101B9000485F444F574E00004C7412000000400252
:101BA000474C4944455F534C4F50455F4D494E00AB
:101BB000004B12130000704101535449434B5F4DD9
:101BC0004958494E47000000000019FA12000080F1
:101BD0003F01534B49505F4759524F5F43414C00BF
:101BE0000000002F7E1200000000014155544F5F9D
:101BF0004642575F5354454552000000307F120063
:101C000000000004544B4F46465F5448525F4D4914
:101C10004E5350440022FB120000000004544B4F6E
:101C200046465F5448525F4D494E4143430023FFAF
:101C3000120000000001544B4F46465F5448525F6B
:101C400044454C415900002E03130000004001544C
:101C50004B4F46465F54445241475F454C45560002
:101C60004204130000000004544B4F46465F5444A6
:101C70005241475F535044310043051300000000B8
:101C800004544B4F46465F524F544154455F5350A6
:101C900044004409130000000001544B4F46465FC6
:101CA0005448525F534C4557000000450D13000047
:101CB000000001544B4F46465F464C41505F504335
:101CC0004E54000051F312000000000146425741FB
:101CD0005F54445241475F4348414E00004E141345
:101CE00000000000014C4556454C5F524F4C4C5F84
:101CF0004C494D495400250F130000A040024C41AF
:101D00004E445F50495443485F434400000000176D
:101D1000131400000000044C414E445F464C4152F5
:101D2000455F414C540000001BDD120000404004A0
:101D30004C414E445F464C4152455F534543000081
:101D4000001CE11200000040014E41565F434F4E1F
:101D500054524F4C4C4552000000287C1200008029
:101D60003F04414C545F4D49580000000000000002
:101D70000000008380120000803F01414C545F430B
:101D800054524C5F414C4700000000007C8412001C
:101D900000000002414C545F4F464653455400003A
:101DA000000000000020BB12000000000257505F3E
:101DB0005241444955530000000000000000DF86F6
:101DC000120000B4420257505F4D41585F524144E7
:101DD00049555300000000318812000000000257EE
:101DE000505F4C4F495445525F524144000000003F
:101DF000E08A12000070420146454E43455F414370
:101E000054494F4E0000000000E18C120000000019
:101E10000146454E43455F544F54414C000000007D
:101E20000000E28D12000000000146454E43455F70
:101E30004348414E4E454C00000000E38E12000026
:101E400000000246454E43455F4D494E414C54000B
:101E500000000000E48F12000000000246454E43DF
:101E6000455F4D4158414C540000000000E591127F
:101E7000000000000246454E43455F524554414C28
:101E80005400000000006993120000000001464564
:101E90004E43455F4155544F454E41424C45006AC3
:101EA0009512000000000146454E43455F524554DF
:101EB0005F52414C4C5900006B961200000000012B
:101EC0005354414C4C5F50524556454E54494F4E29
:101ED000005515140000803F0241525350445F46A4
:101EE00042575F4D494E00000000780A1400001070
:101EF000410241525350445F4642575F4D415800A2
:101F0000000000790C140000B04101464257425FC6
:101F1000454C45565F524556000000007B97120025
:101F200000000001464257425F434C494D425F5218
:101F300041544500007D9812000000400154485271
:101F40005F4D494E00000000000000000000B50693
:101F50001400000000015448525F4D415800000039
:101F600000000000000000B6071400009642015473
:101F70004B4F46465F5448525F4D415800000000A9
:101F8000460E1300000000015448525F534C455761
:101F9000524154450000000000BD08140000C84232
:101FA00001464C41505F534C455752415445000047
:101FB000000052161300009642015448525F5355D8
:101FC00050505F4D414E0000000000BE99120000CD
:101FD0000000015448525F504153535F53544142F3
:101FE00000000000BF9A1200000000015448525F38
:101FF0004641494C534146450000000000B79B1242
:102000000000803F025448525F46535F56414C5592
:10201000450000000000B89C1200806D440154523D
:10202000494D5F5448524F54544C4500000000B98C
:10203000091400003442015448524F54544C455F37
:102040004E554447450000001F9E120000803F018E
:1020500046535F53484F52545F4143544E00000073
:1020600000BA9F12000000000446535F53484F52CD
:10207000545F54494D454F555400C3A1120000C050
:102080003F0146535F4C4F4E475F4143544E000063
:10209000000000BBA012000000000446535F4C4F3C
:1020A0004E475F54494D454F55540000C4A512009A
:1020B00000A0410446535F424154545F564F4C5474
:1020C0004147450000C1AA12000000000446535FCA
:1020D000424154545F4D4148000000000000C2AE30
:1020E00012000000000146535F4743535F454E41D5
:1020F000424C0000000000BCA91200000000014694
:102100004C544D4F44455F43480000000000000020
:10211000D2B2120000004101464C544D4F444531AB
:10212000000000000000000000D3B31200003041A6
:1021300001464C544D4F4445320000000000000061
:102140000000D4B4120000304101464C544D4F44BD
:102150004533000000000000000000D5B51200006B
:10216000A04001464C544D4F44453400000000004F
:1021700000000000D6B6120000A04001464C544DAD
:102180004F444535000000000000000000D7B712A2
:102190000000000001464C544D4F444536000000FD
:1021A000000000000000D8B81200000000024C49F6
:1021B0004D5F524F4C4C5F434400000000000098BC
:1021C000B91200A08C45024C494D5F504954434818
:1021D0005F4D415800000000990E140000FA4402BF
:1021E0004C494D5F50495443485F4D494E000000F3
:1021F000009A101400401CC5024143524F5F524FD9
:102200004C4C5F524154450000007EBD120000342A
:1022100043024143524F5F50495443485F52415437
:102220004500007FBF1200003443014143524F5F1D
:102230004C4F434B494E47000000000080C1120044
:102240000000000447524F554E445F5354454552D9
:102250005F414C5400326E12000000000247524FA2
:10226000554E445F53544545525F445053003372BA
:10227000120000B442015452494D5F4155544F0081
:10228000000000000000000AC2120000000001452A
:102290004C45564F4E5F4D4958494E47000000008F
:1022A0000DC3120000000001454C45564F4E5F52D1
:1022B0004556455253450000000ECA12000000006A
:1022C00001454C45564F4E5F4348315F52455600DD
:1022D00000000FCB120000000001454C45564F4E48
:1022E0005F4348325F52455600000010CC12000098
:1022F000000001565441494C5F4F5554505554000D
:102300000000000027C4120000000001454C4556A3
:102310004F4E5F4F55545055540000000029C512D0
:1023200000000000044D4958494E475F4741494E5F
:102330000000000000002BC6120000003F025359AD
:10234000535F4E554D5F52455345545300000002B4
:10235000CD1200000000034C4F475F4249544D41ED
:10236000534B00000000000037CF1200F87D4601FB
:102370005253545F5357495443485F434800000049
:102380000015D31200000000015253545F4D495311
:1023900053494F4E5F43480000001AD4120000001A
:1023A00000035452494D5F41525350445F434D0026
:1023B0000000009BD51200009644045343414C4951
:1023C0004E475F535045454400000000CC78120052
:1023D000007041034D494E5F474E445350445F43A4
:1023E0004D000000009EE51200000000025452491A
:1023F0004D5F50495443485F4344000000000CE9DE
:10240000120000000003414C545F484F4C445F529F
:10241000544C00000000009CD91200401C460241B0
:102420004C545F484F4C445F464257434D000000B8
:102430007AEB1200000000014D41475F454E4142DA
:102440004C450000000000000084ED120000803FB9
:1024500001464C41505F494E5F4348414E4E454C0A
:1024600000003A10130000000001464C4150455254
:102470004F4E5F4F555450555400003B1113000010
:10248000000001464C41505F315F504552434E546D
:102490000000000011EE120000000001464C415007
:1024A0005F315F5350454544000000000012EF12B9
:1024B0000000000001464C41505F325F50455243DE
:1024C0004E540000000013F0120000000001464CC2
:1024D00041505F325F5350454544000000000014F6
:1024E000F11200000000014C414E445F464C415047
:1024F0005F504552434E540050F21200000000015C
:10250000525353495F50494E000000000000000044
:1025100000A7F412000080BF04525353495F524198
:102520004E47450000000000000039F5120000A0F1
:102530004001494E564552544544464C545F434829
:102540000000009DF912000000000152544C5F4150
:1025500055544F4C414E440000000000536112009E
:1025600000000008474E445F00000000000000002B
:1025700000000000008D2911A133000008475053CE
:102580005F000000000000000000000000003C9917
:1025900011AD3F00000843414D5F00000000000006
:1025A00000000000000000A0F80895350000084178
:1025B000524D494E475F000000000000000000003F
:1025C000646206FF3100000852454C41595F00002B
:1025D0000000000000000000002D24095C4B0000FA
:1025E00008524E47464E4400000000000000000024
:1025F00000004733094F49000001524E47464E4400
:102600005F4C414E44494E470000004F15130000F7
:102610000000085243315F0000000000000000008D
:1026200000000000AA17136C510000085243325FEB
:1026300000000000000000000000000000AB3413A8
:102640006C510000085243335F000000000000009E
:10265000000000000000AC51136C51000008524310
:10266000345F00000000000000000000000000AD2A
:102670006E136C510000085243355F0000000000EB
:102680000000000000000000AE8B13215100000884
:102690005243365F00000000000000000000000010
:1026A00000AFA91321510000085243375F0000001A
:1026B00000000000000000000000B0C7132151001E
:1026C00000085243385F00000000000000000000D6
:1026D000000000B1E5132151000008524C4C325368
:1026E00052565F000000000000000000E8FF0B579A
:1026F0002B00000850544348325352565F000000EC
:102700000000000000E9850B762A000008594157B7
:10271000325352565F000000000000000000EA53F0
:102720000BB52C0000085354454552325352565FA6
:1027300000000000000000EF2F0B062C00000843F3
:102740004F4D504153535F00000000000000000057
:102750008541104B3600000853434845445F000054
:102760000000000000000000002C40123A4C000065
:102770000852434D41505F0000000000000000007F
:102780000000EC3C1287480000085352305F000004
:1027900000000000000000000000006E6C09CE2860
:1027A0000000085352315F000000000000000000EC
:1027B000000000006F490ACE28000008494E535F10
:1027C0000000000000000000000000000021D50F04
:1027D0007344000008414852535F000000000000AD
:1027E0000000000000008C010E262E00000841525F
:1027F0005350445F00000000000000000000008E05
:10280000C5073A2F0000084E41564C315F000000CA
:102810000000000000000000EBD70D2D450000086F
:10282000544543535F00000000000000000000001A
:1028300000ED730C6C4C0000084D4E545F0000001E
:1028400000000000000000000000A17206CF45005B
:102850000008424154540000000000000000000045
:10286000000000A64C0805340000084252445F00F6
:10287000000000000000000000000000383B127C57
:10288000350000084D49535F0000000000000000C3
:102890000000000000916207844500000852414C8E
:1028A0004C595F00000000000000000000003ECF17
:1028B00008044900000000000000000000000000C3
:1028C0000000000000000000000000000000020006
:1028D0005241575F53454E53000000000000000076
:1028E0000066000000803F02014558545F53544188
:1028F0005400000000000000000068000000803F5D
:10290000020252435F4348414E00000000000000B5
:102910000000006A000000803F02035241575F43FD
:1029200054524C0000000000000000006C00000049
:10293000803F0204504F534954494F4E000000005D
:1029400000000000006E000000803F020545585462
:102950005241310000000000000000000000700043
:102960000000803F020645585452413200000000EA
:102970000000000000000072000000803F020745D8
:1029800058545241330000000000000000000000D5
:1029900074000000803F0208504152414D53000036
:1029A0000000000000000000007600000020410050
:1029B000FF00000000000000000000000000000018
:1029C0000000000000000000494D415800524D41F8
:1029D000580044004900500054434F4E5354005097
:1029E000544348325352565F00524C4C3253525665
:1029F0005F003333333FCDCC4C3D0000A0416666D1
:102A0000263FAE47613D0000F0419A99193F8FC2C1
:102A1000753D00002042CDCC0C3FB81E853D000026
:102A200048420000003F295C8F3D0000704266660E
:102A3000E63E9A99993D00009642CDCCCC3E0AD70D
:102A4000A33D0000B4429A99993E7B14AE3D00002C
:102A5000F042CDCC4C3EEC51B83D00002043CDCCF3
:102A6000CC3D5C8FC23D00005243CDCC4C3DCDCC23
:102A7000CC3D00009643040054434F4E5354000095
:102A800000000000000000000002000000003F0401
:102A900001500000000000000000000000000000E5
:102AA00000000600CDCCCC3E040244000000000033
:102AB00000000000000000000000000E000AD7A384
:102AC0003C0403490000000000000000000000007A
:102AD000000000000A000AD7233D0204524D41586D
:102AE0005F555000000000000000000000120000D0
:102AF0000000000205524D41585F444E00000000A6
:102B00000000000000006600000000000406524CB7
:102B10004C00000000000000000000000000006801
:102B2000000000803F0207494D41580000000000AE
:102B3000000000000000000014000080BB4400FF03
:102B40000000000000000000000000000000000085
:102B500000000000000000040054434F4E53540096
:102B60000000000000000000000002000000003F24
:102B70000401500000000000000000000000000000
:102B80000000000600CDCCCC3E0402440000000052
:102B90000000000000000000000000000E000AD746
:102BA000A33C0403490000000000000000000000F6
:102BB00000000000000A000AD7233D0204524D41E4
:102BC000580000000000000000000000000012009B
:102BD000000000000205494D4158000000000000BF
:102BE0000000000000000014000080BB4400FF0053
:102BF00000000000000000000000000000000000D5
:102C0000000000000000040054434F4E53540000E5
:102C100000000000000000000000000000403F0431
:102C20000150000000000000000000000000000053
:102C3000000004006666E63F04034900000000004F
:102C400000000000000000000000000800CDCC4C97
:102C50003E040444000000000000000000000000EA
:102C6000000000000C000AD7A33B0205494D415863
:102C70000000000000000000000000000014000040
:102C800080BB4404064D494E5350440000000000F0
:102C900000000000000010000000803F00FF000066
:102CA0000000000000000000000000000000000024
:102CB00000000000000400534C49500000000000D8
:102CC00000000000000000000200000000000401FD
:102CD000494E540000000000000000000000000009
:102CE00000060000000000040244414D50000000B6
:102CF000000000000000000000000A0000000000CA
:102D00000403524C4C0000000000000000000000D2
:102D10000000000E000000803F0205494D415800B0
:102D20000000000000000000000000001200008011
:102D3000BB4400FF00000000000000000000000095
:102D4000000000000000000000000050414E494318
:102D50003A206661696C656420746F2074616B65EC
:102D6000205F7370695F73656D20696E41505F41CC
:102D700044435F414453373834343A3A496E6974B6
:102D80000050414E49433A2041505F4144435F4126
:102D9000445337383434206D697373696E67205338
:102DA0005049206465766963652073656D6170685C
:102DB0006F72650050414E49433A2041505F414493
:102DC000435F41445337383434206D697373696EFF
:102DD0006720535049206465766963652064726991
:102DE0007665720A0050414E49433A206661696C2B
:102DF000656420746F2074616B65205F7370695F18
:102E000073656D203130302074696D657320696E93
:102E10002041505F4144435F414453373834343A92
:102E20003A726561640004024750535F4741494E5E
:102E300000000000000000000022000000803F01B0
:102E4000034750535F555345000000000000000049
:102E500000002C000000803F04045941575F5000DF
:102E600000000000000000000000001A00CDCC4C63
:102E70003E040552505F50000000000000000000BA
:102E8000000000001E00CDCC4C3E010657494E44C8
:102E90005F4D41580000000000000000002D0000C0
:102EA00000000005085452494D00000000000000D9
:102EB00000000000000043000000000001094F5224
:102EC00049454E544154494F4E0000000000002E29
:102ED0000000000000040A434F4D505F424554413A
:102EE00000000000000000002800CDCCCC3D010B0C
:102EF0004750535F4D494E5341545300000000006A
:102F0000002F000000C04000FF0000000000000093
:102F100000000000000000000000000000000000B1
:102F200041697273706565642073656E736F72209A
:102F3000756E6865616C746879000100454E4142A8
:102F40004C450000000000000000000000090000E7
:102F500000803F01015553450000000000000000C3
:102F600000000000000008000000000004024F46BE
:102F7000465345540000000000000000000000001F
:102F800000000000000403524154494F00000000BB
:102F900000000000000000000400492EFF3F010473
:102FA00050494E000000000000000000000000003A
:102FB000000A000000804201054155544F43414C36
:102FC000000000000000000000000B0000000000F6
:102FD0000106545542455F4F5244455200000000DF
:102FE0000000000C00000000400107534B49505FF7
:102FF00043414C0000000000000000000D000000F4
:10300000000000FF000000000000000000000000C1
:1030100000000000000000000000005468726F749F
:10302000746C652064697361726D65642100546815
:10303000726F74746C652061726D656421005468F0
:10304000726F74746C652061726D656421005072DA
:103050006541726D3A20526164696F206661696CE6
:1030600073616665206F6E0050726541726D3A2023
:103070004861726477617265205361666574792076
:103080005377697463680050726541726D3A2042EB
:10309000617474657279206661696C73616665201C
:1030A0006F6E2E0050726541726D3A20426164204D
:1030B00047505320506F736974696F6E005072658A
:1030C00041726D3A20436865636B206D61672066CD
:1030D00069656C640050726541726D3A20436F6D92
:1030E00070617373206F66667365747320746F6F9D
:1030F00020686967680050726541726D3A20436FBD
:103100006D70617373206E6F742063616C6962729D
:10311000617465640050726541726D3A20436F6D51
:1031200070617373206E6F74206865616C74687968
:10313000210050726541726D3A20454B4620726500
:1031400071756972657320334420616363656C2017
:1031500063616C0050726541726D3A204148525370
:10316000206E6F74206865616C74687921005072FC
:103170006541726D3A20616363656C73206E6F7494
:10318000206865616C746879210050726541726DC8
:103190003A206779726F73206E6F742063616C6977
:1031A000627261746564210050726541726D3A20EB
:1031B0006779726F73206E6F74206865616C7468D4
:1031C00079210050726541726D3A206169727370A5
:1031D000656564206E6F74206865616C7468790041
:1031E00050726541726D3A204261726F6D6574650F
:1031F00072206E6F74206865616C746879210001BB
:1032000000524551554952450000000000000000A1
:10321000000001000000000001014449535F5255C5
:103220004400000000000000000000020000000058
:10323000000202434845434B00000000000000002C
:103240000000000003000000803F00FF00000000BD
:10325000000000000000000000000000000000006E
:10326000000000424D503038353A206261642063DE
:10327000616C6962726174696F6E207265676973EF
:103280007465727300424D503038353A20756E6166
:10329000626C6520746F206765742073656D617062
:1032A000686F726500546F6F206D616E7920626186
:1032B000726F6D6574657273004261726F3A20754A
:1032C0006E61626C6520746F20696E697469616CEF
:1032D000697365206472697665720041505F42616E
:1032E000726F3A20616C6C2073656E736F7273201D
:1032F000756E63616C696272617465640050414E01
:1033000049433A2041505F4261726F3A3A726561B7
:103310006420756E7375636365737366756C206680
:103320006F72206D6F7265207468616E2035303069
:103330006D7320696E2041505F4261726F3A3A634B
:10334000616C696272617465205B335D0D0A0050C7
:10335000414E49433A2041505F4261726F3A3A729E
:1033600065616420756E7375636365737366756CF0
:1033700020666F72206D6F7265207468616E2035F3
:1033800030306D7320696E2041505F4261726F3A38
:103390003A63616C696272617465205B325D0D0A2B
:1033A0000004024142535F50524553530000000055
:1033B000000000001A0000000000040354454D50B6
:1033C00000000000000000000000000000160000E7
:1033D0000000000104414C545F4F464653455400E1
:1033E0000000000000001E000000000000FF0000C0
:1033F00000000000000000000000000000000000CD
:10340000000000000001005F4D4F4E49544F520034
:1034100000000000000000000200000000000101A8
:103420005F564F4C545F50494E00000000000000B2
:103430000004000000000001025F435552525F503B
:10344000494E000000000000000006000000803F20
:1034500004035F564F4C545F4D554C540000000020
:1034600000000008000AD7634004045F414D505F2C
:10347000504552564F4C5400000000001000000010
:10348000000004055F414D505F4F464653455400D0
:10349000000000000018000000000003065F434128
:1034A0005041434954590000000000000000200032
:1034B00000404E45010B325F4D4F4E49544F520074
:1034C00000000000000000030000000000010C32BA
:1034D0005F564F4C545F50494E0000000000000002
:1034E000050000000000010D325F435552525F504D
:1034F000494E0000000000000007000000803F046B
:103500000E325F564F4C545F4D554C540000000036
:1035100000000C000AD76340040F325F414D505F3A
:10352000504552564F4C00000000001400000000AF
:10353000000410325F414D505F4F464653455400E2
:10354000000000001C00000000000311325F434136
:10355000504143495459000000000000002400007D
:10356000404E4500FF000000000000000000000089
:1035700000000000000000000000000000FF00004C
:10358000000000000000000000000000000000003B
:103590000000000000010054524947475F54595051
:1035A00045000000000000000000000000000101D4
:1035B0004455524154494F4E0000000000000000A5
:1035C000000100000020410202534552564F5F4F58
:1035D0004E00000000000000000002000080A24435
:1035E0000203534552564F5F4F464600000000000D
:1035F00000000004000080894404045452494747F5
:103600005F4449535400000000000000090000001E
:10361000000000FF000000000000000000000000AB
:1036200000000000000000000000004661696C65B9
:103630006420746F2067657420484D4335383433F7
:103640002073656D6170686F72650005014F4653A8
:103650000000000000000000000000000000170053
:103660000000000004024445430000000000000088
:103670000000000000000023000000000001034CD7
:103680004541524E00000000000000000000000014
:1036900008000000803F0104555345000000000071
:1036A00000000000000000000027000000803F0133
:1036B000054155544F444543000000000000000000
:1036C000000028000000803F01064D4F5443540085
:1036D0000000000000000000000000A40000000046
:1036E0000005074D4F5400000000000000000000DE
:1036F00000000000A5000000000001084F524945ED
:103700004E54000000000000000000000016000001
:10371000000000010945585445524E414C0000003C
:1037200000000000000029000000000000FF000071
:103730000000000000000000000000000000000089
:1037400000000000008011401140713273343332A8
:1037500013121132111293341314535231002103F6
:103760000406080B2D0A090705040241C011C051C7
:1037700012535473121112515273147332310021C7
:1037800002040506070809080607062403020102C9
:10379000000120012011C0011100313213741314F3
:1037A0003312F112D31251000102232506074644B9
:1037B0002342210001E0A0313213B4331112110071
:1037C00011201100523312133211200122248504DA
:1037D0002304020342410001E0A051121413151307
:1037E000153413325140012011521332310001229D
:1037F00023040504050423010382612001E01180F4
:103800001132135415143332314021020100317248
:1038100031410223442302012201220102614001BD
:10382000A0118051121413341514331231400102C7
:1038300001030201205211122021224304224102DD
:103840002102A10001E020114051537413321140B4
:103850002102030203020100111211320011412260
:10386000232221004102A180016011601100113268
:103870003374131211400162030203213112111239
:10388000114001020102030201000100E121E0A058
:10389000112012117334333120016203624012117E
:1038A000121100110100010201220001200100E1BA
:1038B000C001001180110012111312141334522090
:1038C00001E2022120311211001100010021020148
:1038D000000140210002410001E06011401112117D
:1038E0001312141314133211002122034201022176
:1038F00000010011001211001120010041600100BF
:10390000C100014011200160114051121312131423
:103910003312310001420322010221000140110053
:10392000310011000100010001A0E10001A00180AF
:10393000112031529312110021C221002140310087
:1039400011201100010001E0E16001E0110011729D
:1039500073123100214203010201022021401100B3
:1039600011201160014011600100010221020001DB
:1039700020014001A05132131253321120010201E3
:1039800082210021000100110031E00011001160CE
:10399000210001020102010100212001000160114A
:1039A000001152131214135211004182010200013E
:1039B0000021401100110011A011003100112081DF
:1039C00022010100020100210001601100521312C6
:1039D00013141332310100020122014201002100BF
:1039E000010001112011001120114071001140014E
:1039F0000221020102010021022100010001001147
:103A0000001211123312341332112001020142014B
:103A1000220100410001601120110011001100512C
:103A200012312061020122020002010281201100F4
:103A3000121173341332110041020182010061003E
:103A40000180110011009132314021420102020037
:103A5000626140115214135433310041820122003B
:103A60000102004100016091121152512001220116
:103A700003010202008261005133541514333100F6
:103A80002102012203424102A1803192133231000E
:103A9000412203020103002203220102014011120C
:103AA0003395333101002201034203222122010216
:103AB000610001110011521312531231004122030F
:103AC00022030023020302010221203213141615DF
:103AD000171615331120016203020302032201A20B
:103AE0004140111253141314133211010002010248
:103AF00003020302020002230203222120321416D1
:103B00003718171513121100212203024302430133
:103B100003020382212011121314153415143211DB
:103B20000001622302030043020342012012131525
:103B300018193A1715131100210203026304E30256
:103B40000302030201024012131415171516341252
:103B500020212243020300A3220100111215181C88
:103B60001E1D19161311000201030203042304038E
:103B700024030443042304030203422011121415F6
:103B800017183615133121020302230203241E19CC
:103B90001512100E0C0B0A09090908080807060679
:103BA00005040404030404040000000000000000F5
:103BB000000027262123252325242722292A2A1C01
:103BC00027282B33322725222C33313037000000B1
:103BD0000000000000000000000001FFFFE0000006
:103BE0000000000001FFFFF000000000000001FFE6
:103BF000FFF800000000000001FFFFFE00000000D1
:103C0000000003FFFFFF00000000000003FFFFFFB4
:103C1000F000000000000FFFFFFFFE00000003FFA8
:103C2000FFFC000007FC00007FFFFFFC000000001D
:103C30000000001FFFFE000000000096918C8782AC
:103C40007D78736E69645F5A55504B46413C3732FC
:103C50002D28231E19140F0A050004090E13181D20
:103C600022272C31363B40454A4F54595E63686DDC
:103C700072777C81868B90959A9FA4A9AEB3AFAAE8
:103C8000A5A09B968F89837E78736E69645F5A5571
:103C9000504B47423E3935302C27231F1B16120E3E
:103CA00009050103070B1014191D22262B2F343987
:103CB0003D42474C51565B60656B70757B80868CCE
:103CC00092979DA3A9AFB2ACA6A09A948F827C765E
:103CD000706B65605C57524E4A46413D3936322E14
:103CE0002A26221F1B1713100C08040102060A0EB5
:103CF00012161A1E22262B2F33383D41464B4F54A5
:103D0000595E64696F747A80878D949BA2AAB1AE64
:103D1000A69F979089826F68635E5955514D4946B9
:103D2000423F3C3835322E2B2824211E1A171410FE
:103D30000D0A0603000306090D1014181C20242880
:103D40002C3034393D41464A4F54585D62676D739B
:103D50007980878F98A2ACB0A59A90867D766F55B2
:103D6000514D4A4744413F3C3A383533312E2B2997
:103D70002623201D1A1713100D0A0704010103063C
:103D8000090D1013171A1E22262A2E32363A3E42E9
:103D9000464A4E53575B5F64696E757C85909FB24F
:103DA000A08D7D7067605A553E3C3A3937363433C2
:103DB00032302F2E2C2A292724221F1C19161310CB
:103DC0000D0A070402000305080A0D1013161A1D38
:103DD0002125292D3135383C4043464A4D50535614
:103DE000595B5E6165696F826D544D4A474442403C
:103DF0003E2E2E2D2C2C2B2A2A2929282726252415
:103E000023211F1C1A1714100D0A070401010305B2
:103E100007090C0E1013161A1D2124282C303337D5
:103E20003A3D40424447484A4A4B4A48443D30198B
:103E3000021621282B2D2E2F2E2E06090C0F1215BF
:103E400017191B1C1B1811040E2231383C3C3C3A3C
:103E50003835322F2B2824201C1915110D09050186
:103E600002060A0E1115181C1F222527292A2B2BA2
:103E70002926211911080004080A0A0A0807040261
:103E800000030616181A1C1E20211F17125160630A
:103E9000625F5D5956524E4A46423E3935312C28B2
:103EA00024201B17130E0A060102060A0F13171B04
:103EB0001F23262A2D313437393C3D3F3F3E3D39C3
:103EC000352F28211C17151313131416A8ADB2B0E3
:103ED000ABA6A19C97928D88837E79746F6A65608A
:103EE0005B56514C47423D38332E29241F1A15107A
:103EF0000B060103080D12171C21262B30353A3F03
:103F000044494E53585D62676C71767B80858A8F19
:103F100094999EA3A8204E4D45412000205349521C
:103F2000462000204D544B2000204D544B31392069
:103F3000002075626C6F782000B5620601030001F5
:103F40000601124F24505542582C34312C312C305C
:103F50003030332C303030312C33383430302C305A
:103F60002A32360D0A245047434D442C31362C302A
:103F70002C302C302C302C302A36410D0A24505352
:103F800052463130302C302C33383430302C382CF1
:103F9000312C302A33430D0A00C012000000960075
:103FA0000000C2010000E100008025000001005473
:103FB0005950450000000000000000000000000013
:103FC00002000000803F01024E415646494C5445D4
:103FD000520000000000000000030000000041014A
:103FE00005534241535F4D4F44450000000000001F
:103FF000000004000000004001064D494E5F454CA2
:10400000455600000000000000000005000000C848
:10401000C200FF00000000000000000000000000DF
:104020000000000000000000000024504D544B32FE
:1040300032302C3230302A32430D0A24504D544B4A
:104040003331332C312A32450D0A24504D544B3331
:1040500030312C322A32450D0A24504D544B33391D
:10406000372C302A32330D0A004750565447004748
:1040700050474741004750524D4300245053524649
:104080003130332C302C302C312C312A32350D0A82
:1040900024505352463130332C312C302C302C31BB
:1040A0002A32350D0A24505352463130332C322CEB
:1040B000302C302C312A32360D0A245053524631DE
:1040C00030332C332C302C302C312A32370D0A244B
:1040D000505352463130332C342C302C312C312A71
:1040E00032300D0A24505352463130332C352C30A7
:1040F0002C312C312A32300D0A24505352463130A3
:10410000332C362C302C302C312A32320D0A2450EC
:104110005352463130332C382C302C302C312A324B
:10412000430D0A24505352463135312C312A33463F
:104130000D0A24505352463130362C32312A304643
:104140000D0A24504D544B3331342C302C302C314B
:104150002C312C302C302C302C302C302C302C307E
:104160002C302C302C302C302C302C302A32380D86
:104170000A24504D544B3333302C302A32450D0A2B
:1041800024504D544B3331332C312A32450D0A24FF
:10419000504D544B3330312C322A32450D0A2450C5
:1041A0005542582C34302C6767612C302C312C3020
:1041B0002C302C302C302A37420D0A2450554258CE
:1041C0002C34302C7674672C302C312C302C302C45
:1041D000302C302A37460D0A24505542582C3430A2
:1041E0002C726D632C302C302C302C302C302C3039
:1041F0002A36370D0A00A0A20008A602000000001F
:10420000000000A8B0B3A0A20008A6002901000089
:10421000000000D0B0B34572726F723A2041505F17
:1042200048414C5F4156523A3A415652416E616C98
:104230006F67496E206F7574206F66206368616ECA
:104240006E656C730D0A00474F494E4720444F5727
:104250004E20464F522041205245424F4F540D0AA6
:104260000050414E49433A207363686564756C653C
:10427000723A3A73797374656D5F696E69746961D6
:104280006C697A65642063616C6C65646D6F7265DE
:10429000207468616E206F6E63650050414E494323
:1042A0003A2041565253656D6170686F72653A3AB3
:1042B00074616B6520757365642066726F6D20692B
:1042C0006E736964652074696D65722070726F63C6
:1042D0006573730050414E49433A20535049302092
:1042E000777269746520636F6C6C6973696F6E00B7
:1042F00050414E49433A2053504930207472616E08
:104300007366657220636F6C6C6973696F6E0067AA
:1043100079726F5B25755D20646964206E6F74200F
:10432000636F6E76657267653A20646966663D25DF
:1043300066206470730A002A00496E697420477908
:10434000726F0020002A00496E6974204163636522
:104350006C0043616C6962726174696F6E204641E2
:10436000494C45440A0043616C6962726174696F2B
:104370006E207375636365737366756C0A005363AF
:10438000616C696E675B25755D3A20252E3266206B
:10439000252E326620252E32660A004F666673652A
:1043A00074735B25755D3A20252E326620252E32EA
:1043B0006620252E32660A00506C616365207665A2
:1043C0006869636C6520255320616E642070726596
:1043D000737320616E79206B65792E0A006F6E20F1
:1043E000697473204241434B006E6F7365205550D2
:1043F000006E6F736520444F574E006F6E206974D6
:10440000732052494748542073696465006F6E20D9
:10441000697473204C4546542073696465006C656B
:1044200076656C004E6F20494E53206261636B6568
:104430006E647320617661696C61626C6500546FB3
:104440006F206D616E7920494E53206261636B6508
:104450006E647300546F6F206D616E7920616363C9
:10446000656C7300546F6F206D616E79206779728F
:104470006F7300020050524F445543545F4944004B
:104480000000000000001F00000000000501414383
:10449000435343414C000000000000000000002195
:1044A000000000000005024143434F464653000010
:1044B00000000000000000002D00000000000503C7
:1044C0004759524F464653000000000000000000CC
:1044D0000039000000000001044D5055364B5F4686
:1044E000494C544552000000000045000000000007
:1044F00000FF0000000000000000000000000000BD
:1045000000000000000000000054696D6564206F29
:1045100075742077616974696E6720666F722075A3
:1045200073657220726573706F6E7365000400505E
:104530004552494F44000000000000000000000008
:104540001D000000C841040144414D50494E470040
:1045500000000000000000000021000000403F00BB
:10456000FF0000000000000000000000000000004C
:104570000000000000000000256C642E2530376C20
:1045800064002D000200544F54414C000000000014
:1045900000000000000000050000000000010152C2
:1045A0004553544152540000000000000000000038
:1045B00007000000000000FF0000000000000000F5
:1045C00000000000000000000000000000000001EA
:1045D000004D4F44450000000000000000000000B6
:1045E00000003200000000000501524554524143D2
:1045F0005400000000000000000000430000000024
:104600000005024E45555452414C00000000000088
:10461000000000004F00000000000503434F4E540F
:10462000524F4C000000000000000000005B000042
:104630000000000104535441425F524F4C4C0000B3
:104640000000000000002F0000000000010553548E
:1046500041425F54494C540000000000000000300B
:1046600000000000000106535441425F50414E00DB
:104670000000000000000000310000000000010701
:1046800052435F494E5F524F4C4C00000000000007
:10469000003300000000000208414E474D494E5FC4
:1046A000524F4C00000000000000360000A08CC5F6
:1046B0000209414E474D41585F524F4C00000000E7
:1046C000000000380000A08C45010A52435F494EAB
:1046D0005F54494C5400000000000000340000000A
:1046E0000000020B414E474D494E5F54494C0000BB
:1046F00000000000003A0000A08CC5020C414E47AB
:104700004D41585F54494C000000000000003C003F
:1047100000A08C45010D52435F494E5F50414E0051
:1047200000000000000000350000000000020E4103
:104730004E474D494E5F50414E00000000000000C2
:104740003E0000A08CC5020F414E474D41585F50BE
:10475000414E00000000000000400000A08C450118
:10476000104A535449434B5F53504400000000002B
:10477000000042000000000004114C4541445F521B
:104780004C4C00000000000000000067000000002A
:104790000004124C4541445F50544348000000005F
:1047A000000000006B000000000000FF000000009F
:1047B00000000000000000000000000000000000F9
:1047C00000000001005F454E41424C4500000000E2
:1047D00000000000000003000000000002015F462E
:1047E000585343414C4552000000000000000004B3
:1047F000000000000002025F46595343414C4552FD
:10480000000000000000000006000000000000FFA3
:104810000000000000000000000000000000000098
:104820000000000000000042616420636F6E766546
:104830007273696F6E207479706520272553270A7B
:1048400000556E6B6E6F776E20636F6E7665727358
:10485000696F6E20272553270A0025733A202566A5
:104860000A0025733A20256C640A0025733A202536
:10487000640A0025733A2025640A00454550524FCA
:104880004D2066756C6C000100524F4C4C000000CE
:104890000000000000000000000000000000803F59
:1048A000010150495443480000000000000000008E
:1048B00000000001000000004001025448524F5423
:1048C000544C450000000000000000000300000000
:1048D0004040010359415700000000000000000063
:1048E000000000000002000000804000FF00000007
:1048F00000000000000000000000000000000000B8
:10490000000000000100544F54414C000000000022
:104910000000000000000002000000000004014C44
:10492000494D49545F4B4D0000000000000000005D
:1049300003000000A04000FF000000000000000095
:104940000000000000000000000000000000000166
:10495000005F5459504500000000000000000000B6
:10496000000000000000000001015F50494E0000FF
:1049700000000000000000000000000200000080B5
:10498000BF04025F5343414C494E47000000000002
:10499000000000000C000000404004035F4F46464A
:1049A0005345540000000000000000000014000007
:1049B00000000001045F46554E4354494F4E00002D
:1049C0000000000000001C000000000002055F4D18
:1049D000494E5F434D000000000000000000001E33
:1049E000000000A04102065F4D41585F434D0000AA
:1049F0000000000000000000220000002F4401071A
:104A00005F53544F505F50494E00000000000000BB
:104A1000000600000080BF02085F534554544C4517
:104A2000000000000000000000000800000000007E
:104A300001095F524D4554524943000000000000F7
:104A400000000004000000803F010C325F54595008
:104A50004500000000000000000000000100000010
:104A60000000010D325F50494E00000000000000C0
:104A700000000000000300000080BF040E325F53FE
:104A800043414C494E470000000000000000100068
:104A900000004040040F325F4F464653455400002B
:104AA00000000000000000180000000000011032AB
:104AB0005F46554E4354494F4E0000000000000031
:104AC0001D00000000000211325F4D494E5F434D52
:104AD00000000000000000000020000000A04102D3
:104AE00012325F4D41585F434D000000000000004E
:104AF0000000240000002F440113325F53544F5034
:104B00005F50494E000000000000000700000080D8
:104B1000BF0214325F534554544C4500000000005E
:104B2000000000000A00000000000115325F524D35
:104B300045545249430000000000000000050000F9
:104B400000803F00FF0000000000000000000000A7
:104B500000000000000000000000000001005049BB
:104B60004E000000000000000000000000000000F7
:104B70000000003C42010150494E3200000000009C
:104B800000000000000000000100000080BF0102E2
:104B900050494E33000000000000000000000000FB
:104BA000000200000080BF010350494E34000000A5
:104BB000000000000000000000000300000080BFB3
:104BC000010444454641554C5400000000000000DB
:104BD00000000004000000000000FF0000000000D2
:104BE00000000000000000000000000000000000C5
:104BF00000005363686564756C6572206F7665723A
:104C000072756E207461736B5B25755D2028257548
:104C10002F2575290A005363686564756C657220D9
:104C2000736C6970207461736B5B25755D2028253A
:104C3000752F25752F2575290A0001004445425519
:104C4000470000000000000000000000000000001D
:104C500000000000FF000000000000000000000055
:104C60000000000000000000000000000400434CB1
:104C70004D425F4D4158000000000000000000510F
:104C8000000000A040040153494E4B5F4D494E00C7
:104C90000000000000000000550000000040040279
:104CA00054494D455F434F4E5354000000000000EF
:104CB000005D000000A04004035448525F44414D91
:104CC000500000000000000000006D000000003FE8
:104CD0000404494E5445475F4741494E00000000D7
:104CE0000000007100CDCCCC3D0405564552545F08
:104CF0004143430000000000000000007500000078
:104D0000E04004064847545F4F4D454741000000CE
:104D100000000000004900000040400407535044D8
:104D20005F4F4D45474100000000000000004D006E
:104D3000000000400408524C4C325448520000001D
:104D40000000000000000079000000204104095329
:104D500050445745494748540000000000000000F7
:104D60007D000000803F040A505443485F44414D99
:104D7000500000000000000000650000000000047A
:104D80000B53494E4B5F4D4158000000000000009E
:104D9000000059000000A040040C4C414E445F410B
:104DA00052535044000000000000008900000080C1
:104DB000BF040D4C414E445F5448520000000000B7
:104DC000000000008500000080BF040E4C414E44EE
:104DD0005F5350445747540000000000008100001A
:104DE00000803F010F50495443485F4D4158000037
:104DF0000000000000009100000000000110504978
:104E00005443485F4D494E000000000000000092EE
:104E1000000000000004114C414E445F53494E4BCA
:104E200000000000000000008D000000803E041221
:104E30004C414E445F54434F4E5354000000000019
:104E40000061000000004004134C414E445F4441A7
:104E50004D50000000000000000069000000003F0D
:104E600000FF000000000000000000000000000043
:104E700000000000000000000050414E49433A206D
:104E800044617461466C617368205350494465768F
:104E90006963654472697665722073656D617068D7
:104EA0006F7265206973206E756C6C0050414E49BD
:104EB000433A2044617461466C61736820535049E1
:104EC000446576696365447269766572206E6F74B5
:104ED00020666F756E64004C6F672025752C20204E
:104EE000202073746172742025752C202020656E3B
:104EF000642025750A000A2575206C6F67730A0007
:104F00000A4E6F206C6F67730A0A004E756D506110
:104F10006765733A20257520205061676553697A6B
:104F2000653A2025750A004D616E7566616374757A
:104F30007265723A2030782530327820202044651E
:104F4000766963653A203078253034780A004E6FF0
:104F50002064617461666C61736820696E73657248
:104F60007465640025750A0025752C0900444620E7
:104F7000706167652C206C6F672066696C65202303
:104F80002C206C6F6720706167653A2025752C09AD
:104F900000464D542C2025752C2025752C2025539A
:104FA0002C2025532C2025530A002C20002573008B
:104FB000257300257300252E326600252E326600EB
:104FC000252E326600252E326600256600256C757A
:104FD00000256C6400257500256400257500256496
:104FE0000025532C2000554E4B4E2C2025750A00D1
:104FF000666C6967687420706C616E2072656365A9
:105000006976656400666C6967687420706C616EAF
:10501000207570646174652072656A656374656487
:1050200000327C8900EDD96877000000590000004B
:105030000000000000D69FDCA81817AA9043732731
:10504000F6B968EDF4DED409FEE61C1C84DDE80B3D
:105050009929274E0000000F03000000000099B7B7
:10506000335276941500F37C000026149E988F002E
:1050700000006A31168F8C059600E7B73F360000B6
:105080000000000000AF669ED0385D8A6C20B954E5
:1050900022007CED044C80387486EDCBFA57CBDCD3
:1050A00019E2001DDF5506E5CB01C300000000003A
:1050B000000000009AB20086DBD0BC54161315869F
:1050C000004E44BD7F9A15159001EA49B51653A7C5
:1050D0008AEAF02FBD34AEE50000000000000000B9
:1050E00000000000000000000000000000000000C0
:1050F00000000000000000000000000000000000B0
:10510000000000000000000000000000000000009F
:1051100000000000000000000008CC31AA2C532E33
:105120000008000000000000000000000000000077
:105130000000000000006C510000010146554E4384
:1051400054494F4E0000000000000000001D000008
:1051500000000000FF000000000000000000000050
:1051600000000000000000000000000002004D49A7
:105170004E00000000000000000000000000000AD7
:10518000000080894402015452494D000000000093
:1051900000000000000000000C000080BB44020280
:1051A0004D41580000000000000000000000000019
:1051B000000E000080ED440103524556000000003F
:1051C0000000000000000000000010000000803F10
:1051D0000205445A0000000000000000000000002A
:1051E00000000011000000000000FF0000000000AF
:1051F00000000000000000000000000000000000AF
:10520000000000000000000603000006760902000E
:10521000760F5A000100D00F30000000000000059A
:1052200003000005CA090200CA0E96000100600FC3
:10523000A0002C76D888674F0823C1DFAE59B1B7DC
:1052400096E5E453C63A51997696E6C28426898C4F
:105250009B62407C6FFCBC9C9F40BAA56FA59005EB
:105260005A2A5C936B6C676DC11BE0E40D47F52017
:10527000E6B5D0ED902E009435770080841E0000B6
:10528000204E000000C833333333986E128341EF51
:105290008D21893BE655CFFEE6DBD1844B38F77C88
:1052A0001D90A4BBE4243284725E8100C9F1ECA19C
:1052B000E53DDCDFE1E3E6E8EBEDEFF2F4F7F9FCE6
:1052C000FE000305080A0C0F111416181B1D2022DE
:1052D00024276E616E00696E6600010210202008AE
:1052E0000810204010204080020102010804020141
:1052F00001020408102040808040201008040201B0
:105300008004020180402010080402010804020108
:10531000010204081020408001020408102040808F
:105320004005050505070508080808020202020AEB
:105330000A08080404040401010101010101010338
:1053400003030303030303040707070C0C0C0C0CF3
:105350000C0C0C0202020206060606060606060BE6
:105360000B0B0B0B0B0B0B05000020002300260082
:1053700029002C002F00320000010000030106016B
:10538000090100002200250028002B002E0031001A
:10539000340002010000050108010B01000021009A
:1053A000240027002A002D003000330001010000F6
:1053B000040107010A010D9403770D94B1590D946E
:1053C000773B0D9488270D94DE060D942F410D94A4
:1053D000CC520D94C8110D941F070D9411040D9417
:1053E000510A0D94C36E0D94B0670D9469140D9419
:1053F000CD6D0D94A76F0D9458270D9488400D9492
:10540000F30C0D940F410D94B9010D943D070D94CB
:10541000E9070D9453910D9489070D9438770D94F5
:10542000885F0D94A9010D94DC1E0D94E3070D9483
:1054300083A80D940B740D9447300D9413A80D940C
:105440000D280D94843D0D9422710D9490C80D94F7
:1054500094060D9401990D943F0D0D9447030D94FE
:1054600058B70D9479060D94AA720D947B700D9423
:1054700071410D9454260D943A080D94E0C20D9498
:1054800000890D945BAE0D943A0F0D944C070D946A
:1054900082010D94F20E0D944C970D9456260D94A6
:1054A0008A8D0D94878C0D9477010D946EA80D94C0
:1054B000848D0D9449280D94F2BB0D949B160D9488
:1054C00023630D945F670D9465950D94D58E0D94AF
:1054D0007FA40D949F400D94B1070D948A970D946D
:1054E0008F640D943E360D94D5490D94433C0D9434
:1054F0008E070D9498070D94BA9D0D9465BF0D9479
:10550000DE110D94DB560D9437440D9418760D94EE
:10551000A1C00D94C2030D94FE0B0D9464340D9440
:1055200073350D941E620D9404090D941BB90D94EE
:10553000C5660D9463700D94CD5E0D9453220D9449
:10554000FE410D949D070D94C1420D94F8640D9495
:1055500047080D9498010D9449BD0D94FBB60D9428
:1055600093070D9472290D9448540D9465A60D94DB
:10557000FF320D9452990D9498060D94700A0D9473
:10558000E28F0D94665D0D94D6060D94DB8E0D941E
:10559000C8920D94E2070D948BB40D94CDC20D9476
:1055A000E0420D94B2BC0D9431970D9444400D949B
:1055B000545F0D9410A60D9401290D94A4060D942A
:1055C000EE440D94E7930D943F270D946A060D94D5
:1055D00024070D94BC060D94AC9F0D94D1590D94E5
:1055E00072610D94D9680D9425640D94255F0D9416
:1055F0007A9A0D94B6060D94681C0D9447710D941B
:105600005D610D9451070D94315E0D9437980D94A2
:1056100084070D94CC4F0D9489AA0D94E62B0D941C
:10562000145D0D94AA500D947F090D94D65F0D94CE
:10563000E6260D94A9990D94A1900D94875E0D9482
:10564000AB0A0D94C0410D94BD6E0D9491270D943D
:10565000B2060D94E03F0D948C420D9492610D942E
:1056600060060D94898B0D940E420D9449B90D94EA
:105670008CBD0D94AD6F0D945C6A0D94F13E0D944C
:10568000C9700D94EAAA0D94CA6E0D946BB70D946F
:1056900063400D9425920D94FD0A0D94A0AB0D94DA
:1056A0007A5E0D94CCBF0D94DF970D94450C0D944C
:1056B0005C330D946E9B0D946D250D941A770D94AB
:1056C00028B70D945EA80D941A8C0D9440770D9414
:1056D000DAA20D942A720D94D1080D94C0520D9443
:1056E00034610D946AA80D94EC0E0D9495250D94DB
:1056F00000070D94264F0D94FC6A0D9438070D9405
:1057000052A80D9413560D944A040D94FA5E0D940C
:10571000AF990D94DC0F0D9404030D94F9960D943C
:1057200099040D94639F0D943A6C0D94FA9B0D941B
:10573000350F0D9495930D94CF0B0D94BF3F0D94A1
:105740005D700D94CB870D940BBF0D948CB10D94AF
:10575000DD400D94AF3D0D9456070D94138D0D94BF
:1057600044080D94E00A0D94B03F0D94E9BB0D94EC
:1057700047070D944D710D942CC30D941B970D94F8
:1057800059600D9436830D943B080D947E010D9461
:10579000F1270D94929E0D94CF080D94310F0D9426
:1057A0004C080D941AAC0D9436400D94E6BC0D9443
:1057B000F4760D948B270D94AA4F0D9471970D9448
:1057C000B6270D94B6070D94753E0D94CC390D9403
:1057D00018980D9423050D9429070D9414850D94A4
:1057E000EB8D0D9457650D947A8D0D9466290D946B
:1057F000A7070D94FE1B0D9448B70D942E0F0D9422
:105800000E6D0D94A0020D940A970D94A8340D947A
:10581000297E0D94818B0D9463630D94D85F0D9454
:10582000B9960D94FB110D9416250D9452600D94AC
:1058300096A50D9440080D9407280D9406090D9423
:105840003FB70D9441410D9474060D94FC5E0D9488
:105850000E100D944D030D94190B0D944C600D9486
:10586000950F0D94B76E0D944D910D94CF020D943C
:105870008D980D94BAB80D94169E0D94DA410D943E
:1058800062420D9446310D9461AB0D94D3BB0D94DF
:1058900075440D94B5380D94B11A0D94C2060D944B
:1058A000DE6A0D94B00F0D9454040D949F210D9455
:1058B000FFCE0D9483770D945DC20D946D090D9408
:1058C00034A80D947B010D94D57F0D94B0490D94AF
:1058D000F90C0D94FFAC0D9418C30D94900D0D941C
:1058E000BC270D94D8190D943CA90D94B7970D942D
:1058F00078290D94FB980D94DB040D94E2060D9429
:10590000A7650D942B920D943C3E0D9436390D9461
:1059100055050D94025F0D940E0C0D94C6070D9461
:105920006D510D945C0C0D946F060D94C3B70D94DE
:10593000A0060D9444420D94597D0D94F4B10D943C
:1059400056A80D94D7080D94FA880D948A060D94E4
:105950003CA40D9487C40D94E3940D94E0260D941B
:105960001BA20D9450B70D945AA80D949B010D9451
:10597000418F0D9445270D94C0070D9458610D94E7
:10598000AD710D94EC060D9460150D94033E0D94CD
:105990006A0F0D945E3F0D9423060D9460080D94DC
:1059A000D2060D9488410D94B1610D94818C0D94B3
:1059B000A8060D945F950D9457040D9490610D9475
:1059C000F5C20D949B930D9499AE0D9411110D9405
:1059D00014100D946A3F0D943B710D9447600D9423
:1059E000340F0D9449660D94805E0D9462A80D9459
:1059F0009DB00D9433070D9475460D9451A10D94EF
:105A0000CEA00D9433620D9400280D945C070D9484
:105A100042070D94E6060D9470660D94FA060D94F7
:105A20007E3F0D94C27B0D94F0060D94B10A0D9447
:105A300093980D9407960D94AC070D9412770D94DE
:105A4000FD240D94C6410D94FA970D9406070D940C
:105A5000EA3F0D94BBC20D945F690D948BA60D9423
:105A6000FE0A0D94880B0D9498940D94A2840D94C5
:105A7000BC550D9492510D9486B70D94DA060D9491
:105A800003250D94BD9E0D94AE060D945B050D94FB
:105A900089770D94208C0D946D0F0D94B48B0D941B
:105AA00018B70D94EAB40D947A070D9415400D942F
:105AB0005F8E0D945B020D9459940D94AB0D0D9473
:105AC000E1960D94CE040D94E4110D94FFC10D9454
:105AD000AC460D9419B60D948F250D94FD400D9490
