:020000040800F2
:1000000000040020E1010008E3010008E30100080A
:10001000E3010008E3010008E3010008E301000830
:10002000E3010008E3010008E301000801270008DC
:10003000E3010008E3010008E3010008E301000810
:10004000E3010008E3010008E3010008E301000800
:10005000E3010008E3010008AD380008D9380008C2
:1000600005390008313900085D390008E30100084E
:10007000E3010008E3010008E3010008E3010008D0
:10008000E3010008E3010008E3010008E3010008C0
:10009000E3010008E3010008E301000889390008D2
:1000A000E3010008E3010008E3010008E3010008A0
:1000B000E3010008E3010008E3010008E301000890
:1000C000E3010008E3010008E3010008E301000880
:1000D000E3010008E3010008A1100008B5100008C2
:1000E000F1390008E3010008E3010008E30100081A
:1000F000E3010008E3010008E3010008E301000850
:10010000E3010008E3010008BD360008E301000830
:10011000E3010008E3010008E3010008E30100082F
:10012000E3010008E3010008E3010008E30100081F
:10013000E3010008E3010008E3010008E30100080F
:10014000E3010008E3010008E3010008ED2D0008C9
:10015000E3010008E3010008E3010008E3010008EF
:10016000E3010008E3010008E3010008E3010008DF
:10017000E3010008E3010008E3010008E3010008CF
:10018000E3010008E3010008E3010008E3010008BF
:10019000E3010008E3010008E3010008E3010008AF
:1001A000E3010008E3010008E3010008E30100089F
:1001B000E3010008E3010008E3010008E30100088F
:1001C000E3010008E3010008E3010008E30100087F
:1001D000E3010008E3010008E3010008E30100086F
:1001E00002E000F000F8FEE772B6394880F30888B4
:1001F000384880F3098838484EF60851CEF200019D
:10020000086040F20000CCF200004EF63471CEF2ED
:1002100000010860BFF34F8FBFF36F8F40F2000003
:10022000C0F2F0004EF68851CEF200010860BFF334
:100230004F8FBFF36F8F4FF00000E1EE100A4EF6C4
:100240003C71CEF200010860062080F31488BFF3F1
:100250006F8F02F093FA03F0B9F94FF055301F4950
:100260001B4A91423CBF41F8040BFAE71C49194A6A
:1002700091423CBF41F8040BFAE71A491A4A1B4B5A
:100280009A423EBF51F8040B42F8040BF8E70020F5
:100290001749184A91423CBF41F8040BFAE702F0B3
:1002A00071FA03F0FDF9144C144DAC4203DA54F822
:1002B000041B8847F9E700F03FF8114C114DAC42A0
:1002C00003DA54F8041B8847F9E702F059BA000032
:1002D000000400200024002000000008000000208E
:1002E00000040020E83E000800240020282400200C
:1002F00028240020683D0020E0010008E0010008FB
:10030000E0010008E00100082DE9F04F2DED108A12
:10031000C1F80CD0C3689D46BDEC108ABDE8F08FD3
:10032000002383F311882846A047002001F086FEB1
:1003300001F036FE00DFFEE770B5204C0D230025EE
:1003400023706FF03F061F236570A570E57025715F
:100350006571A571E57125726672A372E57200F090
:100360000DFD20B10F2325726672A372E57202F0B3
:100370009DF9044602F0BEF90546D8B9104B9C42DF
:100380001AD001339C4218BF054641F2883404BF9D
:1003900001250024002002F08FF90DB100F0B6F81D
:1003A00000F080FD00F028FC204600F00DF900F080
:1003B000ADF8F9E70024EDE70446EBE72824002038
:1003C000010007B008B500F095FBA0F120035842EA
:1003D000584108BD07B5054B02211B88ADF8043014
:1003E00001A800F0F3FB03B05DF804FBF03A00084D
:1003F000064991F8243033B100230822086A81F8B5
:10040000243000F01BBC0120704700BF48240020AE
:100410002DE9F84F234C94F82430054688461746BA
:100420008BBB2E46DFF87C90002F38D094F824A0A8
:10043000BAF1000F05D12022FF214846266200F0C4
:100440001FFDCAF10805BD4228BF3D465FFA85FB86
:10045000AD0041462A4604EB8A0000F0E7FC94F820
:100460002430A7EB0B079B445FFA8BFBBBF1080F13
:100470002E44A844FFB284F824B0D5D1FFF7B8FFCA
:100480000028D1D108E0266A06EB8306B042C9D025
:10049000FFF7AEFF0028C4D10020BDE8F88F01208F
:1004A000BDE8F88F4824002010B5202383F311887D
:1004B0001248C3680BB101F047FE0023104A0F48F1
:1004C0004FF47A7101F004FE002383F311880D4C80
:1004D000236813B12368013B2360636813B1636829
:1004E000013B6360084B1B7833B9636823B9022072
:1004F00000F08AFC3223636010BD00BF342400206A
:10050000A9040008782900207024002010B5254B8C
:10051000254953F8042F013200D110BD8B42F8D188
:10052000224C234B22689A423AD9224B9B6803F112
:10053000006303F580439A4232D2002000F076FB3C
:100540001D4B0220187000F051FC1C4B1A6C00224D
:100550001A64196E1A66196E596C5A64596E5A6685
:100560005A6E5A6942F080025A615A6922F080023A
:100570005A615A691A6942F000521A611A6922F0E6
:1005800000521A611B6972B60D4A0E4B13601B684C
:100590002268202181F311889D4683F30888104743
:1005A00010BD00BFFC3F00081C40000804400008CC
:1005B000FF3F00082824002070240020003802405B
:1005C00008ED00E0004000082DE9F04FB04C97B076
:1005D00020228146FF210EA8A66800F051FCAD4AFA
:1005E0001378A346A3B9AC480121C360117020233E
:1005F00083F31188C3680BB101F0A6FD0023A74A5D
:10060000A5484FF47A7101F063FD002383F311884C
:10061000B9F1000F02D0A24BC3F80090A14BA04A41
:1006200000241C705460254627469846012000F09F
:10063000DDFBB9F1000F00F02282994B1B68002B03
:1006400040F01D8217B0BDE8F08F0220FFF7BAFE20
:10065000002840F00E82944B1B88ADF82430022114
:1006600009A800F0B3FAE1E74FF47A7000F042FA1B
:10067000031E0193EFDB0220FFF7A4FE8246002851
:10068000E9D0019B581E042800F2F581DFE800F054
:10069000030D1013160016A8052340F8343D04215D
:1006A00000F094FA5446002752E004217848F7E716
:1006B00004217E48F4E704217D48F1E71C2420460C
:1006C00000F0B6FA04340990042109A800F07EFA7B
:1006D0002C2CF4D1E6E7002DBDD0002CBBD002209D
:1006E000FFF770FE0546002800F0C781012000F0EA
:1006F0009DFA022088F8000000F078FB0024E3B2A5
:100700001846019300F0A2FA824648B1019B1846B0
:1007100000F0ACFA01340028F1D12C46654B9BE780
:100720000123022088F8003000F052FB5646DBF827
:1007300008309E4206D2304600F07AFA0130ECD101
:100740000436F4E7564B002688F800605E602C46BD
:1007500000F09EFB1DB1002C18BF4FF00009FFF701
:1007600039FE63E7002D3FF476AF002C3FF473AF02
:10077000022088F8000000F039FB322000F0BAF9BE
:10078000B0F1000AC0F279811AF0030540F07581DA
:10079000DBF8082006EB0A03934200F26E81BAF5FB
:1007A000807F00F26A81444B019355450DDA4FF486
:1007B0007A7000F09FF90290029A002AC0F25D81DF
:1007C000019B029AEA540135EEE7C820FFF7FAFDD3
:1007D0000546002800F051811F2E11D8C6F12004D3
:1007E000544528BF54460EAB26F00300224632493A
:1007F000184400F01BFB2246FF212F4800F040FB6D
:100800004FEAAA0A5FFA8AF22B493046FFF700FE48
:100810000446002881D006EB8A06054698E70220A8
:10082000FFF7D0FD00283FF416AFFFF7E1FD0028E9
:100830003FF411AF00229246DBF808309A4259D2B9
:100840001F2A1ED80E9B01331BD022F0030316A9CA
:100850000B4453F8203C09931848436883B3174866
:1008600000210DF1240E11F80E3083EA0A03DBB2E9
:10087000013150F82330042983EA1A2AF3D10432D3
:10088000DAE71046019200F0D3F9019A0990E3E704
:10089000282400207425002034240020A904000806
:1008A0007829002070240020F23A00082C2400202F
:1008B00030240020F43A0008742400207825002019
:1008C00019464FF0080E11F0010F4FEA51011FBFFA
:1008D00081F06D4181F4380181F4034181F0200100
:1008E000BEF1010EEFD140F823100133B3F5807F44
:1008F000E6D1B4E716A8042140F84CAD00F066F943
:1009000026E716A8002340F8343D642100F02AF9B8
:1009100000287FF4A0AE0220FFF754FD00283FF42A
:100920009AAE099800F0B4F916AB43F8480D0421CB
:100930001846E3E716A8002340F8343D642100F090
:1009400011F900287FF487AE0220FFF73BFD002855
:100950003FF481AE099800F0A9F916AB43F8440DB5
:10096000E5E70220FFF72EFD00283FF474AE00F00B
:10097000A3F916AB43F8400DD9E70220FFF722FD9B
:1009800000283FF468AE09A9142000F09BF98246C4
:1009900016A8042140F83CAD00F018F9514609A80A
:1009A000ACE7322000F0A6F8B0F1000AFFF653AE33
:1009B0001AF0030F7FF44FAEDBF808200AEB0703B1
:1009C00093423FF648AE0220FFF7FCFC00283FF4BC
:1009D00042AE2AF0030ABA44BA453FF4B9AE3846EB
:1009E00000F026F90421089008A800F0EFF8043779
:1009F000F2E74FF47A70FFF7E5FC00283FF42BAEE6
:100A0000FFF7F6FC00283FF489AE0E9B01330CD0B3
:100A100008220EA90020FFF7FBFC00283FF47EAE61
:100A20002022FF210EA800F02BFAFFF7D3FC30485C
:100A300001F00AFB06E616A8002340F8343D6421C5
:100A400000F090F8824600287FF405AE0220FFF700
:100A5000B9FC00283FF4FFADFFF7BCFC41F2883041
:100A600001F0F2FA099800F05FFAD14600F010FAAE
:100A7000DCE505466CE60027EDE52546EBE50020C4
:100A800000F038F80290029B002BFFF6D2AD012057
:100A900000F09EF9029B213B122B3FF6C7AD01A24D
:100AA00052F823F04B06000869060008D706000834
:100AB0002D0600082D0600082D0600086507000811
:100AC000A30900081F0800080309000835090008E9
:100AD000630900082D0600087B0900082D060008A0
:100AE000F3090008510700082D060008370A00081E
:100AF000A08601002DE9F34702AE00244FF47A7579
:100B000006F8014D144FDFF85880454397F900303F
:100B10005A1C5FFA84F901D0A34212D158F824007C
:100B200003680122D3F820A031462B46D047012884
:100B300007D10A4B9DF8070083F8009002B0BDE88A
:100B4000F0870134032CE1D14FF4FA7001F07CFA04
:100B50004FF0FF30F2E700BF00240020982900206A
:100B6000483B00082DE9F0474FF47A75144FDFF841
:100B7000588006464D43002497F900305A1C5FFA0E
:100B800084F901D0A34210D158F82400036804224C
:100B9000D3F820A031462B46D047042805D1094B75
:100BA00083F800900020BDE8F0870134032CE3D1E6
:100BB0004FF4FA7001F048FA4FF0FF30BDE8F087CB
:100BC0000024002098290020483B000830B4074B3F
:100BD0001A78074B53F822402368DD69054B0A4613
:100BE000AC460146204630BC604700BF9829002033
:100BF000483B0008A086010070B501F06FFC094C6D
:100C0000094E2070002530682378834208D901F00E
:100C10005FFC336805440133B5F5804F3360F2D390
:100C200070BD00BF992900208029002001F008BD77
:100C300000F1006000F580400068704700F100603E
:100C4000920000F5804001F093BC0000054B1A684B
:100C5000054B1B789B1A834202D9104401F038BC23
:100C600000207047802900209929002038B5074DC1
:100C700004462868204401F033FC28B92868204441
:100C8000BDE8384001F044BC38BD00BF80290020D9
:100C900010F0030308D1B0F5007F05D800F1005033
:100CA000A0F508400068704700207047014BC0580D
:100CB000704700BF107AFF1F014B1868704700BFD4
:100CC000002004E070B52A4B1C68C4F30B03240C0D
:100CD00063B140F21342934231D040F21942934241
:100CE0002FD040F2214293422DD10323214A0C25DB
:100CF00005FB03235D6893F9082042F201039C423F
:100D000024D0B4F5805F23D041F201039C4221D06E
:100D100041F203039C421FD041F207039C4208BFEB
:100D20003122441E0C44013D0B46A3421ED215F94C
:100D3000016F581C96B1034600F8016CF5E70123DA
:100D4000D4E70223D2E73F220B4DD6E73322E3E775
:100D50004122E1E75A22E4E75922E2E72C258442C6
:100D60001D7001D9981C5A70401A70BD1846FBE7D7
:100D7000002004E0183B0008F83A0008124B5A889B
:100D800042F201018A4293B214D0B3F5805F13D0CE
:100D900041F20102934211D041F2030293420FD07B
:100DA00041F2070293420DD10423084A02EB830368
:100DB000D87870470023F8E70123F6E70223F4E729
:100DC0000323F2E700207047002004E0043B000802
:100DD000022802D1044B98617047012802BF024BE0
:100DE0004FF400629A61704700040240022804D167
:100DF0004FF40032034B9A6170470128FCD14FF049
:100E00000062F7E700040240022805D1064A536950
:100E100083F00203536170470128FCD1024A5369F1
:100E200083F40063F6E700BF0004024010B500231E
:100E3000934203D0CC5CC4540133F9E710BD0000E9
:100E400030B5441E14F9010F0B4660B193F9005000
:100E5000854201F1010106D11AB993F90020801AE7
:100E600030BD013AEEE7002AF7D1104630BD000050
:100E700002460346981A13F9011B0029FAD170475C
:100E800002440346934202D003F8011BFAE770477D
:100E9000024B1A78024B1A70704700BF9829002045
:100EA0000024002038B5194C194D204600F00CFCE8
:100EB0002946204600F034FC2B681648DA6ED2F83A
:100EC000043843F00203C2F8043801F0BDF81249B7
:100ED000286800F033FD2B681048DA6E1049D2F80C
:100EE000043823F00203C2F80438A0424FF4E1337F
:100EF0000B6001D000F046FB0A48A04204D008492C
:100F0000BDE8384000F03EBB38BD00BFAC32002029
:100F10002C3C000840420F007C3C00089C2900202B
:100F200084290020042E002038B50B4B1A780B4B77
:100F300053F822400A4B9C4205460CD0094B002135
:100F400018461422FFF79CFF056001462046BDE8C5
:100F5000384000F017BB38BD98290020483B0008F6
:100F6000AC320020842900200268436811430160EC
:100F700003B1184770470000024AD36843F0C0032A
:100F8000D360704700440040024AD36843F0C00376
:100F9000D3607047004800402DE9F041D0F85C6410
:100FA000F7683368DA0505469CB20DD5202383F334
:100FB00011884FF400710430FFF7D6FF6FF480738F
:100FC0003360002383F31188202383F3118805F114
:100FD000040814F02F0333D183F31188380615D594
:100FE000210613D5202383F3118805F1380000F082
:100FF00027FA002846DA0821281DFFF7B5FF4FF62B
:101000007F733B40F360002383F311887A060ED58B
:1010100063060CD5202383F31188EA6C2B6D9A426A
:1010200002D12B6C002B2FD1002383F31188D5F82C
:101030006424D368002B31D01069BDE8F041184713
:10104000230713D014F0080F0CBF00218021E00704
:1010500048BF41F02001A20748BF41F040016307AB
:1010600048BF41F480714046FFF77EFFA4067368D5
:1010700005D595F860142846194000F091FA3468B7
:10108000A4B2A6E77060BEE727F040073F04102136
:10109000281D3F0CFFF768FFF760C5E7BDE8F0814A
:1010A00008B50348FFF778FFBDE8084001F038BBFA
:1010B0009C29002008B50348FFF76EFFBDE80840F3
:1010C00001F02EBB042E002010B5094C094A204621
:1010D000002100F035FA084BC4F85C34074C084A8C
:1010E0000021204600F02CFA064BC4F85C3410BDF9
:1010F0009C290020790F000800440040042E0020A5
:10110000890F00080048004038B5314D037C0029A4
:1011100018BF0D46012B0446C0F8645410D12D4B66
:10112000984242D12C4B1A6C42F400321A641A6E67
:1011300042F400321A661B6E0B21262000F058F88C
:10114000264BD4F85C249A422B6802D024498A4268
:101150003BD1244901EB5301B1FBF3F3A988080407
:1011600042BF23F0070003F0070343EA4003936004
:10117000EB8843F040039BB213612B8943F00103DA
:101180009BB2536141F4045343F02C03D36001F448
:10119000A05100231360B1F5806F136853680CBF32
:1011A0007F23FF2384F8603438BD0F4B9842C7D1AA
:1011B000094B1A6C42F480221A641A6E42F480229F
:1011C0001A661B6E0B212720B8E70849C2E700BF4B
:1011D000743B00089C2900200038024000100140A8
:1011E0000014014000BD0105042E002080DE8002B5
:1011F00000F1604300F01F02400903F5614309015B
:101200008000C9B200F1604083F8001300F561402E
:1012100001239340C0F8803103607047F8B515464C
:1012200082680669AA420B46816938BF8568761ACA
:10123000B542044607D218462A46FFF7F7FDA369D0
:101240002B44A3610DE011D932461846FFF7EEFD9D
:10125000AF1B3A46E1683044FFF7E8FDE2683A44E4
:10126000A261A3685B1BA3602846F8BD18462A4606
:10127000FFF7DCFDE368E4E783682DE9F04104460D
:1012800093421546266938BF85684069361AB542CB
:101290000F4606D22A46FFF7C9FD63692B446361F6
:1012A0000DE012D93246A5EB0608FFF7BFFD424616
:1012B000B919E068FFF7BAFDE26842446261A368C9
:1012C0005B1BA3602846BDE8F0812A46FFF7AEFD10
:1012D000E368E4E710B50A440024C361029B0060A0
:1012E00040608460C160816141610261036210BD40
:1012F00008B582694369934201D1826882B98268E4
:10130000013282605A1C42611970426903699A4233
:1013100001D3C3684361002100F0B2FE002008BD84
:101320004FF0FF3008BD000070B5202304460E4684
:1013300083F31188A568A5B1A368A269013BA360E6
:10134000531CA36115782269934224BFE368A3610B
:10135000E3690BB120469847002383F311882846A0
:1013600070BD3146204600F07BFE0028E2DA85F3AE
:10137000118870BD2DE9F74F05460F4690469A46F5
:10138000D0F81C90202686F311884FF0000B1446ED
:1013900064B1224639462846FFF740FF034668B944
:1013A0005146284600F05CFE0028F1D0002383F36C
:1013B0001188A8EB040003B0BDE8F08FB9F1000F6D
:1013C00003D001902846C847019B8BF31188E41A8B
:1013D0001F4486F31188DBE7C16081614161C3610D
:1013E0001144009B006040608260016103627047AD
:1013F000F8B504460E461746202383F31188A568E6
:10140000A5B1A368013BA36063695A1C62611E70A9
:10141000236962699A4224BFE3686361E3690BB19F
:1014200020469847002080F31188F8BD39462046B1
:1014300000F016FE0028E2DA85F31188F8BD0000FE
:10144000836942699A4210B501D182687AB982688B
:10145000013282605A1C82611C7803699A4201D36E
:10146000C3688361002100F00BFE204610BD4FF0E1
:10147000FF3010BD2DE9F74F05460F4690469A46BE
:10148000D0F81C90202686F311884FF0000B1446EC
:1014900064B1224639462846FFF7EEFE034668B996
:1014A0005146284600F0DCFD0028F1D0002383F3EC
:1014B0001188A8EB040003B0BDE8F08FB9F1000F6C
:1014C00003D001902846C847019B8BF31188E41A8A
:1014D0001F4486F31188DBE702684368114301600B
:1014E00003B11847704700001430FFF743BF0000F6
:1014F0004FF0FF331430FFF73DBF00003830FFF7E7
:10150000B9BF00004FF0FF333830FFF7B3BF000022
:101510001430FFF709BF00004FF0FF311430FFF720
:1015200003BF00003830FFF763BF00004FF0FF3209
:101530003830FFF75DBF000000207047FFF7C4BDE3
:1015400037B50F4B0360002343608360C360012302
:1015500004460374154600900B464FF4007200F1E8
:101560005C011430FFF7B6FE00942B464FF4007276
:1015700004F5177104F13800FFF72EFF03B030BDFA
:10158000883B000810B52023044683F31188FFF739
:10159000BBFD02232374002383F3118810BD0000D8
:1015A00038B5C36904460D461BB904210844FFF74A
:1015B00093FF294604F11400FFF79AFE002806DA8B
:1015C000201D4FF48061BDE83840FFF785BF38BD6E
:1015D000026843681143016003B118477047000077
:1015E00013B5446BD4F894341A681178042915D1D2
:1015F000217C022912D11979128901238B401342CF
:101600000CD101A904F14C0001F054FED4F894442B
:10161000019B21790246206800F0E0F902B010BD7C
:10162000143001F0D7BD00004FF0FF33143001F04B
:10163000D1BD00004C3001F0A9BE00004FF0FF33D7
:101640004C3001F0A3BE0000143001F0A5BD000035
:101650004FF0FF31143001F09FBD00004C3001F01D
:1016600075BE00004FF0FF324C3001F06FBE00003D
:10167000D0F8942438B5136819780429054601D0A8
:10168000012038BD017C0229FAD112795C89012040
:1016900090400440F4D105F1140001F037FD0246FA
:1016A0000028EDD0D5F894544FF4807328686979F8
:1016B00000F082F9204638BD406BFFF7D9BF00002B
:1016C00000207047704700007FB5124B0360002375
:1016D00043608360C360012502260F4B05740446F6
:1016E0000290019300F18402294600964FF4807322
:1016F000143001F0E7FC094B0193029400964FF47B
:10170000807304F52372294604F14C0001F0AEFD0C
:1017100004B070BDB03B0008B9160008E115000820
:101720000B68202282F311880A7903EB820210628F
:101730004A790D3243F822008A7912B103EB820311
:10174000186202230374C0F89414002383F31188F1
:101750007047000038B5037F044613B190F8543049
:10176000ABB9201D01250221FFF732FF04F114005F
:1017700025776FF0010100F08FFC84F8545004F1DC
:101780004C006FF00101BDE8384000F085BC38BD69
:1017900010B5012104460430FFF71AFF0023237718
:1017A00084F8543010BD000038B5044600251430CC
:1017B00001F0A0FC04F14C00257701F06FFD201D25
:1017C00084F854500121FFF703FF2046BDE838405C
:1017D000FFF74EBF90F85C3003F06003202B19D167
:1017E00090F85D20212A0AD0222A4FF000030ED063
:1017F000202A0FD1084A02650722426504E0064B01
:101800000365072343650023836501207047036553
:101810004365F9E70020704701240020D0F8943494
:1018200037B51A681178042904461AD1017C0229B7
:1018300017D11979128901238B40134211D100F17C
:101840004C05284601F0EAFD58B101A9284601F0EF
:1018500031FDD4F89444019B21790246206800F0C0
:10186000BDF803B030BD000000EB8103F7B51C6A82
:1018700005460E46F4B1202383F3118805EB860755
:10188000201D0821FFF7A4FEFB685B691B684C3430
:1018900013B1204601F01CFD01A9204601F00AFD0C
:1018A000024648B1019B3146284600F097F80023D4
:1018B00083F3118803B0F0BDFB685A691268002AEF
:1018C000F5D01B8A013B1340F1D105F15C02EAE738
:1018D0000D3138B550F82140DCB1202383F3118855
:1018E000D4F894241368527903EB8203DB689B6974
:1018F0005D6845B104216018FFF76AFE294604F1CE
:10190000140001F00DFC2046FFF7B2FE002383F324
:10191000118838BD7047000000F0BABF0123037082
:101920000023436000F1240200F1380142F8043B37
:101930008A421361FAD103814381704738B5044666
:10194000202383F3118800254160C560056145614E
:101950008561C561056200F0ABFF0223237085F34A
:10196000118838BD70B500EB810305465069DA6017
:101970000E46144618B110220021FFF781FAA06923
:1019800018B110220021FFF77BFA31462846BDE846
:10199000704001F057B80000028902F00102028194
:1019A000428902F0010242810022026142618261A9
:1019B000C261026201F0DAB8F0B400EB8104478939
:1019C000E4680125A4698D403D43458123600023DF
:1019D000A2606360F0BC01F0F5B80000F0B400EB69
:1019E00081040789E468012564698D403D430581D0
:1019F00023600023A2606360F0BC01F06FB90000B7
:101A000070B50223002504460370A0F8645080F8E6
:101A1000665080F8675005814581C5600561456164
:101A20008561C561056280F84C5000F0A7FF6368CE
:101A30001B6823B129462046BDE87040184770BD99
:101A4000436802781B6880F86820052202700BB199
:101A50000421184770470000436890F868201B680D
:101A600002700BB1052118477047000090F84C3008
:101A700070B5044613B1002380F84C3004F15C02C9
:101A8000204601F095F863689B6863BB94F85C504E
:101A900015F0600615D194F85D3005F07F0545EA34
:101AA000032540F202339D4200F00E815BD8022DE7
:101AB00000F0DC803FD8002D00F08780012D00F081
:101AC000CF800021204601F0DFFA0021204601F0FE
:101AD000D1FA63681B6813B1062120469847062394
:101AE00084F84C3070BD204698470028CED094F83A
:101AF000632094F8623043EA0223626D934238BF58
:101B0000636594F95C30656D002B4FF0200380F223
:101B1000FD80002D00F0EC80092284F84C2083F336
:101B200011880021636D226D2046FFF757FF0023C7
:101B300083F3118870BDB5F5817F00F0B180B5F5F4
:101B4000407F49D0B5F5807FBBD194F85E30012B42
:101B5000B7D1B4F8643023F00203A4F864302665EA
:101B60006665A665C3E740F201639D421ED8B5F5E0
:101B7000C06F3BD2B5F5A06FA3D1B4F85C30B3F51C
:101B8000A06F0ED194F85E3084F86630204600F0E5
:101B90004DFF63681B6813B101212046984703235A
:101BA0002370002323656365A365A0E7B5F5106F77
:101BB00032D040F602439D4252D0B5F5006F80D13D
:101BC00004F167032365012324E004F16403236522
:101BD00002236365A5658AE794F85E30012B7FF4E4
:101BE00070AFB4F8643043F00203B6E794F86120B4
:101BF000616894F860304D6894F85F1043EA0223FE
:101C0000204694F85E20A84700283FF45AAF436866
:101C1000236503686365A4E72378042B10D1202390
:101C200083F311882046FFF7B7FE86F311886368B7
:101C300084F867601B68032121700BB12046984728
:101C400094F85E30002BACD084F867300423237006
:101C500063681B68002BA4D0022120469847A0E7A8
:101C6000374B23650223636500239DE794F86010DA
:101C700011F0800F204601F00F010ED000F08AFF16
:101C8000012806D002287FF41CAF2E4B2365606527
:101C900067E72D4B2365656563E700F06DFFEFE7B0
:101CA00094F85E30002B7FF40CAF94F8603013F0A2
:101CB0000F013FF476AF1A06204602D501F0F8F97D
:101CC0006FE701F0EBF96CE794F85E30002B7FF4DE
:101CD000F8AE94F8603013F00F013FF462AF1B06CA
:101CE000204602D501F0D0F95BE701F0C3F958E7CF
:101CF000142284F84C2083F311882B462A46294667
:101D00002046FFF759FE85F3118870BD5DB115229D
:101D100084F84C2083F311880021636D226D2046E6
:101D2000FFF74AFE03E70B2284F84C2083F3118867
:101D30002B462A4629462046FFF750FEE3E700BF20
:101D4000E03B0008D83B0008DC3B000838B590F8C1
:101D50004C300446152B29D8DFE803F03E2828280C
:101D600028283E28280B29392828282828282828E8
:101D70003E3E90F8631090F86220436D42EA0122E3
:101D80009A4214D9C268128AB3FBF2F502FB1535E8
:101D90006DB9202383F311882B462A462946FFF785
:101DA0001DFE85F311880A2384F84C3038BD1423B6
:101DB00084F84C30202383F3118800231A461946F7
:101DC0002046FFF7F9FD002383F3118838BD836DAA
:101DD00003B198470023E7E7002101F055F90021FE
:101DE000204601F047F963681B6813B106212046BD
:101DF00098470623D8E7000090F84C20152A38B5FC
:101E0000044622D80123934040F6416213421DD17B
:101E100013F480150FD19B0217D50B2380F84C309B
:101E2000202383F311882B462A462946FFF7D6FD47
:101E300085F3118838BDC3689B695B682BB9836DD6
:101E400003B19847002384F84C3038BD002101F0DD
:101E50001BF90021204601F00DF963681B6813B1DE
:101E60000621204698470623EDE70000024B00229A
:101E70001B605B609A6070476C3200200023037423
:101E80008268054B1B6899689142FBD25A680360CF
:101E900042601060586070476C32002008B5202303
:101EA00083F31188037C032B05D0042B0DD02BB9B1
:101EB00083F3118808BD436900221A604FF0FF3395
:101EC0004361FFF7DBFF0023F2E790E80C001A60A4
:101ED00002685360F2E70000002303748268054B38
:101EE0001B6899689142FBD85A6803604260106091
:101EF000586070476C320020054B196908741868E7
:101F000002681A605360186101230374FEF7FCB97C
:101F10006C32002030B54B1C87B005460A4C10D0FF
:101F200023690A4A01A800F0D3F82846FFF7E4FF26
:101F3000049B13B101A800F007F92369586907B0A1
:101F400030BDFFF7D9FFF8E76C3200209D1E000876
:101F500038B50C4D41612B6981689A6891420446FD
:101F600003D8BDE83840FFF789BF1846FFF786FF62
:101F700001232C61014623742046BDE83840FEF75A
:101F8000C3B900BF6C320020044B1A681B6990680B
:101F90009B68984294BF0020012070476C3200205B
:101FA00010B5084C236820691A6822605460012229
:101FB00023611A74FFF790FF01462069BDE81040C5
:101FC000FEF7A2B96C320020826002220274002265
:101FD000427470478368A3F17C0243F80C2C0269B9
:101FE00043F83C2C426943F8382C074A43F81C2C30
:101FF000C26843F8102C022203F8082C002203F8D0
:10200000072CA3F1180070472103000810B5202306
:1020100083F31188FFF7DEFF00210446FFF798FFE6
:10202000002383F31188204610BD0000024B1B697A
:1020300058610F20FFF760BF6C320020202383F32C
:102040001188FFF7F3BF000008B50146202383F392
:1020500011880820FFF75EFF002383F3118808BD75
:1020600049B1064B42681B6918605A6013604360AF
:102070000420FFF74FBF4FF0FF3070476C32002055
:102080000368984206D01A68026050605961184689
:10209000FFF7F4BE7047000038B504460D462068CF
:1020A000844200D138BD036823605C604561FFF75E
:1020B000E5FEF4E7054B03F114025A619A614FF013
:1020C000FF32DA6100221A62704700BF6C320020D2
:1020D000F8B503611A4BC2605C6A1A4B1A460229B2
:1020E00052F8145F38BF0221954206461F460AD1B6
:1020F000586198611C620560456081600819BDE8FF
:10210000F84001F0ADB9186AAB68241A0C1902D373
:10211000E41A2D6804E09C4202D2204401F0B0F998
:10212000AB689C42F4D86B68736035601E606E606B
:10213000B460A9684FF0FF33091BA960FB61F8BDCB
:10214000000C00406C32002010B41A4C234653F8A7
:10215000141F814210D0416802680A600268516011
:102160009A424FF00001C16003D0936881680B442C
:1021700093605DF8044B70470A68626100209A42E0
:102180005360C86003D15DF8044B01F073B99368E4
:10219000886803449360084A206A526A121A93427C
:1021A000E7D9991A012998BF931C18445DF8044B8C
:1021B00001F066B96C320020000C0040002070472E
:1021C000FEE70000704700004FF0FF30704700004E
:1021D000022906D0032906D00129064818BF00208D
:1021E000704705487047032A9ABF044800EBC200B5
:1021F00000207047D83C00088C3C000808240020D0
:1022000070B5044608460D46FEF732FEC6B22046BB
:10221000013403780BB9184670BD32462946FEF7E3
:102220000FFE0028F3D1012070BD00002DE9F04F12
:1022300081469BB008460D461646FEF719FE3D49FD
:10224000C4B22846FFF7DCFF08B10434E4B23A49CF
:102250002846FFF7D5FF08B11034E4B2632C01AF74
:102260000CD8DFF8E0A0DFF8E0B03C4695F800803D
:10227000B8F1000F1CD184F8008003E029463846ED
:1022800001F02EFC3846FEF7F3FDC0B2431C5B00A4
:1022900089E848003370032373700023023619461F
:1022A000DAB2904206F102063DD81BB0BDE8F08FCD
:1022B000B8F1250F32D107221E492846FEF7C0FD8E
:1022C00070B9DBF800202260DBF804206260BBF804
:1022D000082022819BF80A20A27207350B34C5E73B
:1022E000082215492846FEF7ABFDB8B91348A21CD1
:1022F00010F8011F124B4FEA111E01F00F011EF8DA
:102300000AE011F80A1002F802EC984202F8011CE7
:1023100002F10202ECD118340835A7E784F80080F6
:1023200001350134A2E7FA5C06F8022C06F8011C1C
:102330000133B5E7343C00083C3C00080F7AFF1F2E
:102340001B7AFF1F513C0008453C000808B52023BC
:1023500083F311880348FFF761FA002383F31188A0
:1023600008BD00BFAC32002010B50446052916D8C0
:10237000DFE801F016150316161D202383F31188DC
:102380000E4A0121FFF7EEFA20460D4A0221FFF71F
:10239000E9FA0C48FFF708FA002383F3118810BD0F
:1023A000202383F311880748FFF7D4F9F4E72023AB
:1023B00083F311880348FFF7EBF9EDE7E43B0008EE
:1023C000083C0008AC32002038B50C4D0C4C0D49CF
:1023D0002A4604F10800FFF729FF05F1CA0204F1BB
:1023E00010000949FFF722FF05F5CA7204F1180031
:1023F0000649BDE83840FFF719BF00BF7437002019
:1024000008240020643C00086E3C00083C3C0008A6
:10241000BFF34F8F024AD368DB03FCD4704700BF81
:10242000003C024008B5094B1B7873B9FFF7F0FF79
:10243000074B1A69002ABFBF064A5A6002F1883268
:102440005A601A6822F480621A6008BDD2390020EE
:10245000003C02402301674508B50B4B1B7893B93C
:10246000FFF7D6FF094B1A6942F000421A611A6859
:1024700042F480521A601A6822F480521A601A6874
:1024800042F480621A6008BDD2390020003C02404C
:10249000172870B513D80B4A0B4C137863B90B4E41
:1024A0004FF0006144F8231056F823500133182BE5
:1024B0002944F7D10123137054F8200070BD002087
:1024C00070BD00BF343A0020D4390020F83C000829
:1024D000014B53F820007047F83C00081820704763
:1024E000172810B5044601D9002010BDFFF7D0FF12
:1024F000064B53F824301844C21A0BB9012010BD02
:1025000012680132F0D1043BF6E700BFF83C000846
:10251000172810B5044626D8FFF77AFFFFF782FF89
:102520001249F323CB60FFF773FF0C23B0FBF3F2E8
:1025300003FB1200D30143EAC003DBB243F4007390
:1025400043F002030B610B6943F480330B61FFF727
:102550005FFF2046FFF79CFFFFF77EFF2046BDE8A8
:102560001040FFF7BDBF002010BD00BF003C02407F
:102570002DE9F84312F00103154643D10244B2F1AC
:10258000026F3FD22C4B1B6813F001033AD02B4C47
:10259000FFF748FFF323E360FFF73AFF40F201271C
:1025A000032D16D8254C0F46401A40F20118EB1B9C
:1025B0000B44012B00EB0706236926D823F0010307
:1025C0002361FFF749FF0120BDE8F883043D043093
:1025D000E6E78307E6D1236923F440732361236987
:1025E0003B43236151F8046B0660BFF34F8FFFF745
:1025F0000FFF03689E42E9D0236923F001032361A2
:10260000FFF72AFF0020BDE8F88323F4407323611D
:10261000236943EA08032361B94637F8023B338054
:10262000BFF34F8FFFF7F4FE3688B9F80030B6B22B
:10263000B342BCD0E0E700BF00380240003C02409B
:10264000084908B50B7828B153B9FFF7EBFE012311
:102650000B7008BD23B1BDE808400870FFF7FCBE51
:1026600008BD00BFD2390020014B53F8200070474D
:10267000502800400A4B1A6F120407D41A6F42F414
:1026800000721A671A6F42F400421A67054A13680B
:1026900043F48073136000B2034B43F8201070477B
:1026A000003802400070004050280040014B18687C
:1026B000704700BF5028004001460020FFF7DABFF6
:1026C00038B5094B1B689B000CD5084B084D0122FF
:1026D0001A700024E0B2FFF7C7FF45F82400013468
:1026E000082CF7D138BD00BF74380240583A00209A
:1026F000383A0020014B1878704700BF583A002044
:10270000064A536823F001035360EFF309836833EB
:1027100083F30988002383F31188704730EF00E0CA
:1027200010B5202383F31188104B5B6813F400630A
:1027300018D0F1EE103AEFF309844FF0807344F8AB
:102740004C3C0B4BDB6844F8083CA4F1680383F372
:102750000988FFF719FC18B1064B44F8503C10BD2E
:10276000054BFAE783F3118810BD00BF00ED00E0D0
:1027700030EF00E031030008340300087047000028
:10278000FEE70000084A094B09498B4204D3094A75
:102790000021934205D3704752F8040F43F8040B0D
:1027A000F3E743F8041BF4E70C3F0008683D002002
:1027B000683D0020683D0020036F30B500229D6811
:1027C000C46E11464FF0FF3004EB421301329542C4
:1027D000C3F80019C3F81019C3F80809C3F8001B9F
:1027E000C3F8101BC3F8080BEED24FF00113C4F866
:1027F0001C3830BD890141F02001016103699B064D
:10280000FCD4122000F0C8BE204B03EB80022DE95F
:10281000F047D2F80CE0DD6EDEF81420461CD2F84A
:1028200000C005EB063605EB4018516861450BD337
:10283000D5F83428012303FA00F022EA0000C5F895
:1028400034081846BDE8F087BEF81040ACEB010331
:10285000A34228BF2346D8F81849A4B2B3EB840F8B
:1028600010D894681F46A4F1040959F804AFC6F8BB
:1028700000A0042F01D9043FF7E71C440B449460E7
:102880005360D2E70020BDE8F08700BF5C3A00202B
:1028900010B5054C2046FFF741F84FF0A043E36622
:1028A000024B236710BD00BF5C3A00207C3D00084E
:1028B0000378012B70B5054650D12A4BC46E98425F
:1028C0001BD1294B5A6B42F080025A635A6D42F079
:1028D00080025A655A6D5A6942F080025A615A69FB
:1028E00022F080025A610E2143205B69FEF780FCD2
:1028F0001E4BE3601E4BC4F800380023C4F8003EB2
:10290000C0232360EE6E4FF40413A3633369002BDE
:10291000FCDA012333610C2000F03EFE3369DB0753
:10292000FCD4122000F038FE3369002BFCDA0026BC
:10293000A6602846FFF740FF6B68C4F81068DB68A4
:10294000C4F81468C4F81C684BB90A4BA3614FF073
:10295000FF336361A36843F00103A36070BD064BBE
:10296000F4E700BF5C3A0020003802404014004009
:1029700003002002003C30C0083C30C0F8B5C46EF3
:10298000054600212046FFF735FF296F00234FF051
:1029900001128F68C4F834384FF00066C4F81C2860
:1029A0004FF0FF3004EB431201339F42C2F800693D
:1029B000C2F8006BC2F80809C2F8080BF2D20B6823
:1029C000EA6E6B67636210231361166916F01006D6
:1029D000FBD1122000F0E0FDD4F8003823F4FE63B0
:1029E000C4F80038A36943F4402343F01003A36103
:1029F0000923C4F81038C4F814380A4BEB604FF0C0
:102A0000C043C4F8103B084BC4F8003BC4F810693D
:102A1000C4F800396B6F03F1100243F480136A6746
:102A2000A362F8BD583D000840800010C26E90F8C7
:102A30006610D2F8003823F4FE6343EA0113C2F8AB
:102A4000003870472DE9F0410EB200EB86080D46C4
:102A5000D8F80C100F6807F00303022B50D0032B9B
:102A600050D03D4A3D4F012B18BF1746C46E4FEA68
:102A7000451E04EB0E030022C3F8102B8A6905F1F2
:102A8000100C002A40D04A8A05F158035B013A43F2
:102A9000E2500123D4F81C2803FA0CF31343A64494
:102AA0004A69C4F81C380023CEF8103905F13F03F9
:102AB000002A39D00A8A898B9208012988BF4A43A3
:102AC000416F04EB8303561841EA024246672946E8
:102AD0005A602046FFF78EFED8F80C301B8A43EA76
:102AE00085531F4305F148035B01E7500123D4F8E8
:102AF0001C2803FA05F51543C4F81C58BDE8F081FD
:102B0000174FB3E7174FB1E704EB4613D3F8002B89
:102B100022F40042C3F8002BD4F81C28012303FA46
:102B20000CF322EA0303BAE704EB83030E4A5A606C
:102B300004EB461629462046FFF75CFED6F800391E
:102B400023F40043C6F80039D4F81C38012202FAF5
:102B500005F523EA0505CFE700800010008004108A
:102B60000080081000800C1000040002026F126840
:102B70004267FFF721BE00005831C36E49015B5820
:102B800013F4004004D013F4001F14BF01200220EE
:102B9000704700004831C36E49015B5813F4004090
:102BA00004D013F4001F14BF01200220704700005E
:102BB00000EB8101CB68196A0B6813604B685360A6
:102BC0007047000000EB810330B5DD68AA69136827
:102BD000D36019B9402B84BF402313606B8A1468FB
:102BE000C26E1C44013CB4FBF3F46343033323F093
:102BF000030302EB411043EAC44343F0C043C0F86F
:102C0000103B2B6803F00303012B09B20ED1D2F85D
:102C1000083802EB411013F4807FD0F8003B14BF5A
:102C200043F0805343F00053C0F8003B02EB4112E5
:102C3000D2F8003B43F00443C2F8003B30BD000033
:102C40002DE9F041244DEE6E06EB40130446D3F817
:102C5000087BC3F8087B38070AD5D6F8143819075B
:102C600006D505EB84032146DB6828465B68984758
:102C7000FA072FD5D6F81438DB072BD505EB8403DC
:102C8000D968CCB98B69488A5E68B6FBF0F200FB64
:102C900012628AB91868DA6890420DD2121A83E873
:102CA0001400202383F311880B482146FFF78AFF85
:102CB00084F31188BDE8F081012303FA04F26B89E3
:102CC00023EA02036B81CB6823B121460248BDE8A9
:102CD000F0411847BDE8F0815C3A002000EB810329
:102CE00070B5DD68C36E6C692668E6604A0156BB44
:102CF0001A444FF40020C2F810092A6802F00302B7
:102D0000012A0AB20ED1D3F8080803EB421410F4DA
:102D1000807FD4F8000914BF40F0805040F000508C
:102D2000C4F8000903EB4212D2F8000940F0044055
:102D3000C2F80009D3F83408012202FA01F1014374
:102D4000C3F8341870BD19B9402E84BF40202060EC
:102D500020682E8A841940F00050013C1A44B4FBCC
:102D6000F6F440EAC440C6E7F8B504461E48C56E0E
:102D700005EB4413D3F80869C3F80869F10717D5C0
:102D8000D5F81038DA0713D500EB8403D9684B69FE
:102D90001F68DA68974218D2D21B00271A605F605A
:102DA000202383F311882146FFF798FF87F31188CA
:102DB000330617D5D5F834280123A340134211D088
:102DC0002046BDE8F840FFF71FBD012303FA04F2D7
:102DD000038923EA020303818B68002BE8D0214694
:102DE0009847E5E7F8BD00BF5C3A0020A0482DE910
:102DF000F84FC56E6E69AB691E4016F4805F6E6158
:102E0000044605D0FEF7FCFDBDE8F84FFFF788BC8F
:102E1000002E12DAD5F8003E95489B071EBFD5F864
:102E2000003E23F00303C5F8003ED5F8043823F034
:102E30000103C5F80438FEF70FFE370502D58C48AC
:102E4000FEF7FEFDB0040CD5D5F8083813F0060FD8
:102E5000EB6823F470530CBF43F4105343F4A053B6
:102E6000EB60310704D56368DB680BB18048984795
:102E7000F2026FD4B3020CD5D4F86C80DFF8F0A165
:102E800000274FF00109236F9B68F9B28B4280F055
:102E90009C80F70619D5E16E0A6AC2F30A1702F0A0
:102EA0000F0302F4F012B2F5802F00F0B680B2F5F5
:102EB000402F0AD104EB830301F58051DB68186AC7
:102EC00000231A469F4240F09C803303D5F81848EF
:102ED0001DD5E70302D50020FFF7B2FEA50302D5FA
:102EE0000120FFF7ADFE600302D50220FFF7A8FE28
:102EF000210302D50320FFF7A3FEE20202D504203E
:102F0000FFF79EFEA30202D50520FFF799FE770387
:102F10007FF57AAFE60702D50020FFF725FFA5076A
:102F200002D50120FFF720FF600702D50220FFF73E
:102F30001BFF210702D50320FFF716FFE20602D58B
:102F40000420FFF711FFA3067FF55EAF0520FFF712
:102F50000BFF59E7D4F86C80DFF814A100274FF07D
:102F60000109236F9B685FFA87FB5B4582D308EBFF
:102F70004B13D3F8002902F44022B2F5802F22D15E
:102F8000D3F80029002A1EDAD3F8002942F0904233
:102F9000C3F80029D3F80029002AFBDB5946E06E6C
:102FA000FFF728FC228909FA0BF322EA03032381A5
:102FB00004EB8B03DB689B6813B159465046984776
:102FC0005846FFF721FC0137CBE708EB4112D2F856
:102FD000003B03F44023B3F5802F10D1D2F8003B1F
:102FE000002B0CDA628909FA01F322EA03036381F8
:102FF00004EB8103DB68DB680BB15046984701376F
:1030000041E79C0708BF0A68072B98BF027003F1CD
:1030100001039CBF120A013054E7023304EB830220
:1030200001F58051526890690268D0F808C0406884
:10303000A2EB000E0022104697420AD104EB830453
:1030400063689B699A683A449A605A6817445F605B
:103050003BE712F0030F08BF0868964588BF8CF85D
:10306000000002F1010284BF000A0CF1010CE3E749
:103070005C3A0020C36E03EB4111D1F8003B43F4EE
:103080000013C1F8003B7047C36E03EB4111D1F848
:10309000003943F40013C1F800397047C36E03EBE5
:1030A0004111D1F8003B23F40013C1F8003B7047F5
:1030B000C36E03EB4111D1F8003923F40013C1F8BA
:1030C0000039704730B5039C0172043304FB0325BB
:1030D000C361049B03630021059B00604060C160E5
:1030E000426102618561046242628162C16243633E
:1030F00030BD00000022416A41610161C26082620C
:10310000C2626FF00101FEF7C7BF000003694269A8
:10311000934203D1C2680AB100207047181D70475E
:1031200003691960C2680132C260C26913448269CE
:103130000361934224BF436A03610021FEF7A0BFED
:1031400038B504460D46E3683BB16269131D126849
:10315000A3621344E362002038BD237A33B92946C1
:103160002046FEF77DFF0028EDDA38BD6FF0010044
:10317000FBE70000C368C269013BC36043691344B5
:1031800082694361934224BF436A4361002383629F
:10319000036B03B11847704770B52023044683F3CF
:1031A0001188866A3EB9FFF7CBFF054618B186F352
:1031B0001188284670BDA36AE26A13F8015BA36216
:1031C000934202D32046FFF7D5FF002383F31188F3
:1031D000EFE700002DE9F84F04460E469046994669
:1031E000202787F311880025AA46D4F828B0BBF120
:1031F000000F09D149462046FFF7A2FF20B18BF30B
:1032000011882846BDE8F88FA16AE36AA8EB050B90
:103210005B1A9B4528BF9B46BBF1400F1BD9334629
:1032200001F1400251F8040B43F8040B9142F9D12B
:10323000A36A40334036A3624035A26AE36A9A42E9
:1032400002D32046FFF796FF8AF311884545D8D26E
:1032500087F31188C9E730465A46FDF7E7FDA36AB0
:103260005B445E44A3625D44E7E7000010B5029C46
:103270000172043303FB0421C36100238362C36230
:10328000039B0363049B00604060C4604261026171
:10329000816104624262436310BD0000026AC26041
:1032A000426A4261026100228262C2626FF00101E1
:1032B000FEF7F2BE436902699A4203D1C2680AB1BD
:1032C00000207047184650F8043B0B607047000020
:1032D000C368C2690133C3604369134482694361AF
:1032E000934224BF436A43610021FEF7C9BE000038
:1032F00038B504460D46E3683BB123691A1DA26246
:10330000E2691344E362002038BD237A33B92946C9
:103310002046FEF7A5FE0028EDDA38BD6FF001006B
:10332000FBE7000003691960C268013AC260C26924
:10333000134482690361934224BF436A03610023FB
:103340008362036B03B118477047000070B52023F8
:1033500004460E4683F31188856A35B91146FFF796
:10336000C7FF10B185F3118870BDA36A1E70A36AF0
:10337000E26A01339342A36204D3E169204604392F
:10338000FFF7D0FF002080F3118870BD2DE9F84FC2
:1033900004460D4691469A464FF0200888F311885E
:1033A0000026B346A76A4FB951462046FFF7A0FF53
:1033B00020B187F311883046BDE8F88FA06AE76A2C
:1033C000A9EB06033F1A9F4228BF1F46402F1BD977
:1033D00005F1400355F8042B40F8042B9D42F9D128
:1033E000A36A4033A3624036A26AE36A9A4204D3D6
:1033F000E16920460439FFF795FF8BF311884E45AC
:10340000D9D288F31188CDE729463A46FDF70EFD5B
:10341000A36A3B443D44A3623E44E5E70269436935
:103420009A4203D1C3681BB9184670470023FBE7D3
:10343000836A002BF8D0043B9B1AF5D01360C36855
:10344000013BC360C3691A44836902619A4224BF85
:10345000436A0361002383620123E5E700F042B978
:10346000034B002258631A610222DA60704700BFE2
:10347000000C0040014B0022DA607047000C004055
:10348000014B5863704700BF000C0040FEE700008E
:1034900010B5174CFEF7EAFCFEF70CFE802215492A
:1034A0002046FEF791FD012344F8180C0374124BDB
:1034B000124AD96821F4E0610904090C0A43104951
:1034C000DA60CA6842F08072CA600E490A6842F047
:1034D00001020A601022DA77202283F822200023DA
:1034E00083F3118862B60848BDE81040FEF78EBD30
:1034F00094320020883D000800ED00E00003FA054A
:10350000F0ED00E0001000E0903D00082DE9F84FDC
:103510001F4CDFF88090656904F114074FF0000834
:10352000D9F82430266AAA689E1B96421DD34FF014
:10353000200AAA68236AD5F80CB0134423622B68CA
:10354000BB425F60A6EB02066361C5F80C8001D147
:10355000FFF790FF88F311882869D8478AF311880C
:103560006569AB689E42E4D2DAE76269BA420CD080
:10357000916823628E1B9660A86802282CBF1818D9
:10358000981CBDE8F84FFFF77BBFBDE8F88F00BF80
:103590006C320020000C0040034B59685A68521AE4
:1035A0009042FBD8704700BF001000E04B684360BA
:1035B0008B688360CB68C3600B6943614B690362AE
:1035C0008B6943620B6803607047000008B5274BA6
:1035D00027481A6940F2FF710A431A611A6922F4F6
:1035E000FF6222F007021A611A691A6B0A431A6312
:1035F0001A6D0A431A651F4A1B6D1146FFF7D6FF65
:103600001D4802F11C01FFF7D1FF1C4802F13801EF
:10361000FFF7CCFF1A4802F15401FFF7C7FF194822
:1036200002F17001FFF7C2FF174802F18C01FFF7AA
:10363000BDFF164802F1A801FFF7B8FF144802F1D8
:10364000C401FFF7B3FF134802F1E001FFF7AEFF3B
:10365000114802F1FC01FFF7A9FF104802F58C7137
:10366000FFF7A4FFBDE8084000F0A8B8003802400A
:1036700000000240B03D0008000402400008024083
:10368000000C0240001002400014024000180240EA
:10369000001C02400020024000240240002802409A
:1036A00008B500F0FFF9FFF7F3FEFFF709F8BDE8F2
:1036B0000840FEF789BE000070470000084B1A69F9
:1036C000920710B508D500241C61202383F31188CC
:1036D000FFF71CFF84F31188BDE81040FFF720B806
:1036E000000C0040104B1A6C42F008021A641A6E6B
:1036F00042F008021A660D4A1B6E936843F00803F5
:1037000093600B4B53229A624FF0FF32DA62002231
:103710009A615A63DA605A6001225A6108211A607C
:103720003220FDF765BD00BF00380240002004E0F4
:10373000000C00401F4B1A696FEA42526FEA525266
:103740001A611A69C2F30A021A614FF0FF301A694E
:103750005A69586100215A6959615A691A6A62F0B6
:1037600080521A621A6A02F080521A621A6A5A6AFF
:1037700058625A6A59625A6A1A6C42F080521A6444
:103780001A6E42F080521A661A6E0B4A106840F4A4
:1037900080701060186F00F44070B0F5007F1EBF9D
:1037A0004FF4803018671967536823F4007353602F
:1037B00000F058B90038024000700040324B4FF022
:1037C00080521A64314A4FF4404111601A6842F045
:1037D00001021A601A689207FCD59A6822F0030267
:1037E0009A60294B19469A6812F00C02FBD11868AE
:1037F00000F0F90018609A601A6842F480321A608A
:103800000B689B03FCD54B6F43F001034B671E4BCA
:103810005A6F9007FCD51E4A5A601A6842F08072AF
:103820001A601A4A53685904FCD5174B1A6892015A
:10383000FCD5184A9A600322C3F88C20164B1A68EC
:10384000164B9A42164B1BD1164A1168164A9142E2
:1038500016D140F205121A600B4B9A6842F0020230
:103860009A609A6802F00C02082AFAD15A6C42F463
:1038700080425A645A6E42F480425A665B6E7047C8
:1038800040F20572E7E700BF0038024000700040D8
:103890001854400700948838002004E01164002088
:1038A000003C024000ED00E041C20F41084A08B56B
:1038B000536911680B4003F00103536123B1054ABA
:1038C00013680BB150689847BDE80840FEF728BF61
:1038D000003C0140E83C0020084A08B553691168E3
:1038E0000B4003F00203536123B1054A93680BB107
:1038F000D0689847BDE80840FEF712BF003C014081
:10390000E83C0020084A08B5536911680B4003F0F1
:103910000403536123B1054A13690BB150699847F9
:10392000BDE80840FEF7FCBE003C0140E83C00203A
:10393000084A08B5536911680B4003F00803536146
:1039400023B1054A93690BB1D0699847BDE8084097
:10395000FEF7E6BE003C0140E83C0020084A08B5FE
:10396000536911680B4003F01003536123B1054AFA
:10397000136A0BB1506A9847BDE80840FEF7D0BE05
:10398000003C0140E83C0020174B10B55C691A6808
:10399000144004F478725A61A30604D5134A936A5A
:1039A0000BB1D06A9847600604D5104A136B0BB16F
:1039B000506B9847210604D50C4A936B0BB1D06B22
:1039C0009847E20504D5094A136C0BB1506C98472F
:1039D000A30504D5054A936C0BB1D06C9847BDE89C
:1039E0001040FEF79DBE00BF003C0140E83C0020B7
:1039F0001A4B10B55C691A68144004F47C425A6191
:103A0000620504D5164A136D0BB1506D9847230516
:103A100004D5134A936D0BB1D06D9847E00404D5DB
:103A20000F4A136E0BB1506E9847A10404D50C4A8F
:103A3000936E0BB1D06E9847620404D5084A136F99
:103A40000BB1506F9847230404D5054A936F0BB10F
:103A5000D06F9847BDE81040FEF762BE003C0140C1
:103A6000E83C0020062108B50846FDF7C1FB062109
:103A70000720FDF7BDFB06210820FDF7B9FB062155
:103A80000920FDF7B5FB06210A20FDF7B1FB062151
:103A90001720FDF7ADFB06212820BDE80840FDF703
:103AA000A7BB000008B5FFF745FE00F00DF8FDF7D5
:103AB00045FDFDF731FFFDF705FEFFF7FDFDBDE814
:103AC0000840FFF7CBBC0000002304491A465A50B7
:103AD000C8180833802B4260F9D17047E83C0020B9
:103AE000034611F8012B03F8012B002AF9D1704786
:103AF000121012131211000053544D3332463F3F3F
:103B00003F000000012033000010410101105A0164
:103B1000031059010710310100000000F83A0008B5
:103B20003F00000013040000543B00083F00000069
:103B3000190400005E3B00083F0000002104000063
:103B4000683B00083F000000AC3200209C290020A8
:103B5000042E002053544D333246343078005354F1
:103B60004D3332463432780053544D333246343478
:103B700036585800009600000000000000000000C9
:103B80000000000000000000000000000515000813
:103B9000F11400082D150008191500082515000856
:103BA00011150008FD140008E91400083915000873
:103BB000000000003D1600082916000865160008E0
:103BC000511600085D160008491600083516000851
:103BD00021160008C11600080000000001000000C6
:103BE000000000000200000000000000691800084A
:103BF000D11800084000400044370020543700200E
:103C000002000000000000000300000000000000AF
:103C100015190008000000001000000064370020A3
:103C20000000000001000000000000005C3A0020DD
:103C30000101020025424F415244250025534552BF
:103C400049414C250044726F74656B503350726F5C
:103C50000030313233343536373839414243444508
:103C6000460000004172647550696C6F7400254213
:103C70004F415244252D424C0000000069230008AA
:103C8000D1210008D51700084D230008430000008B
:103C9000943C000809024300020100C032090400FC
:103CA00000010202010005240010010524010001A9
:103CB000042402020524060001070582030800FF10
:103CC00009040100020A000000070501024000008B
:103CD000070581024000000012000000E03C0008DF
:103CE000120110010200004083044057000201024B
:103CF000030100000403090400400000004000002C
:103D00000040000000400000000001000000020030
:103D1000000002000000020000000200000002009B
:103D2000000002000000020000400000004000000F
:103D30000040000000400000000001000000020000
:103D4000000002000000020000000200000002006B
:103D50000000020000000200000000006D1A0008D0
:103D60004D1D0008F91D000840004000D43A002015
:103D7000D43A002001000000E43A00208000000056
:103D800040010000050000006D61696E0000000048
:103D9000A83D0008F03A0020E83C002001000000A7
:103DA0008D3400080000000069646C6500000000AC
:103DB0000000802A00020000AAAAAAAA00000000AF
:103DC000FFFF00000000000000A00A000400400007
:103DD00000000000AAAAAAAA00000000FFFF00003D
:103DE00000000000000000000000000000000000D3
:103DF000AAAAAAAA00000000FFFF0000000000001D
:103E00000000000080298A0100000000AAAAAAAAD6
:103E100040154501FFFF000000707007777000003B
:103E20000000000000000000AAAAAAAA00000000EA
:103E3000FFFF000000000000000000000000000084
:103E400000000000AAAAAAAA00000000FFFF0000CC
:103E50000000000000000000000000000000000062
:103E6000AAAAAAAA00000000FFFF000000000000AC
:103E7000000000000000000000000000AAAA0000EE
:103E800000000000FF000000000000000000000033
:103E90000000000000000000AAAAAA000000000024
:103EA000FF0F000000000000000000000000000004
:103EB0000000000000000000000000000000000002
:103EC00000000000000000000000000000000000F2
:103ED00000000000000000000000000000000000E2
:103EE0000000000000000000FF0096000000000835
:103EF00004000000F43C0008000000000000000086
:103F000000000000000000000000000000000000B1
:103F1000FFFFFFFFFFFFFFFFFFFFFFFFFFFFFFFFB1
:103F2000FFFFFFFFFFFFFFFFFFFFFFFFFFFFFFFFA1
:103F3000FFFFFFFFFFFFFFFFFFFFFFFFFFFFFFFF91
:103F4000FFFFFFFFFFFFFFFFFFFFFFFFFFFFFFFF81
:103F5000FFFFFFFFFFFFFFFFFFFFFFFFFFFFFFFF71
:103F6000FFFFFFFFFFFFFFFFFFFFFFFFFFFFFFFF61
:103F7000FFFFFFFFFFFFFFFFFFFFFFFFFFFFFFFF51
:103F8000FFFFFFFFFFFFFFFFFFFFFFFFFFFFFFFF41
:103F9000FFFFFFFFFFFFFFFFFFFFFFFFFFFFFFFF31
:103FA000FFFFFFFFFFFFFFFFFFFFFFFFFFFFFFFF21
:103FB000FFFFFFFFFFFFFFFFFFFFFFFFFFFFFFFF11
:103FC000FFFFFFFFFFFFFFFFFFFFFFFFFFFFFFFF01
:103FD000FFFFFFFFFFFFFFFFFFFFFFFFFFFFFFFFF1
:103FE000FFFFFFFFFFFFFFFFFFFFFFFFFFFFFFFFE1
:103FF000FFFFFFFFFFFFFFFFFFFFFFFFFFFFFFFFD1
:104000000004002005550008F5840608F984060818
:1040100049850608F984060821850608A9A70B0822
:10402000A9A70B08A9A70B08A9A70B08B5B70B08E8
:10403000A9A70B08A9A70B08A9A70B08A9A70B08F4
:10404000A9A70B08B1470C0881480C08B5480C0813
:10405000A9A70B08A9A70B08DD450C080D460C08FD
:104060003D460C086D460C089D460C08F5CD0B0826
:1040700021CE0B0851CE0B0881CE0B08B1CE0B0818
:10408000DDCE0B080DCF0B08A5CC0B08AD1907082A
:10409000C1190708D9190708A9A70B08CD460C08AC
:1040A000A9A70B08A9A70B08A9A70B08A9A70B0884
:1040B000A9A70B08A9A70B08A9A70B0831D70B08BC
:1040C00049D70B0875D70B088DD70B08A9A70B0884
:1040D000A9A70B08D1F20B08E9F20B0801F30B08B2
:1040E00039470C08E5470C0819480C08A9A70B0824
:1040F000A9A70B08A9A70B08A9A70B083DCF0B0878
:10410000A9A70B0821E90B08D5EE0B08A9A70B08F6
:1041100019F30B08A9A70B08A9A70B08A9A70B0857
:104120006DCF0B0899CF0B08C9CF0B08F9CF0B083F
:1041300029D00B08A9A70B08A9A70B08F119070894
:10414000051A07081D1A0708A9A70B084DE30B0855
:1041500055D00B0885D00B08B5D00B0831F30B08F0
:10416000A9A70B08A9A70B08A9A70B08A9A70B08C3
:104170004D480C08A9A70B08A9A70B08A9A70B086D
:10418000A9A70B08A9A70B0849F30B0861F30B08B3
:10419000A9A70B08A9A70B08A9A70B08A9A70B0893
:1041A000A9A70B08A9A70B08A9A70B08A9A70B0883
:1041B000A9A70B08A9A70B08A9A70B08A9A70B0873
:1041C000A9A70B08A9A70B08A9A70B08A9A70B0863
:1041D000A9A70B08A9A70B08A9A70B08A9A70B0853
:1041E000498C0008B1B60008615D0108B973010887
:1041F000C90E020861170208B9190208CD1D02088C
:10420000F52002085D220208096402083D820208C6
:1042100075BB02085D500308E18D03080DAE03086D
:104220007DB00308E5930408199B0408F5A0040871
:10423000A9B404084530050889C60508898306081D
:1042400029890608F9D80608A1EA060885FB0608A8
:10425000B5FB0608351A0708ED1B0708753B07086C
:104260005D470708CD7507086D9A0A088DB40A08DE
:10427000F5BB0A0885D00A0861D30A08FDA60B0819
:10428000D0400B1CD1409C46203AD34018435242A8
:104290006346934018437047D0400B1C1141203AAD
:1042A00003D49C461341184363465242934018433B
:1042B000704700BF9140031C90409C46203A9340B9
:1042C000194352426346D3401943704781F000417D
:1042D00002E000BF83F0004330B54FEA41044FEAEB
:1042E000430594EA050F08BF90EA020F1FBF54EA86
:1042F000000C55EA020C7FEA645C7FEA655C00F022
:10430000E2804FEA5454D4EB5555B8BF6D420CDDF2
:104310002C4480EA020281EA030382EA000083EA75
:10432000010180EA020281EA0303362D88BF30BD15
:1043300011F0004F4FEA01314FF4801C4CEA11316B
:1043400002D0404261EB410113F0004F4FEA0333CA
:104350004CEA133302D0524263EB430394EA050F55
:1043600000F0A780A4F10104D5F1200E0DDB02FAC4
:104370000EFC22FA05F2801841F1000103FA0EF258
:10438000801843FA05F359410EE0A5F120050EF11E
:10439000200E012A03FA0EFC28BF4CF0020C43FA4F
:1043A00005F3C01851EBE37101F0004507D54FF05C
:1043B000000EDCF1000C7EEB00006EEB0101B1F5AC
:1043C000801F1BD3B1F5001F0CD349085FEA3000F2
:1043D0004FEA3C0C04F101044FEA445212F5800FFD
:1043E00080F09A80BCF1004F08BF5FEA500C50F19A
:1043F000000041EB045141EA050130BD5FEA4C0C7D
:10440000404141EB010111F4801FA4F10104E9D105
:1044100091F0000F04BF01460020B1FA81F308BFFC
:104420002033A3F10B03B3F120020CDA0C3208DDC8
:1044300002F1140CC2F10C0201FA0CF021FA02F1A3
:104440000CE002F11402D8BFC2F1200C01FA02F113
:1044500020FA0CFCDCBF41EA0C019040E41AA2BF38
:1044600001EB0451294330BD6FEA04041F3C1CDA00
:104470000C340EDC04F11404C4F1200220FA04F020
:1044800001FA02F340EA030021FA04F345EA0301CA
:1044900030BDC4F10C04C4F1200220FA02F001FA8C
:1044A00004F340EA0300294630BD21FA04F029460E
:1044B00030BD94F0000F83F4801306BF81F48011A7
:1044C0000134013D4EE77FEA645C18BF7FEA655C1A
:1044D00029D094EA050F08BF90EA020F05D054EAEC
:1044E000000C04BF1946104630BD91EA030F1EBFF1
:1044F0000021002030BD5FEA545C05D140004941F5
:1045000028BF41F0004130BD14F580043CBF01F5E7
:10451000801130BD01F0004545F0FE4141F47001CD
:104520004FF0000030BD7FEA645C1ABF19461046A8
:104530007FEA655C1CBF0B46024650EA013406BFA9
:1045400052EA033591EA030F41F4002130BD00BF68
:1045500090F0000F04BF0021704730B54FF4806425
:1045600004F132044FF000054FF0000150E700BFA6
:1045700090F0000F04BF0021704730B54FF4806405
:1045800004F1320410F0004548BF40424FF00001F2
:104590003EE700BF42004FEAE2014FEA31014FEA35
:1045A00002701FBF12F07F4393F07F4F81F0605184
:1045B000704792F0000F14BF93F07F4F704730B5F3
:1045C0004FF4607401F0004521F0004120E700BF86
:1045D00050EA010208BF704730B54FF000050AE00D
:1045E00050EA010208BF704730B511F0004502D50E
:1045F000404261EB41014FF4806404F132045FEA10
:10460000915C3FF4DCAE4FF003025FEADC0C18BFB4
:1046100003325FEADC0C18BF033202EBDC02C2F1AA
:10462000200300FA03FC20FA02F001FA03FE40EA3C
:104630000E0021FA02F11444C1E600BF70B54FF03C
:10464000FF0C4CF4E06C1CEA11541DBF1CEA13551E
:1046500094EA0C0F95EA0C0F00F0DEF82C4481EA86
:10466000030621EA4C5123EA4C5350EA013518BFA6
:1046700052EA033541F4801143F4801338D0A0FB93
:1046800002CE4FF00005E1FB02E506F00042E0FB40
:1046900003E54FF00006E1FB03569CF0000F18BF46
:1046A0004EF0010EA4F1FF04B6F5007F64F54074EE
:1046B00004D25FEA4E0E6D4146EB060642EAC62181
:1046C00041EA55514FEAC52040EA5E504FEACE2EEE
:1046D000B4F1FD0C88BFBCF5E06F1ED8BEF1004FF1
:1046E00008BF5FEA500E50F1000041EB045170BD6D
:1046F00006F0004646EA010140EA020081EA0301B1
:10470000B4EB5C04C2BFD4EB0C0541EA045170BDAC
:1047100041F480114FF0000E013C00F3AB8014F126
:10472000360FDEBF002001F0004170BDC4F100046F
:10473000203C35DA0C341BDC04F11404C4F12005F0
:1047400000FA05F320FA04F001FA05F240EA02004B
:1047500001F0004221F0004110EBD37021FA04F681
:1047600042EB06015EEA430E08BF20EAD37070BD3B
:10477000C4F10C04C4F1200500FA04F320FA05F09A
:1047800001FA04F240EA020001F0004110EBD3709C
:1047900041F100015EEA430E08BF20EAD37070BD0C
:1047A000C4F1200500FA05F24EEA020E20FA04F3E5
:1047B00001FA05F243EA020321FA04F001F0004194
:1047C00021FA04F220EA020000EBD3705EEA430E05
:1047D00008BF20EAD37070BD94F0000F0FD101F034
:1047E0000046400041EB010111F4801F08BF013C6D
:1047F000F7D041EA060195F0000F18BF704703F0AB
:104800000046520043EB030313F4801F08BF013D31
:10481000F7D043EA0603704794EA0C0F0CEA1355ED
:1048200018BF95EA0C0F0CD050EA410618BF52EAA7
:104830004306D1D181EA030101F000414FF00000AD
:1048400070BD50EA410606BF1046194652EA4306BB
:1048500019D094EA0C0F02D150EA013613D195EA2F
:104860000C0F05D152EA03361CBF104619460AD177
:1048700081EA030101F0004141F0FE4141F4700181
:104880004FF0000070BD41F0FE4141F4780170BD71
:1048900070B54FF0FF0C4CF4E06C1CEA11541DBFD6
:1048A0001CEA135594EA0C0F95EA0C0F00F0A7F8D8
:1048B000A4EB050481EA030E52EA03354FEA013105
:1048C00000F088804FEA03334FF0805545EA131318
:1048D00043EA12634FEA022245EA111545EA1065E0
:1048E0004FEA00260EF000419D4208BF964244F177
:1048F000FD0404F5407402D25B084FEA3202B61A96
:1049000065EB03055B084FEA32024FF480104FF469
:10491000002CB6EB020E75EB030E22BFB61A7546DD
:1049200040EA0C005B084FEA3202B6EB020E75EB70
:10493000030E22BFB61A754640EA5C005B084FEAD8
:104940003202B6EB020E75EB030E22BFB61A7546A5
:1049500040EA9C005B084FEA3202B6EB020E75EBB0
:10496000030E22BFB61A754640EADC0055EA060E71
:1049700018D04FEA051545EA16754FEA06164FEAB4
:10498000C30343EA52734FEAC2025FEA1C1CC0D160
:1049900011F4801F0BD141EA00014FF000004FF0ED
:1049A000004CB6E711F4801F04BF01430020B4F1AE
:1049B000FD0C88BFBCF5E06F3FF6AFAEB5EB030C66
:1049C00004BFB6EB020C5FEA500C50F1000041EB63
:1049D000045170BD0EF0004E4EEA113114EB5C0430
:1049E000C2BFD4EB0C0541EA045170BD41F4801103
:1049F0004FF0000E013C90E645EA060E8DE60CEA0B
:104A0000135594EA0C0F08BF95EA0C0F3FF43BAF27
:104A100094EA0C0F0AD150EA01347FF434AF95EADE
:104A20000C0F7FF425AF104619462CE795EA0C0FC2
:104A300006D152EA03353FF4FDAE1046194622E78F
:104A400050EA410618BF52EA43067FF4C5AE50EA69
:104A500041047FF40DAF52EA43057FF4EBAE12E759
:104A60004FF0FF3C06E000BF4FF0010C02E000BF3A
:104A70004FF0010C4DF804CD4FEA410C7FEA6C5C1D
:104A80004FEA430C18BF7FEA6C5C1BD001B050EAC0
:104A9000410C0CBF52EA430C91EA030F02BF90EAAB
:104AA000020F0020704710F1000F91EA030F58BF6A
:104AB000994208BF90422CBFD8176FEAE37040F0CC
:104AC000010070474FEA410C7FEA6C5C02D150EA6A
:104AD000013C07D14FEA430C7FEA6C5CD6D152EA25
:104AE000033CD3D05DF8040B704700BF84461046EA
:104AF00062468C461946634600E000BF01B5FFF7E9
:104B0000B7FF002848BF10F1000F01BD4DF808EDB8
:104B1000FFF7F4FF0CBF012000205DF808FB00BF89
:104B20004DF808EDFFF7EAFF34BF012000205DF8E3
:104B300008FB00BF4DF808EDFFF7E0FF94BF012030
:104B400000205DF808FB00BF4DF808EDFFF7CEFF31
:104B500094BF012000205DF808FB00BF4DF808ED70
:104B6000FFF7C4FF34BF012000205DF808FB00BF41
:104B70004FEA410212F5001215D211D56FF4787385
:104B8000B3EB625212D94FEAC12343F0004343EA28
:104B9000505311F0004F23FA02F018BF4042704703
:104BA0004FF00000704750EA013005D111F000408D
:104BB00008BF6FF0004070474FF00000704700BF23
:104BC0004A0011D212F5001211D20DD56FF478738C
:104BD000B3EB62520ED44FEAC12343F0004343EAE1
:104BE000505323FA02F070474FF00000704750EA2C
:104BF000013002D14FF0FF3070474FF00000704796
:104C00004FEA4102B2F1E04324BFB3F5001CDCF1EE
:104C1000FE5C0DD901F0004C4FEAC0024CEA507026
:104C2000B2F1004F40EB830008BF20F00100704755
:104C300011F0804F21D113F13872BCBF01F0004058
:104C4000704741F480114FEA5252C2F11802C2F18A
:104C5000200C10FA0CF320FA02F018BF40F001000B
:104C60004FEAC1234FEAD32303FA0CFC40EA0C00BD
:104C700023FA02F34FEA4303CCE77FEA625307D1FA
:104C800050EA01331EBF4FF0FE4040F44000704731
:104C900001F0004040F0FE4040F40000704700BFCB
:104CA00080F0004002E000BF81F0004142001FBFE1
:104CB0005FEA410392EA030F7FEA226C7FEA236CEA
:104CC0006AD04FEA1262D2EB1363C1BFD2184140DF
:104CD00048404140B8BF5B42192B88BF704710F075
:104CE000004F40F4000020F07F4018BF404211F018
:104CF000004F41F4000121F07F4118BF494292EA80
:104D0000030F3FD0A2F1010241FA03FC10EB0C00AB
:104D1000C3F1200301FA03F100F0004302D5494238
:104D200060EB4000B0F5000F13D3B0F1807F06D3E5
:104D300040084FEA310102F10102FE2A51D2B1F1DD
:104D4000004F40EBC25008BF20F0010040EA0300D2
:104D50007047490040EB000010F4000FA2F101027F
:104D6000EDD1B0FA80FCACF1080CB2EB0C0200FA09
:104D70000CF0AABF00EBC25052421843BCBFD04057
:104D80001843704792F0000F81F4000106BF80F4D1
:104D900000000132013BB5E74FEA41037FEA226C94
:104DA00018BF7FEA236C21D092EA030F04D092F05F
:104DB000000F08BF0846704790EA010F1CBF002093
:104DC000704712F07F4F04D1400028BF40F00040F0
:104DD000704712F100723CBF00F50000704700F010
:104DE000004343F0FE4040F4000070477FEA226237
:104DF00016BF08467FEA23630146420206BF5FEA08
:104E0000412390EA010F40F4800070474FF0000307
:104E100004E000BF10F0004348BF40425FEA000CCE
:104E200008BF704743F0964301464FF000001CE076
:104E300050EA010208BF70474FF000030AE000BFCC
:104E400050EA010208BF704711F0004302D540420A
:104E500061EB41015FEA010C02BF8446014600207C
:104E600043F0B64308BFA3F18053A3F50003BCFA97
:104E70008CF2083AA3EBC25310DB01FA02FC634444
:104E800000FA02FCC2F12002BCF1004F20FA02F24B
:104E900043EB020008BF20F00100704702F120023E
:104EA00001FA02FCC2F1200250EA4C0021FA02F29F
:104EB00043EB020008BF20EADC7070477BB972B98F
:104EC0000029BEBF00204FF0004106E008BF0028C7
:104ED0001CBF6FF000414FF0FF3000F08DB882B082
:104EE000EC462DE9005000F057F8DDF804E002B080
:104EF0000CBC704753B94AB9002908BF00281CBF31
:104F00004FF0FF314FF0FF3000F076B882B0EC4642
:104F10002DE9005000F058F8DDF804E002B00CBCB8
:104F2000704700BF430803F05533C31A980800F0D8
:104F3000333003F03333184400EB101000F00F301F
:104F400000EB002000EB0040000E7047D0B5FFF7EB
:104F500021FB00220E4B06460F46FFF76FFBFFF7C3
:104F60002FFE0446FFF7F4FA00220A4BFFF766FB18
:104F700002460B4630463946FFF7ACF9FFF720FEF4
:104F80002346002242EA000210461946D0BD00BF67
:104F90000000F03D0000F0412DE9F041069C15466F
:104FA00006460F46984600F029F805FB01F300FB82
:104FB0000838A5FB0023B21A434467EB0303C4E996
:104FC0000023BDE8F08100BF2DE9F041069C90462A
:104FD00006460F461D4600F05FF900FB05F5A0FBF5
:104FE000082308FB0155B21A2B4467EB0303C4E9FD
:104FF0000023BDE8F08100BF704700BF00292DE904
:10500000F043C0F2A6800026002BC0F29C808846A8
:1050100094469E46154604460F46002B3DD18A42D3
:1050200059D9B2FA82F33BB1C3F120029F4020FA72
:1050300002F29D4017439C40290C220CB7FBF1FE65
:10504000A8B201FB1E7742EA074700FB0EF3BB4202
:105050000AD97F190EF1FF3280F00581BB4240F280
:105060000281AEF1020E2F44FF1AA4B2B7FBF1F396
:1050700001FB137744EA074700FB03F0B84208D965
:105080007F1903F1FF3280F0F080B84240F2ED80EA
:10509000023B43EA0E43002203E08B420FD9002279
:1050A0001346341C18BF012460424FF0000565EB25
:1050B00045015840514000196941BDE8F083B3FAF9
:1050C00083F2002A40F086808B4202D3844500F2AE
:1050D000DB800123E5E712B90123B3FBF2F5B5FA52
:1050E00085F000283BD1781B4FEA154E1FFA85FC4E
:1050F0000122B0FBFEF8210C0EFB180741EA07471E
:105100000CFB08F3BB4207D97F1908F1FF3102D22B
:10511000BB4200F2BD808846FF1AA4B2B7FBFEF383
:105120000EFB137744EA07470CFB03FCBC4507D989
:105130007F1903F1FF3102D2BC4500F2A7800B4674
:1051400043EA0843ADE752426FEA060663EB4303C6
:105150005DE7404261EB41014FF0FF3654E7C0F19B
:10516000200224FA02F107FA00F385404FEA154EB7
:10517000D7401943B7FBFEF20B0C0EFB12771FFA58
:1051800085FC43EA07430CFB02F79F4204FA00F454
:1051900007D95B1902F1FF3074D29F4272D9023AEB
:1051A0002B44DF1B89B2B7FBFEF80EFB187341EAF4
:1051B00003430CFB08F79F4208D95B1908F1FF3144
:1051C0005CD29F425AD9A8F102082B44D81B48EA66
:1051D00002428EE7C2F120032CFA03F10EFA02FE1E
:1051E00020FA03F741EA0E0E08FA02F028FA03F15A
:1051F0004FEA1E453843B1FBF5F8030C05FB1811C7
:105200001FFA8EF743EA014107FB08F38B420CFAC1
:1052100002FC09D911EB0E0108F1FF3930D28B42A3
:105220002ED9A8F102087144C91A80B2B1FBF5F376
:1052300005FB131140EA014107FB03F78F4208D930
:1052400011EB0E0103F1FF3016D28F4214D9023B4D
:10525000714443EA0843C91BA3FB0C89494509D3A0
:1052600005D000221DE79646FEE6134611E794405E
:105270004445F6D2013BF4E70346EAE78846A5E752
:10528000C846D1E702468CE713460AE7023B57E7D8
:10529000A8F102082F443FE72DE9F041002B44D14B
:1052A0008A42154604464FD9B2FA82F70E464FB1EC
:1052B000C7F12003B94020FA03F602FA07F50E43BE
:1052C00000FA07F44FEA154E230CB6FBFEF0AFB21E
:1052D0000EFB106143EA014307FB00F1994209D933
:1052E0005B1900F1FF3280F0EC80994240F2E980D6
:1052F00002382B445A1AA4B2B2FBFEF30EFB13225F
:1053000044EA024207FB03F7974208D9521903F116
:10531000FF3180F0D880974240F2D580023B43EACB
:10532000004000263146BDE8F0818B4247D8B3FAF1
:1053300083F6002E48D18B4202D3824200F2CD8008
:1053400001203146BDE8F08112B90125B5FBF2F527
:10535000B5FA85F8B8F1000F77D14A1B4FEA154E20
:10536000AFB20126B2FBFEF0230C0EFB102143EA84
:10537000014107FB00F38B4207D9491900F1FF32C5
:1053800002D28B4200F2BA801046C91AA4B2B1FB15
:10539000FEF30EFB131144EA014407FB03F7A74297
:1053A00008D9641903F1FF3280F08F80A74240F2E0
:1053B0008C80023B43EA00403146BDE8F081002684
:1053C00030463146BDE8F081C6F1200422FA04F5EA
:1053D000B3402B4320FA04FC01FA06F721FA04F546
:1053E0004FEA134E4CEA0707B5FBFEF8390C0EFBEB
:1053F00018551FFA83FC41EA05450CFB08F1A94248
:1054000002FA06F204D9ED1808F1FF3467D3A0467A
:105410006D1ABFB2B5FBFEF40EFB145547EA054109
:105420000CFB04FC8C4504D9C91804F1FF355CD38E
:105430002C4644EA0844CCEB0101A4FB0223994228
:1054400048D344D0204600266CE7C8F1200401FA76
:1054500008F305FA08F520FA04F7E1404FEA154E83
:105460001F43B1FBFEF63A0C0EFB16111FFA85FC2A
:1054700042EA01430CFB06F29A4200FA08F407D90B
:105480005B1906F1FF3137D29A4235D9023E2B44DF
:105490009B1ABFB2B3FBFEF00EFB103347EA034387
:1054A0000CFB00F1994207D95B1900F1FF3221D2C0
:1054B00099421FD902382B445A1A40EA06466746D9
:1054C00050E7104616E70B4629E7134672E7B0404F
:1054D0009042B7D2601E002624E7304622E7A94258
:1054E00095D9A8F102081D4492E78C45A0D9023C49
:1054F00019449EE71046DFE70E46C9E70238294403
:1055000043E700BF72B6374880F3098836484EF645
:105510000851CEF20001086040F20000CCF2000019
:105520004EF63471CEF200010860BFF34F8FBFF327
:105530006F8F40F20000C0F2F0004EF68851CEF2BC
:1055400000010860BFF34F8FBFF36F8F4FF0000073
:10555000E1EE100A4EF63C71CEF200010860062022
:1055600080F31488BFF36F8FB5F000F9BDF00EF82B
:105570001E481F491F4A91423CBF41F8040BFAE7FD
:105580001D49184A91423CBF41F8040BFAE71B49F8
:105590001B4A1C4B9A423EBF51F8040B42F8040BC5
:1055A000F8E700201849194A91423CBF41F8040B22
:1055B000FAE7B5F0DFF8BCF0EBFF154C154DAC4247
:1055C00003DA54F8041B8847F9E702F011FC124C87
:1055D000124DAC4203DA54F8041B8847F9E7B5F0E2
:1055E000C7B8000000080020004000085555555578
:1055F00000000020000400200004002028120F08F2
:10560000000800202C14002030140020F83E012057
:10561000E041000880420008804200088042000803
:105620002DE9F04F2DED108AC1F80CD0C3689D46CE
:10563000BDEC108ABDE8F08FB5F062FD002383F366
:1056400011882846A0470020B5F03EFCB5F052FD79
:10565000B5F05EFBB5F054FD00DFFEE703685A00CD
:105660004CBF43F0004323F000431844704700BF91
:105670002DE9F04F83B099B34B1E174605460193B1
:105680009846002606EB080404EBD47464104FEA35
:10569000C40A05EB0A0B5846FFF7E0FF019B814661
:1056A000A3420AF1080028440ED0FFF7D7FFB945FE
:1056B00000F1FF3004D9B4420CD004F1FF38E1E727
:1056C000B84203D2661CDDE7B945F4D8584603B0AA
:1056D000BDE8F08F4FF0000B584603B0BDE8F08FE7
:1056E0008B46584603B0BDE8F08F00BF012807D0B5
:1056F000022807D0044B00280CBF18460020704732
:105700000248704702487047F95D0008FD5D0008D7
:10571000015E000830B5244B83B004468D1E7BB378
:10572000284601A9AFF3008020B301992A46FFF76C
:105730009FFF0546F0B1FFF791FF6B68A064012B56
:1057400012D0002B05F1040020DBFFF787FF0023B8
:10575000E06423650368002B1CDBFFF77FFF002359
:105760002061184603B030BD00232361052318468D
:1057700003B030BD002323610923184603B030BDB8
:105780000A490B48091AC9100191CFE70123E064C7
:105790002365DFE7C3F30360FFF7A8FF002820615C
:1057A0000CBF09230023DCE70000000024120F08CF
:1057B0005C110F080368DA0710B5044606D49B078E
:1057C00000F1480009D500F085FC2368590709D588
:1057D0001A070ED5DB0613D510BD00F073FC236845
:1057E0005907F5D404F1D00000F07CFC23681A07B7
:1057F000F0D404F5A87000F07DFC2368DB06EBD440
:1058000004F5E870BDE8104000F0B8BC03680BB1C7
:10581000184470471846704709207047704700BF0A
:1058200070B504460D4608E02B6C636101202369C6
:1058300021462A469847082808D12046296CFFF7B8
:1058400069FF06460028EFD0C2F0F2FA0728FBD124
:105850003046296CFFF7E2FF281D00F027FC00BF4F
:105860002DE9F0470C1D064617460FCCADF5727DAD
:1058700003AD0FC50FCC0FC50FCC0FC594E80F00BB
:1058800002AC4FF0000ED6F80C80D6F8189085E8E0
:105890000F003046216CC4F800E0FFF73BFF002FFB
:1058A00005460CBF09270A277DB1A36B47F01001FD
:1058B0008DE810020120636432463346C04778BB4E
:1058C00028460DF5727DBDE8F087236C7361214693
:1058D0004FF4F0727AA800F07DFE336931467AAA5F
:1058E00038469847889B82468DE8100239466364A3
:1058F000012032463346C04790B920467AA94FF47A
:10590000F07200F067FEBAF1080F06D13046216C44
:10591000FFF700FF09270546C6E7BAF1070F04D0D5
:1059200009200DF5727DBDE8F0872846216CFFF750
:1059300075FF03A800F0BAFB406C7047F0B5CB6B65
:105940000B640E1D0F4604460FCEF9B001AD0FC516
:105950000FCE0FC50FCE0FC596E80F004FF0FF36E4
:1059600085E80F00009606E0236921466A469847BD
:105970000828054608D120461099FFF7CBFE0028DD
:10598000F2D0092079B0F0BD6846FFF713FF062D6D
:10599000F7D120463946FFF743FF00BF30B4DD6B37
:1059A000C160826119461D64002230BC58E700BF07
:1059B00070B5C66843690B6404460D4626B10122E2
:1059C000FFF74EFFC2F034FA0369214602202A464F
:1059D0009847072807D0082803D120462946FFF713
:1059E0001FFFC2F025FA3046296CFFF717FF281D6C
:1059F00000F05CFBC2681AB1CA6B0A6400222FE790
:105A00009CE700BF704700BF836813B101460120C7
:105A10001847704700B5042907D8DFE801F00309EB
:105A2000060909000BB90F2A05D902205DF804FB0D
:105A300001205DF804FB00EB820218465368019ACE
:105A400013605DF804FB00BF00B585B00A4603ABE8
:105A5000002100930B46FFF7DDFF039805B05DF8CA
:105A600004FB00BF00B5042907D8DFE801F00309F3
:105A7000060909000BB90F2A05D902205DF804FBBD
:105A800001205DF804FB019900EB82020968516076
:105A900018465DF804FB00BF10B584B004AB0C469B
:105AA00043F8042D0021009322460B46FFF7DAFF4E
:105AB00004B010BDF0B5D36B1364151D07460E4638
:105AC0000FCDADF50F7D17AC0FC40FCD0FC40FCDAB
:105AD0000FC495E80F004FF0FF3584E80F001695CE
