:100000000C943B110C946C110C946C110C946C11AD
:100010000C946C110C946C110C946C110C94267053
:100020000C946C110C946C110C946C110C946C115C
:100030000C946C110C946C110C946C110C9420D4D5
:100040000C946C110C946C110C946C110C946C113C
:100050000C946C110C946C110C946C110C946C112C
:100060000C946C110C94D6700C9405710C946C115A
:100070000C946C110C946C110C946C110C946C110C
:100080000C946C110C946C110C946C110C946C11FC
:100090000C9440710C946F710C946C110C94EA7474
:1000A0000C946C110C944DD40C946C110C946C1138
:1000B0000C946C110C946C110C947AD40C946C11FB
:1000C0000C946C110C946C110C94057B0C94AA711B
:1000D0000C94D9710C946C110C946C110C946C11DF
:1000E0000C946C111F1F271F2F1FDE1FDE1F371FD1
:1000F000DE1FDE1F621F511F6A1F7E1F901F3F1FE2
:10010000DE1FDE1FB51FA61FBC1FDE1FDE1FC31FA5
:10011000D41FD81FD75BDD5BE45BEB5BF95B0F5C47
:10012000175CF25CEB5C015D0E5D265D3F5D4B5D37
:100130000162FC6108620C621762326256625F62A1
:100140008A628562936298629C62AC62B662E7667C
:10015000E066F066FB660B672067406763676E6763
:100160002B68246833683D68516867687E689C68BE
:10017000A868B477B477B977B977B977BE77BE771F
:10018000BE77D177C377C377DE77E277E877EC770E
:10019000F077F677FA77FE770D7804780878187894
:1001A0001C78227826782A7830783478387847781E
:1001B0003E784278617866786B78707875787A786E
:1001C0007F788478927889788E78C178C678CB7871
:1001D000D078D578DA78DF78E478F378E978EE7853
:1001E00025A538A53DA566A574A593A59CA5BFA585
:1001F000C4A5E3A5F0A503A60DA630A646A673A642
:1002000080A69FA6B0A6CFA6E0A60EA724A754A7B7
:1002100059A75EA771A786A793A7A2A7B8A7D6A735
:10022000F3A70DA81BA834A84EA8DFADDFADE8AD3D
:10023000DFADDFADE8ADE8AD10AFC2AE10AFC2AE1E
:1002400010AFC2AE10AF81AF81AF81AF81AF81AFD0
:1002500081AF81AF81AF81AF12AF10AFC2AE10AF2F
:10026000C2AE10AFC2AE10AFC2AE10AF12AF10AF81
:1002700081AF81AFC2AE10AF81AFC2AE10AFC2AE20
:1002800010AF12AF76B07BB076B07BB076B07BB0FB
:1002900076B07BB076B07BB08EB08EB08EB090B0C2
:1002A00090B08EB08EB08EB090B090B0AEB0AEB018
:1002B000AEB0B0B0B0B0AEB0AEB0AEB0B0B0B0B046
:1002C000CDB0CFB0CDB0CFB0CDB0CFB0CDB0CFB03E
:1002D000CDB0D1B0ACBEC3BEC7BECBBECFBEF3BEE9
:1002E000D3BEF3BEF3BEF3BED7BEDBBEDFBE20C7B8
:1002F00020C730C750C747C758C760C773C78EC726
:10030000CBC7036EDB363D9A9999993DABAAAA2AD1
:100310003E000000803F084AD73B3BCE016E84BCC4
:10032000BFFDC12F3D6C74319ABD56833DDA3D004F
:10033000C77F11BED9E4BB4C3E916BAAAABE000098
:1003400000803F072C7AA5BA6CC590DA3B9365FC18
:100350008BBC53F810FD3C5692834DBD879D3AB639
:100360003DCBC9BF5BBE73DA0FC93F05A84CCDB208
:10037000D44EB93836A9020C50B9918688083CA6EB
:10038000AAAA2ABE000000803F08000000BE9224F6
:1003900049123EABAAAA2ABECDCCCC4C3E000000EE
:1003A00080BEABAAAAAA3E00000000BF00000080E9
:1003B0003F0000000000084178D3BB4387D1133DC4
:1003C000190E3CC3BD4282AD2B3E68EC8276BED98D
:1003D0008FE1A93E4C80EFFFBE01C4FF7F3F0000CC
:1003E000000000426567696E6E696E6720494E5372
:1003F0002063616C6962726174696F6E3B20646F27
:10040000206E6F74206D6F766520747261636B650A
:1004100072006E657720484F4D45207265636569AF
:1004200076656400636F6D6D616E642072656365EF
:10043000697665643A20006261726F6D65746572F9
:100440002063616C6962726174696F6E20636F6DA5
:10045000706C6574650043616C6962726174696E89
:1004600067206261726F6D65746572006C6F6164A4
:100470005F616C6C20746F6F6B20256C7575730AEF
:1004800000646F6E652E004669726D77617265203B
:100490006368616E67653A2065726173696E672093
:1004A000454550524F4D2E2E2E0A00496E697469F3
:1004B000616C6973696E672041504D2E2E2E000AC3
:1004C000526561647920746F20747261636B2E00D1
:1004D000436F6D7061737320696E697469616C69D3
:1004E000736174696F6E206661696C656421000ACE
:1004F0000A496E697420416E74656E6E6154726152
:10050000636B65722056302E320A0A46726565208A
:1005100052414D3A2025750A00534C45573A202543
:10052000642F2564206572723D256C6420736572AA
:10053000766F3D256C6420657A3D252E336600CEAE
:10054000110100E80355130100C800C3290100E8A8
:100550000341170500A00FD5160500DC05CA1105DB
:1005600000DC051B140100A406F2200100B80BC139
:10057000110100DC056F1101008403BD110100644D
:1005800000E21305002C01BA110100E803E717325D
:10059000003C0F02464F524D41545F56455253495D
:1005A0004F4E00000000330C00000000015359536F
:1005B00049445F53575F54595045000000000135CE
:1005C0000C000080400253595349445F544849533A
:1005D0004D41560000000066360C000000400253FA
:1005E000595349445F4D59474353000000000000F0
:1005F00067380C00007F430153455249414C305F3E
:10060000424155440000000000683A0C0000E642F8
:100610000153455249414C315F424155440000006D
:100620000000693B0C00006442014D41475F454EAC
:1006300041424C45000000000000006B3C0C0000F3
:10064000803F045941575F534C45575F54494D45CE
:1006500000000000763D0C00000040045049544367
:10066000485F534C45575F54494D45000077410C56
:1006700000000040045343414E5F53504545440041
:100680000000000000007E490C0000A040044D491D
:100690004E5F524556455253455F54494D4500788B
:1006A000450C0000803F0453544152545F4C415468
:1006B0004954554445000000794D0C0000000004E9
:1006C00053544152545F4C4F4E4749545544450092
:1006D000007A510C0000000004535441525455500C
:1006E0005F44454C4159000000007B550C00000060
:1006F000000150524F58595F4D4F444500000000D3
:100700000000007F590C0000000001534552564F75
:100710005F5459504500000000000000805A0C0052
:10072000000000044F4E4F46465F5941575F52410B
:100730005445000000815B0C00001041044F4E4FF7
:1007400046465F50495443485F5241544500825FDA
:100750000C0000803F044F4E4F46465F5941575FA3
:100760004D494E5400000083630CCDCCCC3D044F6A
:100770004E4F46465F50495443485F4D494E5400E2
:1007800084670CCDCCCC3D045941575F5452494D40
:10079000000000000000000000856B0C000000005D
:1007A0000450495443485F5452494D000000000032
:1007B0000000866F0C00000000025941575F524153
:1007C0004E4745000000000000000087730C000049
:1007D000B4430250495443485F52414E47450000DC
:1007E0000000000088750C0000344308474E445F49
:1007F000000000000000000000000000006E0C0B74
:100800004C0C000008434F4D504153535F00000013
:100810000000000000006C240A4D0E000008534345
:100820004845445F00000000000000000000006F29
:100830001E0C671E0000085352305F0000000000CD
:1008400000000000000000006414066209000008B7
:100850005352315F00000000000000000000000063
:100860000065ED066209000008494E535F00000074
:100870000000000000000000000070C609751C00A8
:100880000008414852535F000000000000000000D3
:100890000000006D00085C0A0000084252445F003E
:1008A0000000000000000000000000007C3A051479
:1008B0000E0000084750535F0000000000000000D9
:1008C00000000000007D990BAF1700000852433173
:1008D0005F00000000000000000000000000C8E30E
:1008E0000716200000085243325F0000000000009D
:1008F00000000000000000C9C607162000000850D4
:1009000049544348325352565F0000000000000033
:1009100072780C991F000008594157325352565FA4
:1009200000000000000000000073960C991F0000FA
:1009300001434D445F544F54414C000000000000FF
:100940000000DC770C000000000000000000000048
:100950000000000000000000000000000000000097
:10096000000002005241575F53454E530000000003
:10097000000000000066000000803F02014558545E
:100980005F53544154000000000000000000680064
:100990000000803F020252435F4348414E00000086
:1009A000000000000000006A000000803F020352C7
:1009B00041575F4354524C0000000000000000000B
:1009C0006C000000803F0204504F534954494F4E81
:1009D0000000000000000000006E000000803F02E8
:1009E000054558545241310000000000000000004D
:1009F000000070000000803F02064558545241320A
:100A000000000000000000000000007200000080F4
:100A10003F020745585452413300000000000000D7
:100A20000000000074000000803F02085041524165
:100A30004D530000000000000000000000760000A0
:100A400000204100FF000000000000000000000046
:100A500000000000000000000000000004024750F9
:100A6000535F4741494E0000000000000000002293
:100A7000000000803F01034750535F55534500007D
:100A800000000000000000002C000000803F040473
:100A90005941575F500000000000000000000000B6
:100AA000001A00CDCC4C3E040552505F50000000AF
:100AB000000000000000000000001E00CDCC4C3EF5
:100AC000010657494E445F4D4158000000000000A8
:100AD0000000002D000000000005085452494D00A0
:100AE00000000000000000000000000041000000C5
:100AF000000001094F5249454E544154494F4E00A0
:100B000000000000002E0000000000040A434F4DCA
:100B1000505F4245544100000000000000002800E2
:100B2000CDCCCC3D010B4750535F4D494E53415402
:100B3000530000000000002F000000C04000FF0034
:100B400000000000000000000000000000000000A5
:100B500000000000000050414E49433A2041505FE0
:100B60004261726F3A3A7265616420756E737563A3
:100B70006365737366756C20666F72206D6F726546
:100B8000207468616E203530306D7320696E2041AD
:100B9000505F4261726F3A3A63616C69627261746C
:100BA00065205B335D0D0A0050414E49433A2041B8
:100BB000505F4261726F3A3A7265616420756E737C
:100BC00075636365737366756C20666F72206D6FF5
:100BD0007265207468616E203530306D7320696EE7
:100BE0002041505F4261726F3A3A63616C69627290
:100BF000617465205B325D0D0A0050414E49433AF5
:100C00002041505F4261726F3A3A726561642075AB
:100C10006E7375636365737366756C20666F72209F
:100C20006D6F7265207468616E203530306D732091
:100C3000696E2041505F4261726F3A3A63616C693C
:100C40006272617465205B315D0D0A0004024142ED
:100C5000535F505245535300000000000000000C49
:100C60000000000000040354454D50000000000047
:100C70000000000000000000080000000000010467
:100C8000414C545F4F46465345540000000000005D
:100C90000010000000000000FF0000000000000045
:100CA0000000000000000000000000000000000044
:100CB00050414E49433A2041505F4261726F5F4D4F
:100CC000533536313120746F6F6B206D6F72652034
:100CD0007468616E20313030306D7320746F20691C
:100CE0006E697469616C697A650050414E49433A96
:100CF0002041505F4261726F5F4D53353631313A5A
:100D0000206661696C656420746F2074616B652076
:100D100073657269616C2073656D6170686F72656F
:100D200020666F7220696E69740050414E49433AE3
:100D30002041505F4261726F5F4D53353631313A19
:100D4000204E554C4C2073657269616C2064726949
:100D50007665720050414E49433A206661696C6580
:100D60006420746F2074616B65205F7370695F73BA
:100D7000656D203130302074696D657320696E2097
:100D80006120726F772C20696E2041505F42617242
:100D90006F5F4D53353631313A3A5F757064617427
:100DA000650050414E49433A2041505F4261726FA5
:100DB0005F4D533536313120646964206E6F742085
:100DC0006765742076616C696420535049207365AF
:100DD0006D617068726F65210050414E49433A2041
:100DE00041505F4261726F5F4D533536313120643F
:100DF0006964206E6F74206765742076616C696425
:100E00002053504920646576696365206472697671
:100E10006572210000FF00000000000000000000DB
:100E200000000000000000000000000000466169B2
:100E30006C656420746F2067657420484D433538B5
:100E400034332073656D6170686F72650005014F02
:100E500046530000000000000000000000000000F9
:100E60001700000000000402444543000000000099
:100E7000000000000000000000230000000000014E
:100E8000034C4541524E00000000000000000000ED
:100E9000000008000000803F010455534500000099
:100EA000000000000000000000000027000000809B
:100EB0003F01054155544F444543000000000000E8
:100EC0000000000028000000803F01064D4F544301
:100ED00054000000000000000000000000A400001A
:100EE00000000005074D4F54000000000000000006
:100EF000000000000000A5000000000001084F52A3
:100F000049454E540000000000000000000000169B
:100F10000000000000010945585445524E414C0064
:100F2000000000000000000029000000000000FF99
:100F300000000000000000000000000000000000B1
:100F40000000000000000080114011407132733435
:100F500033321312113211129334131453523100DD
:100F600021030406080B2D0A090705040241C011DC
:100F7000C0511253547312111251527314733231FF
:100F800000210204050607080908060706240302D3
:100F90000102000120012011C0011100313213743F
:100FA00013143312F112D312510001022325060744
:100FB00046442342210001E0A0313213B433111220
:100FC000110011201100523312133211200122247A
:100FD00085042304020342410001E0A051121413CE
:100FE00015131534133251400120115213323100C0
:100FF000012223040504050423010382612001E08A
:101000001180113213541514333231402102010082
:101010003172314102234423020122012201026183
:101020004001A011805112141334151433123140B1
:101030000102010302012052111220212243042245
:1010400041022102A10001E02011405153741332EA
:10105000114021020302030201001112113200119A
:101060004122232221004102A18001601160110070
:101070001132337413121140016203020321311241
:101080001112114001020102030201000100E121DD
:10109000E0A0112012117334333120016203624049
:1010A00012111211001101000102012200012001A0
:1010B00000E1C00100118011001211131214133449
:1010C000522001E202212031121100110001002101
:1010D0000201000140210002410001E060114011C5
:1010E000121113121413141332110021220342019E
:1010F00002210001001100121100112001004160C5
:101100000100C10001401120016011405112131271
:101110001314331231000142032201022100014065
:101120001100310011000100010001A0E10001A047
:101130000180112031529312110021C2210021405F
:10114000310011201100010001E0E16001E0110017
:101150001172731231002142030102010220214069
:1011600011001120116001401160010001022102F3
:10117000000120014001A05132131253321120010D
:10118000020182210021000100110031E000110064
:101190001160210001020102010100212001000172
:1011A00060110011521312141352110041820102F6
:1011B00000010021401100110011A01100310011A7
:1011C0002081220101000201002100016011005272
:1011D00013121314133231010002012201420100E3
:1011E0002100010001112011001120114071001196
:1011F000400102210201020100210221000100013F
:1012000000110012111233123413321120010201A5
:101210004201220100410001601120110011001162
:1012200000511231206102012202000201028120DC
:1012300011001211733413321100410201820100B6
:101240006100018011001100913231402142010200
:101250000200626140115214135433310041820183
:10126000220001020041000160911211525120013F
:10127000220103010202008261005133541514332C
:1012800031002102012203424102A1803192133236
:101290003100412203020103002203220102014026
:1012A000111233953331010022010342032221221E
:1012B0000102610001110011521312531231004159
:1012C000220322030023020302010221203213140D
:1012D00016151716153311200162030203020322AB
:1012E00001A24140111253141314133211010002D0
:1012F0000102030203020200022302032221203220
:101300001416371817151312110021220302430275
:101310004301030203822120111213141534151402
:101320003211000162230203004302034201201232
:10133000131518193A17151311002102030263043B
:10134000E3020302030201024012131415171516DB
:10135000341220212243020300A32201001112159E
:10136000181C1E1D19161311000201030203042389
:101370000403240304430423040302034220111240
:101380001415171836151331210203022302032402
:101390001E191512100E0C0B0A0909090808080776
:1013A0000606050404040304040400000000000011
:1013B0000000000027262123252325242722292A6F
:1013C0002A1C27282B33322725222C333130370093
:1013D00000000000000000000000000001FFFFE02E
:1013E00000000000000001FFFFF00000000000000E
:1013F00001FFFFF800000000000001FFFFFE0000F9
:101400000000000003FFFFFF00000000000003FFDA
:10141000FFFFF000000000000FFFFFFFFE000000D4
:1014200003FFFFFC000007FC00007FFFFFFC000043
:1014300000000000001FFFFE000000000096918CDD
:1014400087827D78736E69645F5A55504B46413C84
:1014500037322D28231E19140F0A050004090E1314
:10146000181D22272C31363B40454A4F54595E63A4
:10147000686D72777C81868B90959A9FA4A9AEB394
:10148000AFAAA5A09B968F89837E78736E69645FEF
:101490005A55504B47423E3935302C27231F1B16D7
:1014A000120E09050103070B1014191D22262B2FFC
:1014B00034393D42474C51565B60656B70757B809B
:1014C000868C92979DA3A9AFB2ACA6A09A948F8266
:1014D0007C76706B65605C57524E4A46413D3936AA
:1014E000322E2A26221F1B1713100C080401020695
:1014F0000A0E12161A1E22262B2F33383D41464B58
:101500004F54595E64696F747A80878D949BA2AA48
:10151000B1AEA69F979089826F68635E5955514D11
:101520004946423F3C3835322E2B2824211E1A17BB
:1015300014100D0A0603000306090D1014181C20D0
:1015400024282C3034393D41464A4F54585D626757
:101550006D737980878F98A2ACB0A59A90867D76BE
:101560006F55514D4A4744413F3C3A383533312E4F
:101570002B292623201D1A1713100D0A0704010119
:101580000306090D1013171A1E22262A2E32363A88
:101590003E42464A4E53575B5F64696E757C859048
:1015A0009FB2A08D7D7067605A553E3C3A39373600
:1015B000343332302F2E2C2A292724221F1C1916AF
:1015C00013100D0A070402000305080A0D10131674
:1015D0001A1D2125292D3135383C4043464A4D50AE
:1015E0005356595B5E6165696F826D544D4A47443D
:1015F00042403E2E2E2D2C2C2B2A2A292928272604
:10160000252423211F1C1A1714100D0A0704010199
:10161000030507090C0E1013161A1D2124282C305F
:1016200033373A3D40424447484A4A4B4A48443D92
:101630003019021621282B2D2E2F2E2E06090C0FC5
:10164000121517191B1C1B1811040E2231383C3CB3
:101650003C3A3835322F2B2824201C1915110D093E
:10166000050102060A0E1115181C1F222527292A1A
:101670002B2B2926211911080004080A0A0A080739
:10168000040200030616181A1C1E20211F171251EF
:101690006063625F5D5956524E4A46423E3935316B
:1016A0002C2824201B17130E0A060102060A0F130A
:1016B000171B1F23262A2D313437393C3D3F3F3E2F
:1016C0003D39352F28211C17151313131416A8ADF7
:1016D000B2B0ABA6A19C97928D88837E79746F6A15
:1016E00065605B56514C47423D38332E29241F1A02
:1016F00015100B060103080D12171C21262B30357F
:101700003A3F44494E53585D62676C71767B8085E1
:101710008A8F94999EA3A8204E4D454120002053C6
:101720004952462000204D544B2000204D544B314F
:101730003920002075626C6F782000B562060103C5
:1017400000010601124F24505542582C34312C31DF
:101750002C303030332C303030312C333834303082
:101760002C302A32360D0A245047434D442C313652
:101770002C302C302C302C302C302A36410D0A24C1
:10178000505352463130302C302C33383430302CDA
:10179000382C312C302A33430D0A00C012000000CF
:1017A00096000000C2010000E10000802500000159
:1017B00000545950450000000000000000000000E7
:1017C000000002000000803F01024E415646494C95
:1017D000544552000000000000000003000000001B
:1017E000410105534241535F4D4F44450000000005
:1017F0000000000004000000004001064D494E5F5B
:10180000454C4556000000000000000000050000A7
:1018100000C8C200FF00000000000000000000003F
:1018200000000000000000000000000024504D54A3
:101830004B3232302C3230302A32430D0A24504D94
:10184000544B3331332C312A32450D0A24504D5438
:101850004B3330312C322A32450D0A24504D544B33
:101860003339372C302A32330D0A0047505654474B
:10187000004750474741004750524D4300245053C2
:1018800052463130332C302C302C312C312A323529
:101890000D0A24505352463130332C312C302C3029
:1018A0002C312A32350D0A24505352463130332C14
:1018B000322C302C302C312A32360D0A245053521F
:1018C000463130332C332C302C302C312A32370D2A
:1018D0000A24505352463130332C342C302C312CC6
:1018E000312A32300D0A24505352463130332C35D0
:1018F0002C302C312C312A32300D0A2450535246D0
:101900003130332C362C302C302C312A32320D0A27
:1019100024505352463130332C382C302C302C315B
:101920002A32430D0A24505352463135312C312A84
:1019300033460D0A24505352463130362C32312A68
:1019400030460D0A24504D544B3331342C302C305A
:101950002C312C312C302C302C302C302C302C30A5
:101960002C302C302C302C302C302C302C302A3297
:10197000380D0A24504D544B3333302C302A324525
:101980000D0A24504D544B3331332C312A32450D3E
:101990000A24504D544B3330312C322A32450D0A33
:1019A00024505542582C34302C6767612C302C3130
:1019B0002C302C302C302C302A37420D0A24505534
:1019C00042582C34302C7674672C302C312C302C2F
:1019D000302C302C302A37460D0A24505542582CD2
:1019E00034302C726D632C302C302C302C302C3059
:1019F0002C302A36370D0A00A0A20008A6020000EB
:101A00000000000000A8B0B3A0A20008A6002901B1
:101A10000000000000D0B0B34572726F723A2041EE
:101A2000505F48414C5F4156523A3A415652416EDE
:101A3000616C6F67496E206F7574206F66206368F4
:101A4000616E6E656C730D0A00474F494E47204426
:101A50004F574E20464F522041205245424F4F543F
:101A60000D0A0050414E49433A207363686564751E
:101A70006C65723A3A73797374656D5F696E6974F7
:101A800069616C697A65642063616C6C65646D6F13
:101A90007265207468616E206F6E63650050414E00
:101AA00049433A2041565253656D6170686F7265C3
:101AB0003A3A74616B6520757365642066726F6D68
:101AC00020696E736964652074696D657220707237
:101AD0006F636573730050414E49433A2053504938
:101AE0003020777269746520636F6C6C6973696FFD
:101AF0006E0050414E49433A205350493020747291
:101B0000616E7366657220636F6C6C6973696F6E6A
:101B1000006779726F5B25755D20646964206E6F64
:101B20007420636F6E76657267653A2064696666D5
:101B30003D2566206470730A002A00496E6974208E
:101B40004779726F0020002A00496E697420416352
:101B500063656C0043616C6962726174696F6E20C9
:101B60004641494C45440A0043616C6962726174A4
:101B7000696F6E207375636365737366756C0A00B5
:101B80005363616C696E675B25755D3A20252E3263
:101B90006620252E326620252E32660A004F6666A4
:101BA000736574735B25755D3A20252E326620259A
:101BB0002E326620252E32660A00506C6163652045
:101BC00076656869636C6520255320616E642070BA
:101BD0007265737320616E79206B65792E0A006FD0
:101BE0006E20697473204241434B006E6F73652011
:101BF0005550006E6F736520444F574E006F6E2036
:101C00006974732052494748542073696465006FB2
:101C10006E20697473204C454654207369646500D6
:101C20006C6576656C004E6F20494E53206261638F
:101C30006B656E647320617661696C61626C6500CE
:101C4000546F6F206D616E7920494E53206261633D
:101C50006B656E647300546F6F206D616E792061E7
:101C60006363656C7300546F6F206D616E792067DC
:101C700079726F7300020050524F445543545F49CC
:101C800044000000000000001F00000000000501EB
:101C90004143435343414C0000000000000000005A
:101CA0000021000000000005024143434F46465317
:101CB000000000000000000000002D0000000000F7
:101CC00005034759524F46465300000000000000EC
:101CD00000000039000000000001044D5055364B53
:101CE0005F46494C5445520000000000450000008A
:101CF000000000FF000000000000000000000000E5
:101D000000000000000000000000004661696C65F2
:101D10006420746F20626F6F74204D5055363030E0
:101D20003020352074696D6573004D505536303064
:101D3000303A20556E61626C6520746F206765745F
:101D40002073656D6170686F72650056616C7565B2
:101D50007320646F65736E2774206D617463683BD4
:101D6000207772697474656E3A20253032783B2092
:101D7000726561643A202530327820006661696CB2
:101D8000656420746F20626F6F74204D505536303B
:101D9000303020352074696D65730054696D656459
:101DA000206F75742077616974696E6720666F7241
:101DB000207573657220726573706F6E7365004273
:101DC000616420636F6E76657273696F6E207479DB
:101DD000706520272553270A00556E6B6E6F776E4E
:101DE00020636F6E76657273696F6E2027255327A7
:101DF0000A0025733A2025660A0025733A20256CCF
:101E0000640A0025733A2025640A0025733A2025C8
:101E1000640A00454550524F4D2066756C6C005366
:101E200063686564756C6572206F76657272756E35
:101E3000207461736B5B25755D202825752F2575D2
:101E4000290A005363686564756C657220736C6958
:101E500070207461736B5B25755D202825752F25B7
:101E6000752F2575290A0001004445425547000099
:101E70000000000000000000000000000000000062
:101E800000FF000000000000000000000000000053
:101E9000000000000000000000327C8900EDD968DD
:101EA00077000000590000000000000000D69FDC11
:101EB000A81817AA90437327F6B968EDF4DED40981
:101EC000FEE61C1C84DDE80B992927000000000FAA
:101ED00003000000000099B7335276941500F37C9C
:101EE000000026149E988F0000006A31168F8C0522
:101EF0009600E7B73F3600000000000000AF669E86
:101F0000D0385D8A6C20B95422007CED044C8038B6
:101F10007486EDCBFA57CBDC19E2001DDF5506E5E0
:101F2000CB01000000000000000000009A31008694
:101F3000DBD0BC5416131586004E44BD7F9A151590
:101F40009001EA49B51653A78AEAF02FBD34AE00D6
:101F50000000000000000000000000000000000081
:101F60000000000000000000000000000000000071
:101F70000000000000000000000000000000000061
:101F80000000000000000000000000000000000051
:101F90000008CC31AA2C532E000400500000000091
:101FA0000000000000000000000000000000000031
:101FB00000000401490000000000000000000000D3
:101FC00000000000000400000000000402440000C3
:101FD00000000000000000000000000000000800F9
:101FE000000000000203494D4158000000000000BD
:101FF000000000000000000C000000000000FF00D6
:1020000000000000000000000000000000000000D0
:1020100000000000000002004D494E0000000000DA
:102020000000000000000000000A00008089440257
:10203000015452494D000000000000000000000063
:1020400000000C000080BB4402024D41580000001B
:1020500000000000000000000000000E000080ED05
:10206000440103524556000000000000000000003B
:102070000000000010000000803F0205445A0000EC
:10208000000000000000000000000000001100003F
:1020900000000000FF000000000000000000000041
:1020A0000000000000000000000000000000000030
:1020B00000060300000676090200760F5A000100B0
:1020C000D00F300000000000000503000005CA0921
:1020D0000200CA0E96000100600FA0002C76D8887E
:1020E000674F0823C1DFAE59B1B796E5E453C63A4E
:1020F00051997696E6C28426898C9B62407C6FFC5F
:10210000BC9C9F40BAA56FA590055A2A5C936B6C46
:10211000676DC11BE0E40D47F520E6B5D0ED902ECC
:10212000009435770080841E0000204E000000C817
:1021300033333333986E128341EF8D21893BE6555B
:10214000CFFEE6DBD1844B38F77C1D90A4BBE424A2
:102150003284725E8100C9F1ECA1E53DDCDFE1E390
:10216000E6E8EBEDEFF2F4F7F9FCFE000305080AF0
:102170000C0F111416181B1D202224276E616E00EF
:10218000696E66000102102020080810204010200F
:10219000408002010201080402010102040810202B
:1021A0004080804020100804020180040201804029
:1021B0002010080402010804020101020408102092
:1021C00040800102040810204080400505050507F5
:1021D0000508080808020202020A0A0808040404A2
:1021E00004010101010101010103030303030303CE
:1021F00003040707070C0C0C0C0C0C0C0C0202025D
:102200000206060606060606060B0B0B0B0B0B0B4F
:102210000B05000020002300260029002C002F00C1
:102220003200000100000301060109010000220044
:10223000250028002B002E00310034000201000090
:10224000050108010B0100002100240027002A00DD
:102250002D003000330001010000040107010A01D4
:10226000F32B7C495072BF7AB47EB77E8C7FC3ACAF
:102270004EBA54BAA22C11241FBECFEFD1E2DEBF5A
:10228000CDBF00E00CBF14E0A0E0B2E0E2E4FBEB65
:1022900001E00BBF02C007900D92A43DB107D9F732
:1022A0001FE0A4EDB4E001C01D92AB35B107E1F72A
:1022B00012E2C4E7D2E200E006C022970109FE0163
:1022C0000BBF0E9473DBC036D10780E00807A9F777
:1022D0000E94EE1E0C9490DD0C9400000895E09195
:1022E0000C0BF0910D0B0084F185E02D8CE09BE050
:1022F0001995089520E030E0FC01E20FF31F1282EF
:102300001382148215822C5F3F4F2C313105A1F7C7
:10231000FC01168E0895FC01968D81E0890F868F51
:10232000DF0124E0929FA00DB11D112412964D9360
:102330005D936D937C931597873008F0168ECB01D3
:10234000BA010895CF93DF93EC018091140688239E
:1023500029F0BE0184E196E00E94FFC08091ED0665
:10236000882329F0BE018DEE96E00E94FFC0DF9128
:10237000CF9108958DE190E0E5CF8DE09CE00C9445
:102380003CAE80913C0C882321F084E29AE00C94CE
:10239000A84A08958CE09BE00C949C4880E098E06B
:1023A0000C9403410F931F93CF93DF93EC018B01A8
:1023B00080911406882331F0AB01BE0184E196E0E0
:1023C0000E94B3C18091ED06882331F0A801BE01BF
:1023D0008DEE96E00E94B3C1DF91CF911F910F91D6
:1023E000089566E574E081E090E0DCDF8CE09BE03E
:1023F0000E94454267E374E081E090E0D3CF2F92E2
:102400003F924F925F926F927F928F929F92AF9284
:10241000BF92CF92DF92EF92FF920F93CF93DF9311
:10242000CDB7DEB7A8970FB6F894DEBF0FBECDBF0D
:102430001C01C0901E09D0901F09E0902009F09067
:1024400021098091220990912309A0912409B0913A
:10245000250989A39AA3ABA3BCA3809126099091D7
:102460002709A0912809B09129098DA39EA3AFA3A4
:10247000B8A780900A0890900B08A0900C08B09024
:102480000D0840900608509007086090080870906A
:1024900009088091020890910308A0910408B09166
:1024A00005088D8F9E8FAF8FB8A38091F20C90910D
:1024B000F30CDC01ED91FC910480F581E02D199580
:1024C00069837A838B839C838D8D9E8DAF8DB8A11C
:1024D0008D839E83AF83B88749865A866B867C86B8
:1024E0008D869E86AF86B88AC98ADA8AEB8AFC8A8C
:1024F00089A19AA1ABA1BCA18D8B9E8BAF8BB88F0C
:102500008DA19EA1AFA1B8A5898F9A8FAB8FBC8FEB
:1025100007E22CE1AE014F5F5F4F6EE1C1010E9407
:10252000C4C8A8960FB6F894DEBF0FBECDBFDF912A
:10253000CF910F91FF90EF90DF90CF90BF90AF9031
:102540009F908F907F906F905F904F903F902F90D3
:10255000089529EDAC01249FC001259F900D112401
:102560008C5E994F0C947CBCA4E0B0E0EAEBF2E105
:102570000C94E3DA8C01DC0114964D915D916D9120
:102580007C91179740930A0550930B0560930C05B7
:1025900070930D0518964D915D916D917C911B97EF
:1025A00040930E0550930F0560931005709311052D
:1025B0001C966D917D918D919C911F972AE030E042
:1025C00040E050E00E94A8D9209307053093080509
:1025D00040930905F801628D738D80E090E00E94C0
:1025E00033D62AE037ED43E25CE30E9460D8609383
:1025F0002605709327058093280590932905D80117
:1026000056966D917C915797882777FD8095982FE6
:102610000E9435D69B01AC01F80164897589882731
:1026200077FD8095982F29833A834B835C830E94A2
:1026300035D629813A814B815C810E94429B2AE0F8
:1026400037ED43E25CE30E9460D860932A05709303
:102650002B0580932C0590932D050091F20C109181
:10266000F30CD801ED91FC910680F781E02DC801B3
:10267000199560931E0570931F0580932005909314
:102680002105D801ED91FC910480F581E02DC80170
:1026900019956093220570932305809324059093E8
:1026A00025052496E4E00C94FFDACF93DF93C091E4
:1026B000EE0CD091EF0CE881F9810280F381E02DDE
:1026C000CE0119958823D1F0E881F9810680F78140
:1026D000E02D60E0CE011995BC0183EE97E00E94E9
:1026E00002CCE881F9810680F781E02D61E0CE011E
:1026F0001995BC0186EC97E00E9402CCDF91CF9146
:102700000895A0E0B0E0E7E8F3E10C94DFDAEC0133
:102710008CE09BE00E9469446B017C0120E030E08A
:1027200048EC52E4688179818A819B810E9460D85B
:102730008B019C01B701A6018CE09BE00E944941FE
:102740006B017C019B01AC010E940ED9811114C068
:10275000209100053091010540910205509103053B
:10276000C701B6010E94B6D46093FC047093FD04C7
:102770008093FE049093FF042091040522FF1DC066
:102780008091FC049091FD04A091FE04B091FF049F
:10279000B0588093000590930105A0930205B09373
:1027A00003051092FC041092FD041092FE04109296
:1027B000FF04822F8B7F80930405CDB7DEB7E8E05E
:1027C0000C94FBDA0F931F93CF93DF938091EC0C63
:1027D0009091ED0CDC01ED91FC910088F189E02DE8
:1027E00019959091080C891709F18093080CC091F4
:1027F000D80CD091D90CE881F981882349F006885A
:10280000F789E02D40E052EC61E070E0CE010DC0B0
:102810000689178980913B0C992787FD90950E9426
:102820008449AB01BC01CE01F8011995DF91CF912C
:102830001F910F91089580911406882331F060E074
:1028400070E084E196E00E94DCC18091ED0688236F
:1028500031F060E070E08DEE96E00E94DCC1809186
:10286000590C813051F480913B05882331F060E0B0
:1028700070E08BE395E00C94DCC10895EF92FF9239
:102880000F93CF93DF9300D0CDB7DEB77C0180915B
:10289000E20C9091E30CDC01ED91FC910488F58948
:1028A000E02D19951A8219828B8305E123E0AE0190
:1028B0004F5F5F4F65EAC7010E94C4C80F900F9039
:1028C0000F90DF91CF910F91FF90EF9008954F926D
:1028D0005F926F927F928F929F92AF92BF92EF9290
:1028E000FF920F931F93CF93DF93CDB7DEB76A9715
:1028F0000FB6F894DEBF0FBECDBF7C014090FC0444
:102900005090FD046090FE047090FF046091F40408
:102910007091F5048091F6049091F7040E9407D617
:102920004B015C016091F0047091F1048091F2041C
:102930009091F3040E9402D60091F8041091F904DA
:102940002091FA043091FB0419821A821B821C82A6
:102950000D831E832F83388749865A866B867C8633
:102960001D861E861F86188A198A1A8A1B8A1C8A47
:102970007E8B6D8B788F6F8B9A8E898E07EB2AE119
:10298000AE014F5F5F4F6EE3C7010E94C4C86A96F5
:102990000FB6F894DEBF0FBECDBFDF91CF911F9170
:1029A0000F91FF90EF90BF90AF909F908F907F908E
:1029B0006F905F904F900895A7E1B0E0E2EEF4E1F0
:1029C0000C94D5DA7C010091F00C1091F10CD80137
:1029D000ED91FC910684F785E02D67E0C80119951B
:1029E0009C01D801ED91FC910684F785E02D66E00D
:1029F000C8012E8B3F8B19951C01D801ED91FC91DC
:102A00000684F785E02D65E0C80119952C01D801F1
:102A1000ED91FC910684F785E02D64E0C8011995DD
:102A20006C01D801ED91FC910684F785E02D63E0FF
:102A3000C80119955C01D801ED91FC910684F785D8
:102A4000E02D62E0C80119954C01D801ED91FC918F
:102A50000684F785E02D61E0C80119953C01D80195
:102A6000ED91FC910684F785E02D60E0C801199591
:102A70008C018091F20C9091F30CDC01ED91FC91B2
:102A80000680F781E02D199569837A838B839C8377
:102A90001E830D8378866F829A868986BC86AB8674
:102AA000DE86CD86588A4F863A8A298A2E893F89C2
:102AB0003C8B2B8B1D8A0EED25E1AE014F5F5F4FE6
:102AC00064E2C7010E94C4C86796E2E10C94F1DA9F
:102AD000A6E2B0E0EEE6F5E10C94D5DA1C018091B7
:102AE000A80B9091A90B02974CF0C0909F0BD0902F
:102AF000A00BE090A10BF090A20B0DC08091F20C06
:102B00009091F30CDC01ED91FC910480F581E02DB6
:102B100019956B017C0180911608909117089E8F82
:102B20008D8F20E030E048EC52EC6091CF0B70913B
:102B3000D00B8091D10B9091D20B0E9460D80E9453
:102B400002D66F8F78A389A39AA320E030E048ECE7
:102B500052E46091CB0B7091CC0B8091CD0B909196
:102B6000CE0B0E9460D80E9402D62B013C0120E0CF
:102B700030E048EC52E46091C70B7091C80B809133
:102B8000C90B9091CA0B0E9460D80E9402D66BA319
:102B90007CA38DA39EA320912F05309130054091F9
:102BA0003105552747FD5095AAE0B0E00E9434D981
:102BB0008090360590903705A0903805B090390583
:102BC000009132051091330520913405309135057F
:102BD000C982DA82EB82FC820D831E832F833887C1
:102BE00089869A86AB86BC866D877E878F87988B11
:102BF000198A1A8A1B8A1C8AABA1BCA1BE8BAD8B19
:102C0000588E4F8A8F8D98A19A8F898FAD8DBE8DEA
:102C1000BC8FAB8F08E62CE1AE014F5F5F4F61E2E6
:102C2000C1010E94C4C8A696E2E10C94F1DA0F93A8
:102C3000CF93DF93CDB7DEB729970FB6F894DEBFF9
:102C40000FBECDBF2091070230910802A90160E0BC
:102C500070E02131310548F4F901E55DFD4FE08177
:102C6000D901A65EBD4F3C9102C034E0E1E049834A
:102C70005A836B837C8325E02D8323E02E83EF83AF
:102C80003887298702E329E0AE014F5F5F4F60E09C
:102C90000E94C4C829960FB6F894DEBF0FBECDBF00
:102CA000DF91CF910F9108950F93CF93DF93CDB71D
:102CB000DEB7E3970FB6F894DEBF0FBECDBF29EDA8
:102CC000289FF001299FF00D1124E95EF94F219111
:102CD0002983309741F4FE01329622E3DF011D92F1
:102CE0002A95E9F707C022E3DE01129601900D92C2
:102CF0002A95E1F703E523E3AE014F5F5F4F6DEFE8
:102D00000E94C4C8E3960FB6F894DEBF0FBECDBFD5
:102D1000DF91CF910F910895ACE0B0E0E2E9F6E1E8
:102D20000C94E1DAFA820B831C832D833E834F835C
:102D3000588769877A878B879C874E2D60E070E083
:102D40008AEE94E00E94F7CD2A813B814C81552781
:102D500047FD509561E070E08AEE94E00E9408CE55
:102D60002D813E814F81588565E070E08AEE94E0C8
:102D70000E9408CE29853A854B855C8569E070E024
:102D80008AEE94E00E9408CE61E08091770C813059
:102D900009F460E081E08093770C87E79CE00E9473
:102DA00058B92C96E6E00C94FDDA80913C0C88230F
:102DB00031F084E29AE00E947B4B811112C01092A4
:102DC000340810923308E0913B08F0913C08EA5B2C
:102DD000FF4F80912E08992787FD909591838083DE
:102DE000089584E29AE090933408809333088091A8
:102DF0002E08992787FD9095E0913B08F0913C08BB
:102E0000EA5BFF4F918380839093E60A8093E50A03
:102E100084E29AE00C942552209107023091080236
:102E20002817390719F1909308028093070282301E
:102E3000910561F02CF4009749F0019779F008951D
:102E40008A30910519F0409749F0089583EE97E094
:102E50000E94C3CC86EC97E00C94C3CC83EE97E041
:102E60000E94D8CC86EC97E00C94D8CC089583309F
:102E700010F08A3021F490E0CFDF81E0089580E007
:102E80000895ACE0B0E0E7E4F7E10C94DFDA89E91B
:102E90009BE00E9407598091A30B9091A40BA091F5
:102EA000A50BB091A60B4091E5045091E60460910A
:102EB000E7047091E80484179507A607B70709F49B
:102EC00082C02091A80B3091A90B233031050CF45E
:102ED0007AC08093E5049093E604A093E704B0934E
:102EE000E80480910602823010F0815010C08130D9
:102EF00009F069C08091320590913305A0913405A5
:102F0000B0913505892B8A2B8B2B21F485E080939A
:102F1000060259C08CE0E0EBFBE0AEE2B5E00190C8
:102F20000D928A95E1F78CE0EEE2F5E0DE01119674
:102F300001900D928A95E1F7E980FA800B811C815E
:102F40002D813E814F81588569857A858B859C8549
:102F5000E3DE8CE0FE013196AEE2B5E001900D9229
:102F60008A95E1F7E090F40CF090F50CD701ED9123
:102F7000FC91C480D5806091E60B637089E99BE089
:102F80000E94F56889019A01AB01BC01C701F601F5
:102F9000199580913C0C8823A1F00091B80B1091F9
:102FA000B90B2091BA0B3091BB0B4091B40B5091EF
:102FB000B50B6091B60B7091B70B84E29AE00E945A
:102FC0007050109206022C96E8E00C94FBDA0F93F6
:102FD0001F9380E090E0B6D980912E08992787FD55
:102FE0009095E0913B08F0913C08EA5BFF4F91839C
:102FF000808320913308309134082115310529F060
:10300000F901EF53FF4F918380838091360C8093B9
:103010000F028091220590912305A0912405B09183
:103020002505892B8A2B8B2B01F18091F20C909135
:10303000F30CDC01ED91FC910480F581E02D1995F4
:10304000009122051091230520912405309125053A
:10305000601B710B820B930B6838734181059105DE
:1030600020F48091180E806403C08091180E8F7B2D
:103070008093180E8091E9048F5F8093E9048C336C
:1030800050F080913C0C882321F084E29AE00E9469
:103090006C501092E9041F910F9108950F931F93A4
:1030A000CF93DF93EC018B0180E592E099838883D5
:1030B0001B821C821D821E821F82198A1A8A1B8A09
:1030C0001C8A1D8A1E8A1F8A188E198E1A8E1B8EC4
:1030D0001C8E19A21AA21BA21CA21DA21EA21FA214
:1030E00018A680E492E09AA789A7FE01E95BFF4F4A
:1030F0001082CE018996FED888E492E09AA789A72B
:103100008A818E7F8D7F8A836CE47CE0CE010E9471
:103110009FB686EE92E0998388831093BF0C00934C
:10312000BE0CDF91CF911F910F910895CF92DF9246
:10313000EF92FF92CF93DF93EC0180E692E09983C8
:1031400088831A821B821C821D821E821F8218861F
:1031500019861A861B861C861D861E861F86188A5F
:10316000198A1A8A1B8A1C8A1D8A1E8A1F8A188E2F
:10317000198E1FA21EA21CAA1BAA1EAA1DAA1FAA44
:1031800018AE19AE1AAE7CAF6BAF5EAF4DAFFE019D
:10319000FF9631832083FE01EF5BFF4F108611867F
:1031A000128613861482158216821782108211826B
:1031B00012821382FE01EF5AFF4F1086118612868B
:1031C000138614821582168217821082118212824F
:1031D0001382FE01E35AFF4F148215821682178272
:1031E0001082118212821382FE01EB59FF4F14826A
:1031F0001582168217821082118212821382FE01BA
:10320000E359FF4F148215821682178210821182B1
:1032100012821382FE01EF57FF4FC12CD12C80E8A0
:10322000E82E8FE3F82EC082D182E282F382FE0183
:10323000EB57FF4FC082D182E282F382FE01E75753
:10324000FF4FC082D182E282F382FE01E357FF4F3B
:103250001082118212821382FE01EF56FF4F1082FC
:10326000118212821382FE01EB56FF4F10821182EF
:1032700012821382FE01E756FF4F10826CE57AE05E
:10328000CE010E949FB669E878E888E09CE30E943E
:10329000369BFE01E35BFF4F6083718382839383E0
:1032A0008AA9886080628AABFE01EB58FF4F1082CA
:1032B000FE01EA58FF4F108211821282FE01E3588C
:1032C000FF4F1082118212821382FE01E758FF4FD6
:1032D00010821182128213828AE992E09983888394
:1032E000FE01EE55FF4F108611861286138614825A
:1032F000158216821782DE01A255BF4F18961D92C5
:103300001D921D921C921B971D921D921D921C9244
:103310001397DE01A654BF4F14961D921D921D9265
:103320001C9217971D921D921D921C921397DE01FD
:10333000AA53BF4F18961D921D921D921C921B9767
:1033400014961D921D921D921C9217971D921D920C
:103350001D921C921397DE01AE52BF4F18961D921C
:103360001D921D921C921B9714961D921D921D92E8
:103370001C9217971D921D921D921C921397DE01AD
:10338000A252BF4F18961D921D921D921C921B9720
:1033900014961D921D921D921C9217971D921D92BC
:1033A0001D921C921397DE01A651BF4F18961D92D5
:1033B0001D921D921C921B9714961D921D921D9298
:1033C0001C9217971D921D921D921C921397DE015D
:1033D000AA50BF4F18961D921D921D921C921B97CA
:1033E00014961D921D921D921C9217971D921D926C
:1033F0001D921C921397DE01AE5FBE4F18961D9270
:103400001D921D921C921B9714961D921D921D9247
:103410001C9217971D921D921D921C921397DE010C
:10342000A25FBE4F18961D921D921D921C921B9773
:1034300014961D921D921D921C9217971D921D921B
:103440001D921C921397DE01A65EBE4F1D921D9227
:103450001D921C921397DE01A25EBE4F18961D921C
:103460001D921D921C921B9714961D921D921D92E7
:103470001C9217971D921D921D921C921397DE01AC
:10348000A65DBE4F18961D921D921D921C921B9711
:1034900014961D921D921D921C9217971D921D92BB
:1034A0001D921C921397DE01AA5CBE4F1D921D92C5
:1034B0001D921C921397DE01A65CBE4F1D921C92BA
:1034C000DE01A45CBE4F1D921D921D921C921397AB
:1034D000DE01A05CBE4F1D921C92DE01AE5BBE4FB2
:1034E0001D921D921D921C921397DE01AA5BBE4F86
:1034F0001D921D921D921C921397DE01A65BBE4F7A
:103500001D921C92DE01A45BBE4F1D921D921D9266
:103510001C921397DE01A05BBE4F1D921D921D925F
:103520001C921397DE01AC5ABE4F18961D921D9245
:103530001D921C921B9714961D921D921D921C9217
:1035400017971D921D921D921C921397DE01A05A8F
:10355000BE4F18961D921D921D921C921B97149699
:103560001D921D921D921C9217971D921D921D92E5
:103570001C921397DE01A459BE4F1D921D921D92FD
:103580001C921397DE01A059BE4F1D921D921D92F1
:103590001C921397DE01AC58BE4F1D921D921D92D6
:1035A0001C921397DE01A858BE4FCD92DD92ED928A
:1035B000FC92139714961D921D921D921C921797C0
:1035C000DE01A058BE4F1C92DE01AF57BE4F1D92C8
:1035D0001D921D921C921397DE01AB57BE4F1D9298
:1035E0001D921D921C921397DE01A757BE4F1D928C
:1035F0001D921D921C921397DE01A357BE4F1D9280
:103600001D921D921C921397DE01AF56BE4F1C9265
:10361000DE01AE56BE4F18961D921D921D921C9251
:103620001B9714961D921D921D921C9217971D9226
:103630001D921D921C921397DE01A256BE4F189642
:103640001D921D921D921C921B9714961D921D9205
:103650001D921C9217971D921D921D921C921397FA
:10366000DE01A655BE4F1D921D921D921C9213970E
:10367000DE01A255BE4F1D921D921D921C92139702
:10368000DE01AE54BE4F1D921D921D921C921397E7
:10369000DE01AA54BE4F18961D921D921D921C92D7
:1036A0001B9714961D921D921D921C9217971D92A6
:1036B0001D921D921C921397DE01AE53BE4F1D92B8
:1036C0001D921D921C921397C0A2D1A2E2A2F3A256
:1036D000C08AD18AE28AF38AC082D182E282F382EE
:1036E000FE01E656FF4F42E75AE86EE07CE3408376
:1036F000518362837383C256DF4F4AE057ED63E222
:103700007CE3488359836A837B83DF91CF91FF9069
:10371000EF90DF90CF900895A0E0B0E0E2E9FBE108
:103720000C94D5DAEC018C010B5B1F4F69E97FE14A
:10373000C8010E949FB69DEC492E9CEC592E9CE43A
:10374000692E9EE3792EF801408251826282738253
:10375000FE01E75BFF4F1082118212821382FE018D
:10376000E35BFF4F2DEC822E2CEC922E2CE4A22E4C
:103770002DE3B22E80829182A282B382FE01EF5AA3
:10378000FF4F30EA232E3FE0332E31822082C12CBE
:10379000D12C40ECE42E4FE7F42EF801C68AD78AEC
:1037A000E08EF18E8E010D591F4F69E97FE1C8014E
:1037B0000E949FB6F8014082518262827382FE01AC
:1037C000E959FF4F1082118212821382FE01E559DE
:1037D000FF4F80829182A282B382C159DF4F39822A
:1037E0002882F801C68AD78AE08EF18ECDB7DEB77F
:1037F000E2E10C94F1DA4F925F926F927F92AF9276
:10380000BF92CF92DF92EF92FF920F931F93CF93CD
:10381000DF938091EA0C9091EB0C9093B50C809320
:10382000B40C0E94C9B68091180E80688093180E5F
:103830008091190E877F8093190E60E08DE09CE0E7
:103840000E9428AEC090D80CD090D90CD601ED9132
:10385000FC91008CF18DE02D00E012E020E830E0DA
:1038600040E052EC61E070E0C6011995A090DA0CDE
:10387000B090DB0CD501ED91FC91008CF18DE02D29
:1038800000E110E020E031E040E056E960E070E067
:10389000C5011995E091B40CF091B50C0190F0813F
:1038A000E02DC089D1898091F40C9091F50CDC0158
:1038B000ED91FC910084F185E02D19952091B40CD7
:1038C0003091B50C9F938F938FEE94E09F938F93DD
:1038D0003F932F93FE01199583E39CE00E9403B66A
:1038E0000F900F900F900F900F900F90C091F20CCF
:1038F000D091F30C882309F414C28091330C909179
:10390000340C019709F00DC2E881F9810680F78136
:10391000E02DCE0119952B013C010E94EDB6E091FE
:10392000B40CF091B50C0190F081E02D0089118963
:10393000E881F9810680F781E02DCE01199520916B
:10394000B40C3091B50C64197509860997099F93D9
:103950008F937F936F938CE694E09F938F933F9325
:103960002F93F80119958DB79EB708960FB6F89466
:103970009EBF0FBE8DBF8AE395E00E948349D601AA
:10398000ED91FC910689178980913A0C992787FD62
:1039900090950E948449AB01BC01E090D80CF09056
:1039A000D90CC701F80119958CE09BE00E94ED4508
:1039B000B70184E196E00E94D3BCE881F9810284DA
:1039C000F385E02D45E050E061E071E2CE0119950C
:1039D00081E08093080C0E94E2136090DC0C7090F0
:1039E000DD0CD301ED91FC91E08CF18C80913B0CCE
:1039F000992787FD90950E948449AB01BC0100E0A6
:103A000011E020E830E0C301F70119959091590CBD
:103A100080913B0C913081F4992787FD90950E940D
:103A200084499B01AC01E12CFF24F39400E810E0F1
:103A3000B3018BE395E00FC0992787FD90950E9415
:103A400084499B01AC01E12CFF24F39400E810E0D1
:103A5000B3018DEE96E00E9400BD8091360C8093FC
:103A60000F0280913C0C8130D9F484E29AE00E94EC
:103A7000274D882331F084E29AE00E947B4B81112C
:103A800087C18091B40C9091B50CDC01ED91FC9153
:103A90000484F585E02D60ED74E0199510923C0CDE
:103AA00060E070E089E99BE00E94B35584E0809378
:103AB000100285E080931102E0910008F091010866
:103AC0000480F581E02D80E098E01995809132081E
:103AD0008B7F8093320840E050E061E070E086EC3C
:103AE00099E00E941B9160E080E098E00E94F8322B
:103AF0000E94F111D601ED91FC9100A0F1A1E02D01
:103B000060E0C6011995D501ED91FC9100A0F1A1ED
:103B1000E02D60E0C5011995D301ED91FC9100A065
:103B2000F1A1E02D60E0C30119958091730C909193
:103B3000740C12E3189FB001199F700D112483EECD
:103B400097E00E940ECB8091750C9091760C189F97
:103B5000B001199F700D112486EC97E00E940ECBE6
:103B600083EE97E00E94ACCC86EC97E00E94ACCC50
:103B700083EE97E00E943BCC86EC97E00E943BCC22
:103B800020E836E948E15BE460914D0C70914E0C01
:103B900080914F0C9091500C0E9460D80E9402D6E8
:103BA0006B017C016093320570933305809334057B
:103BB0009093350520E836E948E15BE46091510CCB
:103BC0007091520C8091530C9091540C0E9460D8CB
:103BD0000E9402D6609336057093370580933805AE
:103BE00090933905CD28CE28CF28C1F5672B682BB7
:103BF000692BA1F58091770C882381F160E070E05A
:103C00008AEE94E00E94D0CD80932E0561E070E0B2
:103C10008AEE94E00E94E2CD60932F057093300508
:103C20008093310565E070E08AEE94E00E94E2CD79
:103C30006093320570933305809334059093350576
:103C400069E070E08AEE94E00E94E2CD6093360570
:103C50007093370580933805909339056FEB74E0C6
:103C600081E090E00E94D211E881F9810280F38125
:103C7000E02D68EE73E0CE0119958AE090E0CCD893
:103C800020E030E0A9016091550C7091560C8091B4
:103C9000570C9091580C0E9410D818163CF5E881EA
:103CA000F9810480F581E02DCE0119956093090C0E
:103CB00070930A0C80930B0C90930C0C8091EF077F
:103CC0009091F0079093EC078093EB078091D207D7
:103CD0009091D3079093CF078093CE0783EE97E020
:103CE0000E9495CC86EC97E00E9495CC80910405CB
:103CF0008460809304054EE06FE375E08EE19CE004
:103D00000E945ABADF91CF911F910F91FF90EF90CF
:103D1000DF90CF90BF90AF907F906F905F904F906B
:103D20000895E091B40CF091B50CA081B18187E8C1
:103D300094E09F938F93FF93EF935096ED91FC91B6
:103D4000519719950E9426B161E00F900F900F9046
:103D50000F908091330C9091340C019709F460E03E
:103D600081E090E09093340C8093330C83E39CE0EB
:103D70000E9458B98091B40C9091B50CDC01ED9182
:103D8000FC910484F585E02D61E874E01995F3CD8C
:103D900084E29AE0909334088093330880912E084F
:103DA000992787FD9095E0913B08F0913C08EA5BEC
:103DB000FF4F918380839093E60A8093E50A70CE4B
:103DC00086EC99E00E94538A8EE19CE00E9475BACD
:103DD0006CEB7DE48EE19CE00C947DBAE091D60C16
:103DE000F091D70C0190F081E02D40E050E060E0D0
:103DF00070E086ED9CE01995FEDC8091F20C9091CC
:103E0000F30CDC01ED91FC91028CF38DE02D199502
:103E1000D7DFFECF0F931F93CF93DF938B01EC017E
:103E2000C45BDF4F888199810E945CC8083111050D
:103E300008F0C4C0F801EE58FF4F0C940CDB41971A
:103E400008F4BEC0888199810E941716B7C0849774
:103E500008F4B6C0888199810E94FF11AFC0849791
:103E600008F4AEC0888199810E946815A7C0829726
:103E700008F4A6C0888199810E9467149FC0869724
:103E800008F49EC02881398149ED429FC001439FBB
:103E9000900D112469E97BE08C5E994F0E9404C368
:103EA0008DC04E9708F48CC02881398149ED429F1E
:103EB000C001439F900D112460E08C5E994F0E94D9
:103EC0001EC37CC04D9708F47BC0888199810E94F5
:103ED000DC1474C0829708F473C02881398149EDDD
:103EE000429FC001439F900D112444E25AE066ECCA
:103EF00079E08C5E994F0E94AAC360C0469708F48F
:103F00005FC02881398149ED429FC001439F900DD8
:103F100011246CE07BE08C5E994F0E9499C44EC0E6
:103F2000C29708F44DC02881398149ED429FC001F4
:103F3000439F900D11242CE03BE044E25AE066ECF4
:103F400079E08C5E994F0E9404C538C08197C0F11A
:103F50002881398149ED429FC001439F900D112472
:103F60008C5E994F0E94AABD29C00C9748F18881A8
:103F700099810E94A91222C0CB9710F18881998162
:103F80000E9454161BC08497D8F02881398149EDCE
:103F9000429FC001439F900D112460E078E08C5E49
:103FA000994F0E942BC60AC021E0C49750F408C064
:103FB0000B9730F0888199810E943E1421E001C066
:103FC00020E0822FDF91CF911F910F910895A0E003
:103FD000B0E0EDEEFFE10C94DFDAEC018B0169302B
:103FE00071050CF05FC0FB01F396EE0FFF1FE80FA9
:103FF000F91F608170E080E090E00E9433D66B0191
:104000007C018AAD9BAD892B51F020E030E040E887
:104010005EE3C701B6010E9460D86B017C0120E01D
:1040200030E0A901C701B6010E9493D51816D4F556
:104030000C0F1D1FF801E858FF4F8081811130C01F
:1040400020E030E048E452E4C701B6010E9410D8F5
:10405000181634F4C12CD12CE8E4EE2EE2E4FE2E46
:1040600008581F4FA701960160E070E088E492E4D1
:104070000E949AD56B017C01CF57DF4F688170E0B9
:1040800080E090E00E9435D69B01AC01C701B601EB
:104090000E94B6D40E9407D6F801608381E003C075
:1040A0008150808380E0CDB7DEB7E8E00C94FBDA86
:1040B000CF93DF93EC018AAD9BAD892BB9F0FE0164
:1040C000EA58FF4F808191811816190624F08AE082
:1040D00090E09183808368E070E0CE0178DF8823F0
:1040E00029F061E170E0CE010E94FFC08091EE04F2
:1040F000811175C060E070E0CE0169DF882379F03E
:104100006AE070E0CE010E94FFC06BE070E0CE017B
:104110000E94FFC06CE070E0CE010E94FFC061E031
:1041200070E0CE0154DF8823A1F063E070E0CE019F
:104130000E94FFC064E070E0CE010E94FFC065E015
:1041400070E0CE010E94FFC06DE070E0CE010E94E1
:10415000FFC064E070E0CE013ADF882329F062E01E
:1041600070E0CE010E94FFC063E070E0CE012FDF5F
:10417000882329F06FE070E0CE010E94FFC062E06A
:1041800070E0CE0124DF882351F069E070E0CE01B9
:104190000E94FFC068E070E0CE010E94FFC065E0B1
:1041A00070E0CE0114DF882329F061E070E0CE01D9
:1041B0000E94FFC067E070E0CE0109DF882379F03C
:1041C00065E170E0CE010E94FFC067E170E0CE01C2
:1041D0000E94FFC066E170E0CE010E94FFC0DF9147
:1041E000CF91089580911406882319F084E196E018
:1041F0005FDF8091ED06882319F08DEE96E058CFB1
:104200000895CF92DF92EF92FF9280911406882357
:1042100009F47CC081E08093EE048091F20C9091CF
:10422000F30CDC01ED91FC910480F581E02D1995F2
:104230006B017C018091DC049091DD04A091DE048F
:10424000B091DF04A7019601281B390B4A0B5B0BC9
:10425000DA01C901893E9340A105B10580F0C09201
:10426000DC04D092DD04E092DE04F092DF0480E012
:1042700090E00E94A21183E090E00E94A211809140
:10428000D8049091D904A091DA04B091DB04A7017D
:104290009601281B390B4A0B5B0B25313105410573
:1042A000510578F0C092D804D092D904E092DA0493
:1042B000F092DB040E941B1495DF8DE09CE00E94CD
:1042C0003CAE8091D4049091D504A091D604B091D5
:1042D000D704A7019601281B390B4A0B5B0BDA01A7
:1042E000C90189389341A105B10570F0C092D40489
:1042F000D092D504E092D604F092D7046BEA74E031
:1043000081E090E00E94D2111092EE04FF90EF90B5
:10431000DF90CF900895A5E3B0E0E1E9F1E20C94DD
:10432000D5DA3C011B015091590CDB0117964C91D9
:10433000513069F4FC01E45BFF4F208131818091B1
:104340008705909188052817390709F48EC34D31E8
:1043500071F48EE0F1013896DE01119601900D9214
:104360008A95E1F7CE0105960E9481130BC44E3168
:1043700008F059C0443159F4513021F480913B0583
:104380008111CAC3B101C3010E9418BFFBC34531EB
:1043900050F541111FC0513009F0F4C316C0463228
:1043A00031F5D10118960D911C9119971D966C91BC
:1043B0001D971C968C910E942DC8882309F463C117
:1043C0008091590C813009F0DDC380913B0581114A
:1043D000C3C3D8C34B3059F447E357E1B101C3011C
:1043E0000E948AC6CFC3453131F0473179F0552359
:1043F00009F4C8C3EACF513021F480913B05811103
:1044000082C3B101C3010E94F8BEBCC3513021F484
:1044100080913B0581118CC340E050E0B101C301A4
:104420000E94B2BFAFC3473209F0E7C0F101808CF0
:10443000918CA28CB38C848D958DA68DB78D89A718
:104440009AA7ABA7BCA7C0A0D1A0E2A0F3A004A1EB
:1044500015A192A561A580A59DAB0E942DC89DA91F
:104460008111F6C0923021F0933079F191115BC047
:1044700020E836E948E15BE4C501B4010E9460D858
:104480000E9402D6B62E7AABA82E992E20E836E9E5
:1044900048E15BE469A57AA58BA59CA50E9460D83C
:1044A0000E9402D6862E572E8DA799AB20E030E0D1
:1044B00048EC52E4C701B6010E9460D80E9402D6BF
:1044C000D62E472EC82E19A630C020E836E948E17E
:1044D0005BE4C501B4010E9460D80E9402D6B62EEA
:1044E0007AABA82E992E20E836E948E15BE469A56D
:1044F0007AA58BA59CA50E9460D80E9402D6862E24
:10450000572E8DA799AB20E030E048EC52E4C7016C
:10451000B6010E9460D80E9402D6D62E472EC82E21
:10452000F1E0F9A702C022E052C0C301875A9F4FB1
:104530009CAB8BABDC018C91882309F402C3011581
:10454000110509F043C089A58983FD2CDA824B82CD
:10455000CC822B2DBD829AA99E83AF829886682D2E
:1045600089865A86ADA5AB87B9A9BC87E82E042DEC
:104570001C2D392F4A2D592D752DCD010E948C16D9
:10458000E9A4E0922E05D0922F0540923005C0920A
:104590003105B0923205EAA9E0933305A0923405C3
:1045A000909235058092360550923705FDA5F0931F
:1045B000380589A98093390542E154E061E070E053
:1045C000C3010E94B3C1ABA9BCA91C9220E0F101B8
:1045D0003681F301E45BFF4F80819181D101159613
:1045E0004C914D8F3E8F2F8F09E923E0AE01435E42
:1045F0005F4F6FE20E94C4C8C5C2483298F145348B
:1046000009F45EC04C3409F021C2F101C084D184A8
:10461000E284F38484859585A685B7858DA79EA7BA
:10462000AFA7B8AB80889188A288B388808D918D20
:10463000A28DB38D89A79AA7ABA7BCA744A055A00C
:1046400017A1612F86A10E942DC8882309F48FC06D
:104650008091590C813009F095C280913B05811100
:1046600072C290C2413209F09ACE8CE1F1013896C3
:10467000DE01119601900D928A95E1F7CE01019627
:104680000E94B4127FC20115110509F07BC283019B
:10469000075A1F4FFF24F394F801F082F301EF5AF9
:1046A000FF4F11821082F301ED5AFF4F11821082E9
:1046B00060E170E0C3010E94FFC0D801FC9262C2B9
:1046C000F101E084F1840285138560E082890E9413
:1046D0002DC88111BDCFD10115962C9130E080916C
:1046E000380C9091390C2817390709F04BC2B701E3
:1046F000882777FD8095982F0E9435D66093F00427
:104700007093F1048093F2049093F304B801882726
:1047100077FD8095982F0E9435D66093F8047093AA
:10472000F9048093FA049093FB041092F40410921D
:10473000F5041092F6041092F70491E0BFEFEB1627
:10474000BFE7FB0609F490E08091040590FB80F937
:104750008093040591E00F3FEFE71E0709F490E016
:104760008091040590FB81F9809304050BC244E21B
:1047700054E061E070E0C3010E94B3C1C301845BF7
:104780009F4F1C0196EF4916510409F420C150F4C3
:10479000B0EB4B16510409F4FFC0E1EF4E16510483
:1047A00071F046C1FCE24F16F1E05F0609F40AC160
:1047B00080E9481681E0580609F4C6C039C120E0F6
:1047C00030E040E85FE3C701B6010E9493D588233B
:1047D00061F020E030E040E85FE36DA57EA58FA5A5
:1047E00098A90E9493D5811146C063EE73E082E0E0
:1047F00090E00E94D211E0910008F091010804803D
:10480000F581E02D80E098E0199540E050E060E00F
:1048100070E086EC99E00E941B9186EC99E00E9482
:104820004F8EE0910008F091010806A0F7A1E02D5D
:1048300019821A821B821C821D821E821F82188688
:1048400019861A861B861C86C12CDA80EB80FC80B8
:1048500000E01E812F81388540E05A856B857C857C
:1048600080E098E0199560E080E098E00E94F832DE
:104870000E94F11111C020E030E040E85FE3C50183
:10488000B4010E9493D5811107C00E94F11180915B
:10489000040584608093040520E030E040E85FE395
:1048A00069A57AA58BA59CA50E9493D58111BEC050
:1048B000D1018D919C9128EC34E03E8F2D8F98A3EF
:1048C0008F8F9E012F5D3F4FAE014B5D5F4FBE014D
:1048D000635E7F4F86EC99E00E94C391882309F4C0
:1048E000A5C0E0910008F091010806A0F7A1E02D15
:1048F00029A16AA15BA14CA13DA10EA11FA178A590
:10490000C32E832F902FA12FB72F89839A83AB8338
:10491000BC83022F822F962FA52FB42F8D839E83C9
:10492000AF83B88719861A861B861C86DA80EB80CF
:10493000FC801E812F81388540E05A856B857C85FF
:1049400080E098E0199572C01A3F09F071C020E02C
:1049500030E040E85FE3C701B6010E9493D58111C2
:1049600009C083EE97E00E94C3CC86EC97E00E94DA
:10497000C3CC5CC020E030E0A901C701B6010E94B1
:1049800093D5811155C083EE97E00E94D8CC86EC78
:1049900097E00E94D8CC4AC0C701B6010E9407D652
:1049A0006C35710579F020F46034710541F040C038
:1049B000603C710521F06C3D710521F039C080E04B
:1049C00090E002C08AE090E00E940C172FC020E027
:1049D00030E040E85FE3C701B6010E9493D5882329
:1049E00051F020E030E040E450E4C701B6010E94FD
:1049F00093D581111DC00091F20C1091F30CF801B8
:104A0000A080B1809924939420E030E040E450E409
:104A1000C701B6010E9493D58111912CD5015E96F4
:104A2000ED91FC915F97692DC801199520E001C0B7
:104A300023E0F101808191815A8249822B830FE822
:104A400023E0AE014F5F5F4F6DE4D4CD423409F0F7
:104A5000CECC513021F480913B05811148C041E01A
:104A6000B101C3010E9485BE8DC04D3181F58EE03C
:104A7000F1013896DE01119601900D928A95E1F7C9
:104A8000CE0105960E948113B4E1EB2EB6E0FB2E19
:104A900000E010E0F7018081882381F0C8010E94C6
:104AA0005CC8D10113962C9130E0285F3F4F281746
:104AB000390720F4B101C8010E9425C90F5F1F4FBB
:104AC000B9EDEB0EF11C0230110521F75BC041324C
:104AD000D9F68CE1F1013896DE01119601900D9224
:104AE0008A95E1F7CE0101960E94B412CDCFD10193
:104AF0001B966C911B971A968C910E942DC8882347
:104B000009F4ADCF20C0F101618580850E942DC8D8
:104B1000882309F476CC20C0D1011B966C911B9799
:104B20001A968C910E942DC8882309F42BCC0BC0B7
:104B3000F101658584850E942DC8882309F46CCC19
:104B40000BC021E044CD80918705909188050E949B
:104B50005CC8F101238109C0809187059091880587
:104B60000E945CC8D10113962C9130E0285F3F4F22
:104B70002817390738F4B10180918705909188058D
:104B80000E9425C9E596E2E10C94F1DAA0E0B0E0DC
:104B9000ECECF5E20C94E3DAFE01389621913191C8
:104BA00081E0809317068F0142E350E068E176E0F0
:104BB0008091F40C9091F50C0E94506B62E170E0D2
:104BC00084E196E00E94FFC08091ED06882379F091
:104BD00083E3E7E1F6E0A0EFB6E001900D928A955D
:104BE000E1F762E170E08DEE96E00E94FFC0E4E044
:104BF0000C94FFDAA4E1B0E0E0E0F6E20C94D5DA40
:104C000020916B0C30916C0C40916D0C50916E0C9E
:104C10006091F0047091F1048091F2049091F3049A
:104C20000E94B6D420E030E048EC52E40E9460D804
:104C30000E9402D60E94429D0E9435D62AE037ED9E
:104C400043E25CE30E9460D86D877E878F87988BF4
:104C500020916F0C3091700C4091710C5091720C3E
:104C60006091F8047091F9048091FA049091FB042A
:104C70000E94B6D4E12CF12C04EB12E420E030E0E9
:104C800044EB52EC0E94E99A6B017C0180915A0C32
:104C9000813009F046C06091060870910708809144
:104CA0000808909109080E943C9BA70196010E9468
:104CB000B5D46B017C012B013C01E89477F820917D
:104CC000670C3091680C4091690C50916A0C6091AE
:104CD0005F0C7091600C8091610C9091620C0E944D
:104CE00060D89B01AC01C301B2010E9493D587FF3C
:104CF00005C01092CB071092CA07EFC020E030E049
:104D0000A901C701B6010E9410D818161CF488ED3D
:104D10009CED02C088E293E29093CB078093CA0790
:104D2000DCC08091750C9091760C22E3289F1001D5
:104D3000299F300C11244101AA2497FCA094BA2C7D
:104D40006091CA077091CB07882777FD8095982FCF
:104D50000E9435D62B013C01609112087091130816
:104D600080911408909115080E9435D62AE037EDFD
:104D700043E25CE30E9460D8A70196010E94B5D48B
:104D8000905820E030E048EC52E40E9460D80E9445
:104D900002D60E9435D6AB01BC0100E010E020E84D
:104DA0003FE388E79CE00E9459C99B01AC01C30125
:104DB000B2010E94B6D40E9402D66B017C018091A0
:104DC000EF048B7F877F8093EF044090410C5090DD
:104DD000420C6090430C7090440C2AE037ED43EA9B
:104DE0005CE3C301B2010E9410D81816ECF5C501AE
:104DF000B4010E9435D62AE037ED43EA5CE30E9415
:104E000060D8A30192010E949AD50E9407D69B0107
:104E10006115710511F421E030E04091CA0750910D
:104E2000CB07BA01621B730BCB01A0E0B0E08C157D
:104E30009D05AE05BF053CF0E091EF04E460E09312
:104E4000EF046C017D01C901840F951FA0E0B0E063
:104E5000C816D906EA06FB063CF02091EF0428604C
:104E60002093EF046C017D0188279927DC018819C4
:104E70009909AA09BB09A601662757FD6095762FF7
:104E800084179507A607B7072CF4D092CB07C092DA
:104E9000CA070DC088279927821993099093CB07D9
:104EA0008093CA078091EF0484608093EF0480911F
:104EB000CA079091CB07AA2797FDA095BA2F88150E
:104EC0009905AA05BB054CF03092CB072092CA0782
:104ED0008091EF0488608093EF0486EC97E00E9455
:104EE0003BCC86EC97E00E9495CC20915A0C6091C7
:104EF00016087091170880911808909119082130B0
:104F000009F05CC00E94429D6B017C0120E030E012
:104F100048EC52E46D857E858F8598890E9460D823
:104F20000E9402D60E94429DA7019601261B370BC4
:104F3000480B590BCA01B9010E94429D0E9435D607
:104F40002AE037ED43E25CE30E9460D86B017C010C
:104F50004B015C01E894B7F82091630C3091640C2C
:104F60004091650C5091660C60915B0C70915C0CEB
:104F700080915D0C90915E0C0E9460D89B01AC0109
:104F8000C501B4010E9493D587FF05C01092E807C0
:104F90001092E707D2C120E030E0A901C701B601B5
:104FA0000E9410D818161CF480EB99EB02C080E523
:104FB00096E49093E8078093E707BFC10E94429D63
:104FC0006B017C0120E030E048EC52E46D857E8589
:104FD0008F8598890E9460D80E9402D60E94429DC7
:104FE0002091730C3091740C42E3429F4001439F27
:104FF000900C11242401662457FC6094762CA701A0
:105000009601261B370B480B590BCA01B9010E94A8
:10501000429D6B017C011091E40446EC58E06EE186
:1050200079E0CE0101960E9462A929853A854B85D7
:105030005C856091E404662349F0772761950CF460
:105040007095882777FD8095982F02C0C701B6011B
:10505000298B3A8B4B8B5C8B0E9435D629893A89F8
:105060004B895C890E9460D801E020E030E0A90112
:105070000E9410D887FD00E08091E7079091E80733
:1050800097FF03C09195819591098035964409F069
:1050900043C0C601D7FE04C0882799278C199D09F3
:1050A000853F9140CCF10023B9F1A090F20CB09073
:1050B000F30CD501ED91FC910480F581E02DC50143
:1050C00019952091E0043091E1044091E20450915F
:1050D000E304621B730B840B950B0E9433D66D8720
:1050E0007E878F87988B20E030E04AE754E4609118
:1050F000450C7091460C8091470C9091480C0E9491
:1051000060D89B01AC016D857E858F8598890E9452
:1051100010D818160CF41DC1E091E404AE2FBB2783
:10512000A7FDB095A70196010E943ED96C307E4F35
:105130008F4F9F4F0CF410E01E17B1F160912609BC
:105140007091270980912809909129090E943C9B20
:105150009F938F937F936F938091E7079091E807D8
:10516000AA2797FDA095BA2FBF93AF939F938F93D4
:10517000FF92EF92DF92CF92812F992787FD909532
:105180009F931F932091E404822F992787FD909588
:105190009F932F9389E195E09F938F93F7DC0FB650
:1051A000F894DEBF0FBECDBF1093E4048091EF04EE
:1051B0008E7F8D7F8093EF04112361F020E536E42C
:1051C00012037001139FF00C112486E99CE00E94E9
:1051D00000CB38C0C701B6010E9435D6AB01BC0177
:1051E00000E010E020E83FE386E99CE00E9459C916
:1051F000E12C10EAF12E0CE816E420E030EA4CE84D
:1052000056EC0E94E99A9B01AC016091E70770910E
:10521000E807882777FD8095982F298B3A8B4B8B51
:105220005C8B0E9435D629893A894B895C890E941A
:10523000B5D420E030EA4CE856EC0E94E99A0E948E
:1052400002D67B01A0903D0CB0903E0CC0903F0C6C
:10525000D090400C2AE037ED43EA5CE3C601B5018B
:105260000E9410D8181684F5C301B2010E9435D6E9
:105270002AE037ED43EA5CE30E9460D8A60195017D
:105280000E949AD50E9407D66115710511F461E05C
:1052900070E08091E7079091E8079C01261B370B8F
:1052A0002E153F0530F079012091EF042160209305
:1052B000EF04680F791FE616F70630F07B01809146
:1052C000EF0482608093EF0488279927DC0184191A
:1052D0009509A609B709A701662757FD6095762F9E
:1052E00084179507A607B7072CF4F092E807E09219
:1052F000E7070DC088279927881999099093E8072F
:105300008093E7078091EF0481608093EF048091A0
:10531000E7079091E807AA2797FDA095BA2F841573
:105320009505A605B7054CF09092E8078092E7072F
:105330008091EF0482608093EF0483EE97E00E94F7
:105340003BCC83EE97E00E9495CC6496E2E10C940E
:10535000F1DA8091E7079091E80760EB79EB0E9422
:1053600073D9162FD501ED91FC910480F581E02DC4
:10537000C50119956093E0047093E1048093E20401
:105380009093E304C9CE8F929F92AF92BF92EF9217
:10539000FF920F931F93CF93DF93C091F20CD091A4
:1053A000F30CE881F9810680F781E02DCE01199593
:1053B00000911E0510911F052091200530912105B7
:1053C000601B710B820B930B0E9433D62DEB37E3DE
:1053D00046E855E30E9460D84B015C0120E030E0D4
:1053E00040EA50E40E9493D587FF27C08CE0E6E0B6
:1053F000F5E0A2E1B5E001900D928A95E1F72091E8
:105400002A0530912B0540912C0550912D05C501A1
:10541000B4010E9460D88B019C01409126055091F7
:105420002705609128057091290582E195E00E9489
:10543000189D81E08093050502C0109205058091BA
:10544000A80B9091A90B02974CF08CE0E0EBFBE0ED
:10545000AEE2B5E001900D928A95E1F780910505E5
:10546000882309F44EC080910702909108020297A8
:10547000D1F08091040580FD16C062E175E08EE2F6
:1054800095E00E945B9C0E9435D62AE037ED43E20E
:105490005CE30E9460D86093F0047093F104809301
:1054A000F2049093F30462E175E08EE295E00E94CD
:1054B000199C9B01AC016093F4047093F5048093F4
:1054C000F6049093F70480910702909108020297E6
:1054D000C1F08091040581FD14C06091FC047091BD
:1054E000FD048091FE049091FF040E9440D50E942B
:1054F0003C9B6093F8047093F9048093FA049093B2
:10550000FB0420E030E0A9016091550C7091560C2D
:105510008091570C9091580C0E9410D818166CF579
:10552000E881F9810480F581E02DCE011995809004
:10553000090C90900A0CA0900B0CB0900C0C681900
:1055400079098A099B090E9433D64B015C0120E04E
:1055500030E04AE754E46091550C7091560C80910C
:10556000570C9091580C0E9460D89B01AC01C5016A
:10557000B4010E9493D587FD2BC18091F40C9091CA
:10558000F50CDC01ED91FC910280F381E02D199581
:10559000019709F41DC180910702909108028230A1
:1055A000910599F18A309105C1F1892B09F010C15B
:1055B0004091F1075091F2076091ED077091EE076D
:1055C0008091E3079091E4070E942C9B9093EC0755
:1055D0008093EB074091D4075091D5076091D00795
:1055E0007091D1078091C6079091C7070E942C9BAC
:1055F0009093CF078093CE0783EE97E00E9495CCDF
:1056000086EC97E00E9495CCE3C0C0910405C0FFF2
:105610000BC0C0910405C1FF70C0809105058823AF
:1056200009F4D6C0E7DAD4C02AE037ED43EA5CE3F8
:105630006091490C70914A0C80914B0C90914C0CEC
:105640000E9460D88090F0049090F104A090F20441
:10565000B090F304C4FBDD27D0F9C4FF05C020E0FF
:1056600030E040E85FEB04C020E030E040E85FE37A
:105670000E9460D89B01AC01C501B4010E94B6D460
:105680004B015C016093F0047093F1048093F20489
:105690009093F30420E030E0A9010E9493D587FFA6
:1056A00007C0DD2329F0809104058F7E80930405D7
:1056B00020E030E044EB53E4C501B4010E9410D86F
:1056C00018163CF48091040584FD03C0806180932A
:1056D0000405E12CF12C04EB13E420E030E0A901F7
:1056E000C501B4010E94E99A6093F0047093F1043B
:1056F0008093F2049093F3048CCF2AE037ED43EAD1
:105700005CE36091490C70914A0C80914B0C909134
:105710004C0C0E9460D88090F8049090F904A090FE
:10572000FA04B090FB04C3FBDD27D0F9C3FF05C02A
:1057300020E030E040E85FEB04C020E030E040E8EB
:105740005FE30E9460D89B01AC01C501B4010E94D7
:10575000B6D44B015C016093F8047093F904809314
:10576000FA049093FB0420E030E044EB52EC0E94FA
:1057700093D587FF07C0DD2329F080910405877F3B
:105780008093040520E030E044EB52E4C501B4010D
:105790000E9410D818163CF48091040583FD03C0C4
:1057A000886080930405E12CF12C04EB12E420E0E6
:1057B00030E044EB52ECC501B4010E94E99A6093D9
:1057C000F8047093F9048093FA049093FB0425CFB6
:1057D000DF91CF911F910F91FF90EF90BF90AF900D
:1057E0009F908F900895CF93DF9383E39CE00E9476
:1057F0008C1B10920F0C1092100C1092120C109225
:10580000110C1092130C1092160C1092180C10928E
:10581000170C1092190C10921A0C10921B0C10926B
:105820001C0C10921D0C1092CF0B1092D00B1092EA
:10583000D10B1092D20B1092CB0B1092CC0B10927A
:10584000CD0B1092CE0B1092C70B1092C80B10927A
:10585000C90B1092CA0B6FEA77E189E99BE00E94BD
:105860009FB668EB7CE08CE09BE00E944E1884E2DF
:105870009AE00E94FA4F84EF92E09093250A809379
:10588000240A86EC99E00E94198329E93BE04CE068
:105890005BE066EC79E080E098E00E949618C1E059
:1058A000D0E0D093F807C093F7071092FF0766E1A6
:1058B00070E283EE97E00E949FB683EE97E09093AC
:1058C000360F8093350FD093DB07C093DA0781E062
:1058D0008093E20766E170E286EC97E00E949FB653
:1058E00086EC97E09093380F8093370F84E196E031
:1058F0000E944BBC8DEE96E00E944BBC8BE395E082
:105900000E944BBC64E17EE08AE395E00E949FB672
:1059100083E995E09093200E80931F0EFC0180E0B8
:1059200090E024917996222311F00196FACF80938A
:10593000210E63E070E08AEE94E00E94EDCCDF91EE
:10594000CF91089580E692E090930108809300083B
:10595000089520E632E0FC01318320830895FC01A4
:10596000A3ADB4ADAA5BBF4F86A5992787FD9095DF
:105970008D939C9383A994A9009749F0DC01AF53C0
:10598000BF4F26A5332727FD30952D933C930895CF
:1059900080E0089580E0089580E0089580E0089513
:1059A00080E0089581E0089520E632E0FC01318333
:1059B00020830C94184AFC0183A994A9009711F044
:1059C0000C94A05080E00895A8E0B0E0EAEEFCE27C
:1059D0000C94D6DA98878F837A836983DC01D59615
:1059E000AD90BC90D697A114B104F1F0F50181857A
:1059F0008823D1F080858823B9F080819181A281AC
:105A0000B381BC01CD019F7720E030E0A9010E9465
:105A100010D818164CF4D50192968C9180FB332443
:105A200030F880FF6DC002C0312C6AC0D50152969B
:105A30006D917D918D919C915597E981FA8160835B
:105A4000718382839383AF81B8859D969C9019144E
:105A50000CF056C0EF81F885FF960190F081E02DA3
:105A600027853089223031050CF44AC0C3A0D4A068
:105A7000E5A0F6A0F501268D378D40A151A10E9429
:105A800060D82B013C01692D772767FD7095872F22
:105A9000972F0E9435D64B015C019B01AC01C701D9
:105AA000B6010E94B6D46B837C838D839E83A5014F
:105AB0009401C701B6010E94B5D49B01AC01EB80F3
:105AC000FC800D811E81C301B2010E94E99AAF8161
:105AD000B885D596ED91FC91D697309729F0268D13
