:020000040801F1
:1000000000040020DD120108E5C10708E9C1070866
:100010004DC20708E9C1070819C20708DF12010825
:10002000DF120108DF120108DF120108DD8E0C0863
:10003000DF120108DF120108DF120108DF120108D8
:10004000DF120108DF120108DF120108DF120108C8
:10005000DF120108DF120108B5A00C08E5A00C08AA
:1000600015A10C0845A10C0875A10C08AD4A0C0897
:10007000D94A0C08094B0C08394B0C08694B0C0881
:10008000954B0C08C54B0C0829490C08DF120108D8
:10009000DF120108DF120108DF120108A5A10C0818
:1000A000DF120108DF120108DF120108DF12010868
:1000B000DF120108DF120108D55B0C08DF1201080E
:1000C000DF12010865510C0819530C08DF120108F2
:1000D000DF12010829620C08DF120108DF12010893
:1000E00011A20C08DF120108DF120108DF1201085B
:1000F000DF120108DF120108DF120108F54B0C08BE
:10010000DF120108DF120108B59E0C08DF1201089A
:1001100041620C08DF120108DF120108DF1201083A
:10012000254C0C08514C0C08814C0C08B14C0C08A7
:10013000E14C0C08DF120108DF120108DF12010890
:10014000DF120108DF120108DF120108E5950C0833
:100150000D4D0C083D4D0C086D4D0C0859620C08F6
:10016000DF120108DF120108DF120108DF120108A7
:10017000DF120108DF120108DF120108DF12010897
:10018000DF120108DF120108DF120108DF12010887
:10019000DF120108DF120108DF120108DF12010877
:1001A000DF120108DF120108DF120108DF12010867
:1001B000DF120108DF120108DF120108DF12010857
:1001C000DF120108DF120108DF120108DF12010847
:1001D000DF120108DF120108DF120108DF12010837
:1001E000B533010859640108A1E30108DDA1020843
:1001F0008DF30308D9780408CD7B040869FF04084F
:10020000B1060508E9090508557A0508717606085A
:10021000F9C60708293A0B0801400B08B55C0B0822
:10022000D17C0B08F1460C08000000000000000023
:10023000D0400B1CD1409C46203AD3401843524238
:100240006346934018437047D0400B1C1141203A3D
:1002500003D49C46134118436346524293401843CB
:10026000704700BF9140031C90409C46203A934049
:10027000194352426346D3401943704781F000410D
:1002800002E000BF83F0004330B54FEA41044FEA7B
:10029000430594EA050F08BF90EA020F1FBF54EA16
:1002A000000C55EA020C7FEA645C7FEA655C00F0B2
:1002B000E2804FEA5454D4EB5555B8BF6D420CDD83
:1002C0002C4480EA020281EA030382EA000083EA06
:1002D000010180EA020281EA0303362D88BF30BDA6
:1002E00011F0004F4FEA01314FF4801C4CEA1131FC
:1002F00002D0404261EB410113F0004F4FEA03335B
:100300004CEA133302D0524263EB430394EA050FE5
:1003100000F0A780A4F10104D5F1200E0DDB02FA54
:100320000EFC22FA05F2801841F1000103FA0EF2E8
:10033000801843FA05F359410EE0A5F120050EF1AE
:10034000200E012A03FA0EFC28BF4CF0020C43FADF
:1003500005F3C01851EBE37101F0004507D54FF0EC
:10036000000EDCF1000C7EEB00006EEB0101B1F53C
:10037000801F1BD3B1F5001F0CD349085FEA300082
:100380004FEA3C0C04F101044FEA445212F5800F8D
:1003900080F09A80BCF1004F08BF5FEA500C50F12A
:1003A000000041EB045141EA050130BD5FEA4C0C0D
:1003B000404141EB010111F4801FA4F10104E9D196
:1003C00091F0000F04BF01460020B1FA81F308BF8D
:1003D0002033A3F10B03B3F120020CDA0C3208DD59
:1003E00002F1140CC2F10C0201FA0CF021FA02F134
:1003F0000CE002F11402D8BFC2F1200C01FA02F1A4
:1004000020FA0CFCDCBF41EA0C019040E41AA2BFC8
:1004100001EB0451294330BD6FEA04041F3C1CDA90
:100420000C340EDC04F11404C4F1200220FA04F0B0
:1004300001FA02F340EA030021FA04F345EA03015A
:1004400030BDC4F10C04C4F1200220FA02F001FA1C
:1004500004F340EA0300294630BD21FA04F029469E
:1004600030BD94F0000F83F4801306BF81F4801137
:100470000134013D4EE77FEA645C18BF7FEA655CAA
:1004800029D094EA050F08BF90EA020F05D054EA7C
:10049000000C04BF1946104630BD91EA030F1EBF81
:1004A0000021002030BD5FEA545C05D14000494185
:1004B00028BF41F0004130BD14F580043CBF01F578
:1004C000801130BD01F0004545F0FE4141F470015E
:1004D0004FF0000030BD7FEA645C1ABF1946104639
:1004E0007FEA655C1CBF0B46024650EA013406BF3A
:1004F00052EA033591EA030F41F4002130BD00BFF9
:1005000090F0000F04BF0021704730B54FF48064B5
:1005100004F132044FF000054FF0000150E700BF36
:1005200090F0000F04BF0021704730B54FF4806495
:1005300004F1320410F0004548BF40424FF0000182
:100540003EE700BF42004FEAE2014FEA31014FEAC5
:1005500002701FBF12F07F4393F07F4F81F0605114
:10056000704792F0000F14BF93F07F4F704730B583
:100570004FF4607401F0004521F0004120E700BF16
:1005800050EA010208BF704730B54FF000050AE09D
:1005900050EA010208BF704730B511F0004502D59E
:1005A000404261EB41014FF4806404F132045FEAA0
:1005B000915C3FF4DCAE4FF003025FEADC0C18BF45
:1005C00003325FEADC0C18BF033202EBDC02C2F13B
:1005D000200300FA03FC20FA02F001FA03FE40EACD
:1005E0000E0021FA02F11444C1E600BF70B54FF0CD
:1005F000FF0C4CF4E06C1CEA11541DBF1CEA1355AF
:1006000094EA0C0F95EA0C0F00F0DEF82C4481EA16
:10061000030621EA4C5123EA4C5350EA013518BF36
:1006200052EA033541F4801143F4801338D0A0FB23
:1006300002CE4FF00005E1FB02E506F00042E0FBD0
:1006400003E54FF00006E1FB03569CF0000F18BFD6
:100650004EF0010EA4F1FF04B6F5007F64F540747E
:1006600004D25FEA4E0E6D4146EB060642EAC62111
:1006700041EA55514FEAC52040EA5E504FEACE2E7E
:10068000B4F1FD0C88BFBCF5E06F1ED8BEF1004F81
:1006900008BF5FEA500E50F1000041EB045170BDFD
:1006A00006F0004646EA010140EA020081EA030141
:1006B000B4EB5C04C2BFD4EB0C0541EA045170BD3D
:1006C00041F480114FF0000E013C00F3AB8014F1B7
:1006D000360FDEBF002001F0004170BDC4F1000400
:1006E000203C35DA0C341BDC04F11404C4F1200581
:1006F00000FA05F320FA04F001FA05F240EA0200DC
:1007000001F0004221F0004110EBD37021FA04F611
:1007100042EB06015EEA430E08BF20EAD37070BDCB
:10072000C4F10C04C4F1200500FA04F320FA05F02A
:1007300001FA04F240EA020001F0004110EBD3702C
:1007400041F100015EEA430E08BF20EAD37070BD9C
:10075000C4F1200500FA05F24EEA020E20FA04F375
:1007600001FA05F243EA020321FA04F001F0004124
:1007700021FA04F220EA020000EBD3705EEA430E95
:1007800008BF20EAD37070BD94F0000F0FD101F0C4
:100790000046400041EB010111F4801F08BF013CFD
:1007A000F7D041EA060195F0000F18BF704703F03B
:1007B0000046520043EB030313F4801F08BF013DC2
:1007C000F7D043EA0603704794EA0C0F0CEA13557E
:1007D00018BF95EA0C0F0CD050EA410618BF52EA38
:1007E0004306D1D181EA030101F000414FF000003E
:1007F00070BD50EA410606BF1046194652EA43064C
:1008000019D094EA0C0F02D150EA013613D195EABF
:100810000C0F05D152EA03361CBF104619460AD107
:1008200081EA030101F0004141F0FE4141F4700111
:100830004FF0000070BD41F0FE4141F4780170BD01
:1008400070B54FF0FF0C4CF4E06C1CEA11541DBF66
:100850001CEA135594EA0C0F95EA0C0F00F0A7F868
:10086000A4EB050481EA030E52EA03354FEA013195
:1008700000F088804FEA03334FF0805545EA1313A8
:1008800043EA12634FEA022245EA111545EA106570
:100890004FEA00260EF000419D4208BF964244F107
:1008A000FD0404F5407402D25B084FEA3202B61A26
:1008B00065EB03055B084FEA32024FF480104FF4FA
:1008C000002CB6EB020E75EB030E22BFB61A75466E
:1008D00040EA0C005B084FEA3202B6EB020E75EB01
:1008E000030E22BFB61A754640EA5C005B084FEA69
:1008F0003202B6EB020E75EB030E22BFB61A754636
:1009000040EA9C005B084FEA3202B6EB020E75EB40
:10091000030E22BFB61A754640EADC0055EA060E01
:1009200018D04FEA051545EA16754FEA06164FEA44
:10093000C30343EA52734FEAC2025FEA1C1CC0D1F0
:1009400011F4801F0BD141EA00014FF000004FF07D
:10095000004CB6E711F4801F04BF01430020B4F13E
:10096000FD0C88BFBCF5E06F3FF6AFAEB5EB030CF6
:1009700004BFB6EB020C5FEA500C50F1000041EBF3
:10098000045170BD0EF0004E4EEA113114EB5C04C0
:10099000C2BFD4EB0C0541EA045170BD41F4801193
:1009A0004FF0000E013C90E645EA060E8DE60CEA9B
:1009B000135594EA0C0F08BF95EA0C0F3FF43BAFB8
:1009C00094EA0C0F0AD150EA01347FF434AF95EA6F
:1009D0000C0F7FF425AF104619462CE795EA0C0F53
:1009E00006D152EA03353FF4FDAE1046194622E720
:1009F00050EA410618BF52EA43067FF4C5AE50EAFA
:100A000041047FF40DAF52EA43057FF4EBAE12E7E9
:100A10004FF0FF3C06E000BF4FF0010C02E000BFCA
:100A20004FF0010C4DF804CD4FEA410C7FEA6C5CAD
:100A30004FEA430C18BF7FEA6C5C1BD001B050EA50
:100A4000410C0CBF52EA430C91EA030F02BF90EA3B
:100A5000020F0020704710F1000F91EA030F58BFFA
:100A6000994208BF90422CBFD8176FEAE37040F05C
:100A7000010070474FEA410C7FEA6C5C02D150EAFA
:100A8000013C07D14FEA430C7FEA6C5CD6D152EAB5
:100A9000033CD3D05DF8040B704700BF844610467A
:100AA00062468C461946634600E000BF01B5FFF779
:100AB000B7FF002848BF10F1000F01BD4DF808ED49
:100AC000FFF7F4FF0CBF012000205DF808FB00BF1A
:100AD0004DF808EDFFF7EAFF34BF012000205DF874
:100AE00008FB00BF4DF808EDFFF7E0FF94BF0120C1
:100AF00000205DF808FB00BF4DF808EDFFF7CEFFC2
:100B000094BF012000205DF808FB00BF4DF808ED00
:100B1000FFF7C4FF34BF012000205DF808FB00BFD1
:100B20004FEA410C7FEA6C5C02D150EA013C0AD1E9
:100B30004FEA430C7FEA6C5C02D152EA033C02D1DB
:100B40004FF0000070474FF0010070474FEA41023C
:100B500012F5001215D211D56FF47873B3EB62520F
:100B600012D94FEAC12343F0004343EA505311F036
:100B7000004F23FA02F018BF404270474FF00000C8
:100B8000704750EA013005D111F0004008BF6FF006
:100B9000004070474FF00000704700BF4A0011D27C
:100BA00012F5001211D20DD56FF47873B3EB6252C7
:100BB0000ED44FEAC12343F0004343EA505323FAD3
:100BC00002F070474FF00000704750EA013002D148
:100BD0004FF0FF3070474FF0000070474FEA41027E
:100BE000B2F1E04324BFB3F5001CDCF1FE5C0DD98B
:100BF00001F0004C4FEAC0024CEA5070B2F1004FD5
:100C000040EB830008BF20F00100704711F0804FD7
:100C100021D113F13872BCBF01F00040704741F49C
:100C200080114FEA5252C2F11802C2F1200C10FAA0
:100C30000CF320FA02F018BF40F001004FEAC12384
:100C40004FEAD32303FA0CFC40EA0C0023FA02F328
:100C50004FEA4303CCE77FEA625307D150EA0133FE
:100C60001EBF4FF0FE4040F44000704701F00040CE
:100C700040F0FE4040F40000704700BF80F00040AC
:100C800002E000BF81F0004142001FBF5FEA410364
:100C900092EA030F7FEA226C7FEA236C6AD04FEA64
:100CA0001262D2EB1363C1BFD218414048404140A9
:100CB000B8BF5B42192B88BF704710F0004F40F45B
:100CC000000020F07F4018BF404211F0004F41F477
:100CD000000121F07F4118BF494292EA030F3FD043
:100CE000A2F1010241FA03FC10EB0C00C3F1200356
:100CF00001FA03F100F0004302D5494260EB4000E5
:100D0000B0F5000F13D3B0F1807F06D340084FEA4F
:100D1000310102F10102FE2A51D2B1F1004F40EB44
:100D2000C25008BF20F0010040EA030070474900AC
:100D300040EB000010F4000FA2F10102EDD1B0FA77
:100D400080FCACF1080CB2EB0C0200FA0CF0AABF6C
:100D500000EBC25052421843BCBFD040184370470A
:100D600092F0000F81F4000106BF80F40000013210
:100D7000013BB5E74FEA41037FEA226C18BF7FEAE7
:100D8000236C21D092EA030F04D092F0000F08BF29
:100D90000846704790EA010F1CBF0020704712F010
:100DA0007F4F04D1400028BF40F00040704712F14F
:100DB00000723CBF00F50000704700F0004343F0B4
:100DC000FE4040F4000070477FEA226216BF0846EA
:100DD0007FEA23630146420206BF5FEA412390EAAD
:100DE000010F40F4800070474FF0000304E000BFA3
:100DF00010F0004348BF40425FEA000C08BF704754
:100E000043F0964301464FF000001CE050EA010217
:100E100008BF70474FF000030AE000BF50EA01022C
:100E200008BF704711F0004302D5404261EB410119
:100E30005FEA010C02BF84460146002043F0B6433E
:100E400008BFA3F18053A3F50003BCFA8CF2083A63
:100E5000A3EBC25310DB01FA02FC634400FA02FC6C
:100E6000C2F12002BCF1004F20FA02F243EB020073
:100E700008BF20F00100704702F1200201FA02FCD5
:100E8000C2F1200250EA4C0021FA02F243EB0200C8
:100E900008BF20EADC7070477BB972B90029BEBF79
:100EA00000204FF0004106E008BF00281CBF6FF093
:100EB00000414FF0FF3000F00FBAADF1080C6DE9C2
:100EC00004CE002909DB002B1ADB00F097F8DDF8CF
:100ED00004E0DDE9022304B07047404261EB4101C8
:100EE000002B1BDB00F08AF8DDF804E0DDE90223CB
:100EF00004B0404261EB4101524263EB430370474F
:100F0000524263EB430300F079F8DDF804E0DDE9D9
:100F1000022304B0404261EB41017047524263EB4F
:100F2000430300F06BF8DDF804E0DDE9022304B0D0
:100F3000524263EB4303704753B94AB9002908BFD3
:100F400000281CBF4FF0FF314FF0FF3000F0C4B954
:100F5000ADF1080C6DE904CE00F050F8DDF804E0C6
:100F6000DDE9022304B07047430803F05533C01A8B
:100F7000830803F0333300F03330184400EB1010D3
:100F800000F00F3000EB002000EB0040000E704737
:100F900080EA104080EA102080EA101046F696138E
:100FA00000F00F0043FA00F000F00100704700BFAE
:100FB000D0B5FFF7C7FA00220E4B06460F46FFF7E3
:100FC00015FBFFF7EBFD0446FFF79AFA00220A4BE8
:100FD000FFF70CFB02460B4630463946FFF752F945
:100FE000FFF7DCFD2346002242EA000210461946C4
:100FF000D0BD00BF0000F03D0000F0412DE9F047FA
:101000008C460D460446089E002B51D18A42174655
:101010006DD9B2FA82FEBEF1000F0BD0CEF1200CDA
:1010200001FA0EF520FA0CFC02FA0EF74CEA050C58
:1010300000FA0EF44FEA174A250CBCFBFAF81FFA27
:1010400087F90AFB18CC45EA0C4508FB09F3AB42CB
:101050000AD9ED1908F1FF3280F02381AB4240F24A
:101060002081A8F102083D44ED1AA4B2B5FBFAF0C4
:101070000AFB105544EA054400FB09F9A14509D9CA
:10108000E41900F1FF3380F00A81A14540F20781A5
:1010900002383C44A4EB090440EA08400021002E39
:1010A00061D024FA0EF4002334607360BDE8F08749
:1010B0008B4207D9002E54D0002186E82100084633
:1010C000BDE8F087B3FA83F1002940F08E80AB428F
:1010D00002D3824200F2FA80841A65EB03050120F4
:1010E000AC46002E3FD086E81010BDE8F08712B95C
:1010F0000127B7FBF2F7B7FA87FEBEF1000F34D134
:10110000EB1B3A0C1FFA87FC0121B3FBF2F8250C0C
:1011100002FB183345EA03450CFB08F3AB4207D941
:10112000ED1908F1FF3002D2AB4200F2D1808046C7
:10113000ED1AA3B2B5FBF2F002FB105543EA0544E9
:101140000CFB00FCA44507D9E41900F1FF3302D2DF
:10115000A44500F2B8801846A4EB0C0440EA08400D
:101160009DE731463046BDE8F087CEF1200405FA10
:101170000EF307FA0EF720FA04F83A0C25FA04F4F5
:1011800048EA0308B4FBF2F14FEA184502FB1144A8
:101190001FFA87FC45EA044501FB0CF3AB4200FA59
:1011A0000EF409D9ED1901F1FF3080F08A80AB42CD
:1011B00040F2878002393D44EB1A1FFA88F5B3FBF1
:1011C000F2F002FB103345EA034500FB0CF3AB429F
:1011D00007D9ED1900F1FF386FD2AB426DD9023853
:1011E0003D44EB1A40EA01418FE7C1F1200722FAA2
:1011F00007F88B4005FA01F448EA030320FA07FEDA
:101200004FEA134CFD404EEA040EB5FBFCF94FEAE1
:101210001E440CFB19551FFA83F844EA054509FBE7
:1012200008F4AC4202FA01F200FA01FA08D9ED180A
:1012300009F1FF3043D2AC4241D9A9F102091D4462
:101240002D1B1FFA8EFEB5FBFCF00CFB10554EEA71
:10125000054400FB08F8A04507D9E41800F1FF3564
:1012600029D2A04527D902381C4440EA0940A4EB02
:101270000804A0FB02894C45C6464D4615D312D042
:1012800056B1BAEB0E0364EB050404FA07F7CB4042
:101290001F43CC40376074600021BDE8F0871846DA
:1012A000F8E69046E0E6C245EAD2B8EB020E69EBFA
:1012B00003050138E4E72846D7E7404691E7814631
:1012C000BEE7014678E702383C4445E7084608E7B0
:1012D000A8F102083D442BE7704700BF02E000F090
:1012E00000F8FEE772B6394880F30888384880F382
:1012F000098838484EF60851CEF20001086040F2E5
:101300000000CCF200004EF63471CEF2000108600D
:10131000BFF34F8FBFF36F8F40F20000C0F2F000B9
:101320004EF68851CEF200010860BFF34F8FBFF335
:101330006F8F4FF00000E1EE100A4EF63C71CEF2D6
:1013400000010860062080F31488BFF36F8FB7F0A8
:1013500003FEB8F041FD4FF055301F491B4A914242
:101360003CBF41F8040BFAE71C49194A91423CBFC3
:1013700041F8040BFAE71A491A4A1B4B9A423EBF3E
:1013800051F8040B42F8040BF8E700201749184AFB
:1013900091423CBF41F8040BFAE7B7F0E1FDB8F029
:1013A00077FD144C144DAC4203DA54F8041B884703
:1013B000F9E701F0EFFF114C114DAC4203DA54F89C
:1013C000041B8847F9E7B7F0C9BD000000040020FE
:1013D000002400200000010800000020000400207C
:1013E000E01E0F0800240020442800204828002088
:1013F000BC1A0120E00101082802010828020108A6
:10140000280201082DE9F04F2DED108AC1F80CD00B
:10141000C3689D46BDEC108ABDE8F08FB6F004FDB0
:10142000002383F311882846A0470020B6F0A0FED1
:10143000B6F0F4FCB6F02AFCB6F0F6FC00DFFEE7EE
:1014400010F8012B11F8013B012A28BF9A42F7D06E
:10145000D01A7047034613F8012B002AFBD1181A43
:1014600001387047074A13780133DBB21D2B98BF50
:10147000137003684FF0000188BF11709B6888BF2C
:1014800001211847002400202DE9F0418368012B39
:101490009CB004460D4600F09680990600F19380BA
:1014A00001201CB0BDE8F081564E41F27843F3565E
:1014B0008BB142F2341241F27A43B258F35EB2F980
:1014C0000A1003F10A02914240F38B8040F28D3200
:1014D000934240F3868041F2384341F65832F35A42
:1014E000A3F57A739BB293427DD843F23C23464ADC
:1014F000F35892ED007AD3ED097AB4EEE77AF1EE83
:1015000010FA01DD414B66E092ED017AD3ED0A7AE3
:10151000B4EEE77AF1EE10FAF4DC41F27443F35ED4
:10152000002B01DC3A4B56E041F2B067F25D0D2A28
:1015300004D84FF42153D340DA0756D4354B4AE050
:101540000DF108083222414633485EF0D5F848B91B
:10155000324BCDF800802A462021204666F070FEEE
:1015600000209EE7F3570D2B06D045F02DFD2B21D3
:1015700045F0C0FB002842D145F026FD202145F072
:10158000B9FB08B9264B26E042F67923F35CDB066B
:1015900001D5244B1FE02448244900680FAF3223B3
:1015A0003A465DF06FFC10B90097214BD3E743F248
:1015B0003C2032233A461F4930585CF0C1FA0028DB
:1015C0007FF46FAFF0E745F0FFFC45F0A7FB002884
:1015D0003FF46AAF184B2A462021204666F030FEC1
:1015E000BEE7164BF7E7164BF5E7164B186803688E
:1015F00029469B6C98470028A2D1134BEBE7134B6D
:10160000E9E700BF58280020003D0020610F0D08C9
:10161000C10E0D08750F0D08285D00203C800D08D7
:10162000F00E0D080F0F0D08985A0020240F0D081A
:10163000280F0D083A0F0D08A40E0D083E0F0D08D7
:10164000510F0D08D8520020D60E0D088E0F0D0830
:1016500010B5064B1B685B7913F0040404D1044AEF
:1016600066F03CFF204610BD012010BDD85200207E
:10167000580E0D0813B58368012B0A4604D05B068B
:1016800002D4012002B010BD0B4B41F278415956F3
:101690000029F6D042F234115C5841F27A41595E89
:1016A000B4F906309942ECDD044B00934021044B21
:1016B00066F0C6FD0020E5E7582800207C100D08E4
:1016C0003C800D0870B58EB005460E46322201A949
:1016D000094857F039F8044640B99DF9043043B938
:1016E000064B074A3146284666F0F8FE20460EB003
:1016F00070BD01ABF5E700BF7847002098100D08DA
:101700003C800D082DE9F0438FB00F46064616F0D9
:1017100053F80368D3F8B43004469847054680B9B7
:10172000236820465B6A98473F4B404A002818BF11
:1017300003463946304666F0D1FE28460FB0BDE874
:10174000F0833B4A43F21C63D05803689B68984778
:101750008146384856F05EF900F00608B9F1000FEE
:1017600002D1B8F1000FE8D0314812F0EDFBB8B962
:10177000236820465B6A9847034640B9B9F1000FD9
:101780000CD12D482D4BB8F1000F18BF0346274A46
:101790003946304666F0A2FE0025CEE7274BF6E735
:1017A00004A9204615F0FCFE48B19DF811305B06F7
:1017B00005D5234A3946304666F090FEECE7002313
:1017C0000B930C930D9309930A9309AA2368029231
:1017D0000DF12C0908AA0192CDF80090D3F8D4801D
:1017E00006AA07AB05A92046C047DFF86080D8ED00
:1017F000007AF5EEC07AF1EE10FA09DD48462BF0DA
:1018000023FFD8ED007AB4EEE70AF1EE10FA08DA19
:1018100004F5A871064805F0BDF900288DD0094AE5
:10182000C8E7094AC6E700BF0C100D083C800D0848
:1018300058280020505B002029100D081D100D08AD
:1018400044100D0852100D0864100D08EC3C0020E7
:1018500008B5FFF757FF014BD87108BD5568002048
:1018600008B5064A42F67923D35C9B0704D5044A9F
:1018700066F034FE002008BD012008BD5828002075
:10188000B40F0D0870B52C4B1B680546587910F045
:1018900001040E4647D145F097FB202145F02AFA76
:1018A00030B145F091FB1F2145F024FA00283CD1CE
:1018B00042F65A23214AD35C03F01403142B04D1BB
:1018C0001F4A3146284666F009FEAB6833B92B68DB
:1018D000314628461B6BBDE8704018473146284604
:1018E00067F0CAF9314604462846FFF7CDFD314678
:1018F00004402846FFF7ACFEE4B2314604402846D7
:10190000FFF7B8FE314604402846FFF7DBFE3146BC
:1019100004402846FFF7A4FF31460440284667F0FC
:101920005BF9204070BD012070BD2846054A314654
:1019300066F0D4FD204670BDD85200205828002003
:10194000C40F0D08DC0F0D0810B5FFF79BFF05490C
:1019500042F658228C5C60F304148C54024A907155
:1019600010BD00BF582800205568002008B5034866
:1019700061F076FC00F0010008BD00BF745A002041
:10198000F8B506460F4666F0C5FC044620B1B368BC
:10199000012B03D09A0701D42046F8BD134861F00B
:1019A0005FFCC0F30025002DF6D18305F4D50F4868
:1019B00061F000FC43F2E4130D4AD35807EE903A6D
:1019C000F8EEE77A30EE670ADFED0A7AB0EEC00A89
:1019D000B4EEE70AF1EE10FADEDD074B3A460221DB
:1019E000304666F02DFC2C46D6E700BF745A002026
:1019F000582800200000C842900E0D08F8B5064691
:101A00000F4666F0D7FDB368012B044603D05B0791
:101A100001D42046F8BD18F0A7FF18F077FE054660
:101A20000028F6D1034B3A460421304666F008FC04
:101A30002C46EEE7780E0D08F8B504460F4666F022
:101A40002DFFA368012B054603D0DB0601D42846F1
:101A5000F8BD2046FFF78AFF06460028F7D1044B61
:101A60003A461021204666F0EBFB3546EFE700BF13
:101A7000440E0D0838B504460D4666F07FFBC8B12C
:101A8000A368012B08D01B0606D438BD2946204682
:101A9000BDE8384066F068BF42F66573064AD35C1D
:101AA000002BF3D02046054B2A46802166F0C8FB68
:101AB000002038BD38BD00BF58280020F80F0D08A1
:101AC000F0B542F22C13124C85B0E358009342F269
:101AD00030136A46E358019342F234130646E35842
:101AE000029342F238130F46E358039367F0EAF883
:101AF00039460546304666F0CBFB42F65822284070
:101B0000A35C60F3C303C3F3C000A35405B0F0BDEE
:101B1000582800202DE9F84306468846FFF7F2FDD5
:101B20001D4F044610B90024FC7113E01B4D43F215
:101B30001C63E85803689B6898478146184855F02D
:101B400069FF2B46B9F1000F07D110F0060F04D141
:101B50000123FB712046BDE8F883B268012A01D059
:101B60001207F5D593F8302241F25E4103EBC21221
:101B70005B5EB2F8C8209A4206DD0A4B4246082155
:101B8000304666F05DFBCEE74146304666F0DCFB52
:101B90000028DDD1C7E700BF556800205828002085
:101BA000505B0020340E0D0870B586B005460E4619
:101BB00066F0B4FC044620B1AB68012B04D09B0650
:101BC00002D4204606B070BD154843F2A533C35C6D
:101BD000002BF6D005AA04A900F5B45051F0E6FB9D
:101BE0000028EED0DDED057A9FED0E7AF4EEC77A8F
:101BF000F1EE10FAE5D817EE900AFEF7A3FCDDED42
:101C0000047A094BFDEEE77ACDE90201CDED007AC9
:101C100032462021284666F013FB0024D1E700BF9E
:101C2000582800209A99193FB0100D082DE9F34764
:101C30008946054615F0C0FD0368D3F8B0308246EA
:101C40009847044640B9674A0121284666F046FC99
:101C5000204602B0BDE8F087634F42F65C2309F1ED
:101C6000FF3617F8038043F21C637142F85803688B
:101C700071411B6998473E46044608B95B4AE3E751
:101C800001212846FFF7E4FC04460028E0D042F694
:101C90005A23FB5C03F01403142B05D1544A012191
:101CA000284666F01BFC8DE045F08EF91F2145F0BB
:101CB00021F8D0B94F4B1870AB68002BC8D0012B5E
:101CC0005ED0DC065CD4AB68012B7DD098067BD45B
:101CD00059061ED4484B1B68986C03689B6998474B
:101CE0000128014645D1454ADAE745F06DF91F2143
:101CF00045F000F80028DFD03E4B1B78002BDBD0EE
:101D000043F05EFB3E4A02213DF09EF85AE0012B73
:101D1000DED141F27843F3564BB142F2341341F233
:101D20007A42F358B25EB3F906309A4255DCB9F103
:101D3000010F04D108F0EF08B8F1040FCAD042F245
:101D400034132948F358B3F9083000EE103AB8EECE
:101D5000C00A00F0F5FAB5EEC00AF1EE10FAB9DDEE
:101D6000284B0093284B01224021284666F068FA50
:101D700028E04946284602B0BDE8F04766F07CBB43
:101D8000DAED5A7A9AED590A20EE270AB8F07EFD6C
:101D9000DFED1E7A41F2384320EE270AF35EDFEDD5
:101DA0001C7A20EE270A07EE903AF8EEE77AB4EEB6
:101DB000E70AF1EE10FA86DD164B012210212846C3
:101DC00066F03EFA002443E742F67922B25CD2067E
:101DD0009DD5114B01222021F1E70A4B00930F4BB7
:101DE000C1E700BF0C100D0858280020C40D0D08D5
:101DF000C40F0D0804710020A0660020F40D0D082A
:101E0000020E0D08E90D0D08DD0D0D08E02E6542EE
:101E10000000C842D50D0D080F0F0D081F0E0D084C
:101E20002DE9F843574F3D78B946002D40F0A88082
:101E3000554E33685B794FF0010813F0010F87F8B6
:101E40000080A6F52A5404D03D7045462846BDE8DA
:101E5000F88366F09BF9054630B94C4A3870137820
:101E600043F001031370F1E737F0F6FF414637F016
:101E7000BFFA204605F0B0FE454B83F804804FF0D2
:101E80000C08B8F1010804D031F052FB31F0EEFA41
:101E9000F7E7404800F0D8FD15F08EFC42F6A4228A
:101EA0008369A35090F86031DA07074657D4036876
:101EB000D3F8CC30984737F0CFFF3C2137F042FFC2
:101EC000354B00221A600021324800F055FE31489F
:101ED00012F03AF80146314864F0AAFF97F88C30C6
:101EE00043F0040387F88C302D4B1B680121986C5C
:101EF00025F0A4FB43F2CC332648E25C6FF34102A9
:101F0000E25410F0E9FC0121306863F019FD37F06C
:101F1000A3FF0A2137F016FF37F09EFF42F65D233C
:101F20000026E25C42F65C23E15C37F06DFC194868
:101F300005F044FE36F014FF36F0B0FB89F800607F
:101F40006AF0B4F943F25023E050164B9A7842F00D
:101F500020029A70DA7866F34102DA7076E79B071E
:101F6000B1D441460B4804F0AFFE0F4861F022F9AE
:101F7000DFED0E7A084B20EE270A83ED000AA2E778
:101F8000002563E748280020D85200207068002010
:101F90005568002058280020C052002030460020FC
:101FA000A0660020B0520020745A00200AD7233CBB
:101FB0002DE9F043304B1A68527912F0010F85B0C9
:101FC000984657D066F0DCF8074600284ED015F04A
:101FD000F3FB054618F0C8FC2B688146D3F8903017
:101FE00028469847B8B199F94F30022B13D10024F5
:101FF000002601AA2146284601960296039615F06E
:102000001DFB20B101AA2146484618F0FDF9013414
:10201000E4B2032CEDD10121184806F0F9F80121B2
:10202000164806F0DDF837F017FF0B2137F08AFE6F
:102030000021D8F8000063F083FC11482CF010FD5B
:1020400037F00AFF002137F0D3F995F88C306FF3A1
:10205000820385F88C300B4B1B680021986C25F0AF
:10206000EDFA094B9A786FF345129A70384605B02D
:10207000BDE8F0830127F9E7D85200205828002056
:102080002C5F0020A0660020B0520020014855F0CF
:102090001FBD00BF505B002042F6582230B4835C65
:1020A000C3F340158D4207D061F34513835419B132
:1020B0000F2130BC02F0D2BD30BC704770B542F683
:1020C00058230446C35CC3F341038B420E461CD025
:1020D00000F52555203551B1012917D0012100F017
:1020E0004BFD1D21204602F0B9FD0B4A03E01B21E8
:1020F00002F0B4FD094A062128463CF0A5FE42F64E
:102100005823E25C66F34202E25470BD1A2102F0E9
:10211000A5FD034AEFE700BF24110D0814110D08B7
:1021200029110D0842F6792238B5835C0C4603F07C
:102130000101A14208D064F300038354DB0704D4F7
:1021400005F042FA024B9C7238BD05F07DFBF9E7C1
:102150005568002042F67923C25C61F34102C25403
:10216000014B1973704700BF5568002000F52950D6
:10217000837E43F0040383767047000042F67923A0
:1021800000EE101AC35CDA073ED442F65923C35C52
:102190005B0739D500F5B5530833D3ED006AF5EE8A
:1021A000C06A00F5A550F1EE10FAB8EEC07A00F161
:1021B000040004D890ED000A27EE000A7047F7EEFD
:1021C000007AF4EEE76AF1EE10FA20DCB6EE006A6F
:1021D000F4EEC66AF1EE10FA19D49FED0E6AD3ED53
:1021E000005AC7EE066A37EEE50A26EEA67A20EE1A
:1021F000260A27EE267AD0ED007AA7EE250A20EEF1
:10220000060A20EE270A70479FED030A7047C3EDC8
:10221000007AE2E700A08C45000000007047000053
:1022200000F5495000685CF047BD000008B500F5B6
:102230002A50006803681B689847F6EE007A20EE83
:10224000270ADFED057AB4EE670AF1EE10FA48BF0F
:10225000B0EE670A08BD00BF0000000007B500F53A
:10226000495302A91A6821ED010A00F5485300F507
:102270004E5092ED080A93ED061AD2ED390A183045
:1022800056F050FC9DED010A03B05DF804FB000020
:1022900038B52DED028B43F23C230446C358DFEDE5
:1022A000100A93ED2B0AB7EE001A28F023FC04F570
:1022B000495304F52A541D68206803681B68B0EE72
:1022C000408A984738EE400ABDEC028BDFED057A74
:1022D0002835284620EE270ABDE8384059F09ABA3A
:1022E0000000000000007A4400F51A5300F51B506E
:1022F000D3ED0F5AD2ED007AD0ED026A91ED006A6B
:1023000026EEE77A67EEA57AA6EE257AE6EE267A3D
:1023100081ED007AC2ED007A7047000041F68863D3
:10232000C35E3BB941F27443C05E0028B8BF40426F
:1023300080B2704783EAE370A0EBE370F8E7000037
:1023400070B52DED068B42F679230446C15C11F081
:102350000105B0EE408A04D09FED2A0ABDEC068B41
:1023600070BD42F65923C35C5B07F5D541F27C464C
:1023700010F0D4FBA35F9FED249ADFED220A01EE5B
:10238000103A07EE900AF8EEC19AB0EE480AB0EEA5
:10239000491AF8EEE78A28F0ADFB38EEE9AA4FF4C7
:1023A000C8722946A05FB0EE408A28F09BFBB4EECD
:1023B000CA8AF1EE10FAA0530DD52046FFF7AEFF02
:1023C00007EE900A38EE4A8AB8EEE70A20EE088A4D
:1023D00088EE0A0AC2E738EEA91AB4EEC81AF1EE7E
:1023E00010FAB9D541F2744338EE418AE35E00EE4B
:1023F000103AB8EEC00A39EE411A20EE088A88EE8B
:10240000010AABE70000000000007A44002383804B
:10241000C38003814381838183737047B0F91000C7
:102420007047000010B5847B621CD2B200EB4404FC
:10243000042A827388BF0022A18088BF8273084665
:1024400010BD000064F07ABF4BF0C6BB53F056BB22
:1024500011F020BF04F080B84EF078BE10F062BCDE
:1024600010F0F4BB10F0C8BB36F058BC26F014B91D
:1024700037F06EB960F0F6BC46F0B0B843F0F6BE87
:1024800042F05ABE0FF096BF10F0A6BD06F038B865
:1024900005F060BB04F0D8BF04F008BF30F0E6BF21
:1024A00005F0C8BD10F006B9403055F075BA00000F
:1024B00016F06ABB4CF0F6BF53F086BE0EF012B8B1
:1024C000FFF7ACBE10F0B0B84EF082BE65F0ECB9CC
:1024D00050F04CBE10F056BC03F0FEBB10F02CB810
:1024E0000FF0B0BF44F000BD33F01CB910B5044686
:1024F00034F03CFF074B084A1A60204611F058FBA5
:1025000004F502500823342204492830BDE8104065
:1025100036F0CEB9102400208C210E0884110D084D
:1025200010B5044600F50250283036F007FB04F5DC
:10253000485304F50454E2689A6110BD05F008BAE6
:1025400008F0B6BF08F018BF09F0A6B870B5164B72
:10255000036043F278530446C5582DB1284625F050
:10256000AFF8284617F04CFE42F660130F4AE250CF
:1025700042F61023E05808B117F03EFE0C4B2360E2
:1025800004F59B5045F0ECFD0A4BC4F8D03904F635
:10259000745604F55B65AE4204D0143D28463BF00A
:1025A000D9FDF8E7204670BDC8150D08401C0E087F
:1025B00040110D0814C00D080346F0B59A7B807CCD
:1025C000042A0EDC01329A739A7B013A52B2002A35
:1025D00018DD03EB4204B4F90250A94212DAA580D7
:1025E000F3E70028F0D10546013A6CB203EB44064C
:1025F000B6F90670B94219DD944205F1010515DA04
:10260000B780F2E703EB420291809A7B042ACCBFA9
:10261000DA7B02F0FE0280F00100D4BFD21803EB97
:1026200042029874B2F904001882F0BD03EB44042E
:10263000A180EAE738B50546244B45F8083B044637
:10264000203053F061FB224B22491D60284634F0B4
:102650006FFE04F138001DF0D3FF04F5427015F051
:10266000FFFE04F5876017F0CDFD04F51D6025F031
:102670006DFE04F5865010304BF048FA04F5875093
:10268000103035F0A9FA04F59B5045F055FD04F5DE
:102690009C500C3036F06AFB04F59E5010304CF024
:1026A00043FE41F2D8330021E218E15404F59F5073
:1026B000094B08301A6030F0E3FD084B1A6812B17C
:1026C000074869F0DDFD1C60204638BD40110D084B
:1026D000B467002040800D0850730020F46800208B
:1026E00070110D0810B510F0A9F944F06DFC0368E5
:1026F000BDE810405B681847FFF7F4BF10B504460B
:1027000005F084FD204610F073FF204605F018FC0C
:10271000204605F0B3FB204604F0CEF82046BDE885
:10272000104010F0FBBE0000FFF7E8BF70B500F5E9
:102730002A5528350446284617F0D6F818F014F91B
:1027400090F94D3063B304F52A5304F58766186891
:1027500038303BF0A5FEB7EE001ADFED120A90ED1F
:10276000000A28F0C7F994F9A034012B284608BFC5
:1027700086ED1B0A002116F0F7FEDFED0B7A04F65A
:10278000A81494ED007A20EE270ADFED087AA7EE70
:10279000270A304684ED000ABDE8704017F07ABE83
:1027A00070BD00BF00000000CDCCCC3D6666663F2A
:1027B000FFF7BCBF10B50121044610F07DFF60B1EA
:1027C00043F21C63054AD05803681B6A984720B936
:1027D0002046BDE8104002F0CDB910BD58280020B9
:1027E000FFF7E8BF38B50221044610F065FF68B175
:1027F0000121204610F060FF40B943F21C63444AB7
:10280000D05803681B6A984700286DD002212046E3
:1028100010F052FF00286BD10121204610F04CFF30
:10282000002865D14FF40031204610F045FF10B16B
:10283000204602F011FA4021204610F03DFF60B121
:1028400004F50555284639F0C9FB04F59B5393F967
:10285000003013B1284639F0A9FC4FF480612046BE
:1028600010F02AFF18B104F5055039F019FC2021A9
:10287000204610F021FF50B143F21C63E05803687A
:102880009B689847C0BB20460BF032FEA0BB80215E
:10289000204610F011FFA8BB4FF48021204610F015
:1028A0000BFF78BB4FF40021204610F005FF48BB1A
:1028B0001021204610F000FF88B143F23C2304F5BC
:1028C0000555E05859F0E8FC04F5B45128463AF0B3
:1028D00001FE04F5AB51143128463AF099FD20462B
:1028E000BDE8384002F036BB204602F043F98DE7E0
:1028F000204602F0A1F995E704F5495318685BF00A
:10290000A5FFC4E704F5055039F098FED0E700BFF5
:1029100058280020FFF766BF10B50121044610F0CB
:10292000CBFE10B1204602F087F98021204610F03E
:10293000C3FE18B104F5055039F08AFD2046BDE804
:10294000104002F049BB0000FFF7E6BF10B5044697
:1029500005F0CCF8204604F027FF204605F0A4F946
:102960002046BDE8104011F09BBC0000FFF7EEBF11
:1029700038B54FF6FF71044610F09EFE30B142F6B6
:1029800058230721E258204602F094F904F5235019
:1029900004F52A551C30FEF765FD2B685B79DB07D3
:1029A00011D404F51550103015F0D2F82046FFF779
:1029B000DDFB286841F28E420368A25C1B6941F28C
:1029C000B061615C984744F0BFFE204611F064FCA2
:1029D00042F6582343F23D52E35CDB43C3F3C0139A
:1029E000A354014A537138BD55680020FFF7C0BF9A
:1029F0002DE9F84300F13808054640461FF0EAF992
:102A00000F4F00264FF00C0940461DF08BFEF4B22C
:102A1000844212DA09FB045357F82420D3F880309B
:102A2000934206F10106EFD047F8243005F54950EE
:102A30001830BDE8F84360F0A1B9BDE8F88300BFE5
:102A40004C280020FFF7D4BFF8B500F51A533C33EB
:102A500000F52A561B68336100F51B53083342F218
:102A600068571B6873610446C05900F58C405030AC
:102A700027F0F0FF42F698233546E0502B463269A6
:102A8000EA616A691A624FF6FF71204610F014FE7F
:102A900030B1E25920460921BDE8F84002F0E2B821
:102AA000F8BD000010B542F65823C218C35C13F0FD
:102AB000060350D042F65921415CC9074BD55178E5
:102AC000022B6FF3000142F22C135170C358B3F97B
:102AD000083006EE103A00F52A53B8EEC66A3BD12C
:102AE00093ED047A42F23013C358B3F9083007EE7D
:102AF000903A00F52A53F8EEE77AD3ED055A65EEE1
:102B0000E76A67EE277A00F51B52E6EE257A00F5B4
:102B10001A5142F22C13E6EE076AC45892ED027A7B
:102B200091ED0F6A27EE877AA6EE867ABDEEC77A18
:102B300017EE103A238191ED0F7A67EE877A92EDC6
:102B4000027AE6EEC77A42F23013C058FDEEE77A19
:102B500017EE903A038110BD93ED077A42F23013DD
:102B6000C358B3F9083007EE903A00F52A53F8EE4F
:102B7000E77AD3ED085AC2E710B504462DED028B73
:102B800079B120460FF07AFD42F6982240F2E63104
:102B9000A3581B1A03F2F3138B420FD8BDEC028B20
:102BA00010BD42F65823C35C03F00603042BF5D195
:102BB0000FF046FDB0F57A7FE3D2EFE7A05000F5C5
:102BC0008C405030642390FBF3F308EE103ADFEDB5
:102BD0000B7AB8EEC88A28EE278AB0EE480AB7F01A
:102BE000B3FC04F52A5383ED070AB0EE480AB7F0A8
:102BF000D5FD04F52A5484ED080ACFE735FA8E3C5A
:102C000000F515500121103014F010BC10B5044629
:102C100000F51D6025F008FF43F23C23E0580368EF
:102C2000DB6A984720460FF055FB2046FFF7E8FF88
:102C3000204605F0C1F8204605F08EFA204604F043
:102C4000BFFB204605F05EFD204604F05FF82046FD
:102C500005F00AFC04F54A50203045F0C5FC4FF65B
:102C6000FF71204610F028FD20B12046BDE810403D
:102C700002F07CB810BD0000FFF7C8BF10B50446D5
:102C80000FF052FF1021204610F016FD20B1204613
:102C9000BDE8104002F066BA10BD0000FFF7EEBFBD
:102CA00030B52DED028B43F21C65044640599FED73
:102CB000178A036885B01B6C984707EE900AF8EEF8
:102CC000677A605967EE887ACDED007A0368DB6B2E
:102CD00098470190605903685B6C984743F2F4632E
:102CE00020EE080AE35A8DED020A4FF6FF7204F552
:102CF0003D50934208BF002369462830ADF80C30A0
:102D000066F014FE05B0BDEC028B30BD0AD7233C43
:102D1000FFF7C6BF10B5044616F0B2FF04F110006D
:102D200016F0AEFF04F1200016F0AAFF04F1300007
:102D300016F0A6FF204610BD2DE9F04F2DED028BB9
:102D4000044689B0FFF776FC9E4B236004F5A5503E
:102D5000183002F0C9FA9C4B0593049404AB04F5B7
:102D6000025093E80600283035F06EFD04F5A451BA
:102D7000083104F5055036F08FFA42F2E01204F5FE
:102D8000A3531E33A35042F2E413062204F5075066
:102D9000E25430303BF036FB04F508500C303BF089
:102DA00031FB42F220234FF0010904F5085004F5ED
:102DB0000A5604F5155504F5875844F8039008366B
:102DC000103508F11008343004F50F5744F050FF67
:102DD00018374246294630462DF068F842462946C3
:102DE00038462FF063F83A4642F6DC074B46314648
:102DF0002846E61913F0EAFA304665F0EFF9734B0E
:102E0000E351301D33F058FC18B942F6E00304F8E2
:102E1000039004F52450103032F038FC42F6601371
:102E20006B4AE250E71804F5275807F11C0608F131
:102E30002008304614363FF001FEB045F9D142F685
:102E4000102607F1980069F007F9A31905229A8066
:102E50000022DA801A814FF4827017F0C5F9A05170
:102E600004F5295069F0F8F85A4B1A6802B91F6046
:102E700042F66013584AE25042F65C220023A35403
:102E800042F65D2204F52950A35442F65F22203019
:102E9000A35462F09DFDB7EE008A04F52A5383ED3A
:102EA000048A04F52A5383ED078A4C4B07934C4B55
:102EB0000093069408AB04F52A5013E90C004FF474
:102EC0000071283016F0B2FA04F53D50283066F053
:102ED0006BFB04F54750B0EE480A28303BF08CFB02
:102EE00004F5485604F54750B0EE480A08363C3021
:102EF0003BF090FA304616F0C3FE43F21C239FEDE0
:102F0000398A3949E150E21804F5485383ED088ABB
:102F100083ED098A83ED0A8A04F5485383ED0B8A11
:102F200083ED0C8A83ED0D8AD56104F5495505F1D1
:102F3000340016F0A5FE4FF40043AB65EE6518357E
:102F400028462A4934F0F4F9294B04F54A50314611
:102F500020301D6045F086FA04F54B50383054F0AF
:102F600039FD04F54E5043F2A835183055F0AEFD4A
:102F7000601934F0D3FC1F4B635104F54E503C30C4
:102F800053F0AAF804F54F50183004F59E5310334F
:102F90000361194B1949186004F5505634F0C8F90B
:102FA000203604F550504AF0B1FDFF23B37333755A
:102FB0001349304634F0BCF9124B1D6835B3124842
:102FC00069F05EF9C8150D08792C0108D4100D08B8
:102FD000401C0E08D070002050180D083D25010837
:102FE00094150D08000000000C590E0874570E08C7
:102FF000E473002010110D08587300207C2D0E087A
:1030000068450E08D87300209C150D081E6004F555
:10301000505004F5535610363C305CF0E1FB04F59B
:1030200053573046BA4934F083F92437B94986ED0D
:10303000018A304634F07CF904F55656384657F08C
:1030400099FB3046394662F0CDFCB34B3360062322
:1030500086F86030B14BB24A1A604FF6FF792B46C2
:10306000182698B2014671430133555C002DF8D102
:1030700043F2F457AB4BE6191880AB4BE3513046A3
:10308000B573FFF7C3F9A94BE35104234FF00108CF
:10309000F37343F6E82A43F21C6386F8128004EBCC
:1030A0000A0B43F2206644F803B0A01905F098FA21
:1030B0009F4BA35143F25C66A01905F091FA9D4B1A
:1030C000A35143F29866A719384605F089FA9A4B3E
:1030D000A35143F2DC639949E75043F2E06304F5FE
:1030E0005B50E15043F2E4639549E75043F2E863F3
:1030F00007F13C02E15043F2EC639249E75043F29E
:10310000F0633C30E150039216F0BAFD04F55C50D8
:10311000143016F0B5FD43F2D463039A8A49029342
:10312000E6180A6010468949A6F85050A6F8529051
:10313000A6F85490C6F8945034F0FAF8029BA6F81A
:103140002090A6F83890E5547378DFF8449265F340
:10315000000365F34103737043F2947343F2B47652
:1031600087F8D45087F8F850A01904F8038005F0C8
:1031700037FA43F2F877764BA351E619304605F05B
:103180002FFA744BE35186F83C5086F83D5043F6D5
:103190003806A01905F024FA6F4BA35143F67406C4
:1031A000A01905F01DFA6D4BA35143F6C80604F5AE
:1031B0006253A71983ED0C8A83ED0D8A83ED0E8A85
:1031C000384605F00DFA87F83C50654BA35143F69D
:1031D0000C17E619304605F003FA624BE35186F806
:1031E0003C5043F64C16A01905F0FAF95E4BA3517A
:1031F00043F68816A01905F0F3F95C4BA35143F68A
:10320000C816A01905F0ECF943F65C27584BA351FA
:1032100004F56953E61983ED008A83ED018A30468F
:1032200005F0DEF944F8079006F1400086F83C808E
:1032300086F83D50FFF76EFD584605F0D1F943F68C
:1032400024364C4B44F80A30A01905F0C9F94A4B12
:10325000A35104F56D5043F6D436A71920300DF074
:1032600033FC384605F0BCF987F83C50434BA3517A
:1032700043F61447E619304605F0B2F9404BE351E6
:1032800086F83C5086F83D5043F66446A719384608
:1032900005F0A6F987F83C503A4BA35143F6A447F2
:1032A000E619304605F09CF944F8079006F1400015
:1032B00086F83C8086F83D50FFF72CFD324BE351F9
:1032C00004F5745043F6F05786F889803030E619DB
:1032D00009F0E2F8304605F083F92C4BE35104F590
:1032E000785383ED0B8A83ED0C8A42F67C2204F539
:1032F000785383ED0D8A83ED0E8A3565A35C2046F5
:1033000043F00303A35409B0BDEC028BBDE8F08F7A
:1033100060530E0874530E08BC5F0D08B46800209B
:10332000C44A0D08B268002054110D0864110D083C
:1033300060630D08D0630D0834650D084125010850
:10334000452501084925010800680020F4C70D083B
:1033500010660D087C660D08E8660D084C670D08C0
:1033600038690D089C690D08746A0D08E06A0D083B
:103370004C6B0D081C6D0D08AC6C0D08A4650D0898
:1033800070700D08106A0D08406C0D084C710D0826
:10339000D86B0D0838B5054B1C6823680A461D68B4
:1033A000034B01462046A847002038BDA0660020F8
:1033B0005828002010B569F08FF9064C064B1860AC
:1033C0002046FFF7B9FC2046044A0549BDE81040F5
:1033D000B6F096BF58280020A06600200074002098
:1033E0004D250108FA20704742F65823034AD05C65
:1033F00000F00600831E58425841704758280020AC
:1034000042F65823034AD05C00F00600031F5842DE
:103410005841704758280020014810F06DB900BF8E
:10342000582800202DE9F843036943F4E053036171
:10343000436943F4E0534361836943F4E053836198
:1034400004461EF0AFFD90F8F83190F8CE22064603
:10345000DB0122B1C21892F86920012A03DC33444F
:1034600093F869303BB1236943F02003236163691A
:1034700043F02003636132F0CDF9074620B190F9A3
:103480000530002B40F0A8806A4D43F23C43EB56D8
:103490003BB1236943F080032361636943F08003F8
:1034A00063614DF0F1FE814620B14DF087FE0028AA
:1034B00040F09B8042F65923EB5C5B0707D52369FC
:1034C00043F480332361636943F4803363615A4872
:1034D0004FF0E0FF18B1236943F080632361574B3D
:1034E000D3F80080B8F1000F06D01921404634F01F
:1034F00063FC002840F08280236943F4C0432361C9
:1035000042F65C23EA5C162A0CD8012393404C4A0D
:103510001A40002A5CD14B4A134203D0636943F43A
:10352000C043636144484FF0BDFF18B1636943F085
:103530008063636196F8F81130461EF001FD18B102
:10354000A36943F02003A36142F65923EB5C5807BB
:1035500008D542F67923EB5CD9075EBFA36943F433
:103560008033A36127B13B6813B13B79DA075AD4A2
:1035700043F23C43EB5623B143F2C843EB5C002BD0
:1035800041D1B9F1000F08D048464DF017FE20B1E7
:1035900048464DF05BFE00283AD127484FF08CFF9B
:1035A00018B9A36943F08063A36142F2E813EB5CAE
:1035B000DB073DD5636943F480736361B8F1000FA5
:1035C00036D01921404634F017FC30BBBDE8F883F3
:1035D000636943F40053A4E7236943F04003236184
:1035E000636943F0400363614EE7236943F080035E
:1035F0002361636943F0800363615BE7236943F4FC
:103600008073236178E7A36943F08003A361B8E77F
:10361000A36943F08003A361BFE7A36943F4807308
:10362000A361BDE8F883A36943F04003A3619FE76A
:10363000BDE8F88358280020D83E0020C06800204C
:1036400004A05000F8022F0070B54FF4F8700D463A
:10365000164616F0CFFD32460446294641F018FFC3
:10366000014B2360204670BD601A0D0808B590F824
:103670008030994207DD35F0D5FD4FF4802135F0DB
:10368000C1FD002008BD00EB8100D0F8840008BD1A
:1036900008B590F88030994207DD35F0C3FD4FF44E
:1036A000802135F0AFFD002008BD00EB8100D0F88F
:1036B000840008BD0020704700207047002070473C
:1036C0000320704742F65C230D4AD35C172B14D8B5
:1036D00001229A400B4B1340002B0CBF10231823E0
:1036E000094A126843F0400022B15279D20748BF1C
:1036F00043F0C00040F0010070471023F0E700BF26
:1037000058280020F800AB00D8520020014B187850
:10371000704700BF983C0020034B93F90000003035
:1037200018BF0120704700BFF83E002041F242431D
:10373000014AD056704700BF5828002042F658234F
:10374000014AD05CC009704758280020704700002B
:1037500007B50D4B1868A0B138303AF0A1FEB7EEAE
:10376000001A90ED000ADFED090A27F0C3F9DFED3A
:10377000087A20EE270AFDEEC07ACDED017ABDF978
:10378000040003B05DF804FBD852002000000000E4
:103790000000C8422DE9F04F2DED028B8BB007469B
:1037A00014F084FD0368DFF820915B6BDFF81CA147
:1037B0009FED408A98470025064615F80980BAF91A
:1037C000003008F1FF342341D90749D5387C3DF05A
:1037D000E9F88346387C3CF04FFA0BF1180B83452F
:1037E00041DA032C3CD8DFE804F002434B53324B60
:1037F000186803689B689847D6ED007A9FED2F7A8A
:1038000067EE877A00F1380454B394ED005A94EDD2
:10381000036AD4ED046A94ED057AD4ED065A387C37
:10382000CDED047A622365EE885A26EE086A66EECC
:10383000886A27EE087A25EE085A01931923009327
:1038400003AAC2218DED035ACDED055A8DED066A0E
:10385000CDED076A8DED087A8DF824803CF04AFAA8
:103860000135042DA9D10BB0BDEC028BBDE8F08F62
:10387000114B18680368DB689847D6ED017ABDE7FD
:103880000D4B186803681B699847D6ED027AB5E7B7
:103890000B4B1C6814F00AFD0368DB6998479FED29
:1038A000097AD0ED027A77EE877A6034F1EE677AA2
:1038B000AAE700BF0AD7233C945A0020E02E6542B5
:1038C000985A00200AE81C412C1B0D08F03C0020EF
:1038D000014807F089B900BFF05E002070B541F2E1
:1038E000A46305460A48C358DB070E46144604D5B0
:1038F000114600F5565062F00FFC2146054865F070
:1039000017FB224631462846BDE8704041F040BBD7
:1039100058280020E846002010B504463EF038FB49
:1039200005480FF0E9FE054A034606212046BDE89A
:1039300010403EF007BB00BF5828002038190D0882
:1039400038B504460D4668F0B1FC42F66C23044AD3
:10395000D05029462046BDE838403DF007BD00BFA5
:103960005828002010B442F22812044CA35C013302
:10397000A3545DF8044B3DF099BC00BF58280020CB
:1039800010B508460C4616F0DBFB28B1214603486B
:1039900002F014FD002010BD042010BDB066002010
:1039A000014803F091B900BF58280020014803F0F6
:1039B00011B900BF582800208A8B202A82B01BD161
:1039C0000B6807EE903AF5EEC07AF1EE10FA16DDCC
:1039D0009FED0C7AF4EEC77AF1EE10FA0FD8FCEEF8
:1039E000E77A41F69262CDED017A07499DF80430FD
:1039F0008B52002002B0704702B041F097BC032008
:103A0000F8E700BF00007F435828002038B58A7AC5
:103A10004B7A43EA0223CA7A43EA02439D2B0546C6
:103A20000C4616D10E4A0F4843F2A623D15C44F04F
:103A3000E1FD024668B9D4ED057A9FED0B0ADFED92
:103A40000B0AF8EEE77A014627EE800A084802F0F2
:103A500055FC21462846BDE838403DF0D7BB00BFA5
:103A600058280020F85A00200AD7233C0000000004
:103A7000B066002008B53DF0D7FB41F6CF12002319
:103A80001043194308BD000010B5044616F0B8FBFA
:103A9000204610BD38B50D4C42F65823E356002B96
:103AA0000FDB43F21C65605903685B6B984750B9A4
:103AB00060590368DB6A9847002814BF032002207E
:103AC00038BD012038BD042038BD00BF5828002073
:103AD00038B54B69F7EE000A00EE103A04460D4681
:103AE00026F0F2FE28B121460548BDE8384003F033
:103AF00021B929462046BDE8384040F0E1B800BF72
:103B0000582800200B7ADB0706D542F2A46203484E
:103B1000CB6882581344CB60704700BF5828002000
:103B2000044B187828B942F65A23034AD05CC0F3F4
:103B300080107047B8670020582800202729F7B563
:103B400004460D4604D005D8192901D0242908D1EE
:103B500001200AE038290AD003D3A1F13A03012B4E
:103B6000F6D92946204640F095FC03B0F0BD007C14
:103B70003CF018FF0646207C3CF07EF82536864255
:103B800023DA217C124856F0E9FE124B1F68002F01
:103B9000DED0207C3CF006FF0646207C3CF06CF832
:103BA000253686424FF00000DFDA02AA294622F8C5
:103BB000020D20463FF030FA0028C9D0BDF806209B
:103BC000217C384654F078FCC2E70020CDE700BFE6
:103BD0003C5D0020CC7300200B4B42F679229A5CAE
:103BE000D10706D442F66571595C11B912F01E0F67
:103BF00001D00520704742F658229B56002BB4BFD7
:103C000003200420704700BF5828002008B5084A48
:103C100041F28C43D356032B03D0BDE808403FF05C
:103C2000EBBB044A02213EF08DF9042008BD00BF21
:103C30005828002044190D08094B41F2A4629A58F3
:103C4000920701D43DF0CAB843F20C22DFED057AA9
:103C50009B5800EE103AB8EEC00A20EE270A7047D3
:103C6000582800200AD7233C10B594B0044603A876
:103C700016F006F843F21C63194AD058036803A9EA
:103C80009B6B984750B3247C68F010FB059B08930E
:103C9000069BDDED047A099300230B930C930D939F
:103CA0000E930F931093119312934FF6F873F8EE4F
:103CB000E77A9FED0C7AADF84C3000238DF84E304A
:103CC000962367EE877A019333230790009307AA20
:103CD00057212046CDED0A7A3CF00CF814B010BD07
:103CE000582800200AD7233C70B52DED088B4C4C8A
:103CF00043F21C6506466059036896B0DB69984735
:103D0000002848D043F648139FED468AE35C012B18
:103D100045D143F244239FED440AE058443029F052
:103D20004DFDB0EE48AAF0EE409AB0EE609AF0EE8B
:103D3000418AF0EE48AAB0EE48BA40F6F874357CF5
:103D400068F0B4FA01238DF856308C2301933323A5
:103D50000990F1EE688AB1EE4AAA009309AA5521AA
:103D60002846CDED0A9A8DED0B9ACDED0C8A8DED9E
:103D70000DBACDED0EAA8DED0FAA8DED108A8DED49
:103D8000118A8DED128A8DED138A8DED148AADF8AE
:103D900054403BF0AFFF16B0BDEC088B70BD022B5A
:103DA00017D163599FED200A5B69186800F5907080
:103DB00029F004FDF0EE488AB0EE40BAF0EE60AAB9
:103DC000B0EE41AAB0EE489AF0EE489A40F6C774B9
:103DD000B5E743F244239FED140AE058443029F03C
:103DE000EDFC63598DED030A5B69CDED040A18689B
:103DF0008DED051AF0EE409A00F590709FED0A0ADD
:103E0000B0EE609AF0EE418A29F0D8FC4FF47C6461
:103E1000B0EE40BAF0EE60AAB0EE41AA8FE700BF64
:103E200058280020000000000AD7233C2DE9F0416B
:103E30002DED068B3E4D42F659238EB0EB5C990674
:103E400006466FD543F23C239FED3A0AE8589FEDB2
:103E50003A8A3C3029F0B2FC43F21C638DED061A1D
:103E6000EC58CDED050A21EE081A23688DED040A01
:103E7000FDEEC17ADB6BCDED037A204620EE889A09
:103E800060EE089A96F81080BDF90C70984707EE1E
:103E9000900AF8EEE77A236867EE887A1B6CFDEEED
:103EA000E77A2046CDED037ABDF90C60984707EE1E
:103EB000900AF8EE678ADFED217A68EE888A05F5C8
:103EC0004955F4EEE78AF1EE10FA286858BFF0EE93
:103ED000678A5AF06FF92368B0EE40AA5B6C2046FF
:103EE00098476AEE087A0023CDED097AFCEEE87A6D
:103EF0000A9317EE903AADF83430B72320EE080A53
:103F000001931A23009307AA3E214046CDED079A5C
:103F10008DED089A8DED0B0AADF83070ADF832607A
:103F20003BF0E8FE0EB0BDEC068BBDE8F08100BFB3
:103F3000582800209F0CB3450AD7233C00FF7F4739
:103F400038B58B8BCD2B05460C4615D10D4A0E4846
:103F500043F2A623D15C44F04DFB024660B9A3684E
:103F6000DFED0A7ADFED0A0A00EE103A014627EE8D
:103F7000800A084802F0C2F921462846BDE83840C8
:103F80003DF0C2B958280020F85A00200AD7233C37
:103F900000000000B066002001480FF0A1BB00BF88
:103FA0005828002042F65C23014AD05C704700BFCD
:103FB0005828002042F65923024AD05CC0F3401032
:103FC000704700BF58280020F8B500F50556054693
:103FD00096F859306FF3000386F8593068F066F9A7
:103FE0001E4A1368C31AB3F57A7F04460BD905F548
:103FF0002557203710600021384641F055FD032138
:10400000384641F051FD164A1368E31A142B0ED9B5
:1040100005F5255720373846146041F08DF83846AD
:1040200042F024F905F59F5008302FF01FFA0D4A91
:10403000136841F28831E31A8B4207D905F5255000
:1040400014600621084A20303AF0FEFE96F85930F6
:1040500043F0010386F85930F8BD00BFA866002080
:10406000AC660020A4660020441A0D08F0B52DEDC2
:10407000028B8B8BB22B87B00D4600F0E08034D8DA
:10408000152B7DD00BD8112B71D0142B75D0294650
:1040900007B0BDEC028BBDE8F04041F015BF202B0E
:1040A00071D0732B00F08A80162BF0D18B689FEDB6
:1040B000CC7ACC4A07EE903A8B69F0EEE77AF4EED0
:1040C000C77A00EE103ADFEDC87A43F21C63F1EED6
:1040D00010FA4CBF0121002127EE800AD0580FF0C2
:1040E0005DFF002868D1042032E140F6D8129342E7
:1040F00000F032811CD8D12B00F0FD80B3F5967F03
:1041000000F0CD80D02BC2D10B6807EE903AFCEEC8
:10411000E77ACDED037ABDF80C10012900F0E680B6
:10412000C0F0DB800229DED1AE4802F091FE43E010
:104130004AF21242934200F020814AF21342934223
:1041400000F066814AF211429342A0D1A54842F69E
:104150007923C35CDC072FD40222052104F078FB0D
:1041600050BB02229F48114604F072FB24E0022259
:1041700005219C4804F06CFBB3E702220621F8E716
:1041800002220921F5E70B6807EE903AF5EEC07AB6
:10419000F1EE10FAA7DD9FED957AF4EEC77AF1EE15
:1041A00010FAA0D8FCEEE77A41F69262CDED037AE0
:1041B0008C499DF80C308B520020C9E00B6807EE4B
:1041C000903AF5EEC07AF1EE10FA8CDB9FED887A2A
:1041D000F4EEC77AF1EE10FA85D8CB68DFED807A7D
:1041E00000EE103AB0EEC07AB4EEE77AF1EE10FAD3
:1041F000B0EE678A06D4F7EE000A26F065FB0028C9
:104200003FF471AFEB687B4807EE903AAB68F4EE91
:10421000C87A07EE903AFDEEE77AF1EE10FACDEDAE
:10422000037A6B689DF90C1000EE903A2B68ACBFD6
:104230000122002200EE103A02F060F8BCE74B6861
:1042400007EE903AF5EEC07AF1EE10FA7FF74BAF39
:104250000B68DFED696A9FED640A07EE103AB4EE71
:10426000E67AF1EE10FA5F4B07DD43F2442227EEC7
:10427000800A98585DF01AF89EE7DFED606A43F215
:104280004422B4EEE67AF1EE10FA27EE800A98584E
:1042900002DD5CF0FDFF8FE75CF0E8FF8CE7514C3E
:1042A00004F52A531B685B79DD077FF51CAF0222FA
:1042B0000321204604F0CCFA00283FF414AF01217A
:1042C0002046FDF7E9FE43F2D463E35C012B3FF4A3
:1042D00073AF4B482AF0B8FF6EE7002149484BF016
:1042E0000FFB31213F4800F0B9FC65E745484BF032
:1042F00007FB3221F6E74B68CA6807EE903A0B6875
:10430000FCEEE77A00EE102ACDED037A07EE903A44
:10431000FCEEE77ACDED047A0B699DF8102007EEEC
:10432000903AFCEEE77ACDED057A9DF814300193D2
:104330008B6807EE903AFCEEE77A0146CDED057A00
:10434000BDF81430009327489DF80C300DF024FF81
:1043500007B0BDEC028BF0BD4B682B4807EE903ADE
:10436000FCEEE77ACDED037A9DF80C30012B0CBF03
:104370000021012155F0CEFC1EE71A4F42F67923A9
:10438000F85C10F001047FF417AF07F52A531B689F
:10439000587910F0010605D1012211461B48FDF79E
:1043A0003FFD09E742F658230222FB56002B14DAA0
:1043B0000521384604F04CFA00283FF4FDAE2B6886
:1043C000DFED097A00EE103A43F21C63012127EE7B
:1043D000800AF8580FF0E2FDEEE609213846C3E600
:1043E00000000034582800200000C84200007F432D
:1043F0000000B443B06600209A9939403333F33F4C
:104400002C5F0020305C0020785C002034510020BC
:104410001D4B42F67922985C10F001041A467FF495
:10442000CBAE03F52A5109684979C9077FF5C4AEB7
:1044300042F658215B56002B03DA1448FDF7B8FD0D
:10444000BAE62B689FED127A07EE903AF0EEE77A23
:10445000F4EEC77AF1EE10FA07D442F65C23D35C8F
:1044600003F0EF03042B3FF4A7AE0222112106480C
:1044700004F0EEF900283FF474AE40F6C41105488C
:1044800007F0B0F998E600BF58280020345100200A
:10449000000000340C60002008B50B6807EE103AED
:1044A000F6EE007AB4EEE77AF1EE10FA04DD034896
:1044B000FDF77EFD002008BD042008BD345100201A
:1044C0002DE9F0472DED028B8A7A4B7A43EA0223DD
:1044D000CA7A43EA0243872B9AB005460C4600F29B
:1044E000C280862B19D2542B00F0B4811AD8452BE8
:1044F00000F0D980522B00F03881002B40F0CE80A4
:10450000CC4CCA7904F5A253B3F900309A4204D1D5
:1045100067F0CCFE42F66C23E0501AB0BDEC028B83
:10452000BDE8F0876D2B00F0D682842B00F0CB82A3
:10453000562B40F0B380CE78352E28BF3526352255
:1045400000210AA8B8F0ACFE324604F10C010AA81A
:10455000B8F080FE43F21C63B64AD0580368DB69AA
:1045600098470028D9D0BDF85840002314F007061A
:1045700003930493059327D10B9FDDF830803846D1
:10458000414626F04BFC0028C7D002AA9DF85C10DB
:10459000284640F05FFE0028BFD09FEDA77ADDEDF2
:1045A0000D7A029B009367EE877A3946FDEEE77A33
:1045B000424617EE903A06A815F082FB03A906A81A
:1045C00015F05AFC0028A8D014F4806240F04A820A
:1045D000DFED9A7A9DED140A9DF85C1020EE270A13
:1045E000DFED957A0839012920EE270A8CBF0021DA
:1045F000012114F4006305BFDFED907ADDED150AAB
:10460000DFED8F0A60EEA70A08BFDFED8B7A04F0BA
:10461000380008BF60EEA70A04F4E074002E40F0F2
:104620002582002840F04582002C3FF476AF9FEDB4
:10463000826ADDED0E6A9DED0F7ADDED107A019153
:1046400066EE866A27EE067A67EEC67AB3FA83F3D9
:104650005B090093CDED066A8DED077ACDED087A02
:10466000B2FA82F3A3E1F62B00F06A820BD8A62BF4
:1046700000F03182F32B00F03882952B0ED1714877
:104680005BF0E2F949E7B3F5A57F00F0208205D39E
:10469000A3F51C53113B022B40F2528221462846BF
:1046A00041F0A0FA39E7634ECA7906F5A253B3F98F
:1046B00000309A427FF431AFCA780B2A4FF00007DE
:1046C00028BF0B220C310AA80B970A97CDF82F7040
:1046D000B8F0C0FD41F23E439DF83220F35E9A42AD
:1046E0007FF41BAFBDF92C80B845FFF616AF67F01D
:1046F000DDFD04468DE8900042F22C11BDF92A2020
:104700009FED510A71584FF47A73284640F026FE07
:10471000012342F2301101930094BDF928209FED4E
:104720004A0A71584FF47A73284640F017FE8DE814
:10473000900042F234119FED450A71583B464246C3
:10474000284640F00BFE8DE8900042F238114FF4FD
:104750007A73BDF92E209FED3C0A7158284640F02F
:10476000FDFD42F66C23F450D7E6CD78272D28BF07
:104770002725272200210AA8B8F092FD04F10C0198
:104780002A460AA8B8F066FD2A4C43F21C63E0589A
:104790000368DB69984700283FF4BFAE9DF84E5090
:1047A00015F0C00F7FF4B9AEDFED250A9DED120ABA
:1047B000B7EE001A26F09EF9F6EE000AB0EE408A37
:1047C00026F082F890BBF6EE007AB4EEE78AF1EEBE
:1047D00010FA1DDD43F2442378EE677AE35877EE52
:1047E000A77A93ED080A27EE800A0B9B06930C9B91
:1047F000079385F004020D9B0893DDED110A0E9BD3
:1048000013480993C2F3800206A908F091FF84E6D9
:1048100043F2442377EEC87AE35893ED090A77EE22
:10482000A77AB0EEC00A20EE670ADEE79FED040A21
:10483000DBE700BF582800200000C842E02E654298
:1048400000000000945C00200000FA4400007A445C
:1048500064610020CD78352D28BF35253522002113
:104860000AA8B8F01DFD2A4604F10C010AA8B8F008
:10487000F1FC43F21C63B54AD0580368DB699847E2
:1048800000283FF44AAE9DF85C40012C03D0E31FA2
:10489000022B3FF642AEBDF85860002306F03809FF
:1048A00006F4E07806F4806706F4006516F0070663
:1048B0000393049305939A4626D19FEDA56A9DED37
:1048C0000C7ADDED0D7ADDED0B6A27EE067A67EEE8
:1048D000C67A66EE866AA4F10803012BCDED036A61
:1048E0008DED047ACDED057A04D804AA03A9974882
:1048F000FDF7FAFCE31F022B60D896485EF056FCE9
:10490000014603A828F030FFCDF818A0CDF81CA070
:10491000CDF820A0B9F1000F1CD19FED8D6A9DED5F
:104920000F7ADDED107ADDED0E6A27EE067A67EE7E
:10493000C67A66EE866AA4F10803012BCDED066AFD
:104940008DED077ACDED087A04D807AA06A97F482D
:10495000FDF7CAFC002F58D1DFED7F7A9DED140AD8
:1049600020EE270ADFED7A7A083C012C20EE270A98
:104970008CBF00240124002D4BD1DFED777ADDEDD3
:10498000150A60EEA70ADFED727A60EEA70A002E24
:1049900042D1B9F1000F55D1B8F1000F3FF4BDADD0
:1049A000B5FA85F56D0901940095B7FA87F35B09AF
:1049B00006AA03A9694809F01DFCAEE513F076FCD0
:1049C00090F86031DB077FF5A8AD06A815F058F91F
:1049D00013F06CFC90ED557ADDED057A6048B8EE89
:1049E000C77A06A977EE877ACDED057A11F02AFF0E
:1049F000002889D0DDED077AB8EEE77ADDED057A9B
:104A000077EEC77ACDED057A7EE700249FED550A53
:104A1000B1E7DFED540ABAE7B9F1000F7FF47DADDD
:104A2000B8F1000F3FF479AD01230193B5FA85F396
:104A300000945B09B7FA87F2520906A9474809F0C2
:104A400099FB6AE5B8F1000F3FF467ADB5FA85F35D
:104A500000945B09B7FA87F2520903A93F4809F0AD
:104A6000B1FA5AE500219FED3F0AC2E500287FF424
:104A700054AD002C3FF451AD9FED356ADDED0E6A6B
:104A80009DED0F7ADDED107A009166EE866A27EED5
:104A9000067A67EEC67A0120B3FA83F3CDED066A93
:104AA0008DED077ACDED087A01905B09B2FA82F2BA
:104AB000C2E7002C3FF431ADB3FA83F300915B09F8
:104AC000B2FA82F2C8E7284833F022F92146274893
:104AD0004EF0A0FB21E508211C480EF0EDFD21461B
:104AE000024628463DF0A0FA17E5CD783D2D28BFB7
:104AF0003D253D2200210AA8B8F0D2FB04F10C01AB
:104B00002A460AA8B8F0A6FB0A9C44B90B9B33B905
:104B10000C9B23B901210D4802F0D6F8FDE406A84C
:104B200015F0AEF80B9B09930A220C9B074893FBE8
:104B3000F2F306A901220894079302F04BF8ECE483
:104B40002246297C0A4856F0A1FCE6E458280020B9
:104B50000000C842745A0020E02E654264610020C3
:104B6000A84D00200000000048390020D83E002059
:104B70003C5D0020F0B543F23C26044680599FED91
:104B80002D0A8DB03C3028F019FE0CAACDED0A0A92
:104B90008DED0B1A8DED090A12E9070003AF87E8C6
:104BA000070006AB9DED050A83E8070025F028FF06
:104BB00004F50555394604F5495728468DED050A93
:104BC00038F06CF83B68009304F52A5242F6D8019D
:104BD00028466158A359126838F03AFB4FF48051C7
:104BE00020460EF069FD18B3A05903689B689847EA
:104BF000C82100F13802284638F094FAA059036819
:104C0000DB689847C92100F13802284638F08AFA53
:104C1000A05903681B699847CA2100F13802284649
:104C200038F080FA3A68CB216032284638F07AFAB8
:104C30000DB0F0BD9F0CB34510B5044604F5055406
:104C400012F0BAFD12F0ACFD204637F06FFE2046A0
:104C5000BDE8104037F0FEBE7047000000F505507B
:104C600035F070B87FB50E464FF6FF710446154615
:104C70000EF022FDE0B1102200216846B8F010FBD2
:104C8000A3238DF8003095238DF8013003238DF890
:104C9000023067F013FB1022CDF80300CDF80710A7
:104CA00004F5055069468DF80B60039534F0D0FB90
:104CB00004B070BD7FB50E464FF6FF710446154631
:104CC0000EF0FAFCE0B1102200216846B8F0E8FAD4
:104CD000A3238DF8003095238DF8013004238DF83F
:104CE000023067F0EBFA1022CDF80300CDF8071080
:104CF00004F5055069468DF80B60039534F0A8FB68
:104D000004B070BD70B52DED048B182486B022461A
:104D100005460E4668460021B0EE409AF0EE608AE5
:104D2000B0EE418AB8F0BCFAA3238DF80030952389
:104D30008DF8013007238DF8023067F0BFFA224664
:104D4000CDF80300CDF8071005F5055069468DF83C
:104D50000B608DED039ACDED048A8DED058A34F05C
:104D600061FB06B0BDEC048B70BD000038B590F857
:104D7000312342F67C2300EB4212C15C92F855339A
:104D8000044601F0010123B192F856330BB192F8B9
:104D90005733994210D042F67C25625D63F30002DE
:104DA000625535F059F8635D13F0010F0CBF042212
:104DB0000022122134F0E6FF94F89034F42202FB32
:104DC000034342F67C2593F8A924635DC3F34001B5
:104DD00091420DD062F34103635535F03DF8635DB8
:104DE00013F0020F0CBF04220022032134F0CAFF8B
:104DF00042F67C2294F83012A35CC3F3810088420F
:104E000009D061F38303A35404F505504321BDE8A1
:104E1000384034F097BF38BD30B52DED0A8B2F24C4
:104E20008DB02246054600216846B0EE40CAF0EE3D
:104E300060BAB0EE41BAF0EE61AAB0EE42AAF0EE6E
:104E4000629AB0EE439AF0EE638AB0EE448AB8F00C
:104E500027FAA3238DF8003095238DF801300B231A
:104E60008DF8023067F02AFA1CEE103ACDF80B30BC
:104E70001BEE903ACDF80F301BEE103ACDF8133000
:104E80001AEE903ACDF817301AEE103ACDF81B30E2
:104E900019EE903ACDF81F3019EE103ACDF82330C4
:104EA00018EE903ACDF8273018EE103ACDF80300FE
:104EB000CDF807102246694605F50550CDF82B3090
:104EC00034F0B0FA0DB0BDEC0A8B30BD70B52DEDED
:104ED000088B28248AB0224605460E4668460021E3
:104EE000B0EE40BAF0EE60AAB0EE41AAF0EE619AE0
:104EF000B0EE429AF0EE628AB0EE438AB8F0D0F992
:104F0000A3238DF8003095238DF801300C238DF804
:104F1000023067F0D3F92246CDF80300CDF8071030
:104F200005F5055069468DF80B608DED03BACDEDA2
:104F300004AA8DED05AACDED069A8DED079ACDED6B
:104F4000088A8DED098A34F06DFA0AB0BDEC088B41
:104F500070BD000070B51B2688B0324605460021A2
:104F600001A8B8F09DF9A3238DF8043095238DF89E
:104F7000053008238DF8063067F0A0F905F52A54AE
:104F8000CDF807002068CDF80B1003689B6D98479B
:104F900010EE103A2068CDF80F300368DB6D9847AB
:104FA00010EE103A2068CDF8133003685B6E984716
:104FB00010EE103A2068CDF8173003689B6E9847C2
:104FC00010EE103A324601A905F50550CDF81B3018
:104FD00034F028FA08B070BD30B543F23C43C51830
:104FE000C35695B00446002B5BD000236946284683
:104FF00004930593069300930193029303935AF04D
:10500000F7FC02A928465AF009FD04A928465AF0DF
:10501000DFFC3222002107A8B8F042F9A3238DF863
:105020001C3095238DF81D3009238DF81E3067F054
:1050300045F943F2C843CDF81F00E35CCDF82310D7
:1050400028468DF827305AF083FC009BCDF8293094
:10505000019BCDF82D30029BCDF83130039BCDF86C
:105060003530049BCDF83930059BCDF83D30069B9B
:10507000CDF8413043F268438DF82800E358CDF86D
:10508000453043F294433222E358CDF8493043F29D
:105090003F4307A9E35C8DF84D3004F5055034F02B
:1050A000C1F915B030BD00002DE9F04124268AB0C9
:1050B000154607463246884601A800211C46B8F02E
:1050C000EFF8A3238DF8043095238DF805300A23DB
:1050D0008DF8063067F0F2F82B6804936B6805933F
:1050E000AB680693236807936368CDF80700CDF893
:1050F0000B1008933246A3688DF80F8001A907F5BD
:105100000550099334F08EF90AB0BDE8F081000033
:1051100038B5044600F505550EF0EEFA0C49024686
:10512000284634F04FFB42F65D232846E25C42F607
:105130005C23E15C34F068FB04F51550103012F08C
:10514000D7FE04F13800BDE838401CF001B900BFBB
:1051500038190D08AA22024900F5055034F0C6B9E5
:10516000701B0D082DE9F0412DED028B43F21C63FD
:105170000446C058DFED4D8A036892B0DB6898475B
:105180000027002840F08E8004F549531B68D3EDBA
:10519000447A87EEA88AD3ED4D7AFDEEE77ACDED1D
:1051A000017ABDF9046004F5085808F1200802A945
:1051B00040460DF05BFF18B934F04EFE3C4B0293B5
:1051C0003B22002103A8B8F06BF8A3238DF80C3024
:1051D00095238DF80D3067F071F804F52A5543F2E8
:1051E0003C23CDF80F00E3582868D3F8AC20D3F85F
:1051F000B030CDF813103830CDF81720CDF81B3073
:1052000039F04EF9B7EE001ADFED2A0A90ED000AE8
:1052100025F070FC10EE103A2868CDF81F300368B6
:105220001B68984710EE103A04F54855CDF8233026
:105230001C3518EE103A2846CDF827305DF0BAFF3D
:1052400080EE280A404610EE103ACDF82B3043F29B
:10525000E413E358CDF82F30029BCDF833300DF036
:1052600017FF10EE103A2846CDF83730CDF83B70D6
:10527000ADF83F605DF0A2FFFDEEC07A3B2217EE75
:10528000903AADF8413004F55B6303A91B68CDF893
:10529000433004F5055034F0C5F812B0BDEC028B74
:1052A000BDE8F081002608EE107A7CE70000C842D5
:1052B0002292CA7F00000000B0F900309FED097A09
:1052C00001805B1A07EE903AF8EEE77AF0EEE77AA3
:1052D000F4EEC77AF1EE10FA4CBF0121002131F053
:1052E0002DB900BF00000034F8B50446083048F07E
:1052F0000DFC04F1280061F0A5FF04F1680050F0F6
:10530000ADFB0023C4F88830C4F88C30C4F890306A
:10531000264AC4F8B030264BC4F8A820C4F8B430EC
:105320004FF08042234BC4F8B830C4F8AC20224977
:10533000224F04F1BC0062F079F804F5C0704BF024
:1053400015FF04F5E4704DF003FF04F5FE7041F025
:1053500011FD1B4BC4F8FC3104F5047600257019CF
:1053600041F0BCF877512835B5F5207FF7D104F529
:10537000926042F0D9FA134D002104F5126061F0F9
:1053800065FBC4F8D45904F6D81063F00BFDA5F5FD
:10539000E87504F6682053F0AFF92046C4F8E05BE6
:1053A000094931F0C5FF2046F8BD00BF0000C841E3
:1053B0000AD7233C0000E040E43B00205C5F0D087E
:1053C000705F0D088865002098470D0870B52DEDB9
:1053D000028BADF54A7DC0226449654C9FED658A1C
:1053E000064652A8B7F036FF602263493AA8B7F0E4
:1053F00031FF4FF49072614982A8B7F02BFF0FCCB8
:105400000AAD0FC594E80F00103485E80F000FCCEB
:105410001AAD0FC50FCC0FC50FCC0FC594E80F0008
:1054200085E80F00002452AB18190021B0EE480A9D
:10543000103431F005FCC02CF5D19FED518A0024C9
:105440003AAB18190021B0EE480A103431F0F8FBDD
:10545000602CF5D1002482AB18190021B7EE000AA8
:10546000103431F0EDFBB4F5907FF4D100219FEDC5
:10547000450A0AA831F0E4FB00210EA89FED410A7D
:1054800031F0DEFB404B0FCB06AC84E80F0001A9E6
:10549000204631F0A5FB90B19DF904309FED3B7A99
:1054A000E06807EE903AF8EEE77AB0EE000AA7EE71
:1054B000870AF7EE007A87EE800A32F033F900248B
:1054C0001AAB181900211034B7EE000A31F0B8FBFE
:1054D000402CF5D12E4D2F480C2132F063F90FCD21
:1054E0002AAC0FC40FCD0FC40FCD0FC495E80F0029
:1054F00084E80F0000242AAB18190022012110347F
:1055000031F030FC402CF6D1234C0FCC12AD0FC53E
:1055100094E80F0085E80F000022012112A831F065
:1055200021FC0022012116A831F01CFC04F110031B
:1055300002AA183418685968154603C50833A342EF
:105540002A46F7D118689B882860AB80002243F672
:10555000F07102A841F026FF18B143F2196301224D
:10556000F2540DF54A7DBDEC028B70BD04060D08AA
:1055700044080D085C8FA23FC4060D0824070D08DF
:10558000530469396F12833AA4080D08CDCCCC3D81
:10559000B4080D0824540D08F4080D082DE9F04353
:1055A00091B00DF106011D2042F02EF9002800F007
:1055B00099809DF806305C4A0133DBB211210BA8BB
:1055C0008DF8063066F06CFD00220DF107010BA886
:1055D00030F0BEFE9DF80630544A112106460BA855
:1055E00066F05EFD00220DF107010BA830F0B0FE61
:1055F0009DF806304E4A112107460BA866F050FD73
:1056000000220DF107010BA830F0A2FE9DF8063034
:10561000484A03F03F03112180460BA866F040FD85
:1056200000220DF107010BA830F092FE0546002E76
:1056300058D0002F56D0B8F1000F53D0002851D0C9
:10564000304630F0CDFF00284CD1384630F0C8FF4E
:10565000002847D1404630F0C3FF002842D12846F9
:1056600030F0BEFF00283DD1334C94E80F000DF11F
:105670000C0E10348EE80F0094E80F000DF11C0999
:1056800089E80F0002A9704631F0AAFA08B900248F
:1056900001E0BDF9084002A94846A4B231F0A0FAE1
:1056A00000283BD0BDF80810FCB9D9B140F2E24463
:1056B0008C420FFA81F924B21DDC49463846FFF7C7
:1056C000FBFD21463046FFF7F7FD21464046FFF738
:1056D000F3FDB5F900302BB100232B8001212846C2
:1056E00030F02CFF11B0BDE8F08340F2D663002902
:1056F00008BF1946DCE721463846FFF7DDFD49467D
:105700003046FFF7D9FD49464046FFF7D5FDB5F9CC
:105710000030012BE6D001212980E0E7002CE1D008
:1057200040F2D661C4E700BF4C4A0D08584A0D0844
:10573000644A0D08714A0D0824090D082DE9F04F3F
:105740002DED028B41F2B063D3B0C356062B40F06F
:105750009F80502290492AA8B7F07CFD00242AABF4
:1057600018190021B7EE000A103431F069FA502CF4
:10577000F5D107A92AA831F033FA08A980462EA846
:1057800031F02EFA09A9074632A831F029FA0AA900
:10579000064636A831F024FA804B05460FCB1AACEA
:1057A00084E80F0005A9204631F01AFA002857D0E6
:1057B0000021B7EE000A204631F042FA80227849F3
:1057C0009FED788A2AA8B7F045FD00242AAB181966
:1057D0000021B0EE480A103431F032FA802CF5D1B5
:1057E000714D0FCD0AAC0FC40FCD0FC40FCD0FC438
:1057F00095E80F0084E80F0000240AAB1819002177
:10580000B7EE000A103431F01BFA402CF5D100221B
:1058100009A9664830F09CFD20B1B0F90030642B36
:1058200000F3A380624D9FED5F8A0FCD1AAC0FC4C9
:105830000FCD0FC40FCD0FC495E80F0084E80F0003
:1058400000241AAB18190021B0EE480A103431F0C8
:10585000F7F9402CF5D153B0BDEC028BBDE8F08FC9
:10586000B8F1000F03D117B90EB9002DA6D0002250
:1058700006A9504830F06CFD00289FD030F0B0FEF3
:1058800000289BD19FED4C0A4A4831F0B1FF95E7C3
:105890000B2B93D1A02249492AA8B7F0DBFC0024A6
:1058A0002AAB18190021B7EE000A103431F0C8F9FC
:1058B000A02CF5D104A92AA831F092F905A98346B4
:1058C0002EA831F08DF906A9824632A831F088F968
:1058D00007A9814642A831F083F908A9804636A875
:1058E00031F07EF909A907463AA831F079F90AA9F9
:1058F00006463EA831F074F91AA9054646A831F0CB
:105900006FF90446BBF1000F08D1BAF1000F05D1C1
:10591000B9F1000F02D1B8F1000F0ED000220DF145
:105920000F01244830F014FD38B130F059FE20B991
:105930009FED210A1F4831F05BFF27B91EB915B949
:10594000002C3FF43BAF00220DF10F011C4830F05A
:10595000FFFC00283FF432AF30F042FE00287FF415
:105960002DAF9FED150A16488FE707EE903A9FED91
:105970000D7A0E48F8EEE77A67EE877AFCEEE77A62
:10598000CDED017ABDF8043000EE103AB8EE400AD1
:1059900031F02EFF46E700BF44090D0894090D08B9
:1059A000440A0D08CDCCCC3DC40A0D08B74A0D08F9
:1059B000040B0D0884540D0800000000A4090D0814
:1059C000AC4A0D0873B5002206460DF107011E48CA
:1059D00030F0BEFC0546A0B330F002FE88BB9DF857
:1059E0000730032B2DD141F27843F356022B01D01F
:1059F000044605E0B7EE000A144831F0F9FE012430
:105A000041F25C43F356022B06D1B7EE000A104870
:105A100044F0020431F0ECFE2B689FED0E7A2C600E
:105A20001B1B07EE903AF8EEE77A2846F0EEE77A8D
:105A3000F4EEC77AF1EE10FA4CBF0121002130F0EC
:105A40007DFD02B070BD00BF844A0D088F4A0D086D
:105A50009D4A0D0800000034F8B5044630F07CFA89
:105A60002B4A40B913682B49586B03681B68984749
:105A7000294866F005FC04F51553156893F89C1049
:105A80006FF3820183F89C1041F23C47A86C00211F
:105A9000E61921F0D3FD304631F0C0FB20B3E35FBF
:105AA000782B21D166F000FC064631F03DFB002248
:105AB00010211A4831F056F92046FFF76FFD2046B5
:105AC000FFF780FF6C6B23681D6866F0EDFB1449DF
:105AD000821B2046A847134B00221A80124A1388C3
