:020000040801F1
:1000000000040020C1140108E9AD0508EDAD0508A4
:100010003DAE0508EDAD050815AE0508C214010892
:10002000C2140108C2140108C2140108F9730A08B5
:10003000C2140108C2140108C2140108C214010844
:10004000C2140108C2140108C2140108C214010834
:10005000C2140108C2140108CD840A08FD840A08EC
:100060002D850A085D850A088D850A08C1350A08AC
:10007000ED350A081D360A084D360A087D360A088D
:10008000A9360A08D9360A081D340A08C21401081C
:10009000C2140108C2140108C2140108BD850A086F
:1000A000C2140108C2140108C2140108C2140108D4
:1000B000C2140108C2140108C2140108C2140108C4
:1000C000C2140108313C0A08453D0A08C21401085F
:1000D000C2140108CD4A0A08C2140108C21401085A
:1000E00029860A08C2140108C2140108B9440A0882
:1000F000C2140108C2140108C214010809370A0811
:10010000C2140108C2140108C5820A08C2140108F9
:10011000C2140108C2140108C2140108C214010863
:1001200039370A0865370A0895370A08C5370A08B3
:10013000F5370A08C2140108C2140108C2140108E4
:10014000C2140108C2140108C2140108017B0A0884
:1001500021380A0851380A0881380A08E54A0A088D
:10016000C2140108C2140108C2140108C214010813
:10017000C2140108C2140108C2140108C214010803
:10018000C2140108C2140108C2140108C2140108F3
:10019000C2140108C2140108C2140108C2140108E3
:1001A000C2140108C2140108C2140108C2140108D3
:1001B000C2140108C2140108C2140108C2140108C3
:1001C000C2140108C2140108C2140108C2140108B3
:1001D000C2140108C2140108C2140108C2140108A3
:1001E000B51A0108F502020845160308F17C030858
:1001F0006D7F0308D50E04086D15040891180408D6
:100200009179040811F00408D9B10508350B0908E3
:10021000F1170908F53009084D4F0908552F0A084C
:10022000D0400B1CD1409C46203AD3401843524248
:100230006346934018437047D0400B1C1141203A4D
:1002400003D49C46134118436346524293401843DB
:10025000704700BF9140031C90409C46203A934059
:10026000194352426346D3401943704781F000411D
:1002700002E000BF83F0004330B54FEA41044FEA8B
:10028000430594EA050F08BF90EA020F1FBF54EA26
:10029000000C55EA020C7FEA645C7FEA655C00F0C2
:1002A000E2804FEA5454D4EB5555B8BF6D420CDD93
:1002B0002C4480EA020281EA030382EA000083EA16
:1002C000010180EA020281EA0303362D88BF30BDB6
:1002D00011F0004F4FEA01314FF4801C4CEA11310C
:1002E00002D0404261EB410113F0004F4FEA03336B
:1002F0004CEA133302D0524263EB430394EA050FF6
:1003000000F0A780A4F10104D5F1200E0DDB02FA64
:100310000EFC22FA05F2801841F1000103FA0EF2F8
:10032000801843FA05F359410EE0A5F120050EF1BE
:10033000200E012A03FA0EFC28BF4CF0020C43FAEF
:1003400005F3C01851EBE37101F0004507D54FF0FC
:10035000000EDCF1000C7EEB00006EEB0101B1F54C
:10036000801F1BD3B1F5001F0CD349085FEA300092
:100370004FEA3C0C04F101044FEA445212F5800F9D
:1003800080F09A80BCF1004F08BF5FEA500C50F13A
:10039000000041EB045141EA050130BD5FEA4C0C1D
:1003A000404141EB010111F4801FA4F10104E9D1A6
:1003B00091F0000F04BF01460020B1FA81F308BF9D
:1003C0002033A3F10B03B3F120020CDA0C3208DD69
:1003D00002F1140CC2F10C0201FA0CF021FA02F144
:1003E0000CE002F11402D8BFC2F1200C01FA02F1B4
:1003F00020FA0CFCDCBF41EA0C019040E41AA2BFD9
:1004000001EB0451294330BD6FEA04041F3C1CDAA0
:100410000C340EDC04F11404C4F1200220FA04F0C0
:1004200001FA02F340EA030021FA04F345EA03016A
:1004300030BDC4F10C04C4F1200220FA02F001FA2C
:1004400004F340EA0300294630BD21FA04F02946AE
:1004500030BD94F0000F83F4801306BF81F4801147
:100460000134013D4EE77FEA645C18BF7FEA655CBA
:1004700029D094EA050F08BF90EA020F05D054EA8C
:10048000000C04BF1946104630BD91EA030F1EBF91
:100490000021002030BD5FEA545C05D14000494195
:1004A00028BF41F0004130BD14F580043CBF01F588
:1004B000801130BD01F0004545F0FE4141F470016E
:1004C0004FF0000030BD7FEA645C1ABF1946104649
:1004D0007FEA655C1CBF0B46024650EA013406BF4A
:1004E00052EA033591EA030F41F4002130BD00BF09
:1004F00090F0000F04BF0021704730B54FF48064C6
:1005000004F132044FF000054FF0000150E700BF46
:1005100090F0000F04BF0021704730B54FF48064A5
:1005200004F1320410F0004548BF40424FF0000192
:100530003EE700BF42004FEAE2014FEA31014FEAD5
:1005400002701FBF12F07F4393F07F4F81F0605124
:10055000704792F0000F14BF93F07F4F704730B593
:100560004FF4607401F0004521F0004120E700BF26
:1005700050EA010208BF704730B54FF000050AE0AD
:1005800050EA010208BF704730B511F0004502D5AE
:10059000404261EB41014FF4806404F132045FEAB0
:1005A000915C3FF4DCAE4FF003025FEADC0C18BF55
:1005B00003325FEADC0C18BF033202EBDC02C2F14B
:1005C000200300FA03FC20FA02F001FA03FE40EADD
:1005D0000E0021FA02F11444C1E600BF70B54FF0DD
:1005E000FF0C4CF4E06C1CEA11541DBF1CEA1355BF
:1005F00094EA0C0F95EA0C0F00F0DEF82C4481EA27
:10060000030621EA4C5123EA4C5350EA013518BF46
:1006100052EA033541F4801143F4801338D0A0FB33
:1006200002CE4FF00005E1FB02E506F00042E0FBE0
:1006300003E54FF00006E1FB03569CF0000F18BFE6
:100640004EF0010EA4F1FF04B6F5007F64F540748E
:1006500004D25FEA4E0E6D4146EB060642EAC62121
:1006600041EA55514FEAC52040EA5E504FEACE2E8E
:10067000B4F1FD0C88BFBCF5E06F1ED8BEF1004F91
:1006800008BF5FEA500E50F1000041EB045170BD0D
:1006900006F0004646EA010140EA020081EA030151
:1006A000B4EB5C04C2BFD4EB0C0541EA045170BD4D
:1006B00041F480114FF0000E013C00F3AB8014F1C7
:1006C000360FDEBF002001F0004170BDC4F1000410
:1006D000203C35DA0C341BDC04F11404C4F1200591
:1006E00000FA05F320FA04F001FA05F240EA0200EC
:1006F00001F0004221F0004110EBD37021FA04F622
:1007000042EB06015EEA430E08BF20EAD37070BDDB
:10071000C4F10C04C4F1200500FA04F320FA05F03A
:1007200001FA04F240EA020001F0004110EBD3703C
:1007300041F100015EEA430E08BF20EAD37070BDAC
:10074000C4F1200500FA05F24EEA020E20FA04F385
:1007500001FA05F243EA020321FA04F001F0004134
:1007600021FA04F220EA020000EBD3705EEA430EA5
:1007700008BF20EAD37070BD94F0000F0FD101F0D4
:100780000046400041EB010111F4801F08BF013C0D
:10079000F7D041EA060195F0000F18BF704703F04B
:1007A0000046520043EB030313F4801F08BF013DD2
:1007B000F7D043EA0603704794EA0C0F0CEA13558E
:1007C00018BF95EA0C0F0CD050EA410618BF52EA48
:1007D0004306D1D181EA030101F000414FF000004E
:1007E00070BD50EA410606BF1046194652EA43065C
:1007F00019D094EA0C0F02D150EA013613D195EAD0
:100800000C0F05D152EA03361CBF104619460AD117
:1008100081EA030101F0004141F0FE4141F4700121
:100820004FF0000070BD41F0FE4141F4780170BD11
:1008300070B54FF0FF0C4CF4E06C1CEA11541DBF76
:100840001CEA135594EA0C0F95EA0C0F00F0A7F878
:10085000A4EB050481EA030E52EA03354FEA0131A5
:1008600000F088804FEA03334FF0805545EA1313B8
:1008700043EA12634FEA022245EA111545EA106580
:100880004FEA00260EF000419D4208BF964244F117
:10089000FD0404F5407402D25B084FEA3202B61A36
:1008A00065EB03055B084FEA32024FF480104FF40A
:1008B000002CB6EB020E75EB030E22BFB61A75467E
:1008C00040EA0C005B084FEA3202B6EB020E75EB11
:1008D000030E22BFB61A754640EA5C005B084FEA79
:1008E0003202B6EB020E75EB030E22BFB61A754646
:1008F00040EA9C005B084FEA3202B6EB020E75EB51
:10090000030E22BFB61A754640EADC0055EA060E11
:1009100018D04FEA051545EA16754FEA06164FEA54
:10092000C30343EA52734FEAC2025FEA1C1CC0D100
:1009300011F4801F0BD141EA00014FF000004FF08D
:10094000004CB6E711F4801F04BF01430020B4F14E
:10095000FD0C88BFBCF5E06F3FF6AFAEB5EB030C06
:1009600004BFB6EB020C5FEA500C50F1000041EB03
:10097000045170BD0EF0004E4EEA113114EB5C04D0
:10098000C2BFD4EB0C0541EA045170BD41F48011A3
:100990004FF0000E013C90E645EA060E8DE60CEAAB
:1009A000135594EA0C0F08BF95EA0C0F3FF43BAFC8
:1009B00094EA0C0F0AD150EA01347FF434AF95EA7F
:1009C0000C0F7FF425AF104619462CE795EA0C0F63
:1009D00006D152EA03353FF4FDAE1046194622E730
:1009E00050EA410618BF52EA43067FF4C5AE50EA0A
:1009F00041047FF40DAF52EA43057FF4EBAE12E7FA
:100A00004FF0FF3C06E000BF4FF0010C02E000BFDA
:100A10004FF0010C4DF804CD4FEA410C7FEA6C5CBD
:100A20004FEA430C18BF7FEA6C5C1BD001B050EA60
:100A3000410C0CBF52EA430C91EA030F02BF90EA4B
:100A4000020F0020704710F1000F91EA030F58BF0A
:100A5000994208BF90422CBFD8176FEAE37040F06C
:100A6000010070474FEA410C7FEA6C5C02D150EA0A
:100A7000013C07D14FEA430C7FEA6C5CD6D152EAC5
:100A8000033CD3D05DF8040B704700BF844610468A
:100A900062468C461946634600E000BF01B5FFF789
:100AA000B7FF002848BF10F1000F01BD4DF808ED59
:100AB000FFF7F4FF0CBF012000205DF808FB00BF2A
:100AC0004DF808EDFFF7EAFF34BF012000205DF884
:100AD00008FB00BF4DF808EDFFF7E0FF94BF0120D1
:100AE00000205DF808FB00BF4DF808EDFFF7CEFFD2
:100AF00094BF012000205DF808FB00BF4DF808ED11
:100B0000FFF7C4FF34BF012000205DF808FB00BFE1
:100B10004FEA410212F5001215D211D56FF4787325
:100B2000B3EB625212D94FEAC12343F0004343EAC8
:100B3000505311F0004F23FA02F018BF40427047A3
:100B40004FF00000704750EA013005D111F000402D
:100B500008BF6FF0004070474FF00000704700BFC3
:100B60004A0011D212F5001211D20DD56FF478732C
:100B7000B3EB62520ED44FEAC12343F0004343EA81
:100B8000505323FA02F070474FF00000704750EACC
:100B9000013002D14FF0FF3070474FF00000704736
:100BA0004FEA4102B2F1E04324BFB3F5001CDCF18F
:100BB000FE5C0DD901F0004C4FEAC0024CEA5070C7
:100BC000B2F1004F40EB830008BF20F001007047F6
:100BD00011F0804F21D113F13872BCBF01F00040F9
:100BE000704741F480114FEA5252C2F11802C2F12B
:100BF000200C10FA0CF320FA02F018BF40F00100AC
:100C00004FEAC1234FEAD32303FA0CFC40EA0C005D
:100C100023FA02F34FEA4303CCE77FEA625307D19A
:100C200050EA01331EBF4FF0FE4040F440007047D1
:100C300001F0004040F0FE4040F40000704700BF6B
:100C400080F0004002E000BF81F0004142001FBF81
:100C50005FEA410392EA030F7FEA226C7FEA236C8A
:100C60006AD04FEA1262D2EB1363C1BFD21841407F
:100C700048404140B8BF5B42192B88BF704710F015
:100C8000004F40F4000020F07F4018BF404211F0B8
:100C9000004F41F4000121F07F4118BF494292EA20
:100CA000030F3FD0A2F1010241FA03FC10EB0C004C
:100CB000C3F1200301FA03F100F0004302D54942D9
:100CC00060EB4000B0F5000F13D3B0F1807F06D386
:100CD00040084FEA310102F10102FE2A51D2B1F17E
:100CE000004F40EBC25008BF20F0010040EA030073
:100CF0007047490040EB000010F4000FA2F1010220
:100D0000EDD1B0FA80FCACF1080CB2EB0C0200FAA9
:100D10000CF0AABF00EBC25052421843BCBFD040F7
:100D20001843704792F0000F81F4000106BF80F471
:100D300000000132013BB5E74FEA41037FEA226C34
:100D400018BF7FEA236C21D092EA030F04D092F0FF
:100D5000000F08BF0846704790EA010F1CBF002033
:100D6000704712F07F4F04D1400028BF40F0004090
:100D7000704712F100723CBF00F50000704700F0B0
:100D8000004343F0FE4040F4000070477FEA2262D7
:100D900016BF08467FEA23630146420206BF5FEAA8
:100DA000412390EA010F40F4800070474FF00003A8
:100DB00004E000BF10F0004348BF40425FEA000C6F
:100DC00008BF704743F0964301464FF000001CE017
:100DD00050EA010208BF70474FF000030AE000BF6D
:100DE00050EA010208BF704711F0004302D54042AB
:100DF00061EB41015FEA010C02BF8446014600201D
:100E000043F0B64308BFA3F18053A3F50003BCFA37
:100E10008CF2083AA3EBC25310DB01FA02FC6344E4
:100E200000FA02FCC2F12002BCF1004F20FA02F2EB
:100E300043EB020008BF20F00100704702F12002DE
:100E400001FA02FCC2F1200250EA4C0021FA02F23F
:100E500043EB020008BF20EADC7070477BB972B92F
:100E60000029BEBF00204FF0004106E008BF002867
:100E70001CBF6FF000414FF0FF3000F09BB882B014
:100E8000EC462DE9005000F065F8DDF804E002B012
:100E90000CBC704753B94AB9002908BF00281CBFD1
:100EA0004FF0FF314FF0FF3000F084B882B0EC46D5
:100EB0002DE9005000F066F8DDF804E002B00CBC4B
:100EC000704700BF430803F05533C31A980800F079
:100ED000333003F03333184400EB101000F00F30C0
:100EE00000EB002000EB0040000E704780EA10404D
:100EF00080EA102080EA101000F00F0346F69610EA
:100F0000184100F001007047D0B5FFF713FB002235
:100F10000E4B06460F46FFF761FBFFF721FE044626
:100F2000FFF7E6FA00220A4BFFF758FB02460B4692
:100F300030463946FFF79EF9FFF712FE234600229E
:100F400042EA000210461946D0BD00BF0000F03D45
:100F50000000F0412DE9F041069C154606460F467B
:100F6000984600F029F805FB01F300FB0838A5FBC3
:100F70000023B21A434467EB0303C4E90023BDE82E
:100F8000F08100BF2DE9F041069C904606460F46D1
:100F90001D4600F05FF900FB05F5A0FB082308FBE8
:100FA0000155B21A2B4467EB0303C4E90023BDE8E3
:100FB000F08100BF704700BF00292DE9F043C0F267
:100FC000A6800026002BC0F29C80884694469E4650
:100FD000154604460F46002B3DD18A4259D9B2FA34
:100FE00082F33BB1C3F120029F4020FA02F29D4000
:100FF00017439C40290C220CB7FBF1FEA8B201FB61
:101000001E7742EA074700FB0EF3BB420AD97F195D
:101010000EF1FF3280F00581BB4240F20281AEF159
:10102000020E2F44FF1AA4B2B7FBF1F301FB1377B2
:1010300044EA074700FB03F0B84208D97F1903F1DF
:10104000FF3280F0F080B84240F2ED80023B43EA8C
:101050000E43002203E08B420FD900221346341CBA
:1010600018BF012460424FF0000565EB4501584070
:10107000514000196941BDE8F083B3FA83F2002AB8
:1010800040F086808B4202D3844500F2DB8001234E
:10109000E5E712B90123B3FBF2F5B5FA85F00028B4
:1010A0003BD1781B4FEA154E1FFA85FC0122B0FB9D
:1010B000FEF8210C0EFB180741EA07470CFB08F36A
:1010C000BB4207D97F1908F1FF3102D2BB4200F2BF
:1010D000BD808846FF1AA4B2B7FBFEF30EFB137760
:1010E00044EA07470CFB03FCBC4507D97F1903F111
:1010F000FF3102D2BC4500F2A7800B4643EA084309
:10110000ADE752426FEA060663EB43035DE74042F8
:1011100061EB41014FF0FF3654E7C0F1200224FAA1
:1011200002F107FA00F385404FEA154ED740194304
:10113000B7FBFEF20B0C0EFB12771FFA85FC43EA9D
:1011400007430CFB02F79F4204FA00F407D95B192E
:1011500002F1FF3074D29F4272D9023A2B44DF1B56
:1011600089B2B7FBFEF80EFB187341EA03430CFB90
:1011700008F79F4208D95B1908F1FF315CD29F4202
:101180005AD9A8F102082B44D81B48EA02428EE73C
:10119000C2F120032CFA03F10EFA02FE20FA03F743
:1011A00041EA0E0E08FA02F028FA03F14FEA1E4552
:1011B0003843B1FBF5F8030C05FB18111FFA8EF745
:1011C00043EA014107FB08F38B420CFA02FC09D900
:1011D00011EB0E0108F1FF3930D28B422ED9A8F164
:1011E00002087144C91A80B2B1FBF5F305FB131173
:1011F00040EA014107FB03F78F4208D911EB0E01CA
:1012000003F1FF3016D28F4214D9023B714443EAF6
:101210000843C91BA3FB0C89494509D305D000220B
:101220001DE79646FEE6134611E794404445F6D284
:10123000013BF4E70346EAE78846A5E7C846D1E75D
:1012400002468CE713460AE7023B57E7A8F102087B
:101250002F443FE72DE9F041002B44D18A42154647
:1012600004464FD9B2FA82F70E464FB1C7F12003B8
:10127000B94020FA03F602FA07F50E4300FA07F424
:101280004FEA154E230CB6FBFEF0AFB20EFB106119
:1012900043EA014307FB00F1994209D95B1900F1C8
:1012A000FF3280F0EC80994240F2E98002382B4412
:1012B0005A1AA4B2B2FBFEF30EFB132244EA024216
:1012C00007FB03F7974208D9521903F1FF3180F069
:1012D000D880974240F2D580023B43EA0040002686
:1012E0003146BDE8F0818B4247D8B3FA83F6002E31
:1012F00048D18B4202D3824200F2CD800120314698
:10130000BDE8F08112B90125B5FBF2F5B5FA85F813
:10131000B8F1000F77D14A1B4FEA154EAFB2012644
:10132000B2FBFEF0230C0EFB102143EA014107FB48
:1013300000F38B4207D9491900F1FF3202D28B42E8
:1013400000F2BA801046C91AA4B2B1FBFEF30EFB3C
:10135000131144EA014407FB03F7A74208D96419B3
:1013600003F1FF3280F08F80A74240F28C80023B75
:1013700043EA00403146BDE8F08100263046314660
:10138000BDE8F081C6F1200422FA04F5B3402B43F6
:1013900020FA04FC01FA06F721FA04F54FEA134E8D
:1013A0004CEA0707B5FBFEF8390C0EFB18551FFA7F
:1013B00083FC41EA05450CFB08F1A94202FA06F25A
:1013C00004D9ED1808F1FF3467D3A0466D1ABFB2F7
:1013D000B5FBFEF40EFB145547EA05410CFB04FC7B
:1013E0008C4504D9C91804F1FF355CD32C4644EA76
:1013F0000844CCEB0101A4FB0223994248D344D01A
:10140000204600266CE7C8F1200401FA08F305FA2B
:1014100008F520FA04F7E1404FEA154E1F43B1FBEF
:10142000FEF63A0C0EFB16111FFA85FC42EA014348
:101430000CFB06F29A4200FA08F407D95B1906F190
:10144000FF3137D29A4235D9023E2B449B1ABFB2A4
:10145000B3FBFEF00EFB103347EA03430CFB00F135
:10146000994207D95B1900F1FF3221D299421FD965
:1014700002382B445A1A40EA0646674650E710469F
:1014800016E70B4629E7134672E7B0409042B7D201
:10149000601E002624E7304622E7A94295D9A8F12C
:1014A00002081D4492E78C45A0D9023C19449EE7EE
:1014B0001046DFE70E46C9E70238294443E700BF7C
:1014C00002E000F000F8FEE772B6384880F30888C2
:1014D000374880F3098837484EF60851CEF20001AC
:1014E000086040F20000CCF200004EF63471CEF2FB
:1014F00000010860BFF34F8FBFF36F8F40F2000011
:10150000C0F2F0004EF68851CEF200010860BFF341
:101510004F8FBFF36F8F4FF00000E1EE100A4EF6D1
:101520003C71CEF200010860062080F31488BFF3FE
:101530006F8F95F09FFF96F05BFE1F481F491B4A77
:1015400091423CBF41F8040BFAE71D49184A914209
:101550003CBF41F8040BFAE71A491B4A1B4B9A425D
:101560003EBF51F8040B42F8040BF8E7002018497D
:10157000184A91423CBF41F8040BFAE795F07EFF10
:1015800096F092FE144C154DAC4203DA54F8041B4D
:101590008847F9E700F07EFA114C124DAC4203DAAD
:1015A00054F8041B8847F9E795F066BF0004002053
:1015B000002400200000010855555555000000206A
:1015C00000040020D07E0C080024002044270020C6
:1015D00048270020E8EE0020E00101082002010871
:1015E00020020108200201082DE9F04F2DED108A9C
:1015F000C1F80CD0C3689D46BDEC108ABDE8F08FE1
:1016000094F04AFF002383F311882846A047002066
:1016100095F0E6F894F03AFF94F07CFE94F03CFFED
:1016200000DFFEE710F8012B11F8013B012A28BF6B
:101630009A42F7D0D01A7047036800211B681847F8
:10164000052070474FF4E07303FB010068307047DA
:101650004FF4E07303FB01006830704703685B6878
:101660001847000007F0C6BE04F024BD04F068BBB4
:101670003CF058BA27F016BB19F0DEBA27F0FABFD3
:1016800007F0BABD07F0A2BD07F094BD42F0B2B8B2
:1016900022F02EBA06F0E2BE04F0FEBD04F06EBFEA
:1016A00044F026BE36F0D0BC3DF08ABD0EF0ACBB97
:1016B00035F02ABC34F058BF34F022BE04F0CCB868
:1016C00007F0BCBC07F070BC49F0FAB93FF00EBFA0
:1016D00045F0A6BF0DF0A6BB03F01EBF07F0B0BDDE
:1016E00007F0EAB910B5044626F0E4F8204608F001
:1016F000D7F904F5706003492A220823BDE8104099
:1017000027F0EEB8BC000B0810B5044600F5706079
:1017100027F024FA04F55D5304F6647422685A61D4
:1017200010BD000010B50446406808B10EF0F8FD89
:10173000204610BD1E4B1F4A2DE9F041036042F2C6
:10174000507300F51D54C25004F17807054604F6A5
:101750003814BC4216D0A4F5E074174B236004F58E
:101760009870FFF7DFFF04F59470FFF7DBFF04F1DB
:10177000AC0804F592764645EBD00C3E3046FFF7B8
:10178000D1FFF8E742F250730C4AEA5042F270730C
:10179000E85808B10EF0C4FD05F51A502C3036F0AB
:1017A00021FA05F53960FFF7BDFF2846BDE8F08155
:1017B000F8050B08A8000B0868EB0B084CEB0B08AE
:1017C00010B500F1600400F6480001F023FA01466C
:1017D000204645F0BFFC2046BDE8104045F064BC03
:1017E000FFF7EEBF70B50F4C0646236800F51750A3
:1017F00030305D6C43F0F8FC48B123685D6C2B68B9
:1018000028465B69984710F1FF3018BF0120236814
:1018100028715B6C06F6A8701979BDE8704027F056
:101820008DBD00BF4827002030B5044687B004F5C1
:101830000955FFF7D7FF2835204607F07BFF2846DC
:1018400000210AF025FF04F54251143128460AF020
:10185000EDFA43F2B813E054204603F0C9FF002329
:10186000284603A90393049305930AF0E9FB50B1BA
:101870009DED040ADDED037A20EE000AA7EEA70A2B
:1018800097F0E6FD22E041F2A62241F2D013A25CDD
:10189000E35C42B1742202FB034202F5835204323C
:1018A0005278012A16D8742202FB034303F58353AE
:1018B00004335B78022B0DD928460AF06BFB01A894
:1018C0008DED010ACDED020A1DF0B0FB04F5475382
:1018D00083ED040A2046012108F01AF828B12046B9
:1018E00002F09CFC204602F095FD2046802108F085
:1018F0000FF818B104F6A8702AF040FA07B030BD0E
:10190000FFF792BF38B590F93830044693B143F2EF
:101910006415425942B149F0BDFA6259801AB0F5D6
:10192000FA6F94BF0022012220460221BDE8384010
:1019300004F052BD38BD0000FFF7E4BF70B590F968
:1019400017300446DBB100F59E55284610F03AFCEE
:1019500000B970BD04F509502830C0F894500BF060
:1019600099FA20464FF4006107F0D2FF38B104F62F
:10197000A87000220023BDE870402CF0F3BF70BDBA
:10198000FFF7DCBF10B50221044607F0C1FF20B10C
:101990002046012107F0BCFF18B32046102107F0B4
:1019A000B7FF40B1204602F03FFE04F6A87004F2F3
:1019B00044712DF057F92046202107F0A9FF10B1FE
:1019C000204602F0D5FC20464FF4806107F0A0FFCE
:1019D00070B104F6A87004F60C41BDE810402DF07B
:1019E000A3B9204602F01AFC204602F013FDD4E70A
:1019F00010BD0000FFF7C6BF10B54FF400510446FC
:101A000007F086FF10B1204602F0A8FD20464FF4F3
:101A1000804107F07DFF28B1204602F0CDFE204630
:101A200002F0E2FE2046802107F072FF28B104F6A2
:101A3000A870BDE810402AF093BA10BDFFF7DCBFD4
:101A400035F0A0BB10B5044600F6FC7013F0C4F8E6
:101A500041F2D0130C22E35C02FB034303F58153F4
:101A60005A6A43F26473E1588A4207D0E25004F59F
:101A700042502430BDE8104044F0C6BB10BD000009
:101A8000FFF7E0BF43F24C13C05803689B68184748
:101A9000FFF7F8BF10B50A46044903460868016815
:101AA0000C681946024BA047002010BD48270020B3
:101AB0005027002010B549F07FFB064C064B1860FC
:101AC000204603F07BFA20460449054ABDE8104051
:101AD00096F022BE50270020482700203517010825
:101AE00010700020F8B5044604F5095500F51D50A6
:101AF00000211030283532F05BF804F517572846DE
:101B00000BF0C8F93037204606F0F2FE35F03AFB0C
:101B10003846002100F02EF9254E01237071384619
:101B2000B37143F061FB28B9384644F097F8B0FA36
:101B300080F0400930711F4B1F4E628A1A70336863
:101B40005B6C1B79DBB941F2A62241F2D013A25C97
:101B5000E35C42B1742202FB034202F58352043279
:101B60005278012A0BD8742202FB034303F58353F6
:101B700004335B78022B02D9204603F043FE204653
:101B800007F044FC204607F05DFC33685B6C1C7971
:101B90003CB195F88C30DB0603D449F07BF9C5F8ED
:101BA000900095F88C3064F3041385F88C30F8BD00
:101BB000686500200A24002048270020FFF792BF14
:101BC000F0B50A46C188012987B0034603D049060B
:101BD00001D401203EE02049D1F8980FD1F89C1F94
:101BE00003911E49029003C904AC84E8030000215C
:101BF00002A840F2145650F8215054F82100B5F9CB
:101C00000A70B74204DD009040211846144B19E0D9
:101C1000B5F90E6040F2A36E764504DC00904021D9
:101C20001846104B0EE0B5F90C50BD4204DA009096
:101C3000402118460C4B05E0B54207DD00901846E0
:101C40000A4B402143F0F4FA002003E00029C0D100
:101C50000121CDE707B0F0BD50270020ACFE0A08F7
:101C600008060B081E060B0833060B084B060B086C
:101C700037B50D4602A9002341F8043D084847F056
:101C80000FFC044648B945B1019B33B134F0BEFBAB
:101C90000221044A019B2EF091F9204603B030BD89
:101CA0000C33002063060B0810B50A480C463FF0C1
:101CB00057FC08B9012010BD06483FF051FC01282F
:101CC000F8D82CB134F0A2FB0221034A2EF076F9A9
:101CD000002010BD5C33002076060B082DE9F3418F
:101CE000204C43F24C170646E0590368DB690D4669
:101CF0009847A04630B9E05903681B6A984708B96D
:101D000001242AE043F2681318F8033043B12DB1DF
:101D100034F07CFB0221144A2EF050F900241CE020
:101D2000104804F047FA044680B90BF053FA0368F0
:101D30005B6A98470D4B002808BF18460090214663
:101D400030462A460A4B43F073FA06E030462946ED
:101D500002B0BDE8F04143F0A9BB204602B0BDE8A7
:101D6000F08100BF50270020AC060B0895060B0839
:101D700073060B0870B50D46064643F0A1FE2946D2
:101D80000446084800F002FA20402946C4B2304612
:101D9000FFF76EFF294604403046FFF785FF2040DD
:101DA00070BD00BF982F0020072894BF21304A3013
:101DB000C0B2704710B501230446416080F8283056
:101DC000024925F05BFD204610BD00BF00080B084E
:101DD00010B590F90830032B044608D1462035F0A1
:101DE000BFFB492035F0BCFB4A2035F0B9FB94F924
:101DF0000A4046204CB1032135F040FA4920032126
:101E000035F03CFA4A20032108E0214635F036FA45
:101E10004920214635F032FA4A20214635F02EFA83
:101E20004620032135F006FA4920032135F002FA55
:101E30004A200321BDE8104035F0FCB910B51A2046
:101E400041F2941135F0EEFB4620642135F0EAFBB7
:101E500049204FF47A7135F0E5FB4A204FF47A714E
:101E600035F0E0FB0024E0B2FFF79EFF013464216F
:101E700035F0D8FB042CF6D159206421BDE8104080
:101E800035F0E4BB73B5CCB2032C0D4613D8204615
:101E9000FFF78AFF2146064635F0B2FA30460DF1CB
:101EA000070135F0F3FA30B934F0B0FA0321034AF0
:101EB0002B462EF083F802B070BD00BFF4060B086D
:101EC000CBB2032B9FBF00EB81000023436343642D
:101ED00098BF436570470000F8B50446002569B215
:101EE00020460135FFF7ECFF042DF8D1344B93F871
:101EF000F06C022E1ED0032E3CD0012E5ED14FF08E
:101F00007E5503232F4F84F86430204600216563FB
:101F100067646765FFF7B6FF002320463146A36379
:101F2000A764A565FFF7AEFFE563E564E5652046B8
:101F300002213FE0234F84F864504FF07E55204645
:101F40000021656367646765FFF79CFF20460121F8
:101F5000A563A764A565FFF795FF20463146E563B5
:101F6000E564E765FFF78EFF256425652566204655
:101F700003211FE04FF07E5784F86450002520466F
:101F80000021656367646765FFF77CFF20460121D8
:101F9000A763A564A565FFF775FF0A4BE5632046B7
:101FA0000221E364E765FFF76DFF27642565256679
:101FB00020463146BDE8F840FFF764BFF8BD00BFDA
:101FC00050270020000080BF80ED070A80F828100D
:101FD0007047000010B50B4B1B685B6C1B79044607
:101FE00073B190F90F305A4200EE902A07EE903A02
:101FF000F8EEE00AB8EEE71A1AF0A6FF84ED080A38
:1020000010BD00BF4827002010B5DFED050A9FED89
:10201000051A04461AF098FF84ED0B0A10BD00BFA4
:102020000000C8C20000C84210B5DFED050A9FEDF0
:10203000051A04461AF088FF84ED0C0A10BD00BF93
:10204000000000000000C842B0F90C30002B16DD83
:1020500007EE903AB8EEE71AD0ED097A61EE200A61
:10206000B7EE001AF4EEC10AF1EE10FA58BFB0EE66
:10207000601A77EEC10A37EE811A1AF065BF704711
:1020800008B5492035F0C6F818B14A2035F0C2F835
:1020900000B9002008BD0000592035F0BBB8000091
:1020A00000B52DED028B042983B0B0EE408A66D8CE
:1020B0000139032963D8DFE801F002172B3F212003
:1020C00035F0A8F838B1FCEEC87A212017EE901A46
:1020D00089B235F023F9462035F09CF8002844D029
:1020E000BCEEC88A46203AE0222035F093F838B199
:1020F000FCEEC87A222017EE901A89B235F00EF95C
:102100001A2035F087F880B3BCEEC88A1A2026E082
:10211000232035F07FF838B1FCEEC87A232017EE83
:10212000901A89B235F0FAF8492035F073F8E0B129
:10213000BCEEC88A492012E0242035F06BF838B193
:10214000FCEEC87A242017EE901A89B235F0E6F832
:102150004A2035F05FF840B1BCEEC88A4A208DEDC8
:10216000018ABDF8041035F0D9F835F0CFFB35F011
:10217000E3FB34F07DFF35F0E7FB012000E00020B9
:1021800003B0BDEC028B5DF804FB00002DE9F041CB
:10219000074649200D4635F03DF888B14A2035F014
:1021A00039F868B1462035F035F848B11A2035F0D5
:1021B00031F828B1A5B134F029F90221224A0DE005
:1021C000492035F027F804464A2035F023F88442A8
:1021D00008D02DB134F01AF91C4A02212DF0EEFE80
:1021E00000242EE0592035F015F8044618B9462091
:1021F00035F010F804461A2035F00CF8844206D069
:10220000002DEDD034F002F90221114AE6E7002654
:1022100097F86430F0B2834212D9FFF7C5FD8046CB
:1022200034F0F8FF013604460028F1D1002DD7D054
:1022300034F0ECF80221074A43462DF0BFFE00E0DF
:1022400001242046BDE8F08115070B0842070B0862
:1022500065070B0890070B0810B5002104461422EF
:1022600090F90E001AF066FE1E21A073642294F904
:102270000F001AF05FFE94ED050AE073DFED040A2B
:102280009FED041A1AF060FE84ED050A10BD00BF30
:10229000000000000000C84270B50546462035F039
:1022A0004DF90446492035F049F9204384B24A20CB
:1022B00035F044F9204384B2002695F86430F0B23A
:1022C000834206F1010606D9FFF76EFD35F036F9B7
:1022D000204384B2F1E795F90830013B072B4ED833
:1022E000DFE803F0040C14142B333B43244B1B682E
:1022F000D86B03682146DB6E02223DE0204B1B6851
:10230000D86B03682146DB6E032235E01C4B1E6848
:10231000F06B03682146DB6E0422984795F909307B
:10232000F06BC3EB4312016803EB8202D2004B68EF
:1023300092B22146BDE870401847114B1B68D86B1C
:1023400003682146DB6E052216E00D4B1B68D86B37
:1023500003682146DB6E06220EE0094B1B68D86B32
:1023600003682146DB6E072206E0054B1B68D86B2D
:102370000368DB6E21460822BDE87040184770BD37
:102380004827002010B50446FFF758FD2046FFF708
:1023900083FF2046FFF71CFD044B93F9F03C23B16B
:1023A0002046BDE81040FFF797BD10BD5027002024
:1023B00013B50446592034F02DFF68B1D4ED0C7AE2
:1023C000FDEEE77A5920CDED017ABDF9041002B097
:1023D000BDE8104035F094B802B010BD10B52DED39
:1023E000028B90ED088AF0EE400AB0EE480A0446EF
:1023F000FFF72AFEB4EEC08AF1EE10FA84ED080A67
:1024000003DD237843F0080303E003D5237843F08A
:1024100004032370BDEC028B84ED090A10BD00009B
:1024200049B1DFED247AB4EEE70AF1EE10FA94BF79
:102430000122002200E00122037862F3000303700E
:1024400049B1DFED1D7AB4EEE70AF1EE10FAACBF48
:102450000122002200E00122037862F341030370AD
:1024600071B190F90F305B4207EE903AF8EEE77ADF
:10247000F4EEE70AF1EE10FA94BF0122002200E028
:102480000122037862F38203037069B190F90F307F
:1024900007EE903AF8EEE77AF4EEE70AF1EE10FA7A
:1024A000ACBF0122002200E00122037862F3C303E3
:1024B0000370704700A08CC500A08C4510B5DFEDFF
:1024C000407AB0EEC07AB4EEE77AF1EE10FA2DED74
:1024D000048B0446F0EE676A6FD490F90E30002B3F
:1024E00023DDDFED387A9FED386AB4EEE70A07EEB8
:1024F000903AB8EEE77AF1EE10FA97BF36EE477AE7
:1025000076EE477A87EE067A5B428DBF87EE866A63
:1025100007EE903AF8EEE77AA0EE067A96BFE0EE84
:10252000077AB0EE470AB0EE670A94ED047AF0EE4F
:10253000C77AF4EEE67AF1EE10FA3ED4B7EE009ADE
:10254000B4EEC97AF1EE10FA37DCFFEE007AB4EEA1
:10255000E77AF1EE10FA30D4DFED1B9ADFED1B0ABB
:10256000B5EEC00AF1EE10FAB0EE691A54BFB0EE43
:10257000498AB0EE678A1AF0E7FC80EE290AD4EDAA
:10258000048AF1EE007A68EEA77AB0EEC00A39EE5E
:10259000687A27EE800AA7EE070A1AF0A5FB78EE04
:1025A000C98A68EE297A38EE800A27EE800AD4EDCF
:1025B000047A77EEA77A80EE270ABDEC048B10BD73
:1025C00000000034000000B40000C8420000C8C28F
:1025D00008B5DFED177AF4EEE70AF1EE10FA2DED0B
:1025E000028BB0EE408AF0EE608A1CDB492907D1ED
:1025F0001048002145F092FEA8B10E48002108E0E5
:102600004A2910D10B48012145F088FE58B10948EC
:102610000121B0EE480AF0EE680ABDEC028BBDE87D
:10262000084045F087BEB0EE480ABDEC028B08BDFD
:10263000000000348430002070B52DED028B462957
:1026400082B005460C46B0EE608A07D0A1F149037E
:10265000012B03D9A1F12103032B68D82846FFF7EA
:102660002DFFF0EE480A28462146FFF7B1FF95F905
:102670000860032EB0EE408A3BD120464FF0FF3178
:1026800034F024FF002852D090F90630DFED2A7A8A
:10269000002B14BF4FF0FF33012308EE903AF8EE01
:1026A000E88A28EE887AB4EEE77AF1EE10FA94BF61
:1026B00001220022242C14D004D8222C0BD00DD8B7
:1026C000212C04E0492C03D04A2C04D0462C0CD1F8
:1026D0006868002107E06868012104E06868022159
:1026E00001E0686831463CF04DFDB0EEC88A28EE46
:1026F000888A462C0DD004D8A4F12103032B16D8C8
:1027000007E0A4F14903012B11D8F2EE047A28EE78
:10271000278ABDEEC88A20468DED018ABDF90410D6
:1027200002B0BDEC028BBDE8704034F0E9BE02B0EF
:10273000BDEC028B70BD00BF000000B430B52DEDC4
:10274000028B052983B004460D467FD8DFED420A8F
:102750009FED421A1AF0F8FB013DB0EE408A042DBD
:102760006AD8DFE805F0031730495C00212034F017
:1027700051FD38B120462121B0EE480ADFED380A7C
:10278000FFF75AFF462034F045FD002854D020467C
:1027900046212AE0222034F03DFD38B12046222196
:1027A000B0EE480ADFED2E0AFFF746FF1A2034F09C
:1027B00031FD002840D0DFED2B7A28EE278A1A2041
:1027C000BDEEC88A32E0232034F024FD38B1204623
:1027D0002321B0EE480ADFED220AFFF72DFF492042
:1027E00034F018FD40B320464921B0EE480ADFED31
:1027F0001C0AFFF721FF1FE0242034F00BFD38B145
:1028000020462421B0EE480ADFED150AFFF714FF39
:102810004A2034F0FFFC78B120464A21E5E75920F0
:1028200034F0F8FC40B1BDEEC88A59208DED018A24
:10283000BDF9041034F064FE35F068F835F07CF82A
:1028400034F016FC35F080F8012000E0002003B0E1
:10285000BDEC028B30BD00BF0000C8C20000C84202
:10286000000000000000344230B52DED048B04461A
:1028700083B0B0EE409AB0EE608AF0EE418A0D4629
:10288000002946D090F828308BB3D0ED057A9FED23
:10289000387AF4EEC77AF1EE10FA11DBB0EEC10A25
:1028A000B4EEE70AF1EE10FA2ADD87EE800ADFEDDA
:1028B000310AB7EE001A1AF047FB28EE008A1FE033
:1028C000D0ED067AF4EEC77AF1EE10FA46DBB0EE00
:1028D000C07AB4EEE77AF1EE10FA3FDDC7EE877A00
:1028E00020EEA78ADFED247AB4EEE79A03E0DFED6D
:1028F000227AB4EEE71AF1EE10FA98BFB1EE488AE8
:1029000020464621B0EE680ADFED1A0AFFF794FE72
:1029100006E090F90A30462003B1032134F0D2FCDE
:1029200020462946B0EE480AF0EE680AFFF778FD27
:10293000B0EE480ADFED110A9FED111A1AF004FB00
:10294000BDEEC00A1A208DED010ABDF9041003B0D6
:10295000BDEC048BBDE8304034F0D2BD2046FFF71B
:102960008FFB0028BED1237843F003032370B9E71F
:102970000000003400000000000000B400A08CC57E
:1029800000A08C4538B52DED068B04460D46B0EE03
:10299000408AF0EE608AF0EE419AFFF771FB002862
:1029A00068D09FED36AAB0EE480AF0EE680A2046DD
:1029B0002946FFF735FDB0EE480ADFED310AB0EEEB
:1029C0004A1A1AF0C1FAA5B994F90A4049202CB163
:1029D000032134F077FC4A20032104E0214634F03F
:1029E00071FC4A202146BDEC068BBDE8384034F02E
:1029F00069BC9FED248A88EE889A80EE0A0AFFEE71
:102A0000000AB7EE001A1AF09FFAFFEE000AF0EE85
:102A1000408AB7EE001AB0EE490A1AF095FAF0EEC5
:102A2000E87AB0EEC07A77EE877AB7EE007AF4EE05
:102A3000C77AF1EE10FAC8BFC8EEA78A20464FF059
:102A40004901C8BF80EE270AF0EE690A30EE689AA5
:102A500030EE280A20EE080AFFF7EEFD29EE080AFC
:102A6000F0EE690ABDEC068B20464A21BDE83840ED
:102A7000FFF7E2BDBDEC068B38BD00BF00A08C4562
:102A800000A08CC50000C84270B52DED068B384BF8
:102A900093F9F03C0546F0EE408AF0EE60AAB0EE05
:102AA00041AA002B61D0002941D09FED328A01213B
:102AB000FFF7B6FCB0EE680ADFED2F0AB0EE481A59
:102AC0001AF042FADFED2D7AC0EE089A05F13406CD
:102AD0000024CAEEA7AA8AEE27AAB7EE009AF0EE63
:102AE000678AF6EC017A96ED030A29EE800AE0B2D5
:102AF000AAEEA70A0134D6ED077AAAEE270AF0EE6D
:102B0000C07AF4EE497AF1EE10FAC8BFB0EE679AD7
:102B100080EE098AFFF748F901462846DFED180ADA
:102B200028EE280AFFF788FD042CDAD11DE090F981
:102B30000A406CB10C4695F86430E0B2834204F16F
:102B4000010412D9FFF730F9032134F0BBFBF2E79F
:102B500095F86430E0B2834204F1010405D9FFF72F
:102B600023F9002134F0AEFBF2E7BDEC068B70BD1B
:102B70005027002000A08C4500A08CC50000C84252
:102B80000000000038B5224B2DED028B1B685B6CFA
:102B90001B7904460D46F0EE408AB0EE608A13B908
:102BA000002202621D462046FFF756FB2046B0EE8B
:102BB000480AFFF713FC20462946B0EE680AD4ED18
:102BC000070A94ED081AFFF74FFE2046294694EDB8
:102BD000070AD4ED080AB0EE481AFFF7D3FE2946DB
:102BE00094ED070AD4ED080A94ED0B1A2046FFF77E
:102BF0004BFF2046FFF7DCFB34F088FE34F09CFEF0
:102C000034F036FABDEC028BBDE8384034F09CBE9F
:102C10004827002010B5144B2DED028B1B685B6C10
:102C20001B7904460BB900201BE0D0ED087A9FED1C
:102C30000F8AF0EEE77AF4EEC87AF1EE10FA0FD5CB
:102C4000FFF71EFA0028EED0D4ED077AF0EEE77A0F
:102C5000F4EEC87AF1EE10FA54BF0120002000E033
:102C60000120BDEC028B10BD48270020000000347D
:102C7000014846F059BC00BF0C33002070470000EB
:102C800001207047002070470120704743F24C1329
:102C9000024AD05803681B68184700BF502700201D
:102CA000054BD3ED007AFDEEE77A82B0CDED017AE7
:102CB000BDF9040002B07047B82F0020014B187D09
:102CC000704700BF50270020034B93F9A00000304D
:102CD00018BF0120704700BF50270020014B93F917
:102CE000160070475027002043F24C13034AD05877
:102CF000034BC01A18BF0120704700BF50270020A7
:102D0000E45E0020002070477047000000207047FC
:102D100000487047582F002008B5044806F022FEEE
:102D2000002814BF0B200A2008BD00BF5027002038
:102D300070B5104D43F24C16A85903685B6998476B
:102D40000028A8590368DB680CBF01244124984778
:102D500008B144F0080443F24C13EA58064B9A4277
:102D600005D0064842F040FA08B144F0800444F02F
:102D7000010070BD50270020E45E0020404D00207F
:102D800000B58BB0192362228DF8241001920093B4
:102D9000C22103AA8DED030ACDED040A8DED051ABB
:102DA000CDED061A8DED072ACDED082A2DF054FF42
:102DB0000BB05DF804FB000070B52DED028B002414
:102DC00084B0064625461E480378E1B203F00703A7
:102DD0008B4211D9843825F039F958B14368FDB1D7
:102DE0001A8807EE902AF8EEE77AF4EEC87AF1EE48
:102DF00010FA15D40134E6E7F5B1DFED127A307E32
:102E0000CDED038A082328EE278A532201920093EE
:102E1000AD210DEB03028DED028A2DF01DFF0BE0BD
:102E20001A885B8808EE102A08EE903AB8EE488AB5
:102E3000F8EE688A0125DDE704B0BDEC028B70BDB9
:102E4000F44600200AD7233C08B5064804F0C4FA2B
:102E5000014628B103480222BDE8084006F0E4BC60
:102E600008BD00BF502700200C4B43F25C129A5C57
:102E700082B943F268129A5C62B943F24C129B58D1
:102E8000074A934208D002F1640083420CBF03203A
:102E9000042070470520704702207047502700200B
:102EA000E45E00202DE9F04F2DED028B00F5475533
:102EB00014358DB006468846284600210CF0A6FE43
:102EC00028B1284600210CF081FE002852D1FF27AE
:102ED0004FF6FF74304606F0B5FA06F55D5306F579
:102EE0007060D3F800B043F2447356F803A043F285
:102EF000487356F8039025F00FFE28460021B0EEE7
:102F0000408A0CF097FEDFED257ACDF810B028EE60
:102F1000278A20EE270ABCEEC87AFCEEC07A17EEAC
:102F2000103AADF81C3017EE903AADF81E30002381
:102F3000ADF82230ADF82430ADF82630ADF82830A9
:102F4000ADF82A30ADF82C307C221F23019200937B
:102F50004046012104AACDF814A0CDF81890ADF890
:102F600020408DF82E702DF077FE0DB0BDEC028B59
:102F7000BDE8F08F002128460CF092FD0021C7B279
:102F800028460CF075FEDFED067A20EE270ABDEE2E
:102F9000C00A8DED030ABDF80C409BE700007A449F
:102FA0000000C8422DE9F0412DED028B044643F2AA
:102FB0004C158CB000F51D60884641F0DFFD60596E
:102FC000DFED258A03689B6A60EE288A984760597E
:102FD000BDEEC00A03688DED030A5B6ABDF80C7094
:102FE00098476059BDEEC00A03688DED030A1B6B5C
:102FF000BDF80C6098476059DFED187A0368846D5E
:10300000DB6AB4EEE70AF1EE10FAB0EE408A58BF80
:10301000B0EE678A9847FCEEC87A002305930793C1
:1030200017EE903AB722ADF82C301A230192009394
:1030300040463E2105AACDED068A08948DED090A89
:10304000ADF82870ADF82A602DF006FE0CB0BDEC8E
:10305000028BBDE8F08100BFE02E654200FF7F4794
:1030600070B52DED048B044688B000F648000D467F
:10307000FFF706F8DFED338AB0B1492034F052FA99
:1030800007EE900A9FED309AB8EEE78A4A2088EE64
:10309000098A34F047FA07EE900AF8EEE77A28EE4C
:1030A000288AC7EE897A17E01A2034F03BFA07EE37
:1030B000900A9FED268AF8EEE77A462087EE888A06
:1030C00034F030FA07EE900A9FED217AF8EEE77AB5
:1030D00028EE288AC7EE877A67EEA88A47F0DAFEDC
:1030E000064604F51A502C3034F0CAFEFDEEC87ABC
:1030F000002217EE903AFDEEE87AADF80C3017EEAC
:10310000903AADF80E20ADF81030ADF81220ADF8C1
:103110001420ADF81620ADF81820ADF81A208DF85F
:103120001C201623ED228DF81D00019200932846E5
:10313000222102AA02962DF08FFD08B0BDEC048B6F
:1031400070BD00BF00401C4600007A4400A08C45C2
:103150000000C8422DE9F0412DED028B438DDF07C1
:1031600082B004460D4603D4638D9E0758D531E0E6
:1031700000F50957283700F604263846D6ED008AB0
:103180009FED6F8A08F012FE8046384608F01AFE5E
:1031900000F1180140461CF049FC68EE888A60EE98
:1031A000080A96ED051AD6ED021A96ED032AD6ED19
:1031B000042A0521B0EE680A2846FFF7E1FD2846FB
:1031C0002EF044FB064628462DF0EEFC18368642CB
:1031D000CADBAFE09FED5B8A02A921ED018A04F50D
:1031E0001D6041F04BFD04F64823042193ED000AD5
:1031F000DDED010AD3ED021A93ED032AD3ED042A83
:10320000B0EE481A2846FFF7BBFD28462EF01EFBFD
:10321000064628462DF0C8FC1836864280F28A8081
:10322000638D580703D4638D190745D524E004F650
:103230008C2304F50952DFED427A93ED000AD2EDBA
:103240000C0A93ED051AD3ED021A93ED032AD3ED80
:10325000042A022120EE270A60EEA70A2846FFF77B
:103260008FFD28462EF0F2FA064628462DF09CFCEB
:1032700018368642D7DB5DE0002104F6341045F0B5
:103280000FF90346072193ED0B0AD3ED0C0A93EDDA
:10329000101AD3ED0D1A93ED0E2AD3ED0F2A2846FE
:1032A000FFF76EFD28462EF0D1FA064628462DF08F
:1032B0007BFC183686423DDA638DDA061FD5012184
:1032C00004F6341045F0ECF80346082193ED0B0AA0
:1032D000D3ED0C0A93ED101AD3ED0D1A93ED0E2ACF
:1032E000D3ED0F2A2846FFF74BFD28462EF0AEFA05
:1032F000064628462DF058FC183686421ADA638DA9
:103300009B0617D504F531642846092194ED000A7F
:10331000D4ED010A94ED051AD4ED021A94ED032AB6
:10332000D4ED042AFFF72CFD28462EF08FFA28460C
:103330002DF03AFC02B0BDEC028BBDE8F08100BF7D
:10334000E02E6542000000007FB500F50B650446E5
:103350000E462846002144F0FDFE20B928460121F2
:1033600044F0F8FE90B104F55E530C3304F55E545E
:103370001B68A26802920393CF2208230192009354
:103380003046E2210DEB03022DF066FC04B070BD67
:1033900070B590F82459C6B004460E4675B30021A6
:1033A000802202A898F03CFA04F55D53586BFDF7B3
:1033B000C1F8012DCDE9020106D904F55D53986BE2
:1033C000FDF7B8F8CDE9040143F2847302A9E2588D
:1033D0008DF814514FF47A735343239380220023C2
:1033E00025A8249398F0F4F971228923019200937F
:1033F000304642F2283123AA2DF02EFC46B070BD93
:1034000070B500F51E53383304461B79002B43D0AA
:1034100090F8DD3F6FF3000380F8DD3F47F03AFDA1
:103420001E4A1368C31AB3F57A7F05460BD904F513
:103430001D56103610600021304630F0B9FB304682
:10344000032130F0B5FB164A1368EB1A142B0ED982
:1034500004F51D5610363046156032F051FF3046E7
:1034600033F082F804F545502C3020F041FB0D4A32
:10347000136841F28831EB1A8B4207D904F51D50CD
:10348000156010300621084A2CF098FD94F8DD3FB5
:1034900043F0010384F8DD3F70BD00BF8C64002061
:1034A0009064002088640020B0090B0870B55A4B66
:1034B0001B680446186C03689B690E46984768B9F8
:1034C000564B1D7855B9564825F018FBC72805D826
:1034D00032F09CFF012380F82C309BE01B2E10D192
:1034E000207E2EF0B3F90546207E2DF05DFB0735DA
:1034F000854201DB00258DE04A48217E03F078F803
:103500000DE03BD8062E0CD0182E19D0032E3AD140
:1035100023682046D3F8843098470546F8B901253A
:1035200078E0207E2EF092F90546207E2DF03CFBBF
:1035300019358542DEDA3B48217EFFF733FDEEE7A1
:10354000207E2EF083F90546207E2DF02DFB1535CB
:103550008542CFDA3348217EFFF782FDDFE7207E08
:103560002EF074F90646207E2DF01EFB1E36864294
:10357000C0DA2C48217EFFF795FC4BE02E2E08D0B8
:1035800025D8212E14D020463146BDE8704031F0B8
:103590005DBE207E2EF05AF90546207E2DF004FBFC
:1035A00018358542A6DA1F48217EFFF7D3FDB6E71E
:1035B000207E2EF04BF90546207E2DF0F5FA0B35D6
:1035C000854297DA1848217E46F09AFFA7E7302E09
:1035D0000ED1207E2EF03AF90546207E2DF0E4FA39
:1035E0000735854286DA0F48217EFFF7ADFE96E764
:1035F000312EC8D1207E2EF029F90546207E2DF0EF
:10360000D3FA88358542BFF675AF0648217EFFF7AD
:10361000BFFE84E7284670BD48270020C86400200C
:1036200050360020502700209434002070B5064604
:103630000D4614461146054846F0B2FC3046294670
:103640002246BDE8704032F08BBD00BFB833002089
:1036500008B5084A43F24C13D058074B984206D19C
:1036600008319FED060A04F08FFB012008BD002001
:1036700008BD00BF5027002074600020804FC34762
:1036800038B5CB68F7EE000A00EE103A05460C4656
:1036900019F0F6FA38B10D4805F02CFA08B10020FF
:1036A00038BD042038BD6369F7EE000A00EE103A19
:1036B00019F0E6FA18B1064846F016FFEEE728467C
:1036C0002146BDE8384031F02FBB00BF5027002015
:1036D0009434002030B58B8BB32B85B00C4611D0C1
:1036E000C22B68D0B22B77D143F24C133C4AD0584E
:1036F0004B6800EE103A03F07BF900280CBF042061
:1037000000206BE00B68F7EE000A00EE103A19F0AB
:10371000B7FA40B13248012102F046F8002814BF40
:10372000002004205AE023689FED2E7A07EE903A9D
:10373000F0EEE77AF4EEC77AF1EE10FA01D4042045
:103740004CE094F8203023B15A1F012A01D9032BF1
:10375000F5D12069616919F04DFE0028EFD0684667
:103760000CF0F8FC2369029363690393A3699FED4E
:103770001E7A94F8202007EE903A67EE877A032AA3
:10378000FDEEE77A17EE903ACDED017A01D0062AE8
:103790000AD1134A42F2CC31515CC907CFD502F5A8
:1037A0000F521268134401930D486946012201F03B
:1037B0006BFF78B9C3E743F24C13094AD5580B683D
:1037C000F7EE000A00EE103A19F05AFA01462846C0
:1037D00003F01CF9002001E031F0D2FB05B030BD50
:1037E00050270020000000340000C84230B58B8B09
:1037F000CF2B89B00C4679D01FD8B22B00F08D802A
:1038000005D8142B40F0F7808048814949E0B32B5C
:1038100000F08D80C22B40F0EE807C4A43F24C13C6
:10382000F7EE000AD5580B6800EE103A19F028FAA6
:103830000146284603F0EAF8E5E0D52B00F0BC800D
:1038400026D8D12B40F0D7802368E568017E6F48E9
:1038500006EE903A636807EE103AA36807EE903AD6
:10386000FDEEE77AFCEEE66ACDED037ABCEEC77AB0
:10387000BDF90C30CDED036A9DF80C208DED037A77
:10388000009300EE105A9DF80C3004F045FFBBE0A9
:10389000B3F5967F03D0B3F5C87F09D0ABE05B48A2
:1038A0005C49022205F0C0FF002800F0AA80AAE0CF
:1038B0000B68F7EE000A00EE103A19F0E1F920B1BA
:1038C0000121524806F0C6F8EEE723689FED527AD0
:1038D00007EE903AF0EEE77AF4EEC77AF1EE10FADE
:1038E00040F18D80494806F021F8DDE70B6807EECE
:1038F000903AFCEEE77ACDED037ABDF80C4034B196
:10390000012C7ED14548214645F08EFE7BE04348A0
:10391000214645F089FE204676E043F24C133B4AAF
:10392000D0584B6800EE103A03F062F8BCE70B6821
:10393000F7EE000A00EE103A19F0A2F920B10121C9
:10394000324801F031FFAFE723689FED337A07EE8D
:10395000903AF0EEE77AF4EEC77AF1EE10FA50D52D
:1039600004A80CF0F7FB2369DFED2D6A274807EE6A
:10397000103A27EE267A04A9BDEEC77A01228DED12
:10398000067A63699FED277A07EE903A67EEA67A8A
:10399000FDEEE77ACDED077AA36907EE903A67EE80
:1039A000877AFDEEE77ACDED057A01F06DFE00280D
:1039B00014BF0020042027E043F24C13134AD558CB
:1039C000194B9D421DD12846002102F0EBFF636890
:1039D000B0EE401A00EE103AF1EE410A21EE000A74
:1039E00019F0B2FA2368F0EE400A284600EE103AC9
:1039F00004F082F807E0214632F018F804E00320D2
:103A000002E0042000E0002009B030BD5027002073
:103A1000BC620020E0600020000000340C33002075
:103A20008096184B0000C842746000202DE9F04FCA
:103A30002DED048B8A7A4B7A43EA0223CA7A43EA51
:103A40000243562B95B005460C4600F074820FDCFD
:103A5000462B27D005DC002B00F0F180452B6ED0E3
:103A60007BE3522B00F0F880542B00F04B8174E381
:103A7000A12B0EDCA02B80F267836D2B00F044831A
:103A8000842B40F06A83CD4824F0F2FACC482146DA
:103A900060E3A62B00F03883B3F5A57F40F05D838B
:103AA000C74857E3C74FCA79B7F914309A4240F074
:103AB0007C8347F0EFF9E678262E28BF26260546B8
:103AC0000021262206A897F0ABFE04F10C01324635
:103AD00006A897F07DFE0020BDF918102A4633F0A5
:103AE000F3F90120BDF91A102A4633F0EDF902204E
:103AF000BDF91C102A4633F0E7F90320BDF91E106A
:103B00002A4633F0E1F90420BDF920102A4633F0AB
:103B1000DBF90520BDF922102A4633F0D5F906203D
:103B2000BDF924102A4633F0CFF90720BDF926103D
:103B30002A4633F0C9F943F26413FD5035E3A14D31
:103B4000CA79B5F914309A4240F02F83CE780B2E03
:103B500028BF0B2600210B2206A897F061FE3246F3
:103B600006A804F10C0197F033FE9DF82220B5F968
:103B700012309A4240F0198347F08CF9BDF91A309F
:103B800047F6FF72934206461ED0D5F8981FB1F94A
:103B90000A20B1F90E1007EE902A03F57A738A1AFB
:103BA0005343F8EEE76A07EE903AB8EEE77ADFEDB6
:103BB000867AC7EE277A76EEA77AFDEEE77ACDED24
:103BC000007ABDF8001000E00021BDF91C3047F676
:103BD000FF7293421ED0D5F89C0FB0F90A20B0F9BD
:103BE0000E0007EE902A03F57A73821A5343F8EE1B
:103BF000E76A07EE903AB8EEE77ADFED737AC7EE40
:103C0000277A76EEA77AFDEEE77ACDED007ABDF859
:103C1000004000E0002495F8700F0138C0B209B2EE
:103C2000324633F051F995F8730F0138C0B221B222
:103C3000324633F049F943F26413EE50B5E2614C79
:103C4000CA79B4F914309A4240F0AF8247F022F9B1
:103C500043F26413E050A8E2CD785A4F272D28BFD5
:103C600027250021272206A843F24C1697F0D8FDFD
:103C700004F10C0106A82A4697F0AAFDBC59534B43
:103C80009C4240F092829DF83E5005F0400303F0C4
:103C9000FF08002B40F08982FFEE000AB7EE001A01
:103CA0009DED0E0ADFED4A8A9FED4A9A19F04CF914
:103CB000B8598DED0E0A4146B0EE408A02F072FE10
:103CC00015F0040F20EE088A12D0079B0293089B80
:103CD0000393099B049302A80A9B05931BF042F8E7
:103CE00020EE280A204620EE090AF0EE480A08E2F3
:103CF0009DED0D0A20EE280A204620EE090AF0EE7E
:103D0000480A15E1CD78352D28BF3525002135220B
:103D100006A897F085FD04F10C012A4606A897F045
:103D200057FD284B43F24C129B469958274A914223
:103D300040F03B829DF84C60012E03D0F31F022B14
:103D400000F23382DFF890E0BDF848409EE80F00B3
:103D500014F0030718BF012714F0180F14BF4FF019
:103D600001094FF0000902AD14F0C00FC4F3802820
:103D700014BF4FF0010A4FF0000AC4F3C02485E8D5
:103D80000F00B7BB072E2DD028D3092E26D8AEF6AC
:103D9000BC43AEF54B6ED3ED006ADDED080ADEEDF7
:103DA000007A9DED077A27EEE00A60EEA60A284623
:103DB000A7EE260AE7EE270A19E000BF70460020AA
:103DC0005C330020502700200000FA44746000207B
:103DD000E02E65420000C842E4570020D04B0FCBD4
:103DE00085E80F009DED070ADDED080A284619F069
:103DF000ADF9B9F1000F3FD143F24C1349465BF8DE
:103E0000030002F0CFFD9DED0B9ADDED0A8AB0EEC6
:103E1000408A29EE090AA8EEA80A18F065FFF1EE1B
:103E2000480AB0EE481A19F08FF8F0EE680AB0EEC2
:103E3000408AB0EE490A94F0FFFF9FEDBA9ADFED99
:103E4000BA8A20EE090AA6F10803012B20EE280AFF
:103E500016D8B64BD3ED007AF8EEE77A30EE270AA3
:103E600019F026F8B8F1000F49D19DED100A20EEA7
:103E7000090A20EE280A13E09FEDAD0AB0EE408A51
:103E8000B8F1000F15D1DDED107A9FEDA60A083EBE
:103E900027EE800ADFEDA47A012E20EE270A08D84B
:103EA000A24BD3ED007AF8EEE77A30EE270A18F04D
:103EB000FFFF54B99FED9B7ADDED117A67EE877AAB
:103EC0009FED997A27EE877A01E09FED997AB9F113
:103ED000000F40F04781B8F1000F00D09CB9DFED32
:103EE000957ADDED0A6AF4EEE76AF1EE10FAF7EE84
:103EF000000AFFEE007A98BFF0EE670A05E0002C9A
:103F0000D8D09FED8B7AF7EE000A002F00F02B81BE
:103F1000BAF1000F00F04981B8F1000F00F0EC8019
:103F200060EE880A8448002C40F0EB80B0EE470A2F
:103F300003F00AFE39E1CD78352D28BF3525002163
:103F4000352206A897F06CFC04F10C012A4606A85D
:103F500097F03EFC794B43F24C129B469958764AB7
:103F6000914240F022819DF84C504DB16B1F012BC6
:103F700006D9032D04D0A5F10A03012B00F2158107
:103F80006F4BBDF848400FCB14F0030618BF012655
:103F900014F0180F14BF4FF001084FF000080DF196
:103FA000080A14F0C00FC4F3802714BF4FF00109B2
:103FB0004FF00009C4F3C0248AE80F0076B9079ACD
:103FC000089B019210461946009319F013FA002835
:103FD00000F0EB80019A009B04920593B8F1000F6A
:103FE0003ED143F24C1341465BF8030002F0DAFC89
:103FF0009DED0B9ADDED0A8AB0EE408A29EE090AA2
:10400000A8EEA80A18F070FEF1EE480AB0EE481AC1
:1040100018F09AFFF0EE680AB0EE408AB0EE490A56
:1040200094F00AFF9FED3F9ADFED3F8A20EE090AE8
:10403000A5F10803012B20EE280A15D83B4BD3ED40
:10404000007AF8EEE77A30EE270A18F031FF002FF9
:1040500044D19DED100A20EE090A20EE280A11E055
:104060009FED330AB0EE408AAFB9DDED107A9FEDD7
:104070002D0A083D27EE800ADFED2B7A012D20EE78
:10408000270A08D8294BD3ED007AF8EEE77A30EE0C
:10409000270A18F00DFF54B99FED227ADDED117A51
:1040A00067EE877A9FED207A27EE877A01E09FED11
:1040B000207AB8F1000F60D107B19CB9DFED1D7A0D
:1040C000DDED0A6AF4EEE76AF1EE10FAF7EE000AA7
:1040D000FFEE007A98BFF0EE670A05E0002CDBD017
:1040E0009FED137AF7EE000A002E47D0B9F1000FCA
:1040F0005BD0002F7FF414AF002C56D00E4860EE3A
:10410000880A03F065FE50E008210C4805F000FC29
:10411000214603460B4A28462EF0CAFE45E000BF62
:104120000C4B0020E02E65420000C842D049002020
:1041300000000000000000B4746000205027002040
:10414000E4570020F83600201A482946224645F058
:1041500053FB2AE03DF010FA27E02846214631F0D3
:10416000B9FE22E017B91448294609E0BAF1000F58
:104170001BD0B8F1000F11D10BE036B90E485146F3
:104180009FED0E0A03F000FE0FE0B9F1000F0CD016
:1041900027B954B10848DFED0A0AB2E72CB906483E
:1041A000DFED070AB0EE470AC2E615B0BDEC048B9E
:1041B000BDE8F08F0C33002074600020804FC347AF
:1041C000000000007FB50E252A46064600216846FD
:1041D00097F026FBA3238DF8003095238DF801304E
:1041E00008238DF8023046F057FE06F51754303498
:1041F000CDF803002046CDF8071040F0F5FF8DF80C
:104200000B00204640F0FAFF6946ADF80C002A4644
:1042100006F6A87025F0AAF804B070BD7FB5044674
:1042200000F51D6040F0AAFCDFED227A20EE270A9F
:10423000DFED217A04F5095620EE270A04F6A87569
:104240002836002301AA2846314601938DED020A43
:1042500003932AF0DFF9284631462AF001F928466F
:10426000314627F0A1FF2846314628F02DF8284690
:10427000C92104F604222AF051FC2846C82104F67C
:1042800048222AF04BFC204601F0E8F928B12846E4
:10429000C62104F68C222AF041FC04F64800FDF702
:1042A000FBFE28B12846C52104F531622AF036FC10
:1042B00004B070BDE02E65420000C842F0B50D2488
:1042C00085B005460F46164668462246002197F0FF
:1042D000A7FAA3238DF8003095238DF8013013231E
:1042E0008DF8023046F0D8FD2246CDF80300CDF817
:1042F000071005F6A87069468DF80B708DF80C60F4
:1043000025F034F805B0F0BD2DE9F04124268AB03F
:10431000154607463246884601A800211C4697F0FC
:104320007FFAA3238DF8043095238DF805300E23F2
:104330008DF8063046F0B0FD2B6804936B6805934A
:10434000AB680693236807936368CDF80700CDF840
:104350000B10089307F6A870A3688DF80F8001A9C9
:104360003246099325F002F80AB0BDE8F08100005A
:1043700070B5192688B032460446002101A897F08E
:104380004FFAA3238DF8043095238DF805300223CE
:104390008DF8063046F080FD43F24C13CDF807004F
:1043A000E058CDF80B1003681B6B984742F270651C
:1043B00010EE103A6059CDF80F3003681B6998472A
:1043C00018F086FDFCEEC07A605917EE903AADF811
:1043D000133003689B68984718F07AFDFCEEC07AAA
:1043E000605917EE903AADF8153004F50A531B8862
:1043F000ADF8173003685B69984710EE103A04F681
:10440000A87001A93246CDF8193024F0AFFF08B0EA
:1044100070BD00002DE9F04F2DED028B044691B0E8
:1044200000F64800FDF738FE00285AD02F4846F025
:104430000BF8A8B104F67C5304F64450D3ED008A7F
:104440009FED2B8A46F036F804F6885368EE888A8A
:10445000D3F800A004F6845320EE088A1D6805E016
:10446000244D08EE105A08EE905AAA4646F014FD64
:1044700004F67803804618688946FCF75BF8064620
:1044800020460F4604F0C0FB1B4B009318EE900A29
:104490001A4B019310EE10BACDE90289FCF74AF8E5
:1044A000CDE9040118EE100AFCF744F8CDE9060145
:1044B0005046FCF73FF8CDE908012846FCF73AF8EA
:1044C000CDE90A015846CDE90C67FCF733F804F64C
:1044D000A874CDE90E010A4A0A490B4B204625F083
:1044E000B3FA11B0BDEC028BBDE8F08F943400201C
:1044F000E02E65425241C07F49ED0B0852ED0B089A
:1045000001190B08FC180B0841190B087FB50E2484
:10451000054622460E466846002197F081F9A323FE
:104520008DF8003095238DF8013006238DF8023088
:1045300046F0B2FC43F6F613CDF80300CDF80710B1
:10454000EB5A8DF80B6005F6A87069462246ADF867
:104550000C3024F00BFF04B070BD0000F0B52DED61
:10456000028B8BB00AA92E4B41F8283D00F51D6542
:1045700004462126284640F0F3FB324601A80021DC
:1045800097F04EF9A3238DF8043095238DF805306C
:104590000D238DF8063046F07FFCD4F8983FCDF817
:1045A0000B10CDF807001B89ADF80F3004F664033B
:1045B00028461B68CDF8113040F050FA10EE103A42
:1045C0002846CDF81530009BCDF8193040F032FA6E
:1045D0009FED148A20EE080A04F5095510EE103AF2
:1045E00028352846CDF81D3007F0E0FB0746284661
:1045F00007F0E8FB00F1180138461BF017FA20EE2F
:10460000080A04F6A87010EE103A01A93246CDF857
:10461000213024F0ABFE0BB0BDEC028BF0BD00BF2F
:104620005241C07FE02E6542F0B500F5C8530C2121
:1046300093F8392518338BB001FB02330AA95D6E5C
:104640001D4B41F8243D00F51D6704461D263846E4
:1046500040F014FB324602A8002197F0E1F8A323B2
:104660008DF8083095238DF8093001238DF80A3034
:1046700046F012FCD4F89C3FCDF80B00CDF80F109B
:104680001B89ADF8133004F6680338461B68CDF873
:10469000153040F0E1FB10EE103A04F6A870CDF8AA
:1046A000193002A9019BCDF81D303246CDF82150BA
:1046B00024F05CFE0BB0F0BD5241C07F2DE9F0410B
:1046C00000F54758D8ED007A9FED397AF0EEE77A99
:1046D000F4EEC77AF1EE10FA88B0044607D446F03B
:1046E000D9FB43F2C813E558401B85B200E0002512
:1046F00004F5F9563046002123F0A8FC01210746B5
:10470000304623F0A3FC1B220021064601A897F0A7
:1047100087F8A3238DF8043095238DF805300723FF
:104720008DF8063046F0B8FBCDF8070004F51D60A3
:10473000CDF80B1040F092F910EE103ACDF80F3092
:104740000FB17B681F88ADF813700EB173681E88B7
:10475000D8ED007A9FED177AADF8156043F2BC13DF
:10476000FDEEE77AE35CADF8173017EE903A8DF87E
:10477000193004F54753D3ED047AADF81A5067EEBB
:10478000877A4620F0EEE77AFCEEE77A17EE903A69
:10479000ADF81C3032F0C6FE01A98DF81E001B22B8
:1047A00004F6A87024F0E2FD08B0BDE8F08100BF77
:1047B000000000340000C84238B500F6A874054671
:1047C000204627F0A5F8204627F004F942F2AC6312
:1047D00005F51A51EB562C3123B12046BDE838407F
:1047E00027F07EB938BD000030B500F50B6489B004
:1047F00005460021204643F0ADFC28B920460121A2
:1048000043F0A8FC002852D01D220021684697F0F2
:1048100007F8A3238DF8003095238DF801300F237E
:104820008DF8023046F038FBCDF80300CDF80710C4
:104830002046002143F0CEFC10EE103A2046002125
:10484000CDF80B3043F000FDDFED1A0A9FED1A1A88
:1048500018F07AFBFCEEC07A204617EE903A8DF8FD
:104860000F3005F55E53083301211B68049343F0B4
:10487000B1FC204601218DED050A43F0E5FCDFED9A
:104880000D0A9FED0D1A18F05FFBFCEEC07A05F6DD
:10489000A87017EE903A8DF8183005F55E530C337A
:1048A00069461B68CDF819301D2224F05FFD09B060
:1048B00030BD00BF000000000000C84210B501215B
:1048C0000446FFF723FE43F24C13E05803681B68CD
:1048D000984743F25013C1B2E25C04F6A87024F08A
:1048E00027FF04F50950283008F050FC04F6FC704E
:1048F000BDE810400FF014BC00F6A87001499122E9
:1049000024F098BD640B0B082DE9F04304468DB0EC
:10491000284805F027F8002848D004F5F95528461E
:10492000192123F0F5FB002840D008A80BF012FC59
:1049300004F50950283008A907F078FA002835D086
:104940002846192123F0EEFB43F2CC13E2589042A3
:104950002CD0E05046F0A0FA06460F462846192112
:10496000DDF82890DDF82C8023F0B8FB07EE900AE4
:10497000B8EEE77ADFED107A104B009367EE277AF6
:104980000F4B019317EE900ACDE90267CDF8109016
:10499000CDF81480FBF7CEFD04F6A874CDE906012E
:1049A000084A0949094B204625F04EF80DB0BDE8EC
:1049B000F08300BF502700200AD7233C68190B085A
:1049C0006D190B084E190B0849190B0863190B08D0
:1049D00010B5044622F050F920B92046BDE8104039
:1049E00022F008B910BD000073B5044642F0E0FAA9
:1049F00004F1440032F0DCF9334B636404F15406F3
:104A00000025701931F07CFE304B73512435B5F51B
:104A1000107FF6D104F5257032F028FF2C4904F2FE
:104A2000E46042F0ABFB04F5F5603AF0D1FD04F52B
:104A30000565284904F5FD60FDF7BCF9284643F0FB
:104A400035FB294604F6D40043F028FC04F5176032
:104A500021493FF099FE04F65C3504F6D820002188
:104A600043F03AFE28461C4944F0F0FC04F6AC3012
:104A700017493CF02DFD194B174900932A4603F5C1
:104A8000996304F6D8303EF05FFF04F6084045F025
:104A9000CFF904F698403EF033FE0F4904F6B440D7
:104AA00023F048F90E4BC4F8B43C04F6E44045F05A
:104AB000A9FC04F6685008F0B9FB2046094922F029
:104AC000DDFE204602B070BD14400B082C400B08E0
:104AD000284E0020D0570020B8490020942E0020F6
:104AE000D0080B08CC3C0B0838B504460D46FFF740
:104AF0006FFF08B92B68236038BD000038B5044645
:104B00000D46FFF765FF08B92B78237038BD00000C
:104B1000F0B58FB0044621F06DFD48B9704B714976
:104B20001B68186B03681B6898476F4846F09CF930
:104B300004F10806304622F019FE002800F0A58096
:104B4000B4F90830102B40F0A08046F0A1F90746D8
:104B500022F098FD65480B21002222F0E7FB644A11
:104B60001388002043F002031A21138032F00EFD57
:104B70000220462132F00AFD204600F06FFD38B1D8
:104B80000EA91E2301F8103D04F54660FFF7B6FF9D
:104B900004F64800FDF780FAF0B10EAD002305F8E9
:104BA000103D04F546602946FFF7A8FF012304F6EF
:104BB000F14029468DF82830FFF7A0FF4D4B0A93AE
:104BC00004F6F4402946FFF78FFF4B4B0A9304F19C
:104BD00058002946FFF788FF484B06AD03F1080E41
:104BE0002A46186859682E4603C608337345354669
:104BF000F7D118689B883060B38043F6FA7110468D
:104C000004F5776232F036FD354B1B681D6B2B685F
:104C10001E6846F03DF93A49C21B2846B0470EA926
:104C20004FF0824304F51950364C41F8343D0830BA
:104C3000FFF75AFF94E80F000AAD85E80F002846F9
:104C4000694622F0B1FA002847D004F1100302AA05
:104C5000183418685968154603C50833A3422A4614
:104C6000F7D118681B7928602B719DF800300C2B48
:104C700033D80EAA13440D9813F8303C00EE103AC6
:104C8000B8EE400A22F0F8FF27E0154B1E491D68D8
:104C9000286B03681B68984732F096FE21F034F9C0
:104CA000B4F908309FED197A103B07EE903AF8EE10
:104CB000E77A1023F0EEE77AF4EEC77AF1EE10FA15
:104CC000238130464CBF0121002121F057FF286B82
:104CD0000F4903681B68984737E70FB0F0BD00BF66
:104CE00048270020F8310B0807320B0848310B0821
:104CF0008E6500200000A04000002041B4FE0A089C
:104D000015320B08C4FE0A0829320B0800000034D3
:104D10004D320B0810299DBF242303FB01001030E6
:104D200000207047014B93F94D0070475027002039
:104D300043F25413034AD05C00F0010080F00100FC
:104D4000704700BF50270020002910B515DB41F641
:104D5000E4730A4CE25CCBB29A420ED304F5FF53E3
:104D600020461B68595C02F037FB014628B12046FB
:104D70000122BDE8104004F057BD10BD50270020AF
:104D800008B50B463AB1022A11D109480122BDE803
:104D9000084004F049BD43F24C1205498A589A4232
:104DA00005D132F017F9BDE8084032F0E3B808BD8C
:104DB0005027002029290DD004D807290AD010290E
:104DC00006D17047322903D3392903D93F2901D0AD
:104DD00031F060BC70470000F0B5332987B004465D
:104DE000134600F0818014D8102900F0838008D881
:104DF000042900F08180072922D0002940F08A8010
:104E00008CE02A297AD032295CD0292940F082808E
:104E10005EE0372974D004D8352967D068D8404976
:104E200075E0392970D06DD33B296FD03F2971D1FE
:104E300043F24C133B4AD05803681B6C98476DE013
:104E4000022A6BD1374C384D43F24C16A359AB4272
:104E500064D0A5F59D5040F0C7F9074640B905F16B
:104E600064001AF0C5FF2046394600F09DFC55E06D
:104E7000A359AB4252D002AC00211822102568463B
:104E800096F0CEFC00212A46204696F0C9FC20462A
:104E90000BF060F9254BADF802500FCB84E80F0002
:104EA000234869461BF03EF9002837D0214B1D4CA2
:104EB0001B682149186B43F6F6120368A25A1B6857
:104EC00098472BE0022A29D1164801F027F825E05F
:104ED000022A04D10021134804F0BCFD1EE0EAB907
:104EE000104804F023FD19E0144910E014490EE0C5
:104EF00014490CE00C490AE0134908E0134906E0A4
:104F0000134904E0134902E0134900E01349FFF795
:104F100037FF03E020461A4631F052FE07B0F0BDDD
:104F20001060002050270020E0600020E45700209F
:104F30004461002048270020C43F0B08AC5F0020DC
:104F400058620020485F0020BC62002020630020DF
:104F500074600020F461002084630020E863002076
:104F60000020704708B50368DB68984780F00100AF
:104F7000C0B208BD01207047012070479FED010AB3
:104F8000704700BF000000000120704701207047FB
:104F90007047000010207047004870470C420B0813
:104FA00070470000012070470020704701F0BABA36
:104FB00000F018BE00F0D4BD00F068BC2DE9F04F41
:104FC000D44BD54A0360D54B136085B0044600220C
:104FD00090B21821414301325D5C002DF8D1D04BD5
:104FE000188004F16000FFF7FFFC0DF1080902953D
:104FF000039599E8060004F5706023F03FFC04F582
:10500000776041F0B9FE04F578603EF0ADFA04F641
:105010007876C44BC4491E60304622F02FFC04F160
:105020000C01C4F8985FC4F89C5FC4F8A05FC4F892
:10503000A45F04F6A87024F0BBF804F6FC700EF030
:1050400023FA04F59550083009F0CEFD04F59E5082
:105050000CF0FEFF04F51B5A04F5C85004F5F9588E
:105060000AF1180A183015F011FC51462A4640463C
:1050700022F082FF04F5FE5038F0D2FC04F5FF5315
:1050800004F14E021A6004F5FF5B41F6E47304F587
:105090000956283606220BF1080B04F50457E25492
:1050A00010373146424658461CF0F0FA3846314631
:1050B00042461DF05BFB3A4659462B46304606F009
:1050C000E5FA04F51750303040F080F842F2F05322
:1050D000964AE25042F2206304F51857944AE2508F
:1050E00000237B65FB65012387F864307E62BD6227
:1050F00087F86C5020378F49384622F0BFFB42F2C8
:10510000706304F51950E750343020F0AFFE04F519
:105110001A502C3032F052FD04F51D57504642F221
:10512000507A23F0E7FD1037834B44F80A3007F13B
:10513000080045F091FD04F51D5305229A86DD8691
:105140001D874FF482700BF0E5F842F27073E05067
:1051500004F51E50203045F07FFD784A136803B9EE
:105160001760774B44F80A306837002578192DF01E
:1051700015F8744B7B5105F5E075B5F50C6FF5D15D
:1051800004F5415B0BF1380B584639F059FF04F533
:10519000425300276C4AC3F800B003F1140A04F527
:1051A00042551F71504613600AF0D4FF05F14400C8
:1051B0000AF0D0FF4FF48053AB66C5F86CA02E67A1
:1051C00024352846614922F059FB614BC5F80CB0E3
:1051D00004F54350514634301D6032F075FE04F53D
:1051E0005E5543F24C131435E55043F2501304F569
:1051F0004550E7542C301EF06BFB564B039304F5DF
:10520000475A554B02940AF1140A009399E80C008E
:1052100050464FF400710AF051FC04F55A505246C2
:1052200043463146143038F0D3FC04F55C50314627
:105230001C3044F0F5FC43F24C7306F5AA76E650B8
:1052400004F55D53454A5A6143F264732846E750BA
:1052500001F060FA43F29473414AE25004F55F5062
:10526000383001F057FA43F2F8733E4AE25004F541
:1052700061501C3001F04EFA43F65C033A4AE250AA
:1052800004F56355284601F045FA384B2B6004F5C8
:105290006450243001F03EFA04F5665543F62413B9
:1052A0001035334AE250284601F034FA43F69013A1
:1052B000304AE25043F6FC132F4AE55004F5685398
:1052C00004F568501A6043F604232C4AE55043F66F
:1052D00008231C30E25043F60C23294AE55043F6DC
:1052E000102305F16408E2500AF034FF04F5685019
:1052F00004F5675534300AF02DFF4FF6FF76214B49
:105300002149A5F88470A5F88660A5F88860C5F8DD
:10531000C8703BE0F8050B08946500209C360B082C
:105320008C650020C4640020F4590B08D0060B08DB
:1053300038140C0880140C084CEB0B08A06D0020EE
:10534000A8000B08180A0B08DC6F00202C130C08AF
:1053500000700020AD4F010800060B080AD7A33CDF
:10536000BC410B0878460B0830470B0874440B0807
:10537000E0450B0830450B08B14F0108B54F010857
:10538000B94F01081465002010980B084046C3F877
:10539000008022F073FA43F6F413A5F85460A5F8E0
:1053A0006C60E75495F8353003F0FE0367F3410372
:1053B00004F56A5085F83530243001F0ABF943F636
:1053C000A423204AE25004F56C50083001F0A2F901
:1053D00043F608331C4AE25004F56D502C3001F0BE
:1053E00099F943F66C33194AE25004F56F501030C6
:1053F00001F090F943F6D033154AE25004F57050AD
:10540000343001F087F943F63443124AE25004F590
:105410007250183001F07EF904F5745543F6984344
:105420000D4AE25004352846B0EE000A2AF074F91D
:1054300005F10C00B0EE000A2AF06EF9204605B026
:10544000BDE8F08FD0460B08D8480B0890470B08F2
:1054500080480B0888450B0804480B0810B5044623
:105460002DED028B00F64800B0EE408AFCF708FEF6
:10547000B0B1B4F92830002B01DC002010E0DFEDE2
:105480000A7AB0EEC88A28EE278A07EE903AF8EE3C
:10549000E77AB4EEE78AF1EE10FACCBF01200020E3
:1054A000BDEC028B10BD00BF0AD7233C10B50446EB
:1054B0002DED028B00F64800B0EE408AFCF7E0FDCF
:1054C00018B1B4F92830002B04DC43F25C730020DF
:1054D000E0541BE007EE903A9FED0E0AB0EEC88A4A
:1054E00028EE000AF8EEE77A43F25C73B4EEE70ABE
:1054F000F1EE10FA02DD0122E25407E0F2EE047A46
:10550000B4EEE70AF1EE10FADFD4E05CBDEC028BFA
:1055100010BD00BF0AD7233C13B543F29073044675
:10552000C35C13B103F082F917E000F51D6001A917
:105530003FF0A4FB08B90023019304F51750303065
:105540003FF052FE04F55D5301469DED010AD3ED97
:10555000050A04F64800FDF715FB02B010BD000077
:10556000F8B52DED048B9FED378AD1ED007ADFED94
:10557000368A00F65C4327EEC88AD3ED007A00F540
:105580000B6568EE277A9FED318A04460F46284660
:10559000002127EE888A42F0DDFDA0B128460121D6
:1055A00042F0D8FD78B104F63816D6ED007AF5EE63
:1055B000C07AF1EE10FA06DD9FED257AF4EEC77A97
:1055C000F1EE10FA18DADFED230A94F8482804F512
:1055D0005D53B0EE480AC2F3800104F51D60C2F3CA
:1055E000C00293ED051A3FF04DFA20EE280A87ED30
:1055F000000ABDEC048BF8BD2846002142F0F6FD00
:1056000028460121B0EE409A42F0F0FDD6ED007A36
:105610009FED107ADFED100AF5EEC07AF1EE10FA88
:10562000D8BFF0EE477A77EEA77A39EE000AB0EEEF
:10563000681A80EE270A20EE280A17F085FCF0EEA3
:10564000400AC2E70AD7233C0000C84235FA8E3C24
:1056500000000034000000000000C8C290F9B80B40
:10566000C31E58425841704730B5064B1B68596CF1
:10567000D1E9022341F2CF14002522432B43C1E993
:10568000022330BD482700202DE9F0472DED028B85
:105690008B6890B005460C46924633B9CB6823B967
:1056A0004B6813B94FF0000971E094E80F0017F050
:1056B000C7FE0028F6D005F5095606A828360AF0D8
:1056C00049FD304606A906F029FA81460028E9D0AE
:1056D00096F864813046214605F5675708F00108C1
:1056E00004F0FEFB3437B8F1000F14D128464FF414
:1056F000807104F00DF970B10CA80AF02BFD38464A
:1057000041460AAA1AF0FCFB28B105F6A8703946F2
:105710000AAA24F03FF8BAF1000F05D096F86431D8
:1057200043F0020386F8643138461AF00FFDD4EDD9
:10573000027A9FED1A8AF8EEE77A05F51D5567EEB5
:10574000887A103517EE900AFAF7F4FED4ED037A52
:10575000F8EEE77ACDE9000167EE887A17EE900A55
:10576000FAF7E8FED4ED017A9FED0D7AF8EEE77ACC
:10577000CDE9020167EE877A17EE900AFAF7DAFEB2
:10578000084ACDE90401284606212AF017FC4846BC
:1057900010B0BDEC028BBDE8F08700BF95BFD633DB
:1057A0000AD7233C14420B087FB5054605F509547A
:1057B000684628340E460AF0CDFC204606F038FC38
:1057C00020B12046694606F031FB08B900240BE001
:1057D000284669463246FFF757FF044620B105F6D2
:1057E0003830012143F03EFC204604B070BD00007B
:1057F00000F5095393F88C1111F0010101D1FFF765
:10580000D3BF704730B500F5095485B094F88C319A
:105810009B07054604F1280417D468460AF09AFC51
:105820002046694606F002FB78B1684604F5AA7185
:1058300017F020FCF6EE007AB4EEE70AF1EE10FA6B
:1058400003DD2046694604F04BFB05F59550083012
:1058500009F08CFA05B030BD43F24C1200F56653E6
:10586000825810339A4210D100F50953283393F827
:105870006431DB0709D543F6F613C35A012B04D96B
:1058800000F5675034301BF01DBD704710B50F4A4E
:105890001378044643F08003137030F0B7FD052100
:1058A0000B4A2AF08BFBE36893F9983E012B05D154
:1058B00008480949042203F0B7FF30B905480749F1
:1058C0000422BDE8104003F0AFBF10BD64650020A6
:1058D00034420B0850270020F4610020485F00206C
:1058E00070B52DED028B002380F80831C0F804312B
:1058F0008B88A0F8003184B006460C464AB943B9FB
:1059000064300F491BF0C4FB07EE900AB8EEE78A3B
:1059100001E09FED0C8A04F108010FC98DE80F002A
:105920006946094817F0BAFD336830465B6B694633
:10593000B0EE480A984704B0BDEC028B70BD00BFC2
:105940009F860100804FC347E457002070B52DEDBE
:10595000028B0B7CD1ED027A9FED158A04460D4631
:105960005BB1436893ED060AB8EEC00AA7EE880A59
:1059700017F09EFAB0EE408A01E027EE888A2046B2
:10598000002101F00FF82368B0EE401AF1EE410A51
:1059900095ED030ADE6B17F0D7FAF0EE400AB0EE91
:1059A000480ABDEC028B20463346BDE870401847DC
:1059B0000000C84273B503689B6B05460E469847C6
:1059C000044680B395F80831DBB9012385F8083126
:1059D000B5F8003173B130F019FDB5F80021338806
:1059E00000920621114A2AF0E9FA45F053FAC5F867
:1059F000040106E030F00AFD06210D4A33882AF042
:105A0000DDFAB5F8003173B145F044FAD5F8044138
:105A1000001B4FF47A74B0FBF4F4B5F80001844233
:105A200034BF00240124204602B070BD45420B085B
:105A300071420B0803689B6B1847000010B5FFF715
:105A4000B9FF044628B130F0E1FC0421024A2AF0F3
:105A5000B5FA204610BD00BF86420B0838B5044693
:105A60000D4645F017FAC4F81001D5ED027A9FED06
:105A7000047A67EE877AFDEEE77AC4ED437A38BDA3
:105A800000007A4410B5044645F004FAD4F8103109
:105A9000C01AD4F80C3198424FF0000084BFC4F80B
:105AA0000C01012010BD000010B5036804461B6BFB
:105AB0009847D4ED437AF8EEE77A0020B4EEE70A8F
:105AC000F1EE10FA44BFC4F80C01012010BD000033
:105AD00010B54B88B32B0C4616D8B22B3CD2132BE7
