:020000040801F1
:1000000000040020B914010859C206085DC20608A0
:10001000ADC206085DC2060885C2060855130B0866
:1000200055130B0855130B0855130B084D600B089F
:1000300055130B0855130B0855130B0855130B08D4
:1000400055130B08396B0B08096C0B083D6C0B083A
:1000500055130B0855130B0865690B0895690B08B8
:10006000C5690B08F5690B08256A0B0899340B085C
:10007000C5340B08F5340B0825350B0855350B082E
:1000800081350B08B1350B0849330B0855130B08A4
:1000900055130B0855130B0855130B08556A0B081D
:1000A00055130B0855130B0855130B0855130B0864
:1000B00055500B0855130B08494E0B08E93B0B082C
:1000C000FD3C0B0855130B0855130B0855130B0873
:1000D00055130B08FD530B0855130B0855130B084C
:1000E000C16A0B086D6B0B08A16B0B0855130B084D
:1000F00055130B0855130B0855130B08E1350B0866
:1001000055130B0855130B0855130B0855130B0803
:1001100015540B082D540B0855130B0855130B08D9
:1001200011360B083D360B086D360B089D360B0853
:10013000CD360B0855130B0855130B0855130B0838
:1001400055130B0855130B0855130B08D1480B0812
:10015000F9360B0829370B0859370B0845540B089B
:1001600055130B0855130B0855130B0855130B08A3
:10017000D56B0B0855130B0855130B0855130B08BB
:1001800055130B0855130B0855130B0855130B0883
:1001900055130B0855130B0855130B0855130B0873
:1001A00055130B0855130B0855130B0855130B0863
:1001B00055130B0855130B0855130B0855130B0853
:1001C00055130B0855130B0855130B0855130B0843
:1001D00055130B0855130B0855130B0855130B0833
:1001E000D13B01083D650108CDDE01087DF5010820
:1001F000A9AA030831020408A104040831C70408AD
:1002000065CE040841D404086DE804087961050846
:100210001DF8050895C60608E1010A08751A0A08BE
:100220000D370A0809130B08000000000000000049
:1002300000000000000000000000000000000000BE
:10024000D0400B1CD1409C46203AD3401843524228
:100250006346934018437047D0400B1C1141203A2D
:1002600003D49C46134118436346524293401843BB
:10027000704700BF9140031C90409C46203A934039
:10028000194352426346D3401943704781F00041FD
:1002900002E000BF83F0004330B54FEA41044FEA6B
:1002A000430594EA050F08BF90EA020F1FBF54EA06
:1002B000000C55EA020C7FEA645C7FEA655C00F0A2
:1002C000E2804FEA5454D4EB5555B8BF6D420CDD73
:1002D0002C4480EA020281EA030382EA000083EAF6
:1002E000010180EA020281EA0303362D88BF30BD96
:1002F00011F0004F4FEA01314FF4801C4CEA1131EC
:1003000002D0404261EB410113F0004F4FEA03334A
:100310004CEA133302D0524263EB430394EA050FD5
:1003200000F0A780A4F10104D5F1200E0DDB02FA44
:100330000EFC22FA05F2801841F1000103FA0EF2D8
:10034000801843FA05F359410EE0A5F120050EF19E
:10035000200E012A03FA0EFC28BF4CF0020C43FACF
:1003600005F3C01851EBE37101F0004507D54FF0DC
:10037000000EDCF1000C7EEB00006EEB0101B1F52C
:10038000801F1BD3B1F5001F0CD349085FEA300072
:100390004FEA3C0C04F101044FEA445212F5800F7D
:1003A00080F09A80BCF1004F08BF5FEA500C50F11A
:1003B000000041EB045141EA050130BD5FEA4C0CFD
:1003C000404141EB010111F4801FA4F10104E9D186
:1003D00091F0000F04BF01460020B1FA81F308BF7D
:1003E0002033A3F10B03B3F120020CDA0C3208DD49
:1003F00002F1140CC2F10C0201FA0CF021FA02F124
:100400000CE002F11402D8BFC2F1200C01FA02F193
:1004100020FA0CFCDCBF41EA0C019040E41AA2BFB8
:1004200001EB0451294330BD6FEA04041F3C1CDA80
:100430000C340EDC04F11404C4F1200220FA04F0A0
:1004400001FA02F340EA030021FA04F345EA03014A
:1004500030BDC4F10C04C4F1200220FA02F001FA0C
:1004600004F340EA0300294630BD21FA04F029468E
:1004700030BD94F0000F83F4801306BF81F4801127
:100480000134013D4EE77FEA645C18BF7FEA655C9A
:1004900029D094EA050F08BF90EA020F05D054EA6C
:1004A000000C04BF1946104630BD91EA030F1EBF71
:1004B0000021002030BD5FEA545C05D14000494175
:1004C00028BF41F0004130BD14F580043CBF01F568
:1004D000801130BD01F0004545F0FE4141F470014E
:1004E0004FF0000030BD7FEA645C1ABF1946104629
:1004F0007FEA655C1CBF0B46024650EA013406BF2A
:1005000052EA033591EA030F41F4002130BD00BFE8
:1005100090F0000F04BF0021704730B54FF48064A5
:1005200004F132044FF000054FF0000150E700BF26
:1005300090F0000F04BF0021704730B54FF4806485
:1005400004F1320410F0004548BF40424FF0000172
:100550003EE700BF42004FEAE2014FEA31014FEAB5
:1005600002701FBF12F07F4393F07F4F81F0605104
:10057000704792F0000F14BF93F07F4F704730B573
:100580004FF4607401F0004521F0004120E700BF06
:1005900050EA010208BF704730B54FF000050AE08D
:1005A00050EA010208BF704730B511F0004502D58E
:1005B000404261EB41014FF4806404F132045FEA90
:1005C000915C3FF4DCAE4FF003025FEADC0C18BF35
:1005D00003325FEADC0C18BF033202EBDC02C2F12B
:1005E000200300FA03FC20FA02F001FA03FE40EABD
:1005F0000E0021FA02F11444C1E600BF70B54FF0BD
:10060000FF0C4CF4E06C1CEA11541DBF1CEA13559E
:1006100094EA0C0F95EA0C0F00F0DEF82C4481EA06
:10062000030621EA4C5123EA4C5350EA013518BF26
:1006300052EA033541F4801143F4801338D0A0FB13
:1006400002CE4FF00005E1FB02E506F00042E0FBC0
:1006500003E54FF00006E1FB03569CF0000F18BFC6
:100660004EF0010EA4F1FF04B6F5007F64F540746E
:1006700004D25FEA4E0E6D4146EB060642EAC62101
:1006800041EA55514FEAC52040EA5E504FEACE2E6E
:10069000B4F1FD0C88BFBCF5E06F1ED8BEF1004F71
:1006A00008BF5FEA500E50F1000041EB045170BDED
:1006B00006F0004646EA010140EA020081EA030131
:1006C000B4EB5C04C2BFD4EB0C0541EA045170BD2D
:1006D00041F480114FF0000E013C00F3AB8014F1A7
:1006E000360FDEBF002001F0004170BDC4F10004F0
:1006F000203C35DA0C341BDC04F11404C4F1200571
:1007000000FA05F320FA04F001FA05F240EA0200CB
:1007100001F0004221F0004110EBD37021FA04F601
:1007200042EB06015EEA430E08BF20EAD37070BDBB
:10073000C4F10C04C4F1200500FA04F320FA05F01A
:1007400001FA04F240EA020001F0004110EBD3701C
:1007500041F100015EEA430E08BF20EAD37070BD8C
:10076000C4F1200500FA05F24EEA020E20FA04F365
:1007700001FA05F243EA020321FA04F001F0004114
:1007800021FA04F220EA020000EBD3705EEA430E85
:1007900008BF20EAD37070BD94F0000F0FD101F0B4
:1007A0000046400041EB010111F4801F08BF013CED
:1007B000F7D041EA060195F0000F18BF704703F02B
:1007C0000046520043EB030313F4801F08BF013DB2
:1007D000F7D043EA0603704794EA0C0F0CEA13556E
:1007E00018BF95EA0C0F0CD050EA410618BF52EA28
:1007F0004306D1D181EA030101F000414FF000002E
:1008000070BD50EA410606BF1046194652EA43063B
:1008100019D094EA0C0F02D150EA013613D195EAAF
:100820000C0F05D152EA03361CBF104619460AD1F7
:1008300081EA030101F0004141F0FE4141F4700101
:100840004FF0000070BD41F0FE4141F4780170BDF1
:1008500070B54FF0FF0C4CF4E06C1CEA11541DBF56
:100860001CEA135594EA0C0F95EA0C0F00F0A7F858
:10087000A4EB050481EA030E52EA03354FEA013185
:1008800000F088804FEA03334FF0805545EA131398
:1008900043EA12634FEA022245EA111545EA106560
:1008A0004FEA00260EF000419D4208BF964244F1F7
:1008B000FD0404F5407402D25B084FEA3202B61A16
:1008C00065EB03055B084FEA32024FF480104FF4EA
:1008D000002CB6EB020E75EB030E22BFB61A75465E
:1008E00040EA0C005B084FEA3202B6EB020E75EBF1
:1008F000030E22BFB61A754640EA5C005B084FEA59
:100900003202B6EB020E75EB030E22BFB61A754625
:1009100040EA9C005B084FEA3202B6EB020E75EB30
:10092000030E22BFB61A754640EADC0055EA060EF1
:1009300018D04FEA051545EA16754FEA06164FEA34
:10094000C30343EA52734FEAC2025FEA1C1CC0D1E0
:1009500011F4801F0BD141EA00014FF000004FF06D
:10096000004CB6E711F4801F04BF01430020B4F12E
:10097000FD0C88BFBCF5E06F3FF6AFAEB5EB030CE6
:1009800004BFB6EB020C5FEA500C50F1000041EBE3
:10099000045170BD0EF0004E4EEA113114EB5C04B0
:1009A000C2BFD4EB0C0541EA045170BD41F4801183
:1009B0004FF0000E013C90E645EA060E8DE60CEA8B
:1009C000135594EA0C0F08BF95EA0C0F3FF43BAFA8
:1009D00094EA0C0F0AD150EA01347FF434AF95EA5F
:1009E0000C0F7FF425AF104619462CE795EA0C0F43
:1009F00006D152EA03353FF4FDAE1046194622E710
:100A000050EA410618BF52EA43067FF4C5AE50EAE9
:100A100041047FF40DAF52EA43057FF4EBAE12E7D9
:100A20004FF0FF3C06E000BF4FF0010C02E000BFBA
:100A30004FF0010C4DF804CD4FEA410C7FEA6C5C9D
:100A40004FEA430C18BF7FEA6C5C1BD001B050EA40
:100A5000410C0CBF52EA430C91EA030F02BF90EA2B
:100A6000020F0020704710F1000F91EA030F58BFEA
:100A7000994208BF90422CBFD8176FEAE37040F04C
:100A8000010070474FEA410C7FEA6C5C02D150EAEA
:100A9000013C07D14FEA430C7FEA6C5CD6D152EAA5
:100AA000033CD3D05DF8040B704700BF844610466A
:100AB00062468C461946634600E000BF01B5FFF769
:100AC000B7FF002848BF10F1000F01BD4DF808ED39
:100AD000FFF7F4FF0CBF012000205DF808FB00BF0A
:100AE0004DF808EDFFF7EAFF34BF012000205DF864
:100AF00008FB00BF4DF808EDFFF7E0FF94BF0120B1
:100B000000205DF808FB00BF4DF808EDFFF7CEFFB1
:100B100094BF012000205DF808FB00BF4DF808EDF0
:100B2000FFF7C4FF34BF012000205DF808FB00BFC1
:100B30004FEA410212F5001215D211D56FF4787305
:100B4000B3EB625212D94FEAC12343F0004343EAA8
:100B5000505311F0004F23FA02F018BF4042704783
:100B60004FF00000704750EA013005D111F000400D
:100B700008BF6FF0004070474FF00000704700BFA3
:100B80004A0011D212F5001211D20DD56FF478730C
:100B9000B3EB62520ED44FEAC12343F0004343EA61
:100BA000505323FA02F070474FF00000704750EAAC
:100BB000013002D14FF0FF3070474FF00000704716
:100BC0004FEA4102B2F1E04324BFB3F5001CDCF16F
:100BD000FE5C0DD901F0004C4FEAC0024CEA5070A7
:100BE000B2F1004F40EB830008BF20F001007047D6
:100BF00011F0804F21D113F13872BCBF01F00040D9
:100C0000704741F480114FEA5252C2F11802C2F10A
:100C1000200C10FA0CF320FA02F018BF40F001008B
:100C20004FEAC1234FEAD32303FA0CFC40EA0C003D
:100C300023FA02F34FEA4303CCE77FEA625307D17A
:100C400050EA01331EBF4FF0FE4040F440007047B1
:100C500001F0004040F0FE4040F40000704700BF4B
:100C600080F0004002E000BF81F0004142001FBF61
:100C70005FEA410392EA030F7FEA226C7FEA236C6A
:100C80006AD04FEA1262D2EB1363C1BFD21841405F
:100C900048404140B8BF5B42192B88BF704710F0F5
:100CA000004F40F4000020F07F4018BF404211F098
:100CB000004F41F4000121F07F4118BF494292EA00
:100CC000030F3FD0A2F1010241FA03FC10EB0C002C
:100CD000C3F1200301FA03F100F0004302D54942B9
:100CE00060EB4000B0F5000F13D3B0F1807F06D366
:100CF00040084FEA310102F10102FE2A51D2B1F15E
:100D0000004F40EBC25008BF20F0010040EA030052
:100D10007047490040EB000010F4000FA2F10102FF
:100D2000EDD1B0FA80FCACF1080CB2EB0C0200FA89
:100D30000CF0AABF00EBC25052421843BCBFD040D7
:100D40001843704792F0000F81F4000106BF80F451
:100D500000000132013BB5E74FEA41037FEA226C14
:100D600018BF7FEA236C21D092EA030F04D092F0DF
:100D7000000F08BF0846704790EA010F1CBF002013
:100D8000704712F07F4F04D1400028BF40F0004070
:100D9000704712F100723CBF00F50000704700F090
:100DA000004343F0FE4040F4000070477FEA2262B7
:100DB00016BF08467FEA23630146420206BF5FEA88
:100DC000412390EA010F40F4800070474FF0000388
:100DD00004E000BF10F0004348BF40425FEA000C4F
:100DE00008BF704743F0964301464FF000001CE0F7
:100DF00050EA010208BF70474FF000030AE000BF4D
:100E000050EA010208BF704711F0004302D540428A
:100E100061EB41015FEA010C02BF844601460020FC
:100E200043F0B64308BFA3F18053A3F50003BCFA17
:100E30008CF2083AA3EBC25310DB01FA02FC6344C4
:100E400000FA02FCC2F12002BCF1004F20FA02F2CB
:100E500043EB020008BF20F00100704702F12002BE
:100E600001FA02FCC2F1200250EA4C0021FA02F21F
:100E700043EB020008BF20EADC7070477BB972B90F
:100E80000029BEBF00204FF0004106E008BF002847
:100E90001CBF6FF000414FF0FF3000F087B882B008
:100EA000EC462DE9005000F051F8DDF804E002B006
:100EB0000CBC704753B94AB9002908BF00281CBFB1
:100EC0004FF0FF314FF0FF3000F070B882B0EC46C9
:100ED0002DE9005000F052F8DDF804E002B00CBC3F
:100EE000704700BF80EA104080EA102080EA1010AE
:100EF00000F00F0346F69610184100F0010070470D
:100F0000D0B5FFF727FB00220E4B06460F46FFF732
:100F100075FBFFF735FE0446FFF7FAFA00220A4B8D
:100F2000FFF76CFB02460B4630463946FFF7B2F935
:100F3000FFF726FE2346002242EA00021046194629
:100F4000D0BD00BF0000F03D0000F0412DE9F041B0
:100F5000069C154606460F46984600F029F805FB04
:100F600001F300FB0838A5FB0023B21A434467EBEA
:100F70000303C4E90023BDE8F08100BF2DE9F0417F
:100F8000069C904606460F461D4600F05FF900FBA2
:100F900005F5A0FB082308FB0155B21A2B4467EBAB
:100FA0000303C4E90023BDE8F08100BF704700BF20
:100FB00000292DE9F043C0F2A6800026002BC0F2E4
:100FC0009C80884694469E46154604460F46002B54
:100FD0003DD18A4259D9B2FA82F33BB1C3F1200222
:100FE0009F4020FA02F29D4017439C40290C220C9E
:100FF000B7FBF1FEA8B201FB1E7742EA074700FBF0
:101000000EF3BB420AD97F190EF1FF3280F0058141
:10101000BB4240F20281AEF1020E2F44FF1AA4B28D
:10102000B7FBF1F301FB137744EA074700FB03F03A
:10103000B84208D97F1903F1FF3280F0F080B8423E
:1010400040F2ED80023B43EA0E43002203E08B4274
:101050000FD900221346341C18BF012460424FF000
:10106000000565EB45015840514000196941BDE854
:10107000F083B3FA83F2002A40F086808B4202D3D9
:10108000844500F2DB800123E5E712B90123B3FBBD
:10109000F2F5B5FA85F000283BD1781B4FEA154EE2
:1010A0001FFA85FC0122B0FBFEF8210C0EFB18078D
:1010B00041EA07470CFB08F3BB4207D97F1908F147
:1010C000FF3102D2BB4200F2BD808846FF1AA4B2B3
:1010D000B7FBFEF30EFB137744EA07470CFB03FC58
:1010E000BC4507D97F1903F1FF3102D2BC4500F29C
:1010F000A7800B4643EA0843ADE752426FEA060673
:1011000063EB43035DE7404261EB41014FF0FF3683
:1011100054E7C0F1200224FA02F107FA00F38540F7
:101120004FEA154ED7401943B7FBFEF20B0C0EFBEE
:1011300012771FFA85FC43EA07430CFB02F79F4234
:1011400004FA00F407D95B1902F1FF3074D29F4210
:1011500072D9023A2B44DF1B89B2B7FBFEF80EFBB3
:10116000187341EA03430CFB08F79F4208D95B1947
:1011700008F1FF315CD29F425AD9A8F102082B44F2
:10118000D81B48EA02428EE7C2F120032CFA03F191
:101190000EFA02FE20FA03F741EA0E0E08FA02F0F8
:1011A00028FA03F14FEA1E453843B1FBF5F8030C6A
:1011B00005FB18111FFA8EF743EA014107FB08F3FC
:1011C0008B420CFA02FC09D911EB0E0108F1FF3930
:1011D00030D28B422ED9A8F102087144C91A80B2CC
:1011E000B1FBF5F305FB131140EA014107FB03F7DF
:1011F0008F4208D911EB0E0103F1FF3016D28F4256
:1012000014D9023B714443EA0843C91BA3FB0C8970
:10121000494509D305D000221DE79646FEE6134650
:1012200011E794404445F6D2013BF4E70346EAE770
:101230008846A5E7C846D1E702468CE713460AE789
:10124000023B57E7A8F102082F443FE72DE9F041A0
:10125000002B44D18A42154604464FD9B2FA82F790
:101260000E464FB1C7F12003B94020FA03F602FA47
:1012700007F50E4300FA07F44FEA154E230CB6FBB0
:10128000FEF0AFB20EFB106143EA014307FB00F131
:10129000994209D95B1900F1FF3280F0EC80994244
:1012A00040F2E98002382B445A1AA4B2B2FBFEF392
:1012B0000EFB132244EA024207FB03F7974208D9C8
:1012C000521903F1FF3180F0D880974240F2D58067
:1012D000023B43EA004000263146BDE8F0818B42E4
:1012E00047D8B3FA83F6002E48D18B4202D382420C
:1012F00000F2CD8001203146BDE8F08112B9012510
:10130000B5FBF2F5B5FA85F8B8F1000F77D14A1BB5
:101310004FEA154EAFB20126B2FBFEF0230C0EFBD6
:10132000102143EA014107FB00F38B4207D9491919
:1013300000F1FF3202D28B4200F2BA801046C91A85
:10134000A4B2B1FBFEF30EFB131144EA014407FB08
:1013500003F7A74208D9641903F1FF3280F08F80A8
:10136000A74240F28C80023B43EA00403146BDE890
:10137000F081002630463146BDE8F081C6F12004F8
:1013800022FA04F5B3402B4320FA04FC01FA06F7D5
:1013900021FA04F54FEA134E4CEA0707B5FBFEF8B5
:1013A000390C0EFB18551FFA83FC41EA05450CFB6E
:1013B00008F1A94202FA06F204D9ED1808F1FF3447
:1013C00067D3A0466D1ABFB2B5FBFEF40EFB1455F1
:1013D00047EA05410CFB04FC8C4504D9C91804F10B
:1013E000FF355CD32C4644EA0844CCEB0101A4FB56
:1013F0000223994248D344D0204600266CE7C8F126
:10140000200401FA08F305FA08F520FA04F7E14090
:101410004FEA154E1F43B1FBFEF63A0C0EFB1611B8
:101420001FFA85FC42EA01430CFB06F29A4200FADD
:1014300008F407D95B1906F1FF3137D29A4235D942
:10144000023E2B449B1ABFB2B3FBFEF00EFB1033DF
:1014500047EA03430CFB00F1994207D95B1900F1FD
:10146000FF3221D299421FD902382B445A1A40EA3E
:101470000646674650E7104616E70B4629E713462F
:1014800072E7B0409042B7D2601E002624E7304693
:1014900022E7A94295D9A8F102081D4492E78C459C
:1014A000A0D9023C19449EE71046DFE70E46C9E783
:1014B0000238294443E700BF72B6374880F30988F1
:1014C00036484EF60851CEF20001086040F20000A6
:1014D000CCF200004EF63471CEF200010860BFF38A
:1014E0004F8FBFF36F8F40F20000C0F2F0004EF656
:1014F0008851CEF200010860BFF34F8FBFF36F8FAA
:101500004FF00000E1EE100A4EF63C71CEF2000101
:101510000860062080F31488BFF36F8F9FF0FCFEF5
:10152000A4F0C2F81E481F491F4A91423CBF41F82F
:10153000040BFAE71D49184A91423CBF41F8040BDD
:10154000FAE71B491B4A1C4B9A423EBF51F8040B59
:1015500042F8040BF8E700201849194A91423CBFB1
:1015600041F8040BFAE79FF0DBFEA4F09FF8154C5E
:10157000154DAC4203DA54F8041B8847F9E701F033
:1015800023FC124C124DAC4203DA54F8041B88477A
:10159000F9E79FF0C3BE000000080020000001082A
:1015A000555555550000002000040020000400207F
:1015B00050F60D0800080020B4120020B8120020D8
:1015C00050F90020E0010108280201082802010862
:1015D000280201082DE9F04F2DED108AC1F80CD03A
:1015E000C3689D46BDEC108ABDE8F08FA0F06EFB8D
:1015F000002383F311882846A0470020A0F04AFA70
:10160000A0F05EFBA0F06AF9A0F060FB00DFFEE74F
:10161000844641EA000313F003036DD1403A41D3FD
:1016200051F8043B40F8043B51F8043B40F8043BBC
:1016300051F8043B40F8043B51F8043B40F8043BAC
:1016400051F8043B40F8043B51F8043B40F8043B9C
:1016500051F8043B40F8043B51F8043B40F8043B8C
:1016600051F8043B40F8043B51F8043B40F8043B7C
:1016700051F8043B40F8043B51F8043B40F8043B6C
:1016800051F8043B40F8043B51F8043B40F8043B5C
:1016900051F8043B40F8043B51F8043B40F8043B4C
:1016A000403ABDD2303211D351F8043B40F8043BEC
:1016B00051F8043B40F8043B51F8043B40F8043B2C
:1016C00051F8043B40F8043B103AEDD20C3205D3FC
:1016D00051F8043B40F8043B043AF9D2043208D0F4
:1016E000D2071CBF11F8013B00F8013B01D30B8866
:1016F00003806046704700BF082A13D38B078DD044
:1017000010F003038AD0C3F10403D21ADB071CBF15
:1017100011F8013B00F8013B80D331F8023B20F87F
:10172000023B7BE7043AD9D3013A11F8013B00F8B8
:10173000013BF9D20B7803704B7843708B78837040
:1017400060467047A2EB0300704700BF02780B7839
:10175000012A28BF9A42F5D16DE9044540EA010407
:10176000CDE902676FF0000C4FEA447212B380EAD1
:10177000010414F0070F6AD100F0070420F00700FD
:1017800004F0030521F007014FEAC505F0E8042342
:1017900014F0040FF1E804670CFA05F462EA04029D
:1017A00066EA04060AD063EA0403624667EA0407AD
:1017B000664603E0F0E80423F1E8046782FA4CF59A
:1017C00082EA0604A4FA8CF46CBB83FA4CF583EA33
:1017D0000705A5FA8CF595B950E9022351E902678E
:1017E00082FA4CF582EA0604A4FA8CF483FA4CF5EA
:1017F00083EA0705A5FA8CF52543DBD09CB92DBA01
:10180000B5FA85F424F0070427FA04F1DDE902674C
:1018100023FA04F303F0FF0001F0FF01FDE80445A3
:10182000A0EB0100704724BAB4FA84F424F0070452
:1018300026FA04F1DDE9026722FA04F202F0FF0061
:1018400001F0FF01FDE80445A0EB0100704714F032
:10185000030F3CD110F0030428D150F8082B51F8A5
:10186000083B82FA4CF582EA0305A5FA8CF55DB9CE
:1018700050F8042C51F8043C82FA4CF582EA030536
:10188000A5FA8CF5002DE8D02DBAB5FA85F424F030
:10189000070423FA04F122FA04F202F0FF0001F037
:1018A000FF01FDE80445A0EB010070474FEAC404C6
:1018B00020F0030050F8082B21F0030151F8083BF9
:1018C0000CFA04F462EA040263EA0403C9E710F0C4
:1018D00003041AD0A1EB040120F00300E40750F840
:1018E000042B06D00FD28B785FFAA2F4E41A06D14B
:1018F0002BB1CB785FFAB2F4E41A00D11BB92046C1
:101900005DF8104B704701F1040150F8042BCC072F
:1019100021F0030151F8043B48D824D222F07F443F
:1019200082FA4CF594EA1325A5FA8CF50AD165B92B
:1019300051F8043B84EA0204B4EB036F0ED150F873
:10194000042BEBE74FEA132355E035F07F454DD1EB
:101950000878FDE80445C0F1000070474FEA1262C4
:1019600003F0FF0347E002EA1C4482FA4CF594EAD4
:101970001345A5FA8CF50AD165B951F8043B84EA00
:101980000204B4EB034F0CD150F8042BEBE74FEA01
:10199000134330E015EA1C4528D10B884FEA124268
:1019A00029E04FEA124203EA1C4324E002F0FF045C
:1019B00082FA4CF594EA1365A5FA8CF50AD165B95B
:1019C00051F8043B84EA0204B4EB032F09D150F828
:1019D000042BEBE74FEA13630DE015F0FF0F05D181
:1019E0000B684FEA122223F07F4304E04FF000001F
:1019F000FDE80445704712BA1BBA82FA4CF482EA39
:101A00000304A4FA8CF5B5FA85F402FA04F203FA99
:101A100004F34FEA1260FDE80445A0EB1360704741
:101A200008B50C4A13780133DBB21D2B98BF137035
:101A300003684FF0000188BF11705B6888BF012107
:101A40009847054B1A7860F304121A70034B5872CA
:101A500008BD00BF00080020103B00206853002094
:101A60007FB50D4604A90023064641F8043D0C4805
:101A70004DF0CAFA044678B9039B33B93046214683
:101A80002A46084B57F0C2FD06E000933046214637
:101A90002A46054B57F0BAFD204604B070BD00BF82
:101AA00038400020542F0C086D2F0C0807B50B464A
:101AB000009220211A46034B57F0A8FD03B05DF8B1
:101AC00004FB00BF602F0C0810B50A4642F6A403C1
:101AD0000749CB585B7903F0040303F0FF042BB9EB
:101AE0002146044B57F092FD204610BD012010BD49
:101AF000D0120020702F0C0808B5C388012B0A46AD
:101B000001D05B060BD50A4B93F9441039B1D3F8D9
:101B1000C819B3F94630B1F90010994201DB012030
:101B200008BD4021034B57F071FD002008BD00BFE8
:101B3000D01200208E2F0C0808B5006C03685B687B
:101B4000984700F0010008BD30B5044687B01E4834
:101B50000D4646F06BFFA0B31B4846F067FF012817
:101B600006D8204620212A46184B57F04FFD26E084
:101B7000174842F6D553C35C1BB300F5147004A993
:101B800005AA47F029F8E0B19DED057ADFED117A5D
:101B9000B4EEE77AF1EE10FA14D8DDED047AFDEE3A
:101BA000E77A17EE100ACDED007AFEF7D3FC2A464D
:101BB000CDE90201084B2046202157F027FD0020E7
:101BC00000E0012007B030BD20150020A82F0C0830
:101BD000D01200209A99193FBF2F0C082DE9F84325
:101BE0002DED028BC388012B05460C4604D09A06C6
:101BF00002D44FF001085AE2BC4E304610F006FF06
:101C0000804640B1BA4B28462021224657F0FEFCC0
:101C10004FF000084BE296F944306BB1D6F8C83962
:101C2000B3F90410B6F9463003F10A02914211DD0E
:101C300040F28D3293420DDDB388AC48A3F57A7340
:101C40009BB241F65832934209D9284620212246B8
:101C5000A84B1DE0284620212246A74B18E042F65B
:101C6000A04390ED207AC358D3ED097AB4EEE77A19
:101C7000F1EE10FA08DC90ED217AD3ED0A7AB4EE99
:101C8000E77AF1EE10FA06DD9C4B28462021224629
:101C900057F0BCFC0BE242F2A903C3564BB100F56E
:101CA000C7502EF0FDFC20B9284620212246944B37
:101CB000ACE742F6A4032146F0588C4F03681B6C36
:101CC000984720B92846202122468E4B9EE797F957
:101CD0008C320D2B1BD097F95F302B2B00F09380AB
:101CE00097F960302B2B00F08E8097F961302B2B09
:101CF00000F0898097F962302B2B00F0848097F9EF
:101D000063302B2B7FD097F964302B2B7BD042F69E
:101D10009D03764FF35C9B0604D52846202122467E
:101D2000794BB5E728462146FFF70EFF002800F063
:101D3000BE8142F6A443DFED758AFB58D3ED1B7AD2
:101D4000F0EEE77AF4EEE87AF1EE10FAB0EE688A97
:101D500003D5284621466E4A79E1D3ED087AF0EEA4
:101D6000E77AF4EEE87AF1EE10FA03D52846214638
:101D7000684A6CE1D3ED097AF0EEE77AF4EEE87A9E
:101D8000F1EE10FA03D528462146634A5FE1D3ED10
:101D90000A7AF0EEE77AF4EEE87AF1EE10FA03D57B
:101DA000284621465D4A52E1D3ED0B7AF0EEE77A00
:101DB000F4EEE87AF1EE10FA03D528462146584AA7
:101DC00045E142F6A04957F8090003689B68984727
:101DD000D0ED007AF0EEE77AF4EEE87AF1EE10FA60
:101DE0001BD557F8090003689B689847D0ED057A22
:101DF000F0EEE77AF4EEE87AF1EE10FA0DD5284627
:101E00002146484A23E1002C00F0518139F076FB4D
:101E10000221454A35F054FD49E142F6A047F05908
:101E200003689B689847D0ED017AF0EEE77AF4EE0C
:101E3000C87AF1EE10FA13D52C4BD85903689B6879
:101E40009847D0ED057A9FED317AF0EEE77AF4EE1F
:101E5000C77AF1EE10FA03D528462146334AF6E058
:101E600042F6A047F05903689B689847D0ED027A84
:101E7000F0EEE77AF4EEC87AF1EE10FA0FD51B4BCC
:101E8000D85903689B689847D0ED057A9FED1F7A73
:101E9000F0EEE77AF4EEC77AF1EE10FA22D442F6C9
:101EA000A047F0590368DB689847D0ED007AF0EE60
:101EB000E77AF4EEC87AF1EE10FA3DD50B4BD8591B
:101EC0000368DB689847D0ED057A9FED107AF0EE55
:101ED000E77AF4EEC77AF1EE10FA2DD528462146BE
:101EE000134AB4E028462146124AB0E0D01200203E
:101EF000D82F0C08C6300C08B3300C08D6300C08AC
:101F0000EA300C08F52F0C083C300C0800000034B7
:101F100051300C085D300C0868300C0873300C0828
:101F20007E300C08FD300C080F300C080B310C080B
:101F300027310C0819310C0842F6A047F059036804
:101F4000DB689847D0ED017AF0EEE77AF4EEC87AD4
:101F5000F1EE10FA13D5584BD8590368DB6898474F
:101F6000D0ED057A9FED557AF0EEE77AF4EEC77A78
:101F7000F1EE10FA03D528462146514A67E042F6B1
:101F8000A047F0590368DB689847D0ED027AF0EE7D
:101F9000E77AF4EEC87AF1EE10FA13D5464BD85929
:101FA0000368DB689847D0ED057A9FED447AF0EE40
:101FB000E77AF4EEC77AF1EE10FA03D52846214607
:101FC000404A44E042F6A047F05903681B6998472D
:101FD000D0ED007AF0EEE77AF4EEC87AF1EE10FA7E
:101FE00013D5354BD85903681B699847D0ED057A4E
:101FF0009FED327AF0EEE77AF4EEC77AF1EE10FA5E
:1020000003D528462146304A21E042F6A047F05940
:1020100003681B699847D0ED017AF0EEE77AF4EE99
:10202000C87AF1EE10FA15D5234BD85903681B690D
:102030009847D0ED057A9FED217AF0EEE77AF4EE3D
:10204000C77AF1EE10FA05D5204A28462146FFF757
:102050002DFD2CE042F6A0439FED187AF358D3ED06
:102060000A7AF0EEE77AF4EEC87AF1EE10FA03D5C8
:1020700028462146164AEAE7D3ED097AF0EEE77AD8
:10208000F4EEC77AF1EE10FA03D528462146114A3C
:10209000DDE7D3ED0B7AF0EEE77AF4EEC77AF1EEF6
:1020A00010FA7FF5A6AD284621460B4ACFE7BDECD6
:1020B000028B4046BDE8F883D012002000000034B7
:1020C00035310C0843310C0851310C085F310C08D4
:1020D00089300C0897300C08A5300C082DE9F04F1A
:1020E000824680699046026885B0D2F8B0200D46DD
:1020F0009047044620B9504621462A467D4B16E0BB
:10210000DAF81C0017F0CEFB044638B15046002127
:102110002A46794B57F07AFA0024E6E0DAF81C20D8
:1021200092F83D2032B1754B504621462A4657F071
:102130006DFADAE0724F42F64402414617F8029017
:1021400043F23C723E46B85802685269904720B943
:10215000504621462A466B4BE9E750462946FFF791
:10216000B3FC0390002800F0C08042F6420B17F841
:102170000B2002F02402242A04D1504621462A468C
:10218000614BD4E738461F2110F082FB20B9384656
:10219000214600F055FB08E038461F2110F078FB7F
:1021A00018B117F80B20130728D4BAF806201AB371
:1021B000012A2AD0D70628D4BAF8062011B201295C
:1021C00045D0900643D401E001294AD0520648D4B4
:1021D0004E4A1268506C026852699047012804D137
:1021E000504600212A464A4BA1E75046414605B0D9
:1021F000BDE8F04F57F0DEBD039C76E039F07EF984
:102200000221444A35F05CFB6FE0DAF81820D2ED89
:10221000517A92ED500A20EE270AA5F083FADFEDFD
:102220003E7AB6F9043020EE270ADFED3C7A20EE44
:10223000270A07EE903AF8EEE77AB4EEE70AF1EEF5
:1022400010FAB9DD504610212A46354B6FE742F6A9
:102250009D00305C8306B7D5504620212A46314B7D
:1022600065E796F94410264A39B1D2F8C819B2F98F
:102270004620B1F9001091422FDBB8F1000F03D0D6
:1022800009F0EF02042AA3D0D6F8C8291C4FB2F9EE
:10229000023000EE103A3846B8EEC00A00F062FF95
:1022A000B5EEC00AF1EE10FA06DD1F4A0092504664
:1022B00040212A461D4B16E043F23C72B858026892
:1022C0001269904710B9B9F10B0F81D1D6F8C8291E
:1022D000B2F90220002AE8DC7AE7134A144B009294
:1022E000504640212A4657F091F9204605B0BDE8F6
:1022F000F08F00BF6D310C0884310C08A0310C0840
:10230000D0120020C3310C08D4310C08C8120020B0
:102310000B320C0819320C08E02E65420000C8424E
:10232000EC310C083C300C0800320C08F4310C087D
:1023300036320C0838B503680D465B680121044647
:1023400098470A490A4A0B78507260F304130B70DD
:1023500003F0100303F0FF0033B120462A460121A9
:10236000BDE83840FFF7BABE38BD00BF103B0020C3
:10237000685300202DE9F04142F6A403264FFB5894
:102380000546587910F001040E46B84602D00120E7
:10239000BDE8F0813846202110F07AFA68B138465D
:1023A0001F2110F075FA40B12846214632461B4BDA
:1023B00057F02CF92046BDE8F08142F6420318F8A8
:1023C000033003F02403242B05D128460021324694
:1023D000134B57F01BF9B5F90630002BD7D0314617
:1023E0002846FFF73DFB314604462846FFF7F6FB3B
:1023F00020403146C4B22846FFF766FB3146044010
:102400002846FFF779FB31460440284657F098FCF0
:102410002040BDE8F08100BFD012002048320C08F7
:10242000D4310C0870B505460E4657F017F9002850
:102430002FD0EB88012B02D09A0700D470BD286CF6
:1024400003685B689847C0F300240CB9830501D486
:10245000012070BD286C03685B6A984742F63443DC
:102460000C4AD35807EE903AF8EEE77A30EE670A56
:10247000DFED097AB0EEC00AB4EEE70AF1EE10FA29
:10248000E6DD284602213246044B57F0BFF82046CD
:1024900070BD70BDD01200200000C84262320C082E
:1024A000F8B504460F4657F0F3F8E388012B0546CC
:1024B00001D05B070BD5E06919F0DCFB064630B9AB
:1024C000204604213A46034B57F0A0F835462846EB
:1024D000F8BD00BF75320C08F8B504460F4657F03A
:1024E000FFFAE388012B054601D0DB060BD5204619
:1024F000FFF722FB064630B9204610213A46034B2F
:1025000057F084F835462846F8BD00BF8C320C08D9
:1025100038B504460D4657F003F8C0B1E388012BE7
:1025200002D01B0600D438BD42F6E113084AD35C42
:102530003BB1204680212A46064B57F067F8002021
:1025400038BD20462946BDE8384057F02DBB38BD80
:10255000D0120020A1320C08F0B5124C85B0D4F88E
:10256000C0390093D4F8C4390193D4F8C839029320
:10257000D4F8CC3903936A46012307460E4657F038
:102580004DFC31460546384656F0CEFF04F5215441
:102590002840237860F3C303C3F3C000237005B061
:1025A000F0BD00BFD01200202DE9F04F5B4D00239D
:1025B00004468069AB7203688FB0D3F8B0300E4622
:1025C0009847AB46804630B9204641463246544B88
:1025D00057F01CF89DE043F23C73524FF8580368E3
:1025E000DB689847824650484CF0F8FC10F0060F24
:1025F00014BF4FF001094FF00009BAF1000F07D1E5
:10260000B9F1000F04D101238BF80A30454675E07B
:10261000444811F0D3FA0546B8B9A06903685B6A6B
:10262000984750B9BAF1000F06D14048404BB9F174
:10263000000F08BF184600E03D48009000212046EA
:1026400032463C4B56F0E2FF58E0606C04A914F0AF
:10265000F3FF40B19DF811305A0604D52046002101
:102660003246354B2EE00023606C0B930C930D9398
:1026700009930A9308AA036801920BAD09AA029272
:102680000095D3F8CCC005A906AA07ABE0472846B9
:1026900026F032FED7ED1B7AB4EEE70AF1EE10FA1F
:1026A00004DB204600213246244B0BE0A1691D4883
:1026B00001F5987104F0F8FA054638B1204B204630
:1026C0000021324656F0A2FF002517E0E388012BD7
:1026D00001D01B0797D597F8E03B6C2203F003036A
:1026E00002FB0373B3F8AC2AB7F92A309A4207DD2C
:1026F000204608213246134B56F088FFA84608E0D2
:102700002046314657F062F8054600287FF47BAF3B
:10271000F4E740460FB0BDE8F08F00BF68530020DB
:102720006D310C08D012002038400020B2320C0865
:10273000CD320C086D2F0C08D9320C08E7320C088A
:10274000FC320C080E330C081FB501A816F060FE11
:1027500001A903484CF09CFC05B05DF804FB00BFE8
:102760003840002010B500F521521378C3F340140F
:102770008C4208D061F34513137021B10F21BDE8DD
:10278000104003F05DB910BDF8B500F521550746BE
:102790002B78C3F341038B420C4622D000F505563B
:1027A00041B101290DD11A2103F04AF93046062121
:1027B0000C4A10E01B2103F043F9304606210A4A77
:1027C00009E0012100F0AAFA38461D2103F038F98A
:1027D000064A3046062135F073F82B7864F342033D
:1027E0002B70F8BD6D330C0858330C0868330C0897
:1027F00042F69D0238B5835C0C46C3F34001A1420A
:102800000BD064F3410383549B0702D404F0AEFD64
:1028100001E004F0DBFE014B5C7338BD685300201F
:1028200042F69D03C25C61F38202C254704700000D
:1028300000F52150837843F0040383707047000053
:1028400042F64203C35CC3F3C0038B421FBF00F5D3
:1028500021539A7861F3C3029A7042F64203C35C33
:102860001B074CBF3621372103F0EAB855F0B6BE3E
:1028700042F0D2B948F01EB811F0F2BC03F0DEBE4F
:1028800044F0F2B80FF07EBD0FF004BC0FF074BB43
:102890002EF046BD21F098BD2FF090B951F038BE12
:1028A0003CF0A8BC01F092BC01F008BB01F000BBF9
:1028B00001F090BC0EF0A6BD05F080BC04F048BF4E
:1028C00004F09ABC2AF014BC05F004BA0FF0D4B896
:1028D00016F0B6B80FF032BD0DF07EBD00F04EBB65
:1028E0000EF0DABF0FF050BC56F032B946F064B8C3
:1028F0000FF092BC10F0D8BC0EF05ABF0EF0E2BE42
:1029000010F0AABB0FF088BB10B504462DF0D2F929
:10291000074B084A1A60204611F062F904F510606E
:10292000054931220823BDE810402EF015BB00BF39
:1029300010080020F81D0D0814360C0810B50446C8
:1029400000F510602EF046FC04F5315304F66414D3
:1029500022689A6210BD000010B504460FF040FADC
:102960002046BDE810400FF0AFBF0000FFF7F4BFF6
:1029700010B5044605F010FB204610F0F1FD20468E
:1029800005F0DAF8204605F08DF82046BDE8104045
:1029900004F00EB8FFF7ECBF10B50121044610F0AB
:1029A00027FE20B12046BDE8104002F0C9BF10BD8F
:1029B000FFF7F2BF38B50221044610F019FE28B126
:1029C0002046012110F014FE002862D020464FF46A
:1029D000003110F00DFE10B1204603F02FF8204614
:1029E000402110F005FE70B104F51D65284630F059
:1029F000FBFD42F6F05304F53751E356303113B185
:102A0000284630F0DDFE20464FF4806110F0F0FDE6
:102A100018B104F51D6030F04DFE2046202110F065
:102A2000E7FD50B143F23C73E0580368DB68984718
:102A3000B0BB20460BF0E6FB90BB2046802110F097
:102A4000D7FD98BB20464FF4802110F0D1FD68BB24
:102A500020464FF4002110F0CBFD38BB204610215A
:102A600010F0C6FD80B142F6A04304F51D65E058A4
:102A700049F07AFB284604F5147134F093F828469F
:102A800004F5A67134F02CF82046BDE8384003F078
:102A900005B9204602F054FF204602F0BBFF95E73F
:102AA00042F6A443E0584BF0F9FBC6E704F51D607D
:102AB00031F0C6F8D2E70000FFF77CBF10B5012166
:102AC000044610F095FD10B1204602F0A3FF204609
:102AD000802110F08DFD28B120464FF4002110F028
:102AE00087FD20B12046BDE8104003F009B904F588
:102AF0001D6030F0B3FFF5E7FFF7E0BF10B5044607
:102B000004F0ACFD204604F02DFD204604F0C2FE8A
:102B100004F5385008304FF0B5F8204604F014FEA4
:102B20002046BDE8104011F0A1BB0000FFF7E6BF52
:102B300070B54FF6FF71044610F05AFD04F52155AB
:102B400020B1204607212A6802F0CAFF04F501508F
:102B500042F6A4061830FEF763FFA3595B79DB0742
:102B60000FD404F5E350083015F0BEF92046FFF706
:102B70005FFEA05994F88C12036894F85E201B69DC
:102B800098473BF089FA204611F06CFB2B7843F212
:102B90005D12DB43C3F3C013A3542046BDE870406D
:102BA0000FF016BCFFF7C4BF70B500F6242605462B
:102BB00030461BF059FC002430461AF0C3F8E3B24B
:102BC000834213D20C2202FB03520134D2F86C1A56
:102BD000074A52F823008142EED042F8231005F54F
:102BE00033501430BDE8704051F020BC70BD00BFC0
:102BF000B8120020FFF7D8BFF8B500F5ED53103339
:102C000000F522561B68B36300F5ED531C3300F545
:102C1000E4571B68F3630446386800F58C40503075
:102C200023F04EFDBDEEC00A04F5235383ED000AE8
:102C3000B26B5A60354604F52353EA6B9A6020461E
:102C40004FF6FF7110F0D4FC30B120463A680921EC
:102C5000BDE8F84002F01CBFF8BD000010B500F55B
:102C60002152137813F0060357D042F64101415C1C
:102C7000C90752D551786FF300015170D0F8C0499F
:102C8000D0F8C429022BB4F9023006EE903AF8EEDF
:102C9000E66A0ED100F52253D3ED0E5AB2F9023096
:102CA00007EE903A00F52253F8EEE77A93ED0F6ABB
:102CB0000DE000F52353D3ED015AB2F9023007EECF
:102CC000903A00F52353F8EEE77A93ED026A26EE88
:102CD000677A67EEA57A00F5ED52E6EE867AA6EE03
:102CE000A57AD2ED076A92ED046A67EEA66AE7EE6E
:102CF000066AFDEEE66A16EE903A6380D2ED046A4B
:102D0000D0F8C40967EEA67AD2ED076AE7EE667AD4
:102D1000FDEEE77A17EE903A438010BD10B50446F9
:102D20002DED028B61B320460EF0EEFD04F523522B
:102D300040F2E63113681B1A03F2F3138B422BD9CE
:102D4000106000F58C405030642390FBF3F308EEE4
:102D5000103ADFED137AB8EEC88A28EE278AB0EE73
:102D6000480AA4F0EBFA04F5235383ED010AB0EE10
:102D7000480AA4F00DFC04F5235484ED020A0BE08C
:102D800000F521531B7803F00603042B04D10EF049
:102D90008FFDB0F57A7FC6D2BDEC028B10BD00BFAF
:102DA00035FA8E3C10B504460FF090F820461021FD
:102DB00010F01EFC20B12046BDE8104003F04EB8D4
:102DC00010BD0000FFF7EEBF10B50A4604490346E8
:102DD000086801680C681946024BA047002010BD26
:102DE000C8120020D012002070B500F5235504460B
:102DF0001035284616F08AF994F92C30002B3FD074
:102E000042F6A40304F55D66E058283034F07CF8FF
:102E1000DFED1C0A90ED000AB7EE001A23F094FCD7
:102E200094F92E3E012B08BF86ED180A0021284692
:102E300015F0B8FFDFED147A04F5955393ED077A9A
:102E400020EE270ADFED117AA7EE270A304683ED40
:102E5000070A18F0E1FD20464FF4005110F0C8FBBE
:102E600070B104F5E350083013F0E2FD40B904F509
:102E70001D60314600220023BDE8704033F016BCCF
:102E800070BD00BF00000000CDCCCC3D6666663F43
:102E9000FFF7AABF00F5E3500830012114F01CBB76
:102EA00010B5044600F59650183021F003FC42F6A8
:102EB000A043E05803685B6A984720460EF02AFA60
:102EC0002046FFF7E7FF204604F092FD204604F07D
:102ED00099FF204604F006FA204605F039FA20460C
:102EE00003F0A2FF204605F01FF904F5345014301A
:102EF0003CF086F920464FF6FF7110F079FB20B1C7
:102F00002046BDE8104002F071BE10BDD0EDA16AB0
:102F100090ED1F0AF5EEC06A07EE901AF1EE10FA76
:102F2000B8EEE77A02D827EE000A7047F7EE007A8B
:102F3000F4EEE76AF1EE10FA1BDCB6EE006AF4EE8E
:102F4000C66AF1EE10FA14D49FED0B6AD0EDA15AC7
:102F500087EE067A77EEE57A67EE076A67EE877A9C
:102F600026EE877AE5EE877A67EE867A27EE800A84
:102F70007047C0EDA17AE7E700A08C4570470000DC
:102F800042F6A443C0584BF05BBB000038B5B5EE29
:102F9000C00AF1EE10FA2DED028B04460D46F0EE5C
:102FA000408A07D842F6A403C05803681B689847B4
:102FB000F0EE408A20460EF085FF00210028CCBFAD
:102FC00004464FF4FA744FF47A72284623F0B2FBA9
:102FD00023B29842B6EE000A0CDA07EE900A07EE2A
:102FE000103AB8EEE78A68EE007AB8EEC78A87EE44
:102FF000888A15E0C1BFC21A08EE102AB8EEC88A46
:10300000C3F57A73C3BF68EE007A08EE103AB8EEE3
:10301000C88AB0EE408AC4BF87EE888A38EE008A3C
:1030200078EEC08AB5EE080AF1EE688A88EE800A6A
:10303000FEEE000AB7EE001A23F086FB60EE087A77
:10304000B7EE007A67EE887A37EE400A67EE887A44
:10305000E8EE007ABDEC028BB0EE670A38BD0000E6
:1030600008B542F6A403C05803681B689847F6EEFB
:10307000007A20EE270ADFED057AB4EE670AF1EE5A
:1030800010FA48BFB0EE670A08BD00BF000000009C
:1030900007B542F6A44302A9C25821ED010A00F582
:1030A000315300F5365092ED080AD2ED320A93ED15
:1030B0000A1A38304CF0E6FB9DED010A03B05DF8CA
:1030C00004FB000038B52DED028B42F6A043DFED86
:1030D000100AC358B7EE001A93ED240A044623F0F1
:1030E00033FB42F6A443B0EE408AE55842F6A4030F
:1030F000E05803681B68984738EE400A9FED058A40
:1031000020EE080A85ED120ABDEC028B38BD00BF27
:103110000000000000007A4400F5ED5300F5ED508A
:10312000D3ED045AD2ED007AD0ED076A91ED006A32
:1031300026EEE77A67EEA57AA6EE257AE6EE267AFF
:1031400081ED007AC2ED007A70470000B0F8943843
:1031500013B9B0F9400000E018B20028B8BF4042EF
:1031600080B2704738B52DED068B42F69D030446BC
:10317000C35C03F00203B0EE408A03F0FF0513B115
:103180009FED280A4AE00EF09DFEB4F948309FED0D
:10319000269ADFED240A01EE103A07EE900AF8EEC7
:1031A000C19AB0EE480AB0EE491AF8EEE78A23F069
:1031B000CBFA38EEE9AAB4F9480029464FF4C872B0
:1031C000B0EE408A23F0B6FAB4EECA8AF1EE10FAF5
:1031D000A4F848000DD52046FFF7B8FF07EE900A87
:1031E00038EE4A0AB8EEE77A27EE000A80EE0A0ABD
:1031F00014E038EEA91AB4EEC18AF1EE10FABFDD80
:10320000B4F9403007EE903A38EE410AF8EEE77A2A
:1032100067EE807A39EE410A87EE800ABDEC068BB4
:1032200038BD00BF0000000000007A4438B50446F5
:103230002DED048B4C480D46F0EE408AF0EE609A7E
:103240000EF090FE07EE905AB8EEE78A10B9B0EE95
:10325000480A85E004F531502C3051F00DFBB0EEFA
:10326000409A59F05DF842F630430122E2543F4B58
:103270001A68821AB2F57A7F1A4604F5305303F1C0
:103280002C030CD941F67611615E07EE901AF8EE28
:10329000E77A77EEA87A77EEC97AC3ED007A002D47
:1032A000106006DA42F6A402A258127912F0040F56
:1032B00006E00CD042F6A402A258127912F0080FD0
:1032C00002BFD3ED007AE8EE297AC3ED007A41F629
:1032D0007612D3ED007AA25E07EE102AB8EEC77A16
:1032E00041F6881177EE677AFDEEE77A17EE902ABD
:1032F000C72A05DD62560132012AB8BF012209E062
:10330000C73206DA6256013A501CA8BF4FF0FF32AE
:1033100000E00022625441F688116256002AB8BFCC
:103320005242022AC2BF002283ED007A625441F663
:103330008812A256002A8AD1D3ED006A94ED090AB8
:10334000DFED0B0A9FED0B1A36EEC77A78EEC97ADD
:1033500077EE677A27EE800A23F0F6F938EE000A56
:10336000BDEC048B38BD00BFD0120020C412002079
:10337000000016C300001643052070474FF4B073D9
:1033800003FB0100203070474FF4B07303FB0100D2
:103390002030704700238380C38003814381838171
:1033A00083737047B0F910007047000010B5847B3C
:1033B000621CD2B200EB4404042A827388BF00224C
:1033C000A18088BF8273084610BD0000FFF768BD6A
:1033D00000F55F50183007F03FBD000000F55F506A
:1033E000183007F0FDBC000000F55F50183006F003
:1033F0001BBB000004F054B8F0B5847B827C042C25
:1034000002D80134847300E08AB1837B013BDBB2D4
:103410005CB2002C03DC00EB4404A1801CE000EB58
:10342000440675882FB28F42F5DDB580EEE715466C
:103430006BB200EB4307FE880FFA86FE8E4503DB76
:1034400000EB4303998007E004F1FF3E734505F16B
:103450000105F5DABE80EBE7837B042B8DBFC37BD0
:1034600003F0FE031B1800EB430382F00102827499
:103470009B88038218B2F0BD0C4B10B50446036064
:1034800000F5375030303BF0FFFC04F50553084A97
:103490001A6042F24C13E05808B116F0C7F9D4F89C
:1034A0007C0808B116F0C2F9204610BDF0390C08AE
:1034B0006C0C0D0838B50446002504F0B5FE0D4B24
:1034C000236084F84C5084F84D5004F14E0015F000
:1034D00091FF04F15A0015F08DFF04F1660015F01C
:1034E00089FF04F1720015F085FFC4F88050204672
:1034F00038BD00BFCC7C0C082DE9F04F2DED028BC0
:10350000DD4B044687B040F8903B02F049FDDB4BB1
:103510000393029402AB93E8060004F510602DF0CB
:10352000E9FC04F5176029F0F3FC04F1540104F5FB
:103530001D602EF0D3F804F6242019F081FB04F16D
:103540004A03C4F8B83C04F55D6804F6BC4014F0C6
:103550003BFF404618F096F904F5035A04F59650DF
:1035600004F5C75918300AF1280A20F057FD5146D2
:10357000192248462CF09AFF04F5CB50002118225E
:103580001430A6F08BFE04F5CB501C3033F06EFCEB
:1035900004F5E35504F5CC50083504F5CF570C304D
:1035A00004F5D8563BF04AFA1036384629464A46C2
:1035B00027F08CFA304629464A4628F08BFB3946DC
:1035C00032460123284612F09DFF04F5FE5641F6CF
:1035D000D473B560E45041F6D873A94AE25041F67D
:1035E000DC73A84AE45004F5FF5300271A6041F643
:1035F000E4734FF6FF7BE45041F6E873A24AE250D1
:103600000436A6F84C70C6F89070A6F84EB0A6F82E
:1036100050B09E4930462CF031FB41F6C473A6F8F9
:1036200028B0A6F83AB0E754737803F0FE0367F3C6
:103630004103737004F5235704F50156183610370B
:10364000424630463B46294655F0B4FF04F5315812
:1036500042F258038E4AE25008F12C08C6F8408026
:103660007564043630462BF0C7FD28B930462BF080
:1036700081FD002800F07A8104F5025029462030AF
:103680002AF0DCFE04F5055650462DF06DFE0522AD
:10369000804B3282002233607282B2824FF4827099
:1036A00016F0BEF842F24C13E0507B4B1A6802B998
:1036B0001E607A4B46F8203B4FF0000A06EB0A00EA
:1036C00034F082FB764B46F80A300AF5B07ABAF548
:1036D000DC6FF3D142F644030026E65442F645037C
:1036E00004F52150E65442F6470304F5215AE65406
:1036F000203053F0E9FA0AF1380047F0C9F90AF12D
:10370000300A684B6849C3F800A050462CF0B6FA5E
:10371000B7EE008A04F5225383ED0B8A04F5225399
:1037200083ED0E8A04F5235383ED018A5F4B0593E5
:103730005F4B0093049406AB13E90C0038464FF43A
:10374000007115F079FA04F527503A464B462946A0
:10375000243041F0B7FA04F5295029462C3056F0B0
:10376000FBFE04F52A50103056F0FCFF04F53050F3
:10377000B0EE480A3C3033F097FC04F5315A04F5BA
:103780003150B0EE480A0AF11C0A103033F076FBD3
:10379000504615F02FFE42F66C43464AE25004F5BF
:1037A000315300271F635F639F6304F5325904F5AB
:1037B000315309F13909DF631F645F64484688F8B3
:1037C0002C60C8F8305042F0EFFC04F533533A4A0D
:1037D000C3F8009098469E7113604FF40043C8F8F8
:1037E0004830C8F84CA0C8F8505008F114084046BA
:1037F00032492CF043FAC8F80C9004F5345004F523
:103800003558524608F12808294614303BF002FC8E
:10381000404629464BF0CEFB04F5A67304F536501E
:1038200042460093294604F5147338304BF0FCFFF0
:1038300004F53750294618302CF002FD42F6D853D3
:103840001F4AE25004F5375030303BF009FB04F5D5
:10385000385008304EF0A2F904F538502430037D7A
:10386000C0F80C9003F0FC0366F382030375066155
:1038700014492CF003FA27E0F0390C08CD33010885
:10388000D1330108DD330108E933010878CC0C0895
:103890002C330C086C0C0D08D8530020083A0C0887
:1038A000243B0C08F4520020A48D0C08F5330108C9
:1038B000F8390C08E4460D08005D0020C4450D08E9
:1038C00054330C08D4500D0804F538503C30A4494A
:1038D0002CF0D4F904F5435804F5395008F13808B0
:1038E000294604304DF0D2FA40469E492CF0C6F9E4
:1038F00040469D49C8F8047004F544582CF0BEF9C0
:1039000008F10D0015F076FD04F544530122DA8329
:103910001E6204F54553FF221A7504F545534FF016
:10392000FF329A6204F5465343F2941208F10C08F0
:10393000A65404F55B595E7540468C492CF09EF9FF
:1039400042464846294653F0C9F9894BC9F8003028
:10395000884A062389F84030874B1360B1B2182299
:103960004A4301369D5C002DF8D104E042F25C032D
:103970000122E25480E6814B04F55C5643F2147850
:1039800019807F4B44F808301436B5733046FFF782
:1039900001FD7C4B44F808300423F3734FF0010918
:1039A00043F23C7304F56E5886F8129008F138081B
:1039B00004F55D5644F80380304604F035FC724B44
:1039C000336004F55E500C3004F02EFC04F55F56B5
:1039D00043F28C7318366D4AE250304604F024FCF2
:1039E00043F2D8736A4AE25004F56153184686F8E8
:1039F0004C5086F86450203083F8009004F014FC9A
:103A000004F5625643F66003624AE25034363046AB
:103A100004F00AFC43F6B4035F4AE25004F5645034
:103A200086F84C50043004F0FFFB43F604135B4A65
:103A3000E25004F56550103004F0F6FB43F65013E5
:103A4000574AE25004F5665604F566532836DF619E
:103A50001F625F62304604F0E7FB86F84C5043F685
:103A6000A81304F567564F4AE2503C36304604F03E
:103A7000DBFB43F6FC134C4AE25004F5695086F830
:103A80004C500C3004F0D0FB43F64C23474AE25034
:103A900004F56A50183004F0C7FB43F69823444AF3
:103AA000E25004F56B50283004F0BEFB43F6E823E7
:103AB000404AE25004F56C503430FFF7FBFC4046BE
:103AC00004F0B2FB43F6B8333B4AE25004F57050C1
:103AD000043004F0A9FB04F5715643F60443374A59
:103AE000E2501036304604F09FFB86F84C5043F607
:103AF000504304F572562036314AE250304604F005
:103B000093FB43F6A0432F4AE25086F84C5086F8C8
:103B10004D5004F57456304604F086FB86F84C5040
:103B200004F57555284B336010352846FFF7C2FC65
:103B300043F65053254AE25004F5775085F88490B7
:103B4000183008F035F942F6A0022046A35C43F095
:103B50000303A35407B0BDEC028BBDE8F08F00BF98
:103B600034470D08903C0D08A43C0D08DC350D08C9
:103B700058740C089053002038610C088A530020B8
:103B8000243A0C08343A0C088C750C08D8750C08CB
:103B900034760C08BC770C0814780C086C780C0888
:103BA000CC780C087C7A0C08E47A0C08A07B0C0812
:103BB000EC7B0C08447C0C08D87D0C08707D0C084C
:103BC00070770C08247E0C084C7B0C08247D0C08B4
:103BD00010B558F04FFD064C064B18602046FFF715
:103BE0008BFC20460449054ABDE81040A3F07EBA8C
:103BF000D0120020C812002079340108285D00206E
:103C000000207047002070470F4A42F64403D35CFF
:103C1000033BDBB2142B08D8012199400B4B0B401E
:103C2000002B14BF1823102300E0102342F6A40138
:103C300043F04000525822B15279D20748BF43F0B6
:103C4000C00040F001007047D01200201F60150036
:103C500042F64403014AD05C704700BFD0120020F6
:103C6000014B187B704700BFD0120020014B93F925
:103C70000E007047D0120020004870479432002098
:103C800000487047A020002000487047A43F002053
:103C90000020704700487047E0140020004870473B
:103CA000A840002001480FF0C1BC00BFD012002086
:103CB00000B58BB0192362228DF824100192009375
:103CC000C22103AA8DED030ACDED040A8DED051A7C
:103CD000CDED061A8DED072ACDED082A38F0F8FB58
:103CE0000BB05DF804FB000007B542F6A4030D4AD3
:103CF000D058283033F008F9DFED0B0A90ED000AB8
:103D0000B7EE001A22F020FDDFED087A20EE270A38
:103D1000BDEEC00A8DED010ABDF9040003B05DF8E7
:103D200004FB00BFD0120020000000000000C842C9
:103D3000014806F0E3BB00BFA84A00200148022268
:103D400004F0B6BBD012002008B50B6807EE103A9D
:103D5000F6EE007AB4EEE77AF1EE10FA04DD0348ED
:103D60000DF052FC002008BD042008BDD012002038
:103D70008B79DB0712D50A89CB79094843EA0223FC
:103D800041F6985243F31703825803EB2223C3F3FF
:103D90000722CB71C3F307430A724B72704700BF0F
:103DA000D0120020044B187820B942F64203034A8F
:103DB000D05CC009704700BFF8520020D01200202C
:103DC0000B4B42F69D029A5C910706D442F6E11134
:103DD000595C11B912F03C0F01D00520704703F572
:103DE00021531B7813F0800F14BF03200420704769
:103DF000D01200200B4991F97C328BB1907A537A22
:103E000043EA0023D07A43EA0043A62B08D06D2B67
:103E100006D0B1F90C00D3791B1A584258417047AB
:103E200001207047D012002010B592B0044602A8BD
:103E300015F0E0FA43F23C731B4AD058036802A91C
:103E40009B6B984768B3247E58F06AFA029B9FEDFB
:103E5000177A059043F3172307EE903A039B0693D6
:103E6000049B07930023F8EEE77A09930A930B93D8
:103E70000C930D930E930F9310934FF6F873ADF8C8
:103E800044300523962267EE877A8DF84630332337
:103E9000019200932046572105AACDED087A38F00B
:103EA00017FB12B010BD00BFD01200200AD7233C70
:103EB00000F50550002135F09FBA000000F50550CF
:103EC00037F0CABB03F04ABD2DE9F04F2DED028B50
:103ED00000F5235510358DB006468846284600214A
:103EE00014F04CFF28B12846002114F027FF0028C9
:103EF00052D1FF274FF6FF7430460EF069FA42F6B2
:103F00001C4306F5106056F803B042F6204356F8FD
:103F100003A042F6244356F803902DF039F92846C1
:103F20000021B0EE408A14F03DFFDFED257ACDF898
:103F300010B028EE278A20EE270ABCEEC87AFCEEE5
:103F4000C07A17EE103AADF81C3017EE903AADF883
:103F50001E300023ADF82230ADF82430ADF8263005
:103F6000ADF82830ADF82A30ADF82C307C221F2374
:103F7000019200934046012104AACDF814A0CDF887
:103F80001890ADF820408DF82E7038F0A1FA0DB0E1
:103F9000BDEC028BBDE8F08F0021284614F03EFEF8
:103FA0000021C7B2284614F023FFDFED067A20EE89
:103FB000270ABDEEC00A8DED030ABDF80C409BE751
:103FC00000007A440000C8422DE9F0412DED068B37
:103FD00042F6A0430646C0589FED380A9FED388A46
:103FE0008EB03C30884625F0CBF843F23C778DED1F
:103FF000061AF059CDED050A21EE081A03688DED79
:10400000040ABDEEC11A1B6B8DED031A20EE889ACF
:1040100060EE089ABDF80C50984707EE900AF8EE4B
:10402000E77AF05967EE887A0368FDEEE77ADB6A93
:10403000CDED037ABDF80C40984707EE900AF8EEF4
:10404000678ADFED207A68EE888A42F6A443F4EEB0
:10405000E78AF1EE10FAF05858BFF0EE678A49F09F
:104060002BFEF05903685B6BB0EE40AA9847FCEE5C
:10407000E87A00230A9317EE903A20EE080AADF88A
:1040800034302AEE08AA1A23B72201920093404640
:104090003E2107AACDED079A8DED089A8DED09AA6C
:1040A0008DED0B0AADF83050ADF8324038F010FA13
:1040B0000EB0BDEC068BBDE8F08100BF9F0CB34590
:1040C0000AD7233C00FF7F477FB500F5CC540C3462
:1040D0000E46204600213AF02FFD20B9204601214E
:1040E0003AF02AFDE0B1204600213AF00FFDA8B1D8
:1040F000A56A204601213AF009FD08B1A36B00E052
:10410000084B0393CF220823019200933046E2210B
:104110000DEB0302029538F0DBF901E0014DE8E711
:1041200004B070BD000080BF70B500F505532033AA
:1041300004461B79002B40D090F8053A6FF300033A
:1041400080F8053A58F0ECF81C4A1368C31AB3F526
:104150007A7F054608D910602046FFF7A9FE04F5CE
:104160000550032135F048F9154A1368EB1A142B52
:104170000FD904F505563046156035F039FF304645
:1041800036F09CFE304637F067FA04F5176028F0E9
:10419000AFFF0C4A136841F28831EB1A8B4206D903
:1041A000156004F505500621074A33F089FB94F8A1
:1041B000053A43F0010384F8053A70BD78510020B8
:1041C0007C51002080510020D43B0C0800F50550A4
:1041D00036F074BE00F5055035F00ABF2DE9F04108
:1041E00000F5E356083605462DED028B30460C46A9
:1041F00012F0F8FCB5F870300746D80704D4B5F8CB
:104200007030990763D531E042F6A043E85803685F
:104210009B689847DFED667A9FED667A90ED0B0A12
:1042200090ED0F1AD0ED0C1A90ED0D2AD0ED0E2A5C
:10423000D7ED000A012120EE270A60EE870A21EE61
:10424000271A61EEA71A22EE272A62EEA72A204635
:10425000FFF72EFD204639F0D1F88046204638F091
:10426000F3F808F118088045C9DB9DE042F6A04349
:10427000E8580368DB689847DFED4D7A9FED4D7A8B
:1042800090ED0B0A90ED0F1AD0ED0C1A90ED0D2A5F
:10429000D0ED0E2AD7ED010A022120EE270A60EEAA
:1042A000870A21EE271A61EEA71A22EE272A62EE6C
:1042B000A72A2046FFF7FCFC204639F09FF88046ED
:1042C000204638F0C1F808F1180880456CDAB5F8D6
:1042D00070305A072FD542F6A043E85803681B698F
:1042E0009847DFED337A9FED337A90ED0B0AD7EDE7
:1042F000020A90ED0F1AD0ED0C1A90ED0D2AD0EDB8
:104300000E2A032120EE270A60EE870A21EE271AE3
:1043100061EEA71A22EE272A62EEA72A2046FFF7AF
:10432000C7FC204639F06AF80746204638F08CF87A
:104330001837874238DAB5F870301B0734D542F6A3
:10434000A4431D4A9FED1A8AD5583046D5ED158AEB
:1043500012F07CFCDFED190AD0ED027A95ED191A06
:10436000D5ED161A95ED172AD5ED182A77EEA00A85
:1043700068EE888A2046B0EE680A21EE081A61EEDF
:10438000881A22EE082A62EE882A0421F1EE600AD9
:10439000FFF78EFC204639F031F8BDEC028B204649
:1043A000BDE8F04138F050B8BDEC028BBDE8F081BB
:1043B0000AD7233CE02E6542D01200200AE81C41B7
:1043C0002DE9F84304460F4635F00AFB054608B1CF
:1043D0000025DAE06E4E42F6A408B14656F80830E1
:1043E0007BB106F510602CF0C5FEF92809D856F807
:1043F00008305B79DA0704D537F080F801230376BB
:10440000C3E0FB1E2A2B00F2B980DFE803F016B7E9
:1044100039B7B7B7B7B7B7B7B7B7B7B7B7BDB7B7A4
:1044200057B7B7B7BDB7BDB7B7677787B7B7B7B730
:1044300097B748B7B7A7B7BDBD0042F6410319F813
:1044400003309B0640F1A080207E38F0D7FF054660
:10445000207E37F0F9FF1E358542B9DA217E4C48BF
:10446000FFF732FD207E38F0C9FF0546207E37F089
:10447000EBFF05358542ABDA204633F0E9FD83E0FA
:10448000207E38F0BBFF0546207E37F0DDFF193572
:1044900085429DDA3E48217EFFF796FD74E0207E3E
:1044A00038F0ACFF0546207E37F0CEFF0735854259
:1044B0008EDA3748217EFFF707FE65E0207E38F070
:1044C0009DFF0546207E37F0BFFF07358542BFF6CA
:1044D0007FAF2F48217EFFF7F5FC55E0207E38F0B6
:1044E0008DFF0546207E37F0AFFF0D358542BFF6C4
:1044F0006FAF2848217E3AF0CFFE45E0207E38F0AD
:104500007DFF0546207E37F09FFF21358542BFF6AF
:104510005FAF2046204935F039F835E0207E38F08D
:104520006DFF0546207E37F08FFF29358542BFF6A7
:104530004FAF1848217E3AF0C9FE25E0207E38F0C2
:104540005DFF0546207E37F07FFF18358542BFF6B8
:104550003FAF0F48217EFFF741FE15E0207E38F087
:104560004DFF0546207E37F06FFF25358542BFF6AB
:104570002FAF0A48217E46F069FC05E02046394607
:10458000BDE8F84336F00EBA01252846BDE8F883A9
:10459000D0120020E43F002070330020DC430020D4
:1045A00070B506460B48D0F88032DB070D4614463E
:1045B00004D500F55B50114652F0C4FD2146064873
:1045C00055F074FD304629462246BDE8704033F070
:1045D0009FBA00BFD01200206C1B002010B504460B
:1045E00034F074F905480FF02BF806210346044A0D
:1045F0002046BDE8104034F05BB900BFD012002067
:10460000E53B0C08034A92F8BC39013382F8BC3907
:1046100033F02CBBD012002038B54B69F7EE000AFE
:1046200000EE103A05460C4621F022FF28B1297E03
:104630000548BDE8384002F00BBC28462146BDE8DD
:10464000384035F057BF00BFD01200202DE9F04FA1
:104650002DED028B8A7A4B7A43EA0223CA7A43EA27
:104660000243872B9DB006460D4636DC862B81F231
:1046700004814C2B00F0AD8214DC452B00F0DF8070
:1046800009DC002B5FD0162B41F08B80C8483AF034
:1046900017FE01F0F2B8462B69D04B2B00F0CB810E
:1046A00001F07FB8562B00F0F58607DC522B00F0A6
:1046B000AB85542B00F00B8601F073B86D2B01F025
:1046C0000580842B41F06D80BA482BF073FFBA4807
:1046D000294644F0B7F901F0D0B8A62B00F0F687D0
:1046E0001EDC9D2B01F001800FDC952B00F0F9877B
:1046F0009C2B41F0568042F61E53B04AAC48D15C28
:104700002A463AF0A7FD01F0B8B8A03B012B01F210
:104710004880AB4831462A464AF022FE01F0ADB847
:10472000F62B01F0388006DCC82B1AD0F32B00F0F2
:10473000FB8701F036B8A3F51C53113B022B41F265
:104740002A8001F02EB89D4CCA79B4F90C309A42F7
:1047500041F0938057F0E4FD42F69003E05001F001
:104760008CB893492A4634F077F801F086B8934E16
:10477000CA79B6F90C309A4241F07F8042F6430381
:10478000F35C9F070CD442F69D03F15CCC0741F12A
:1047900074806FF30001F15439F062FB01F06DB8E1
:1047A00057F0BEFDEF78262F28BF262704460021AC
:1047B00026220CA8A5F072FD05F10C013A460CA8C2
:1047C000FCF726FF0020BDF93010224639F056FBD9
:1047D0000120BDF93210224639F050FB0220BDF90C
:1047E0003410224639F04AFB0320BDF93610224628
:1047F00039F044FB0420BDF93810224639F03EFB65
:104800000520BDF93A10224639F038FB0620BDF9E3
:104810003C10224639F032FB22460720BDF93E10FB
:1048200039F02CFB39F03EFB42F69D03F25C60F35D
:104830000002F25442F69003F45001F01EB85F4CAF
:10484000CA79B4F90C309A4241F01780CE780B2E19
:1048500028BF0B2600210B220CA8A5F01FFD324615
:104860000CA805F10C01FCF7D3FE9DF83A20B4F931
:104870000A309A4241F00180BDF93460002EC0F246
:10488000FC8757F04DFDBDF9323047F6FF72934279
:1048900005461ED0D4F8C019B1F90420B1F90810AA
:1048A00007EE902A03F57A738A1A5343F8EEE76A03
:1048B00007EE903AB8EEE77ADFED427AC7EE277A54
:1048C00076EEA77AFDEEE77ACDED037ABDF80C100F
:1048D00000E00021BDF9303047F6FF7293421ED050
:1048E000D4F8C409B0F90420B0F9080007EE902A02
:1048F000C3F57A73821A5343F8EEE76A07EE903AEB
:10490000B8EEE77ADFED2F7AC7EE277A76EEA77A50
:10491000FDEEE77ACDED037ABDF80C7000E00027DC
:1049200047F6FF739E421CD0D4F8C829B2F9043070
:10493000B2F9082007EE903AD31A7343F8EEE76A0B
:1049400007EE903AB8EEE77ADFED1F7AC7EE277AE6
:1049500076EEA77AFDEEE77ACDED037ABDF80C800E
:1049600001E04FF00008BDF9363047F6FF72934280
:104970002ED0D4F8CC09B0F90420B0F9080007EE25
:10498000902A03F57A73821A5343F8EEE76A07EE2A
:10499000903AB8EEE77ADFED0B7AC7EE277A76EE3B
:1049A000A77AFDEEE77ACDED037ABDF80C6010E052
:1049B000E43F0020B02B002020150020D012002062
:1049C000384000200000FA4400007A4400007F4391
:1049D000002642F6600309B2E05C0138C0B22A4604
:1049E00039F04CFA42F6610339B2E05C0138C0B2EA
:1049F0002A4639F043FA42F663030FFA88F1E05C85
:104A00000138C0B22A4639F039FA42F662032A4622
:104A1000E05C0138C0B231B239F030FA39F042FA14
:104A200042F69D03E25C60F30002E25442F690031A
:104A3000E55000F022BFCC78232C28BF232400218E
:104A400023220CA8A5F02AFC22460CA805F10C0193
:104A5000FCF7DEFDBDF84C40B32C1FD0C92C00F094
:104A60008880202C40F0AA80DDED0C7AF5EEC07A2B
:104A7000F1EE10FA40F3A4801FED2C7AF4EEC77A21
:104A8000F1EE10FA00F29C80FCEEE77ACA4ACDED16
:104A9000037A9DF80C30A2F89E388DE09DED0C8ACB
:104AA000F7EE000AB0EE480A21F0E2FC30B1C2484D
:104AB000012102F09BF900287ED181E0DFEDC37A6D
:104AC000B0EEC88AB4EEE78AF1EE10FA78D59DF818
:104AD000507027B17B1F012B01D9032F70D1DDF856
:104AE0004090DDF844804846414622F0B9F800285D
:104AF00066D00C2208A80021A5F0D0FB9FEDAF7A6C
:104B0000DDED127ACDF8249067EE877A032FFDEE63
:104B1000E77ACDF8288017EE903AC3F307228DF894
:104B20002130C3F307438DF822208DF8233001D0C4
:104B3000062F18D113F0AEFB90F83C31D8073FD5C3
:104B40009D4A41F69853D358089A43F3172303EB31
:104B50002223C3F307228DF82130C3F307438DF8D6
:104B600022208DF8233008A90122934802F0B6F8DC
:104B7000A1E7DDF84080119F4046394622F070F8E9
:104B8000F0B19FED8E7ADDED127A8D48CDF824805C
:104B900067EE877A08A9FDEEE77A0A9717EE903A52
:104BA000C3F307228DF82130C3F307438DF8222089
:104BB0008DF8233001F064FC002302E0032300E0C1
:104BC0000423307EAB708F2203232C80009301924C
:104BD00015E3CC78212C28BF2124002121220CA808
:104BE000A5F05CFB0CA805F10C012246FCF710FDBA
:104BF000BDF84C30CF2B00F0F1813BD8202B7AD080
:104C000027D8142B6CD005D8112B40F0E6826A48C7
:104C1000052167E0152B6BD0162B40F0DE82DDED11
:104C20000E7A9FED6A7A644A9DED120AF0EEE77AF9
:104C3000F4EEC77A43F23C73DFED607AD058F1EEC0
:104C400010FA20EE270A4CBF012100210FF082F953
:104C50004BE0B32B00F0A38005D8732B65D0B22BAB
:104C600000F08980B9E2C92B00F0F980CD2B00F06B
:104C70002A81B2E2B3F5C87F00F06D810CD8D12B48
:104C800000F0E581C0F0C181F62B00F09481B3F50E
:104C9000967F00F04F81A0E24AF21242934200F068
:104CA00021820AD840F6D812934200F0F9814AF2E4
:104CB0001142934200F004828FE24AF2134293427F
:104CC00000F05F824AF2BD52934240F0868241F684
:104CD000A803394A9DED0C0AD0580FF085FD04E079
:104CE00035480621022203F0E3FB002855D17BE280
:104CF00031480921F6E7DDED0C7AF5EEC07AF1EEE8
:104D000010FA40F371829FED2F7AF4EEC77AF1EE3C
:104D100010FA00F26982FCEEE77A274ACDED037AB9
:104D20009DF80C30A2F89E3837E0DDED0C7AF5EEF8
:104D3000C07AF1EE10FAC0F257829FED237AF4EEBA
:104D4000C77AF1EE10FA00F24F829DED0F0ADFED07
:104D50001F7AB0EEC07AB4EEE77AF1EE10FAB0EE58
:104D6000678A00F13785F7EE000A21F081FB002801
:104D700040F0308538E2DDED0D7AF5EEC07AF1EEE7
:104D800010FA40F3318242F6A8430B4A9FED0B0A1A
:104D9000D05827EE800A4DF0C1FE002025E29DED9F
:104DA0000C0AF7EE000A21F063FB98B101210248DA
:104DB00002F01CF899E700BFD01200200000C842A2
:104DC0008451002000007F430000B4430000003401
:104DD0008096184BDDED0C7A1FED047AF0EEE77A41
:104DE000F4EEC77AF1EE10FA40F1FE819DED100A63
:104DF000DDED110A21F018FF002800F0F5815FEDCC
:104E00000C6A9DED107ADDED117ACE4827EE267AF8
:104E100067EEA67ABDEEC77AFDEEE77A8DED097AE8
:104E2000CDED0A7A9FEDC87ADDED127A67EE877ACA
:104E300008A9FDEEE77A17EE903AC3F307228DF842
:104E400021308DF82220C3F3074301228DF823304F
:104E500001F044FF00280CBF04200020C5E19DEDB7
:104E6000100ADDED110A21F0DFFE002800F0BC8100
:104E7000DFEDB66A9DED107ADDED117AB44827EECC
:104E8000267A67EEA67ABDEEC77AFDEEE77A8DED5B
:104E9000097ACDED0A7A9FEDAC7ADDED127A67EEF4
:104EA000877A08A9FDEEE77A17EE903AC3F3072256
:104EB0008DF82130C3F307438DF822208DF823307D
:104EC00001F0DEFA69E742F61E539E4CA148E15C10
:104ED0003AF09CF9014658B9DFED9B7A9DED0E0A38
:104EE0009B48DFED9D0A80EE270A0A4601F06CFA26
:104EF00042F61E539748E15CDDED0E7AFDEEE77A4F
:104F0000CDED007ADDED127AFCEEE77ACDED037A95
:104F1000DDED0C7A9DF80C300193FDEEE77A17EE8B
:104F2000902ADDED0D7AFDEEE77A17EE903A3AF031
:104F3000A1F932E7834C42F6A403E3585B79D90721
:104F400040F1528120460321022203F0B1FA0028E9
:104F500040F05A8448E19DED0C0AF7EE000A21F07A
:104F600087FA68B19DED0D0ADFED7C0A21F080FA29
:104F700080F001020121D2B272480CF087FAB4E647
:104F8000DDED0C7A9FED767AF0EEE77AF4EEC77AF3
:104F9000F1EE10FA40F12681724B1B781A0600F1EF
:104FA00003819DED0D0ADFED700A21F061FA002802
:104FB00040F0FA8018E19DED0C0AF7EE000A21F0AE
:104FC00057FA002840F02F849DED0C0AF0EE080AF5
:104FD00021F04EFA002840F0268405E1DDED0C7A40
:104FE000FCEEE77ACDED037ABDF80C403CB1012C24
:104FF00040F0FA805D4821464AF0CAF8CDE65B48A9
:1050000021464AF0C5F82046EFE0DDED0C7AFCEED3
:10501000E77ACDED037ABDF80C30012B0ED033B119
:10502000022B40F0E180474802F010F8B5E6504806
:10503000002151F0E9FD4348312105E04C480121B0
:1050400051F0E2FD3F48322100F0FAFCA5E6DDED2B
:105050000E7ADDED0C6A9DED0D7A317E9DED0F0A25
:105060003848FCEEE77AFCEEE66ACDED037ADDED3A
:10507000107ABDF80C300093FCEEE77ABCEEC77AEC
:10508000CDED037A9DF80C30CDED036A9DF80C2030
:105090008DED037A01939DF80C300CF0B1F8A4E08B
:1050A000DDED0D7A3348FCEEE77ACDED037A9DF81D
:1050B0000C30012B0CBF002101214FF07BFC6CE672
:1050C000204842F69D03C35C9B073FF566AE052171
:1050D000022203F0EDF900287FF45FAE02211948A7
:1050E0000A464BE0174B42F69D029A5C97073FF544
:1050F00054AE42F6A4029B585B79DC0705D401212B
:105100000A4610480CF0C2F947E60E4F07F5215346
:1051100038461B7823F07F0373B30521022203F086
:10512000C7F900283FF439AE43F23C73DFED067A4D
:105130009DED0C0AF85820EE270A01210EF00AFF17
:105140002BE600BFD01200200000C8428096184B0A
:1051500084510020E43F00200000000000D03A45C8
:1051600000000034103B00200098A5463840002085
:10517000F44000200C4100200921022203F098F99C
:105180000BE6BD4B42F69D029A5C90073FF505AEDB
:1051900042F6A4029A585279D1077FF5FEAD03F585
:1051A00021521278120603D5B3480CF02DFAF4E51B
:1051B000DDED0C7A9FEDB17AF0EEE77AF4EEC77A86
:1051C000F1EE10FA00F14A8342F644029B5C03F0D0
:1051D000EF03042B40F04283DFE530460CA935F0A5
:1051E00075FA02E0032000E00420327EBDF84C3066
:1051F0002B808F210323A8700093019110464D212D
:105200002A4637F065F938E3CC78272C28BF2724C5
:10521000002127220CA8A5F041F822460CA805F190
:105220000C01FCF7F5F9944C43F23C73E058036829
:10523000DB6B9847002800F020839DF8565015F04E
:10524000C00F40F01A83DFED8E0A9DED140AB7EE11
:10525000001A21F079FAF6EE000AB0EE408A21F049
:1052600007F9F8B9B6EE000AB4EEC08A42F6A843D0
:10527000F1EE10FAD5BFE358E358D3ED097A38EED2
:10528000408AD3BF30EE488A38EE088A93ED080A88
:1052900038EE088AD6BFF0EEE77A28EE000A27EE4D
:1052A000C80A01E09FED760A0D9B08930E9B0993B7
:1052B00085F004020F9B0A937248109BDDED130AE0
:1052C0000B9308A9C2F3800207F074FFD5E2CC78F3
:1052D000352C28BF3524002135220CA8A4F0DEFF90
:1052E00022460CA805F10C01FCF792F943F23C733D
:1052F000614AD0580368DB6B9847002800F0BD82F4
:105300009DF86450012D03D0EB1F022B00F2B582F3
:10531000BDF8604014F0070718BF012714F0380FDC
:105320004FF0000314BF4FF001094FF0000914F4CF
:10533000E07FC4F3802614BF4FF001084FF000084F
:10534000C4F3C0240593069307939A4677BB9FED59
:105350004E6A9DED0E7ADDED0F7ADDED0D6A27EEDA
:10536000067A67EEC67A66EE866AA5F10803012B17
:10537000CDED056A8DED067ACDED077A04D83E486D
:1053800005A906AAFDF7C8FEEB1F022B07D83F4868
:105390004FF06AFA014605A823F0C8FE06E0364839
:1053A0009DED070A0CF0DCFA8DED070ACDF820A080
:1053B000CDF824A0CDF828A0B9F1000F1CD19FEDA5
:1053C000326A9DED117ADDED127ADDED106A27EE7D
:1053D000067A67EEC67A66EE866AA5F10803012BA7
:1053E000CDED086A8DED097ACDED0A7A04D8224810
:1053F00008A909AAFDF790FE7EB9DDED167A9FEDAA
:10540000240A083D27EE800ADFED1F7A012D20EEE9
:10541000270A8CBF0025012502E09FED190A00250F
:1054200054B9DDED177ADFED1A0A67EEA00ADFED59
:10543000167A60EEA70A01E0DFED110A5FB9B9F153
:10544000000F12D1B8F1000F00F0178284F00104B0
:105450008DE8300000E1B9F1000F40F00E82B8F1A4
:10546000000F00F00A82009519E1B8F1000F00F07A
:105470000482009521E100BFD0120020000000341A
:1054800000000000CC4C00200000C8423C3F00203F
:10549000E02E6542CC78352C28BF352400213522FA
:1054A0000CA8A4F0FBFE224605F10C010CA8FCF7A9
:1054B000AFF8BE4C43F23C73A246E0580368DB6B86
:1054C0009847002800F0D9819DF86490B9F1000F49
:1054D0000BD0A9F10503012B07D9B9F1030F04D0B3
:1054E000A9F10A03012B00F2C881BDF8604014F055
:1054F000070818BF4FF0010814F0380F4FF00003F1
:1055000014BF0125002514F4E07FC4F3802614BFE6
:1055100001270027C4F3C024059306930793B8F12D
:10552000000F55D10D9BDDF838B00393184659464E
:1055300021F096FB039B002800F09F819FED9C7A51
:10554000DDED0F7A099367EE877AA9F10309FDEE85
:10555000E77ACDF828B017EE902A42F31702C2F38B
:1055600007238DF82230C2F307438DF821208DF8F0
:1055700023309DF82010B9F1080F09D8DFE809F0B1
:105580001808081808080805050041F0090113E08B
:1055900041F698535AF80330A2EB2322C2F30723B3
:1055A0008DF82120C2F307428DF822308DF8232098
:1055B00041F001016FF3C3018DF820107B4808A969
:1055C0000CF0F4F98DED050ACDED060A8DED071A04
:1055D0008EB9DDED167A9FED770A9DF8642027EEEF
:1055E000800A083ADFED727A012A20EE270A8CBF82
:1055F0000022012202E09FED700A002254B9DDED85
:10560000177ADFED6C0A67EEA00ADFED697A60EECB
:10561000A70A01E0DFED680AB8F1000F24D1002DE0
:1056200047D1002F00F029819FED616A9DED117A2D
:10563000DDED127ADDED106A019227EE067A67EE53
:10564000C67A66EE866A84F00104CDED086A8DEDB7
:10565000097ACDED0A7A009405A908AA86F001031B
:10566000564808F01FFB08E1002D40F00681002F8E
:1056700000F003819FED4E6A9DED117ADDED127A07
:10568000DDED106A009227EE067A67EEC67A66EEC6
:10569000866A8DED097ACDED086ACDED0A7A01238F
:1056A000019386EA0302454808A9634008F056FBC7
:1056B000E3E0002F00F0E180009205A986F00102EE
:1056C00084F001033D4808F03BFAD6E00821374852
:1056D0000DF08EFF29460346394A304633F06CF907
:1056E000CBE038484BF0B8FCC7E042F61E532F4CD5
:1056F0003548E15C39F08AFD014668B9D5ED057A97
:105700009FED2B0A3148DFED2C0AF8EEE77A0A46C6
:1057100087EE800A00F058FE42F61E532A48E15CEC
:105720002A4639F09FFDA8E0CC783D2C28BF3D24C7
:1057300000213D220CA8A4F0B1FD05F10C01224688
:105740000CA8FBF765FF0C9D0D9C3DB934B90E9B71
:1057500023B90121154801F049FB8EE02846214676
:1057600021F07EFA002800F088800A220E9B93FB2D
:10577000F2F3C3F307228DF821308DF82220C3F312
:10578000074308A90122094809950A948DF8233096
:1057900001F0A4FA71E00E48317E2A4646F094F8F2
:1057A0006BE03046294635F0A1FD66E0D0120020BE
:1057B0000000C842E02E654200000000CC4C0020F2
:1057C000A01C002014410020E43F00208451002050
:1057D000DC430020DDED0E7A9DED0F7A29489DED2A
:1057E0000C0ADDED0D0AFDEEE77AB4EEC87AF1EEB3
:1057F00010FACDED037A9DF90C10ACBF0122002206
:1058000000F0E2FDFFF7C9BA20460121FCF7AAFF2C
:1058100041F6C473E35C012B3FF4BFAA1A4825F09C
:105820003BF8FFF7BABA194B194801229A7427F0CE
:105830005FFC184B1C68206C0368C8215B689847A4
:10584000246C9DED0C0A2368F0EE080ADF6A20F054
:105850000FFE01462046B847FFF79FBA0E481121B8
:10586000022202F025FE00283FF438AC0B4840F637
:10587000C41105F07BFDFFF790BA1DB0BDEC028BA3
:10588000BDE8F08F8451002094320020685300203E
:10589000401C0020C8120020D0120020304B0020F5
:1058A0000A4BD3F88022920701D432F0D1B842F6E5
:1058B0005C42DFED077A9B5843F3172300EE103A62
:1058C000B8EEC00A80EE270A704700BFD012002051
:1058D0000000C84210B542F2A90388B0C35604467E
:1058E00063B31C22002101A8A4F0D8FCA3238DF8E7
:1058F000043095238DF8053003238DF8063056F0DB
:1059000003FD42F2C103CDF80700E35C8DF80F30D0
:1059100004F5035304331A685B68059304F50353D5
:1059200004920C331A68CDF80B1006925B6807934B
:1059300004F51D6001A91C222BF0BEFF08B010BDAC
:105940002DE9F04142F6A046044680599FED300A09
:105950008CB03C3023F014FC0CAACDED0A0A8DED7E
:105960000B1A8DED090A12E907000DF10C0888E801
:10597000070006AB9DED050A83E8070004F5E35731
:1059800020F096FE04F51D654246083742F6A4480D
:10599000284639468DED050A30F0E6FC54F808300B
:1059A000009342F6A40328463946E258A35930F042
:1059B00077FF20464FF480510DF01AFE20B3A05916
:1059C00003689B689847B72100F12C02284630F005
:1059D000C9FEA0590368DB689847B82100F12C0282
:1059E000284630F0BFFEA05903681B699847B921CB
:1059F00000F12C02284630F0B5FE54F80820284665
:105A0000BA21543230F0AEFE0CB0BDE8F08100BFD8
:105A10009F0CB34538B500F5E35400F51D65083417
:105A20002846214630F054FB284621462EF0E0F966
:105A300028462146BDE838402EF06ABA704700007B
:105A400030B50D4685B04FF6FF7104460DF0D0FD20
:105A5000D8B10C22002101A8A4F020FCA3238DF8CA
:105A6000043095238DF8053004238DF8063056F068
:105A70004BFC0C22CDF80700CDF80B1004F51D608F
:105A800001A98DF80F502BF02DFF05B030BD00009F
:105A90007FB50E464FF6FF71044615460DF0A8FD82
:105AA000E0B1102200216846A4F0F8FBA3238DF892
:105AB000003095238DF8013008238DF8023056F020
:105AC00023FC1022CDF80300CDF8071004F51D606B
:105AD00069468DF80B6003952BF004FF04B070BD90
